:020000040800F2
:1000000000500020293700084D36000853360008FC
:10001000593600085F360008653600080000000009
:100020000000000000000000000000006B36000827
:100030007736000800000000833600088F3600087D
:100040007137000871370008713700089D360008C5
:1000500071370008713700087137000871370008E0
:1000600071370008713700087137000871370008D0
:1000700071370008713700087137000871370008C0
:1000800071370008713700087137000871370008B0
:1000900071370008713700087137000871370008A0
:1000A0007137000871370008713700087137000890
:1000B0007137000871370008713700087137000880
:1000C0007137000871370008713700087137000870
:1000D0007137000871370008713700087137000860
:1000E0007137000871370008713700080000000000
:1000F0000000000000000000000000000000000000
:0C01000000000000000000005FF808F1A3
:10010C0010B5054C237833B9044B13B10448AFF345
:10011C0000800123237010BD6C0300200000000040
:10012C00CC82000808B5034B1BB103490348AFF35D
:10013C00008008BD0000000070030020CC82000885
:10014C0080B500AF4FF400412A4804F0D5FE0346B9
:10015C00002B0CD1322004F045FC4FF40041254813
:10016C0004F0CAFE0346002B40D101233FE04FF4BC
:10017C008051204804F0C0FE0346002B0CD13220E5
:10018C0004F030FC4FF480511A4804F0B5FE0346DD
:10019C00002B2BD102232AE04FF40051154804F018
:1001AC00ABFE0346002B0CD1322004F01BFC4FF4A9
:1001BC000051104804F0A0FE0346002B16D1032377
:1001CC0015E04FF480410B4804F096FE0346002BDB
:1001DC000CD1322004F006FC4FF48041054804F0A9
:1001EC008BFE0346002B01D1042300E000231846AC
:1001FC0080BD00BF000C014080B483B000AF7860BC
:10020C0039607B681B78052B03D17B6819221A7027
:10021C0016E07B681B78192B03D17B683C221A7083
:10022C000EE07B681B783C2B03D17B6850221A7044
:10023C0006E07B681B78502B02D17B6805221A7074
:10024C0000BF0C37BD4680BC7047000080B485B041
:10025C0000AFF860B9607A603B607B6A1B78052B55
:10026C0011D1FB6893F90030DBB20133DBB25AB227
:10027C00FB681A70FB6893F90030022B5FDDFB689A
:10028C0000221A705BE07B6A1B78192B2BD12E4B4A
:10029C0093F90030012B11DC7B6893F90030DBB251
:1002AC000133DBB25AB27B681A707B6893F9003069
:1002BC00092B44DD7B6800221A7040E0234B01229D
:1002CC001A70BB6893F90030DBB20133DBB25AB25F
:1002DC00BB681A70BB6893F90030032B2FDDBB6829
:1002EC0000221A702BE07B6A1B783C2B11D13B68E7
:1002FC0093F90030DBB20133DBB25AB23B681A70AF
:10030C003B6893F90030052B19DD3B6800221A700D
:10031C0015E07B6A1B78502B11D1BB6993F9003027
:10032C00DBB20133DBB25AB2BB691A70BB6993F909
:10033C000030092B03DDBB6900221A7000BF00BF1F
:10034C001437BD4680BC7047880300208903002009
:10035C0080B500AF03F0BAF800BF80BD80B588B09F
:10036C0004AF3B1D00221A605A601A81FFF7E8FEA9
:10037C000346002B04D0FFF7EBFF002300F039BD40
:10038C0003F02CFA03F04AFAAB4B1A78AB4BDA7049
:10039C00A94BDA78A94B1A71A74B1A79A74B5A714A
:1003AC0003F004FCA54BDB78A54AA2FB0323DB0876
:1003BC00DAB2A44B1B789A420BD0A34B00221A70D2
:1003CC009E4BDB789E4AA2FB0323DB08DAB29D4BE3
:1003DC001A709A4BDA789A4BA3FB0213D9080B4686
:1003EC009B000B445B00D31ADAB2984B1B789A42F1
:1003FC0010D0974B00221A70904BDA78904BA3FBDD
:10040C000213D9080B469B000B445B00D31ADAB2DB
:10041C008E4B1A70894B1B79894AA2FB0323DB088C
:10042C00DAB28C4B1B789A420BD08B4B00221A7091
:10043C00824B1B79824AA2FB0323DB08DAB2854B81
:10044C001A707E4B1A797E4BA3FB0213D9080B460C
:10045C009B000B445B00D31ADAB2804B1B789A4298
:10046C0010D07F4B00221A70744B1A79744BA3FB7B
:10047C000213D9080B469B000B445B00D31ADAB26B
:10048C00764B1A706D4B5B796D4AA2FB0323DB082C
:10049C00DAB2744B1B789A420BD0734B00221A7051
:1004AC00664B5B79664AA2FB0323DB08DAB26D4B21
:1004BC001A70624B5A79624BA3FB0213D9080B4694
:1004CC009B000B445B00D31ADAB2684B1B789A4240
:1004DC0013D0674B01221A70664B00221A70574BCF
:1004EC005A79574BA3FB0213D9080B469B000B44BC
:1004FC005B00D31ADAB25D4B1A70504BDA78504B62
:10050C00A3FB0213D9080B469B000B445B00D31AC8
:10051C00DBB2002B40F0B680484B1B79092B00F264
:10052C00B180464B1A79464BA3FB0213D9080B46F4
:10053C009B000B445B00D31ADBB2002B40F0A28073
:10054C003E4B5B79092B00F29D803C4B5A793C4B1E
:10055C00A3FB0213D9080B469B000B445B00D31A78
:10056C00DBB2002B40F08E80374B1B780133DAB2B4
:10057C00354B1A70344B1B78182B1BD93B1D0A2298
:10058C000021184607F050FA2C4BDB782C4AA2FBC2
:10059C000323DB08DBB21A463B1D3749184607F02C
:1005AC007FFA3A1D00230093344B1421052004F0EC
:1005BC0022F882E03B1D0A220021184607F034FA8B
:1005CC001E4BDB781E4AA2FB0323DB08DBB21A4668
:1005DC003B1D2949184607F063FA1D4B1B78391D42
:1005EC0000220292019318230093244B0A461421F3
:1005FC00052004F04FF83B1D0A220021184607F095
:10060C0013FA0E4BDB78013B1D4A82FB031292104E
:10061C00DB17D21A3B1D1849184607F041FA0C4B50
:10062C001B78391D002201920093144B0A461421A9
:10063C00052004F006F840E09805002098040020FE
:10064C00CDCCCCCC8A0300208B0300208C03002063
:10065C008D0300208E0300208F03002090030020C8
:10066C0091030020920300209303002094030020A8
:10067C009503002096030020E4820008BC98000833
:10068C00676666663B1D0A220021184607F0CCF906
:10069C00BD4BDB78BD4AA2FB0323DB08DBB21A4659
:1006AC003B1DBB49184607F0FBF93A1D002300938C
:1006BC00B84B1421052003F09EFFB34B1B79092B7B
:1006CC0000F29A80B04B1A79B04BA3FB0213D908F5
:1006DC000B469B000B445B00D31ADBB2002B40F0A3
:1006EC008B80A94B5B79092B00F28680A64B5A793B
:1006FC00A64BA3FB0213D9080B469B000B445B00D3
:10070C00D31ADBB2002B77D1A34B1B780133DAB2AF
:10071C00A14B1A70A04B1B78182B20D93B1D0A2219
:10072C000021184607F080F9974BDA78974BA3FB1A
:10073C000213D9080B469B000B445B00D31ADBB2A7
:10074C001A463B1D9249184607F0AAF93A1D002398
:10075C000093904B1421192003F04DFF6CE03B1DCE
:10076C000A220021184607F05FF9874BDA78874B8D
:10077C00A3FB0213D9080B469B000B445B00D31A56
:10078C00DBB21A463B1D8249184607F089F9824BA9
:10079C001B78391D002202920193182300937D4B84
:1007AC000A461421192003F075FF3B1D0A22002173
:1007BC00184607F039F9744BDB785A1E774B83FBDC
:1007CC0002139910D317C91A0B469B000B445B00FC
:1007DC00D11A3B1D0A466E49184607F061F96E4B5B
:1007EC001B78391D0022019200936A4B0A46142192
:1007FC00192003F026FF1FE03B1D0A22002118469A
:10080C0007F012F9604BDA78604BA3FB0213D9089E
:10081C000B469B000B445B00D31ADBB21A463B1D04
:10082C005B49184607F03CF93A1D00230093594BDD
:10083C001421192003F0DFFE3B1D0A22002118466B
:10084C0007F0F2F8504B5B7903F00103DBB2002B9D
:10085C0008D1002300934F4B514A14212D2003F053
:10086C00CAFE07E0002300934A4B4E4A14212D2068
:10087C0003F0C1FE444B1A79444BA3FB0213D90875
:10088C000B469B000B445B00D31ADBB2002B40F0F1
:10089C008D803D4B5B79092B00F288803A4B5A795D
:1008AC003A4BA3FB0213D9080B469B000B445B008D
:1008BC00D31ADBB2002B79D13B4B1B780133DAB264
:1008CC00394B1A70384B1B78182B1BD93B1D0A223D
:1008DC000021184607F0A8F82B4B1B792B4AA2FBDA
:1008EC000323DB08DBB21A463B1D2949184607F0E7
:1008FC00D7F83A1D00230093264B14213C2003F01B
:10090C007AFE6EE03B1D0A220021184607F08CF897
:10091C001D4B1B791D4AA2FB0323DB08DBB21A46D5
:10092C003B1D1B49184607F0BBF81F4B1B78391DA4
:10093C0000220292019318230093164B0A461421AD
:10094C003C2003F0A7FE3B1D0A220021184607F0AD
:10095C006BF80D4B1B79013B104A82FB0312921072
:10096C00DB17D21A3B1D0A49184607F099F80E4BB3
:10097C001B78391D002201920093064B0A46142164
:10098C003C2003F05EFE2CE098040020CDCCCCCCB7
:10099C00E4820008BC9800088D0300206766666638
:1009AC00E8820008EC8200088F0300203B1D0A221D
:1009BC000021184607F038F8C04B1B79C04AA2FB3F
:1009CC000323DB08DBB21A463B1DBE49184607F071
:1009DC0067F83A1D00230093BB4B14213C2003F015
:1009EC000AFEB64B5B79092B00F28680B34B5A7921
:1009FC00B34BA3FB0213D9080B469B000B445B00C3
:100A0C00D31ADBB2002B77D1B04B1B780133DAB29F
:100A1C00AE4B1A70AD4B1B78182B20D93B1D0A22FC
:100A2C000021184607F000F8A44B1A79A44BA3FB3D
:100A3C000213D9080B469B000B445B00D31ADBB2A4
:100A4C001A463B1D9F49184607F02AF83A1D002309
:100A5C0000939D4B1421502003F0CDFD6CE03B1D09
:100A6C000A220021184606F0DFFF944B1A79944BAA
:100A7C00A3FB0213D9080B469B000B445B00D31A53
:100A8C00DBB21A463B1D8F49184607F009F88F4B0D
:100A9C001B78391D002202920193182300938A4B74
:100AAC000A461421502003F0F5FD3B1D0A220021BB
:100ABC00184606F0B9FF814B1B795A1E844B83FBF9
:100ACC0002139910D317C91A0B469B000B445B00F9
:100ADC00D11A3B1D0A467B49184606F0E1FF7B4BB9
:100AEC001B78391D002201920093774B0A46142182
:100AFC00502003F0A6FD1FE03B1D0A2200211846E2
:100B0C0006F092FF6D4B1A796D4BA3FB0213D908BB
:100B1C000B469B000B445B00D31ADBB21A463B1D01
:100B2C006849184606F0BCFF3A1D00230093664B3B
:100B3C001421502003F05FFD604B5A79604BA3FBEE
:100B4C000213D9080B469B000B445B00D31ADBB293
:100B5C00002B67D15F4B1B780133DAB25D4B1A70F7
:100B6C005C4B1B78102B1BD93B1D0A22002118460D
:100B7C0006F05AFF514B5B79514AA2FB0323DB0869
:100B8C00DBB21A463B1D4F49184606F089FF3A1D49
:100B9C0000230093504B1C21672003F02CFD5CE0DC
:100BAC003B1D0A220021184606F03EFF434B5B79A1
:100BBC00434AA2FB0323DB08DBB21A463B1D414927
:100BCC00184606F06DFF434B1B78391D002202922C
:100BDC00019310230093404B0A461C21672003F01D
:100BEC0059FD3B1D0A220021184606F01DFF334B10
:100BFC005B79013B364A82FB03129210DB17D21A47
:100C0C003B1D3049184606F04BFF324B1B78391D03
:100C1C00002201920093304B0A461C21672003F0FE
:100C2C0010FD1AE03B1D0A220021184606F0FCFEBE
:100C3C00224B5B79224AA2FB0323DB08DBB21A4668
:100C4C003B1D2049184606F02BFF3A1D002300934C
:100C5C00214B1C21672003F0CEFC204B1B78002B72
:100C6C0000F08C801E4B1B780133DAB21C4B1A70CF
:100C7C001B4B1B78102B35D93B1D0A220021184623
:100C8C0006F0D2FE0D4B5A790D4BA3FB0213D9087B
:100C9C000B469B000B445B00D31ADBB21A463B1D80
:100CAC000849184606F0FCFE3A1D002300930A4B37
:100CBC001C21742003F09FFC60E000BF980400200E
:100CCC00CDCCCCCCE4820008BC9800089103002069
:100CDC006766666693030020009B0008950300205E
:100CEC00960300203B1D0A220021184606F09CFEAC
:100CFC00424B5A79424BA3FB0213D9080B469B007B
:100D0C000B445B00D31ADBB21A463B1D3D49184617
:100D1C0006F0C6FE3C4B1B78391D00220292019353
:100D2C0010230093394B0A461C21742003F0B2FCAB
:100D3C003B1D0A220021184606F076FE2F4B5B79EC
:100D4C005A1E334B83FB02139910D317C91A0B4647
:100D5C009B000B445B00D11A3B1D0A4629491846DF
:100D6C0006F09EFE284B1B78391D00220192009341
:100D7C00264B0A461C21742003F063FC01230093CC
:100D8C000C2310220C21742003F06FFA0123009322
:100D9C000C2310220C21672003F067FA0123009327
:100DAC00142314220021502003F05FFA0123009336
:100DBC001423142200213C2003F057FA0123009342
:100DCC00142314220021192003F04FFA012300935D
:100DDC00142314220021052003F047FA02F0F2FE3E
:100DEC00FFF7AEF90346002B3FF4C0AAFFF7B0FAA9
:100DFC00002318461037BD4680BD00BF9804002064
:100E0C00CDCCCCCCE482000896030020009B0008DB
:100E1C006766666690B591B006AF07F114030022C1
:100E2C001A605A601A814FF4FA73BB840523FB7461
:100E3C001423BB74002387F82330002387F8273052
:100E4C00002387F82230002387F82130002387F80D
:100E5C0020300023FB7700237B7400233B7400239A
:100E6C00FB730023BB7300237B7300233B730023B2
:100E7C00FB72002387F826308C4B00221A7000235B
:100E8C0087F8233002F0AAFC02F0C8FC884B1A78D1
:100E9C00884BDA70864BDA78864B1A71844B1A7948
:100EAC00844B5A7102F082FE824BDB785BB2824A31
:100EBC0082FB03129210DB17D31A5BB21A4697F916
:100ECC0011301344022B13DD7A4BDB785BB27A4A78
:100EDC0082FB03129210DB17D31A5BB2DAB297F9CA
:100EEC001130DBB21344DBB2033BDBB25BB210E07C
:100EFC00704BDB785BB2704A82FB03129210DB17EB
:100F0C00D31A5BB2DAB297F91130DBB21344DBB20D
:100F1C005BB2664A137007F114030A2200211846CB
:100F2C0006F082FD614B93F900301A4607F1140369
:100F3C006249184606F0B4FD07F114020023009331
:100F4C005F4B1421052003F056FB584B93F90030EE
:100F5C00012B67DC5B4B1B78012B1CD197F827000E
:100F6C00544BDB785AB2544B83FB02139910D317B2
:100F7C00C91A0B469B000B445B00D31A5BB2DBB265
:100F8C00C31ADBB20A33DBB25BB2FB7300233B74D4
:100F9C004C4B00221A70474BDB785AB2464B83FB02
:100FAC0002139910D317C91A0B469B000B445B0014
:100FBC00D31A5BB21A4697F90F301344092B18DD7C
:100FCC003C4BDB785AB23C4B83FB02139910D31782
:100FDC00C91A0B469B000B445B00D31A5BB2DAB206
:100FEC0097F90F30DBB21344DBB20A3BDBB25BB2D6
:100FFC0015E0304BDB785AB22F4B83FB0213991060
:10100C00D317C91A0B469B000B445B00D31A5BB277
:10101C00DAB297F90F30DBB21344DBB25BB287F86C
:10102C0027305BE0234BDB785AB2234B83FB021354
:10103C009910D317C91A0B469B000B445B00D31AAB
:10104C005BB21A4697F90F301344033B002B03DDB8
:10105C00032387F8263016E0164BDB785AB2164B72
:10106C0083FB02139910D317C91A0B469B000B4430
:10107C005B00D31A5BB2DAB297F90F30DBB21344D0
:10108C00DBB287F8263097F9263097F910201344F5
:10109C00032B19DD97F8262097F91030DBB2134497
:1010AC00DBB2043BDBB25BB216E000BF880300206E
:1010BC00980500209804002067666666E4820008A4
:1010CC00BC9800088903002097F8262097F9103067
:1010DC00DBB21344DBB25BB287F8273007F11403A1
:1010EC000A220021184606F09FFC97F9272007F1E9
:1010FC001403AA49184606F0D3FC07F11402002386
:10110C000093A74B1421192003F075FA07F114036F
:10111C000A220021184606F087FCA24BDB785AB253
:10112C00A14B83FB02139910D317C91A0B469B00D2
:10113C000B445B00D31A5BB21A4607F114039749B0
:10114C00184606F0ADFC07F1140200230093974BF0
:10115C003221002003F04FFA07F114030A22002178
:10116C00184606F061FC97F910301A4607F1140383
:10117C008A49184606F094FC07F1140200230093E8
:10118C008A4B32210A2003F036FA07F114030A22A3
:10119C000021184606F048FC97F90F301A4607F163
:1011AC0014037E49184606F07BFC07F11402002359
:1011BC0000937E4B3221142003F01DFA07F1140327
:1011CC000A220021184606F02FFC764B5B7903F0BF
:1011DC000103DBB2002B08D100230093704B744A3F
:1011EC0014212D2003F007FA07E0002300936C4B29
:1011FC00704A14212D2003F0FEF96A4B1B795BB267
:10120C00694A82FB03129210DB17D31A5BB21A469F
:10121C0097F90E301344052B13DD624B1B795BB22F
:10122C00614A82FB03129210DB17D31A5BB2DAB25B
:10123C0097F90E30DBB21344DBB2063BDBB25BB288
:10124C0010E0584B1B795BB2574A82FB0312921089
:10125C00DB17D31A5BB2DAB297F90E30DBB2134458
:10126C00DBB25BB287F8223007F114030A220021AB
:10127C00184606F0D9FB97F9222007F114034749C9
:10128C00184606F00DFC07F1140200230093444BA2
:10129C0014213C2003F0AFF9424B1B795AB2424B5C
:1012AC0083FB02139910D317C91A0B469B000B44EE
:1012BC005B00D31A5BB21A4697F90D301344092B15
:1012CC0018DD384B1B795AB2374B83FB021399103C
:1012DC00D317C91A0B469B000B445B00D31A5BB2A5
:1012EC00DAB297F90D30DBB21344DBB20A3BDBB256
:1012FC005BB215E02B4B1B795AB22B4B83FB0213C1
:10130C009910D317C91A0B469B000B445B00D31AD8
:10131C005BB2DAB297F90D30DBB21344DBB25BB2DD
:10132C0087F8213007F114030A220021184606F031
:10133C007BFB97F9212007F114031849184606F096
:10134C00AFFB07F1140200230093154B142150201E
:10135C0003F051F9134B5B795BB2134A82FB031216
:10136C009210DB17D31A5BB21A4697F90C30134460
:10137C00052B21DD0B4B5B795BB20B4A82FB031215
:10138C009210DB17D31A5BB2DAB297F90C30DBB2DE
:10139C001344DBB2063BDBB25BB21EE0E482000816
:1013AC00BC98000898040020676666663C880008B4
:1013BC00E8820008EC8200089D4B5B795BB29D4A89
:1013CC0082FB03129210DB17D31A5BB2DAB297F9D5
:1013DC000C30DBB21344DBB25BB287F8203007F180
:1013EC0014030A220021184606F01EFB97F9202050
:1013FC0007F114039049184606F052FB07F114024A
:10140C00002300938D4B1C21672003F0F4F8884BCC
:10141C005B795AB2874B83FB02139910D317C91A05
:10142C000B469B000B445B00D31A5BB21A4697F930
:10143C000B301344092B18DD7D4B5B795AB27D4B75
:10144C0083FB02139910D317C91A0B469B000B444C
:10145C005B00D31A5BB2DAB297F90B30DBB21344F0
:10146C00DBB20A3BDBB25BB215E0714B5B795AB273
:10147C00704B83FB02139910D317C91A0B469B00B0
:10148C000B445B00D31A5BB2DAB297F90B30DBB2C8
:10149C001344DBB25BB2FB7707F114030A22002181
:1014AC00184606F0C1FA97F91F2007F11403624998
:1014BC00184606F0F5FA07F11402002300935F4B6F
:1014CC001C21742003F097F803F082FA02465C4B5F
:1014DC001B68D21ABB8C9A420ED35A4B1B78002B2A
:1014EC000CBF01230023DBB21A46564B1A7003F0D3
:1014FC006FFA0246524B1A60524B1B78002B07D0E6
:10150C00F87CB97C002300934F4B504A03F073F8DE
:10151C0002F058FBFEF714FE034687F8233097F8C9
:10152C002330012B06D1FEF713FFB42003F05AFA37
:10153C00002378E097F82330022B1DD107F10E041D
:10154C0007F10F0207F1100107F1110007F1120367
:10155C00049307F11303039307F10B03029307F1B1
:10156C000C03019307F10D0300932346FEF76EFE67
:10157C00B42003F037FA82E497F82330032B0BD115
:10158C0007F1120207F1130311461846FEF734FE59
:10159C00B42003F027FA72E497F82330042B7FF47D
:1015AC006EAC3B4600221A605A601A72284B93F9B3
:1015BC000030DBB21A46920013445B00DAB297F8A3
:1015CC0027301344DBB23B7097F822301A46920056
:1015DC0013445B00DAB297F821301344DBB2FB7092
:1015EC0097F820301A46920013445B00DAB2FB7F66
:1015FC001344DBB23B713B46184602F071F902F022
:10160C00C9F900237B7400233B740023FB73002374
:10161C00BB7300237B7300233B730023FB72B4204A
:10162C0003F0E0F92BE418462C37BD4690BD00BF03
:10163C009804002067666666E4820008009B000838
:10164C00980300209C030020BC980008EC82000842
:10165C008803002080B582B002AF02F0A7FA002305
:10166C0000930E4B0E4A0821002003F068F800236B
:10167C0000930A4B0B4A2B21002003F060F802F078
:10168C00A1FA00BF4FF40041074803F035FC0346B4
:10169C00002BF7D100BFBD4680BD00BFC8A100081C
:1016AC00F082000804830008000C014080B584B06F
:1016BC0002AF00237B6002F079FA02F083F9034653
:1016CC001A46504B1A704F4B1B78012B0CD14E4BBA
:1016DC001B78013BDAB24C4B1A704B4B1B78002B2E
:1016EC0002D1494B03221A70464B1B78022B0CD1AA
:1016FC00454B1B780133DAB2434B1A70424B1B78C3
:10170C00042B02D1404B01221A703E4B1B78032B49
:10171C0002D13D4B1B787B603A4B1B78042B01D1DB
:10172C0000236BE07B68012B08D100F05FFA0023EB
:10173C007B604FF4967003F055F916E07B68022B32
:10174C0008D100F089FF00237B604FF4967003F002
:10175C0049F90AE07B68032B07D100F0D5FC002384
:10176C007B604FF4967003F03DF9274B1B78013BDF
:10177C00032B27D801A252F823F000BF99170008B9
:10178C00A7170008B5170008C317000800231F4A45
:10179C000021002002F075FE15E000231B4A1021E9
:1017AC00002002F06EFE0EE00023184A20210020DB
:1017BC0002F067FE07E00023144A3021002002F0FB
:1017CC0060FE00E000BF00230093114B114A002182
:1017DC000A2002F0B4FF002300930D4B0E4A102197
:1017EC000A2002F0ACFF00230093094B0B4A202186
:1017FC000A2002F0A4FF02F0E5F95CE7184608376E
:10180C00BD4680BDA804002000000020F802002086
:10181C00C8A100081083000820830008308300084A
:10182C0080B582B002AF02F0C1F902F0CBF80346EA
:10183C001A46534B1A70524B1B78012B0DD1514B3E
:10184C001B78013BDAB24F4B1A704E4B1B78002BB6
:10185C001CD14C4B06221A7018E0494B1B78022BFA
:10186C000DD1484B1B780133DAB2464B1A70454BFD
:10187C001B78072B0AD1434B01221A7006E0404B10
:10188C001B78032B02D13F4B1B7876E03D4B1B782A
:10189C00013B052B38D801A252F823F0C1180008DF
:1018AC00CF180008DD180008EB180008F91800081C
:1018BC00071900080023344A0021002002F0E1FD42
:1018CC0023E00023304A1021002002F0DAFD1CE056
:1018DC0000232D4A2021002002F0D3FD15E0002327
:1018EC00294A3021002002F0CCFD0EE00023264ACC
:1018FC000021002002F0C5FD07E00023224A102140
:10190C00002002F0BEFD00E000BF1E4B1B78042B34
:10191C0020D8002300931D4B1D4A00210A2002F001
:10192C000EFF00230093194B1A4A10210A2002F0D3
:10193C0006FF00230093154B174A20210A2002F0C2
:10194C00FEFE00230093114B144A30210A2002F0B2
:10195C00F6FE0FE0002300930C4B114A00210A20E5
:10196C0002F0EDFE00230093084B0E4A10210A20D2
:10197C0002F0E5FE02F026F955E71846BD4680BD9B
:10198C00A804002001000020F8020020C8A10008D3
:10199C0040830008488300085083000860830008D7
:1019AC006C8300087483000880B584B002AF0123F7
:1019BC007B6002F0FBF80023124A27210A2002F078
:1019CC0060FD4FF40041104803F096FA0346002BDB
:1019DC0011D07B68DAB2002300933F233F21002013
:1019EC0002F008FB02F0EEF87B6804337B607B6846
:1019FC007F2B02DCE5E700BF00E000BF0837BD46E7
:101A0C0080BD00BF4C850008000C014080B582B041
:101A1C0000AF03463960FB803B68002B07D1FB8885
:101A2C00D9B20023154A0A2002F02BFD21E03B68B5
:101A3C00012B07D1FB88D9B20023114A0A2002F0EE
:101A4C0020FD16E03B68B3F1FF3F07D1FB88D9B20C
:101A5C0000230C4A0A2002F014FD0AE03B6813F143
:101A6C00020F06D1FB88D9B20023074A0A2002F0E4
:101A7C0008FD00BF0837BD4680BD00BFBC84000810
:101A8C00048500084C8500087484000880B582B079
:101A9C0000AF03463960FB80B7F906203B681B7822
:101AAC00C3F17F039A420BDCFB88D8B23B685B78AE
:101ABC00C3F13F03D9B200233A6802F0E2FC00E024
:101ACC0000BF0837BD4680BD80B584B002AF7860DA
:101ADC000B46FB7097F90330002B15D17A68184927
:101AEC00184805F0DDFF00230093174B174A03211C
:101AFC00482002F024FE00230093134B114A0321CB
:101B0C00662002F01CFE16E0114B1B681A460C49AD
:101B1C000C4805F0C5FF002300930B4B0D4A162112
:101B2C003C2002F00CFE00230093074B054A1621C3
:101B3C00662002F004FE00BF0837BD4680BD00BF22
:101B4C0084830008A403002098A30008888300085D
:101B5C00A00300209483000880B586B002AFBA6061
:101B6C007B600346FB810B46BB81B7F918306FF0E5
:101B7C0001011846FFF74AFFB7F90E30396A1846CB
:101B8C00FFF784FFB7F90C30796A1846FFF77EFF30
:101B9C00002300933F237F223F21002002F02AFAEA
:101BAC000021B868FFF790FF0D4B1B68BA689A428A
:101BBC000BDD0B4ABB68136000230093094B0A4AE8
:101BCC0016214B2002F0BBFD03E00121B868FFF7A2
:101BDC007BFF01F0F7FF00BF1037BD4680BD00BF93
:101BEC00A003002098A30008A483000880B58EB041
:101BFC0004AFFC233B8140F27D13FB803B89C8334F
:101C0C009BB2FB84FB88C8339BB2BB8402F0E0FE22
:101C1C00034603F00703002B01D0B04B00E0B04BA0
:101C2C003B6202F0D5FE0146AE4BA3FB01239A08A2
:101C3C0013469B001344CA1A002A01D0A74B00E09C
:101C4C00A74BFB6115239BB20A339BB2BB802723A6
:101C5C007B8300237B6100233B610023FB6000231B
:101C6C00FB72FFF7A1FE01F0A1FF4FF480519E48DB
:101C7C0003F042F90346002B0FD04FF400519A4861
:101C8C0003F03AF90346002B07D04FF480419648F5
:101C9C0003F032F90346002B05D17B69002B0BD1E5
:101CAC0001237B6108E04FF400418F4803F024F9D5
:101CBC000346002B00F05081B7F92620B7F9041029
:101CCC007B69052BA8BF0523CB1A9A4229DCB7F9EF
:101CDC0026300B2B25DDB7F91A3017221A443B6A34
:101CEC005B78C3F13F039A421BDBB7F92410B7F9B9
:101CFC002600FB6903933B6A0293B7F90430019306
:101D0C00B7F91A3000937B69FA68FFF725FF00BF1B
:101D1C004FF40041744803F0EFF80346002BF7D161
:101D2C001BE1B7F92420B7F904107B69052BA8BF78
:101D3C000523CB1A9A4229DCB7F924300B2B25DD6D
:101D4C00B7F91A3017221A44FB695B78C3F13F03C9
:101D5C009A421BDBB7F92610B7F92400FB690393F1
:101D6C003B6A0293B7F904300193B7F91A30009328
:101D7C007B69FA68FFF7F0FE00BF4FF400415A4848
:101D8C0003F0BAF80346002BF7D1E6E07B69002B91
:101D9C0010DD7B69013B554AD35C9BB2C3F1270331
:101DAC009BB27B837B6901337B617B69262B01DDD5
:101DBC0000237B613B6901333B613B694C4A82FBED
:101DCC0003125210DB17D31AFB600021F868FFF7DF
:101DDC007BFE7B69002B07D0B7F91A304FF0FF312F
:101DEC001846FFF713FE17E097F90B30042BCCBF06
:101DFC0001230023DBB21A46B7F91A3011461846F4
:101E0C00FFF704FEFB7A0133DBB2FB7297F90B3060
:101E1C00092B01DD0023FB72B7F92630396A18460D
:101E2C00FFF734FEB7F92430F9691846FFF72EFE98
:101E3C00002300933F237F223F21002002F0DAF899
:101E4C00FB8C023B9BB2FB84BB8C023B9BB2BB84E6
:101E5C00B7F92630002B1FDC02F0BAFD0246214BED
:101E6C00A3FB0223D9081F4BA3FB01231A0913461A
:101E7C009B0013449B00CA1A92B23B8913449BB239
:101E8C00FB8402F0A5FD034603F00303002B01D0F5
:101E9C00124B00E0124B3B62B7F92430002B2BDCC9
:101EAC0002F096FD02460F4BA3FB0223D9080D4B03
:101EBC00A3FB01231A0913469B0013449B00CA1A67
:101ECC0092B2FB8813449BB2BB8402F081FD0346A3
:101EDC0003F00103002B0DD0004B0CE060850008D3
:101EEC008C850008CDCCCCCC000C0140948500082E
:101EFC00676666661A4BFB61FA8CBB8CD31A9BB275
:101F0C001AB2184B1A80174BB3F90030002B0DDDA9
:101F1C00144BB3F900302E2B08DCFA8C114BB3F9AF
:101F2C0000309BB213449BB2FB8412E00D4BB3F90F
:101F3C000030002B0DDA0B4BB3F9003013F12E0FE0
:101F4C0007DBBA8C074BB3F900309BB213449BB23E
:101F5C00BB8401F037FE86E600BF2837BD4680BD46
:101F6C008C850008B403002080B500AF4FF480418D
:101F7C00054802F0C1FF0346002B01D1012300E00C
:101F8C000023184680BD00BF000C014080B586B010
:101F9C0002AF3B4600221A605A609A60C3F80B20CD
:101FAC0001F004FE4F4B1A683B464F49184605F0AA
:101FBC0077FD3A46002300934C4B0021502002F051
:101FCC001AFB4B4B1B68D8B24A4B1B68DAB2002386
:101FDC00009313460A22002102F0F6F8444B1B68CA
:101FEC00DBB2023BD8B2434B1B68DBB2063BD9B227
:101FFC000023009306230E2202F0E6F83C4B1B68EC
:10200C00D8B23C4B1B68DBB21E33D9B2394B1B68C0
:10201C00DBB2C3F14003DAB20023009313460A2269
:10202C0002F0D2F8324B1B68DBB2023BD8B2314B18
:10203C001B68DBB21E33D9B20023009306230E2299
:10204C0002F0C2F82C4B1B68D8B22C4B1B68DAB2CE
:10205C000023009313460A22002102F0B5F8264B08
:10206C001B68DBB2023BD8B2244B1B68DBB2063BCD
:10207C00D9B20023009306230E2202F0A5F81E4BC2
:10208C001B68D8B21D4B1B68DBB21E33D9B21B4B7D
:10209C001B68DBB2C3F14003DAB200230093134692
:1020AC000A2202F091F8144B1B68DBB2023BD8B247
:1020BC00124B1B68DBB21E33D9B2002300930623EC
:1020CC000E2202F081F80E4B1B68D9B200230D4A88
:1020DC00142002F0D6F901F075FD00BF1037BD4693
:1020EC0080BD00BFC0040020B48300083C880008F9
:1020FC00C4040020BC040020AC040020B404002064
:10210C00B0040020C485000880B586B002AF3B4601
:10211C0000221A605A609A60C3F80B200023FB73EC
:10212C00AF4B80221A60AF4BC0221A6005F084FCC2
:10213C000246AD4B83FB0213D910D317CB1A2A21BD
:10214C0001FB03F3D31A0133A84A136005F074FCA6
:10215C000246A54B83FB0213D910D317CB1A2A21A5
:10216C0001FB03F3D31A0133A14A1360A14B2022C4
:10217C001A60A14B0A221A60A04B00221A604FF47D
:10218C0000419F4802F0B8FE0346002B00F051813D
:10219C00FB7B002B40F0B380FFF7E6FE0346012BE0
:1021AC0002D1944B10221A608D4B1B68023B8C4A57
:1021BC0013608C4B1B68023B8A4A13608D4B1B6867
:1021CC00053B8C4A13608B4B1B688E4A82FB0312B7
:1021DC009210DB179A1A884B1B681344864A1360BB
:1021EC007F4B1B68023B002B19DA7D4B80221A6057
:1021FC0005F022FC02467C4B83FB0213D910D3174B
:10220C00CB1A2A2101FB03F3D31A0133774A13604B
:10221C00764B1B68052B02DC744B06221A60714B43
:10222C001B68023B002B19DA6E4B80221A6005F0FA
:10223C0003FC02466C4B83FB0213D910D317CB1A49
:10224C002A2101FB03F3D31A0133694A1360684B4B
:10225C001B68052B02DC664B06221A60FFF796FE04
:10226C00654B1B68002B02DA634B00221A60624B31
:10227C001B68402B01DD0123FB73594B1B68132B8F
:10228C0014DD574B1B681F2B10DC5B4B1A68574B2C
:10229C001B689A4208DB584B1B6803F10802534B2E
:1022AC001B681E339A4201DD0123FB734D4B1B68E7
:1022BC00132B14DD4B4B1B681F2B10DC4E4B1A6879
:1022CC004B4B1B689A4208DB4B4B1B6803F1080213
:1022DC00474B1B681E339A4201DD0123FB73404BB5
:1022EC001B68102B03D03F4B1B68102B04D1434BA6
:1022FC001B680133414A13601E2002F073FBFB7B09
:10230C00012B7FF43CAF01F051FC00233E4A00212D
:10231C00002002F0B6F800233C4A2021082002F0ED
:10232C00B0F8002300933A4B3A4A2021482002F09F
:10233C0006FA324B1A683B463749184605F0B0FB93
:10234C003A4600230093354B3021482002F053F9D4
:10235C0001F038FCFFF708FE0346012B60D1002387
:10236C00FB731F4B80221A601E4BC0221A6005F0B3
:10237C0063FB02461C4B83FB0213D910D317CB1AF9
:10238C002A2101FB03F3D31A0133184A1360174BAC
:10239C001B68052B02DC154B06221A6005F04CFB62
:1023AC000246114B83FB0213D910D317CB1A2A21E7
:1023BC0001FB03F3D31A01330D4A13600C4B1B685A
:1023CC00052B02DC0A4B06221A600A4B20221A60EB
:1023DC00094B32221A60094B00221A6020E000BF20
:1023EC00C4040020AC040020310CC330BC04002019
:1023FC00B4040020B8040020B0040020C004002065
:10240C00000C014067666666BC850008CC85000838
:10241C0098A30008B8830008B48300083C8800081F
:10242C004FF40041064802F067FD0346002B02D032
:10243C00A5E600BF00E000BF1037BD4680BD00BF61
:10244C00000C014080B400AF2D4B00221A602D4BC4
:10245C0000221A602C4B00221A602C4B08221A60A6
:10246C002B4B00221A602B4B00221A602A4B5F2246
:10247C001A602A4B00221A60294B5F221A60294BE2
:10248C0000221A60284B5F221A60284B00221A6027
:10249C00274B5F221A60274B00221A60264B002222
:1024AC001A60264B03221A60254B01221A60254B19
:1024BC000A221A60244B05221A60244B00221A604F
:1024CC00234B01221A60234B00221A60224B00225C
:1024DC001A60224B00221A60214B18221A60214BE1
:1024EC0000221A60204B00221A60204B00221A6036
:1024FC001F4B00221A6000BFBD4680BC704700BF56
:10250C00B8030020BC030020C0030020C802002038
:10251C00C4030020C8030020CC020020CC03002000
:10252C00D0020020D0030020D4020020D4030020CD
:10253C00D8020020D8030020DC030020DC0200209D
:10254C00E0020020E4020020E8020020E00300206A
:10255C00EC020020E4030020E8030020EC03002040
:10256C00F0020020F8030020FC03002000040020EF
:10257C000404002080B500AF4FF480510F4802F0E6
:10258C00BBFC0346002B01D1022314E04FF4005195
:10259C000A4802F0B1FC0346002B01D103230AE0E8
:1025AC004FF48041054802F0A7FC0346002B01D1F3
:1025BC00012300E00023184680BD00BF000C014041
:1025CC0080B500AF1E21322002F060F911211E20CF
:1025DC0002F05CF912213C2002F058F9102137204E
:1025EC0002F054F92B21192002F050F92B21642010
:1025FC0002F04CF93421752002F048F931210E20FB
:10260C0002F044F91821182002F040F924214E2040
:10261C0002F03CF93921502002F038F90B216B20E3
:10262C0002F034F90B21962002F030F90521052037
:10263C0002F02CF90721082002F028F90C21462081
:10264C0002F024F938210A2002F020F91921462041
:10265C0002F01CF900BF80BD90B589B002AF002319
:10266C007B613B1D00221A605A609A60C3F80B20F4
:10267C00FFF7E8FE02F0ACF90246A34B1A604FF4E8
:10268C000041A24802F038FC0346002B00F0708495
:10269C009F4B1B68002B40F0C48301F087FAFFF7B7
:1026AC008FFF02F095F90246974B1B68D31A994A93
:1026BC001360984B1A68984B1B68D31A4CF2503223
:1026CC00934217D9934B1B68934A1360934B1B6827
:1026DC000133924A1360924B1B680133904A13608A
:1026EC00904B1B6801338F4A13608F4B1B68013B67
:1026FC008D4A13608D4B1B6801338C4A136005F0B7
:10270C009BF902468A4B83FB02131912D317CB1A7F
:10271C004FF4487101FB03F3D31A03F00103002BB0
:10272C0011D1824B1B68012B0DD1824B1B68002BE6
:10273C0009D1814B5F221A60804B1B68804A136061
:10274C007C4B01221A6005F077F90246784B83FB2B
:10275C0002131912D317CB1A4FF4487101FB03F370
:10276C00D31A03F5C871774B83FB0132CB17D21AFE
:10277C0013465B001344CA1A012A11D16B4B1B6818
:10278C00022B0DD1704B1B68002B09D16F4B5F22B4
:10279C001A606A4B1B686E4A13606B4B01221A60FD
:1027AC0005F04AF90246624B83FB02131912D31748
:1027BC00CB1A4FF4487101FB03F3D31A03F5C8711C
:1027CC00644B83FB01235A10CB17D21A13469B0080
:1027DC001344CA1A012A11D1544B1B68032B0DD177
:1027EC005D4B1B68002B09D15C4B5F221A60534B6D
:1027FC001B685B4A1360584B01221A6005F01CF9E8
:10280C0002464B4B83FB02131912D317CB1A4FF40E
:10281C00487101FB03F3D31A03F5C872514B83FBC8
:10282C00021313449910D317C91A0B46DB005B1A19
:10283C00D11A012911D13D4B1B68042B0DD14A4BE8
:10284C001B68002B09D1494B5F221A603B4B1B685C
:10285C00474A1360444B01221A60364B1B68002B0D
:10286C0019D0354B1B68D8B2354B1B68D9B2002335
:10287C00022201F02BFD304B1B6813F1020F07DB1A
:10288C002D4B1A68264B1B68D31A2B4A136002E097
:10289C00284B00221A602C4B1B68002B19D02B4B99
:1028AC001B68D8B22A4B1B68D9B20023012201F055
:1028BC000DFD264B1B68B3F1FF3F07DB234B1A685A
:1028CC00174B1B68D31A214A136002E01E4B0022DF
:1028DC001A60214B1B68002B4FD0204B1B68D8B2C1
:1028EC001F4B1B68D9B20023042201F0EFFC1B4BD9
:1028FC001B6813F1040F3DDB184B1A68084B1B685F
:10290C00D31A164A136038E0E4030020000C01408F
:10291C00C8030020E8030020EC030020EC02002098
:10292C00DC020020E0020020E4020020E003002092
:10293C001F85EB51F8030020CC020020C8020020B8
:10294C00CC03002056555555FC030020D002002026
:10295C00D00300206766666600040020D4020020C5
:10296C00D40300209324499204040020D8020020B0
:10297C00D80300208B4B00221A608B4B1B68002B5A
:10298C0019D08A4B1B68D8B2894B1B68D9B200236B
:10299C00032201F09BFC854B1B6813F1030F07DB33
:1029AC00824B1A68834B1B68D31A804A136002E06F
:1029BC007D4B00221A60FFF7DDFD0346022B08D188
:1029CC007D4B1B68012B04DD7B4B1B68023B7A4A59
:1029DC001360FFF7CFFD0346032B08D1764B1B6822
:1029EC002E2B04DC744B1B680233734A1360FFF705
:1029FC00C1FD0346012B0ED1704B1B68002B0AD175
:102A0C006E4B01221A606E4B06221A606A4B1B68D1
:102A1C0008336C4A1360694B1B68012B17D1684B48
:102A2C001B680833664A1360654B1B68D8B2654B4C
:102A3C001B68D9B2624B1B68DBB20433DAB2614B50
:102A4C001B68DCB200230093234601F0D3FA5E4BE3
:102A5C001B68002B1ED001F0BBFF02465B4BA3FB97
:102A6C0002231B0903F00103002B07D1524B1B68F7
:102A7C00D9B20023564A042001F003FD554B1A68C5
:102A8C00554B1B68D31AB3F57A7F0BD94E4B0022EA
:102A9C001A6007E0484B1B68D9B200234C4A04204B
:102AAC0001F0EFFC4D4B1B68D8B24D4B1B68D9B2F3
:102ABC004C4B1B68DAB2002301F008FC474B1B6837
:102ACC00DBB20233D8B2464B1B68DBB20333D9B24C
:102ADC00444B1B68444A82FB0342DB17D31ADAB21D
:102AEC00002301F0F3FB00230093404B404A0021EC
:102AFC001C2001F080FD3F4B1A683B1D3E491846D7
:102B0C0004F0CEFF3A1D00230093384B00214020E7
:102B1C0001F071FD00230093344B384A37211C20FF
:102B2C0001F069FD364B1A683B1D3349184604F019
:102B3C00B7FF3A1D002300932C4B3721402001F0A6
:102B4C005AFD00230093294B2E4A2D21742001F0AD
:102B5C0052FD204B1B682C4AA2FB03239A093B1DF8
:102B6C002A49184604F09CFF3A1D002300931F4B82
:102B7C003721742001F03FFD01F024F8104B1B6845
:102B8C00802B02DD0D4B00221A60214B1B68002BA1
:102B9C0042D1134B1A681F4B1B681344104A136025
:102BAC0041E000BF0004002004040020D8020020F3
:102BBC00D8030020DC020020F0020020C00300201B
:102BCC00B8030020BC030020F00300201F85EB514C
:102BDC00F4850008E8030020F4030020C402002060
:102BEC00C8020020E4020020565555553C880008C8
:102BFC00CC830008DC030020DC830008E0830008A1
:102C0C00E8020020E8830008D34D6210EC83000832
:102C1C00C4030020E0020020974B1A68974B1B68F6
:102C2C00D31A954A1360964B1B68C3F14002924B22
:102C3C001B689A4202DC934B01221A608E4B1A6875
:102C4C008F4B1B689A4202DC8E4B00221A608A4B17
:102C5C001A688B4B1B68D21A8B4B1B689A422ADC66
:102C6C00854B1A68864B1B681A44874B1B689A4223
:102C7C0021DB864B1A68824B1B68D21A844B1B686B
:102C8C009A4218DA814B1A687D4B1B681A44804BA8
:102C9C001B689A420FDD7E4B06221A607D4B1B6827
:102CAC000833794A13607C4B1B6801337A4A1360F2
:102CBC007A4B00221A60774B1B6808337B617B6967
:102CCC00A3F10802764B1B689A4221DC7B6903F165
:102CDC000802734B1B689A421ADB724B1B68142B4D
:102CEC0016DC704B1B68042B12DD6F4B1B68002B22
:102CFC000ED16E4B00221A606D4B1B68013B6C4A67
:102D0C001360694B01221A606A4B1B686A4A136094
:102D1C007B69A3F10802694B1B689A4221DC7B6931
:102D2C0003F10802654B1B689A421ADB644B1B6863
:102D3C00142B16DC624B1B68042B12DD5A4B1B68E0
:102D4C00002B0ED15F4B00221A60594B1B68013BC4
:102D5C00574A1360544B01221A60564B1B68564A53
:102D6C0013607B69A3F10802574B1B689A4221DC64
:102D7C007B6903F10802544B1B689A421ADB534BD4
:102D8C001B68142B16DC514B1B68042B12DD464BB5
:102D9C001B68002B0ED14E4B00221A60444B1B6853
:102DAC00013B434A1360404B01221A60414B1B68A4
:102DBC00414A13607B69A3F10802464B1B689A4297
:102DCC0021DC7B6903F10802424B1B689A421ADB37
:102DDC00414B1B68142B16DC3F4B1B68042B12DD7C
:102DEC00314B1B68002B0ED13C4B00221A60304B30
:102DFC001B68013B2E4A13602B4B01221A602D4B92
:102E0C001B682D4A1360364B1B68042B02DD344BB8
:102E1C0000221A60264B1B68002B02D1314B012279
:102E2C001A60304B1B68012B40F09D8000F0BEFEF9
:102E3C00002300932C4B2D4A1421252001F07FFCFC
:102E4C00154B1A683B1D2A49184604F029FE3A1DF9
:102E5C0000230093244B1421552001F070FC002317
:102E6C000093214B234A2321252001F068FC224B9F
:102E7C001A683B1D42E000BFC8020020E00200209F
:102E8C00E4020020C4030020BC030020C402002084
:102E9C00B8030020F0020020DC030020C003002057
:102EAC00CC030020CC020020F0030020F80300200B
:102EBC00E8020020E8030020F4030020D0030020E7
:102ECC00D0020020FC030020D4030020D4020020F8
:102EDC0000040020D8030020D802002004040020A5
:102EEC00E0030020C803002098A30008F08300082A
:102EFC00DC830008F8830008EC0200201E49184609
:102F0C0004F0CEFD3A1D002300931C4B23215520C9
:102F1C0001F015FC00230093184B194A322125208F
:102F2C0001F00DFC174B1B68174AA2FB03239A09EF
:102F3C003B1D1649184604F0B3FD3A1D00230093BF
:102F4C000E4B3221552001F0FAFB00F03BFEFFF74F
:102F5C0011FB0346012B06D1FFF774FA01F038FD83
:102F6C0002460B4B1A60012001F03CFDFFF787BBBA
:102F7C0000BF1C37BD4690BDDC83000898A3000839
:102F8C0000840008E8030020D34D6210EC83000895
:102F9C00E403002080B588B000AF07F110030022D5
:102FAC001A605A609A60DA602A4B9B69294A43F08E
:102FBC0010039361274B9B6903F01003FB60FB68C4
:102FCC00244B9B69234A43F020039361214B9B695B
:102FDC0003F02003BB60BB681E4B9B691D4A43F08A
:102FEC00080393611B4B9B6903F008037B607B68B0
:102FFC00184B9B69174A43F004039361154B9B696B
:10300C0003F004033B603B6801224FF4005112486B
:10301C0001F089FF4FF400533B6101237B610123D5
:10302C00BB610223FB6107F1100319460A4801F04A
:10303C0009FE4FF470433B6100237B610123BB61AC
:10304C0007F110031946054801F0FCFD00BF2037BD
:10305C00BD4680BD0010024000100140000C014034
:10306C0080B500AF124B134A1A60114B124A5A60CA
:10307C000F4B00229A600E4B0022DA600C4B4FF47F
:10308C0080421A610A4B00225A61094B00229A6154
:10309C00074B0022DA61064B00221A62044801F049
:1030AC005BFF0346002B01D000F031F900BF80BD5F
:1030BC00C804002000540040801A060080B500AF00
:1030CC00124B134A1A60114B124A5A600F4B0022D2
:1030DC009A600E4B0022DA600C4B4FF480421A615E
:1030EC000A4B00225A61094B00229A61074B0022BD
:1030FC00DA61064B00221A62044801F02DFF0346E8
:10310C00002B01D000F003F900BF80BD1C0500208E
:10311C0000580040A086010080B58AB000AF7860EE
:10312C0007F1180300221A605A609A60DA607B6813
:10313C001B682B4A934224D12A4B9B69294A43F0A2
:10314C0008039361274B9B6903F008037B617B6940
:10315C00C023BB611223FB6103237B6207F11803BD
:10316C001946214801F06EFD1E4BDB691D4A43F4E4
:10317C000013D3611B4BDB6903F400133B613B6908
:10318C0029E07B681B68194A934224D1154B9B6933
:10319C00144A43F008039361124B9B6903F0080334
:1031AC00FB60FB684FF44063BB611223FB6103239C
:1031BC007B6207F1180319460B4801F043FD094BDC
:1031CC00DB69084A43F48003D361064BDB6903F4E3
:1031DC008003BB60BB6800BF2837BD4680BD00BF05
:1031EC000054004000100240000C01400058004008
:1031FC0080B582B000AF01237B6001F091FB00F041
:10320C0029F8FFF7C7FE00F087F8FFF729FFFFF753
:10321C0055FF00F074FC00F0C9FC00F0D3FC7B6897
:10322C00012B02D1FDF79AF810E07B68022B02D13A
:10323C00FEF73CFA0AE07B68052B02D1FDF7EAFDAC
:10324C0004E07B68062B01D1FEF704FAFEF7E8FADE
:10325C007860E4E780B594B000AF07F1280328222A
:10326C000021184604F0E0FB07F1140300221A6059
:10327C005A609A60DA601A613B1D00221A605A602B
:10328C009A60DA600523BB624FF48033FB62002343
:10329C003B6301237B630123BB6302237B644FF4F9
:1032AC008033BB644FF4E013FB6407F1280318462A
:1032BC0002F0B6FF0346002B01D000F028F80F23D4
:1032CC007B610223BB610023FB614FF480633B6293
:1032DC0000237B6207F114030221184603F020FA45
:1032EC000346002B01D000F012F801237B604FF451
:1032FC008073BB603B1D184603F0AEFB0346002BEE
:10330C0001D000F004F800BF5037BD4680BD80B43A
:10331C0000AF72B6FEE7000080B586B000AF07F1D3
:10332C00140300210A461A800A469A7000233B6156
:10333C004D4B4E4A1A604C4B4FF0FF325A604A4B81
:10334C0000229A60484803F0F9FC0346002B01D098
:10335C00FFF7DDFF0023FB60454BDB69444A43F07C
:10336C008053D361424BDB6903F08053BB60BB6875
:10337C0002F03EFF3E4BDB693D4A43F00063D361F4
:10338C003B4BDB6903F000637B607B6807213648AD
:10339C0004F0EAFA024645F2AA539A423AD10621BF
:1033AC00314804F0E1FA0346DBB2BB7505212E4827
:1033BC0004F0DAFA0346DBB27B7504212A4804F0E8
:1033CC00D3FA0346DBB23B750321274804F0CCFA51
:1033DC000346DBB2BB730221234804F0C5FA034653
:1033EC00DBB27B730121204804F0BEFA0346DBB24A
:1033FC00FB7302F009FF07F11403012219461A4866
:10340C0003F032FD07F10C0301221946164803F0B4
:10341C009BFE25E019233B7559237B755023BB7507
:10342C0007F11403012219460F4803F01DFD034652
:10343C00002B01D0FFF76BFF01233B7401237B743E
:10344C000123BB742523FB7407F1100301221946D9
:10345C00054803F079FE0346002B01D0FFF757FF18
:10346C001837BD4680BD00BF700500200028004005
:10347C000010024080B584B000AF78607B681B6898
:10348C000F4A934218D102F0B3FE0E4BDB690D4A82
:10349C0043F00063D3610B4BDB6903F00063FB600B
:1034AC00FB68094B01221A6000220021032001F065
:1034BC0092FB032001F0ABFB00BF1037BD4680BD73
:1034CC0000280040001002403C04424280B584B009
:1034DC0000AF07F10C03012219463E4803F05CFDD6
:1034EC0007F10803012219463A4803F0E3FE3B7B3F
:1034FC00232B6AD87B7B592B67D8BB7B592B64D881
:10350C007B7A122B61D8BB7A312B5ED8FB7A992B44
:10351C005BD83B7B002B05D17B7B002B02D1BB7B8B
:10352C00002B52D002F070FE2B4BDB692A4A43F081
:10353C008053D361284BDB6903F080537B607B683D
:10354C0002F056FE244BDB69234A43F00063D3613F
:10355C00214BDB6903F000633B603B6800220721D1
:10356C001C4804F0E7F9BB7B1A460621194804F005
:10357C00E1F97B7B1A460521164804F0DBF93B7B0D
:10358C001A460421134804F0D5F9BB7A1A460321D4
:10359C00104804F0CFF97B7A1A4602210D4804F04A
:1035AC00C9F9FB7A1A4601210A4804F0C3F945F21D
:1035BC00AA520721074804F0BDF902F025FE064B7C
:1035CC00DB69054A23F00063D36100BF1037BD46A9
:1035DC0080BD00BF700500200010024080B485B093
:1035EC0000AF154B9B69144A43F001039361124BD6
:1035FC009B6903F00103BB60BB680F4BDB690E4A90
:10360C0043F08053D3610C4BDB6903F080537B6038
:10361C007B680A4B5B68FB60FB6823F0E063FB6034
:10362C00FB6843F00073FB60044AFB68536000BF07
:10363C001437BD4680BC70470010024000000140AA
:10364C0080B400AFFEE780B400AFFEE780B400AFFB
:10365C00FEE780B400AFFEE780B400AFFEE780B4B5
:10366C0000AF00BFBD4680BC704780B400AF00BF48
:10367C00BD4680BC704780B400AF00BFBD4680BC67
:10368C00704780B500AF01F091F900BF80BD00001C
:10369C0080B500AF024804F003F900BF80BD00BF45
:1036AC007005002080B586B000AF7860144A154BC9
:1036BC00D31A7B617B693B61134B1B68002B02D1D6
:1036CC00114B124A1A60104B1A687B6813443A6902
:1036DC009A4207D204F064F902460C2313604FF0AF
:1036EC00FF3309E0084B1B68FB60074B1A687B68CB
:1036FC001344054A1360FB6818461837BD4680BD55
:10370C00005000200004000008040020C009002024
:10371C0080B400AF00BFBD4680BC70470C480D495B
:10372C000D4A002302E0D458C4500433C4188C4210
:10373C00F9D30A4A0A4C002301E013600432A24276
:10374C00FBD3FFF7E5FF04F031F9FFF751FD7047AC
:10375C00000000206C030020F8A300086C0300207C
:10376C00C0090020FEE780B483B000AF0346FB71B4
:10377C00FB791B09DBB21A46920013445B00DAB2E8
:10378C00FB7903F00F03DBB21344DBB218460C37A2
:10379C00BD4680BC7047000080B483B000AF0346C8
:1037AC00FB71FB790C4AA2FB0323DB08DBB21B0188
:1037BC00D8B2FA79084BA3FB0213D9080B469B002D
:1037CC000B445B00D31ADBB20344DBB218460C3754
:1037DC00BD4680BC704700BFCDCCCCCC80B584B08E
:1037EC0002AF00233B713A1D4FF6FF730093012388
:1037FC00D021084801F0E8FC4FF6FF730093132327
:10380C00054AD121034801F0DDFD00BF0837BD4654
:10381C0080BD00BF1C0500208405002080B500AFD2
:10382C002D4B1B781846FFF79EFF03461A462B4B71
:10383C001A71294B5B781846FFF795FF03461A4619
:10384C00264BDA70244B9B7803F04003002B16D0E8
:10385C00224B01229A70204B9B7803F02003DAB2A2
:10386C001E4B5A701C4B9B7803F01F03DBB218469F
:10387C00FFF779FF03461A46184B1A700BE0174BEB
:10388C0000229A70144B9B781846FFF76CFF034686
:10389C001A46124B1A70104B9B791846FFF763FFB0
:1038AC0003461A460D4B5A710B4B5B791846FFF7C2
:1038BC005AFF03461A46094B9A71074B1B79184657
:1038CC00FFF751FF03461A46044BDA71024BDA78C4
:1038DC00024B1A7200BF80BD8405002098050020A1
:1038EC0090B583B000AF78607B681B791846FFF702
:1038FC0053FF03461A46264B1A707B68DB78184632
:10390C00FFF74AFF03461A46214B5A707B689B7897
:10391C00012B11D17B685B785B01DCB27B681B7877
:10392C001846FFF739FF03462343DBB243F040034D
:10393C00DAB2174B9A7008E07B681B781846FFF7D1
:10394C002BFF03461A46124B9A707B685B7918461C
:10395C00FFF722FF03461A460D4B9A717B689B7941
:10396C001846FFF719FF03461A46094B5A717B6834
:10397C00DB791846FFF710FF03461A46044B1A7101
:10398C007B681A7A024BDA7000BF0C37BD4690BDCB
:10399C008405002080B584B004AF4FF6FF7302930A
:1039AC0013230193054B009301230022D0210448DB
:1039BC0001F062FF00BFBD4680BD00BF8405002042
:1039CC001C05002080B582B000AF0023FB714FF4C2
:1039DC008051334801F090FA0346002B10D114208B
:1039EC0001F000F800BF4FF480512D4801F084FA2B
:1039FC000346002BF7D0142000F0F4FF0123FB71D9
:103A0C004FF40051264801F077FA0346002B10D1F1
:103A1C00142000F0E7FF00BF4FF40051204801F0E4
:103A2C006BFA0346002BF7D0142000F0DBFF0223C7
:103A3C00FB714FF480411A4801F05EFA0346002BEB
:103A4C0010D1142000F0CEFF00BF4FF48041144879
:103A5C0001F052FA0346002BF7D0142000F0C2FFFD
:103A6C000323FB714FF400410D4801F045FA034666
:103A7C00002B10D1142000F0B5FF00BF4FF4004113
:103A8C00074801F039FA0346002BF7D0142000F058
:103A9C00A9FF0423FB71FB7918460837BD4680BD8E
:103AAC00000C014080B584B002AF78600B46FB700F
:103ABC00FB789AB24FF0FF33009313467A68782163
:103ACC00034801F081FB00BF0837BD4680BD00BF35
:103ADC00C804002080B584B000AF0346FB710023FE
:103AEC00BB8100233B73FB797B7307F10C03022131
:103AFC001846FFF7D7FF00BF1037BD4680BD80B515
:103B0C0000AFAE20FFF7E6FF0220FFF7E3FF102027
:103B1C00FFF7E0FF4020FFF7DDFFB020FFF7DAFFF3
:103B2C008120FFF7D7FFCF20FFF7D4FFA120FFF7AD
:103B3C00D1FFA620FFF7CEFFA820FFF7CBFF3F2039
:103B4C00FFF7C8FFAD20FFF7C5FF8B20FFF7C2FFC3
:103B5C003320FFF7BFFFC820FFF7BCFFD320FFF7D0
:103B6C00B9FF0020FFF7B6FFD520FFF7B3FFC02049
:103B7C00FFF7B0FFD920FFF7ADFF1F20FFF7AAFF1B
:103B8C00DA20FFF7A7FF1220FFF7A4FFDB20FFF7D7
:103B9C00A1FF4020FFF79EFF00F008F800F012F89C
:103BAC00AF20FFF797FF00BF80BD000080B500AFCE
:103BBC004FF480620021024803F036FF00BF80BD45
:103BCC00B805002080B582B000AF144B40221A70AB
:103BDC000023FB711BE0FB79503BDBB21846FFF76F
:103BEC0079FF0220FFF776FF1020FFF773FF0C48D8
:103BFC00FB79DB010B4A13448022194603F009FFC1
:103C0C0081210648FFF74EFFFB790133FB71FB79ED
:103C1C00072BE0D900BF0837BD4680BD0C0400203F
:103C2C000D040020B805002080B483B000AF03461B
:103C3C00FB710B46BB7113467B7197F90730002B58
:103C4C0043DBBB793F2B40D87B79002B1DD1BB7953
:103C5C00DB08D8B20246FB791E49D2010A44134450
:103C6C001B785AB2BB7903F00703012101FA03F365
:103C7C005BB2134359B20246FB79C8B21549D20163
:103C8C000A44134402461A7020E0BB79DB08D8B210
:103C9C000246FB790F49D2010A4413441B785AB2ED
:103CAC00BB7903F00703012101FA03F35BB2DB4399
:103CBC005BB2134059B20246FB79C8B20549D20136
:103CCC000A44134402461A7000E000BF0C37BD468C
:103CDC0080BC7047B805002090B482B000AF044699
:103CEC00084611461A462346FB710346BB710B4628
:103CFC007B7113463B71FB79072B60D897F9063023
:103D0C00002B5CDB3B7D002B02D07B79DB437B7192
:103D1C003B7C0133FF2202FA03F35AB297F90530C8
:103D2C0013435AB23B79C3F10803FF2141FA03F361
:103D3C005BB213435BB2DAB2234B1A70FA79BB79DC
:103D4C002249D2010A44134418781F4B1978FA7986
:103D5C00BB790140C8B21D49D2010A441344024642
:103D6C001A703B7C0133FF2202FA03F35BB2DB4394
:103D7C005AB297F9053013405AB23B79C3F1080394
:103D8C00FF2141FA03F35BB2DB435BB213405BB23E
:103D9C00DAB20D4B1A70FA79BB790C49D2010A448C
:103DAC0013441878084B1978FA79BB790143C8B2D7
:103DBC000649D2010A44134402461A7000E000BFBF
:103DCC000837BD4690BC70478D040020B805002014
:103DDC00B0B586B002AF0446084611461A462346D3
:103DEC00FB710346BB710B467B7113463B71BB7970
:103DFC00DB08FB73BB7903F00703BB73BA7B3B791E
:103E0C001344082B29DD7A79BB7B02FA03F3DAB26F
:103E1C00BC7BF979F87B97F820300193072300934A
:103E2C002346FFF759FFFB7B0133D8B27A79BB7B72
:103E3C00C3F1080342FA03F3DCB23A79BB7B1344B7
:103E4C00DBB2093BDBB2F97997F8202001920093A1
:103E5C0000232246FFF740FF15E07A79BB7B02FA7C
:103E6C0003F3DCB2BA7B3B791344DBB2013BDBB22C
:103E7C00BD7BF979F87B97F82020019200932B46B3
:103E8C002246FFF729FF00BF1037BD46B0BD90B5E5
:103E9C0087B002AF0446084611461A462346FB710A
:103EAC000346BB710B467B7113463B71BB79DB0838
:103EBC00FB73BB7903F00703BB737A79BB7B02FA04
:103ECC0003F3DAB2BC7BF979F87B3B7901930723D6
:103EDC0000932346FFF700FFBB7B002B14D0FB7B2A
:103EEC000133D8B27A79BB7BC3F1080342FA03F3EE
:103EFC00DCB2BB7B013BDBB2F9793A7901920093DE
:103F0C0000232246FFF7E8FE00BF1437BD4690BDE4
:103F1C0090B587B002AF3A601A460346FB710B4668
:103F2C00BB7113467B7197F82030DB083B7397F815
:103F3C00203003F00703FB720023FB7325E0002302
:103F4C00BB731BE0FA79FB7B1344D8B2BB7BDB0061
:103F5C00DAB2BB791344DCB2FA7BBB7B797901FB17
:103F6C0003F313441A463B6813441A7897F8243029
:103F7C002146FFF78CFFBB7B0133BB73BA7B3B7BCA
:103F8C009A42DFD3FB7B0133FB73FA7B7B799A423A
:103F9C00D5D3FB7A002B28D07B799BB23A7B92B29B
:103FAC0002FB03F33B8100237B731AE0FA797B7BE2
:103FBC001344D8B23B7BDB00DAB2BB791344D9B2E1
:103FCC003A897B7B13441A463B6813441A78FC7A73
:103FDC0097F8243000932346FFF7FAFE7B7B0133DE
:103FEC007B737A7B7B799A42E0D300BF1437BD4652
:103FFC0090BD000090B587B000AF0446084611464E
:10400C001A462346FB710346BB710B467B71134664
:10401C003B71FA797B799A421DD1BA793B799A42F4
:10402C0007D9684ABB7913703B79BB71654B1B7818
:10403C003B71BB79FB7509E097F82820F97DFB797A
:10404C001846FFF7F1FDFB7D0133FB75FA7D3B79DB
:10405C009A42F1D9B2E0BA793B799A421DD1FA79F8
:10406C007B799A4207D9574AFB7913707B79FB719C
:10407C00544B1B787B71FB79BB7509E097F82820B2
:10408C00B979BB7D1846FFF7CFFDBB7D0133BB75FE
:10409C00BA7D7B799A42F1D990E07B799AB2FB791F
:1040AC009BB2D31A9BB2FB813B799AB2BB799BB280
:1040BC00D31A9BB2BB81B7F90E30002B01DD012363
:1040CC0001E04FF0FF337B81B7F90C30002B01DDA1
:1040DC00012301E04FF0FF333B81FB79BB82BB79BD
:1040EC007B8200233B82B7F90E30002BB8BF5B42BA
:1040FC00FB81B7F90C30002BB8BF5B42BB81B7F921
:10410C000E20B7F90C309A422CDDFB79BB8223E0F0
:10411C00BB8ADBB27A8AD1B297F828201846FFF70F
:10412C0083FD3A8ABB8913449BB23B82B7F91030AA
:10413C005A00B7F90E309A4209DB7A8A3B8913444C
:10414C009BB27B823A8AFB89D31A9BB23B82BA8A96
:10415C007B8913449BB2BB82B7F914207B799A42BA
:10416C00D6D12BE0BB797B8223E0BB8ADBB27A8A87
:10417C00D1B297F828201846FFF756FD3A8AFB89EA
:10418C0013449BB23B82B7F910305A00B7F90C308C
:10419C009A4209DBBA8A7B8913449BB2BB823A8A66
:1041AC00BB89D31A9BB23B827A8A3B8913449BB25C
:1041BC007B82B7F912203B799A42D6D100BF1C37CB
:1041CC00BD4690BD8E04002090B585B002AF04466C
:1041DC00084611461A462346FB710346BB710B4633
:1041EC007B7113463B71FA797B791344DAB2BC7953
:1041FC00B979F8793B7E00932346FFF7FBFEBA7939
:10420C003B791344D9B2FA797B791344DCB2BA798D
:10421C003B791344DAB2F8793B7E0093134622467D
:10422C00FFF7E8FEBA793B791344DCB2FA79B97935
:10423C00F8793B7E00932346FFF7DCFEFA797B7915
:10424C001344D8B2FA797B791344DCB2BA793B794E
:10425C001344DAB2B9793B7E009313462246FFF73A
:10426C00C9FE00BF0C37BD4690BD90B587B002AFFC
:10427C000446084611461A462346FB710346BB7199
:10428C000B467B7113463B710023FB7316E0BA7926
:10429C00FB7B1344D9B2FA797B791344DCB2BA793B
:1042AC00FB7B1344DAB2F87997F82030009313466D
:1042BC002246FFF79FFEFB7B0133FB73FA7B3B79B6
:1042CC009A42E4D300BF1437BD4690BD90B585B07B
:1042DC0000AF0446084611461A462346FB710346B6
:1042EC00BB710B467B7113463B710023FB817B79C1
:1042FC00BB817B799BB25B009BB2C3F103039BB286
:10430C007B81B3E0BB89DBB2FA79D31AD8B2FB89D3
:10431C00DBB2BA79D31ADBB23A791946FFF784FCCF
:10432C00BB89DAB2FB791344D8B2FB89DBB2BA7918
:10433C00D31ADBB23A791946FFF776FCFB89DBB26C
:10434C00FA79D31AD8B2BB89DAB2BB791344DBB28F
:10435C003A791946FFF768FCBB89DBB2FA79D31AB4
:10436C00D8B2FB89DBB2BA79D31ADBB23A791946E7
:10437C00FFF75AFCFB89DBB2FA79D31AD8B2BB89A6
:10438C00DBB2BA79D31ADBB23A791946FFF74CFC97
:10439C00BB89DAB2FB791344D8B2FB89DAB2BB79A8
:1043AC001344DBB23A791946FFF73EFCFB89DAB2CB
:1043BC00FB791344D8B2BB89DBB2BA79D31ADBB21E
:1043CC003A791946FFF730FCFB89DAB2FB791344D2
:1043DC00D8B2BB89DAB2BB791344DBB23A7919464D
:1043EC00FFF722FCBB89DBB2FA79D31AD8B2FB896E
:1043FC00DAB2BB791344DBB23A791946FFF714FCF5
:10440C00B7F90E309BB201339BB2FB81B7F90A307E
:10441C00002B09DAFB899B009AB27B8913449BB26F
:10442C0006339BB27B8113E0B7F90E20B7F90C3041
:10443C00D31A9BB29B009AB27B8913449BB20A336A
:10444C009BB27B81B7F90C309BB2013B9BB2BB8119
:10445C00FB89DAB2FB791344D8B2BB89DAB2BB79E7
:10446C001344DBB23A791946FFF7DEFBB7F90E209D
:10447C00B7F90C309A427FF745AF00BF1437BD46F1
:10448C0090BDB0B584B002AF3A601A460346FB71DA
:10449C000B46BB7113467B713B685C683B681D78AF
:1044AC003B685B78B979F8797A79019200932B465D
:1044BC002246FFF72DFD00BF0837BD46B0BDB0B595
:1044CC0084B002AF3B600346FB710B46BB711346D5
:1044DC007B713B685A687B79A3F120013B681B78A0
:1044EC000733002B00DA0733DB1018463B685B7888
:1044FC0003FB00F303FB01F3D4183B685D783B68C6
:10450C001B78B979F8793A7E019200932B462246B2
:10451C00FFF7FEFC00BF0837BD46B0BDB0B584B098
:10452C0002AF3B600346FB710B46BB7113467B71BC
:10453C00BA793B7E1344DCB23B685A687B79A3F1B1
:10454C0020013B681B780733002B00DA0733DB10A4
:10455C0018463B685B7803FB00F303FB01F3D118AF
:10456C003B685D783B681A783B7ED31ADBB2F879EE
:10457C003A7F019200932B460A462146FFF7C8FC6E
:10458C0000BF0837BD46B0BDB0B584B002AF3B60CC
:10459C000346FB710B46BB7113467B71BA793B7EAC
:1045AC00D31ADAB23B7F1344DCB23B685A687B798E
:1045BC00A3F120013B681B780733002B00DA07338B
:1045CC00DB1018463B685B7803FB00F303FB01F33D
:1045DC00D1183B685D783B681B78F87997F82020F8
:1045EC00019200932B460A462146FFF791FC00BF2F
:1045FC000837BD46B0BD80B588B002AFBA607B60ED
:10460C000346FB730B46BB73FB7BFB7511E0BB686E
:10461C001A78B97BF87D97F8203000937B68FFF708
:10462C004EFF7B685A78FB7D1344FB75BB680133E6
:10463C00BB60BB681B78002BE9D100BF1837BD46A7
:10464C0080BD80B588B002AFBA607B600346FB7357
:10465C000B46BB73FB7BFB7514E0BB681A78B97B0C
:10466C00F87D97F82430019397F8203000937B68FD
:10467C00FFF754FF7B685A78FB7D1344FB75BB68CE
:10468C000133BB60BB681B78002BE6D100BF183729
:10469C00BD4680BD80B58AB004AFBA607B6003466E
:1046AC00FB730B46BB73FB7BFB7517E0BB681A787F
:1046BC00B97BF87D97F82830029397F82430019352
:1046CC0097F8203000937B68FFF75EFF7B685A7881
:1046DC00FB7D1344FB75BB680133BB60BB681B7867
:1046EC00002BE3D100BF1837BD4680BD80B483B02A
:1046FC0000AF78607B681B785BB2002B01DB012379
:10470C0018E07B681B7803F0E003C02B01D1022377
:10471C0010E07B681B7803F0F003E02B01D103233E
:10472C0008E07B681B7803F0F803F02B01D104231D
:10473C0000E0002318460C37BD4680BC7047B0B56E
:10474C008AB002AFBA607B600346FB730B46BB7347
:10475C000023FB837B681B780733002B00DA0733BD
:10476C00DB10DBB27A68527802FB03F3DBB2043362
:10477C00FB767DE000237B77FB8BBA6813441846ED
:10478C00FFF7B4FF0346BB76BB7E002B78D000232B
:10479C003B7732E07B685B683A7FF97E01FB02F283
:1047AC0013447B61FB8BBA681344BA7E7969184653
:1047BC0003F020F90346002B1CD17B691C1D7B6880
:1047CC005D787B681B78B97BF87B97F83020019279
:1047DC0000932B462246FFF79BFB7B685A78FB7BAA
:1047EC001344FB73BB7E9AB2FB8B1344FB830123F4
:1047FC007B7707E03B7F01333B777B681B7A3A7F03
:10480C009A42C7D37B7F002B32D1BB7E012B19D1AF
:10481C00FB8BBA6813441A787B68DC68B97BF87B2D
:10482C0097F8303000932346FFF749FE7B68DB682E
:10483C005A78FB7B1344FB73BB7E9AB2FB8B1344FD
:10484C00FB8315E07B68DA68B97BF87B97F830302E
:10485C00009313462022FFF732FE7B68DB685A7800
:10486C00FB7B1344FB73BB7E9AB2FB8B1344FB8321
:10487C00FB8BBA6813441B78002B7FF47BAF00E0F2
:10488C0000BF00BF2037BD46B0BD000080B483B070
:10489C0000AF03460A46FB801346BB80B7F90630CF
:1048AC00002B35DBB7F906307F2B31DCB7F9043040
:1048BC00002B2DDBB7F904303F2B29DCB7F9043082
:1048CC00002B00DA0733DB1018B20246B7F90630BA
:1048DC001249D2010A4413441B785AB2B7F9043076
:1048EC00594203F0070301F0070158BF4B421BB2BA
:1048FC00194601238B405BB2134359B20246B7F9F8
:10490C000630C8B20549D2010A44134402461A7053
:10491C0000BF0C37BD4680BC704700BFB8050020F7
:10492C0080B500AF084B1B68074A43F010031360B7
:10493C00032000F045F9002000F008F8FEF74EFEC9
:10494C000023184680BD00BF0020024080B582B015
:10495C0000AF7860124B1A68124B1B7819464FF453
:10496C007A73B3FBF1F3B2FBF3F3184600F05DF985
:10497C000346002B01D001230EE07B680F2B0AD8D5
:10498C00002279684FF0FF3000F025F9064A7B6869
:10499C001360002300E0012318460837BD4680BD94
:1049AC00F4020020040300200003002080B400AFB8
:1049BC00054B1B781A46054B1B681344034A1360BE
:1049CC0000BFBD4680BC704704030020B80900201E
:1049DC0080B400AF024B1B681846BD4680BC7047C4
:1049EC00B809002080B584B000AF7860FFF7F0FF05
:1049FC00B8607B68FB60FB68B3F1FF3F05D0094BE7
:104A0C001B781A46FB681344FB6000BFFFF7E0FFFE
:104A1C000246BB68D31AFA689A42F7D800BF10371F
:104A2C00BD4680BD0403002080B485B000AF786023
:104A3C007B6803F00703FB600C4BDB68BB60BA6858
:104A4C004FF6FF031340BB60FB681A02BB681343AD
:104A5C0043F0BF6343F40033BB60044ABB68D360CC
:104A6C0000BF1437BD4680BC704700BF00ED00E0AE
:104A7C0080B400AF044BDB681B0A03F00703184635
:104A8C00BD4680BC704700BF00ED00E080B483B031
:104A9C0000AF0346FB7197F90730002B0BDBFB795A
:104AAC0003F01F02064997F907305B09012000FA51
:104ABC0002F241F8232000BF0C37BD4680BC704782
:104ACC0000E100E080B483B000AF03463960FB71B5
:104ADC0097F90730002B0ADB3B68DAB20C4997F9DF
:104AEC0007301201D2B20B4483F800230AE03B6872
:104AFC00DAB20849FB7903F00F03043B1201D2B27E
:104B0C000B441A7600BF0C37BD4680BC704700BF03
:104B1C0000E100E000ED00E080B489B000AFF86087
:104B2C00B9607A60FB6803F00703FB61FB69C3F1B2
:104B3C000703042B28BF0423BB61FB690433062B3A
:104B4C0002D9FB69033B00E000237B614FF0FF328D
:104B5C00BB6902FA03F3DA43BB681A407B699A40DB
:104B6C004FF0FF317B6901FA03F3D9437B680B40AB
:104B7C00134318462437BD4680BC704780B582B0BD
:104B8C0000AF78607B68013BB3F1807F01D30123D8
:104B9C000FE00A4A7B68013B53600F214FF0FF3056
:104BAC00FFF790FF054B00229A60044B07221A6016
:104BBC00002318460837BD4680BD00BF10E000E05A
:104BCC0080B582B000AF78607868FFF72DFF00BF2A
:104BDC000837BD4680BD80B586B000AF0346B960CE
:104BEC007A60FB7300237B61FFF742FF78617A6880
:104BFC00B9687869FFF790FF024697F90F301146B4
:104C0C001846FFF75FFF00BF1837BD4680BD80B563
:104C1C0082B000AF0346FB7197F907301846FFF7D7
:104C2C0035FF00BF0837BD4680BD80B582B000AFF0
:104C3C0078607868FFF7A2FF034618460837BD4630
:104C4C0080BD000080B48BB000AF78603960002369
:104C5C007B6200233B6227E101227B6A02FA03F3A9
:104C6C00FB613B681B68FA691340BB61BA69FB695D
:104C7C009A4240F016813B685B68122B34D0122BA1
:104C8C000DD8022B2BD0022B04D8002B31D0012BAA
:104C9C001CD048E0032B43D0112B1BD043E0894A96
:104CAC00934226D0874A934206D8874A934220D013
:104CBC00864A93421DD036E0854A934219D0854AE4
:104CCC00934216D0844A934213D02CE03B68DB68A5
:104CDC003B6228E03B68DB6804333B6223E03B68C3
:104CEC00DB6808333B621EE03B68DB680C333B62DD
:104CFC0019E03B689B68002B02D104233B6212E055
:104D0C003B689B68012B05D108233B627B68FA69E1
:104D1C001A6108E008233B627B68FA695A6102E079
:104D2C0000233B6200BFBB69FF2B01D87B6801E00D
:104D3C007B6804337B61BB69FF2B02D87B6A9B00C9
:104D4C0002E07B6A083B9B003B617B691A680F2180
:104D5C003B6901FA03F3DB431A40396A3B6901FAF8
:104D6C0003F31A437B691A603B685B6803F080535A
:104D7C00002B00F09680594B9B69584A43F0010375
:104D8C009361564B9B6903F00103BB60BB68544AAB
:104D9C007B6A9B08023352F82330FB607B6A03F07A
:104DAC0003039B000F2202FA03F3DB43FA68134060
:104DBC00FB607B684B4A934213D07B684A4A934210
:104DCC000DD07B68494A934207D07B68484A93428E
:104DDC0001D1032306E0042304E0022302E00123B3
:104DEC0000E000237A6A02F0030292009340FA6812
:104DFC001343FB603A497B6A9B080233FA6841F81B
:104E0C0023203B685B6803F48033002B06D0394BBE
:104E1C001A683849BB6913430B6006E0354B1A68B6
:104E2C00BB69DB43334913400B603B685B6803F49D
:104E3C000033002B06D02F4B5A682E49BB69134305
:104E4C004B6006E02B4B5A68BB69DB432949134086
:104E5C004B603B685B6803F48013002B06D0254B3A
:104E6C009A682449BB6913438B6006E0214B9A680E
:104E7C00BB69DB431F4913408B603B685B6803F4E1
:104E8C000013002B06D01B4BDA681A49BB6913437D
:104E9C00CB6006E0174BDA68BB69DB43154913405E
:104EAC00CB607B6A01337B623B681A687B6A22FAAF
:104EBC0003F3002B7FF4D0AE00BF2C37BD4680BC73
:104ECC00704700BF000021100000111000001210EC
:104EDC0000003110000032100000221000100240BF
:104EEC000000014000080140000C0140001001408E
:104EFC00001401400004014080B485B000AF78601C
:104F0C000B467B807B689A687B881340002B02D011
:104F1C000123FB7301E00023FB73FB7B1846143762
:104F2C00BD4680BC704780B483B000AF78600B4640
:104F3C007B8013467B707B78002B03D07A887B6850
:104F4C001A6103E07B881A047B681A6100BF0C3776
:104F5C00BD4680BC7047000080B584B000AF78605F
:104F6C007B68002B01D101231FE17B6893F83D3056
:104F7C00DBB2002B06D17B68002283F83C207868DA
:104F8C00FEF7CAF87B68242283F83D207B681B68F7
:104F9C001A687B681B6822F001021A607B681B6828
:104FAC001A687B681B6842F400421A607B681B68B5
:104FBC001A687B681B6822F400421A6001F006FD37
:104FCC00F8607B685B687B4A934207D8FB687A4A37
:104FDC00934294BF01230023DBB206E0FB68774ABF
:104FEC00934294BF01230023DBB2002B01D0012399
:104FFC00DBE0FB68724AA2FB03239B0CBB607B6863
:10500C001B685B6823F03F017B681B68BA680A4326
:10501C005A607B681B681B6A23F03F017B685B68E6
:10502C00644A934202D8BB68013309E0BB684FF471
:10503C00967202FB03F3634AA2FB03239B09013321
:10504C007A6812680B4313627B681B68DB6923F474
:10505C004F4222F0FF027B685B6856498B420DD8A9
:10506C00FB68591E7B685B685B00B1FBF3F3013393
:10507C00C3F30B03042B38BF04234FE07B689B68FE
:10508C00002B11D1FB68581E7B6859680B465B00DE
:10509C000B44B0FBF3F30133C3F30B03002B0CBF36
:1050AC0001230023DBB212E0FB68581E7B685968B1
:1050BC000B469B000B4499000B44B0FBF3F30133FC
:1050CC00C3F30B03002B0CBF01230023DBB2002B1B
:1050DC0001D0012322E07B689B68002B0ED1FB687A
:1050EC00581E7B6859680B465B000B44B0FBF3F30E
:1050FC000133C3F30B0343F400430FE0FB68581E6A
:10510C007B6859680B469B000B4499000B44B0FB21
:10511C00F3F30133C3F30B0343F440437968096899
:10512C001343CB617B681B681B6823F0C0017B6851
:10513C00DA697B681B6A1A437B681B680A431A602E
:10514C007B681B689B6823F4034323F0FF037A6896
:10515C0011697A68D26811437A6812680B439360BC
:10516C007B681B68DB6823F0FF017B685A697B68EE
:10517C009B691A437B681B680A43DA607B681B686F
:10518C001A687B681B6842F001021A607B68002277
:10519C001A647B68202283F83D207B6800221A6306
:1051AC007B68002283F83E20002318461037BD464A
:1051BC0080BD00BFA08601007F841E00FF083D005B
:1051CC0083DE1B43D34D621080B588B002AFF8600C
:1051DC007A601A460B467B8113463B81FFF7F8FB3E
:1051EC007861FB6893F83D30DBB2202B40F0E08017
:1051FC007B690093192301227049F86800F01CFEAA
:10520C000346002B01D00223D3E0FB6893F83C301B
:10521C00012B01D10223CCE0FB68012283F83C2056
:10522C00FB681B681B6803F00103012B07D0FB68AC
:10523C001B681A68FB681B6842F001021A60FB6865
:10524C001B681A68FB681B6822F400621A60FB6812
:10525C00212283F83D20FB68102283F83E20FB6856
:10526C0000221A64FB687A685A62FB683A895A858C
:10527C00FB685B8D9AB2FB681A85FB68504ADA6250
:10528C0079897B693A6AF86800F0F0FB0346002BD9
:10529C0001D001238DE000233B61FB681B685B6937
:1052AC003B61FB681B689B693B613B6966E07A6903
:1052BC00396AF86800F096FE0346002B0DD0FB68A7
:1052CC001B6C042B07D1FB681B681A68FB681B68F6
:1052DC0042F400721A6001236BE0FB685B6A1A7877
:1052EC00FB681B681A61FB685B6A5A1CFB685A6294
:1052FC00FB685B8D9BB2013B9AB2FB685A85FB68DD
:10530C001B8D013B9AB2FB681A85FB681B685B69B5
:10531C0003F00403042B1BD1FB681B8D002B17D04F
:10532C00FB685B6A1A78FB681B681A61FB685B6A2E
:10533C005A1CFB685A62FB685B8D9BB2013B9AB2AC
:10534C00FB685A85FB681B8D013B9AB2FB681A857A
:10535C007A69396AF86800F086FE0346002B0DD096
:10536C00FB681B6C042B07D1FB681B681A68FB6875
:10537C001B6842F400721A6001231AE0FB681B8D53
:10538C00002B94D1FB681B681A68FB681B6842F4FD
:10539C0000721A60FB68202283F83D20FB68002213
:1053AC0083F83E20FB68002283F83C20002300E0B9
:1053BC00022318461837BD4680BD00BF02001000FE
:1053CC000000FFFF80B58CB002AFF8607A601A461F
:1053DC000B467B8113463B8100233B62FFF7F8FAB7
:1053EC007862FB6893F83D30DBB2202B40F03882BA
:1053FC007B6A0093192301227E49F86800F01CFD9A
:10540C000346002B01D002232BE2FB6893F83C30BF
:10541C00012B01D1022324E2FB68012283F83C20FA
:10542C00FB681B681B6803F00103012B07D0FB68AA
:10543C001B681A68FB681B6842F001021A60FB6863
:10544C001B681A68FB681B6822F400621A60FB6810
:10545C00222283F83D20FB68102283F83E20FB6853
:10546C0000221A64FB687A685A62FB683A895A858A
:10547C00FB685B8D9AB2FB681A85FB685E4ADA6240
:10548C0079897B6A3A6BF86800F072FB0346002B53
:10549C0001D00123E5E1FB681B8D002B13D1002308
:1054AC00FB61FB681B685B69FB61FB681B689B69A4
:1054BC00FB61FB69FB681B681A68FB681B6842F49C
:1054CC0000721A60B9E1FB681B8D012B1DD1FB68C2
:1054DC001B681A68FB681B6822F480621A6072B63B
:1054EC000023BB61FB681B685B69BB61FB681B68C5
:1054FC009B69BB61BB69FB681B681A68FB681B680E
:10550C0042F400721A6062B697E1FB681B8D022BA5
:10551C001DD1FB681B681A68FB681B6842F40062AB
:10552C001A6072B600237B61FB681B685B697B6148
:10553C00FB681B689B697B617B69FB681B681A684D
:10554C00FB681B6822F480621A6062B675E1FB6826
:10555C001B681A68FB681B6842F480621A6000239F
:10556C003B61FB681B685B693B61FB681B689B6963
:10557C003B613B6961E1FB681B8D032B00F21A81D7
:10558C00FB681B8D012B23D17A6A396BF86800F00C
:10559C00ABFD0346002B01D0012362E1FB681B68C5
:1055AC001A69FB685B6AD2B21A70FB685B6A5A1C98
:1055BC00FB685A62FB681B8D013B9AB2FB681A852B
:1055CC00FB685B8D9BB2013B9AB2FB685A8534E158
:1055DC00FB681B8D022B50D17B6A00933B6B002226
:1055EC000649F86800F028FC0346002B08D001237C
:1055FC0037E100BF020010000000FFFF04000100B3
:10560C0072B6FB681B681A68FB681B6842F4007270
:10561C001A60FB681B681A69FB685B6AD2B21A7065
:10562C00FB685B6A5A1CFB685A62FB681B8D013B6A
:10563C009AB2FB681A85FB685B8D9BB2013B9AB2F0
:10564C00FB685A8562B6FB681B681A69FB685B6A63
:10565C00D2B21A70FB685B6A5A1CFB685A62FB6810
:10566C001B8D013B9AB2FB681A85FB685B8D9BB264
:10567C00013B9AB2FB685A85DFE07B6A00933B6B77
:10568C0000227A49F86800F0D7FB0346002B01D0C2
:10569C000123E6E0FB681B681A68FB681B6822F4B0
:1056AC0080621A6072B6FB681B681A69FB685B6AD9
:1056BC00D2B21A70FB685B6A5A1CFB685A62FB68B0
:1056CC001B8D013B9AB2FB681A85FB685B8D9BB204
:1056DC00013B9AB2FB685A85654B1B68DB08654A2F
:1056EC00A2FB03231A0A13469B001344DA00D31AB5
:1056FC003B623B6A013B3B623B6A002B17D1FB6868
:10570C0000221A63FB68202283F83D20FB680022EC
:10571C0083F83E20FB681B6C43F02002FB681A6484
:10572C0062B6FB68002283F83C20012399E0FB68F9
:10573C001B685B6903F00403042BDAD1FB681B685C
:10574C001A68FB681B6842F400721A60FB681B68DD
:10575C001A69FB685B6AD2B21A70FB685B6A5A1CE6
:10576C00FB685A62FB681B8D013B9AB2FB681A8579
:10577C00FB685B8D9BB2013B9AB2FB685A8562B6A3
:10578C00FB681B681A69FB685B6AD2B21A70FB680B
:10579C005B6A5A1CFB685A62FB681B8D013B9AB210
:1057AC00FB681A85FB685B8D9BB2013B9AB2FB6868
:1057BC005A8542E07A6A396BF86800F095FC03462A
:1057CC00002B01D001234CE0FB681B681A69FB68B5
:1057DC005B6AD2B21A70FB685B6A5A1CFB685A622D
:1057EC00FB681B8D013B9AB2FB681A85FB685B8DCD
:1057FC009BB2013B9AB2FB685A85FB681B685B69DC
:10580C0003F00403042B18D1FB681B681A69FB68AE
:10581C005B6AD2B21A70FB685B6A5A1CFB685A62EC
:10582C00FB681B8D013B9AB2FB681A85FB685B8D8C
:10583C009BB2013B9AB2FB685A85FB681B8D002B0F
:10584C007FF499AEFB68202283F83D20FB68002290
:10585C0083F83E20FB68002283F83C20002300E004
:10586C00022318462837BD4680BD00BF0400010046
:10587C00F402002089B5F81480B588B002AFF86046
:10588C00084611461A4603467B810B463B8113465C
:10589C00FB80FFF79DF87861FB6893F83D30DBB235
:1058AC00202B40F0D9807B690093192301226D498C
:1058BC00F86800F0C1FA0346002B01D00223CCE0BB
:1058CC00FB6893F83C30012B01D10223C5E0FB6847
:1058DC00012283F83C20FB681B681B6803F0010362
:1058EC00012B07D0FB681B681A68FB681B6842F029
:1058FC0001021A60FB681B681A68FB681B6822F4BB
:10590C0000621A60FB68212283F83D20FB6840226C
:10591C0083F83E20FB6800221A64FB683A6A5A62DC
:10592C00FB68BA8C5A85FB685B8D9AB2FB681A854A
:10593C00FB684D4ADA62F8883A8979897B69019368
:10594C00BB6A00930346F86800F0E0F90346002BAD
:10595C0052D0012381E07A69B96AF86800F042FB01
:10596C000346002B0DD0FB681B6C042B07D1FB6886
:10597C001B681A68FB681B6842F400721A600123EA
:10598C006BE0FB685B6A1A78FB681B681A61FB6842
:10599C005B6A5A1CFB685A62FB681B8D013B9AB20E
:1059AC00FB681A85FB685B8D9BB2013B9AB2FB6866
:1059BC005A85FB681B685B6903F00403042B1BD13D
:1059CC00FB681B8D002B17D0FB685B6A1A78FB6891
:1059DC001B681A61FB685B6A5A1CFB685A62FB689D
:1059EC001B8D013B9AB2FB681A85FB685B8D9BB2E1
:1059FC00013B9AB2FB685A85FB681B8D002BAAD120
:105A0C007A69B96AF86800F02EFB0346002B0DD0BA
:105A1C00FB681B6C042B07D1FB681B681A68FB68BE
:105A2C001B6842F400721A60012316E0FB681B68C5
:105A3C001A68FB681B6842F400721A60FB6820222B
:105A4C0083F83D20FB68002283F83E20FB6800228F
:105A5C0083F83C20002300E0022318461837BD468B
:105A6C0080BD00BF020010000000FFFF80B588B0B1
:105A7C0002AFF8607A603B600B467B81FB68DB6AA7
:105A8C007B617B69082B06D07B69012B03D07B697A
:105A9C0013F5803F08D1FB681B681A68FB681B680C
:105AAC0042F480721A600BE0FB681B6B122B07D15F
:105ABC00FB681B681A68FB681B6842F480721A60EA
:105ACC003B6800937B6800224FF00111F86800F0EE
