:020000040800F2
:1000000000500020B92A0008DD290008E329000873
:10001000E9290008EF290008F52900080000000080
:10002000000000000000000000000000FB290008A4
:10003000072A000800000000132A00081F2A0008F1
:10004000012B0008012B0008012B00082D2A0008B5
:10005000012B0008012B0008012B0008012B0008D0
:10006000012B0008012B0008012B0008012B0008C0
:10007000012B0008012B0008012B0008012B0008B0
:10008000012B0008012B0008012B0008012B0008A0
:10009000012B0008012B0008012B0008012B000890
:1000A000012B0008012B0008012B0008012B000880
:1000B000012B0008012B0008012B0008012B000870
:1000C000012B0008012B0008012B0008012B000860
:1000D000012B0008012B0008012B0008012B000850
:1000E000012B0008012B0008012B00080000000074
:1000F0000000000000000000000000000000000000
:0C01000000000000000000005FF808F1A3
:10010C0010B5054C237833B9044B13B10448AFF345
:10011C0000800123237010BD680300200000000044
:10012C00BC6A000808B5034B1BB103490348AFF385
:10013C00008008BD000000006C030020BC6A0008B1
:10014C0080B500AF4FF400410A4803F0DBFF0346D3
:10015C00002B0CD10A2003F04BFD4FF40041054855
:10016C0003F0D0FF0346002B01D1012300E0002354
:10017C00184680BD000C014080B500AF02F06EFB4C
:10018C0000BF80BD80B586B002AF3B1D00221A6057
:10019C005A601A81FFF7D4FF0346002B03D0FFF7F8
:1001AC00EBFF002364E300228A498B4805F0ECFA4C
:1001BC0000228A49884805F075FC02F091FD854BB8
:1001CC001B78874AA2FB0323DB08DAB2854B1B782A
:1001DC009A420BD0844B00221A707E4B1B78804ABB
:1001EC00A2FB0323DB08DAB27E4B1A70794B1A7828
:1001FC007B4BA3FB0213D9080B469B000B445B0003
:10020C00D31ADAB2794B1B789A4210D0784B002271
:10021C001A70704B1A78724BA3FB0213D9080B4659
:10022C009B000B445B00D31ADAB2704B1A70694B0B
:10023C005B786B4AA2FB0323DB08DAB26D4B1B78AD
:10024C009A420BD06C4B00221A70624B5B78644A5A
:10025C00A2FB0323DB08DAB2664B1A705D4B5A78AB
:10026C005F4BA3FB0213D9080B469B000B445B00AE
:10027C00D31ADAB2614B1B789A4210D0604B002231
:10028C001A70544B5A78564BA3FB0213D9080B46E1
:10029C009B000B445B00D31ADAB2584B1A704D4BCF
:1002AC009B784F4AA2FB0323DB08DAB2554B1B7831
:1002BC009A420BD0544B00221A70464B9B78484AFA
:1002CC00A2FB0323DB08DAB24E4B1A70414B9A782F
:1002DC00434BA3FB0213D9080B469B000B445B005A
:1002EC00D31ADAB2494B1B789A4213D0484B0122ED
:1002FC001A70484B00221A70364B9A78384BA3FB75
:10030C000213D9080B469B000B445B00D31ADAB2DC
:10031C003E4B1A702F4B1A78314BA3FB0213D908A2
:10032C000B469B000B445B00D31ADBB2092B77D135
:10033C00284B5B78323BDBB2092B71D8254B5A78B2
:10034C00274BA3FB0213D9080B469B000B445B0005
:10035C00D31ADBB2092B63D11E4B9B78323BDBB239
:10036C00092B5DD81B4B9A781D4BA3FB0213D908A4
:10037C000B469B000B445B00D31ADBB2092B4FD10D
:10038C00194B1B780133DAB2174B1A70164B1B78CA
:10039C000F2B60D83B1D0A220021184605F03CFFAC
:1003AC000C4B1B780E4AA2FB0323DB08DBB21A466C
:1003BC003B1D1949184605F06BFF0D4B1B78391D79
:1003CC00002201920093154B0A461421052003F0DC
:1003DC0042FA40E08C040020080500209004002024
:1003EC00CDCCCCCC840300208503002086030020D8
:1003FC008703002088030020890300208A03002043
:10040C008B0300208C0300208D0300208E03002022
:10041C008F03002090030020D46A0008E8800008B5
:10042C003B1D0A220021184605F0F6FEA94B1B784D
:10043C00A94AA2FB0323DB08DBB21A463B1DA749E2
:10044C00184605F025FF3A1D00230093A44B1421F8
:10045C00052003F0DAF99F4B5B78323BDBB2092BBA
:10046C0050D89C4B5A789C4BA3FB0213D9080B46D3
:10047C009B000B445B00D31ADBB2092B42D1954B8A
:10048C009B78323BDBB2092B3CD8924B9A78924B3F
:10049C00A3FB0213D9080B469B000B445B00D31A39
:1004AC00DBB2092B2ED18F4B1B780133DAB28D4B7B
:1004BC001A708C4B1B780F2B44D83B1D0A22002141
:1004CC00184605F0A9FE834B1A78834BA3FB021345
:1004DC00D9080B469B000B445B00D31ADBB21A46BF
:1004EC003B1D7E49184605F0D3FE7E4B1B78391D0B
:1004FC000022019200937A4B0A461421192003F032
:10050C00AAF91FE03B1D0A220021184605F084FEC3
:10051C00704B1A78704BA3FB0213D9080B469B0047
:10052C000B445B00D31ADBB21A463B1D6B491846D1
:10053C0005F0AEFE3A1D00230093694B14211920DF
:10054C0003F063F93B1D0A220021184605F064FEF6
:10055C00604B9B7803F00103DBB2002B08D1002326
:10056C0000935F4B604A14212D2003F04EF907E0F5
:10057C00002300935A4B5D4A14212D2003F045F9BA
:10058C00544B5A78544BA3FB0213D9080B469B00CF
:10059C000B445B00D31ADBB2092B3DD14D4B9B783E
:1005AC00323BDBB2092B37D84A4B9A784A4BA3FB28
:1005BC000213D9080B469B000B445B00D31ADBB229
:1005CC00092B29D14A4B1B780133DAB2484B1A70EC
:1005DC00474B1B780F2B3AD83B1D0A22002118469B
:1005EC0005F01AFE3B4B5B783B4AA2FB0323DB086E
:1005FC00DBB21A463B1D3949184605F049FE3C4B07
:10060C001B78391D002201920093354B0A461421A8
:10061C003C2003F020F91AE03B1D0A220021184669
:10062C0005F0FAFD2B4B5B782B4AA2FB0323DB086E
:10063C00DBB21A463B1D2949184605F029FE3A1D26
:10064C0000230093264B14213C2003F0DEF8214BB1
:10065C009B78323BDBB2092B4ED81E4B9A781E4B43
:10066C00A3FB0213D9080B469B000B445B00D31A67
:10067C00DBB2092B40D11F4B1B780133DAB21D4B77
:10068C001A701C4B1B780F2B56D83B1D0A220021CD
:10069C00184605F0C1FD0F4B5A780F4BA3FB021304
:1006AC00D9080B469B000B445B00D31ADBB21A46ED
:1006BC003B1D0A49184605F0EBFD0E4B1B78391D06
:1006CC00002201920093064B0A461421502003F09D
:1006DC00C2F831E08C040020CDCCCCCCD46A00081C
:1006EC00E880000887030020D86A0008DC6A00084C
:1006FC00890300208B0300203B1D0A220021184691
:10070C0005F08AFD5C4B5A785C4BA3FB0213D908AD
:10071C000B469B000B445B00D31ADBB21A463B1D05
:10072C005749184605F0B4FD3A1D00230093554B6C
:10073C001421502003F069F84F4B9A784F4BA3FBD0
:10074C000213D9080B469B000B445B00D31ADBB297
:10075C00092B29D14C4B1B780133DAB24A4B1A7056
:10076C00494B1B780F2B3AD83B1D0A220021184607
:10077C0005F052FD404B9B78404AA2FB0323DB085B
:10078C00DBB21A463B1D3E49184605F081FD3E4B37
:10079C001B78391D0022019200933C4B0A461C2108
:1007AC00672003F058F81AE03B1D0A220021184676
:1007BC0005F032FD304B9B78304AA2FB0323DB085B
:1007CC00DBB21A463B1D2E49184605F061FD3A1D59
:1007DC00002300932D4B1C21672003F016F82C4BA3
:1007EC001B78002B31D02B4B1B780133DAB2294B01
:1007FC001A70284B1B780F2B03D9254B00221A702B
:10080C0023E03B1D0A220021184605F005FD1A4B7A
:10081C009A781A4BA3FB0213D9080B469B000B4486
:10082C005B00D31ADBB21A463B1D1549184605F07E
:10083C002FFD184B1B78391D002201920093134B8E
:10084C000A461C21742003F02FF8012300930F2378
:10085C0010220C21742002F012FE02F04DFAFFF768
:10086C006FFC0346002B3FF495ACFFF785FC00238F
:10087C0018461037BD4680BD8C040020CDCCCCCCA6
:10088C00D46A0008E88000088D0300202C8300083F
:10089C008F0300209003002080B582B002AF02F0DD
:1008AC001FFA002300930E4B0E4A0821002003F080
:1008BC004DF8002300930A4B0B4A2B21002003F028
:1008CC0045F802F019FA00BF4FF40041074803F055
:1008DC0019FC0346002BF7D100BFBD4680BD00BFFD
:1008EC00F4890008E06A0008F46A0008000C014072
:1008FC0080B584B002AF00237B600123FB7002F053
:10090C00EFF90023854A0021002002F0C4FE0023E9
:10091C000093834B834A00210A2003F017F800232D
:10092C0000937F4B804A10210A2003F00FF802F04D
:10093C00E3F902F0E1F803461A467C4B1A707B4B44
:10094C001B78012B07D1FB78013BFB70FB78002B4C
:10095C0001D10323FB70754B1B78022B07D1FB785D
:10096C000133FB70FB78042B01D10123FB706F4B1F
:10097C001B78032B05D102F0B3F902F0BDF9FB781B
:10098C007B606A4B1B78042B01D10023C2E07B688F
:10099C00012B0AD100F038FA00F058FB00237B60E1
:1009AC004FF4967003F024F916E07B68022B08D103
:1009BC0001F080F800237B604FF4967003F018F977
:1009CC000AE07B68032B07D100F0CCFD00237B6091
:1009DC004FF4967003F00CF9FB78013B032B00F2FB
:1009EC00978001A252F823F0050A00084B0A000870
:1009FC00910A0008D70A000802F072F90023474A4E
:100A0C000021002002F047FE00230093444B484A8B
:100A1C0000210A2002F09AFF00230093404B454A24
:100A2C0010210A2002F092FF002300933C4B424A13
:100A3C0020210A2002F08AFF02F05EF969E002F040
:100A4C004FF90023354A1021002002F024FE002328
:100A5C000093334B364A00210A2002F077FF002323
:100A6C0000932F4B334A10210A2002F06FFF002312
:100A7C0000932B4B304A20210A2002F067FF02F032
:100A8C003BF946E002F02CF90023244A20210020F7
:100A9C0002F001FE00230093214B254A00210A207D
:100AAC0002F054FF002300931D4B224A10210A2010
:100ABC0002F04CFF00230093194B1F4A20210A20FF
:100ACC0002F044FF02F018F923E002F009F90023C8
:100ADC00124A3021002002F0DEFD00230093104B5F
:100AEC00134A00210A2002F031FF002300930C4B23
:100AFC00104A10210A2002F029FF00230093084B12
:100B0C000D4A20210A2002F021FF02F0F5F800E046
:100B1C0000BF0EE718460837BD4680BDF402002022
:100B2C00F4890008006B0008106B00089404002086
:100B3C00246B0008346B0008446B000880B584B04B
:100B4C0002AF0123FB7102F0CBF80023A54A002170
:100B5C00002002F0A0FD00230093A34BA34A002128
:100B6C000A2002F0F3FE002300939F4BA04A1021B1
:100B7C000A2002F0EBFE002300939B4B9D4A2021A0
:100B8C000A2002F0E3FE00230093974B9A4A30218F
:100B9C000A2002F0DBFE02F0AFF801F0ADFF0346D5
:100BAC001A46964B1A70954B1B78012B07D1FB7983
:100BBC00013BFB71FB79002B01D10623FB718F4BA1
:100BCC001B78022B07D1FB790133FB71FB79072BC7
:100BDC0001D10123FB71894B1B78032B05D102F04A
:100BEC007FF802F089F8FB79F8E0FB79013B052BE3
:100BFC0000F2F28001A252F823F000BF210C000891
:100C0C00770C0008CD0C0008230D0008790D0008A6
:100C1C00AF0D000802F064F80023724A0021002096
:100C2C0002F039FD002300936F4B704A00210A201B
:100C3C0002F08CFE002300936B4B6D4A10210A20AE
:100C4C0002F084FE00230093674B6A4A20210A209D
:100C5C0002F07CFE00230093634B674A30210A208C
:100C6C0002F074FE02F048F8B7E002F039F8002305
:100C7C005C4A1021002002F00EFD002300935A4B19
:100C8C005A4A00210A2002F061FE00230093564BC1
:100C9C00574A10210A2002F059FE00230093524BB0
:100CAC00544A20210A2002F051FE002300934E4B9F
:100CBC00514A30210A2002F049FE02F01DF88CE066
:100CCC0002F00EF80023474A2021002002F0E3FC3A
:100CDC0000230093444B454A00210A2002F036FEC3
:100CEC0000230093404B424A10210A2002F02EFEB2
:100CFC00002300933C4B3F4A20210A2002F026FEA1
:100D0C0000230093384B3C4A30210A2002F01EFE8F
:100D1C0001F0F2FF61E001F0E3FF0023314A3021E2
:100D2C00002002F0B8FC002300932F4B2F4A002127
:100D3C000A2002F00BFE002300932B4B2C4A1021AF
:100D4C000A2002F003FE00230093274B294A20219E
:100D5C000A2002F0FBFD00230093234B264A30218E
:100D6C000A2002F0F3FD01F0C7FF36E001F0B8FFF6
:100D7C0000231C4A0021002002F08DFC002300936C
:100D8C00194B1F4A00210A2002F0E0FD00230093BA
:100D9C00154B1C4A10210A2002F0D8FD01F0ACFFC3
:100DAC001BE001F09DFF00230E4A1021002002F0F1
:100DBC0072FC002300930C4B114A00210A2002F014
:100DCC00C5FD00230093084B0E4A10210A2002F0A7
:100DDC00BDFD01F091FF00E000BFDEE618460837CC
:100DEC00BD4680BDF4020020F4890008546B000855
:100DFC005C6B0008646B0008746B000894040020A2
:100E0C00806B0008886B000880B584B002AF0123AA
:100E1C007B6001F065FF0023124A27210A2002F0B3
:100E2C003AFC4FF40041104803F06CF90346002BD8
:100E3C0011D07B68DAB2002300933F233F210020BE
:100E4C0002F0E2F901F058FF7B6804337B607B68A9
:100E5C007F2B02DCE5E700BF00E000BF0837BD4692
:100E6C0080BD00BF786D0008000C014080B582B0D9
:100E7C0000AF03463960FB803B68002B07D1FB8831
:100E8C00D9B20023154A0A2002F005FC21E03B6888
:100E9C00012B07D1FB88D9B20023114A0A2002F09A
:100EAC00FAFB16E03B68B3F1FF3F07D1FB88D9B2E0
:100EBC0000230C4A0A2002F0EEFB0AE03B6813F117
:100ECC00020F06D1FB88D9B20023074A0A2002F090
:100EDC00E2FB00BF0837BD4680BD00BFE86C0008D0
:100EEC00306D0008786D0008A06C000880B582B0E9
:100EFC0000AF03463960FB80B7F906203B681B78CE
:100F0C00C3F17F039A420BDCFB88D8B23B685B7859
:100F1C00C3F13F03D9B200233A6802F0BCFB00E0F6
:100F2C0000BF0837BD4680BD80B584B002AF786085
:100F3C000B46FB7097F90330002B15D17A681849D2
:100F4C00184805F0A5F900230093174B174A032105
:100F5C00482002F0FBFC00230093134B114A0321A1
:100F6C00662002F0F3FC16E0114B1B681A460C4984
:100F7C000C4805F08DF9002300930B4B0D4A1621FC
:100F8C003C2002F0E3FC00230093074B054A16219A
:100F9C00662002F0DBFC00BF0837BD4680BD00BFF9
:100FAC00B06B000898030020C48B0008B46B0008D9
:100FBC0094030020C06B000880B586B002AFBA6005
:100FCC007B600346FB810B46BB81B7F918306FF091
:100FDC0001011846FFF74AFFB7F90E30396A184677
:100FEC00FFF784FFB7F90C30796A1846FFF77EFFDC
:100FFC00002300933F237F223F21002002F004F9BD
:10100C000021B868FFF790FF0D4B1B68BA689A4235
:10101C000BDD0B4ABB68136000230093094B0A4A93
:10102C0016214B2002F092FC03E00121B868FFF777
:10103C007BFF01F061FE00BF1037BD4680BD00BFD5
:10104C0094030020C48B0008D06B000880B58EB0D0
:10105C0004AFFC233B8140F27D13FB803B89C833FA
:10106C009BB2FB84FB88C8339BB2BB8402F0B6FDF9
:10107C00034603F00703002B01D0AF4B00E0AF4B4E
:10108C003B6202F0ABFD0146AD4BA3FB01239A087A
:10109C0013469B001344CA1A002A01D0A64B00E049
:1010AC00A64BFB6115239BB20A339BB2BB80272353
:1010BC007B8300237B6100233B610023FB600023C7
:1010CC00FB7201F00DFE4FF480519E4803F01AF8AC
:1010DC000346002B0FD04FF400519A4803F012F83E
:1010EC000346002B07D04FF48041964803F00AF8D2
:1010FC000346002B05D17B69002B0BD101237B61AF
:10110C0008E04FF400418F4802F0FCFF0346002B2F
:10111C0000F05081B7F92620B7F904107B69052B34
:10112C00A8BF0523CB1A9A4229DCB7F926300B2B22
:10113C0025DDB7F91A3017221A443B6A5B78C3F1E4
:10114C003F039A421BDBB7F92410B7F92600FB6961
:10115C0003933B6A0293B7F904300193B7F91A3041
:10116C0000937B69FA68FFF727FF00BF4FF400413B
:10117C00744802F0C7FF0346002BF7D11BE1B7F907
:10118C002420B7F904107B69052BA8BF0523CB1AC3
:10119C009A4229DCB7F924300B2B25DDB7F91A302C
:1011AC0017221A44FB695B78C3F13F039A421BDB9D
:1011BC00B7F92610B7F92400FB6903933B6A029335
:1011CC00B7F904300193B7F91A3000937B69FA68C8
:1011DC00FFF7F2FE00BF4FF400415A4802F092FFB5
:1011EC000346002BF7D1E6E07B69002B10DD7B6911
:1011FC00013B554AD35C9BB2C3F127039BB27B8363
:10120C007B6901337B617B69262B01DD00237B61CC
:10121C003B6901333B613B694C4A82FB0312521020
:10122C00DB17D31AFB600021F868FFF77DFE7B69A2
:10123C00002B07D0B7F91A304FF0FF311846FFF7E3
:10124C0015FE17E097F90B30042BCCBF01230023BC
:10125C00DBB21A46B7F91A3011461846FFF706FEEC
:10126C00FB7A0133DBB2FB7297F90B30092B01DDF2
:10127C000023FB72B7F92630396A1846FFF736FEA1
:10128C00B7F92430F9691846FFF730FE00230093B4
:10129C003F237F223F21002001F0B6FFFB8C023B55
:1012AC009BB2FB84BB8C023B9BB2BB84B7F9263050
:1012BC00002B1FDC02F092FC0246214BA3FB022305
:1012CC00D9081F4BA3FB01231A0913469B00134497
:1012DC009B00CA1A92B23B8913449BB2FB8402F066
:1012EC007DFC034603F00303002B01D0124B00E0FE
:1012FC00124B3B62B7F92430002B2BDC02F06EFC56
:10130C0002460F4BA3FB0223D9080D4BA3FB012371
:10131C001A0913469B0013449B00CA1A92B2FB880D
:10132C0013449BB2BB8402F059FC034603F0010347
:10133C00002B0DD0004B0CE08C6D0008B86D000834
:10134C00CDCCCCCC000C0140C06D00086766666645
:10135C001A4BFB61FA8CBB8CD31A9BB21AB2184B8A
:10136C001A80174BB3F90030002B0DDD144BB3F979
:10137C0000302E2B08DCFA8C114BB3F900309BB2E9
:10138C0013449BB2FB8412E00D4BB3F90030002BDD
:10139C000DDA0B4BB3F9003013F12E0F07DBBA8CBF
:1013AC00074BB3F900309BB213449BB2BB8401F0E2
:1013BC00A3FC86E600BF2837BD4680BDB86D00088B
:1013CC00A803002080B500AF4FF48041054802F01F
:1013DC0099FE0346002B01D1012300E0002318469F
:1013EC0080BD00BF000C014080B586B002AF3B460B
:1013FC0000221A605A609A60C3F80B2001F070FC4E
:10140C004F4B1A683B464F49184604F041FF3A4689
:10141C00002300934C4B0021502002F0F6F94B4B6B
:10142C001B68D8B24A4B1B68DAB2002300931346F0
:10143C000A22002101F0D2FF444B1B68DBB2023BB5
:10144C00D8B2434B1B68DBB2063BD9B200230093E6
:10145C0006230E2201F0C2FF3C4B1B68D8B23C4B5A
:10146C001B68DBB21E33D9B2394B1B68DBB2C3F13C
:10147C004003DAB20023009313460A2201F0AEFFB8
:10148C00324B1B68DBB2023BD8B2314B1B68DBB270
:10149C001E33D9B20023009306230E2201F09EFFC7
:1014AC002C4B1B68D8B22C4B1B68DAB20023009370
:1014BC0013460A22002101F091FF264B1B68DBB278
:1014CC00023BD8B2244B1B68DBB2063BD9B20023DB
:1014DC00009306230E2201F081FF1E4B1B68D8B22D
:1014EC001D4B1B68DBB21E33D9B21B4B1B68DBB226
:1014FC00C3F14003DAB20023009313460A2201F031
:10150C006DFF144B1B68DBB2023BD8B2124B1B684D
:10151C00DBB21E33D9B20023009306230E2201F056
:10152C005DFF0E4B1B68D9B200230D4A142002F04C
:10153C00B2F801F0E1FB00BF1037BD4680BD00BF23
:10154C00AC040020E06B000868700008B0040020B8
:10155C00A804002098040020A00400209C04002073
:10156C00F06D000880B586B002AF3B4600221A60D1
:10157C005A609A60C3F80B200023FB73AF4B802298
:10158C001A60AF4BC0221A6004F04EFE0246AD4BFF
:10159C0083FB0213D910D317CB1A2A2101FB03F3B7
:1015AC00D31A0133A84A136004F03EFE0246A54B41
:1015BC0083FB0213D910D317CB1A2A2101FB03F397
:1015CC00D31A0133A14A1360A14B20221A60A14BFC
:1015DC000A221A60A04B00221A604FF400419F4867
:1015EC0002F090FD0346002B00F05181FB7B002B99
:1015FC0040F0B380FFF7E6FE0346012B02D1944B7B
:10160C0010221A608D4B1B68023B8C4A13608C4B6A
:10161C001B68023B8A4A13608D4B1B68053B8C4A46
:10162C0013608B4B1B688E4A82FB03129210DB17E4
:10163C009A1A884B1B681344864A13607F4B1B68AD
:10164C00023B002B19DA7D4B80221A6004F0ECFD72
:10165C0002467C4B83FB0213D910D317CB1A2A21D9
:10166C0001FB03F3D31A0133774A1360764B1B68E3
:10167C00052B02DC744B06221A60714B1B68023B73
:10168C00002B19DA6E4B80221A6004F0CDFD024655
:10169C006C4B83FB0213D910D317CB1A2A2101FBF5
:1016AC0003F3D31A0133694A1360684B1B68052B8B
:1016BC0002DC664B06221A60FFF796FE654B1B6830
:1016CC00002B02DA634B00221A60624B1B68402B22
:1016DC0001DD0123FB73594B1B68132B14DD574B96
:1016EC001B681F2B10DC5B4B1A68574B1B689A420C
:1016FC0008DB584B1B6803F10802534B1B681E3365
:10170C009A4201DD0123FB734D4B1B68132B14DD37
:10171C004B4B1B681F2B10DC4E4B1A684B4B1B683A
:10172C009A4208DB4B4B1B6803F10802474B1B68C2
:10173C001E339A4201DD0123FB73404B1B68102BB7
:10174C0003D03F4B1B68102B04D1434B1B68013358
:10175C00414A13601E2002F04BFAFB7B012B7FF4F5
:10176C003CAF01F0BDFA00233E4A0021002001F0FD
:10177C0092FF00233C4A2021082001F08CFF00231B
:10178C0000933A4B3A4A2021482002F0DFF8324BC2
:10179C001A683B463749184604F07AFD3A4600234E
:1017AC000093354B3021482002F02FF801F0A4FAB9
:1017BC00FFF708FE0346012B60D10023FB731F4B80
:1017CC0080221A601E4BC0221A6004F02DFD0246C6
:1017DC001C4B83FB0213D910D317CB1A2A2101FB04
:1017EC0003F3D31A0133184A1360174B1B68052BEC
:1017FC0002DC154B06221A6004F016FD0246114B52
:10180C0083FB0213D910D317CB1A2A2101FB03F344
:10181C00D31A01330D4A13600C4B1B68052B02DCE9
:10182C000A4B06221A600A4B20221A60094B3222FC
:10183C001A60094B00221A6020E000BFB00400209F
:10184C0098040020310CC330A8040020A004002010
:10185C00A40400209C040020AC040020000C0140D7
:10186C0067666666E86D0008F86D0008C48B0008B2
:10187C00E46B0008E06B0008687000084FF400414E
:10188C00064802F03FFC0346002B02D0A5E600BF41
:10189C0000E000BF1037BD4680BD00BF000C01400A
:1018AC0080B400AF2D4B00221A602D4B00221A6021
:1018BC002C4B00221A602C4B08221A602B4B002256
:1018CC001A602B4B00221A602A4B5F221A602A4B9B
:1018DC0000221A60294B5F221A60294B00221A60E1
:1018EC00284B5F221A60284B00221A60274B5F227C
:1018FC001A60274B00221A60264B00221A60264BD6
:10190C0003221A60254B01221A60254B0A221A6009
:10191C00244B05221A60244B00221A60234B01220F
:10192C001A60234B00221A60224B00221A60224BB1
:10193C0000221A60214B18221A60214B00221A60D7
:10194C00204B00221A60204B00221A601F4B0022F1
:10195C001A6000BFBD4680BC704700BFAC030020BE
:10196C00B0030020B4030020C4020020B803002000
:10197C00BC030020C8020020C0030020CC020020C1
:10198C00C4030020D0020020C8030020D402002091
:10199C00CC030020D0030020D8020020DC02002061
:1019AC00E0020020E4020020D4030020E802002022
:1019BC00D8030020DC030020E0030020EC02002010
:1019CC00EC030020F0030020F4030020F8030020B7
:1019DC0080B500AF4FF480510F4802F093FB0346E3
:1019EC00002B01D1022314E04FF400510A4802F0FD
:1019FC0089FB0346002B01D103230AE04FF48041FD
:101A0C00054802F07FFB0346002B01D1012300E0C7
:101A1C000023184680BD00BF000C014080B500AF0C
:101A2C001E21322002F038F811211E2002F034F869
:101A3C0012213C2002F030F81021372002F02CF853
:101A4C002B21192002F028F82B21642002F024F815
:101A5C003421752002F020F831210E2002F01CF800
:101A6C001821182002F018F824214E2002F014F846
:101A7C003921502002F010F80B216B2002F00CF8E9
:101A8C000B21962002F008F80521052002F004F83D
:101A9C000721082002F000F80C21462001F0FCFF81
:101AAC0038210A2001F0F8FF1921462001F0F4FF3B
:101ABC0000BF80BD90B589B002AF00237B613B1D98
:101ACC0000221A605A609A60C3F80B20FFF7E8FEF8
:101ADC0002F084F80246A34B1A604FF40041A2486E
:101AEC0002F010FB0346002B00F070849F4B1B6828
:101AFC00002B40F0C48301F0F3F8FFF78FFF02F0E6
:101B0C006DF80246974B1B68D31A994A1360984B91
:101B1C001A68984B1B68D31A4CF25032934217D95F
:101B2C00934B1B68934A1360934B1B680133924A87
:101B3C001360924B1B680133904A1360904B1B68E7
:101B4C0001338F4A13608F4B1B68013B8D4A136026
:101B5C008D4B1B6801338C4A136004F065FB024605
:101B6C008A4B83FB02131912D317CB1A4FF448710B
:101B7C0001FB03F3D31A03F00103002B11D1824BA9
:101B8C001B68012B0DD1824B1B68002B09D1814B9B
:101B9C005F221A60804B1B68804A13607C4B0122C9
:101BAC001A6004F041FB0246784B83FB02131912B6
:101BBC00D317CB1A4FF4487101FB03F3D31A03F577
:101BCC00C871774B83FB0132CB17D21A13465B00DB
:101BDC001344CA1A012A11D16B4B1B68022B0DD16D
:101BEC00704B1B68002B09D16F4B5F221A606A4B3C
:101BFC001B686E4A13606B4B01221A6004F014FBD5
:101C0C000246624B83FB02131912D317CB1A4FF403
:101C1C00487101FB03F3D31A03F5C871644B83FBC2
:101C2C0001235A10CB17D21A13469B001344CA1A1D
:101C3C00012A11D1544B1B68032B0DD15D4B1B6832
:101C4C00002B09D15C4B5F221A60534B1B685B4A1B
:101C5C001360584B01221A6004F0E6FA02464B4B13
:101C6C0083FB02131912D317CB1A4FF4487101FBE3
:101C7C0003F3D31A03F5C872514B83FB02131344BD
:101C8C009910D317C91A0B46DB005B1AD11A01291C
:101C9C0011D13D4B1B68042B0DD14A4B1B68002BFB
:101CAC0009D1494B5F221A603B4B1B68474A1360B2
:101CBC00444B01221A60364B1B68002B19D0354B54
:101CCC001B68D8B2354B1B68D9B20023022201F035
:101CDC0007FC304B1B6813F1020F07DB2D4B1A6806
:101CEC00264B1B68D31A2B4A136002E0284B0022A8
:101CFC001A602C4B1B68002B19D02B4B1B68D8B2CD
:101D0C002A4B1B68D9B20023012201F0E9FB264BB8
:101D1C001B68B3F1FF3F07DB234B1A68174B1B689B
:101D2C00D31A214A136002E01E4B00221A60214B89
:101D3C001B68002B4FD0204B1B68D8B21F4B1B6865
:101D4C00D9B20023042201F0CBFB1B4B1B6813F10F
:101D5C00040F3DDB184B1A68084B1B68D31A164A44
:101D6C00136038E0D8030020000C0140BC030020B5
:101D7C00DC030020E0030020E8020020D802002051
:101D8C00DC020020E0020020D40300201F85EB5170
:101D9C00EC030020C8020020C4020020C003002075
:101DAC0056555555F0030020CC020020C4030020EA
:101DBC0067666666F4030020D0020020C80300208A
:101DCC0093244992F8030020D4020020CC03002075
:101DDC008B4B00221A608B4B1B68002B19D08A4B43
:101DEC001B68D8B2894B1B68D9B20023032201F0BF
:101DFC0077FB854B1B6813F1030F07DB824B1A68CB
:101E0C00834B1B68D31A804A136002E07D4B00227F
:101E1C001A60FFF7DDFD0346022B08D17D4B1B68D2
:101E2C00012B04DD7B4B1B68023B7A4A1360FFF7E6
:101E3C00CFFD0346032B08D1764B1B682E2B04DCFD
:101E4C00744B1B680233734A1360FFF7C1FD0346E2
:101E5C00012B0ED1704B1B68002B0AD16E4B01224B
:101E6C001A606E4B06221A606A4B1B6808336C4A68
:101E7C001360694B1B68012B17D1684B1B68083327
:101E8C00664A1360654B1B68D8B2654B1B68D9B2A8
:101E9C00624B1B68DBB20433DAB2614B1B68DCB2F9
:101EAC0000230093234601F0AFF95E4B1B68002B17
:101EBC001ED001F093FE02465B4BA3FB02231B09D1
:101ECC0003F00103002B07D1524B1B68D9B200233E
:101EDC00564A042001F0DFFB554B1A68554B1B6822
:101EEC00D31AB3F57A7F0BD94E4B00221A6007E058
:101EFC00484B1B68D9B200234C4A042001F0CBFBA1
:101F0C004D4B1B68D8B24D4B1B68D9B24C4B1B6860
:101F1C00DAB2002301F0E4FA474B1B68DBB2023360
:101F2C00D8B2464B1B68DBB20333D9B2444B1B68A7
:101F3C00444A82FB0342DB17D31ADAB2002301F0C6
:101F4C00CFFA00230093404B404A00211C2001F0A3
:101F5C005CFC3F4B1A683B1D3E49184604F098F94F
:101F6C003A1D00230093384B0021402001F04DFC1A
:101F7C0000230093344B384A37211C2001F045FCD8
:101F8C00364B1A683B1D3349184604F081F93A1D4B
:101F9C00002300932C4B3721402001F036FC00230A
:101FAC000093294B2E4A2D21742001F02EFC204B3E
:101FBC001B682C4AA2FB03239A093B1D2A4918468D
:101FCC0004F066F93A1D002300931F4B372174204F
:101FDC0001F01BFC00F090FE104B1B68802B02DD07
:101FEC000D4B00221A60214B1B68002B42D1134B66
:101FFC001A681F4B1B681344104A136041E000BF62
:10200C00F4030020F8030020D4020020CC030020AD
:10201C00D8020020EC020020B4030020AC03002006
:10202C00B0030020E40300201F85EB51206E000854
:10203C00DC030020E8030020C0020020C4020020C2
:10204C00E00200205655555568700008F86B0008E2
:10205C00D0030020086C00080C6C0008E40200207F
:10206C00146C0008D34D6210186C0008B8030020E3
:10207C00DC020020974B1A68974B1B68D31A954AC1
:10208C001360964B1B68C3F14002924B1B689A423B
:10209C0002DC934B01221A608E4B1A688F4B1B6823
:1020AC009A4202DC8E4B00221A608A4B1A688B4BC8
:1020BC001B68D21A8B4B1B689A422ADC854B1A6818
:1020CC00864B1B681A44874B1B689A4221DB864B54
:1020DC001A68824B1B68D21A844B1B689A4218DA16
:1020EC00814B1A687D4B1B681A44804B1B689A42C3
:1020FC000FDD7E4B06221A607D4B1B680833794A34
:10210C0013607C4B1B6801337A4A13607A4B0022B4
:10211C001A60774B1B6808337B617B69A3F108025B
:10212C00764B1B689A4221DC7B6903F10802734BE6
:10213C001B689A421ADB724B1B68142B16DC704B13
:10214C001B68042B12DD6F4B1B68002B0ED16E4BE2
:10215C0000221A606D4B1B68013B6C4A1360694B83
:10216C0001221A606A4B1B686A4A13607B69A3F1EF
:10217C000802694B1B689A4221DC7B6903F1080257
:10218C00654B1B689A421ADB644B1B68142B16DCDC
:10219C00624B1B68042B12DD5A4B1B68002B0ED1B3
:1021AC005F4B00221A60594B1B68013B574A136066
:1021BC00544B01221A60564B1B68564A13607B69BC
:1021CC00A3F10802574B1B689A4221DC7B6903F18F
:1021DC000802544B1B689A421ADB534B1B68142B96
:1021EC0016DC514B1B68042B12DD464B1B68002B75
:1021FC000ED14E4B00221A60444B1B68013B434AE4
:10220C001360404B01221A60414B1B68414A13601A
:10221C007B69A3F10802464B1B689A4221DC7B695F
:10222C0003F10802424B1B689A421ADB414B1B68B4
:10223C00142B16DC3F4B1B68042B12DD314B1B6837
:10224C00002B0ED13C4B00221A60304B1B68013B1B
:10225C002E4A13602B4B01221A602D4B1B682D4A02
:10226C001360364B1B68042B02DD344B00221A60C2
:10227C00264B1B68002B02D1314B01221A60304BCC
:10228C001B68012B40F09D8000F02AFD0023009379
:10229C002C4B2D4A1421252001F058FB154B1A68A4
:1022AC003B1D2A49184603F0F3FF3A1D0023009307
:1022BC00244B1421552001F049FB00230093214BA2
:1022CC00234A2321252001F041FB224B1A683B1D98
:1022DC0042E000BFC4020020DC020020E00200202B
:1022EC00B8030020B0030020C0020020AC03002083
:1022FC00EC020020D0030020B4030020C003002017
:10230C00C8020020E4030020EC030020E4020020BB
:10231C00DC030020E8030020C4030020CC020020D2
:10232C00F0030020C8030020D0020020F40300209A
:10233C00CC030020D4020020F8030020D40300209A
:10234C00BC030020C48B00081C6C0008086C00083F
:10235C00246C0008E80200201E49184603F098FF80
:10236C003A1D002300931C4B2321552001F0EEFA5B
:10237C0000230093184B194A3221252001F0E6FA6C
:10238C00174B1B68174AA2FB03239A093B1D1649DE
:10239C00184603F07DFF3A1D002300930E4B3221AB
:1023AC00552001F0D3FA00F0A7FCFFF711FB034610
:1023BC00012B06D1FFF774FA01F010FC02460B4B0F
:1023CC001A60012001F014FCFFF787BB00BF1C371B
:1023DC00BD4690BD086C0008C48B00082C6C00082E
:1023EC00DC030020D34D6210186C0008D8030020C9
:1023FC0080B588B000AF07F1100300221A605A6054
:10240C009A60DA602A4B9B69294A43F01003936166
:10241C00274B9B6903F01003FB60FB68244B9B6903
:10242C00234A43F020039361214B9B6903F0200363
:10243C00BB60BB681E4B9B691D4A43F0080393614C
:10244C001B4B9B6903F008037B607B68184B9B69F3
:10245C00174A43F004039361154B9B6903F0040383
:10246C003B603B6801224FF40051124801F061FEC1
:10247C004FF400533B6101237B610123BB610223B9
:10248C00FB6107F1100319460A4801F0E1FC4FF417
:10249C0070433B6100237B610123BB6107F1100397
:1024AC001946054801F0D4FC00BF2037BD4680BD5D
:1024BC000010024000100140000C014080B500AF3C
:1024CC00124B134A1A60114B124A5A600F4B0022DE
:1024DC009A600E4B0022DA600C4B4FF480421A616A
:1024EC000A4B00225A61094B00229A61074B0022C9
:1024FC00DA61064B00221A62044801F033FE0346EF
:10250C00002B01D000F0CBF800BF80BDB40400203C
:10251C0000540040801A060080B588B000AF786087
:10252C0007F1100300221A605A609A60DA607B6827
:10253C001B68154A934223D1144B9B69134A43F0F1
:10254C0008039361114B9B6903F00803FB60FB6864
:10255C00C0233B6112237B610323FB6107F1100352
:10256C0019460B4801F074FC084BDB69074A43F42D
:10257C000013D361054BDB6903F40013BB60BB682C
:10258C0000BF2037BD4680BD005400400010024003
:10259C00000C014080B582B000AF01F0C7FA00F02A
:1025AC0021F8FFF725FF00F07FF8FFF787FF00F019
:1025BC0040FB00F095FB00F09FFBFEF7BFFA786044
:1025CC007B68012B02D1FDF7DDFDF6E77B68022B62
:1025DC0002D1FEF78DF9F0E77B68062BEDD1FEF703
:1025EC005BF9EAE780B594B000AF07F12803282225
:1025FC000021184603F010FE07F1140300221A60A4
:10260C005A609A60DA601A613B1D00221A605A60A7
:10261C009A60DA600523BB624FF48033FB620023BF
:10262C003B6301237B630123BB6302237B644FF475
:10263C008033BB644FF4E013FB6407F128031846A6
:10264C0002F0E6F90346002B01D000F028F80F2326
:10265C007B610223BB610023FB614FF480633B620F
:10266C0000237B6207F114030221184602F050FC90
:10267C000346002B01D000F012F801237B604FF4CD
:10268C008073BB603B1D184602F0DEFD0346002B39
:10269C0001D000F004F800BF5037BD4680BD80B4B7
:1026AC0000AF72B6FEE7000080B586B000AF07F150
:1026BC00140300210A461A800A469A7000233B61D3
:1026CC004D4B4E4A1A604C4B4FF0FF325A604A4BFE
:1026DC0000229A60484802F029FF0346002B01D0E3
:1026EC00FFF7DDFF0023FB60454BDB69444A43F0F9
:1026FC008053D361424BDB6903F08053BB60BB68F2
:10270C0002F06EF93E4BDB693D4A43F00063D36146
:10271C003B4BDB6903F000637B607B680721364829
:10272C0003F01AFD024645F2AA539A423AD1062109
:10273C00314803F011FD0346DBB2BB7505212E4871
:10274C0003F00AFD0346DBB27B7504212A4803F033
:10275C0003FD0346DBB23B750321274803F0FCFC69
:10276C000346DBB2BB730221234803F0F5FC03469E
:10277C00DBB27B730121204803F0EEFC0346DBB295
:10278C00FB7302F039F907F11403012219461A48B8
:10279C0002F062FF07F10C0301221946164803F000
:1027AC00CBF825E010233B7510237B751023BB75EC
:1027BC0007F11403012219460F4802F04DFF03469E
:1027CC00002B01D0FFF76BFF01233B7401237B74BB
:1027DC000123BB742523FB7407F110030122194656
:1027EC00054803F0A9F80346002B01D0FFF757FF6B
:1027FC001837BD4680BD00BF0805002000280040EA
:10280C000010024080B584B000AF78607B681B6814
:10281C000F4A934218D102F0E3F80E4BDB690D4AD4
:10282C0043F00063D3610B4BDB6903F00063FB6087
:10283C00FB68094B01221A6000220021032001F0E1
:10284C00D0FA032001F0E9FA00BF1037BD4680BD75
:10285C0000280040001002403C04424280B584B085
:10286C0000AF07F10C03012219463E4802F08CFF21
:10287C0007F10803012219463A4803F013F93B7B90
:10288C00232B6AD87B7B592B67D8BB7B592B64D8FD
:10289C007B7A122B61D8BB7A312B5ED8FB7A992BC1
:1028AC005BD83B7B002B05D17B7B002B02D1BB7B08
:1028BC00002B52D002F0A0F82B4BDB692A4A43F0D4
:1028CC008053D361284BDB6903F080537B607B68BA
:1028DC0002F086F8244BDB69234A43F00063D36192
:1028EC00214BDB6903F000633B603B68002207214E
:1028FC001C4803F017FCBB7B1A460621194803F051
:10290C0011FC7B7B1A460521164803F00BFC3B7B24
:10291C001A460421134803F005FCBB7A1A4603211E
:10292C00104803F0FFFB7B7A1A4602210D4803F096
:10293C00F9FBFB7A1A4601210A4803F0F3FB45F236
:10294C00AA520721074803F0EDFB02F055F8064B9D
:10295C00DB69054A23F00063D36100BF1037BD4625
:10296C0080BD00BF080500200010024080B485B077
:10297C0000AF154B9B69144A43F001039361124B52
:10298C009B6903F00103BB60BB680F4BDB690E4A0C
:10299C0043F08053D3610C4BDB6903F080537B60B5
:1029AC007B680A4B5B68FB60FB6823F0E063FB60B1
:1029BC00FB6843F00073FB60044AFB68536000BF84
:1029CC001437BD4680BC7047001002400000014027
:1029DC0080B400AFFEE780B400AFFEE780B400AF78
:1029EC00FEE780B400AFFEE780B400AFFEE780B432
:1029FC0000AF00BFBD4680BC704780B400AF00BFC5
:102A0C00BD4680BC704780B400AF00BFBD4680BCE3
:102A1C00704780B500AF01F0CFF800BF80BD00005B
:102A2C0080B500AF024803F033FB00BF80BD00BF90
:102A3C000805002080B586B000AF7860144A154BAD
:102A4C00D31A7B617B693B61134B1B68002B02D152
:102A5C00114B124A1A60104B1A687B6813443A697E
:102A6C009A4207D203F094FB02460C2313604FF0FA
:102A7C00FF3309E0084B1B68FB60074B1A687B6847
:102A8C001344054A1360FB6818461837BD4680BDD1
:102A9C000050002000040000FC0300202809002046
:102AAC0080B400AF00BFBD4680BC70470C480D49D8
:102ABC000D4A002302E0D458C4500433C4188C428D
:102ACC00F9D30A4A0A4C002301E013600432A242F3
:102ADC00FBD3FFF7E5FF03F061FBFFF75BFD7047EE
:102AEC000000002068030020248C000868030020EC
:102AFC0024090020FEE7000080B582B000AF00235F
:102B0C00FB714FF48051334801F0FCFA0346002B63
:102B1C0010D1142001F06CF800BF4FF480512D48F7
:102B2C0001F0F0FA0346002BF7D0142001F060F806
:102B3C000123FB714FF40051264801F0E3FA0346E0
:102B4C00002B10D1142001F053F800BF4FF40051AA
:102B5C00204801F0D7FA0346002BF7D0142001F0DF
:102B6C0047F80223FB714FF480411A4801F0CAFA6E
:102B7C000346002B10D1142001F03AF800BF4FF49B
:102B8C008041144801F0BEFA0346002BF7D0142004
:102B9C0001F02EF80323FB714FF400410D4801F0B6
:102BAC00B1FA0346002B10D1142001F021F800BF1C
:102BBC004FF40041074801F0A5FA0346002BF7D06B
:102BCC00142001F015F80423FB71FB791846083723
:102BDC00BD4680BD000C014080B584B002AF78606A
:102BEC000B46FB70FB789AB24FF0FF330093134601
:102BFC007A687821034801F0EDFB00BF0837BD4629
:102C0C0080BD00BFB404002080B584B000AF034683
:102C1C00FB710023BB8100233B73FB797B7307F1B2
:102C2C000C0302211846FFF7D7FF00BF1037BD4633
:102C3C0080BD80B500AFAE20FFF7E6FF0220FFF7A6
:102C4C00E3FF1020FFF7E0FF4020FFF7DDFFB0208F
:102C5C00FFF7DAFF8120FFF7D7FFCF20FFF7D4FF74
:102C6C00A120FFF7D1FFA620FFF7CEFFA820FFF78A
:102C7C00CBFF3F20FFF7C8FFAD20FFF7C5FF8B2030
:102C8C00FFF7C2FF3320FFF7BFFFC820FFF7BCFFE1
:102C9C00D320FFF7B9FF0020FFF7B6FFD520FFF7D1
:102CAC00B3FFC020FFF7B0FFD920FFF7ADFF1F2007
:102CBC00FFF7AAFFDA20FFF7A7FF1220FFF7A4FF08
:102CCC00DB20FFF7A1FF4020FFF79EFF00F008F884
:102CDC0000F012F8AF20FFF797FF00BF80BD000097
:102CEC0080B500AF4FF480620021024803F094FAE3
:102CFC0000BF80BD1C05002080B582B000AF144B16
:102D0C0040221A700023FB711BE0FB79503BDBB2B5
:102D1C001846FFF779FF0220FFF776FF1020FFF728
:102D2C0073FF0C48FB79DB010B4A134480221946D4
:102D3C0003F067FA81210648FFF74EFFFB79013358
:102D4C00FB71FB79072BE0D900BF0837BD4680BD6E
:102D5C0000040020010400201C05002080B483B076
:102D6C0000AF0346FB710B46BB7113467B7197F9A1
:102D7C000730002B43DBBB793F2B40D87B79002BF2
:102D8C001DD1BB79DB08D8B20246FB791E49D201B2
:102D9C000A4413441B785AB2BB7903F00703012190
:102DAC0001FA03F35BB2134359B20246FB79C8B282
:102DBC001549D2010A44134402461A7020E0BB792B
:102DCC00DB08D8B20246FB790F49D2010A441344FE
:102DDC001B785AB2BB7903F00703012101FA03F304
:102DEC005BB2DB435BB2134059B20246FB79C8B20B
:102DFC000549D2010A44134402461A7000E000BF90
:102E0C000C37BD4680BC70471C05002090B482B0C6
:102E1C0000AF0446084611461A462346FB7103468A
:102E2C00BB710B467B7113463B71FB79072B60D84A
:102E3C0097F90630002B5CDB3B7D002B02D07B79B5
:102E4C00DB437B713B7C0133FF2202FA03F35AB262
:102E5C0097F9053013435AB23B79C3F10803FF21AC
:102E6C0041FA03F35BB213435BB2DAB2234B1A7031
:102E7C00FA79BB792249D2010A44134418781F4BC2
:102E8C001978FA79BB790140C8B21D49D2010A44BC
:102E9C00134402461A703B7C0133FF2202FA03F3FF
:102EAC005BB2DB435AB297F9053013405AB23B7907
:102EBC00C3F10803FF2141FA03F35BB2DB435BB2BE
:102ECC0013405BB2DAB20D4B1A70FA79BB790C492C
:102EDC00D2010A4413441878084B1978FA79BB7953
:102EEC000143C8B20649D2010A44134402461A707F
:102EFC0000E000BF0837BD4690BC7047810400203D
:102F0C001C050020B0B586B002AF04460846114639
:102F1C001A462346FB710346BB710B467B71134665
:102F2C003B71BB79DB08FB73BB7903F00703BB7305
:102F3C00BA7B3B791344082B29DD7A79BB7B02FAE7
:102F4C0003F3DAB2BC7BF979F87B97F82030019364
:102F5C00072300932346FFF759FFFB7B0133D8B2BD
:102F6C007A79BB7BC3F1080342FA03F3DCB23A79FA
:102F7C00BB7B1344DBB2093BDBB2F97997F8202019
:102F8C000192009300232246FFF740FF15E07A7967
:102F9C00BB7B02FA03F3DCB2BA7B3B791344DBB2A2
:102FAC00013BDBB2BD7BF979F87B97F820200192CD
:102FBC0000932B462246FFF729FF00BF1037BD4672
:102FCC00B0BD90B587B002AF0446084611461A460C
:102FDC002346FB710346BB710B467B7113463B7159
:102FEC00BB79DB08FB73BB7903F00703BB737A79FE
:102FFC00BB7B02FA03F3DAB2BC7BF979F87B3B7941
:10300C000193072300932346FFF700FFBB7B002BA4
:10301C0014D0FB7B0133D8B27A79BB7BC3F10803A4
:10302C0042FA03F3DCB2BB7B013BDBB2F9793A79B0
:10303C000192009300232246FFF7E8FE00BF1437ED
:10304C00BD4690BD90B587B002AF3A601A460346B4
:10305C00FB710B46BB7113467B7197F82030DB0874
:10306C003B7397F8203003F00703FB720023FB73CC
:10307C0025E00023BB731BE0FA79FB7B1344D8B229
:10308C00BB7BDB00DAB2BB791344DCB2FA7BBB7BD3
:10309C00797901FB03F313441A463B6813441A78FD
:1030AC0097F824302146FFF78CFFBB7B0133BB73B1
:1030BC00BA7B3B7B9A42DFD3FB7B0133FB73FA7BFE
:1030CC007B799A42D5D3FB7A002B28D07B799BB2A3
:1030DC003A7B92B202FB03F33B8100237B731AE031
:1030EC00FA797B7B1344D8B23B7BDB00DAB2BB7939
:1030FC001344D9B23A897B7B13441A463B68134478
:10310C001A78FC7A97F8243000932346FFF7FAFEDE
:10311C007B7B01337B737A7B7B799A42E0D300BF54
:10312C001437BD4690BD90B587B002AF3A601A46D1
:10313C000346FB710B46BB7113467B7197F820302D
:10314C00DB083B7397F8203003F00703FB72002376
:10315C00FB7325E00023BB731BE0FA79FB7B134464
:10316C00D8B2BB7BDB00DAB2BB791344DCB2FA7B9E
:10317C00BB7B797901FB03F313441A463B68134478
:10318C001A7897F828302146FFF71BFFBB7B0133D9
:10319C00BB73BA7B3B7B9A42DFD3FB7B0133FB7364
:1031AC00FA7B7B799A42D5D3FB7A002B28D07B799A
:1031BC009BB23A7B92B202FB03F33B8100237B73FD
:1031CC001AE0FA797B7B1344D8B23B7BDB00DAB292
:1031DC00BB791344D9B23A897B7B13441A463B68BA
:1031EC0013441A78FC7A97F8283000932346FFF79B
:1031FC0089FE7B7B01337B737A7B7B799A42E0D3AC
:10320C0000BF1437BD4690BD90B587B000AF0446E3
:10321C00084611461A462346FB710346BB710B4602
:10322C007B7113463B71FA797B799A421DD1BA793D
:10323C003B799A4207D9684ABB7913703B79BB71C9
:10324C00654B1B783B71BB79FB7509E097F828201F
:10325C00F97DFB791846FFF781FDFB7D0133FB758A
:10326C00FA7D3B799A42F1D9B2E0BA793B799A422C
:10327C001DD1FA797B799A4207D9574AFB79137099
:10328C007B79FB71544B1B787B71FB79BB7509E027
:10329C0097F82820B979BB7D1846FFF75FFDBB7DF9
:1032AC000133BB75BA7D7B799A42F1D990E07B7979
:1032BC009AB2FB799BB2D31A9BB2FB813B799AB23F
:1032CC00BB799BB2D31A9BB2BB81B7F90E30002BE2
:1032DC0001DD012301E04FF0FF337B81B7F90C30A6
:1032EC00002B01DD012301E04FF0FF333B81FB7923
:1032FC00BB82BB797B8200233B82B7F90E30002B5B
:10330C00B8BF5B42FB81B7F90C30002BB8BF5B42F6
:10331C00BB81B7F90E20B7F90C309A422CDDFB7942
:10332C00BB8223E0BB8ADBB27A8AD1B297F8282021
:10333C001846FFF713FD3A8ABB8913449BB23B82B4
:10334C00B7F910305A00B7F90E309A4209DB7A8A75
:10335C003B8913449BB27B823A8AFB89D31A9BB27A
:10336C003B82BA8A7B8913449BB2BB82B7F9142087
:10337C007B799A42D6D12BE0BB797B8223E0BB8A46
:10338C00DBB27A8AD1B297F828201846FFF7E6FC10
:10339C003A8AFB8913449BB23B82B7F910305A002E
:1033AC00B7F90C309A4209DBBA8A7B8913449BB279
:1033BC00BB823A8ABB89D31A9BB23B827A8A3B89FD
:1033CC0013449BB27B82B7F912203B799A42D6D137
:1033DC0000BF1C37BD4690BD8204002090B585B05F
:1033EC0002AF0446084611461A462346FB710346B3
:1033FC00BB710B467B7113463B71FA797B79134495
:10340C00DAB2BC79B979F8793B7E00932346FFF7A1
:10341C00FBFEBA793B791344D9B2FA797B79134420
:10342C00DCB2BA793B791344DAB2F8793B7E00937B
:10343C0013462246FFF7E8FEBA793B791344DCB217
:10344C00FA79B979F8793B7E00932346FFF7DCFED5
:10345C00FA797B791344D8B2FA797B791344DCB2CC
:10346C00BA793B791344DAB2B9793B7E00931346AF
:10347C002246FFF7C9FE00BF0C37BD4690BD90B584
:10348C0087B002AF0446084611461A462346FB7124
:10349C000346BB710B467B7113463B710023FB73D8
:1034AC0016E0BA79FB7B1344D9B2FA797B791344D1
:1034BC00DCB2BA79FB7B1344DAB2F87997F8203096
:1034CC00009313462246FFF79FFEFB7B0133FB73F1
:1034DC00FA7B3B799A42E4D300BF1437BD4690BDCA
:1034EC0090B585B000AF0446084611461A462346EF
:1034FC00FB710346BB710B467B7113463B7100237A
:10350C00FB817B79BB817B799BB25B009BB2C3F166
:10351C0003039BB27B81B3E0BB89DBB2FA79D31A8C
:10352C00D8B2FB89DBB2BA79D31ADBB23A79194635
:10353C00FFF714FCBB89DAB2FB791344D8B2FB89D0
:10354C00DBB2BA79D31ADBB23A791946FFF706FC2B
:10355C00FB89DBB2FA79D31AD8B2BB89DAB2BB7960
:10356C001344DBB23A791946FFF7F8FBBB89DBB29F
:10357C00FA79D31AD8B2FB89DBB2BA79D31ADBB297
:10358C003A791946FFF7EAFBFB89DBB2FA79D31AD1
:10359C00D8B2BB89DBB2BA79D31ADBB23A79194605
:1035AC00FFF7DCFBBB89DAB2FB791344D8B2FB8999
:1035BC00DAB2BB791344DBB23A791946FFF7CEFB8A
:1035CC00FB89DAB2FB791344D8B2BB89DBB2BA7986
:1035DC00D31ADBB23A791946FFF7C0FBFB89DAB292
:1035EC00FB791344D8B2BB89DAB2BB791344DBB292
:1035FC003A791946FFF7B2FBBB89DBB2FA79D31AD9
:10360C00D8B2FB89DAB2BB791344DBB23A791946EA
:10361C00FFF7A4FBB7F90E309BB201339BB2FB81D1
:10362C00B7F90A30002B09DAFB899B009AB27B8927
:10363C0013449BB206339BB27B8113E0B7F90E2087
:10364C00B7F90C30D31A9BB29B009AB27B89134406
:10365C009BB20A339BB27B81B7F90C309BB2013B16
:10366C009BB2BB81FB89DAB2FB791344D8B2BB891C
:10367C00DAB2BB791344DBB23A791946FFF76EFB29
:10368C00B7F90E20B7F90C309A427FF745AF00BF5F
:10369C001437BD4690BDB0B584B002AF3A601A463F
:1036AC000346FB710B46BB7113467B713B685C6830
:1036BC003B681D783B685B78B979F8797A79019227
:1036CC0000932B462246FFF7BDFC00BF0837BD46D2
:1036DC00B0BDB0B584B002AF3B600346FB710B4686
:1036EC00BB7113467B713B685A687B79A3F120014F
:1036FC003B681B780733002B00DA0733DB101846C6
:10370C003B685B7803FB00F303FB01F3D4183B68C5
:10371C005D783B681B78B979F8793A7E0192009311
:10372C002B462246FFF78EFC00BF0837BD46B0BDC6
:10373C00B0B584B002AF3B600346FB710B46BB7166
:10374C0013467B71BA793B7E1344DCB23B685A68F2
:10375C007B79A3F120013B681B780733002B00DA3F
:10376C000733DB1018463B685B7803FB00F303FB65
:10377C0001F3D1183B685D783B681A783B7ED31A0D
:10378C00DBB2F8793A7F019200932B460A46214628
:10379C00FFF758FC00BF0837BD46B0BDB0B586B0CA
:1037AC0004AF3B600346FB710B46BB7113467B7148
:1037BC00BA793B7E1344DBB20F3BDCB23B685A68F0
:1037CC007B79A3F120013B681B780733002B00DACF
:1037DC000733DB1018463B685B7803FB00F303FBF5
:1037EC0001F3D1183B685D783B681B78F8793A7F18
:1037FC0002923A7E019200932B460A462146FFF72D
:10380C0092FC00BF0837BD46B0BD80B588B002AF92
:10381C00BA607B600346FB730B46BB73FB7BFB758B
:10382C0011E0BB681A78B97BF87D97F820300093CB
:10383C007B68FFF74EFF7B685A78FB7D1344FB7562
:10384C00BB680133BB60BB681B78002BE9D100BFA0
:10385C001837BD4680BD80B588B002AFBA607B60BA
:10386C000346FB730B46BB73FB7BFB7514E0BB6819
:10387C001A78B97BF87D97F82430019397F82030AB
:10388C0000937B68FFF754FF7B685A78FB7D1344E9
:10389C00FB75BB680133BB60BB681B78002BE6D1A2
:1038AC0000BF1837BD4680BD80B588B002AFBA6086
:1038BC007B600346FB730B46BB73FB7BFB7514E011
:1038CC00BB681A78B97BF87D97F82430019397F888
:1038DC00203000937B68FFF761FF7B685A78FB7D93
:1038EC001344FB75BB680133BB60BB681B78002BB2
:1038FC00E6D100BF1837BD4680BD80B483B000AFA1
:10390C0078607B681B785BB2002B01DB012318E02D
:10391C007B681B7803F0E003C02B01D1022310E07D
:10392C007B681B7803F0F003E02B01D1032308E044
:10393C007B681B7803F0F803F02B01D1042300E023
:10394C00002318460C37BD4680BC7047B0B58AB012
:10395C0002AFBA607B600346FB730B46BB7300235C
:10396C00FB837B681B780733002B00DA0733DB10F3
:10397C00DBB27A68527802FB03F3DBB20433FB76DA
:10398C007DE000237B77FB8BBA6813441846FFF766
:10399C00B4FF0346BB76BB7E002B78D000233B776D
:1039AC0032E07B685B683A7FF97E01FB02F21344DC
:1039BC007B61FB8BBA681344BA7E7969184602F0B6
:1039CC0011FC0346002B1CD17B691C1D7B685D78A8
:1039DC007B681B78B97BF87B97F8302001920093B9
:1039EC002B462246FFF72EFB7B685A78FB7B134451
:1039FC00FB73BB7E9AB2FB8B1344FB8301237B7757
:103A0C0007E03B7F01333B777B681B7A3A7F9A4216
:103A1C00C7D37B7F002B32D1BB7E012B19D1FB8B03
:103A2C00BA6813441A787B68DC68B97BF87B97F822
:103A3C00303000932346FFF74CFE7B68DB685A78E6
:103A4C00FB7B1344FB73BB7E9AB2FB8B1344FB834F
:103A5C0015E07B68DA68B97BF87B97F83030009317
:103A6C0013462022FFF735FE7B68DB685A78FB7B18
:103A7C001344FB73BB7E9AB2FB8B1344FB83FB8B0F
:103A8C00BA6813441B78002B7FF47BAF00E000BFB7
:103A9C0000BF2037BD46B0BD80B483B000AF034635
:103AAC000A46FB801346BB80B7F90630002B35DB8A
:103ABC00B7F906307F2B31DCB7F90430002B2DDB46
:103ACC00B7F904303F2B29DCB7F90430002B00DAAE
:103ADC000733DB1018B20246B7F906301249D2018F
:103AEC000A4413441B785AB2B7F90430594203F014
:103AFC00070301F0070158BF4B421BB219460123C3
:103B0C008B405BB2134359B20246B7F90630C8B2C8
:103B1C000549D2010A44134402461A7000BF0C37FF
:103B2C00BD4680BC704700BF1C05002080B500AFAF
:103B3C00084B1B68074A43F010031360032000F086
:103B4C0045F9002000F008F8FEF710FF0023184696
:103B5C0080BD00BF0020024080B582B000AF78600D
:103B6C00124B1A68124B1B7819464FF47A73B3FB3D
:103B7C00F1F3B2FBF3F3184600F05DF90346002BAA
:103B8C0001D001230EE07B680F2B0AD80022796844
:103B9C004FF0FF3000F025F9064A7B6813600023D4
:103BAC0000E0012318460837BD4680BDF002002016
:103BBC0000030020FC02002080B400AF054B1B78F2
:103BCC001A46054B1B681344034A136000BFBD46DD
:103BDC0080BC7047000300201C09002080B400AF9B
:103BEC00024B1B681846BD4680BC70471C09002060
:103BFC0080B584B000AF7860FFF7F0FFB8607B68E9
:103C0C00FB60FB68B3F1FF3F05D0094B1B781A46EC
:103C1C00FB681344FB6000BFFFF7E0FF0246BB6884
:103C2C00D31AFA689A42F7D800BF1037BD4680BD48
:103C3C000003002080B485B000AF78607B6803F08F
:103C4C000703FB600C4BDB68BB60BA684FF6FF03E5
:103C5C001340BB60FB681A02BB68134343F0BF639D
:103C6C0043F40033BB60044ABB68D36000BF143715
:103C7C00BD4680BC704700BF00ED00E080B400AFD3
:103C8C00044BDB681B0A03F007031846BD4680BCD7
:103C9C00704700BF00ED00E080B483B000AF034676
:103CAC00FB7197F90730002B0BDBFB7903F01F023C
:103CBC00064997F907305B09012000FA02F241F836
:103CCC00232000BF0C37BD4680BC704700E100E0EC
:103CDC0080B483B000AF03463960FB7197F90730AD
:103CEC00002B0ADB3B68DAB20C4997F9073012015A
:103CFC00D2B20B4483F800230AE03B68DAB20849DD
:103D0C00FB7903F00F03043B1201D2B20B441A7679
:103D1C0000BF0C37BD4680BC704700BF00E100E01F
:103D2C0000ED00E080B489B000AFF860B9607A6053
:103D3C00FB6803F00703FB61FB69C3F10703042B6A
:103D4C0028BF0423BB61FB690433062B02D9FB6932
:103D5C00033B00E000237B614FF0FF32BB6902FAAA
:103D6C0003F3DA43BB681A407B699A404FF0FF318A
:103D7C007B6901FA03F3D9437B680B401343184664
:103D8C002437BD4680BC704780B582B000AF7860E8
:103D9C007B68013BB3F1807F01D301230FE00A4A1A
:103DAC007B68013B53600F214FF0FF30FFF790FF12
:103DBC00054B00229A60044B07221A600023184618
:103DCC000837BD4680BD00BF10E000E080B582B072
:103DDC0000AF78607868FFF72DFF00BF0837BD464D
:103DEC0080BD80B586B000AF0346B9607A60FB73C6
:103DFC0000237B61FFF742FF78617A68B9687869C4
:103E0C00FFF790FF024697F90F3011461846FFF75F
:103E1C005FFF00BF1837BD4680BD80B582B000AFD4
:103E2C000346FB7197F907301846FFF735FF00BFC3
:103E3C000837BD4680BD80B582B000AF7860786829
:103E4C00FFF7A2FF034618460837BD4680BD0000A9
:103E5C0080B48BB000AF7860396000237B620023A4
:103E6C003B6227E101227B6A02FA03F3FB613B68A8
:103E7C001B68FA691340BB61BA69FB699A4240F04E
:103E8C0016813B685B68122B34D0122B0DD8022B99
:103E9C002BD0022B04D8002B31D0012B1CD048E0A6
:103EAC00032B43D0112B1BD043E0894A934226D0DD
:103EBC00874A934206D8874A934220D0864A934237
:103ECC001DD036E0854A934219D0854A934216D0CC
:103EDC00844A934213D02CE03B68DB683B6228E0B9
:103EEC003B68DB6804333B6223E03B68DB680833E8
:103EFC003B621EE03B68DB680C333B6219E03B68BD
:103F0C009B68002B02D104233B6212E03B689B6848
:103F1C00012B05D108233B627B68FA691A6108E022
:103F2C0008233B627B68FA695A6102E000233B621A
:103F3C0000BFBB69FF2B01D87B6801E07B680433B1
:103F4C007B61BB69FF2B02D87B6A9B0002E07B6A1A
:103F5C00083B9B003B617B691A680F213B6901FAA6
:103F6C0003F3DB431A40396A3B6901FA03F31A4342
:103F7C007B691A603B685B6803F08053002B00F090
:103F8C009680594B9B69584A43F001039361564BF9
:103F9C009B6903F00103BB60BB68544A7B6A9B08B6
:103FAC00023352F82330FB607B6A03F003039B005F
:103FBC000F2202FA03F3DB43FA681340FB607B68C1
:103FCC004B4A934213D07B684A4A93420DD07B688C
:103FDC00494A934207D07B68484A934201D1032354
:103FEC0006E0042304E0022302E0012300E00023A6
:103FFC007A6A02F0030292009340FA681343FB6062
:10400C003A497B6A9B080233FA6841F823203B68E3
:10401C005B6803F48033002B06D0394B1A6838499F
:10402C00BB6913430B6006E0354B1A68BB69DB4375
:10403C00334913400B603B685B6803F40033002B7F
:10404C0006D02F4B5A682E49BB6913434B6006E0D0
:10405C002B4B5A68BB69DB43294913404B603B68C7
:10406C005B6803F48013002B06D0254B9A68244917
:10407C00BB6913438B6006E0214B9A68BB69DB4339
:10408C001F4913408B603B685B6803F40013002BE3
:10409C0006D01B4BDA681A49BB691343CB6006E0A8
:1040AC00174BDA68BB69DB4315491340CB607B6A5D
:1040BC0001337B623B681A687B6A22FA03F3002B9C
:1040CC007FF4D0AE00BF2C37BD4680BC704700BF1C
:1040DC00000021100000111000001210000031101F
:1040EC0000003210000022100010024000000140BD
:1040FC0000080140000C0140001001400014014078
:10410C000004014080B485B000AF78600B467B8022
:10411C007B689A687B881340002B02D00123FB73C9
:10412C0001E00023FB73FB7B18461437BD4680BCB3
:10413C00704780B483B000AF78600B467B80134629
:10414C007B707B78002B03D07A887B681A6103E044
:10415C007B881A047B681A6100BF0C37BD4680BC93
:10416C007047000080B584B000AF78607B68002B8E
:10417C0001D101231FE17B6893F83D30DBB2002BAA
:10418C0006D17B68002283F83C207868FEF7C4F9DE
:10419C007B68242283F83D207B681B681A687B6847
:1041AC001B6822F001021A607B681B681A687B6826
:1041BC001B6842F400421A607B681B681A687B68B3
:1041CC001B6822F400421A6000F0F8FFF8607B686C
:1041DC005B687B4A934207D8FB687A4A934294BF48
:1041EC0001230023DBB206E0FB68774A934294BFBD
:1041FC0001230023DBB2002B01D00123DBE0FB68A1
:10420C00724AA2FB03239B0CBB607B681B685B6838
:10421C0023F03F017B681B68BA680A435A607B68CD
:10422C001B681B6A23F03F017B685B68644A9342FE
:10423C0002D8BB68013309E0BB684FF4967202FBED
:10424C0003F3634AA2FB03239B0901337A681268C8
:10425C000B4313627B681B68DB6923F44F4222F02B
:10426C00FF027B685B6856498B420DD8FB68591E70
:10427C007B685B685B00B1FBF3F30133C3F30B03A7
:10428C00042B38BF04234FE07B689B68002B11D1B3
:10429C00FB68581E7B6859680B465B000B44B0FBEF
:1042AC00F3F30133C3F30B03002B0CBF01230023E7
:1042BC00DBB212E0FB68581E7B6859680B469B000A
:1042CC000B4499000B44B0FBF3F30133C3F30B0322
:1042DC00002B0CBF01230023DBB2002B01D00123E8
:1042EC0022E07B689B68002B0ED1FB68581E7B6814
:1042FC0059680B465B000B44B0FBF3F30133C3F37B
:10430C000B0343F400430FE0FB68581E7B685968AD
:10431C000B469B000B4499000B44B0FBF3F30133A9
:10432C00C3F30B0343F44043796809681343CB612F
:10433C007B681B681B6823F0C0017B68DA697B68AB
:10434C001B6A1A437B681B680A431A607B681B68EC
:10435C009B6823F4034323F0FF037A6811697A689E
:10436C00D26811437A6812680B4393607B681B68B0
:10437C00DB6823F0FF017B685A697B689B691A43F1
:10438C007B681B680A43DA607B681B681A687B6869
:10439C001B6842F001021A607B6800221A647B6879
:1043AC00202283F83D207B6800221A637B68002260
:1043BC0083F83E20002318461037BD4680BD00BF51
:1043CC00A08601007F841E00FF083D0083DE1B4396
:1043DC00D34D621080B588B002AFF8607A601A468F
:1043EC000B467B8113463B81FFF7F8FB7861FB683A
:1043FC0093F83D30DBB2202B40F0E0807B690093DA
:10440C00192301227049F86800F064F90346002B67
:10441C0001D00223D3E0FB6893F83C30012B01D18F
:10442C000223CCE0FB68012283F83C20FB681B686C
:10443C001B6803F00103012B07D0FB681B681A688B
:10444C00FB681B6842F001021A60FB681B681A6863
:10445C00FB681B6822F400621A60FB68212283F857
:10446C003D20FB68102283F83E20FB6800221A6472
:10447C00FB687A685A62FB683A895A85FB685B8DDF
:10448C009AB2FB681A85FB68504ADA6279897B69B3
:10449C003A6AF86800F09CF80346002B01D001231F
:1044AC008DE000233B61FB681B685B693B61FB682B
:1044BC001B689B693B613B6966E07A69396AF868FD
:1044CC0000F0DEF90346002B0DD0FB681B6C042BAF
:1044DC0007D1FB681B681A68FB681B6842F4007202
:1044EC001A6001236BE0FB685B6A1A78FB681B6837
:1044FC001A61FB685B6A5A1CFB685A62FB685B8D2D
:10450C009BB2013B9AB2FB685A85FB681B8D013B41
:10451C009AB2FB681A85FB681B685B6903F004039D
:10452C00042B1BD1FB681B8D002B17D0FB685B6A1F
:10453C001A78FB681B681A61FB685B6A5A1CFB687B
:10454C005A62FB685B8D9BB2013B9AB2FB685A8541
:10455C00FB681B8D013B9AB2FB681A857A69396A34
:10456C00F86800F0CEF90346002B0DD0FB681B6CED
:10457C00042B07D1FB681B681A68FB681B6842F4A4
:10458C0000721A6001231AE0FB681B8D002B94D17A
:10459C00FB681B681A68FB681B6842F400721A609F
:1045AC00FB68202283F83D20FB68002283F83E2024
:1045BC00FB68002283F83C20002300E0022318460D
:1045CC001837BD4680BD00BF020010000000FFFF81
:1045DC0080B588B002AFF8607A603B600B467B8197
:1045EC00FB68DB6A7B617B69082B06D07B69012B3E
:1045FC0003D07B6913F5803F08D1FB681B681A68F0
:10460C00FB681B6842F480721A600BE0FB681B6B42
:10461C00122B07D1FB681B681A68FB681B6842F4F5
:10462C0080721A603B6800937B6800224FF0011186
:10463C00F86800F04FF80346002B0DD0FB681B68A0
:10464C001B6803F48073B3F5807F03D1FB684FF4D0
:10465C0000721A64032335E0FB681B69B3F5804FC5
:10466C0008D17B89DBB21A46FB681B6802F0FE029C
:10467C001A611BE07B89DB11DBB203F00603DBB2B2
:10468C0063F00F03DAB2FB681B681A613B687A6847
:10469C000E49F86800F075F80346002B01D0012391
:1046AC0010E07B89DAB2FB681B681A613B687A6898
:1046BC000749F86800F065F80346002B01D0012388
:1046CC0000E0002318461837BD4680BD08000100E5
:1046DC000200010080B584B000AFF860B9603B60A7
:1046EC001346FB7125E03B68B3F1FF3F21D0FFF788
:1046FC0075FA0246BB69D31A3A689A4202D33B68F0
:10470C00002B16D1FB6800221A63FB68202283F869
:10471C003D20FB68002283F83E20FB681B6C43F0B5
:10472C002002FB681A64FB68002283F83C200123FA
:10473C0023E0BB681B0CDBB2012B0DD1FB681B68A3
:10474C005B69DA43BB6813409BB2002B0CBF01239F
:10475C000023DBB21A460CE0FB681B689B69DA434A
:10476C00BB6813409BB2002B0CBF01230023DBB2B0
:10477C001A46FB799A42B6D0002318461037BD462C
:10478C0080BD80B584B000AFF860B9607A603B60E2
:10479C0051E0FB681B685B6903F48063B3F5806FC1
:1047AC0023D1FB681B681A68FB681B6842F4007213
:1047BC001A60FB681B686FF480625A61FB68002208
:1047CC001A63FB68202283F83D20FB68002283F8E3
:1047DC003E20FB681B6C43F00402FB681A64FB6808
:1047EC00002283F83C20012346E07B68B3F1FF3FB5
:1047FC0021D0FFF7F3F902463B68D31A7A689A4244
:10480C0002D37B68002B16D1FB6800221A63FB686D
:10481C00202283F83D20FB68002283F83E20FB68B1
:10482C001B6C43F02002FB681A64FB68002283F8BF
:10483C003C20012320E0BB681B0CDBB2012B0CD10C
:10484C00FB681B685B69DA43BB6813409BB2002BA7
:10485C0014BF01230023DBB20BE0FB681B689B69D0
:10486C00DA43BB6813409BB2002B14BF0123002317
:10487C00DBB2002B8DD1002318461037BD4680BD0E
:10488C0080B584B000AFF860B9607A602DE0F8684C
:10489C0000F078F80346002B01D001232DE0BB6813
:1048AC00B3F1FF3F21D0FFF799F902467B68D31A89
:1048BC00BA689A4202D3BB68002B16D1FB6800225F
:1048CC001A63FB68202283F83D20FB68002283F8E2
:1048DC003E20FB681B6C43F02002FB681A64FB68EB
:1048EC00002283F83C20012307E0FB681B685B690E
:1048FC0003F08003802BCAD1002318461037BD4625
:10490C0080BD80B584B000AFF860B9607A602DE0EE
:10491C00F86800F037F80346002B01D001232DE096
:10492C00BB68B3F1FF3F21D0FFF758F902467B6813
:10493C00D31ABA689A4202D3BB68002B16D1FB6813
:10494C0000221A63FB68202283F83D20FB680022BA
:10495C0083F83E20FB681B6C43F02002FB681A6452
:10496C00FB68002283F83C20012307E0FB681B68EE
:10497C005B6903F00403042BCAD1002318461037DB
:10498C00BD4680BD80B483B000AF78607B681B6887
:10499C005B6903F48063B3F5806F1BD17B681B6884
:1049AC006FF480625A617B6800221A637B68202254
:1049BC0083F83D207B68002283F83E207B681B6CCB
:1049CC0043F004027B681A647B68002283F83C2065
:1049DC00012300E0002318460C37BD4680BC70470D
:1049EC0080B400AF034B01221A6000BFBD4680BCEF
:1049FC00704700BF20000E4280B400AF034B002272
:104A0C001A6000BFBD4680BC704700BF20000E423C
:104A1C0080B586B000AF78607B68002B01D1012394
:104A2C006CE27B681B6803F00103002B00F08780AD
:104A3C00924B5B6803F00C03042B0CD08F4B5B6820
:104A4C0003F00C03082B12D18C4B5B6803F48033FE
:104A5C00B3F5803F0BD1894B1B6803F40033002B5B
:104A6C006CD07B685B68002B68D1012346E27B68C5
:104A7C005B68B3F5803F06D1804B1B687F4A43F4DB
:104A8C00803313602EE07B685B68002B0CD17B4B72
:104A9C001B687A4A23F480331360784B1B68774A7F
:104AAC0023F4802313601DE07B685B68B3F5A02FB3
:104ABC000CD1724B1B68714A43F4802313606F4B0B
:104ACC001B686E4A43F4803313600BE06B4B1B681E
:104ADC006A4A23F480331360684B1B68674A23F4DB
:104AEC00802313607B685B68002B13D0FFF776F88C
:104AFC00386108E0FFF772F802463B69D31A642B61
:104B0C0001D90323FAE15D4B1B6803F40033002B3E
:104B1C00F0D014E0FFF762F8386108E0FFF75EF8B8
:104B2C0002463B69D31A642B01D90323E6E1534BAC
:104B3C001B6803F40033002BF0D100E000BF7B684E
:104B4C001B6803F00203002B63D04C4B5B6803F033
:104B5C000C03002B0BD0494B5B6803F00C03082BA8
:104B6C001CD1464B5B6803F48033002B16D1434BAE
:104B7C001B6803F00203002B05D07B681B69012B1B
:104B8C0001D00123BAE13D4B1B6823F0F8027B688E
:104B9C005B69DB00394913430B603AE07B681B69A6
:104BAC00002B20D0364B01221A60FFF717F8386122
:104BBC0008E0FFF713F802463B69D31A022B01D920
:104BCC0003239BE12D4B1B6803F00203002BF0D059
:104BDC002A4B1B6823F0F8027B685B69DB002749D2
:104BEC0013430B6015E0264B00221A60FEF7F6FF0C
:104BFC00386108E0FEF7F2FF02463B69D31A022B3C
:104C0C0001D903237AE11D4B1B6803F00203002B2F
:104C1C00F0D17B681B6803F00803002B3AD07B684B
:104C2C009B69002B19D0174B01221A60FEF7D6FF97
:104C3C00386108E0FEF7D2FF02463B69D31A022B1B
:104C4C0001D903235AE10D4B5B6A03F00203002BDD
:104C5C00F0D0012000F0DAFA1CE00A4B00221A60B6
:104C6C00FEF7BCFF38610FE0FEF7B8FF02463B6968
:104C7C00D31A022B08D9032340E100BF00100240D5
:104C8C0000004242800442429E4B5B6A03F00203E6
:104C9C00002BE9D17B681B6803F00403002B00F0A8
:104CAC00A6800023FB75974BDB6903F08053002B28
:104CBC000DD1944BDB69934A43F08053D361914BF4
:104CCC00DB6903F08053BB60BB680123FB758E4B23
:104CDC001B6803F48073002B18D18B4B1B688A4A1A
:104CEC0043F480731360FEF779FF386108E0FEF738
:104CFC0075FF02463B69D31A642B01D90323FDE0EF
:104D0C00814B1B6803F48073002BF0D07B68DB684D
:104D1C00012B06D17B4B1B6A7A4A43F001031362C9
:104D2C002DE07B68DB68002B0CD1764B1B6A754A37
:104D3C0023F001031362734B1B6A724A23F00403C2
:104D4C0013621CE07B68DB68052B0CD16D4B1B6A76
:104D5C006C4A43F0040313626A4B1B6A694A43F0C2
:104D6C00010313620BE0674B1B6A664A23F00103D5
:104D7C001362644B1B6A634A23F0040313627B685F
:104D8C00DB68002B15D0FEF729FF38610AE0FEF72F
:104D9C0025FF02463B69D31A41F28832934201D96E
:104DAC000323ABE0574B1B6A03F00203002BEED03E
:104DBC0014E0FEF713FF38610AE0FEF70FFF02461E
:104DCC003B69D31A41F28832934201D9032395E00F
:104DDC004C4B1B6A03F00203002BEED1FB7D012B25
:104DEC0005D1484BDB69474A23F08053D3617B687C
:104DFC00DB69002B00F08180424B5B6803F00C03F5
:104E0C00082B61D07B68DB69022B46D13F4B00221B
:104E1C001A60FEF7E3FE386108E0FEF7DFFE02469B
:104E2C003B69D31A022B01D9032367E0354B1B686E
:104E3C0003F00073002BF0D17B681B6AB3F5803F45
:104E4C0008D1304B5B6823F400327B689B682D499A
:104E5C0013434B602B4B5B6823F474127B68196A09
:104E6C007B685B6A0B43274913434B60274B01223A
:104E7C001A60FEF7B3FE386108E0FEF7AFFE02469B
:104E8C003B69D31A022B01D9032337E01D4B1B6856
:104E9C0003F00073002BF0D02FE01C4B00221A60A3
:104EAC00FEF79CFE386108E0FEF798FE02463B696F
:104EBC00D31A022B01D9032320E0124B1B6803F0F9
:104ECC000073002BF0D118E07B68DB69012B01D15A
:104EDC00012313E00B4B5B68FB60FB6803F480322F
:104EEC007B681B6A9A4206D1FB6803F470127B68DC
:104EFC005B6A9A4201D0012300E000231846183760
:104F0C00BD4680BD0010024000700040600042426F
:104F1C0080B584B000AF786039607B68002B01D11C
:104F2C000123D0E06A4B1B6803F007033A689A42EE
:104F3C0010D9674B1B6823F0070265493B68134384
:104F4C000B60634B1B6803F007033A689A4201D06D
:104F5C000123B8E07B681B6803F00203002B20D010
:104F6C007B681B6803F00403002B05D0594B5B686E
:104F7C00584A43F4E06353607B681B6803F00803F2
:104F8C00002B05D0534B5B68524A43F4605353607B
:104F9C00504B5B6823F0F0027B689B684D491343D0
:104FAC004B607B681B6803F00103002B40D07B68CF
:104FBC005B68012B07D1474B1B6803F40033002BB4
:104FCC0015D101237FE07B685B68022B07D1414B35
:104FDC001B6803F00073002B09D1012373E03D4BD8
:104FEC001B6803F00203002B01D101236BE0394B4A
:104FFC005B6823F003027B685B68364913434B60A4
:10500C00FEF7ECFDF8600AE0FEF7E8FD0246FB68EF
:10501C00D31A41F28832934201D9032353E02D4B2A
:10502C005B6803F00C027B685B689B009A42EBD1D7
:10503C00274B1B6803F007033A689A4210D2244BA3
:10504C001B6823F0070222493B6813430B60204B7B
:10505C001B6803F007033A689A4201D0012332E03F
:10506C007B681B6803F00403002B08D0194B5B68AA
:10507C0023F4E0627B68DB68164913434B607B6862
:10508C001B6803F00803002B09D0124B5B6823F458
:10509C0060527B681B69DB000E4913434B6000F0C8
:1050AC0021F801460B4B5B681B0903F00F030A4AFE
:1050BC00D35C21FA03F3094A1360094B1B681846A9
:1050CC00FEF74AFD002318461037BD4680BD00BFD1
:1050DC000020024000100240286E0008F002002060
:1050EC00FC02002090B48AB000AF2A4B3C1D0FCBC1
:1050FC0084E80F00284B1B883B800023FB610023B6
:10510C00BB6100237B6200237B6100233B62234B4A
:10511C005B68FB61FB6903F00C03042B02D0082BCA
:10512C0003D02DE01E4B3B622DE0FB699B0C03F082
:10513C000F0307F12802134413F8243C7B61FB692D
:10514C0003F48033002B13D0144B5B685B0C03F01F
:10515C00010307F12802134413F8283CBB617B6957
:10516C000F4A02FB03F2BB69B2FBF3F37B6204E070
:10517C007B690C4A02FB03F37B627B6A3B6202E0B5
:10518C00074B3B6200BF3B6A18462837BD4690BCB4
:10519C00704700BF386C0008486C000800100240D3
:1051AC0000127A0000093D0080B400AF024B1B686E
:1051BC001846BD4680BC7047F002002080B500AF99
:1051CC00FFF7F2FF0146054B5B681B0A03F0070370
:1051DC00034AD35C21FA03F3184680BD0010024049
:1051EC00386E000880B500AFFFF7DEFF0146054BB7
:1051FC005B68DB0A03F00703034AD35C21FA03F371
:10520C00184680BD00100240386E000880B485B08E
:10521C0000AF78600A4B1B680A4AA2FB03235B0AA7
:10522C007A6802FB03F3FB6000BFFB685A1EFA604E
:10523C00002BF9D100BF1437BD4680BC704700BFAE
:10524C00F0020020D34D621080B586B000AF7860BC
:10525C0000233B610023FB607B681B6803F00103A8
:10526C00002B7DD00023FB754F4BDB6903F0805383
:10527C00002B0DD14C4BDB694B4A43F08053D3616F
:10528C00494BDB6903F08053BB60BB680123FB75A2
:10529C00464B1B6803F48073002B18D1434B1B68DF
:1052AC00424A43F480731360FEF798FC386108E0BF
:1052BC00FEF794FC02463B69D31A642B01D90323F5
:1052CC006DE03A4B1B6803F48073002BF0D0364B27
:1052DC001B6A03F44073FB60FB68002B2ED07B68C9
:1052EC005B6803F44073FA689A4227D02E4B1B6A12
:1052FC0023F44073FB602E4B01221A602C4B0022CE
:10530C001A60294AFB681362FB6803F00103002B47
:10531C0014D0FEF763FC38610AE0FEF75FFC02462E
:10532C003B69D31A41F28832934201D9032336E008
:10533C001D4B1B6A03F00203002BEED01A4B1B6AA9
:10534C0023F440727B685B68174913430B62FB7D47
:10535C00012B05D1144BDB69134A23F08053D36125
:10536C007B681B6803F00203002B08D00E4B5B68B4
:10537C0023F440427B689B680B4913434B607B686A
:10538C001B6803F01003002B08D0074B5B6823F459
:10539C0080027B68DB68044913434B60002318468A
:1053AC001837BD4680BD00BF0010024000700040A1
:1053BC004004424290B58DB000AF7860554B07F178
:1053CC000C040FCB84E80F00534B1B883B8100234C
:1053DC007B620023FB6200233B620023FB61002302
:1053EC00BB627B68022B7FD0102B02D0012B48D0E4
:1053FC008BE04A4B5B68FB61484B1B6803F0807386
:10540C00002B7FD0FB699B0C03F00F0307F13002DC
:10541C00134413F8243C3B62FB6903F48033002BE8
:10542C0018D03E4B5B685B0C03F0010307F13002B4
:10543C00134413F8283C7B62FB6903F48033002B84
:10544C000DD0374A7B6AB2FBF3F23B6A02FB03F3E3
:10545C00FB6204E03B6A334A02FB03F3FB622F4B13
:10546C005B6803F48003B3F5800F02D1FB6ABB6267
:10547C0048E0FB6A5B002C4AA2FB03235B08BB627F
:10548C0040E0264B1B6AFB61FB6903F44073B3F5E8
:10549C00807F08D1FB6903F00203002B03D04FF48B
:1054AC000043BB621FE0FB6903F44073B3F5007F5C
:1054BC0009D11A4B5B6A03F00203002B03D049F6A7
:1054CC004043BB620FE0FB6903F44073B3F5407FCC
:1054DC001AD1124B1B6803F40033002B14D04FF27B
:1054EC002443BB6210E00FE0FFF77CFE02460B4B3F
:1054FC005B689B0B03F0030301335B00B2FBF3F31C
:10550C00BB6202E000BF00E000BFBB6A1846343744
:10551C00BD4690BD4C6C00085C6C0008001002404D
:10552C0000127A0000093D00ABAAAAAA80B584B08B
:10553C0000AF78600023FB607B68002B01D1012356
:10554C0084E07B685B7CDBB2002B05D17B6800229E
:10555C001A747868FDF756F97B6802225A747868D9
:10556C0000F0F4FA0346002B04D07B6804225A7432
:10557C0001236BE0786800F0ADFB0346002B04D0F0
:10558C007B6804225A74012360E07B681B685A68AC
:10559C007B681B6822F007025A607B689B68002BB3
:1055AC0005D02C4B1B6B2B4A23F001031363294BA7
:1055BC00DB6A23F460727B689B6826491343CB62D9
:1055CC007B685B68B3F1FF3F03D07B685B68FB6073
:1055DC000EE00120FFF7EEFEF860FB68002B04D113
:1055EC007B6804225A74012330E0FB68013BFB60AA
:1055FC007B681B689B6823F00F01FB681A0C7B68A7
:10560C001B680A439A607B681B68DB681B0C1B04D5
:10561C00FA6891B27A6812680B43D360786800F02C
:10562C0081FB0346002B04D07B6804225A740123AF
:10563C000CE07B680022DA737B6801225A737B686A
:10564C0001229A737B6801225A7400231846103782
:10565C00BD4680BD006C004090B587B000AFF860CF
:10566C00B9607A6000237B6100233B61FB68002BEF
:10567C0002D0BB68002B01D1012380E0FB681B7CAE
:10568C00012B01D102237AE0FB6801221A74FB681A
:10569C0002225A747B68002B13D1BB681B781A4604
:1056AC004FF4616303FB02F2BB685B7819460B464F
:1056BC001B015B1A9B001344BA68927813447B61FC
:1056CC001EE0BB681B78184600F071FB03461A46B7
:1056DC004FF4616303FB02F4BB685B78184600F07F
:1056EC0066FB03461A4613461B019B1A9B001C447F
:1056FC00BB689B78184600F05AFB034623447B6139
:10570C007969F86800F07FFA0346002B07D0FB6834
:10571C0004225A74FB6800221A7401232FE0FB68E0
:10572C001B685A68FB681B6822F005025A60F8680F
:10573C0000F090FA38613B69B3F1FF3F18D03A6939
:10574C007B699A4214D23B6903F5A83303F5C07305
:10575C003B613969F86800F096FA0346002B07D0D4
:10576C00FB6804225A74FB6800221A74012306E0B9
:10577C00FB6801225A74FB6800221A740023184635
:10578C001C37BD4690BD000080B588B000AFF860F6
:10579C00B9607A600023BB610023FB6100237B614D
:1057AC0000233B61FB68002B02D0BB68002B01D1AE
:1057BC000123B5E0FB681B685B6803F00403002B56
:1057CC0001D00123ACE0F86800F0EDF9B861BB69D9
:1057DC00554AA2FB0323DB0A3B61BA69524BA3FB7C
:1057EC000213DB0A4FF4616101FB03F3D31A4F4A36
:1057FC00A2FB03235B09DAB2BB685A70BB694A4A45
:10580C00A2FB0312D20A4FF4616101FB02F29A1A55
:10581C00464BA3FB021359090B461B015B1A9B0059
:10582C00D11ACAB2BB689A703B69172B55D93B6920
:10583C003F4AA2FB03231B097B6139693C4BA3FB49
:10584C0001231A0913465B001344DB00CA1AD2B2B7
:10585C00BB681A70F86800F0FDF9F861FB69B3F1E8
:10586C00FF3F08D0FA69BB699A4204D9FA69BB694F
:10587C00D31AFB6102E04FF0FF33FB617B692D4AC9
:10588C0002FB03F3BA69D31ABB61B969F86800F07B
:10589C00BAF90346002B01D0012341E0FB69B3F1B7
:1058AC00FF3F0CD0FA69BB691344FB61F969F868D6
:1058BC0000F0E9F90346002B0AD0012330E0F96926
:1058CC00F86800F0E0F90346002B01D0012327E033
:1058DC007969F86800F088FA03E03B69DAB2BB68D2
:1058EC001A707B68002B1AD0BB681B78184600F026
:1058FC0041FA03461A46BB681A70BB685B781846B7
:10590C0000F038FA03461A46BB685A70BB689B789D
:10591C00184600F02FFA03461A46BB689A7000230B
:10592C0018462037BD4680BDC5B3A29189888888AA
:10593C00ABAAAAAA8051010080B588B000AFF8606C
:10594C00B9607A600023FB610023BB6100237B619B
:10595C00FB68002B02D0BB68002B01D1012397E020
:10596C00FB681B7C012B01D1022391E0FB68012217
:10597C001A74FB6802225A747B68002B0CD1BB682A
:10598C00DA78FB68DA73BB685A78FB685A73BB68C1
:10599C009A78FB689A731AE0BB68DB78184600F0BB
:1059AC0006FA03461A46FB68DA73BB685B7818463E
:1059BC0000F0FDF903461A46FB685A73BB689B78E6
:1059CC00184600F0F4F903461A46FB689A73FB6814
:1059DC00DB7B1846FB68597BFB689B7B1A4600F007
:1059EC00DFFA03461A46FB681A73FB681A7BBB681E
:1059FC001A70F86800F0D7F8F861FB69264AA2FB28
:105A0C000323DB0A7B617B69182B3AD97B69234A18
:105A1C00A2FB03231B09224A02FB03F3FA69D31AE4
:105A2C00FB61F969F86800F0EEF80346002B07D02B
:105A3C00FB6804225A74FB6800221A74012327E0C5
:105A4C00F86800F007F9B861BB69B3F1FF3F18D0F3
:105A5C00BA69FB699A4214D2BB6903F5A83303F502
:105A6C00C073BB61B969F86800F00DF90346002BEF
:105A7C0007D0FB6804225A74FB6800221A740123B5
:105A8C0006E0FB6801225A74FB6800221A7400239A
:105A9C0018462037BD4680BDC5B3A291ABAAAAAAB1
:105AAC008051010080B586B000AFF860B9607A60B3
:105ABC0007F1140300210A461A800A469A70FB6803
:105ACC00002B02D0BB68002B01D101233AE007F177
