:020000040800F2
:10000000005000201D240008212200082922000899
:1000100031220008392200084122000800000000B7
:10002000000000000000000000000000492200085D
:100030005522000800000000612200086D2200081F
:10004000652400086524000865240008792200085A
:10005000652400086524000865240008652400085C
:10006000652400086524000865240008652400084C
:10007000652400086524000865240008652400083C
:10008000652400086524000865240008652400082C
:10009000652400086524000865240008652400081C
:1000A000652400086524000865240008652400080C
:1000B00065240008652400086524000865240008FC
:1000C00065240008652400086524000865240008EC
:1000D00065240008652400086524000865240008DC
:1000E000652400086524000865240008000000005D
:1000F0000000000000000000000000000000000000
:0C01000000000000000000005FF808F1A3
:10010C0010B5054C237833B9044B13B10448AFF345
:10011C0000800123237010BD60030020000000004C
:10012C00D46B000808B5034B1BB103490348AFF36C
:10013C00008008BD0000000064030020D46B0008A0
:10014C0080B500AF4FF400410A4803F05DFB034655
:10015C00002B0CD10A2003F0A1F84FF40041054804
:10016C0003F052FB0346002B01D1012300E00023D6
:10017C00184680BD000C014080B586B002AF3B46EE
:10018C0000221A605A601A81FFF7DAFF0346002B2F
:10019C007BD100224049414804F07AFE00224049BC
:1001AC003E4805F003F83B460A220021184605F0AC
:1001BC00B2FC02F045FA384B9B7803F00103DBB23A
:1001CC00002B27D1344B1B781A46334B5B783846BF
:1001DC00344905F02BFC3A4600230093324B142192
:1001EC00032002F0B9FE3B460A220021184605F016
:1001FC0092FC294B9B781A463B462C49184605F035
:10020C0015FC3A4600230093294B1C21672002F071
:10021C00A3FE26E0204B1B781A461F4B5B78384612
:10022C00244905F003FC3A46002300931E4B14218D
:10023C00032002F091FE3B460A220021184605F0ED
:10024C006AFC154B9B781A463B461849184605F034
:10025C00EDFB3A4600230093154B1C21672002F05E
:10026C007BFE02F0F9F90023FB600AE0FFF768FF60
:10027C000346002B0BD1642003F010F8FB6801330C
:10028C00FB60FB68092BF1DD7EE700BF00E000BFDF
:10029C0018461037BD4680BD7C030020600400204A
:1002AC0080030020EC6B000808820008F86B000843
:1002BC004C840008006C000880B582B002AF02F0DC
:1002CC00BFF9002300930E4B0E4A0821002002F0C8
:1002DC0093FE002300930A4B0B4A2B21002002F0C3
:1002EC008BFE02F0B9F900BF4FF40041074803F050
:1002FC008BFA0346002BF7D100BFBD4680BD00BF73
:10030C00148B00080C6C0008206C0008000C0140D9
:10031C0080B584B002AF00237B600123FB7002F038
:10032C008FF90023854A0021002002F0C8FD00232C
:10033C000093834B834A00210A2002F05DFE0023C8
:10034C0000937F4B804A10210A2002F055FE02F0E8
:10035C0083F902F083F80346DAB27C4B1A707B4BBC
:10036C001B78012B07D1FB78013BFB70FB78002B32
:10037C0001D10323FB70754B1B78022B07D1FB7843
:10038C000133FB70FB78042B01D10123FB706F4B05
:10039C001B78032B05D102F053F902F05DF9FB78C1
:1003AC007B606A4B1B78042B01D10023C2E07B6875
:1003BC00012B0AD100F038FA00F058FB00237B60C7
:1003CC004FF4967002F06AFF16E07B68022B08D19E
:1003DC0001F07AF800237B604FF4967002F05EFF18
:1003EC000AE07B68032B07D100F0C6FD00237B607D
:1003FC004FF4967002F052FFFB78013B032B00F296
:10040C00978001A252F823F0250400086B04000821
:10041C00B1040008F704000802F012F90023474A5F
:10042C000021002002F04BFD00230093444B484A6E
:10043C0000210A2002F0E0FD00230093404B454AC6
:10044C0010210A2002F0D8FD002300933C4B424AB5
:10045C0020210A2002F0D0FD02F0FEF869E002F043
:10046C00EFF80023354A1021002002F028FD00236C
:10047C000093334B364A00210A2002F0BDFD0023C5
:10048C0000932F4B334A10210A2002F0B5FD0023B4
:10049C0000932B4B304A20210A2002F0ADFD02F0D4
:1004AC00DBF846E002F0CCF80023244A202100209F
:1004BC0002F005FD00230093214B254A00210A2060
:1004CC0002F09AFD002300931D4B224A10210A20B2
:1004DC0002F092FD00230093194B1F4A20210A20A1
:1004EC0002F08AFD02F0B8F823E002F0A9F800232C
:1004FC00124A3021002002F0E2FC00230093104B42
:10050C00134A00210A2002F077FD002300930C4BC4
:10051C00104A10210A2002F06FFD00230093084BB3
:10052C000D4A20210A2002F067FD02F095F800E048
:10053C0000BF0EE718460837BD4680BDF402002008
:10054C00148B00082C6C00083C6C00088403002001
:10055C00506C0008606C0008706C000880B584B0AA
:10056C0002AF0123FB7102F06BF80023A54A0021B6
:10057C00002002F0A4FC00230093A34BA34A00210B
:10058C000A2002F039FD002300939F4BA04A102152
:10059C000A2002F031FD002300939B4B9D4A202141
:1005AC000A2002F029FD00230093974B9A4A302130
:1005BC000A2002F021FD02F04FF801F04FFF034634
:1005CC00DAB2964B1A70954B1B78012B07D1FB793D
:1005DC00013BFB71FB79002B01D10623FB718F4B87
:1005EC001B78022B07D1FB790133FB71FB79072BAD
:1005FC0001D10123FB71894B1B78032B05D102F030
:10060C001FF802F029F8FB79F8E0FB79013B052B88
:10061C0000F2F28001A252F823F000BF410600085C
:10062C0097060008ED060008430700089907000824
:10063C00CF07000802F004F80023724A00210020C2
:10064C0002F03DFC002300936F4B704A00210A20FE
:10065C0002F0D2FC002300936B4B6D4A10210A2050
:10066C0002F0CAFC00230093674B6A4A20210A203F
:10067C0002F0C2FC00230093634B674A30210A202E
:10068C0002F0BAFC01F0E8FFB7E001F0D9FF00235B
:10069C005C4A1021002002F012FC002300935A4BFC
:1006AC005A4A00210A2002F0A7FC00230093564B63
:1006BC00574A10210A2002F09FFC00230093524B52
:1006CC00544A20210A2002F097FC002300934E4B41
:1006DC00514A30210A2002F08FFC01F0BDFF8CE062
:1006EC0001F0AEFF0023474A2021002002F0E7FB77
:1006FC0000230093444B454A00210A2002F07CFC65
:10070C0000230093404B424A10210A2002F074FC53
:10071C00002300933C4B3F4A20210A2002F06CFC42
:10072C0000230093384B3C4A30210A2002F064FC31
:10073C0001F092FF61E001F083FF0023314A302188
:10074C00002002F0BCFB002300932F4B2F4A00210A
:10075C000A2002F051FC002300932B4B2C4A102151
:10076C000A2002F049FC00230093274B294A202140
:10077C000A2002F041FC00230093234B264A30212F
:10078C000A2002F039FC01F067FF36E001F058FF57
:10079C0000231C4A0021002002F091FB002300934F
:1007AC00194B1F4A00210A2002F026FC002300935B
:1007BC00154B1C4A10210A2002F01EFC01F04CFFC4
:1007CC001BE001F03DFF00230E4A1021002002F037
:1007DC0076FB002300930C4B114A00210A2002F0F7
:1007EC000BFC00230093084B0E4A10210A2002F048
:1007FC0003FC01F031FF00E000BFDEE618460837CD
:10080C00BD4680BDF4020020148B0008806C0008EB
:10081C00886C0008906C0008A06C00088403002011
:10082C00AC6C0008B46C000880B584B002AF012336
:10083C007B6001F005FF0023124A27210A2002F0F9
:10084C003EFB4FF40041104802F0DEFF0346002B44
:10085C0011D07B68DAB2002300933F233F210020A4
:10086C0002F014F901F0F8FE7B6804337B607B68BE
:10087C007F2B02DCE5E700BF00E000BF0837BD4678
:10088C0080BD00BF986E0008000C014080B582B09E
:10089C0000AF03463960FB803B68002B07D1FB8817
:1008AC00D9B20023154A0A2002F009FB21E03B686B
:1008BC00012B07D1FB88D9B20023114A0A2002F080
:1008CC00FEFA16E03B68B3F1FF3F07D1FB88D9B2C3
:1008DC0000230C4A0A2002F0F2FA0AE03B6813F1FA
:1008EC00020F06D1FB88D9B20023074A0A2002F076
:1008FC00E6FA00BF0837BD4680BD00BF086E000891
:10090C00506E0008986E0008C06D000880B582B06B
:10091C0000AF03463960FB80B7F906203B681B78B3
:10092C00C3F17F039A420BDCFB88D8B23B685B783F
:10093C00C3F13F03D9B200233A6802F0C0FA00E0D9
:10094C0000BF0837BD4680BD80B584B002AF78606B
:10095C000B46FB7097F90330002B15D17A681849B8
:10096C00184805F063F800230093174B174A03212E
:10097C00482002F041FB00230093134B114A032142
:10098C00662002F039FB16E0114B1B681A460C4925
:10099C000C4805F04BF8002300930B4B0D4A162125
:1009AC003C2002F029FB00230093074B054A16213B
:1009BC00662002F021FB00BF0837BD4680BD00BF9A
:1009CC00DC6C00088C030020E48C0008E06C000850
:1009DC0088030020EC6C000880B586B002AFBA60CA
:1009EC007B600346FB810B46BB81B7F918306FF077
:1009FC0001011846FFF74AFFB7F90E30396A18465D
:100A0C00FFF784FFB7F90C30796A1846FFF77EFFC1
:100A1C00002300933F237F223F21002002F036F871
:100A2C000021B868FFF790FF0D4B1B68BA689A421B
:100A3C000BDD0B4ABB68136000230093094B0A4A79
:100A4C0016214B2002F0D8FA03E00121B868FFF719
:100A5C007BFF01F001FE00BF1037BD4680BD00BF1B
:100A6C0088030020E48C0008FC6C000880B58EB074
:100A7C0004AFFC233B8140F27D13FB803B89C833E0
:100A8C009BB2FB84FB88C8339BB2BB8402F0FCFB9B
:100A9C00034603F00703002B01D0AE4B00E0AE4B36
:100AAC003B6202F0F1FB0146AC4BA3FB01239A081D
:100ABC0013469B001344CA1A002A01D0A54B00E030
:100ACC00A54BFB6115230A339BB2BB8027237B8389
:100ADC0000237B6100233B610023FB600023FB723E
:100AEC0001F0AEFD4FF480519D4802F08DFE03469F
:100AFC00002B0FD04FF40051994802F085FE0346AD
:100B0C00002B07D04FF48041954802F07DFE034640
:100B1C00002B05D17B69002B0BD101237B6108E0F5
:100B2C004FF400418E4802F06FFE0346002B00F09C
:100B3C004F81B7F92620B7F904107B69052BA8BFA4
:100B4C000523CB1A9A4229DCB7F926300B2B25DD6D
:100B5C00B7F91A3017221A443B6A5B78C3F13F038A
:100B6C009A421BDBB7F92410B7F92600FB690393F3
:100B7C003B6A0293B7F904300193B7F91A3000932A
:100B8C007B69FA68FFF728FF00BF4FF400417448F7
:100B9C0002F03AFE0346002BF7D11AE1B7F92420F4
:100BAC00B7F904107B69052BA8BF0523CB1A9A4211
:100BBC0029DCB7F924300B2B25DDB7F91A301722B5
:100BCC001A44FB695B78C3F13F039A421BDBB7F90C
:100BDC002610B7F92400FB6903933B6A0293B7F91B
:100BEC0004300193B7F91A3000937B69FA68FFF768
:100BFC00F3FE00BF4FF40041594802F005FE0346D6
:100C0C00002BF7D1E5E07B69002B0FDD7B69013B05
:100C1C00544AD35CC3F127039BB27B837B690133BA
:100C2C007B617B69262B01DD00237B613B690133F2
:100C3C003B613B694C4A82FB03125210DB17D31AFF
:100C4C00FB600021F868FFF77FFE7B69002B07D063
:100C5C00B7F91A304FF0FF311846FFF717FE17E0BF
:100C6C0097F90B30042BCCBF01230023DBB21A46BF
:100C7C00B7F91A3011461846FFF708FEFB7A013314
:100C8C00DBB2FB7297F90B30092B01DD0023FB72F1
:100C9C00B7F92630396A1846FFF738FEB7F9243011
:100CAC00F9691846FFF732FE002300933F237F2299
:100CBC003F21002001F0EAFEFB8C023B9BB2FB843F
:100CCC00BB8C023B9BB2BB84B7F92630002B1FDCDC
:100CDC0002F0DAFA0346214AA2FB0323D9081F4B80
:100CEC00A3FB01231A0913469B0013449B00CA1A49
:100CFC0092B23B8913449BB2FB8402F0C5FA0346C3
:100D0C0003F00303002B01D0124B00E0124B3B62AB
:100D1C00B7F92430002B2BDC02F0B6FA03460F4A4D
:100D2C00A2FB0323D9080D4BA3FB01231A0913467D
:100D3C009B0013449B00CA1A92B2FB8813449BB2CB
:100D4C00BB8402F0A1FA034603F00103002B0DD083
:100D5C00004B0CE0AC6E0008D86E0008CDCCCCCCAF
:100D6C00000C0140E06E0008676666661A4BFB617A
:100D7C00FA8CBB8CD31A9BB21AB2184B1A80174B35
:100D8C00B3F90030002B0DDD144BB3F900302E2BD2
:100D9C0008DCFA8C114BB3F900309BB213449BB2B4
:100DAC00FB8412E00D4BB3F90030002B0DDA0B4B2A
:100DBC00B3F9003013F12E0F07DBBA8C074BB3F9E4
:100DCC0000309BB213449BB2BB8401F045FC87E618
:100DDC0000BF2837BD4680BDD86E00089C0300209C
:100DEC0080B500AF4FF48041054802F00DFD03467D
:100DFC00002B01D1012300E00023184680BD00BF69
:100E0C00000C014080B586B002AF3B4600221A6050
:100E1C005A609A60C3F80B2001F012FC4D4B1A6813
:100E2C003B464D49184604F001FE3A460023009318
:100E3C004A4B0021502002F08FF8494B1B68D8B266
:100E4C00484B1B68DBB2002200920A22002101F001
:100E5C0009FF434B1B68DBB2023BD8B2414B1B680A
:100E6C00DBB2063BD9B20023009306230E2201F01D
:100E7C00F9FE3B4B1B68D8B23A4B1B68DBB21E33F6
:100E8C00D9B2384B1B68DBB2C3F14003DBB2002292
:100E9C0000920A2201F0E6FE314B1B68DBB2023BEA
:100EAC00D8B2304B1B68DBB21E33D9B2002300938F
:100EBC0006230E2201F0D6FE2B4B1B68D8B22B4B0F
:100ECC001B68DBB2002200920A22002101F0CAFE4C
:100EDC00254B1B68DBB2023BD8B2244B1B68DBB240
:100EEC00063BD9B20023009306230E2201F0BAFE72
:100EFC001D4B1B68D8B21D4B1B68DBB21E33D9B21D
:100F0C001A4B1B68DBB2C3F14003DBB20022009228
:100F1C000A2201F0A7FE144B1B68DBB2023BD8B2CD
:100F2C00124B1B68DBB21E33D9B20023009306238D
:100F3C000E2201F097FE0E4B1B68D9B200230D4A0E
:100F4C00142001F0BCFF01F087FB00BF1037BD4639
:100F5C0080BD00BFB80300200C6D0008F48C0008A5
:100F6C00A0030020A4030020A8030020AC03002051
:100F7C00B4030020106F000880B586B002AF3B466A
:100F8C0000221A605A609A60C3F80B200023FB738E
:100F9C00A84B80221A60A84BC0221A6004F046FCB1
:100FAC000246A64B83FB0213D910D317CB1A2A2166
:100FBC0001FB03F3D31A0133A14A136004F036FC8E
:100FCC0002469E4B83FB0213D910D317CB1A2A214E
:100FDC0001FB03F3D31A01339A4A13609A4B202274
:100FEC001A609A4B0A221A60994B00221A604FF42D
:100FFC000041984802F008FC0346002B00F04C819D
:10100C00FB7B002B40F0AF80FFF7EAFE0346012B81
:10101C0002D18D4B10221A60864B1B68023B854A0D
:10102C001360854B1B68023B834A1360864B1B681D
:10103C00053B854A1360844B1B68874A82FB03126D
:10104C009210DB179A1A814B1B6813447F4A13606A
:10105C00784B1B68012B19DC764B80221A6004F04C
:10106C00E5FB0246754B83FB0213D910D317CB1A41
:10107C002A2101FB03F3D31A0133714A1360704B1D
:10108C001B68052B02DC6E4B06221A606A4B1B6830
:10109C00012B19DC684B80221A6004F0C7FB024656
:1010AC00664B83FB0213D910D317CB1A2A2101FBF1
:1010BC0003F3D31A0133634A1360624B1B68052B8D
:1010CC0002DC604B06221A60FFF79CFE5F4B1B682C
:1010DC00002B02DA5D4B00221A605C4B1B68402B24
:1010EC0001DD0123FB73534B1B68132B13DD514B99
:1010FC001B681F2B0FDC554B1A68514B1B689A420F
:10110C0007DB4F4B1B6803F11602504B1B689A42CE
:10111C0001DA0123FB73484B1B68132B13DD464B81
:10112C001B681F2B0FDC494B1A68464B1B689A42F5
:10113C0007DB444B1B6803F11602444B1B689A42B5
:10114C0001DA0123FB733B4B1B68102B03D03A4B8A
:10115C001B68102B04D13E4B1B6801333C4A1360B7
:10116C001E2002F09BF8FB7B012B7FF440AF01F0BB
:10117C0067FA0023394A0021002001F0A0FE002369
:10118C00374A2021082001F09AFE00230093354BAA
:10119C00354A2021482001F02FFF2D4B1A683B4681
:1011AC003249184604F042FC3A4600230093304B77
:1011BC003021482001F0D0FE01F04EFAFFF710FE6E
:1011CC000346012B5FD10023FB731A4B80221A605C
:1011DC00194BC0221A6004F029FB0246174B83FB03
:1011EC000213D910D317CB1A2A2101FB03F3D31AFC
:1011FC000133134A1360124B1B68052B02DC104B96
:10120C0006221A6004F012FB02460C4B83FB0213FD
:10121C00D910D317CB1A2A2101FB03F3D31A0133AC
:10122C00084A1360074B1B68052B23DC054B062271
:10123C001A601FE0A0030020A8030020310CC3306B
:10124C00A4030020AC030020B0030020B403002052
:10125C00B8030020000C014067666666086F000842
:10126C00186F0008E48C0008106D00080C6D000865
:10127C00F48C00080B4B20221A600B4B32221A60A4
:10128C000A4B00221A604FF40041094802F0BCFAE4
:10129C000346002B02D0AAE600BF00E000BF1037C7
:1012AC00BD4680BDB0030020B4030020B80300206D
:1012BC00000C014080B400AF2D4B00221A602D4B66
:1012CC0000221A602C4B00221A602C4B08221A6048
:1012DC002B4B00221A602B4B00221A602A4B5F22E8
:1012EC001A602A4B00221A60294B5F221A60294B84
:1012FC0000221A60284B5F221A60284B00221A60C9
:10130C00274B5F221A60274B00221A60264B0022C3
:10131C001A60264B03221A60254B01221A60254BBA
:10132C000A221A60244B05221A60244B00221A60F0
:10133C00234B01221A60234B00221A60224B0022FD
:10134C001A60224B00221A60214B18221A60214B82
:10135C0000221A60204B00221A60204B00221A60D7
:10136C001F4B00221A6000BFBD4680BC704700BFF7
:10137C00BC030020C0030020C4030020C4020020D2
:10138C00C8030020CC030020C8020020D00300209A
:10139C00CC020020D4030020D0020020D80300206F
:1013AC00D4020020DC030020E0030020D80200203F
:1013BC00DC020020E0020020E4020020E403002014
:1013CC00E8020020E8030020EC030020F0030020DA
:1013DC00EC020020FC030020000400200404002088
:1013EC000804002080B500AF4FF480510F4802F084
:1013FC000BFA0346002B01D1022314E04FF40051E9
:10140C000A4802F001FA0346002B01D103230AE03B
:10141C004FF48041054802F0F7F90346002B01D147
:10142C00012300E00023184680BD00BF000C0140E2
:10143C0080B500AF1E21322001F084FE11211E2048
:10144C0001F080FE12213C2001F07CFE102137209F
:10145C0001F078FE2B21192001F074FE2B21642061
:10146C0001F070FE3421752001F06CFE31210E204C
:10147C0001F068FE1821182001F064FE24214E2092
:10148C0001F060FE3921502001F05CFE0B216B2035
:10149C0001F058FE0B21962001F054FE0521052089
:1014AC0001F050FE0721082001F04CFE0C214620D3
:1014BC0001F048FE38210A2001F044FE1921462093
:1014CC0001F040FE00BF80BD90B589B002AF002393
:1014DC007B613B1D00221A605A609A60C3F80B2096
:1014EC00FFF7E8FE01F0D0FE0346954A13604FF477
:1014FC000041944802F088F90346002B00F06F84F9
:10150C00914B1B68002B40F0C88301F099F8FFF752
:10151C008FFF01F0B9FE0246894B1B68D31A8B4A28
:10152C0013608A4B1A688A4B1B68D31A4CF25032E0
:10153C00934217D9854B1B68854A1360854B1B68F2
:10154C000133844A1360844B1B680133824A136055
:10155C00824B1B680133814A1360814B1B68013B32
:10156C007F4A13607F4B1B6801337E4A136004F083
:10157C005DF902467C4B83FB02131912D317CB1A6D
:10158C004FF4487101FB03F3D31A03F5C87303F04E
:10159C000103002B11D1734B1B68012B0DD1734B25
:1015AC001B68002B09D1724B5F221A60714B1B68B0
:1015BC00714A13606D4B01221A6004F037F9024630
:1015CC00694B83FB02131912D317CB1A4FF44871D2
:1015DC0001FB03F3D31A03F5C871684B83FB01328B
:1015EC00CB17D21A13465B001344CA1A012A11D125
:1015FC005C4B1B68022B0DD1614B1B68002B09D176
:10160C00604B5F221A605B4B1B685F4A13605C4B3C
:10161C0001221A6004F00AF90246534B83FB0213B1
:10162C001912D317CB1A4FF4487101FB03F3D31AD9
:10163C0003F5C871554B83FB01235A10CB17D21AF3
:10164C0013469B001344CA1A012A11D1454B1B683F
:10165C00032B0DD14E4B1B68002B09D14D4B5F2238
:10166C001A60444B1B684C4A1360494B01221A60A8
:10167C0004F0DCF802463C4B83FB02131912D3171F
:10168C00CB1A4FF4487101FB03F3D31A03F5C8725C
:10169C00424B83FB021313449910D317C91A0B4600
:1016AC00DB005B1AD11A012911D12E4B1B68042BBC
:1016BC000DD13B4B1B68002B09D13A4B5F221A60B2
:1016CC002C4B1B68384A1360354B01221A60274B90
:1016DC001B68002B19D0264B1B68D8B2264B1B68F5
:1016EC00D9B20023022201F00EFB214B1B6813F12F
:1016FC00020F07DB1E4B1A68174B1B68D31A1C4AC8
:10170C00136002E0194B00221A601D4B1B68002B62
:10171C004FD01C4B1B68D8B21B4B1B68D9B2002393
:10172C00012201F0F0FA174B1B68B3F1FF3F3DDBD0
:10173C00144B1A68084B1B68D31A124A136038E012
:10174C00E8030020000C0140CC030020EC03002037
:10175C00F0030020E8020020D8020020DC02002068
:10176C00E0020020E40300201F85EB51FC03002065
:10177C00C8020020C4020020D00300205655555545
:10178C0000040020CC020020D403002067666666AB
:10179C0004040020D0020020D80300209324499296
:1017AC0008040020D4020020DC030020994B002206
:1017BC001A60994B1B68002B19D0984B1B68D8B238
:1017CC00974B1B68D9B20023042201F09CFA934B6F
:1017DC001B6813F1040F07DB904B1A68914B1B68C5
:1017EC00D31A8E4A136002E08B4B00221A608E4B88
:1017FC001B68002B19D08D4B1B68D8B28C4B1B6807
:10180C00D9B20023032201F07EFA884B1B6813F136
:10181C00030F07DB854B1A68824B1B68D31A834A6C
:10182C00136002E0804B00221A60FFF7DBFD0346D9
:10183C00022B08D17F4B1B68012B04DD7D4B1B68F1
:10184C00023B7C4A1360FFF7CDFD0346032B08D106
:10185C00784B1B682E2B04DC764B1B680233754AC5
:10186C001360FFF7BFFD0346012B0ED1724B1B68B3
:10187C00002B0AD1704B01221A60704B06221A60A1
:10188C006C4B1B6808336E4A13606B4B1B68012B47
:10189C0016D16A4B1B680833684A1360674B1B6888
:1018AC00D8B2674B1B68D9B2644B1B68DBB20433EC
:1018BC00DAB2634B1B68DBB20024009401F0E6F84B
:1018CC00604B1B68002B1ED001F0DEFC03465E4A09
:1018DC00A2FB03231B0903F00103002B07D1554B7B
:1018EC001B68D9B20023594A042001F0E8FA584B7E
:1018FC001A68584B1B68D31AB3F57A7F0BD9514B26
:10190C0000221A6007E04B4B1B68D9B200234F4AE8
:10191C00042001F0D4FA504B1B68D8B24F4B1B6813
:10192C00D9B24F4B1B68DAB2002301F0ECF94A4BE9
:10193C001B68DBB20233D8B2484B1B68DBB20333F3
:10194C00D9B2474B1B68474A82FB0342DB17D31AB9
:10195C00DAB2002301F0D7F900230093424B434A3B
:10196C0000211C2001F0F8FA414B1A683B1D41493B
:10197C00184604F05BF83A1D002300933A4B002103
:10198C00402001F0E9FA00230093374B3A4A372103
:10199C001C2001F0E1FA394B1A683B1D35491846F9
:1019AC0004F044F83A1D002300932F4B37214020BC
:1019BC0001F0D2FA002300932B4B314A2D217420D5
:1019CC0001F0CAFA224B1B682E4AA2FB03239A0988
:1019DC003B1D2849184604F029F83A1D00230093B2
:1019EC00214B3721742001F0B7FA00F035FE134B70
:1019FC001B68802B02DD104B00221A60224B1B68E7
:101A0C00002B45D1154B1A68204B1B681344134A05
:101A1C00136044E00004002004040020D0020020E5
:101A2C00D8030020D802002008040020D402002093
:101A3C00DC030020EC020020C4030020BC030020C7
:101A4C00C0030020F40300201F85EB51406F0008F9
:101A5C00EC030020F8030020C0020020C402002088
:101A6C00E00200205655555588710008246D000879
:101A7C00E0030020346D0008386D0008E4020020FB
:101A8C00406D0008D34D6210C8030020DC0200201A
:101A9C008C4B1A688C4B1B68D31A8A4A13608B4B7D
:101AAC001B68C3F14002874B1B689A4202DC884BCF
:101ABC0001221A60834B1A68844B1B689A4202DC21
:101ACC00834B00221A607F4B1A68804B1B68D21A1A
:101ADC00804B1B689A422ADC7A4B1A687B4B1B683A
:101AEC001A447C4B1B689A4221DB7B4B1A68774B60
:101AFC001B68D21A794B1B689A4218DA764B1A6813
:101B0C00724B1B681A44754B1B689A420FDD734B62
:101B1C0006221A60724B1B6808336E4A1360714BB5
:101B2C001B6801336F4A13606F4B00221A606C4BB9
:101B3C001B6808337B617B69A3F108026B4B1B6844
:101B4C009A4221DC7B6903F10802684B1B689A42BC
:101B5C001ADB674B1B68142B16DC654B1B68042BBC
:101B6C0012DD644B1B68002B0ED1634B00221A60F4
:101B7C00624B1B68013B614A13605E4B01221A6089
:101B8C005F4B1B685F4A13607B69A3F108025E4BD5
:101B9C001B689A4221DC7B6903F108025A4B1B68D3
:101BAC009A421ADB594B1B68142B16DC574B1B68DB
:101BBC00042B12DD4F4B1B68002B0ED1544B002213
:101BCC001A604E4B1B68013B4C4A1360494B012277
:101BDC001A604B4B1B684B4A13607B69A3F10802DC
:101BEC004C4B1B689A4221DC7B6903F10802494B80
:101BFC001B689A421ADB484B1B68142B16DC464BAD
:101C0C001B68042B12DD3B4B1B68002B0ED1434B86
:101C1C0000221A60394B1B68013B384A1360354B64
:101C2C0001221A60364B1B68364A13607B69A3F19C
:101C3C0008023B4B1B689A4221DC7B6903F10802CA
:101C4C00374B1B689A421ADB364B1B68142B16DC7D
:101C5C00344B1B68042B12DD264B1B68002B0ED15A
:101C6C00314B00221A60254B1B68013B234A136041
:101C7C00204B01221A60224B1B68224A13602B4B0B
:101C8C001B68042B02DD294B00221A601B4B1B68BE
:101C9C00002B02D1264B01221A60254B1B68012B0D
:101CAC0040F0988000F0CCFC00230093214B224A9A
:101CBC001421252001F0A0F90A4B1A683B1D1F497D
:101CCC0018463DE0C4020020DC020020E0020020A7
:101CDC00C8030020C0030020C0020020BC03002069
:101CEC00EC020020E0030020C4030020D0030020FD
:101CFC00C8020020F4030020FC030020E4020020B2
:101D0C00EC030020F8030020D4030020CC020020B8
:101D1C0000040020D8030020D0020020040400207E
:101D2C00DC030020D402002008040020E40300207F
:101D3C00CC030020E48C0008446D0008346D0008CE
:101D4C0003F074FE3A1D00230093274B14215520F9
:101D5C0001F052F900230093234B244A2321252020
:101D6C0001F04AF9224B1A683B1D2249184603F030
:101D7C005DFE3A1D002300931B4B2321552001F0DF
:101D8C003BF900230093184B1B4A3221252001F00C
:101D9C0033F91A4B1B681A4AA2FB03239A093B1D01
:101DAC001449184603F042FE3A1D002300930E4BD3
:101DBC003221552001F020F900F04EFCFFF712FB08
:101DCC000346012B06D1FFF775FA01F05DFA0346C5
:101DDC000C4A1360012001F061FAFFF788BB00BFC9
:101DEC001C37BD4690BD00BFE48C00084C6D00084C
:101DFC00E8020020346D0008546D0008EC0300204C
:101E0C00D34D6210E803002080B588B000AF07F115
:101E1C00100300221A605A609A60DA602A4B9B69A0
:101E2C00294A43F010039361274B9B6903F010037D
:101E3C00FB60FB68244B9B69234A43F020039361AE
:101E4C00214B9B6903F02003BB60BB681E4B9B6955
:101E5C001D4A43F0080393611B4B9B6903F0080375
:101E6C007B607B68184B9B69174A43F004039361B2
:101E7C00154B9B6903F004033B603B6801224FF454
:101E8C000051124801F0D7FC4FF400533B61012381
:101E9C007B610123BB610223FB6107F1100319462F
:101EAC000A4801F02DFB4FF470433B6100237B612A
:101EBC000123BB6107F110031946054801F020FB13
:101ECC0000BF2037BD4680BD00100240001001400D
:101EDC00000C014080B500AF124B134A1A60114B35
:101EEC00124A5A600F4B00229A600E4B0022DA60A5
:101EFC000C4B4FF480421A610A4B00225A61094B79
:101F0C0000229A61074B0022DA61064B00221A620A
:101F1C00044801F0A9FC0346002B01D000F0CBF8DB
:101F2C0000BF80BD0C04002000540040801A060045
:101F3C0080B588B000AF786007F1100300221A60FA
:101F4C005A609A60DA607B681B68154A934223D109
:101F5C00144B9B69134A43F008039361114B9B6923
:101F6C0003F00803FB60FB68C0233B6112237B6119
:101F7C000323FB6107F1100319460B4801F0C0FA6B
:101F8C00084BDB69074A43F40013D361054BDB694B
:101F9C0003F40013BB60BB6800BF2037BD4680BD97
:101FAC000054004000100240000C014080B582B08B
:101FBC0000AF01F011F900F021F8FFF725FF00F058
:101FCC0081F8FFF787FF00F0E4FA00F039FB00F02E
:101FDC0043FBFEF7C3FA78607B68012B02D1FEF756
:101FEC00CBF8F6E77B68022B02D1FEF791F9F0E70C
:101FFC007B68062BEDD1FEF75FF9EAE780B594B06C
:10200C0000AF07F1280328220021184603F083FDB6
:10201C0007F1140300221A605A609A60DA601A61A0
:10202C003B1D00221A605A609A60DA600923BB6279
:10203C004FF48033FB6200233B630123BB6301231A
:10204C003B6402237B644FF48033BB644FF4E01396
:10205C00FB6407F12803184602F05CF80346002BDA
:10206C0001D000F028F80F237B610223BB61002311
:10207C00FB614FF480633B6200237B6207F1140326
:10208C000221184602F0C8FA0346002B01D000F0DA
:10209C0012F801237B604FF40073BB603B1D1846A4
:1020AC0002F052FC0346002B01D000F004F800BFF4
:1020BC005037BD4680BD80B400AF72B600BF00BFC4
:1020CC00FDE7000080B582B000AF3B1D00210A4641
:1020DC001A800A469A7000233B601D4B1D4A1A60F9
:1020EC001B4B4FF0FF325A60194B00229A60184874
:1020FC0002F0A0FD0346002B01D0FFF7DCFF1023FC
:10210C003B7110237B711023BB713B1D01221946BF
:10211C000F4802F025FE0346002B01D0FFF7CBFF42
:10212C0001233B7001237B702223BB702523FB70A2
:10213C003B4601221946064802F082FF0346002B5B
:10214C0001D0FFF7B8FF00BF0837BD4680BD00BF08
:10215C00600400200028004080B584B000AF786097
:10216C007B681B680F4A934218D101F0C7FF0E4BD6
:10217C00DB690D4A43F00063D3610B4BDB6903F061
:10218C000063FB60FB68094B01221A6000220221EC
:10219C00032001F07EF9032001F097F900BF1037FE
:1021AC00BD4680BD00280040001002403C04424265
:1021BC0080B485B000AF154B9B69144A43F0010302
:1021CC009361124B9B6903F00103BB60BB680F4B1F
:1021DC00DB690E4A43F08053D3610C4BDB6903F08F
:1021EC0080537B607B680A4B5B68FB60FB6823F069
:1021FC00E063FB60FB6843F00073FB60044AFB6820
:10220C00536000BF1437BD4680BC704700100240BD
:10221C000000014080B400AF00BFFDE780B400AF08
:10222C0000BFFDE780B400AF00BFFDE780B400AF96
:10223C0000BFFDE780B400AF00BFFDE780B400AF86
:10224C0000BFBD4680BC704780B400AF00BFBD4628
:10225C0080BC704780B400AF00BFBD4680BC7047E7
:10226C0080B500AF00F0FEFF00BF80BD80B500AFB1
:10227C00024803F091FA00BF80BD00BF600400204B
:10228C0080B400AF01231846BD4680BC704780B5B2
:10229C0082B000AF7860396003F08CFC03461622E4
:1022AC001A604FF0FF3318460837BD4680BD80B525
:1022BC0082B000AF78604FF0FF317868FFF7E7FF2E
:1022CC0000BFFDE780B586B000AFF860B9607A60FA
:1022DC0000237B610AE0AFF300800146BB685A1C07
:1022EC00BA60CAB21A707B6901337B617A697B6808
:1022FC009A42F0DB7B6818461837BD4680BD80B526
:10230C0086B000AFF860B9607A6000237B6109E0A9
:10231C00BB685A1CBA601B781846AFF300807B6907
:10232C0001337B617A697B689A42F1DB7B681846E2
:10233C001837BD4680BD80B483B000AF78604FF0D5
:10234C00FF3318460C37BD4680BC704780B483B051
:10235C0000AF786039603B684FF400525A6000233C
:10236C0018460C37BD4680BC704780B483B000AFB4
:10237C007860012318460C37BD4680BC704780B48A
:10238C0085B000AFF860B9607A6000231846143746
:10239C00BD4680BC7047000080B586B000AF786049
:1023AC00144A154BD31A7B617B693B61134B1B6839
:1023BC00002B02D1114B124A1A60104B1A687B6821
:1023CC0013443A699A4207D203F0F4FB03460C22F9
:1023DC001A604FF0FF3309E0084B1B68FB60074B9A
:1023EC001A687B681344054A1360FB681846183753
:1023FC00BD4680BD00500020000400007404002085
:10240C00500A002080B400AF00BFBD4680BC7047AE
:10241C000C480D490D4A002302E0D458C450043333
:10242C00C4188C42F9D30A4A0A4C002301E0136009
:10243C000432A242FBD3FFF7E5FF03F0C1FBFFF729
:10244C00B5FD70470000002060030020008E0008DE
:10245C00600300204C0A0020FEE7000080B582B02B
:10246C0000AF0023FB714FF48051334801F0CCF9DD
:10247C000346002B10D1142000F010FF00BF4FF4C6
:10248C0080512D4801F0C0F90346002BF7D01420E1
:10249C0000F004FF0123FB714FF40051264801F0BA
:1024AC00B3F90346002B10D1142000F0F7FE00BF47
:1024BC004FF40051204801F0A7F90346002BF7D048
:1024CC00142000F0EBFE0223FB714FF480411A48FC
:1024DC0001F09AF90346002B10D1142000F0DEFE17
:1024EC0000BF4FF48041144801F08EF90346002BD5
:1024FC00F7D0142000F0D2FE0323FB714FF40041FF
:10250C000D4801F081F90346002B10D1142000F086
:10251C00C5FE00BF4FF40041074801F075F90346B2
:10252C00002BF7D0142000F0B9FE0423FB71FB79CB
:10253C0018460837BD4680BD000C014080B584B0FC
:10254C0002AF78600B46FB70FB789BB24FF0FF320A
:10255C0000927A687821034801F0CAFA00BF083764
:10256C00BD4680BD0C04002080B584B000AF03468E
:10257C00FB710023BB8100233B73FB797B7307F159
:10258C000C0302211846FFF7D9FF00BF1037BD46D8
:10259C0080BD80B500AFAE20FFF7E6FF0220FFF74D
:1025AC00E3FF1020FFF7E0FF4020FFF7DDFFB02036
:1025BC00FFF7DAFF8120FFF7D7FFCF20FFF7D4FF1B
:1025CC00A120FFF7D1FFA620FFF7CEFFA820FFF731
:1025DC00CBFF3F20FFF7C8FFAD20FFF7C5FF8B20D7
:1025EC00FFF7C2FF3320FFF7BFFFC820FFF7BCFF88
:1025FC00D320FFF7B9FF0020FFF7B6FFD520FFF778
:10260C00B3FFC020FFF7B0FFD920FFF7ADFF1F20AD
:10261C00FFF7AAFFDA20FFF7A7FF1220FFF7A4FFAE
:10262C00DB20FFF7A1FF4020FFF79EFF00F008F82A
:10263C0000F012F8AF20FFF797FF00BF80BD00003D
:10264C0080B500AF4FF480620021024803F063FABA
:10265C0000BF80BD7804002080B582B000AF154B60
:10266C0040221A700023FB711BE0FB79503BDBB25C
:10267C001846FFF779FF0220FFF776FF1020FFF7CF
:10268C0073FF0D48FB79DB010C4A13448022194679
:10269C0003F0BDFA81210748FFF750FFFB790133A6
:1026AC00FB71FB79072BE0D900BF00BF0837BD4693
:1026BC0080BD00BF78080020790800207804002035
:1026CC0080B483B000AF0346FB710B46BB7113465D
:1026DC007B7197F90730002B43DBBB793F2B40D83C
:1026EC007B79002B1DD1BB79DB08D8B20246FB7974
:1026FC001E49D2010A4413441B785AB2BB7903F029
:10270C000703012101FA03F35BB2134359B20246EA
:10271C00FB79C8B21549D2010A44134402461A7017
:10272C0020E0BB79DB08D8B20246FB790F49D20115
:10273C000A4413441B785AB2BB7903F007030121F6
:10274C0001FA03F35BB2DB435BB2134059B20246AE
:10275C00FB79C8B20549D2010A44134402461A70E7
:10276C0000E000BF0C37BD4680BC704778040020E9
:10277C0090B482B000AF0446084611461A46234670
:10278C00FB710346BB710B467B7113463B71FB79A6
:10279C00072B5FD897F90630002B5BDB3B7D002BBA
:1027AC0002D07B79DB437B713B7C0133FF2202FA45
:1027BC0003F35AB297F9053013435AB23B79C3F17C
:1027CC000803FF2141FA03F35BB213435BB2DAB2A5
:1027DC00234B1A70FA79BB792249D2010A4413446B
:1027EC0018781F4B1978FA79BB790140C8B21D498A
:1027FC00D2010A44134402461A703B7C0133FF2277
:10280C0002FA03F35BB2DB435AB297F9053013407B
:10281C005AB23B79C3F108036FF0FF0141FA03F39D
:10282C005BB213405BB2DAB20D4B1A70FA79BB791A
:10283C000C49D2010A4413441878094B1978FA79D7
:10284C00BB790143C8B20749D2010A44134402467A
:10285C001A7000E000BF0837BD4690BC704700BF3F
:10286C00F908002078040020B0B586B002AF044609
:10287C00084611461A462346FB710346BB710B46AC
:10288C007B7113463B71BB79DB08FB73BB7903F09F
:10289C000703BB73BA7B3B791344082B29DD7A7988
:1028AC00BB7B02FA03F3DAB2BC7BF979F87B97F8BD
:1028BC0020300193072300932346FFF759FFFB7B3E
:1028CC000133D8B27A79BB7BC3F1080342FA03F324
:1028DC00DCB23A79BB7B1344DBB2093BDBB2F9794E
:1028EC0097F820200192009300232246FFF740FF27
:1028FC0015E07A79BB7B02FA03F3DCB2BA7B3B7945
:10290C001344DBB2013BDBB2BD7BF979F87B97F862
:10291C002020019200932B462246FFF729FF00BF8F
:10292C001037BD46B0BD90B587B002AF044608461F
:10293C0011461A462346FB710346BB710B467B714D
:10294C0013463B71BB79DB08FB73BB7903F00703C0
:10295C00BB737A79BB7B02FA03F3DAB2BC7BF979ED
:10296C00F87B3B790193072300932346FFF700FF85
:10297C00BB7B002B14D0FB7B0133D8B27A79BB7BA9
:10298C00C3F1080342FA03F3DCB2BB7B013BDBB2BD
:10299C00F9793A790192009300232246FFF7E8FE79
:1029AC0000BF1437BD4690BD90B587B002AF3A60FA
:1029BC001A460346FB710B46BB7113467B7197F8A5
:1029CC002030DB083B7397F8203003F00703FB72D1
:1029DC000023FB7325E00023BB731BE0FA79FB7B20
:1029EC001344D8B2BB7BDB00DAB2BB791344DCB244
:1029FC00FA7BBB7B797901FB03F313441A463B68E2
:102A0C0013441A7897F824302146FFF78CFFBB7BD0
:102A1C000133BB73BA7B3B7B9A42DFD3FB7B013325
:102A2C00FB73FA7B7B799A42D5D3FB7A002B28D0A7
:102A3C007B799BB23A7B92B202FB03F33B8100237E
:102A4C007B731AE0FA797B7B1344D8B23B7BDB00B7
:102A5C00DAB2BB791344D9B23A897B7B13441A4658
:102A6C003B6813441A78FC7A97F824300093234679
:102A7C00FFF7FAFE7B7B01337B737A7B7B799A427F
:102A8C00E0D300BF1437BD4690BD000090B587B0B1
:102A9C0000AF0446084611461A462346FB7103460E
:102AAC00BB710B467B7113463B71FA797B799A4269
:102ABC001DD1BA793B799A4207D9694ABB7913700F
:102ACC003B79BB71664B1B783B71BB79FB7509E09D
:102ADC0097F82820F97DFB791846FFF7F1FDFB7D6F
:102AEC000133FB75FA7D3B799A42F1D9B4E0BA799E
:102AFC003B799A421DD1FA797B799A4207D9584A87
:102B0C00FB7913707B79FB71554B1B787B71FB79CF
:102B1C00BB7509E097F82820B979BB7D1846FFF7FB
:102B2C00CFFDBB7D0133BB75BA7D7B799A42F1D960
:102B3C0092E07B799AB2FB799BB2D31A9BB2FB8160
:102B4C003B799AB2BB799BB2D31A9BB2BB81B7F9D2
:102B5C000E30002B01DD012301E04FF0FF337B81B0
:102B6C00B7F90C30002B01DD012301E04FF0FF33EE
:102B7C003B81FB79BB82BB797B8200233B82B7F91B
:102B8C000E30002BB8BF5B429BB2FB81B7F90C3007
:102B9C00002BB8BF5B429BB2BB81B7F90E20B7F9D3
:102BAC000C309A422CDDFB79BB8223E0BB8ADBB272
:102BBC007A8AD1B297F828201846FFF781FD3A8A15
:102BCC00BB8913449BB23B82B7F910305A00B7F95A
:102BDC000E309A4209DB7A8A3B8913449BB27B8282
:102BEC003A8AFB89D31A9BB23B82BA8A7B891344FB
:102BFC009BB2BB82B7F914207B799A42D6D12BE0D9
:102C0C00BB797B8223E0BB8ADBB27A8AD1B297F89C
:102C1C0028201846FFF754FD3A8AFB8913449BB2CF
:102C2C003B82B7F910305A00B7F90C309A4209DBE5
:102C3C00BA8A7B8913449BB2BB823A8ABB89D31A6A
:102C4C009BB23B827A8A3B8913449BB27B82B7F955
:102C5C0012203B799A42D6D100BF1C37BD4690BD9D
:102C6C00FA08002090B585B002AF0446084611461C
:102C7C001A462346FB710346BB710B467B71134608
:102C8C003B71FA797B791344DAB2BC79B979F8796A
:102C9C003B7E00932346FFF7F9FEBA793B79134448
:102CAC00D9B2FA797B791344DCB2BA793B79134403
:102CBC00DAB2F8793B7E009313462246FFF7E6FE24
:102CCC00BA793B791344DCB2FA79B979F8793B7E5D
:102CDC0000932346FFF7DAFEFA797B791344D8B2D6
:102CEC00FA797B791344DCB2BA793B791344DAB2C2
:102CFC00B9793B7E009313462246FFF7C7FE00BF0F
:102D0C000C37BD4690BD90B585B000AF0446084663
:102D1C0011461A462346FB710346BB710B467B7169
:102D2C0013463B710023FB817B79BB817B799BB282
:102D3C005B009BB2C3F103039BB27B81B3E0BB8905
:102D4C00DBB2FA79D31AD8B2FB89DBB2BA79D31ACF
:102D5C00DBB23A791946FFF7B3FCBB89DAB2FB79DF
:102D6C001344D8B2FB89DBB2BA79D31ADBB23A7905
:102D7C001946FFF7A5FCFB89DBB2FA79D31AD8B256
:102D8C00BB89DAB2BB791344DBB23A791946FFF747
:102D9C0097FCBB89DBB2FA79D31AD8B2FB89DBB2C8
:102DAC00BA79D31ADBB23A791946FFF789FCFB8959
:102DBC00DBB2FA79D31AD8B2BB89DBB2BA79D31A9F
:102DCC00DBB23A791946FFF77BFCBB89DAB2FB79A7
:102DDC001344D8B2FB89DAB2BB791344DBB23A792B
:102DEC001946FFF76DFCFB89DAB2FB791344D8B2B4
:102DFC00BB89DBB2BA79D31ADBB23A791946FFF741
:102E0C005FFCFB89DAB2FB791344D8B2BB89DAB226
:102E1C00BB791344DBB23A791946FFF751FCBB89F5
:102E2C00DBB2FA79D31AD8B2FB89DAB2BB79134484
:102E3C00DBB23A791946FFF743FCB7F90E309BB277
:102E4C0001339BB2FB81B7F90A30002B09DAFB89FD
:102E5C009B009AB27B8913449BB206339BB27B8155
:102E6C0013E0B7F90E20B7F90C30D31A9BB29B00C4
:102E7C009AB27B8913449BB20A339BB27B81B7F91C
:102E8C000C309BB2013B9BB2BB81FB89DAB2FB7964
:102E9C001344D8B2BB89DAB2BB791344DBB23A79AA
:102EAC001946FFF70DFCB7F90E20B7F90C309A4212
:102EBC007FF745AF00BF00BF1437BD4690BDB0B51E
:102ECC0084B002AF3A601A460346FB710B46BB71E5
:102EDC0013467B713B685C683B681D783B685B788C
:102EEC00B979F8797A79019200932B462246FFF74B
:102EFC005BFD00BF0837BD46B0BDB0B584B002AFB6
:102F0C003B600346FB710B46BB7113467B713B6800
:102F1C005A687B79A3F120013B681B780733002B9F
:102F2C0000DA0733DB1018463B685B7800FB03F3D1
:102F3C0001FB03F3D4183B685D783B681B78B979C7
:102F4C00F8793A7E019200932B462246FFF72CFD2E
:102F5C0000BF0837BD46B0BD80B588B002AFBA60BF
:102F6C007B600346FB730B46BB73FB7BFB7511E06D
:102F7C00BB681A78B97BF87D97F8203000937B6892
:102F8C00FFF7BBFF7B685A78FB7D1344FB75BB686E
:102F9C000133BB60BB681B78002BE9D100BF00BFBD
:102FAC001837BD4680BD80B483B000AF78607B68B5
:102FBC001B785BB2002B01DB012318E07B681B78CC
:102FCC0003F0E003C02B01D1022310E07B681B78D7
:102FDC0003F0F003E02B01D1032308E07B681B789E
:102FEC0003F0F803F02B01D1042300E00023184672
:102FFC000C37BD4680BC7047B0B58AB002AFBA6022
:10300C007B600346FB730B46BB730023FB837B681F
:10301C001B780733002B00DA0733DB10DBB27A683E
:10302C00527802FB03F3DBB20433FB767DE0002322
:10303C007B77FB8BBA6813441846FFF7B4FF034643
:10304C00BB76BB7E002B78D000233B7732E07B68CD
:10305C005B683A7FF97E01FB02F213447B61FB8BC8
:10306C00BA681344BA7E7969184602F044FD0346E7
:10307C00002B1CD17B691C1D7B685D787B681B78E1
:10308C00B97BF87B97F83020019200932B462246AF
:10309C00FFF78AFC7B685A78FB7B1344FB73BB7E7F
:1030AC009AB2FB8B1344FB8301237B7707E03B7FB6
:1030BC0001333B777B681B7A3A7F9A42C7D37B7F7D
:1030CC00002B32D1BB7E012B19D1FB8BBA68134478
:1030DC001A787B68DC68B97BF87B97F83030009302
:1030EC002346FFF70AFF7B68DB685A78FB7B1344A7
:1030FC00FB73BB7E9AB2FB8B1344FB8315E07B689E
:10310C00DA68B97BF87B97F83030009313462022AD
:10311C00FFF7F3FE7B68DB685A78FB7B1344FB7389
:10312C00BB7E9AB2FB8B1344FB83FB8BBA681344B4
:10313C001B78002B7FF47BAF00E000BF00BF203773
:10314C00BD46B0BD80B483B000AF03460A46FB80D9
:10315C001346BB80B7F90630002B35DBB7F90630C8
:10316C007F2B31DCB7F90430002B2DDBB7F90430A1
:10317C003F2B29DCB7F90430002B00DA0733DB10C6
:10318C0018B20246B7F906301249D2010A44134468
:10319C001B785AB2B7F90430594203F0070301F017
:1031AC00070158BF4B421BB2194601238B405BB23F
:1031BC00134359B20246B7F90630C8B20549D201D9
:1031CC000A44134402461A7000BF0C37BD4680BC3B
:1031DC00704700BF7804002080B500AF084B1B6817
:1031EC00074A43F010031360032000F047F9002056
:1031FC0000F008F8FEF7DCFF0023184680BD00BF86
:10320C000020024080B582B000AF7860124B1A6883
:10321C00124B1B7819464FF47A73B3FBF1F3B2FBE4
:10322C00F3F3184600F05FF90346002B01D001239D
:10323C000EE07B680F2B0AD8002279684FF0FF3024
:10324C0000F027F9064A7B681360002300E0012395
:10325C0018460837BD4680BDF00200200003002050
:10326C00FC02002080B400AF054B1B781A46054BBE
:10327C001B681344034A136000BFBD4680BC7047F3
:10328C0000030020FC08002080B400AF024B1B6838
:10329C001846BD4680BC7047FC08002080B584B041
:1032AC0000AF7860FFF7F0FFB8607B68FB60FB68ED
:1032BC00B3F1FF3F05D00A4B1B781A46FB68134449
:1032CC00FB6000BFFFF7E0FF0246BB68D31AFA6849
:1032DC009A42F7D800BF00BF1037BD4680BD00BF73
:1032EC000003002080B485B000AF78607B6803F0E9
:1032FC000703FB600C4BDB68BB60BA684FF6FF033F
:10330C001340BB60FB681A02BB68134343F0BF63F6
:10331C0043F40033BB60044ABB68D36000BF14376E
:10332C00BD4680BC704700BF00ED00E080B400AF2C
:10333C00044BDB681B0A03F007031846BD4680BC30
:10334C00704700BF00ED00E080B483B000AF0346CF
:10335C00FB7197F90730002B0BDBFB7903F01F0295
:10336C00064997F907305B09012000FA02F241F88F
:10337C00232000BF0C37BD4680BC704700E100E045
:10338C0080B483B000AF03463960FB7197F9073006
:10339C00002B0ADB3B68DAB20C4997F907301201B3
:1033AC00D2B20B4483F800230AE03B68DAB2084936
:1033BC00FB7903F00F03043B1201D2B20B441A76D3
:1033CC0000BF0C37BD4680BC704700BF00E100E079
:1033DC0000ED00E080B489B000AFF860B9607A60AD
:1033EC00FB6803F00703FB61FB69C3F10703042BC4
:1033FC0028BF0423BB61FB690433062B02D9FB698C
:10340C00033B00E000237B614FF0FF32BB6902FA03
:10341C0003F3DA43BB681A407B699A404FF0FF31E3
:10342C007B6901FA03F3D9437B680B4013431846BD
:10343C002437BD4680BC704780B582B000AF786041
:10344C007B68013BB3F1807F01D301230FE00A4A73
:10345C007B68013B53600F214FF0FF30FFF790FF6B
:10346C00054B00229A60044B07221A600023184671
:10347C000837BD4680BD00BF10E000E080B582B0CB
:10348C0000AF78607868FFF72DFF00BF0837BD46A6
:10349C0080BD80B586B000AF0346B9607A60FB731F
:1034AC0000237B61FFF742FF78617A68B96878691D
:1034BC00FFF790FF024697F90F3011461846FFF7B9
:1034CC005FFF00BF1837BD4680BD80B582B000AF2E
:1034DC000346FB7197F907301846FFF735FF00BF1D
:1034EC000837BD4680BD80B582B000AF7860786883
:1034FC00FFF7A2FF034618460837BD4680BD000003
:10350C0080B48BB000AF7860396000237B620023FD
:10351C003B6269E101227B6A02FA03F3FB613B68BF
:10352C001B68FA691340BB61BA69FB699A4240F0A7
:10353C0058813B685B689A4A93425ED0984A9342A2
:10354C0075D8984A934258D0964A93426FD8964A67
:10355C00934252D0944A934269D8944A93424CD0A5
:10356C00924A934263D8924A934246D0904A9342ED
:10357C005DD8122B2AD8122B59D801A252F823F05D
:10358C0007360008E1350008F33500083536000829
:10359C003B3600083B3600083B3600083B3600083B
:1035AC003B3600083B3600083B3600083B3600082B
:1035BC003B3600083B3600083B3600083B3600081B
:1035CC003B360008E9350008FD350008794A93427E
:1035DC0013D02CE03B68DB683B6229E03B68DB687E
:1035EC0004333B6224E03B68DB6808333B621FE03A
:1035FC003B68DB680C333B621AE03B689B68002B32
:10360C0002D104233B6213E03B689B68012B05D17C
:10361C0008233B627B68FA691A6109E008233B6264
:10362C007B68FA695A6103E000233B6200E000BF4B
:10363C00BB69FF2B01D87B6801E07B6804337B619D
:10364C00BB69FF2B02D87B6A9B0002E07B6A083BBC
:10365C009B003B617B691A680F213B6901FA03F3FC
:10366C00DB431A40396A3B6901FA03F31A437B695D
:10367C001A603B685B6803F08053002B00F0B1804C
:10368C004D4B9B694C4A43F0010393614A4B9B6938
:10369C0003F00103BB60BB68484A7B6A9B0802339A
:1036AC0052F82330FB607B6A03F003039B000F226C
:1036BC0002FA03F3DB43FA681340FB607B68404A71
:1036CC00934213D07B683F4A93420DD07B683E4AAD
:1036DC00934207D07B683D4A934201D1032306E015
:1036EC00042304E0022302E0012300E000237A6AB1
:1036FC0002F0030292009340FA681343FB602F49D7
:10370C007B6A9B080233FA6841F823203B685B68AC
:10371C0003F48033002B06D02D4B1A682C49BB695F
:10372C0013430B6006E02A4B1A68BB69DB4328493C
:10373C0013400B603B685B6803F40033002B06D02E
:10374C00234B5A682249BB6913434B6006E0204B5C
:10375C005A68BB69DB431E4913404B603B685B688E
:10376C0003F48013002B06D0194B9A681849BB69D7
:10377C0013438B6006E0164B9A68BB69DB43144914
:10378C0013408B603B685B6803F40013002B21D063
:10379C000F4BDA680E49BB691343CB6021E000BFC5
:1037AC000000321000003110000022100000211027
:1037BC000000121000001110001002400000014027
:1037CC0000080140000C01400010014000140140B1
:1037DC00000401400B4BDA68BB69DB430949134019
:1037EC00CB607B6A01337B623B681A687B6A22FA86
:1037FC0003F3002B7FF48EAE00BF00BF2C37BD4609
:10380C0080BC70470004014080B485B000AF786084
:10381C000B467B807B689A687B881340002B02D018
:10382C000123FB7301E00023FB73FB7B1846143769
:10383C00BD4680BC704780B483B000AF78600B4647
:10384C007B8013467B707B78002B03D07A887B6857
:10385C001A6103E07B881A047B681A6100BF0C377D
:10386C00BD4680BC7047000080B584B000AF786066
:10387C007B68002B01D101232BE17B6893F83D3051
:10388C00DBB2002B06D17B68002283F83C207868E1
:10389C00FEF74EFB7B68242283F83D207B681B6877
:1038AC001A687B681B6822F001021A607B681B682F
:1038BC001A687B681B6842F400421A607B681B68BC
:1038CC001A687B681B6822F400421A6000F0F6FF4D
:1038DC00F8607B685B68814A934207D8FB68804A32
:1038EC00934294BF01230023DBB206E0FB687D4AC0
:1038FC00934294BF01230023DBB2002B01D00123A0
:10390C00E7E0FB68784AA2FB03239B0CBB607B6857
:10391C001B685B6823F03F017B681B68BA680A432D
:10392C005A607B681B681B6A23F03F017B685B68ED
:10393C006A4A934202D8BB68013309E0BB684FF472
:10394C00967202FB03F3694AA2FB03239B09013322
:10395C007A6812680B4313627B681B68DB6923F47B
:10396C004F4222F0FF027B685B685C498B4219D89E
:10397C00FB68591E7B685B685B00B1FBF3F3591C59
:10398C0040F6FC730B40002B0AD0FB68591E7B6879
:10399C005B685B00B1FBF3F30133C3F30B0351E042
:1039AC0004234FE07B689B68002B11D1FB68581EE9
:1039BC007B6859680B465B000B44B0FBF3F3013397
:1039CC00C3F30B03002B0CBF01230023DBB212E06B
:1039DC00FB68581E7B6859680B469B000B4499008A
:1039EC000B44B0FBF3F30133C3F30B03002B0CBFFD
:1039FC0001230023DBB2002B01D0012322E07B68E2
:103A0C009B68002B0ED1FB68581E7B6859680B46CF
:103A1C005B000B44B0FBF3F30133C3F30B0343F430
:103A2C0000430FE0FB68581E7B6859680B469B00EF
:103A3C000B4499000B44B0FBF3F30133C3F30B03BA
:103A4C0043F44043796809681343CB617B681B6876
:103A5C001B6823F0C0017B68DA697B681B6A1A4318
:103A6C007B681B680A431A607B681B689B6823F49D
:103A7C00034323F0FF037A6811697A68D268114313
:103A8C007A6812680B4393607B681B68DB6823F0D1
:103A9C00FF017B685A697B689B691A437B681B68CA
:103AAC000A43DA607B681B681A687B681B6842F003
:103ABC0001021A607B6800221A647B68202283F85A
:103ACC003D207B6800221A637B68002283F83E202D
:103ADC00002318461037BD4680BD00BFA0860100EC
:103AEC007F841E00FF083D0083DE1B43D34D621014
:103AFC0080B588B002AFF8607A601A460B467B81BD
:103B0C0013463B81FFF7C0FB7861FB6893F83D30AF
:103B1C00DBB2202B40F0E0807B690093192301225B
:103B2C007049F86800F064F90346002B01D00223B9
:103B3C00D3E0FB6893F83C30012B01D10223CCE09D
:103B4C00FB68012283F83C20FB681B681B6803F0B0
:103B5C000103012B07D0FB681B681A68FB681B6804
:103B6C0042F001021A60FB681B681A68FB681B684C
:103B7C0022F400621A60FB68212283F83D20FB6866
:103B8C00102283F83E20FB6800221A64FB687A68D6
:103B9C005A62FB683A895A85FB685B8D9AB2FB685E
:103BAC001A85FB68504ADA6279897B693A6AF86847
:103BBC0000F09CF80346002B01D001238DE000237C
:103BCC003B61FB681B685B693B61FB681B689B691D
:103BDC003B613B6966E07A69396AF86800F0DEF9A6
:103BEC000346002B0DD0FB681B6C042B07D1FB6824
:103BFC001B681A68FB681B6842F400721A60012388
:103C0C006BE0FB685B6A1A78FB681B681A61FB68DF
:103C1C005B6A5A1CFB685A62FB685B8D9BB2013B6A
:103C2C009AB2FB685A85FB681B8D013B9AB2FB6804
:103C3C001A85FB681B685B6903F00403042B1BD11A
:103C4C00FB681B8D002B17D0FB685B6A1A78FB682E
:103C5C001B681A61FB685B6A5A1CFB685A62FB683A
:103C6C005B8D9BB2013B9AB2FB685A85FB681B8D3E
:103C7C00013B9AB2FB681A857A69396AF86800F0D8
:103C8C00CEF90346002B0DD0FB681B6C042B07D11F
:103C9C00FB681B681A68FB681B6842F400721A60A8
:103CAC0001231AE0FB681B8D002B94D1FB681B6869
:103CBC001A68FB681B6842F400721A60FB682022C9
:103CCC0083F83D20FB68002283F83E20FB6800222D
:103CDC0083F83C20002300E0022318461837BD4629
:103CEC0080BD00BF020010000000FFFF80B588B04F
:103CFC0002AFF8607A603B600B467B81FB68DB6A45
:103D0C007B617B69082B06D07B69012B03D07B6917
:103D1C0013F5803F08D1FB681B681A68FB681B68A9
:103D2C0042F480721A600BE0FB681B6B122B07D1FC
:103D3C00FB681B681A68FB681B6842F480721A6087
:103D4C003B6800937B6800224FF00111F86800F08B
:103D5C004FF80346002B0DD0FB681B681B6803F45F
:103D6C008073B3F5807F03D1FB684FF400721A6443
:103D7C00032335E0FB681B69B3F5804F08D17B89C1
:103D8C00DBB21A46FB681B6802F0FE021A611BE0EC
:103D9C007B89DB11DBB203F00603DBB263F00F03AC
:103DAC00DAB2FB681B681A613B687A680E49F868DE
:103DBC0000F075F80346002B01D0012310E07B893D
:103DCC00DAB2FB681B681A613B687A680749F868C5
:103DDC0000F065F80346002B01D0012300E000231E
:103DEC0018461837BD4680BD0800010002000100CE
:103DFC0080B584B000AFF860B9603B601346FB71CE
:103E0C0025E03B68B3F1FF3F21D0FFF73DFA0246B6
:103E1C00BB69D31A3A689A4202D33B68002B16D17D
:103E2C00FB6800221A63FB68202283F83D20FB68A4
:103E3C00002283F83E20FB681B6C43F02002FB68D9
:103E4C001A64FB68002283F83C20012323E0BB6842
:103E5C001B0CDBB2012B0DD1FB681B685B69DA43D1
:103E6C00BB6813409BB2002B0CBF01230023DBB2B9
:103E7C001A460CE0FB681B689B69DA43BB6813406D
:103E8C009BB2002B0CBF01230023DBB21A46FB793B
:103E9C009A42B6D0002318461037BD4680BD80B577
:103EAC0084B000AFF860B9607A603B6051E0FB68A9
:103EBC001B685B6903F48063B3F5806F23D1FB68E7
:103ECC001B681A68FB681B6842F400721A60FB6876
:103EDC001B686FF480625A61FB6800221A63FB68EE
:103EEC00202283F83D20FB68002283F83E20FB68EB
:103EFC001B6C43F00402FB681A64FB68002283F815
:103F0C003C20012346E07B68B3F1FF3F21D0FFF753
:103F1C00BBF902463B68D31A7A689A4202D37B6893
:103F2C00002B16D1FB6800221A63FB68202283F851
:103F3C003D20FB68002283F83E20FB681B6C43F09D
:103F4C002002FB681A64FB68002283F83C200123E2
:103F5C0020E0BB681B0CDBB2012B0CD1FB681B688F
:103F6C005B69DA43BB6813409BB2002B14BF01237F
:103F7C000023DBB20BE0FB681B689B69DA43BB6870
:103F8C0013409BB2002B14BF01230023DBB2002B88
:103F9C008DD1002318461037BD4680BD80B584B046
:103FAC0000AFF860B9607A602DE0F86800F078F83E
:103FBC000346002B01D001232DE0BB68B3F1FF3F7A
:103FCC0021D0FFF761F902467B68D31ABA689A428E
:103FDC0002D3BB68002B16D1FB6800221A63FB6866
:103FEC00202283F83D20FB68002283F83E20FB68EA
:103FFC001B6C43F02002FB681A64FB68002283F8F8
:10400C003C20012307E0FB681B685B6903F080031D
:10401C00802BCAD1002318461037BD4680BD80B511
:10402C0084B000AFF860B9607A602DE0F86800F0F9
:10403C0037F80346002B01D001232DE0BB68B3F108
:10404C00FF3F21D0FFF720F902467B68D31ABA68EC
:10405C009A4202D3BB68002B16D1FB6800221A636C
:10406C00FB68202283F83D20FB68002283F83E2069
:10407C00FB681B6C43F02002FB681A64FB6800228F
:10408C0083F83C20012307E0FB681B685B6903F0A5
:10409C000403042BCAD1002318461037BD4680BD3B
:1040AC0080B483B000AF78607B681B685B6903F4F5
:1040BC008063B3F5806F1BD17B681B686FF48062E3
:1040CC005A617B6800221A637B68202283F83D20AA
:1040DC007B68002283F83E207B681B6C43F0040253
:1040EC007B681A647B68002283F83C20012300E083
:1040FC00002318460C37BD4680BC704780B400AF17
:10410C00034B01221A6000BFBD4680BC704700BF44
:10411C0020000E4280B586B000AF78607B68002B23
:10412C0001D1012372E27B681B6803F00103002BB1
:10413C0000F08780924B5B6803F00C03042B0CD0CF
:10414C008F4B5B6803F00C03082B12D18C4B5B6814
:10415C0003F48033B3F5803F0BD1894B1B6803F418
:10416C000033002B6CD07B685B68002B68D101237B
:10417C004CE27B685B68B3F5803F06D1804B1B68D3
:10418C007F4A43F4803313602EE07B685B68002B1E
:10419C000CD17B4B1B687A4A23F480331360784B29
:1041AC001B68774A23F4802313601DE07B685B68EF
:1041BC00B3F5A02F0CD1724B1B68714A43F48023CA
:1041CC0013606F4B1B686E4A43F4803313600BE033
:1041DC006B4B1B686A4A23F480331360684B1B6873
:1041EC00674A23F4802313607B685B68002B13D031
:1041FC00FFF74AF8386108E0FFF746F802463B69DA
:10420C00D31A642B01D9032300E25D4B1B6803F422
:10421C000033002BF0D014E0FFF736F8386108E0DB
:10422C00FFF732F802463B69D31A642B01D90323FA
:10423C00ECE1534B1B6803F40033002BF0D100E08E
:10424C0000BF7B681B6803F00203002B63D04C4B50
:10425C005B6803F00C03002B0BD0494B5B6803F03D
:10426C000C03082B1CD1464B5B6803F48033002BEA
:10427C0016D1434B1B6803F00203002B05D07B685F
:10428C001B69012B01D00123C0E13D4B1B6823F0BE
:10429C00F8027B685B69DB00394913430B603AE039
:1042AC007B681B69002B20D0364B01221A60FEF76D
:1042BC00EBFF386108E0FEF7E7FF02463B69D31AD3
:1042CC00022B01D90323A1E12D4B1B6803F0020340
:1042DC00002BF0D02A4B1B6823F0F8027B685B693B
:1042EC00DB00274913430B6015E0264B00221A60B4
:1042FC00FEF7CAFF386108E0FEF7C6FF02463B69CD
:10430C00D31A022B01D9032380E11D4B1B6803F048
:10431C000203002BF0D17B681B6803F00803002B11
:10432C003AD07B689B69002B19D0174B01221A607D
:10433C00FEF7AAFF386108E0FEF7A6FF02463B69CC
:10434C00D31A022B01D9032360E10D4B5B6A03F0F6
:10435C000203002BF0D0012000F0D8FA1CE00A4B2D
:10436C0000221A60FEF790FF38610FE0FEF78CFF19
:10437C0002463B69D31A022B08D9032346E100BF3E
:10438C00001002400000424280044242924B5B6AA1
:10439C0003F00203002BE9D17B681B6803F00403D4
:1043AC00002B00F0A6800023FB758B4BDB6903F020
:1043BC008053002B0DD1884BDB69874A43F0805327
:1043CC00D361854BDB6903F08053BB60BB68012371
:1043DC00FB75824B1B6803F48073002B18D17F4B49
:1043EC001B687E4A43F480731360FEF74DFF3861FF
:1043FC0008E0FEF749FF02463B69D31A642B01D94A
:10440C00032303E1754B1B6803F48073002BF0D07E
:10441C007B68DB68012B06D16F4B1B6A6E4A43F03D
:10442C00010313622DE07B68DB68002B0CD16A4B17
:10443C001B6A694A23F001031362674B1B6A664AC5
:10444C0023F0040313621CE07B68DB68052B0CD1A2
:10445C00614B1B6A604A43F0040313625E4B1B6A98
:10446C005D4A43F0010313620BE05B4B1B6A5A4A33
:10447C0023F001031362584B1B6A574A23F00403C1
:10448C0013627B68DB68002B15D0FEF7FDFE3861EC
:10449C000AE0FEF7F9FE02463B69D31A41F2883274
:1044AC00934201D90323B1E04B4B1B6A03F0020387
:1044BC00002BEED014E0FEF7E7FE38610AE0FEF7C1
:1044CC00E3FE02463B69D31A41F28832934201D98A
:1044DC0003239BE0404B1B6A03F00203002BEED13D
:1044EC00FB7D012B05D13C4BDB693B4A23F0805310
:1044FC00D3617B68DB69002B00F08780364B5B68EF
:10450C0003F00C03082B61D07B68DB69022B46D1CE
:10451C00334B00221A60FEF7B7FE386108E0FEF755
:10452C00B3FE02463B69D31A022B01D903236DE07B
:10453C00294B1B6803F00073002BF0D17B681B6ABE
:10454C00B3F5803F08D1244B5B6823F400327B68C1
:10455C009B68214913434B601F4B5B6823F4741217
:10456C007B68196A7B685B6A0B431B4913434B607E
:10457C001B4B01221A60FEF787FE386108E0FEF73C
:10458C0083FE02463B69D31A022B01D903233DE07B
:10459C00114B1B6803F00073002BF0D035E0104B6F
:1045AC0000221A60FEF770FE386108E0FEF76CFE20
:1045BC0002463B69D31A022B01D9032326E0064B92
:1045CC001B6803F00073002BF0D11EE07B68DB69E5
:1045DC00012B07D1012319E00010024000700040AC
:1045EC00600042420B4B5B68FB60FB6803F480325B
:1045FC007B681B6A9A4206D1FB6803F470127B68D5
:10460C005B6A9A4201D0012300E000231846183758
:10461C00BD4680BD0010024080B584B000AF78600C
:10462C0039607B68002B01D10123D0E06A4B1B68F9
:10463C0003F007033A689A4210D9674B1B6823F0C2
:10464C00070265493B6813430B60634B1B6803F01F
:10465C0007033A689A4201D00123B8E07B681B68D3
:10466C0003F00203002B20D07B681B6803F00403CB
:10467C00002B05D0594B5B68584A43F4E0635360F8
:10468C007B681B6803F00803002B05D0534B5B6859
:10469C00524A43F460535360504B5B6823F0F00272
:1046AC007B689B684D4913434B607B681B6803F028
:1046BC000103002B40D07B685B68012B07D1474B73
:1046CC001B6803F40033002B15D101237FE07B68BA
:1046DC005B68022B07D1414B1B6803F00073002B66
:1046EC0009D1012373E03D4B1B6803F00203002B3F
:1046FC0001D101236BE0394B5B6823F003027B682B
:10470C005B68364913434B60FEF7BEFDF8600AE068
:10471C00FEF7BAFD0246FB68D31A41F28832934287
:10472C0001D9032353E02D4B5B6803F00C027B682B
:10473C005B689B009A42EBD1274B1B6803F0070385
:10474C003A689A4210D2244B1B6823F00702224984
:10475C003B6813430B60204B1B6803F007033A685C
:10476C009A4201D0012332E07B681B6803F00403FA
:10477C00002B08D0194B5B6823F4E0627B68DB6884
:10478C00164913434B607B681B6803F00803002B2E
:10479C0009D0124B5B6823F460527B681B69DB0009
:1047AC000E4913434B6000F021F802460B4B5B683B
:1047BC001B0903F00F030A49CB5C22FA03F3094AE5
:1047CC001360094B1B681846FEF71CFD00231846A6
:1047DC001037BD4680BD00BF0020024000100240D3
:1047EC00486F0008F0020020FC02002090B48AB050
:1047FC0000AF294B3C1D0FCB84E80F0040F2012386
:10480C003B800023FB610023BB6100237B62002300
:10481C007B6100233B62214B5B68FB61FB6903F00E
:10482C000C03042B02D0082B03D02BE01C4B3B6257
:10483C002BE0FB699B0C03F00F0328333B4413F86C
:10484C00243C7B61FB6903F48033002B12D0134BA7
:10485C005B685B0C03F0010328333B4413F8283CE2
:10486C00BB617B690E4A03FB02F2BB69B2FBF3F33B
:10487C007B6204E07B690B4A02FB03F37B627B6A7D
:10488C003B6202E0064B3B6200BF3B6A184628378E
:10489C00BD4690BC704700BF606D00080010024020
:1048AC0000127A0000093D0080B400AF024B1B6877
:1048BC001846BD4680BC7047F002002080B500AFA2
:1048CC00FFF7F2FF0246054B5B681B0A03F0070378
:1048DC000349CB5C22FA03F3184680BD001002405A
:1048EC00586F000880B500AFFFF7DEFF0246054B9E
:1048FC005B68DB0A03F007030349CB5C22FA03F382
:10490C00184680BD00100240586F000880B485B076
:10491C0000AF78600A4B1B680A4AA2FB03235B0AB0
:10492C007A6802FB03F3FB6000BFFB685A1EFA6057
:10493C00002BF9D100BF00BF1437BD4680BC7047B7
:10494C00F0020020D34D621080B586B000AF7860C5
:10495C0000233B610023FB607B681B6803F00103B1
:10496C00002B7DD00023FB754F4BDB6903F080538C
:10497C00002B0DD14C4BDB694B4A43F08053D36178
:10498C00494BDB6903F08053BB60BB680123FB75AB
:10499C00464B1B6803F48073002B18D1434B1B68E8
:1049AC00424A43F480731360FEF76EFC386108E0F2
:1049BC00FEF76AFC02463B69D31A642B01D9032328
:1049CC006DE03A4B1B6803F48073002BF0D0364B30
:1049DC001B6A03F44073FB60FB68002B2ED07B68D2
:1049EC005B6803F44073FA689A4227D02E4B1B6A1B
:1049FC0023F44073FB602E4B01221A602C4B0022D7
:104A0C001A60294AFB681362FB6803F00103002B50
:104A1C0014D0FEF739FC38610AE0FEF735FC02468B
:104A2C003B69D31A41F28832934201D9032336E011
:104A3C001D4B1B6A03F00203002BEED01A4B1B6AB2
:104A4C0023F440727B685B68174913430B62FB7D50
:104A5C00012B05D1144BDB69134A23F08053D3612E
:104A6C007B681B6803F00203002B08D00E4B5B68BD
:104A7C0023F440427B689B680B4913434B607B6873
:104A8C001B6803F01003002B08D0074B5B6823F462
:104A9C0080027B68DB68044913434B600023184693
:104AAC001837BD4680BD00BF0010024000700040AA
:104ABC004004424290B58DB000AF7860584B07F17E
:104ACC000C040FCB84E80F0040F201233B81002340
:104ADC007B620023FB6200233B620023FB6100230B
:104AEC00BB627B68102B0AD07B68102B00F28E8087
:104AFC007B68012B49D07B68022B79D086E0494B2F
:104B0C005B68FB61474B1B6803F08073002B7FD005
:104B1C00FB699B0C03F00F0330333B4413F8243C2C
:104B2C003B62FB6903F48033002B17D03D4B5B6871
:104B3C005B0C03F0010330333B4413F8283C7B62DD
:104B4C00FB6903F48033002B0DD0374A7B6AB2FB30
:104B5C00F3F23B6A02FB03F3FB6204E03B6A334A69
:104B6C0002FB03F3FB622F4B5B6803F48003B3F58A
:104B7C00800F02D1FB6ABB624AE0FB6A5B002C4AE5
:104B8C00A2FB03235B08BB6242E0264B1B6AFB6162
:104B9C00FB6903F44073B3F5807F08D1FB6903F024
:104BAC000203002B03D04FF40043BB621FE0FB69F0
:104BBC0003F44073B3F5007F09D11A4B5B6A03F021
:104BCC000203002B03D049F64043BB620FE0FB69A4
:104BDC0003F44073B3F5407F1CD1124B1B6803F4F4
:104BEC000033002B16D04FF22443BB6212E011E0CD
:104BFC00FFF778FE02460B4B5B689B0B03F003033D
:104C0C0001335B00B2FBF3F3BB6204E000BF02E0D4
:104C1C0000BF00E000BFBB6A18463437BD4690BDEC
:104C2C00706D00080010024000127A0000093D006F
:104C3C00ABAAAAAA80B584B000AF78600023FB6051
:104C4C007B68002B01D1012384E07B685B7CDBB2A9
:104C5C00002B05D17B6800221A747868FDF77CFA6A
:104C6C007B6802225A74786800F0F4FA0346002B31
:104C7C0004D07B6804225A7401236BE0786800F03E
:104C8C00ADFB0346002B04D07B6804225A7401232D
:104C9C0060E07B681B685A687B681B6822F007021F
:104CAC005A607B689B68002B05D02C4B1B6B2B4AE6
:104CBC0023F001031363294BDB6A23F460727B68D6
:104CCC009B6826491343CB627B685B68B3F1FF3F5B
:104CDC0003D07B685B68FB600EE00120FFF7EAFE07
:104CEC00F860FB68002B04D17B6804225A74012302
:104CFC0030E0FB68013BFB607B681B689B6823F022
:104D0C000F01FB681A0C7B681B680A439A607B686E
:104D1C001B68DB681B0C1B04FA6891B27A6812687A
:104D2C000B43D360786800F081FB0346002B04D062
:104D3C007B6804225A7401230CE07B680022DA732E
:104D4C007B6801225A737B6801229A737B6801226B
:104D5C005A74002318461037BD4680BD006C0040C5
:104D6C0090B587B000AFF860B9607A6000237B61C2
:104D7C0000233B61FB68002B02D0BB68002B01D1E8
:104D8C00012380E0FB681B7C012B01D102237AE01C
:104D9C00FB6801221A74FB6802225A747B68002B90
:104DAC0013D1BB681B781A464FF4616303FB02F204
:104DBC00BB685B7819460B461B015B1A9B001344BE
:104DCC00BA68927813447B611EE0BB681B78184666
:104DDC0000F071FB03461A464FF4616303FB02F4C7
:104DEC00BB685B78184600F066FB03461A46134610
:104DFC001B019B1A9B001C44BB689B78184600F057
:104E0C005AFB034623447B617969F86800F07FFA0A
:104E1C000346002B07D0FB6804225A74FB6800225F
:104E2C001A7401232FE0FB681B685A68FB681B6827
:104E3C0022F005025A60F86800F090FA38613B697C
:104E4C00B3F1FF3F18D03A697B699A4214D23B699F
:104E5C0003F5A83303F5C0733B613969F86800F0BA
:104E6C0096FA0346002B07D0FB6804225A74FB68A1
:104E7C0000221A74012306E0FB6801225A74FB68B5
:104E8C0000221A74002318461C37BD4690BD000042
:104E9C0080B588B000AFF860B9607A600023BB6160
:104EAC000023FB6100237B6100233B61FB68002B2B
:104EBC0002D0BB68002B01D10123B5E0FB681B6855
:104ECC005B6803F00403002B01D00123ACE0F8680D
:104EDC0000F0EDF9B861BB69554AA2FB0323DB0A6C
:104EEC003B61BA69524BA3FB0213DB0A4FF46161BD
:104EFC0001FB03F3D31A4F4AA2FB03235B09DAB27B
:104F0C00BB685A70BB694A4AA2FB0312D20A4FF41F
:104F1C00616101FB02F29A1A464BA3FB0213590979
:104F2C000B461B015B1A9B00D11ACAB2BB689A7064
:104F3C003B69172B55D93B693F4AA2FB03231B093D
:104F4C007B6139693C4BA3FB01231A0913465B00B7
:104F5C001344DB00CA1AD2B2BB681A70F86800F0AE
:104F6C00FDF9F861FB69B3F1FF3F08D0FA69BB6941
:104F7C009A4204D9FA69BB69D31AFB6102E04FF07B
:104F8C00FF33FB617B692D4A02FB03F3BA69D31A29
:104F9C00BB61B969F86800F0BAF90346002B01D07F
:104FAC00012341E0FB69B3F1FF3F0CD0FA69BB6907
:104FBC001344FB61F969F86800F0E9F90346002B2A
:104FCC000AD0012330E0F969F86800F0E0F90346F3
:104FDC00002B01D0012327E07969F86800F088FAEA
:104FEC0003E03B69DAB2BB681A707B68002B1AD0FD
:104FFC00BB681B78184600F041FA03461A46BB689A
:10500C001A70BB685B78184600F038FA03461A46EB
:10501C00BB685A70BB689B78184600F02FFA0346A1
:10502C001A46BB689A70002318462037BD4680BDCF
:10503C00C5B3A29189888888ABAAAAAA805101001D
:10504C0080B588B000AFF860B9607A600023FB616E
:10505C000023BB6100237B61FB68002B02D0BB6883
:10506C00002B01D1012397E0FB681B7C012B01D1A4
:10507C00022391E0FB6801221A74FB6802225A7425
:10508C007B68002B0CD1BB68DA78FB68DA73BB68E1
:10509C005A78FB685A73BB689A78FB689A731AE063
:1050AC00BB68DB78184600F006FA03461A46FB6824
:1050BC00DA73BB685B78184600F0FDF903461A46B4
:1050CC00FB685A73BB689B78184600F0F4F90346EA
:1050DC001A46FB689A73FB68DB7B1846FB68597BA6
:1050EC00FB689B7B1A4600F0DFFA03461A46FB6806
:1050FC001A73FB681A7BBB681A70F86800F0D7F853
:10510C00F861FB69264AA2FB0323DB0A7B617B69FE
:10511C00182B3AD97B69234AA2FB03231B09224A89
:10512C0002FB03F3FA69D31AFB61F969F86800F022
:10513C00EEF80346002B07D0FB6804225A74FB6878
:10514C0000221A74012327E0F86800F007F9B8610F
:10515C00BB69B3F1FF3F18D0BA69FB699A4214D20C
:10516C00BB6903F5A83303F5C073BB61B969F86873
:10517C0000F00DF90346002B07D0FB6804225A748B
:10518C00FB6800221A74012306E0FB6801225A74A2
:10519C00FB6800221A74002318462037BD4680BDD8
:1051AC00C5B3A291ABAAAAAA8051010080B586B062
:1051BC0000AFF860B9607A6007F1140300210A4669
:1051CC001A800A469A70FB68002B02D0BB68002B31
:1051DC0001D101233AE007F1140300221946F868C3
:1051EC00FFF756FE0346002B01D001232EE0FB688F
:1051FC001A7BBB681A70FB68DA7BBB68DA70FB68D9
:10520C005A7BBB685A70FB689A7BBB689A707B6848
:10521C00002B1AD0BB68DB78184600F02FF9034638
:10522C001A46BB68DA70BB685B78184600F026F942
:10523C0003461A46BB685A70BB689B78184600F048
:10524C001DF903461A46BB689A7000231846183796
:10525C00BD4680BD80B584B000AF78600023FB6094
:10526C007B68002B01D101231DE07B681B685A6809
:10527C007B681B6822F008025A60FEF705F8F8609C
:10528C0009E0FEF701F80246FB68D31AB3F57A7F02
:10529C0001D9032307E07B681B685B6803F00803F4
:1052AC00002BEED0002318461037BD4680BD80B4CD
:1052BC0087B000AF786000237B8200233B82002301
:1052CC00FB8100237B617B681B689B697B827B680D
:1052DC001B68DB69FB817B681B689B693B827A8A54
:1052EC003B8A9A4208D03B8A1A047B681B68DB69AC
:1052FC009BB213437B6104E07B8A1A04FB89134342
:10530C007B617B6918461C37BD4680BC704780B5F5
:10531C0084B000AF786039600023FB73786800F0CC
:10532C005DF80346002B02D00123FB7311E07B6870
:10533C001B683A68120C9A617B681B683A6892B2D7
:10534C00DA61786800F072F80346002B01D0012373
:10535C00FB73FB7B18461037BD4680BD80B485B00F
:10536C0000AF78600023FB810023BB817B681B6846
:10537C001B6AFB817B681B685B6ABB81FB891A0417
:10538C00BB89134318461437BD4680BC704780B5A3
:10539C0084B000AF786039600023FB73786800F04C
:1053AC001DF80346002B02D00123FB7311E07B6830
:1053BC001B683A68120C1A627B681B683A6892B2D6
:1053CC005A62786800F032F80346002B01D00123B2
:1053DC00FB73FB7B18461037BD4680BD80B584B08F
:1053EC0000AF78600023FB60FDF74EFFF86009E02A
:1053FC00FDF74AFF0246FB68D31AB3F57A7F01D951
:10540C0003230FE07B681B685B6803F02003002B11
:10541C00EED07B681B685A687B681B6842F01002F0
:10542C005A60002318461037BD4680BD80B584B045
:10543C0000AF78600023FB607B681B685A687B6850
:10544C001B6822F010025A60FDF71EFFF86009E09D
:10545C00FDF71AFF0246FB68D31AB3F57A7F01D920
:10546C00032307E07B681B685B6803F02003002BB9
:10547C00EED0002318461037BD4680BD80B485B0F1
:10548C0000AF0346FB710023FB6005E0FB680133B2
:10549C00FB60FB790A3BFB71FB79092BF6D8FB68A7
:1054AC00DBB21B01DAB2FB791343DBB218461437BB
:1054BC00BD4680BC704780B485B000AF0346FB711D
:1054CC000023FB60FB791B09DBB21A4613469B00D9
:1054DC0013445B00FB60FB7903F00F03DAB2FB684B
:1054EC00DBB21344DBB218461437BD4680BC7047A0
:1054FC0080B586B000AF7860396000237B610023F3
:10550C003B610023FB600023BB607B68DB7B7B6122
:10551C007B685B7B3B617B689B7BFB600023BB6098
:10552C006FE03B69012B11D03B69032B0ED03B691B
:10553C00052B0BD03B69072B08D03B69082B05D0FA
:10554C003B690A2B02D03B690C2B17D1FB681E2B35
:10555C0003D8FB680133FB6050E03B690C2B05D092
:10556C003B6901333B610123FB6047E001233B6155
:10557C000123FB607B6901337B613FE03B69042BBA
:10558C0008D03B69062B05D03B69092B02D03B693F
:10559C000B2B0CD1FB681D2B03D8FB680133FB6074
:1055AC002CE03B6901333B610123FB6026E03B6946
:1055BC00022B23D1FB681B2B03D8FB680133FB6048
:1055CC001CE0FB681C2B11D17B699BB2184600F0C8
:1055DC0039F80346002B03D0FB680133FB600DE068
:1055EC003B6901333B610123FB6007E0FB681D2B2A
:1055FC0004D13B6901333B610123FB60BB68013380
:10560C00BB60BA683B689A428BD37B69DAB27B6821
:10561C00DA733B69DAB27B685A73FB68DAB27B687F
:10562C009A733B69DBB2FA68D2B21946786900F01A
:10563C003BF803461A467B681A7300BF1837BD4601
:10564C0080BD000080B483B000AF0346FB80FB88B4
:10565C0003F003039BB2002B01D000231DE0FB8859
:10566C00104AA2FB03125209642101FB02F29B1A9D
:10567C009BB2002B01D001230FE0FB88094AA2FB4F
:10568C000312D2094FF4C87101FB02F29B1A9BB2B0
:10569C00002B01D1012300E0002318460C37BD4636
:1056AC0080BC70471F85EB5180B485B000AF78602B
:1056BC000B46FB701346BB700023BB600023FB60E2
:1056CC007B6803F5FA63BB60FB78022B2DD8FA7864
:1056DC0013465B001344DB009B1A2C4AA2FB0323EA
:1056EC005A08BB781A44BB681A44BB68013B9B0838
:1056FC001A44BB68013B2649A1FB03135B09D21A70
:10570C00BB68013B2249A1FB0313DB0913441A1D9F
:10571C00204BA3FB0213D11A49080B4499080B46E2
:10572C00DB005B1AD31AFB6029E0FA7813465B00A6
:10573C001344DB009B1A154AA2FB03235A08BB78BF
:10574C001A44BB681A44BB689B081A44BB681049CE
:10575C00A1FB03135B09D21ABB680D49A1FB031310
:10576C00DB0913449A1C0B4BA3FB0213D11A4908F7
:10577C000B4499080B46DB005B1AD31AFB60FB68E1
:10578C00DBB218461437BD4680BC7047398EE338FF
:10579C001F85EB512549922480B582B000AF78600B
:1057AC007B681B681B6803F00103002B27D07B6808
:1057BC001B685B6803F00103002B20D07B681B681F
:1057CC005B6803F00403002B0BD0786800F024F81E
:1057DC007B681B686FF004025A607B6804225A7461
:1057EC0005E0786800F00FF87B6801225A747B683A
:1057FC001B685A687B681B6822F001025A6000BF64
:10580C000837BD4680BD80B483B000AF786000BF60
:10581C000C37BD4680BC704780B483B000AF786055
:10582C0000BF0C37BD4680BC70470000164B10B54E
:10583C001C68236BB3B9182000F05EFA0246206393
:10584C0020B95221114B124800F0F0F91149124BBA
:10585C00C0E90013114B002183600B2383810120CD
:10586C00C2E90401216B0E480B694C6958430D4A7F
:10587C0002FB0400A3FB0232013340EB0200C1E93E
:10588C00043020F0004010BD10030020188D0008DB
:10589C002F8D00080E33CDAB34126DE6ECDE050017
:1058AC002DF451582D7F954C002310B50446C0E9BA
:1058BC000033C0E90433836081814366C281836114
:1058CC00194608225C3000F026F90D4B2462636205
:1058DC000C4BA3620C4BE3620C4B23630C4B9C42B2
:1058EC0006D003F16802944202D0D0339C4205D119
:1058FC0004F15800BDE8104000F086B910BD00BF9F
:10590C007D5A00089F5A0008D75A0008FB5A000815
:10591C0000090020024A0349034800F069B800BF9F
:10592C0004030020416500081403002041680C4B5F
:10593C0010B59942044601D000F0FCFDA168094B5A
:10594C00994202D0204600F0F5FDE168064B9942E1
:10595C0004D02046BDE8104000F0ECBD10BD00BFE7
:10596C000009002068090020D009002010B50B4B5D
:10597C000B4C0C4A20461A6004210022FFF794FFBE
:10598C0004F1680001220921FFF78EFF04F1D00019
:10599C000222BDE810401221FFF786BF380A002012
:1059AC000009002021590008014800F02EB900BF61
:1059BC00410A0020014800F029B900BF410A00202B
:1059CC0010B50446FFF7F0FF236A1BB1BDE8104089
:1059DC00FFF7F0BF044B2362044B1B68002BF5D17F
:1059EC00FFF7C4FFF2E700BF39590008380A00205E
:1059FC002DE9F8430746884614460026D4E901955C
:105A0C00B9F1010905D52468002CF7D13046BDE861
:105A1C00F883AB89012B07D9B5F90E30013303D0CC
:105A2C0029463846C04706436835E9E70EB46FF09F
:105A3C00004110B500249DB01FAB02900690079159
:105A4C0004910948094953F8042B0591006802A9EF
:105A5C0001931B9400F062FA029B1C701DB0BDE810
:105A6C00104003B0704700BF100300200802FFFF76
:105A7C0010B50C46B1F90E1000F078F80028ABBF49
:105A8C00636DA3891B1823F48053ACBF6365A3819A
:105A9C0010BD2DE9F0411F468B890546DB050C46F0
:105AAC00164605D502230022B1F90E1000F04CF871
:105ABC00A389324623F48053A38128463B46B4F98C
:105ACC000E10BDE8F04100F063B810B50C46B1F90A
