:020000040800F2
:1000000000500020811400089D130008A51300086B
:10001000AD130008B5130008BD1300080000000070
:10002000000000000000000000000000C5130008F0
:10003000D113000800000000DD130008E9130008D8
:10004000C9140008C9140008C9140008F5130008F1
:10005000C9140008C9140008C9140008C91400080C
:10006000C9140008C9140008C9140008C9140008FC
:10007000C9140008C9140008C9140008C9140008EC
:10008000C9140008C9140008C9140008C9140008DC
:10009000C9140008C9140008C9140008C9140008CC
:1000A000C9140008C9140008C9140008C9140008BC
:1000B000C9140008C9140008C9140008C9140008AC
:1000C000C9140008C9140008C9140008C91400089C
:1000D000C9140008C9140008C9140008C91400088C
:1000E000C9140008C9140008C91400080000000061
:1000F0000000000000000000000000000000000000
:0C01000000000000000000005FF808F1A3
:10010C0010B5054C237833B9044B13B10448AFF345
:10011C0000800123237010BD980000200000000017
:10012C00544A000808B5034B1BB103490348AFF30D
:10013C00008008BD000000009C000020544A00080C
:10014C0080B584B002AF01237B6001F0ABFA0023D1
:10015C00124A27210A2001F0B7FD4FF40041104844
:10016C0002F030FA0346002B11D07B68DAB2002380
:10017C0000933F233F21002001F0BAFC01F09EFACE
:10018C007B6804337B607B687F2B02DCE5E700BF78
:10019C0000E000BF0837BD4680BD00BF944C00088E
:1001AC00000C014080B582B000AF03463960FB8083
:1001BC003B68002B07D1FB88D9B20023154A0A20D3
:1001CC0001F082FD21E03B68012B07D1FB88D9B2FD
:1001DC000023114A0A2001F077FD16E03B68B3F1C9
:1001EC00FF3F07D1FB88D9B200230C4A0A2001F04B
:1001FC006BFD0AE03B6813F1020F06D1FB88D9B204
:10020C000023074A0A2001F05FFD00BF0837BD46F6
:10021C0080BD00BF044C00084C4C0008944C0008F6
:10022C00BC4B000880B582B000AF03463960FB8040
:10023C00B7F906203B681B78C3F17F039A420BDCAD
:10024C00FB88D8B23B685B78C3F13F03D9B200237B
:10025C003A6801F039FD00E000BF0837BD4680BDAB
:10026C0080B584B002AF78600B46FB7097F9033011
:10027C00002B15D17A681849184803F0DDFF0023CC
:10028C000093174B174A0321482001F093FD0023DC
:10029C000093134B114A0321662001F08BFD16E0ED
:1002AC00114B1B681A460C490C4803F0C5FF002380
:1002BC0000930B4B0D4A16213C2001F07BFD0023D3
:1002CC000093074B054A1621662001F073FD00BF11
:1002DC000837BD4680BD00BF844A0008B800002026
:1002EC00FC5E0008884A0008B4000020944A00080C
:1002FC0080B586B002AFBA607B600346FB810B46CB
:10030C00BB81B7F918306FF001011846FFF74AFFAF
:10031C00B7F90E30396A1846FFF784FFB7F90C307D
:10032C00796A1846FFF77EFF002300933F237F2254
:10033C003F21002001F0DCFB0021B868FFF790FFA3
:10034C000D4B1B68BA689A420BDD0B4ABB681360F5
:10035C0000230093094B0A4A16214B2001F02AFD79
:10036C0003E00121B868FFF77BFF01F0A7F900BF9C
:10037C001037BD4680BD00BFB4000020FC5E0008F5
:10038C00A44A000880B58EB004AFFC233B8140F238
:10039C007D13FB803B89C8339BB2FB84FB88C8333D
:1003AC009BB2BB8401F04EFE034603F00703002B07
:1003BC0001D0AE4B00E0AE4B3B6201F043FE014678
:1003CC00AC4BA3FB01239A0813469B001344CA1A97
:1003DC00002A01D0A54B00E0A54BFB6115230A3385
:1003EC009BB2BB8027237B8300237B6100233B6173
:1003FC000023FB600023FB7201F054F94FF4805191
:10040C009D4802F0DFF80346002B0FD04FF400514B
:10041C00994802F0D7F80346002B07D04FF48041DF
:10042C00954802F0CFF80346002B05D17B69002BD1
:10043C000BD101237B6108E04FF400418E4802F0A0
:10044C00C1F80346002B00F04F81B7F92620B7F90D
:10045C0004107B69052BA8BF0523CB1A9A4229DC13
:10046C00B7F926300B2B25DDB7F91A3017221A44B1
:10047C003B6A5B78C3F13F039A421BDBB7F924104C
:10048C00B7F92600FB6903933B6A0293B7F9043072
:10049C000193B7F91A3000937B69FA68FFF728FFCC
:1004AC0000BF4FF40041744802F08CF80346002B57
:1004BC00F7D11AE1B7F92420B7F904107B69052BA1
:1004CC00A8BF0523CB1A9A4229DCB7F924300B2B91
:1004DC0025DDB7F91A3017221A44FB695B78C3F192
:1004EC003F039A421BDBB7F92610B7F92400FB69CE
:1004FC0003933B6A0293B7F904300193B7F91A30AE
:10050C0000937B69FA68FFF7F3FE00BF4FF40041DC
:10051C00594802F057F80346002BF7D1E5E07B6908
:10052C00002B0FDD7B69013B544AD35CC3F12703DD
:10053C009BB27B837B6901337B617B69262B01DD5D
:10054C0000237B613B6901333B613B694C4A82FB75
:10055C0003125210DB17D31AFB600021F868FFF767
:10056C007FFE7B69002B07D0B7F91A304FF0FF31B3
:10057C001846FFF717FE17E097F90B30042BCCBF8A
:10058C0001230023DBB21A46B7F91A30114618467C
:10059C00FFF708FEFB7A0133DBB2FB7297F90B30E5
:1005AC00092B01DD0023FB72B7F92630396A184696
:1005BC00FFF738FEB7F92430F9691846FFF732FE19
:1005CC00002300933F237F223F21002001F090FA6B
:1005DC00FB8C023B9BB2FB84BB8C023B9BB2BB846F
:1005EC00B7F92630002B1FDC01F02CFD0346214A05
:1005FC00A2FB0323D9081F4BA3FB01231A091346A3
:10060C009B0013449B00CA1A92B23B8913449BB2C1
:10061C00FB8401F017FD034603F00303002B01D00C
:10062C00124B00E0124B3B62B7F92430002B2BDC51
:10063C0001F008FD03460F4AA2FB0323D9080D4B1A
:10064C00A3FB01231A0913469B0013449B00CA1AEF
:10065C0092B2FB8813449BB2BB8401F0F3FC0346BB
:10066C0003F00103002B0DD0004B0CE0A84C00084C
:10067C00D44C0008CDCCCCCC000C0140DC4C000898
:10068C00676666661A4BFB61FA8CBB8CD31A9BB2FD
:10069C001AB2184B1A80174BB3F90030002B0DDD32
:1006AC00144BB3F900302E2B08DCFA8C114BB3F938
:1006BC0000309BB213449BB2FB8412E00D4BB3F998
:1006CC000030002B0DDA0B4BB3F9003013F12E0F69
:1006DC0007DBBA8C074BB3F900309BB213449BB2C7
:1006EC00BB8400F0EBFF87E600BF2837BD4680BD1A
:1006FC00D44C0008C800002080B400AF284B002266
:10070C001A60284B00221A60274B00221A60274BD4
:10071C0008221A60264B00221A60264B00221A600F
:10072C00254B5F221A60254B00221A60244B5F2256
:10073C001A60244B00221A60234B5F221A60234B51
:10074C0000221A60224B00221A60224B03221A60EC
:10075C00214B01221A60214B0C221A60204B5F2284
:10076C001A60204B00221A601F4B05221A601F4B87
:10077C0000221A601E4B00221A601E4B01221A60C6
:10078C001D4B00221A601D4B00221A601C4B0022CC
:10079C001A601C4B00221A6000BFBD4680BC70471B
:1007AC00CC000020D0000020D4000020000000204D
:1007BC00D8000020DC00002004000020E000002015
:1007CC0008000020E40000200C000020E8000020BD
:1007DC00EC00002010000020140000201800002065
:1007EC001C000020F000002020000020F40000205D
:1007FC00F800002024000020FC0000200001002054
:10080C00040100200801002080B500AF4FF4805196
:10081C000F4801F0D7FE0346002B01D1012314E051
:10082C004FF400510A4801F0CDFE0346002B01D1D4
:10083C0002230AE04FF48041054801F0C3FE034651
:10084C00002B01D1032300E00023184680BD00BF1C
:10085C00000C014080B500AF1E21322001F050FB8E
:10086C0011211E2001F04CFB12213C2001F048FB11
:10087C001021372001F044FB2B21192001F040FB03
:10088C002B21642001F03CFB3421752001F038FB56
:10089C0031210E2001F034FB1821182001F030FB1F
:1008AC0024214E2001F02CFB3921502001F028FB93
:1008BC000B216B2001F024FB0B21962001F020FB77
:1008CC000521052001F01CFB0721082001F018FB75
:1008DC000C21462001F014FB38210A2001F010FBFA
:1008EC001921462001F00CFB00BF80BD80B58AB0F9
:1008FC0002AF0023BB610023FB6100237B613B1D26
:10090C0000221A605A609A60C3F80B2001F09AFB1F
:10091C000246FB69D31A7B61614B1B68002B56D1D5
:10092C0000F0C0FEFFF796FF4FF400415D4801F068
:10093C0049FE0346002B00F0AE805B4B64221A602C
:10094C00594B1A683B1D5949184603F075FC002396
:10095C000093574B574A1E21252001F02BFA3A1DC4
:10096C0000230093524B1E212D2001F023FA00236B
:10097C0000934F4B504A2821252001F01BFA4F4B76
:10098C001A683B1D4949184603F056FC3A1D0023D2
:10099C000093474B28212D2001F00CFA00230093E3
:1009AC00434B474A3221252001F004FA3E4B1A688A
:1009BC003B1D3E49184603F03FFC3A1D00230093B3
:1009CC003B4B32212D2001F0F5F900F077FE344B32
:1009DC001B68012B9AD100F065FE00230093344B69
:1009EC00344A1E21072001F0E5F92F4B1A683B1DF4
:1009FC002E49184603F020FC3A1D002300932C4B83
:100A0C001E21482001F0D6F900230093284B2A4AD6
:100A1C002821072001F0CEF9234B1A683B1D2349EE
:100A2C00184603F009FC3A1D00230093204B2821A3
:100A3C00482001F0BFF9002300931D4B204A3221BE
:100A4C00072001F0B7F9184B1A683B1D17491846D7
:100A5C0003F0F2FB3A1D00230093154B3221482082
:100A6C0001F0A8F900F02AFE164B1B68002B06D1EA
:100A7C00144B05221A604FF47A7001F0EDFAFFF76F
:100A8C00C3FE0346012B7FF441AF01F0DBFAF861A2
:100A9C00FFF732FE3AE700BF2037BD4680BD00BFEE
:100AAC00DC000020000C0140EC000020B44A0008DF
:100ABC00FC5E0008B84A0008C04A00082400002068
:100ACC00C84A00082000002080B582B002AF00F0B8
:100ADC00E9FD002300930E4B0E4A0821002001F083
:100AEC0069F9002300930A4B0B4A2B21002001F0DB
:100AFC0061F900F0E3FD00BF4FF40041074801F03D
:100B0C0061FD0346002BF7D100BFBD4680BD00BF81
:100B1C009C5D0008D44A0008E84A0008000C01401B
:100B2C0080B584B002AF00237B600123FB7000F022
:100B3C00B9FD00235F4A0021002001F0C5F8002315
:100B4C0000935D4B5D4A00210A2001F033F900232C
:100B5C000093594B5A4A10210A2001F02BF900F04E
:100B6C00ADFD00F0ADFC0346DAB2564B1A70554B96
:100B7C001B78012B07D1FB78013BFB70FB78002B1A
:100B8C0001D10223FB704F4B1B78022B07D1FB7852
:100B9C000133FB70FB78032B01D10123FB70494B14
:100BAC001B78032B05D100F07DFD00F087FDFB7851
:100BBC007B60444B1B78042B01D1002375E07B68D0
:100BCC00012B0AD1FFF7BCFAFFF7DCFB00237B609B
:100BDC004FF4967001F040FA0AE07B68022B07D1C3
:100BEC00FFF784FE00237B604FF4967001F034FA1B
:100BFC00FB78032B3CD0032B55DC012B02D0022BB2
:100C0C001BD050E000F04EFD00232A4A00210020AA
:100C1C0001F05AF800230093274B284A00210A20A0
:100C2C0001F0C8F800230093234B254A10210A2019
:100C3C0001F0C0F800F042FD36E000F033FD002377
:100C4C001C4A1021002001F03FF8002300931A4B9E
:100C5C001A4A00210A2001F0ADF800230093164B2C
:100C6C00174A10210A2001F0A5F800F027FD1BE01F
:100C7C0000F018FD00230F4A2021002001F024F879
:100C8C00002300930C4B0D4A00210A2001F092F82E
:100C9C0000230093084B0A4A10210A2001F08AF81D
:100CAC0000F00CFD00E000BF5BE718460837BD46BE
:100CBC0080BD00BF205F00089C5D0008F44A00085E
:100CCC00044B00080C01002080B584B002AF012356
:100CDC00FB7100F0E7FC0023A54A0021002000F086
:100CEC00F3FF00230093A34BA34A00210A2001F039
:100CFC0061F8002300939F4BA04A10210A2001F0B9
:100D0C0059F8002300939B4B9D4A20210A2001F0A7
:100D1C0051F800230093974B9A4A30210A2001F096
:100D2C0049F800F0CBFC00F0CBFB0346DAB2964B53
:100D3C001A70954B1B78012B07D1FB79013BFB718A
:100D4C00FB79002B01D10623FB718F4B1B78022BF7
:100D5C0007D1FB790133FB71FB79072B01D10123FF
:100D6C00FB71894B1B78032B05D100F09BFC00F029
:100D7C00A5FCFB79F8E0FB79013B052B00F2F28036
:100D8C0001A252F823F000BFAD0D0008030E0008BD
:100D9C00590E0008AF0E0008050F00083B0F0008A5
:100DAC0000F080FC0023724A0021002000F08CFF30
:100DBC00002300936F4B704A00210A2000F0FAFFC9
:100DCC00002300936B4B6D4A10210A2000F0F2FFB8
:100DDC0000230093674B6A4A20210A2000F0EAFFA7
:100DEC0000230093634B674A30210A2000F0E2FF96
:100DFC0000F064FCB7E000F055FC00235C4A1021C5
:100E0C00002000F061FF002300935A4B5A4A002146
:100E1C000A2000F0CFFF00230093564B574A1021B5
:100E2C000A2000F0C7FF00230093524B544A2021A4
:100E3C000A2000F0BFFF002300934E4B514A302193
:100E4C000A2000F0B7FF00F039FC8CE000F02AFC1F
:100E5C000023474A2021002000F036FF0023009396
:100E6C00444B454A00210A2000F0A4FF00230093C4
:100E7C00404B424A10210A2000F09CFF00230093B3
:100E8C003C4B3F4A20210A2000F094FF00230093A2
:100E9C00384B3C4A30210A2000F08CFF00F00EFC4D
:100EAC0061E000F0FFFB0023314A3021002000F00C
:100EBC000BFF002300932F4B2F4A00210A2000F038
:100ECC0079FF002300932B4B2C4A10210A2000F0B1
:100EDC0071FF00230093274B294A20210A2000F0A0
:100EEC0069FF00230093234B264A30210A2000F08F
:100EFC0061FF00F0E3FB36E000F0D4FB00231C4A5A
:100F0C000021002000F0E0FE00230093194B1F4A43
:100F1C0000210A2000F04EFF00230093154B1C4AC1
:100F2C0010210A2000F046FF00F0C8FB1BE000F087
:100F3C00B9FB00230E4A1021002000F0C5FE00234F
:100F4C0000930C4B114A00210A2000F033FF0023C0
:100F5C000093084B0E4A10210A2000F02BFF00F0E2
:100F6C00ADFB00E000BFDEE618460837BD4680BD8D
:100F7C00205F00089C5D0008184B0008204B0008FF
:100F8C00284B0008384B00080C010020444B00088B
:100F9C004C4B000880B588B000AF07F1100300225D
:100FAC001A605A609A60DA602A4B9B69294A43F0AE
:100FBC0010039361274B9B6903F01003FB60FB68E4
:100FCC00244B9B69234A43F020039361214B9B697B
:100FDC0003F02003BB60BB681E4B9B691D4A43F0AA
:100FEC00080393611B4B9B6903F008037B607B68D0
:100FFC00184B9B69174A43F004039361154B9B698B
:10100C0003F004033B603B6801224FF4005112488B
:10101C0001F0EFFA4FF400533B6101237B61012394
:10102C00BB610223FB6107F1100319460A4801F06A
:10103C0045F94FF470433B6100237B610123BB6195
:10104C0007F110031946054801F038F900BF2037A5
:10105C00BD4680BD0010024000100140000C014054
:10106C0080B500AF124B134A1A60114B124A5A60EA
:10107C000F4B00229A600E4B0022DA600C4B4FF49F
:10108C0080421A610A4B00225A61094B00229A6174
:10109C00074B0022DA61064B00221A62044801F069
:1010AC00C1FA0346002B01D000F0C5F800BF80BD8B
:1010BC001001002000540040801A060080B588B052
:1010CC0000AF786007F1100300221A605A609A6032
:1010DC00DA607B681B68154A934223D1144B9B69D9
:1010EC00134A43F008039361114B9B6903F0080307
:1010FC00FB60FB68C0233B6112237B610323FB6114
:10110C0007F1100319460B4801F0D8F8084BDB69BE
:10111C00074A43F40013D361054BDB6903F4001356
:10112C00BB60BB6800BF2037BD4680BD005400408B
:10113C0000100240000C014080B582B000AF00F0FE
:10114C0029FF00F01BF8FFF725FF00F079F8FFF7F7
:10115C0087FF00F050FA00F0A5FA00F0AFFAFFF7A5
:10116C00B3FD78607B68022B02D1FFF7D9FCF6E760
:10117C007B68062BF3D1FFF7A7FCF0E780B594B0A2
:10118C0000AF07F1280328220021184603F04CF881
:10119C0007F1140300221A605A609A60DA601A612F
:1011AC003B1D00221A605A609A60DA600923BB6208
:1011BC004FF48033FB6200233B630123BB630123A9
:1011CC003B6402237B644FF48033BB644FF4E01325
:1011DC00FB6407F12803184601F07AFE0346002B46
:1011EC0001D000F028F80F237B610223BB610023A0
:1011FC00FB614FF480633B6200237B6207F11403B5
:10120C000221184602F0E6F80346002B01D000F04C
:10121C0012F801237B604FF40073BB603B1D184632
:10122C0002F070FA0346002B01D000F004F800BF66
:10123C005037BD4680BD80B400AF72B6FEE70000EB
:10124C0080B582B000AF3B1D00210A461A800A46C9
:10125C009A7000233B601D4B1D4A1A601B4B4FF0CC
:10126C00FF325A60194B00229A60184802F0C0FBFA
:10127C000346002B01D0FFF7DEFF10233B71102338
:10128C007B711023BB713B1D012219460F4802F0E4
:10129C0045FC0346002B01D0FFF7CDFF01233B702B
:1012AC0001237B702223BB700023FB703B46012281
:1012BC001946064802F0CAFC0346002B01D0FFF782
:1012CC00BAFF00BF0837BD4680BD00BF64010020D7
:1012DC000028004080B584B000AF78607B681B6844
:1012EC000F4A934218D101F0E7FD0E4BDB690D4A12
:1012FC0043F00063D3610B4BDB6903F00063FB60CD
:10130C00FB68094B01221A6000220221032000F025
:10131C009EFF032000F0B7FF00BF1037BD4680BD15
:10132C0000280040001002403C04424280B485B0CA
:10133C0000AF154B9B69144A43F001039361124BA8
:10134C009B6903F00103BB60BB680F4BDB690E4A62
:10135C0043F08053D3610C4BDB6903F080537B600B
:10136C007B680A4B5B68FB60FB6823F0E063FB6007
:10137C00FB6843F00073FB60044AFB68536000BFDA
:10138C001437BD4680BC704700100240000001407D
:10139C0080B400AF00BFFDE780B400AF00BFFDE735
:1013AC0080B400AF00BFFDE780B400AF00BFFDE725
:1013BC0080B400AF00BFFDE780B400AF00BFBD46F6
:1013CC0080BC704780B400AF00BFBD4680BC704786
:1013DC0080B400AF00BFBD4680BC704780B500AF85
:1013EC0000F01EFE00BF80BD80B500AF024802F0C9
:1013FC008DFE00BF80BD00BF6401002080B586B0AB
:10140C0000AF7860144A154BD31A7B617B693B6142
:10141C00134B1B68002B02D1114B124A1A60104B54
:10142C001A687B6813443A699A4207D202F0B8FEF4
:10143C0003460C221A604FF0FF3309E0084B1B687F
:10144C00FB60074B1A687B681344054A1360FB6802
:10145C0018461837BD4680BD00500020000400001F
:10146C00780100201006002080B400AF00BFBD46FC
:10147C0080BC70470C480D490D4A002302E0D4583B
:10148C00C4500433C4188C42F9D30A4A0A4C0023C2
:10149C0001E013600432A242FBD3FFF7E5FF02F038
:1014AC0085FEFFF749FE70470000002098000020E1
:1014BC00645F00089800002010060020FEE7000082
:1014CC0080B582B000AF0023FB714FF480513348DC
:1014DC0001F078F80346002B10D1142000F0BCFD6D
:1014EC0000BF4FF480512D4801F06CF80346002BDF
:1014FC00F7D0142000F0B0FD0123FB714FF4005124
:10150C00264801F05FF80346002B10D1142000F0A0
:10151C00A3FD00BF4FF40051204801F053F80346DF
:10152C00002BF7D0142000F097FD0223FB714FF431
:10153C0080411A4801F046F80346002B10D11420C4
:10154C0000F08AFD00BF4FF48041144801F03AF8D6
:10155C000346002BF7D0142000F07EFD0323FB7113
:10156C004FF400410D4801F02DF80346002B10D12B
:10157C00142000F071FD00BF4FF40041074801F04A
:10158C0021F80346002BF7D0142000F065FD04234E
:10159C00FB71FB7918460837BD4680BD000C014035
:1015AC0080B584B002AF78600B46FB70FB789BB2C1
:1015BC004FF0FF3200927A687821034801F076F9F7
:1015CC0000BF0837BD4680BD1001002080B584B037
:1015DC0000AF0346FB710023BB8100233B73FB79F7
:1015EC007B7307F10C0302211846FFF7D9FF00BFEC
:1015FC001037BD4680BD80B500AFAE20FFF7E6FFCB
:10160C000220FFF7E3FF1020FFF7E0FF4020FFF779
:10161C00DDFFB020FFF7DAFF8120FFF7D7FFCF20E7
:10162C00FFF7D4FFA120FFF7D1FFA620FFF7CEFFD5
:10163C00A820FFF7CBFF3F20FFF7C8FFAD20FFF737
:10164C00C5FF8B20FFF7C2FF3320FFF7BFFFC82079
:10165C00FFF7BCFFD320FFF7B9FF0020FFF7B6FF61
:10166C00D520FFF7B3FFC020FFF7B0FFD920FFF75D
:10167C00ADFF1F20FFF7AAFFDA20FFF7A7FF12200C
:10168C00FFF7A4FFDB20FFF7A1FF4020FFF79EFF31
:10169C0000F008F800F012F8AF20FFF797FF00BF3A
:1016AC0080BD000080B500AF4FF48062002102487D
:1016BC0002F0BAFD00BF80BD7C01002080B582B075
:1016CC0000AF154B40221A700023FB711BE0FB7915
:1016DC00503BDBB21846FFF779FF0220FFF776FF8D
:1016EC001020FFF773FF0D48FB79DB010C4A134404
:1016FC008022194602F08DFD81210748FFF750FF2B
:10170C00FB790133FB71FB79072BE0D900BF00BFDC
:10171C000837BD4680BD00BF7C0500207D0500203C
:10172C007C01002080B483B000AF0346FB710B46F4
:10173C00BB7113467B7197F90730002B43DBBB79E8
:10174C003F2B40D87B79002B1DD1BB79DB08D8B25D
:10175C000246FB791E49D2010A4413441B785AB243
:10176C00BB7903F00703012101FA03F35BB21343C6
:10177C0059B20246FB79C8B21549D2010A44134446
:10178C0002461A7020E0BB79DB08D8B20246FB791E
:10179C000F49D2010A4413441B785AB2BB7903F0A7
:1017AC000703012101FA03F35BB2DB435BB2134085
:1017BC0059B20246FB79C8B20549D2010A44134416
:1017CC0002461A7000E000BF0C37BD4680BC704763
:1017DC007C01002090B482B000AF0446084611464C
:1017EC001A462346FB710346BB710B467B711346AD
:1017FC003B71FB79072B5FD897F90630002B5BDB2D
:10180C003B7D002B02D07B79DB437B713B7C01332E
:10181C00FF2202FA03F35AB297F9053013435AB276
:10182C003B79C3F10803FF2141FA03F35BB2134385
:10183C005BB2DAB2234B1A70FA79BB792249D20126
:10184C000A44134418781F4B1978FA79BB79014074
:10185C00C8B21D49D2010A44134402461A703B7C9B
:10186C000133FF2202FA03F35BB2DB435AB297F95E
:10187C00053013405AB23B79C3F108036FF0FF01F6
:10188C0041FA03F35BB213405BB2DAB20D4B1A7040
:10189C00FA79BB790C49D2010A4413441878094BE4
:1018AC001978FA79BB790143C8B20749D2010A44C5
:1018BC00134402461A7000E000BF0837BD4690BCC6
:1018CC00704700BFFD0500207C010020B0B586B03C
:1018DC0002AF0446084611461A462346FB710346DE
:1018EC00BB710B467B7113463B71BB79DB08FB73F9
:1018FC00BB7903F00703BB73BA7B3B791344082B0A
:10190C0029DD7A79BB7B02FA03F3DAB2BC7BF97975
:10191C00F87B97F820300193072300932346FFF7B9
:10192C0059FFFB7B0133D8B27A79BB7BC3F1080337
:10193C0042FA03F3DCB23A79BB7B1344DBB2093BCA
:10194C00DBB2F97997F8202001920093002322460C
:10195C00FFF740FF15E07A79BB7B02FA03F3DCB2A8
:10196C00BA7B3B791344DBB2013BDBB2BD7BF9792B
:10197C00F87B97F82020019200932B462246FFF724
:10198C0029FF00BF1037BD46B0BD90B587B002AF80
:10199C000446084611461A462346FB710346BB71A2
:1019AC000B467B7113463B71BB79DB08FB73BB7930
:1019BC0003F00703BB737A79BB7B02FA03F3DAB249
:1019CC00BC7BF979F87B3B79019307230093234681
:1019DC00FFF700FFBB7B002B14D0FB7B0133D8B28D
:1019EC007A79BB7BC3F1080342FA03F3DCB2BB7B0D
:1019FC00013BDBB2F9793A7901920093002322463C
:101A0C00FFF7E8FE00BF1437BD4690BD90B587B018
:101A1C0002AF3A601A460346FB710B46BB71134684
:101A2C007B7197F82030DB083B7397F8203003F07C
:101A3C000703FB720023FB7325E00023BB731BE041
:101A4C00FA79FB7B1344D8B2BB7BDB00DAB2BB79EF
:101A5C001344DCB2FA7BBB7B797901FB03F31344AF
:101A6C001A463B6813441A7897F824302146FFF73E
:101A7C008CFFBB7B0133BB73BA7B3B7B9A42DFD3BE
:101A8C00FB7B0133FB73FA7B7B799A42D5D3FB7AD0
:101A9C00002B28D07B799BB23A7B92B202FB03F3EA
:101AAC003B8100237B731AE0FA797B7B1344D8B219
:101ABC003B7BDB00DAB2BB791344D9B23A897B7B2E
:101ACC0013441A463B6813441A78FC7A97F824306E
:101ADC0000932346FFF7FAFE7B7B01337B737A7B03
:101AEC007B799A42E0D300BF1437BD4690BD00000D
:101AFC0090B587B000AF0446084611461A462346F7
:101B0C00FB710346BB710B467B7113463B71FA7933
:101B1C007B799A421DD1BA793B799A4207D9694AA5
:101B2C00BB7913703B79BB71664B1B783B71BB79EE
:101B3C00FB7509E097F82820F97DFB791846FFF72B
:101B4C00F1FDFB7D0133FB75FA7D3B799A42F1D9AE
:101B5C00B4E0BA793B799A421DD1FA797B799A42F1
:101B6C0007D9584AFB7913707B79FB71554B1B785D
:101B7C007B71FB79BB7509E097F82820B979BB7D9F
:101B8C001846FFF7CFFDBB7D0133BB75BA7D7B7962
:101B9C009A42F1D992E07B799AB2FB799BB2D31A33
:101BAC009BB2FB813B799AB2BB799BB2D31A9BB2A5
:101BBC00BB81B7F90E30002B01DD012301E04FF0A2
:101BCC00FF337B81B7F90C30002B01DD012301E0E1
:101BDC004FF0FF333B81FB79BB82BB797B820023C7
:101BEC003B82B7F90E30002BB8BF5B429BB2FB8136
:101BFC00B7F90C30002BB8BF5B429BB2BB81B7F975
:101C0C000E20B7F90C309A422CDDFB79BB8223E015
:101C1C00BB8ADBB27A8AD1B297F828201846FFF734
:101C2C0081FD3A8ABB8913449BB23B82B7F91030D1
:101C3C005A00B7F90E309A4209DB7A8A3B89134471
:101C4C009BB27B823A8AFB89D31A9BB23B82BA8ABB
:101C5C007B8913449BB2BB82B7F914207B799A42DF
:101C6C00D6D12BE0BB797B8223E0BB8ADBB27A8AAC
:101C7C00D1B297F828201846FFF754FD3A8AFB8911
:101C8C0013449BB23B82B7F910305A00B7F90C30B1
:101C9C009A4209DBBA8A7B8913449BB2BB823A8A8B
:101CAC00BB89D31A9BB23B827A8A3B8913449BB281
:101CBC007B82B7F912203B799A42D6D100BF1C37F0
:101CCC00BD4690BDFE050020B0B584B002AF3A60B1
:101CDC001A460346FB710B46BB7113467B713B687E
:101CEC005C683B681D783B685B78B979F8797A79E0
:101CFC00019200932B462246FFF788FE00BF08375F
:101D0C00BD46B0BDB0B584B002AF3B600346FB71BD
:101D1C000B46BB7113467B713B685A687B79A3F108
:101D2C0020013B681B780733002B00DA0733DB10EC
:101D3C0018463B685B7800FB03F301FB03F3D418F4
:101D4C003B685D783B681B78B979F8793A7E0192EB
:101D5C0000932B462246FFF759FE00BF0837BD46BD
:101D6C00B0BD80B483B000AF78607B681B785BB289
:101D7C00002B01DB012318E07B681B7803F0E003E8
:101D8C00C02B01D1022310E07B681B7803F0F00319
:101D9C00E02B01D1032308E07B681B7803F0F803E8
:101DAC00F02B01D1042300E0002318460C37BD466C
:101DBC0080BC7047B0B58AB002AFBA607B60034696
:101DCC00FB730B46BB730023FB837B681B780733C9
:101DDC00002B00DA0733DB10DBB27A68527802FB97
:101DEC0003F3DBB20433FB767DE000237B77FB8BC4
:101DFC00BA6813441846FFF7B4FF0346BB76BB7EA4
:101E0C00002B78D000233B7732E07B685B683A7F0D
:101E1C00F97E01FB02F213447B61FB8BBA6813441D
:101E2C00BA7E7969184602F0E5F90346002B1CD1FD
:101E3C007B691C1D7B685D787B681B78B97BF87BA4
:101E4C0097F83020019200932B462246FFF7DEFDD7
:101E5C007B685A78FB7B1344FB73BB7E9AB2FB8B7B
:101E6C001344FB8301237B7707E03B7F01333B77F4
:101E7C007B681B7A3A7F9A42C7D37B7F002B32D187
:101E8C00BB7E012B19D1FB8BBA6813441A787B6883
:101E9C00DC68B97BF87B97F8303000932346FFF76A
:101EAC0031FF7B68DB685A78FB7B1344FB73BB7E8A
:101EBC009AB2FB8B1344FB8315E07B68DA68B97B21
:101ECC00F87B97F83030009313462022FFF71AFF67
:101EDC007B68DB685A78FB7B1344FB73BB7E9AB23E
:101EEC00FB8B1344FB83FB8BBA6813441B78002BCE
:101EFC007FF47BAF00E000BF00BF2037BD46B0BD14
:101F0C0080B483B000AF03460A46FB801346BB8007
:101F1C00B7F90630002B35DBB7F906307F2B31DCF7
:101F2C00B7F90430002B2DDBB7F904303F2B29DC3B
:101F3C00B7F90430002B00DA0733DB1018B2024675
:101F4C00B7F906301249D2010A4413441B785AB22D
:101F5C00B7F90430594203F0070301F0070158BFE9
:101F6C004B421BB2194601238B405BB2134359B24F
:101F7C000246B7F90630C8B20549D2010A441344E7
:101F8C0002461A7000BF0C37BD4680BC704700BFBC
:101F9C007C01002080B500AF084B1B68074A43F05A
:101FAC0010031360032000F047F9002000F008F83C
:101FBC00FFF7BCF90023184680BD00BF002002408B
:101FCC0080B582B000AF7860124B1A68124B1B7848
:101FDC0019464FF47A73B3FBF1F3B2FBF3F31846E3
:101FEC0000F05FF90346002B01D001230EE07B6863
:101FFC000F2B0AD8002279684FF0FF3000F027F938
:10200C00064A7B681360002300E00123184608375A
:10201C00BD4680BD28000020300000202C00002090
:10202C0080B400AF054B1B781A46054B1B68134454
:10203C00034A136000BFBD4680BC704730000020CF
:10204C000006002080B400AF024B1B681846BD464A
:10205C0080BC70470006002080B584B000AF78606B
:10206C00FFF7F0FFB8607B68FB60FB68B3F1FF3FE4
:10207C0005D00A4B1B781A46FB681344FB6000BF63
:10208C00FFF7E0FF0246BB68D31AFA689A42F7D80A
:10209C0000BF00BF1037BD4680BD00BF3000002020
:1020AC0080B485B000AF78607B6803F00703FB60F9
:1020BC000C4BDB68BB60BA684FF6FF031340BB6088
:1020CC00FB681A02BB68134343F0BF6343F400334D
:1020DC00BB60044ABB68D36000BF1437BD4680BCEC
:1020EC00704700BF00ED00E080B400AF044BDB682C
:1020FC001B0A03F007031846BD4680BC704700BF9F
:10210C0000ED00E080B483B000AF0346FB7197F99B
:10211C000730002B0BDBFB7903F01F02064997F904
:10212C0007305B09012000FA02F241F8232000BFBE
:10213C000C37BD4680BC704700E100E080B483B032
:10214C0000AF03463960FB7197F90730002B0ADBAF
:10215C003B68DAB20C4997F907301201D2B20B4442
:10216C0083F800230AE03B68DAB20849FB7903F0F4
:10217C000F03043B1201D2B20B441A7600BF0C378A
:10218C00BD4680BC704700BF00E100E000ED00E000
:10219C0080B489B000AFF860B9607A60FB6803F076
:1021AC000703FB61FB69C3F10703042B28BF04235E
:1021BC00BB61FB690433062B02D9FB69033B00E0CE
:1021CC0000237B614FF0FF32BB6902FA03F3DA4361
:1021DC00BB681A407B699A404FF0FF317B6901FA6A
:1021EC0003F3D9437B680B40134318462437BD4691
:1021FC0080BC704780B582B000AF78607B68013BD3
:10220C00B3F1807F01D301230FE00A4A7B68013BC5
:10221C0053600F214FF0FF30FFF790FF054B00226A
:10222C009A60044B07221A60002318460837BD46F3
:10223C0080BD00BF10E000E080B582B000AF7860D8
:10224C007868FFF72DFF00BF0837BD4680BD80B50D
:10225C0086B000AF0346B9607A60FB7300237B61E4
:10226C00FFF742FF78617A68B9687869FFF790FFE9
:10227C00024697F90F3011461846FFF75FFF00BF73
:10228C001837BD4680BD80B582B000AF0346FB71E8
:10229C0097F907301846FFF735FF00BF0837BD46E2
:1022AC0080BD80B582B000AF78607868FFF7A2FF80
:1022BC00034618460837BD4680BD000080B48BB07D
:1022CC0000AF7860396000237B6200233B6269E1D8
:1022DC0001227B6A02FA03F3FB613B681B68FA6913
:1022EC001340BB61BA69FB699A4240F058813B6864
:1022FC005B689A4A93425ED0984A934275D8984A42
:10230C00934258D0964A93426FD8964A934252D0F1
:10231C00944A934269D8944A93424CD0924A93423D
:10232C0063D8924A934246D0904A93425DD8122B7E
:10233C002AD8122B59D801A252F823F0C323000833
:10234C009D230008AF230008F1230008F7230008A1
:10235C00F7230008F7230008F7230008F7230008E9
:10236C00F7230008F7230008F7230008F7230008D9
:10237C00F7230008F7230008F7230008F7230008C9
:10238C00A5230008B9230008794A934213D02CE006
:10239C003B68DB683B6229E03B68DB6804333B62EB
:1023AC0024E03B68DB6808333B621FE03B68DB687A
:1023BC000C333B621AE03B689B68002B02D1042370
:1023CC003B6213E03B689B68012B05D108233B6201
:1023DC007B68FA691A6109E008233B627B68FA6939
:1023EC005A6103E000233B6200E000BFBB69FF2B96
:1023FC0001D87B6801E07B6804337B61BB69FF2BF0
:10240C0002D87B6A9B0002E07B6A083B9B003B6125
:10241C007B691A680F213B6901FA03F3DB431A400D
:10242C00396A3B6901FA03F31A437B691A603B680A
:10243C005B6803F08053002B00F0B1804D4B9B691F
:10244C004C4A43F0010393614A4B9B6903F001032F
:10245C00BB60BB68484A7B6A9B08023352F8233046
:10246C00FB607B6A03F003039B000F2202FA03F369
:10247C00DB43FA681340FB607B68404A934213D0FD
:10248C007B683F4A93420DD07B683E4A934207D00B
:10249C007B683D4A934201D1032306E0042304E008
:1024AC00022302E0012300E000237A6A02F0030217
:1024BC0092009340FA681343FB602F497B6A9B0898
:1024CC000233FA6841F823203B685B6803F48033DD
:1024DC00002B06D02D4B1A682C49BB6913430B609B
:1024EC0006E02A4B1A68BB69DB43284913400B6092
:1024FC003B685B6803F40033002B06D0234B5A680F
:10250C002249BB6913434B6006E0204B5A68BB69F8
:10251C00DB431E4913404B603B685B6803F480133C
:10252C00002B06D0194B9A681849BB6913438B6072
:10253C0006E0164B9A68BB69DB43144913408B6069
:10254C003B685B6803F40013002B21D00F4BDA6857
:10255C000E49BB691343CB6021E000BF0000321071
:10256C000000311000002210000021100000121099
:10257C000000111000100240000001400008014052
:10258C00000C014000100140001401400004014007
:10259C000B4BDA68BB69DB4309491340CB607B6AA0
:1025AC0001337B623B681A687B6A22FA03F3002BC7
:1025BC007FF48EAE00BF00BF2C37BD4680BC704789
:1025CC000004014080B485B000AF78600B467B807E
:1025DC007B689A687B881340002B02D00123FB7325
:1025EC0001E00023FB73FB7B18461437BD4680BC0F
:1025FC00704780B483B000AF78600B467B80134685
:10260C007B707B78002B03D07A887B681A6103E09F
:10261C007B881A047B681A6100BF0C37BD4680BCEE
:10262C007047000080B584B000AF78607B68002BE9
:10263C0001D101232BE17B6893F83D30DBB2002BF9
:10264C0006D17B68002283F83C207868FEF736FDC3
:10265C007B68242283F83D207B681B681A687B68A2
:10266C001B6822F001021A607B681B681A687B6881
:10267C001B6842F400421A607B681B681A687B680E
:10268C001B6822F400421A6000F0F6FFF8607B68C9
:10269C005B68814A934207D8FB68804A934294BF97
:1026AC0001230023DBB206E0FB687D4A934294BF12
:1026BC0001230023DBB2002B01D00123E7E0FB68F0
:1026CC00784AA2FB03239B0CBB607B681B685B688E
:1026DC0023F03F017B681B68BA680A435A607B6829
:1026EC001B681B6A23F03F017B685B686A4A934254
:1026FC0002D8BB68013309E0BB684FF4967202FB49
:10270C0003F3694AA2FB03239B0901337A6812681D
:10271C000B4313627B681B68DB6923F44F4222F086
:10272C00FF027B685B685C498B4219D8FB68591EB9
:10273C007B685B685B00B1FBF3F3591C40F6FC73E0
:10274C000B40002B0AD0FB68591E7B685B685B0052
:10275C00B1FBF3F30133C3F30B0351E004234FE05C
:10276C007B689B68002B11D1FB68581E7B685968ED
:10277C000B465B000B44B0FBF3F30133C3F30B03C9
:10278C00002B0CBF01230023DBB212E0FB68581EA8
:10279C007B6859680B469B000B4499000B44B0FBBB
:1027AC00F3F30133C3F30B03002B0CBF0123002302
:1027BC00DBB2002B01D0012322E07B689B68002B4D
:1027CC000ED1FB68581E7B6859680B465B000B44A6
:1027DC00B0FBF3F30133C3F30B0343F400430FE0FB
:1027EC00FB68581E7B6859680B469B000B4499008C
:1027FC000B44B0FBF3F30133C3F30B0343F440433B
:10280C00796809681343CB617B681B681B6823F0EC
:10281C00C0017B68DA697B681B6A1A437B681B689A
:10282C000A431A607B681B689B6823F4034323F0FC
:10283C00FF037A6811697A68D26811437A68126862
:10284C000B4393607B681B68DB6823F0FF017B689C
:10285C005A697B689B691A437B681B680A43DA6078
:10286C007B681B681A687B681B6842F001021A605F
:10287C007B6800221A647B68202283F83D207B68E9
:10288C0000221A637B68002283F83E20002318463E
:10289C001037BD4680BD00BFA08601007F841E009E
:1028AC00FF083D0083DE1B43D34D621080B588B01A
:1028BC0002AFF8607A601A460B467B8113463B8167
:1028CC00FFF7C0FB7861FB6893F83D30DBB2202B3F
:1028DC0040F0E0807B690093192301227049F8686D
:1028EC0000F064F90346002B01D00223D3E0FB680F
:1028FC0093F83C30012B01D10223CCE0FB68012280
:10290C0083F83C20FB681B681B6803F00103012B58
:10291C0007D0FB681B681A68FB681B6842F0010251
:10292C001A60FB681B681A68FB681B6822F400625B
:10293C001A60FB68212283F83D20FB68102283F883
:10294C003E20FB6800221A64FB687A685A62FB68B6
:10295C003A895A85FB685B8D9AB2FB681A85FB68CD
:10296C00504ADA6279897B693A6AF86800F09CF817
:10297C000346002B01D001238DE000233B61FB6853
:10298C001B685B693B61FB681B689B693B613B692E
:10299C0066E07A69396AF86800F0DEF90346002BC4
:1029AC000DD0FB681B6C042B07D1FB681B681A68E5
:1029BC00FB681B6842F400721A6001236BE0FB6831
:1029CC005B6A1A78FB681B681A61FB685B6A5A1CA5
:1029DC00FB685A62FB685B8D9BB2013B9AB2FB6849
:1029EC005A85FB681B8D013B9AB2FB681A85FB6804
:1029FC001B685B6903F00403042B1BD1FB681B8D64
:102A0C00002B17D0FB685B6A1A78FB681B681A618D
:102A1C00FB685B6A5A1CFB685A62FB685B8D9BB255
:102A2C00013B9AB2FB685A85FB681B8D013B9AB23D
:102A3C00FB681A857A69396AF86800F0CEF90346A2
:102A4C00002B0DD0FB681B6C042B07D1FB681B689B
:102A5C001A68FB681B6842F400721A6001231AE0C2
:102A6C00FB681B8D002B94D1FB681B681A68FB68F4
:102A7C001B6842F400721A60FB68202283F83D2028
:102A8C00FB68002283F83E20FB68002283F83C2080
:102A9C00002300E0022318461837BD4680BD00BF56
:102AAC00020010000000FFFF80B588B002AFF86094
:102ABC007A603B600B467B81FB68DB6A7B617B69E0
:102ACC00082B06D07B69012B03D07B6913F5803F63
:102ADC0008D1FB681B681A68FB681B6842F480729B
:102AEC001A600BE0FB681B6B122B07D1FB681B6891
:102AFC001A68FB681B6842F480721A603B6800938A
:102B0C007B6800224FF00111F86800F04FF8034683
:102B1C00002B0DD0FB681B681B6803F48073B3F5A6
:102B2C00807F03D1FB684FF400721A64032335E0F5
:102B3C00FB681B69B3F5804F08D17B89DBB21A4661
:102B4C00FB681B6802F0FE021A611BE07B89DB113B
:102B5C00DBB203F00603DBB263F00F03DAB2FB68FF
:102B6C001B681A613B687A680E49F86800F075F8C2
:102B7C000346002B01D0012310E07B89DAB2FB68FD
:102B8C001B681A613B687A680749F86800F065F8B9
:102B9C000346002B01D0012300E000231846183710
:102BAC00BD4680BD080001000200010080B584B064
:102BBC0000AFF860B9603B601346FB7125E03B68E1
:102BCC00B3F1FF3F21D0FFF73DFA0246BB69D31AA0
:102BDC003A689A4202D33B68002B16D1FB6800225C
:102BEC001A63FB68202283F83D20FB68002283F8DF
:102BFC003E20FB681B6C43F02002FB681A64FB68E8
:102C0C00002283F83C20012323E0BB681B0CDBB2C1
:102C1C00012B0DD1FB681B685B69DA43BB68134061
:102C2C009BB2002B0CBF01230023DBB21A460CE035
:102C3C00FB681B689B69DA43BB6813409BB2002B93
:102C4C000CBF01230023DBB21A46FB799A42B6D0A3
:102C5C00002318461037BD4680BD80B584B000AF48
:102C6C00F860B9607A603B6051E0FB681B685B6997
:102C7C0003F48063B3F5806F23D1FB681B681A687B
:102C8C00FB681B6842F400721A60FB681B686FF4E7
:102C9C0080625A61FB6800221A63FB68202283F869
:102CAC003D20FB68002283F83E20FB681B6C43F040
:102CBC000402FB681A64FB68002283F83C200123A1
:102CCC0046E07B68B3F1FF3F21D0FFF7BBF902462A
:102CDC003B68D31A7A689A4202D37B68002B16D1D0
:102CEC00FB6800221A63FB68202283F83D20FB68F6
:102CFC00002283F83E20FB681B6C43F02002FB682B
:102D0C001A64FB68002283F83C20012320E0BB6896
:102D1C001B0CDBB2012B0CD1FB681B685B69DA4323
:102D2C00BB6813409BB2002B14BF01230023DBB202
:102D3C000BE0FB681B689B69DA43BB6813409BB2D2
:102D4C00002B14BF01230023DBB2002B8DD10023F9
:102D5C0018461037BD4680BD80B584B000AFF86012
:102D6C00B9607A602DE0F86800F078F80346002B23
:102D7C0001D001232DE0BB68B3F1FF3F21D0FFF759
:102D8C0061F902467B68D31ABA689A4202D3BB68CF
:102D9C00002B16D1FB6800221A63FB68202283F8F3
:102DAC003D20FB68002283F83E20FB681B6C43F03F
:102DBC002002FB681A64FB68002283F83C20012384
:102DCC0007E0FB681B685B6903F08003802BCAD1AA
:102DDC00002318461037BD4680BD80B584B000AFC7
:102DEC00F860B9607A602DE0F86800F037F80346B7
:102DFC00002B01D001232DE0BB68B3F1FF3F21D0A4
:102E0C00FFF720F902467B68D31ABA689A4202D3BC
:102E1C00BB68002B16D1FB6800221A63FB682022CA
:102E2C0083F83D20FB68002283F83E20FB681B6C76
:102E3C0043F02002FB681A64FB68002283F83C20F4
:102E4C00012307E0FB681B685B6903F00403042B98
:102E5C00CAD1002318461037BD4680BD80B483B05C
:102E6C0000AF78607B681B685B6903F48063B3F523
:102E7C00806F1BD17B681B686FF480625A617B6822
:102E8C0000221A637B68202283F83D207B68002295
:102E9C0083F83E207B681B6C43F004027B681A6449
:102EAC007B68002283F83C20012300E000231846B5
:102EBC000C37BD4680BC704780B400AF034B012279
:102ECC001A6000BFBD4680BC704700BF20000E4298
:102EDC0080B586B000AF78607B68002B01D10123F0
:102EEC0072E27B681B6803F00103002B00F0878003
:102EFC00924B5B6803F00C03042B0CD08F4B5B687C
:102F0C0003F00C03082B12D18C4B5B6803F4803359
:102F1C00B3F5803F0BD1894B1B6803F40033002BB6
:102F2C006CD07B685B68002B68D101234CE27B681A
:102F3C005B68B3F5803F06D1804B1B687F4A43F436
:102F4C00803313602EE07B685B68002B0CD17B4BCD
:102F5C001B687A4A23F480331360784B1B68774ADA
:102F6C0023F4802313601DE07B685B68B3F5A02F0E
:102F7C000CD1724B1B68714A43F4802313606F4B66
:102F8C001B686E4A43F4803313600BE06B4B1B6879
:102F9C006A4A23F480331360684B1B68674A23F436
:102FAC00802313607B685B68002B13D0FFF74AF813
:102FBC00386108E0FFF746F802463B69D31A642BE8
:102FCC0001D9032300E25D4B1B6803F40033002B93
:102FDC00F0D014E0FFF736F8386108E0FFF732F86C
:102FEC0002463B69D31A642B01D90323ECE1534B02
:102FFC001B6803F40033002BF0D100E000BF7B68AA
:10300C001B6803F00203002B63D04C4B5B6803F08E
:10301C000C03002B0BD0494B5B6803F00C03082B03
:10302C001CD1464B5B6803F48033002B16D1434B09
:10303C001B6803F00203002B05D07B681B69012B76
:10304C0001D00123C0E13D4B1B6823F0F8027B68E3
:10305C005B69DB00394913430B603AE07B681B6901
:10306C00002B20D0364B01221A60FEF7EBFF3861A3
:10307C0008E0FEF7E7FF02463B69D31A022B01D9A1
:10308C000323A1E12D4B1B6803F00203002BF0D0AE
:10309C002A4B1B6823F0F8027B685B69DB0027492D
:1030AC0013430B6015E0264B00221A60FEF7CAFF93
:1030BC00386108E0FEF7C6FF02463B69D31A022BC3
:1030CC0001D9032380E11D4B1B6803F00203002B85
:1030DC00F0D17B681B6803F00803002B3AD07B68A7
:1030EC009B69002B19D0174B01221A60FEF7AAFF1F
:1030FC00386108E0FEF7A6FF02463B69D31A022BA3
:10310C0001D9032360E10D4B5B6A03F00203002B32
:10311C00F0D0012000F0D8FA1CE00A4B00221A6013
:10312C00FEF790FF38610FE0FEF78CFF02463B691B
:10313C00D31A022B08D9032346E100BF001002402A
:10314C000000424280044242924B5B6A03F002034D
:10315C00002BE9D17B681B6803F00403002B00F003
:10316C00A6800023FB758B4BDB6903F08053002B8F
:10317C000DD1884BDB69874A43F08053D361854B73
:10318C00DB6903F08053BB60BB680123FB75824B8A
:10319C001B6803F48073002B18D17F4B1B687E4A8D
:1031AC0043F480731360FEF74DFF386108E0FEF7BF
:1031BC0049FF02463B69D31A642B01D9032303E16F
:1031CC00754B1B6803F48073002BF0D07B68DB68B5
:1031DC00012B06D16F4B1B6A6E4A43F0010313623D
:1031EC002DE07B68DB68002B0CD16A4B1B6A694AAB
:1031FC0023F001031362674B1B6A664A23F0040336
:10320C0013621CE07B68DB68052B0CD1614B1B6ADD
:10321C00604A43F0040313625E4B1B6A5D4A43F041
:10322C00010313620BE05B4B1B6A5A4A23F0010348
:10323C001362584B1B6A574A23F0040313627B68D2
:10324C00DB68002B15D0FEF7FDFE38610AE0FEF7B7
:10325C00F9FE02463B69D31A41F28832934201D9F6
:10326C000323B1E04B4B1B6A03F00203002BEED09F
:10327C0014E0FEF7E7FE38610AE0FEF7E3FE0246D3
:10328C003B69D31A41F28832934201D903239BE064
:10329C00404B1B6A03F00203002BEED1FB7D012B8C
:1032AC0005D13C4BDB693B4A23F08053D3617B68EF
:1032BC00DB69002B00F08780364B5B6803F00C0356
:1032CC00082B61D07B68DB69022B46D1334B002283
:1032DC001A60FEF7B7FE386108E0FEF7B3FE02464F
:1032EC003B69D31A022B01D903236DE0294B1B68D0
:1032FC0003F00073002BF0D17B681B6AB3F5803FA1
:10330C0008D1244B5B6823F400327B689B6821490D
:10331C0013434B601F4B5B6823F474127B68196A70
:10332C007B685B6A0B431B4913434B601B4B0122AD
:10333C001A60FEF787FE386108E0FEF783FE02464E
:10334C003B69D31A022B01D903233DE0114B1B68B7
:10335C0003F00073002BF0D035E0104B00221A6004
:10336C00FEF770FE386108E0FEF76CFE02463B6922
:10337C00D31A022B01D9032326E0064B1B6803F05A
:10338C000073002BF0D11EE07B68DB69012B07D1A9
:10339C00012319E00010024000700040600042421E
:1033AC000B4B5B68FB60FB6803F480327B681B6A29
:1033BC009A4206D1FB6803F470127B685B6A9A42EE
:1033CC0001D0012300E0002318461837BD4680BD0C
:1033DC000010024080B584B000AF786039607B6823
:1033EC00002B01D10123D0E06A4B1B6803F00703CB
:1033FC003A689A4210D9674B1B6823F0070265495B
:10340C003B6813430B60634B1B6803F007033A687C
:10341C009A4201D00123B8E07B681B6803F00203D9
:10342C00002B20D07B681B6803F00403002B05D015
:10343C00594B5B68584A43F4E06353607B681B68E4
:10344C0003F00803002B05D0534B5B68524A43F43E
:10345C0060535360504B5B6823F0F0027B689B68B1
:10346C004D4913434B607B681B6803F00103002B31
:10347C0040D07B685B68012B07D1474B1B6803F47A
:10348C000033002B15D101237FE07B685B68022B96
:10349C0007D1414B1B6803F00073002B09D10123AA
:1034AC0073E03D4B1B6803F00203002B01D1012399
:1034BC006BE0394B5B6823F003027B685B68364931
:1034CC0013434B60FEF7BEFDF8600AE0FEF7BAFD51
:1034DC000246FB68D31A41F28832934201D9032386
:1034EC0053E02D4B5B6803F00C027B685B689B0020
:1034FC009A42EBD1274B1B6803F007033A689A42B8
:10350C0010D2244B1B6823F0070222493B6813435B
:10351C000B60204B1B6803F007033A689A4201D0FA
:10352C00012332E07B681B6803F00403002B08D0F6
:10353C00194B5B6823F4E0627B68DB681649134324
:10354C004B607B681B6803F00803002B09D0124BFF
:10355C005B6823F460527B681B69DB000E491343E4
:10356C004B6000F021F802460B4B5B681B0903F023
:10357C000F030A49CB5C22FA03F3094A1360094B87
:10358C001B681846FEF71CFD002318461037BD4675
:10359C0080BD00BF0020024000100240044D000816
:1035AC00280000202C00002090B48AB000AF294BDA
:1035BC003C1D0FCB84E80F0040F201233B8000231D
:1035CC00FB610023BB6100237B6200237B61002332
:1035DC003B62214B5B68FB61FB6903F00C03042B22
:1035EC0002D0082B03D02BE01C4B3B622BE0FB6979
:1035FC009B0C03F00F0328333B4413F8243C7B61F2
:10360C00FB6903F48033002B12D0134B5B685B0C0B
:10361C0003F0010328333B4413F8283CBB617B695E
:10362C000E4A03FB02F2BB69B2FBF3F37B6204E0CC
:10363C007B690B4A02FB03F37B627B6A3B6202E011
:10364C00064B3B6200BF3B6A18462837BD4690BC10
:10365C00704700BF5C4B00080010024000127A005B
:10366C0000093D0080B400AF024B1B681846BD46F4
:10367C0080BC70472800002080B500AFFFF7F2FF38
:10368C000246054B5B681B0A03F007030349CB5C3E
:10369C0022FA03F3184680BD00100240144D0008B6
:1036AC0080B500AFFFF7DEFF0246054B5B68DB0A17
:1036BC0003F007030349CB5C22FA03F3184680BDE1
:1036CC0000100240144D000880B485B000AF786043
:1036DC000A4B1B680A4AA2FB03235B0A7A6802FBAB
:1036EC0003F3FB6000BFFB685A1EFA60002BF9D194
:1036FC0000BF00BF1437BD4680BC704728000020B7
:10370C00D34D621080B586B000AF786000233B616A
:10371C000023FB607B681B6803F00103002B7DD04A
:10372C000023FB754F4BDB6903F08053002B0DD14D
:10373C004C4BDB694B4A43F08053D361494BDB69FB
:10374C0003F08053BB60BB680123FB75464B1B68C1
:10375C0003F48073002B18D1434B1B68424A43F48B
:10376C0080731360FEF76EFC386108E0FEF76AFCAC
:10377C0002463B69D31A642B01D903236DE03A4B03
:10378C001B6803F48073002BF0D0364B1B6A03F4D8
:10379C004073FB60FB68002B2ED07B685B6803F4E6
:1037AC004073FA689A4227D02E4B1B6A23F440735D
:1037BC00FB602E4B01221A602C4B00221A60294A06
:1037CC00FB681362FB6803F00103002B14D0FEF7B7
:1037DC0039FC38610AE0FEF735FC02463B69D31A26
:1037EC0041F28832934201D9032336E01D4B1B6A08
:1037FC0003F00203002BEED01A4B1B6A23F4407229
:10380C007B685B68174913430B62FB7D012B05D169
:10381C00144BDB69134A23F08053D3617B681B681C
:10382C0003F00203002B08D00E4B5B6823F44042DC
:10383C007B689B680B4913434B607B681B6803F0E8
:10384C001003002B08D0074B5B6823F480027B68C5
:10385C00DB68044913434B60002318461837BD46F8
:10386C0080BD00BF00100240007000404004424286
:10387C0090B58DB000AF7860584B07F10C040FCBAE
:10388C0084E80F0040F201233B8100237B6200237C
:10389C00FB6200233B620023FB610023BB627B685D
:1038AC00102B0AD07B68102B00F28E807B68012BCA
:1038BC0049D07B68022B79D086E0494B5B68FB6171
:1038CC00474B1B6803F08073002B7FD0FB699B0C6C
:1038DC0003F00F0330333B4413F8243C3B62FB6989
:1038EC0003F48033002B17D03D4B5B685B0C03F06B
:1038FC00010330333B4413F8283C7B62FB6903F42F
:10390C008033002B0DD0374A7B6AB2FBF3F23B6A53
:10391C0002FB03F3FB6204E03B6A334A02FB03F352
:10392C00FB622F4B5B6803F48003B3F5800F02D16D
:10393C00FB6ABB624AE0FB6A5B002C4AA2FB0323D6
:10394C005B08BB6242E0264B1B6AFB61FB6903F41C
:10395C004073B3F5807F08D1FB6903F00203002BA1
:10396C0003D04FF40043BB621FE0FB6903F44073C8
:10397C00B3F5007F09D11A4B5B6A03F00203002BED
:10398C0003D049F64043BB620FE0FB6903F440737C
:10399C00B3F5407F1CD1124B1B6803F40033002B92
:1039AC0016D04FF22443BB6212E011E0FFF778FE11
:1039BC0002460B4B5B689B0B03F0030301335B006C
:1039CC00B2FBF3F3BB6204E000BF02E000BF00E017
:1039DC0000BFBB6A18463437BD4690BD6C4B00081F
:1039EC000010024000127A0000093D00ABAAAAAAFE
:1039FC0080B584B000AF78600023FB607B68002B3F
:103A0C0001D1012384E07B685B7CDBB2002B05D108
:103A1C007B6800221A747868FDF75CFC7B680222D4
:103A2C005A74786800F0C8F90346002B04D07B6800
:103A3C0004225A7401236BE0786800F081FA034683
:103A4C00002B04D07B6804225A74012360E07B684D
:103A5C001B685A687B681B6822F007025A607B68F7
:103A6C009B68002B05D02C4B1B6B2B4A23F00103BE
:103A7C001363294BDB6A23F460727B689B682649CD
:103A8C001343CB627B685B68B3F1FF3F03D07B6869
:103A9C005B68FB600EE00120FFF7EAFEF860FB6854
:103AAC00002B04D17B6804225A74012330E0FB689C
:103ABC00013BFB607B681B689B6823F00F01FB6874
:103ACC001A0C7B681B680A439A607B681B68DB686E
:103ADC001B0C1B04FA6891B27A6812680B43D36012
:103AEC00786800F055FA0346002B04D07B6804225A
:103AFC005A7401230CE07B680022DA737B68012284
:103B0C005A737B6801229A737B6801225A740023D2
:103B1C0018461037BD4680BD006C004090B587B08C
:103B2C0000AFF860B9607A6000237B6100233B61D1
:103B3C00FB68002B02D0BB68002B01D1012380E075
:103B4C00FB681B7C012B01D102237AE0FB6801226C
:103B5C001A74FB6802225A747B68002B13D1BB6861
:103B6C001B781A464FF4616303FB02F2BB685B7867
:103B7C0019460B461B015B1A9B001344BA689278DA
:103B8C0013447B611EE0BB681B78184600F028FAD2
:103B9C0003461A464FF4616303FB02F4BB685B787F
:103BAC00184600F01DFA03461A4613461B019B1AD1
:103BBC009B001C44BB689B78184600F011FA034626
:103BCC0023447B617969F86800F053F90346002BB4
:103BDC0007D0FB6804225A74FB6800221A74012374
:103BEC002FE0FB681B685A68FB681B6822F0050213
:103BFC005A60F86800F064F938613B69B3F1FF3F33
:103C0C0018D03A697B699A4214D23B6903F5A83300
:103C1C0003F5C0733B613969F86800F06AF9034633
:103C2C00002B07D0FB6804225A74FB6800221A741C
:103C3C00012306E0FB6801225A74FB6800221A7407
:103C4C00002318461C37BD4690BD000080B588B0D7
:103C5C0000AFF860B9607A600023FB610023BB61A0
:103C6C0000237B61FB68002B02D0BB68002B01D1C9
:103C7C00012397E0FB681B7C012B01D1022391E00F
:103C8C00FB6801221A74FB6802225A747B68002BB1
:103C9C000CD1BB68DA78FB68DA73BB685A78FB68BE
:103CAC005A73BB689A78FB689A731AE0BB68DB7826
:103CBC00184600F095F903461A46FB68DA73BB68A0
:103CCC005B78184600F08CF903461A46FB685A7369
:103CDC00BB689B78184600F083F903461A46FB68CC
:103CEC009A73FB68DB7B1846FB68597BFB689B7BF4
:103CFC001A4600F093F903461A46FB681A73FB68E0
:103D0C001A7BBB681A70F86800F083F8F861FB69DD
:103D1C00264AA2FB0323DB0A7B617B69182B3AD969
:103D2C007B69234AA2FB03231B09224A02FB03F3F0
:103D3C00FA69D31AFB61F969F86800F09AF803463E
:103D4C00002B07D0FB6804225A74FB6800221A74FB
:103D5C00012327E0F86800F0B3F8B861BB69B3F150
:103D6C00FF3F18D0BA69FB699A4214D2BB6903F5BC
:103D7C00A83303F5C073BB61B969F86800F0B9F8F2
:103D8C000346002B07D0FB6804225A74FB68002200
:103D9C001A74012306E0FB6801225A74FB680022A6
:103DAC001A74002318462037BD4680BDC5B3A291B6
:103DBC00ABAAAAAA8051010080B584B000AF78608C
:103DCC000023FB607B68002B01D101231DE07B6885
:103DDC001B685A687B681B6822F008025A60FEF761
:103DEC0031F9F86009E0FEF72DF90246FB68D31AA9
:103DFC00B3F57A7F01D9032307E07B681B685B6806
:103E0C0003F00803002BEED0002318461037BD46F4
:103E1C0080BD80B487B000AF786000237B82002324
:103E2C003B820023FB8100237B617B681B689B69C1
:103E3C007B827B681B68DB69FB817B681B689B69E9
:103E4C003B827A8A3B8A9A4208D03B8A1A047B6866
:103E5C001B68DB699BB213437B6104E07B8A1A0409
:103E6C00FB8913437B617B6918461C37BD4680BCBC
:103E7C00704780B584B000AF786039600023FB7365
:103E8C00786800F05DF80346002B02D00123FB7329
:103E9C0011E07B681B683A68120C9A617B681B689E
:103EAC003A6892B2DA61786800F072F80346002B37
:103EBC0001D00123FB73FB7B18461037BD4680BD38
:103ECC0080B485B000AF78600023FB810023BB81F8
:103EDC007B681B681B6AFB817B681B685B6ABB8108
:103EEC00FB891A04BB89134318461437BD4680BCA2
:103EFC00704780B584B000AF786039600023FB73E5
:103F0C00786800F01DF80346002B02D00123FB73E8
:103F1C0011E07B681B683A68120C1A627B681B689C
:103F2C003A6892B25A62786800F032F80346002B75
:103F3C0001D00123FB73FB7B18461037BD4680BDB7
:103F4C0080B584B000AF78600023FB60FEF77AF890
:103F5C00F86009E0FEF776F80246FB68D31AB3F571
:103F6C007A7F01D903230FE07B681B685B6803F041
:103F7C002003002BEED07B681B685A687B681B689B
:103F8C0042F010025A60002318461037BD4680BD1F
:103F9C0080B584B000AF78600023FB607B681B6841
:103FAC005A687B681B6822F010025A60FEF74AF8C8
:103FBC00F86009E0FEF746F80246FB68D31AB3F541
:103FCC007A7F01D9032307E07B681B685B6803F0E9
:103FDC002003002BEED0002318461037BD4680BDC1
:103FEC0080B485B000AF0346FB710023FB60FB7906
:103FFC001B09DBB21A4613469B0013445B00FB60A3
:10400C00FB7903F00F03DAB2FB68DBB21344DBB2CB
:10401C0018461437BD4680BC7047000080B485B08C
:10402C0000AF78600B46FB701346BB700023BB607F
:10403C000023FB607B6803F5FA63BB60FB78022B03
:10404C002DD8FA7813465B001344DB009B1A2C4ADC
:10405C00A2FB03235A08BB781A44BB681A44BB68FA
:10406C00013B9B081A44BB68013B2649A1FB031387
:10407C005B09D21ABB68013B2249A1FB0313DB0984
:10408C0013441A1D204BA3FB0213D11A49080B44ED
:10409C0099080B46DB005B1AD31AFB6029E0FA780F
:1040AC0013465B001344DB009B1A154AA2FB032347
:1040BC005A08BB781A44BB681A44BB689B081A445C
:1040CC00BB681049A1FB03135B09D21ABB680D49ED
:1040DC00A1FB0313DB0913449A1C0B4BA3FB021328
:1040EC00D11A49080B4499080B46DB005B1AD31A0A
:1040FC00FB60FB68DBB218461437BD4680BC7047CA
:10410C00398EE3381F85EB512549922480B582B056
:10411C0000AF78607B681B681B6803F00103002B01
:10412C0027D07B681B685B6803F00103002B20D051
:10413C007B681B685B6803F00403002B0BD078686A
:10414C0000F024F87B681B686FF004025A607B68EF
:10415C0004225A7405E0786800F00FF87B6801229D
:10416C005A747B681B685A687B681B6822F00102D2
:10417C005A6000BF0837BD4680BD80B483B000AF25
:10418C00786000BF0C37BD4680BC704780B483B0EC
:10419C0000AF786000BF0C37BD4680BC7047000094
:1041AC00014B1868704700BF3400002070B5002523
:1041BC000C4E0D4CA41BA410A54209D100F044FCDC
:1041CC0000250A4E0A4CA41BA410A54205D170BDB3
:1041DC0056F8253098470135EEE756F825309847C4
:1041EC000135F2E75C5F00085C5F00085C5F00086B
:1041FC00605F000830B50024A24201D1002007E026
:10420C00035D01340D1915F8015CAB42F4D0581B59
:10421C0030BD10B5431E0A44914200D110BD11F8B7
:10422C00014B03F8014FF7E703460244934200D1D8
:10423C00704703F8011BF9E70EB46FF0004100B5AD
:10424C009CB01DAB02900690079104910848094957
:10425C0053F8042B0591006802A9019300F066F84D
:10426C000022029B1A701CB05DF804EB03B070477F
:10427C00340000200802FFFF2DE9F0478E688246CB
:10428C009E420C469046994637D88A8912F4906F14
:10429C0031D00223256809696F1A656905EB45055C
:1042AC0095FBF3F509F101033B449D4238BF1D46D4
:1042BC00530530D5294600F02DFB064650B90C238A
:1042CC004FF0FF30CAF80030A38943F04003A381BC
:1042DC00BDE8F0873A462169FFF79BFFA38923F4D9
:1042EC00906343F08003A38126613E4426604E46D2
:1042FC006561ED1BA5604E4500D94E4632464146E0
:10430C00206800F0A1FAA36800209B1BA36023681F
:10431C001E442660DCE72A4600F056FB06460028C1
:10432C00E2D12169504600F0A9FAC8E72DE9F04F17
:10433C001D468B899DB01F0680460C4616460FD530
:10434C000B696BB9402100F0E5FA2060206128B9B7
:10435C000C23C8F800304FF0FF30C8E040236361F5
:10436C000023099320238DF8293030234FF0010BC3
:10437C008DF82A30039537463D4615F8013B0BB1B5
:10438C00252B3ED1B7EB060A0BD0534632462146BD
:10439C004046FFF771FF013000F0A480099B5344A5
:1043AC0009933B78002B00F09D8000234FF0FF32E7
:1043BC00CDE90523049307938DF853301A932F46B8
:1043CC00052217F8011B504800F030FA049BD0B9B5
:1043DC00D90644BF20228DF853201A0744BF2B2244
:1043EC008DF853202A782A2A15D02F4600200A252A
:1043FC00079A394611F8013B303B092B4DD9B8B11E
:10440C000FE02F46B8E7404A3D46801A0BFA00F001
:10441C0018430490D3E7039A111D12680391002AE4
:10442C0001DB079204E0524243F00203079204932B
:10443C003B782E2B0CD17B782A2B33D1039B023764
:10444C001A1D1B680392002BB8BF4FF0FF33059366
:10445C002E4D03223978284600F0E8F938B1402374
:10446C00401B03FA00F0049B013703430493397893
:10447C00062227487E1C8DF8281000F0D7F900285A
:10448C0038D0244B13BB039B073323F007030833AB
:10449C000393099B4B4409936DE705FB0232012002
:1044AC000F46A6E700230A2519460137059338461F
:1044BC0010F8012B303A092A03D9002BC8D00591EA
:1044CC00C6E705FB012101230746F0E703AB009388
:1044DC002246114B04A94046AFF30080B0F1FF3FD8
:1044EC008146D6D1A3895B063FF535AF09981DB03F
:1044FC00BDE8F08F03AB00932246074B04A940465E
:10450C0000F082F8EAE700BF285F00082E5F000881
:10451C00325F000800000000854200082DE9F047DA
:10452C0091461F468A680B6906469342B8BF1346EC
:10453C00C9F8003091F843200C46DDF8208012B108
:10454C000133C9F800302368990642BFD9F800300E
:10455C000233C9F80030256815F0060507D104F1BF
:10456C00190AE368D9F800209B1AAB4229DC94F8AD
:10457C0043302268003318BF012392062ED404F175
:10458C00430239463046C047013021D02368E568E4
:10459C0003F00603042B18BF0025D9F800204FF0B8
:1045AC00000908BFAD1AA368226908BF25EAE575A2
:1045BC009342C4BF9B1AED181A344D451AD10020F2
:1045CC0008E00123524639463046C047013003D13A
:1045DC004FF0FF30BDE8F0870135C2E73020E1181D
:1045EC0081F843005A1C94F845102244023382F897
:1045FC004310C4E70123224639463046C0470130F8
:10460C00E6D009F10109D8E72DE9F04301F1430C9B
:10461C000C46097E85B06E291746064698460C9ABC
:10462C0000F0B38022D8632936D00AD8002900F0D4
:10463C00B980582900F0838004F1420584F84210B7
:10464C0032E0642901D06929F6D120681368050687
:10465C0003F104012AD51B681160002B03DA2D220B
:10466C005B4284F843206F480A2239E0732900F03A
:10467C009D8008D86F2920D07029DDD1236843F0A4
:10468C002003236003E0752917D07829D4D178232F
:10469C00654884F8453055E0136804F14205191D4E
:1046AC001B68116084F8423001238CE01B6810F009
:1046BC00400F116018BF1BB2CFE713682568181D97
:1046CC001060280601D51B6802E06806FBD51B8824
:1046DC006F2914BF0A2208225248002184F8431083
:1046EC006568002DA560C0F29580216821F0040159
:1046FC002160002B3DD1002D40F08E806546082AAC
:10470C000BD12368DB0708D5236962689A42DEBFA8
:10471C00302305F8013C05F1FF35ACEB05032361B3
:10472C00CDF800803B4603AA21463046FFF7F6FE43
:10473C0001304DD14FF0FF3005B0BDE8F083394862
:10474C0084F84510136821681D1D1B6815600A0646
:10475C000BD5CA0744BF41F0200121601BB9226868
:10476C0022F0200222601022B7E74D0648BF9BB210
:10477C00EFE76546B3FBF2F102FB1133C35C05F8BE
:10478C00013D0B460029F5D1B9E713682568181DC2
:10479C006169106028061B6801D5196002E06A0681
:1047AC00FBD51980002365462361B9E71368191DF1
:1047BC0011601D6862680021284600F037F808B1C6
:1047CC00401B606063682361002384F84330A7E7D3
:1047DC0023692A4639463046C0470130AAD023689F
:1047EC009B0713D4E068039B9842B8BF1846A3E715
:1047FC0001234A4639463046C04701309AD001352C
:10480C00E368039A9B1AAB42F2DCEBE7002504F158
:10481C001909F5E7002BACD1037804F1420584F8B3
:10482C0042306CE7395F00084A5F000810B5C9B226
:10483C0002449042034601D1002303E01C7801306E
:10484C008C42F6D1184610BD884210B501EB02031C
:10485C0007D8421E99420AD011F8014B02F8014FB9
:10486C00F8E78342F5D98118D21AD34200D110BD92
:10487C0013F8014D01F8014DF7E7000038B5054676
:10488C00002943D051F8043C0C1F002BB8BFE4188E
:10489C0000F0D0F81E4A1368104633B963601460F8
:1048AC002846BDE8384000F0C6B8A3420BD92168B1
:1048BC006218934201BF1A685B68521822606360E9
:1048CC000460EDE713465A680AB1A242FAD9196896
:1048DC005818A0420BD12068014458188242196024
:1048EC00DED110685268014419605A60D8E702D9C9
:1048FC000C232B60D4E7206821188A4201BF116871
:10490C0052680918216062605C60C9E738BD00BF5D
:10491C000406002070B5CD1C25F0030508350C2DC0
:10492C0038BF0C25002D064601DBA94203D90C2308
:10493C003360002070BD00F07DF8214A14682146D8
:10494C0091B9204C23681BB9304600F063F8206005
:10495C002946304600F05EF8431C24D10C23304627
:10496C00336000F068F8E4E70B685B1B18D40B2B82
:10497C000FD90B60CC18CD50304600F05CF804F128
:10498C000B00231D20F00700C31AD3D05A42E2506B
:10499C00D0E74B688C4216BF636013600C46EBE7A4
:1049AC000C464968CCE7C41C24F00304A04205D093
:1049BC00211A304600F02EF80130CFD02560DBE70D
:1049CC000406002008060020F8B5074614460E46DB
:1049DC0021B9BDE8F8401146FFF79CBF22B9FFF79B
:1049EC004DFF25462846F8BD00F026F8A0420FD210
:1049FC0021463846FFF78EFF05460028F2D0314697
:104A0C002246FFF706FC31463846FFF737FFE9E749
:104A1C003546E7E738B50023054C054608462360C4
:104A2C00FCF7ECFC431C02D1236803B12B6038BDAE
:104A3C000C0600207047704751F8043C181F002BDF
:104A4C00BCBF0B58C0187047F8B500BFF8BC08BC09
:104A5C009E467047F8B500BFF8BC08BC9E46704730
:104A6C00E5B08FE68190E9BE99E6B8B8E6888F008C
:104A7C00E5BC80E5A78B000025640000E5BE97E54A
:104A8C008886EFBC9A000000E69C80E9AB98E5882C
:104A9C0086EFBC9A00000000E696B0E7BAAAE5BD26
:104AAC0095EFBC810000000025640000E5BE97E591
:104ABC0088863A00E7AD89E7BAA73A00E697B6E9E7
:104ACC0097B42873293A0000E4BD9CE880853AE746
:104ADC008E8BE699B4E5B79D00000000E78988E667
:104AEC009CAC3A56312E3000E5B08FE68190E9BE91
:104AFC0099E6B8B8E6888F00E6989FE79083E5A41E
:104B0C00A7E68898E6B8B8E6888F0000E697B6E97D
:104B1C0097B40000E6B8B8E6888F0000E9A38EE6EB
:104B2C008987E68EA7E588B600000000E6B8A9E6FE
:104B3C00B9BFE5BAA6000000E8AEBEE7BDAE000006
:104B4C00E78988E69CACE4BFA1E681AF00000000D9
:104B5C0002030405060708090A0B0C0D0E0F1010B2
:104B6C0002030405060708090A0B0C0D0E0F1010A2
:104B7C0000000000000000000000FEFFF1F5F1FF56
:104B8C00FFFFFF7F7E7FFCF8E0E0F8FCFCFEFFFF00
:104B9C00FFFFFF7F041C000000008080818387FFE3
:104BAC00DF878787FFC3C3818080808080808000FF
:104BBC00151700007C4B00080000000000000000EE
:104BCC000000FEFFFFFBFFFFBFBFBF3F3E3FFCF8F7
:104BDC00F0F0F8FCFCFEFFFFFFFFFF7F040C000071
:104BEC0000008080818387FFDF8F87878F8B8B818D
:104BFC00808080808080800015170000C44B0008E6
:104C0C0000000000000000000000FEFFFFFBFFFFA3
:104C1C00BFBFBF3F3E3FFCF8F0F0F8FCFCFEFFFFCF
:104C2C00FFFFFF7F040C0000000080808183878FD2
:104C3C009F97878FFFC3C381808080808080800096
:104C4C00151700000C4C00080000000000000000CC
:104C5C000000FEFFFFFBFFFFBFBFBF3F3E3FFCF866
:104C6C00F0F0F8FCFCFEFFFFFFFFFF7F040C0000E0
:104C7C0000008080818387FFDF8F878FFFC3C38114
:104C8C00808080808080800015170000544C0008C4
:104C9C00F800FFFFC07CC1C1FFFFC0C0060E0000C2
:104CAC009C4C000880C08000FFFFFFFF00E0E0E0AC
:104CBC003F7F7F60FFFFFFFF607F3F1F8080808012
:104CCC00FFFFFFFF808080800C170000B04C0008B5
:104CDC000004070B0E111417191C1E1F212223246C
:104CEC00252526262525242322211F1E1C191714B1
:104CFC00110E0B0704000000000000000000000073
:104D0C000102030406070809000000000102030465
:104D1C000000000000000000000000000000FC008B
:104D2C000000000002000000000C020C0200000059
:104D3C000000000090D0BCD0BC9000030003000029
:104D4C001824FE448C000302070201001824D8B07A
:104D5C004C80000300010201C038E438E00001027D
:104D6C000201020208060000000000000000000022
:104D7C00000000F80402000000010204000204F824
:104D8C0000000004020100009060F8609000000038
:104D9C00010000002020FC20200000000100000089
:104DAC000000000000000806000000002020202069
:104DBC0020000000000000000000000000000002C5
:104DCC00000000000080601C0200040300000000D2
:104DDC00F8040404F8000102020201000008FC00BF
:104DEC00000000020302000018844424180003028F
:104DFC000202020008042424D8000102020201006D
:104E0C0040B088FC80000000000302003C242424F5
:104E1C00C400010202020100F824242CC00001028B
:104E2C00020201000C04E41C04000000030000005A
:104E3C00D8242424D800010202020100384444443E
:104E4C00F800000302020100000010000000000046
:104E5C00020000000000200000000000060000001E
:104E6C0000205088040200000000010290909090F5
:104E7C009000000000000000000204885020000296
:104E8C00010000001804C4241800000002000000F7
:104E9C00F804E494F80001020202020000E09CF025
:104EAC00800002030000030204FC2424D800020347
:104EBC0002020100F80404040C00010202020100C9
:104ECC0004FC0404F80002030202010004FC247434
:104EDC000C0002030202030004FC24740C00020305
:104EEC0002000000F0080444CC4000010202010062
:104EFC0004FC2020FC040203000003020404FC0454
:104F0C000400020203020200000404FC0404060470
:104F1C000403000004FC24D00C040203020003026E
:104F2C0004FC04000000020302020203FC3CC03C2F
:104F3C00FC0003000300030004FC30C4FC04020367
:104F4C0002000300F8040404F8000102020201004C
:104F5C0004FC24241800020302000000F8848404DA
:104F6C00F80001020207050004FC24649800020307
:104F7C0002000302182424448C00030202020100E4
:104F8C000C04FC040C0000020302000004FC0000F2
:104F9C00FC04000102020100047C80E01C040000FF
:104FAC00030000001CE03CE01C00000300030000B8
:104FBC00049C609C0400020300030200041CE01C1F
:104FCC0004000002030200000C84641C04000203B1
:104FDC00020203000000FE020200000007040400AD
:104FEC00000E30C00000000000010200000202FEB2
:104FFC00000000040407000000040204000000008C
:10500C000000000000000000000008080808080864
:10501C000000020000000000000000000040A0A002
:10502C00C00000010202030204FC2020C0000003A7
:10503C000202010000C020206000000102020200F8
:10504C0000C02024FC0000010202030200C0A0A04A
:10505C00C0000001020202000020F8242404000217
:10506C00030202000040A0A0602000070A0A0A0404
:10507C0004FC2020C0000203020003020020E40014
:10508C000000000203020000000020E400000808F9
:10509C000807000004FC80E0202002030200030249
:1050AC000404FC000000020203020200E020E020E5
:1050BC00C00003000300030020E02020C000020316
:1050CC000200030200C02020C00000010202010007
:1050DC0020E02020C000080F0A02010000C02020A0
:1050EC00E0000001020A0F0820E04020200002032B
:1050FC00020000000060A0A02000000202020300D9
:10510C000020F820000000000102020020E0002036
:10511C00E00000010202030220E020806020000079
:10512C00030100006080E0806000000300030000C9
:10513C0020608060200002030003020020E0208039
:10514C0060200808070100000020A0602000000279
:10515C0003020200000020DE020000000007040031
:10516C00000000FF00000000000F00000002DE2025
:10517C000000000407000000020102040402000009
:10518C00000000000C0600001C4D00080000000090
:10519C00000000000000000000000000000000F80B
:1051AC0000000000000000333000000000100C066E
:1051BC00100C0600000000000000000040C0784009
:1051CC00C0784000043F04043F040400007088FCD5
:1051DC0008300000001820FF211E0000F008F0002D
:1051EC00E018000000211C031E211E0000F008889E
:1051FC00700000001E2123241927211010160E0008
:10520C00000000000000000000000000000000E0B2
:10521C0018040200000000071820400000020418C7
:10522C00E00000000040201807000000404080F023
:10523C00804040000202010F01020200000000F059
:10524C00000000000101011F01010100000000002D
:10525C000000000080B070000000000000000000A2
:10526C00000000000001010101010101000000002B
:10527C0000000000003030000000000000000000C2
:10528C0080601804006018060100000000E010089F
:10529C000810E000000F102020100F00001010F874
:1052AC00000000000020203F2020000000700808B3
:1052BC000888700000302824222130000030088833
:1052CC00884830000018202020110E000000C0205B
:1052DC0010F8000000070424243F240000F808887C
:1052EC00880808000019212020110E0000E0108809
:1052FC0088180000000F112020110E00003808083B
:10530C00C83808000000003F00000000007088084A
:10531C0008887000001C222121221C0000E01008CB
:10532C000810E0000000312222110F00000000C024
:10533C00C0000000000000303000000000000080C1
:10534C0000000000000080600000000000008040B1
:10535C0020100800000102040810200040404040CA
:10536C00404040000404040404040400000810201D
:10537C004080000000201008040201000070480862
:10538C000808F0000000003036010000C030C828CA
:10539C00E810E0000718272423140B000000C03885
:1053AC00E0000000203C23020227382008F88888FF
:1053BC0088700000203F202020110E00C03008080B
:1053CC0008083800071820202010080008F80808E2
:1053DC000810E000203F202020100F0008F88888DB
:1053EC00E8081000203F20202320180008F88888A7
:1053FC00E8081000203F200003000000C03008081F
:10540C000838000007182020221E020008F80800A7
:10541C000008F808203F210101213F20000808F86E
:10542C00080800000020203F202000000000080891
:10543C00F8080800C08080807F00000008F888C051
:10544C0028180800203F20012638200008F8080002
:10545C0000000000203F20202020300008F8F80039
:10546C00F8F80800203F003F003F200008F830C04B
:10547C000008F808203F200007183F00E01008083B
:10548C000810E0000F10202020100F0008F808086A
:10549C000808F000203F210101010000E01008087D
:1054AC000810E0000F18242438504F0008F88888A2
:1054BC0088887000203F2000030C30200070880882
:1054CC00080838000038202121221C00180808F890
:1054DC00080818000000203F2000000008F8080011
:1054EC000008F808001F202020201F0008788800E2
:1054FC0000C83808000007380E010000F80800F852
:10550C000008F800033C0700073C030008186880FB
:10551C008068180820302C03032C30200838C80071
:10552C00C83808000000203F2000000010080808C0
:10553C00C83808002038262120201800000000FE62
:10554C00020202000000007F40404000000C30C00E
:10555C0000000000000000010638C000000202023A
:10556C00FE000000004040407F00000000000402EC
:10557C000202040000000000000000000000000017
:10558C000000000080808080808080800002020407
:10559C0000000000000000000000000000008080FF
:1055AC00808000000019242222223F2008F800806D
:1055BC0080000000003F112020110E000000008030
:1055CC0080800000000E11202020110000000080BF
:1055DC008088F800000E112020103F2000008080F1
:1055EC0080800000001F222222221300008080F005
:1055FC00888888180020203F202000000000808030
:10560C0080808000006B94949493600008F8008074
:10561C0080800000203F210000203F2000809898CF
:10562C00000000000020203F20200000000000802F
:10563C009898000000C08080807F000008F800006F
:10564C0080808000203F24022D302000000808F8C4
:10565C00000000000020203F20200000808080807F
:10566C0080808000203F20003F20003F8080008011
:10567C0080800000203F210000203F20000080801F
:10568C0080800000001F202020201F0080800080D0
:10569C008000000080FFA12020110E00000000807F
:1056AC0080808000000E112020A0FF808080800070
:1056BC008080800020203F2120000100000080809D
:1056CC00808080000033242424241900008080E092
:1056DC00808000000000001F20200000808000005F
:1056EC0000808000001F202020103F208080800040
:1056FC000080808000010E30080601008080008050
:10570C00008080800F300C030C300F000080800074
:10571C00808080000020312E0E312000808080009F
:10572C000080808080818E7018060100008080804F
:10573C00808080000021302C2221300000000000ED
:10574C00807C020200000000003F4040000000008E
:10575C00FF00000000000000FF0000000002027CBF
:10576C00800000000040403F0000000000060101E6
:10577C0002020404000000000000000010080000F9
:10578C0098510008E5B08F00000000E0000000FF19
:10579C000000002040800000080403000040807FCF
:1057AC000000000000010E00E68190008082827EE5
:1057BC004242807E122202FE0000C00040310000F6
:1057CC003A4140445840407001093100E9BE99000B
:1057DC001010101010FF1010F0101116D010100037
:1057EC0080402018064120103F4442414040780040
:1057FC00E6B8B8001060028C0008F94EC820584F6B
:10580C0048C8080004047E8140300F407F00448467
:10581C007F040400E6888F000008488808C83840D8
:10582C004040FF2022AC20000020100C0304188004
:10583C00402017182641F000E5BC8000808282824F
:10584C00FE8282828282FE828282800000804030D0
:10585C000F0000000000FF0000000000E5A78B0017
:10586C001010F01F10F00040E05847405060C0008E
:10587C004022150816210000FE42424242FE000062
:10588C00E9A38E000000FE021222C202C23202FE06
:10589C000000000080601F0020100C030C30000F73
:1058AC003040F800E68987000000FC2424242526DB
:1058BC0024242424243C000040300F211549817FEE
:1058CC0000211549817F0000E68EA700101010FF03
:1058DC009020984828090E2848A818000242817F79
:1058EC000040404242427E4242424000E588B600BF
:1058FC0040504E4848FF48484840F80000FF000020
:10590C0000003E0202FF12221E000F40807F0000AA
:10591C00E697B60000FC848484FC00101010101074
:10592C00FF101000003F1010103F000001064080D7
:10593C007F000000E997B40000F8010600F0121295
:10594C0012F2020202FE000000FF0000001F111103
:10595C00111F0040807F0000E6B8A9001060028C87
:10596C000000FE9292929292FE00000004047E01CE
:10597C00407E42427E427E42427E4000E6B9BF00FB
:10598C001060028C00FE929292929292FE000000A5
:10599C0004047E014448507F40407F5048444000FE
:1059AC00E5BAA6000000FC242424FC252624FC24B3
:1059BC002424040040308F80844C55252525554CDB
:1059CC0080808000E8AEBE00404042CC0040A09EEB
:1059DC008282829EA02020000000003F90884043DD
:1059EC002C10284641808000E7BDAE00202F29A94D
:1059FC00A9AFE9B9A9AFA9A9292F2000808080FF00
:105A0C00AAAAAAAAAAAAAAFF80808000E78988006D
:105A1C0000FE20203F2000FC24E4242223E200008E
:105A2C00807F0101FF80601F804126182641800085
:105A3C00E69CAC000010101010D030FF30D01010CD
:105A4C001010000010080402090808FF08080902D9
:105A5C0004081000E4BFA100008060F807000424D3
:105A6C002425262424240400010000FF000000F952
:105A7C004949494949F90000E681AF00000000FCA2
:105A8C0054545655545454FC00000000403000034C
:105A9C00394141455941417300083000E4BD9C0037
:105AAC00008060F80740300FF88888888808080064
:105ABC00010000FF00000000FF08080808080000B3
:105ACC00E8808500202024242424BF642434282446
