:020000040800F2
:100000000050002045400008693F00086F3F00088D
:10001000753F00087B3F0008813F0008000000009A
:10002000000000000000000000000000873F000802
:10003000933F0008000000009F3F0008AB3F00080E
:100040008D4000088D4000088D400008B93F000831
:100050008D4000088D4000088D4000088D4000084C
:100060008D4000088D4000088D4000088D4000083C
:100070008D4000088D4000088D4000088D4000082C
:100080008D4000088D4000088D4000088D4000081C
:100090008D4000088D4000088D4000088D4000080C
:1000A0008D4000088D4000088D4000088D400008FC
:1000B0008D4000088D4000088D4000088D400008EC
:1000C0008D4000088D4000088D4000088D400008DC
:1000D0008D4000088D4000088D4000088D400008CC
:1000E0008D4000088D4000088D4000080000000091
:1000F0000000000000000000000000000000000000
:0C01000000000000000000005FF808F1A3
:10010C0010B5054C237833B9044B13B10448AFF345
:10011C0000800123237010BD6C0300200000000040
:10012C00F88B000808B5034B1BB103490348AFF328
:10013C00008008BD0000000070030020F88B000850
:10014C0080B500AF4FF400412A4805F063FB03462D
:10015C00002B0CD1322005F0D3F84FF40041254888
:10016C0005F058FB0346002B40D101233FE04FF430
:10017C008051204805F04EFB0346002B0CD1322059
:10018C0005F0BEF84FF480511A4805F043FB0346C6
:10019C00002B2BD102232AE04FF40051154805F017
:1001AC0039FB0346002B0CD1322005F0A9F84FF493
:1001BC000051104805F02EFB0346002B16D10323EB
:1001CC0015E04FF480410B4805F024FB0346002B4F
:1001DC000CD1322005F094F84FF48041054805F01D
:1001EC0019FB0346002B01D1042300E00023184621
:1001FC0080BD00BF000C014080B487B000AFF86038
:10020C00B9607A604FF0FF337B61BB68012B02D081
:10021C00BB68022B05D1BB680C33BB60FB68013B90
:10022C00FB607B685A1CBB685B00D118BB685A1C0E
:10023C0013465B001344294A82FB03025210DB175E
:10024C00D31ACA18FB681A44FB68002B00DA033374
:10025C009B101A44FB68224981FB03014911DB17EF
:10026C005B1A1A44FB681E4981FB0301C911DB1799
:10027C00CB1A1A441B4B83FB021313449910D3174C
:10028C00C91A0B46DB005B1AD31A7B617B69062B00
:10029C001ED801A252F823F0C1020008C5020008C2
:1002AC00C9020008CD020008D1020008D5020008DE
:1002BC00D90200080C4B0CE00C4B0AE00C4B08E08C
:1002CC000C4B06E00C4B04E00C4B02E00C4B00E03A
:1002DC00002318461C37BD4680BC704767666666AF
:1002EC001F85EB5193244992108C0008148C000844
:1002FC00188C00081C8C0008208C0008248C00082A
:10030C00288C000880B483B000AF786039607B68BB
:10031C001B78052B03D17B683C221A700EE07B689E
:10032C001B783C2B03D17B685A221A7006E07B6841
:10033C001B785A2B02D17B6805221A7000BF0C3730
:10034C00BD4680BC704780B483B000AF7860396024
:10035C007B681B78052B03D17B6819221A701EE071
:10036C007B681B78192B03D17B683C221A7016E032
:10037C007B681B783C2B03D17B6850221A700EE0F3
:10038C007B681B78502B03D17B6867221A7006E0C0
:10039C007B681B78672B02D17B6805221A7000BF23
:1003AC000C37BD4680BC704780B485B000AFF86098
:1003BC00B9607A603B603B681B78052B0DD1FB68FC
:1003CC001B780133DAB2FB681A70FB681B78632B5D
:1003DC0026D9FB6800221A7022E03B681B783C2B64
:1003EC000DD1BB681B780133DAB2BB681A70BB68DD
:1003FC001B780C2B14D9BB6800221A7010E03B68D8
:10040C001B785A2B0CD17B681B780133DAB27B68D2
:10041C001A707B681B781F2B02D97B6800221A701C
:10042C0000BF1437BD4680BC7047000080B485B057
:10043C0000AFF860B9607A603B607B6B1B78052B72
:10044C0011D1FB6893F90030DBB20133DBB25AB245
:10045C00FB681A70FB6893F90030022B67DDFB68B0
:10046C0000221A7063E07B6B1B78192B2BD1324B5B
:10047C0093F90030012B11DC7B6893F90030DBB26F
:10048C000133DBB25AB27B681A707B6893F9003087
:10049C00092B4CDD7B6800221A7048E0274B0122A7
:1004AC001A70BB6893F90030DBB20133DBB25AB27D
:1004BC00BB681A70BB6893F90030032B37DDBB683F
:1004CC0000221A7033E07B6B1B783C2B11D13B68FC
:1004DC0093F90030DBB20133DBB25AB23B681A70CD
:1004EC003B6893F90030052B21DD3B6800221A7024
:1004FC001DE07B6B1B78502B11D1BB6993F900303D
:10050C00DBB20133DBB25AB2BB691A70BB6993F927
:10051C000030092B0BDDBB6900221A7007E07B6BE6
:10052C001B78672B03D17B6A01221A7000BF00BFB6
:10053C001437BD4680BC7047880300208903002017
:10054C0080B500AF03F050FC00BF80BD80B58AB011
:10055C0004AF3B1D00221A605A609A60DA601A617F
:10056C00FFF7EEFD0346002B04D0FFF7E9FF002355
:10057C0000F080BD03F0C0FD03F0DEFD924B1A7855
:10058C00924B1A71904BDA78904B5A718E4B1A79B8
:10059C008E4B9A718C4B5A798C4B1A708A4B9A7978
:1005AC008A4B5A70884B1A7A884B9A70864BDA7938
:1005BC00864BDA7003F088FF844B1B79844AA2FBCC
:1005CC000323DB08DAB2834B1B789A420BD0824BA5
:1005DC0000221A707D4B1B797D4AA2FB0323DB089A
:1005EC00DAB27C4B1A70794B1A79794BA3FB021354
:1005FC00D9080B469B000B445B00D31ADAB2774B3D
:10060C001B789A4210D0764B00221A706F4B1A79D5
:10061C006F4BA3FB0213D9080B469B000B445B00EA
:10062C00D31ADAB26D4B1A70684B5B79684AA2FB2D
:10063C000323DB08DAB26B4B1B789A420BD06A4B64
:10064C0000221A70614B5B79614AA2FB0323DB0821
:10065C00DAB2644B1A705D4B5A795D4BA3FB0213F3
:10066C00D9080B469B000B445B00D31ADAB25F4BE4
:10067C001B789A4210D05E4B00221A70534B5A7959
:10068C00534BA3FB0213D9080B469B000B445B0096
:10069C00D31ADAB2554B1A704C4B9B794C4AA2FBCD
:1006AC000323DB08DAB2534B1B789A420BD0524B24
:1006BC0000221A70454B9B79454AA2FB0323DB08A9
:1006CC00DAB24C4B1A70414B9A79414BA3FB021393
:1006DC00D9080B469B000B445B00D31ADAB2474B8C
:1006EC001B789A4213D0464B01221A70454B0022BC
:1006FC001A70364B9A79364BA3FB0213D9080B466A
:10070C009B000B445B00D31ADAB23C4B1A702F4B94
:10071C001A792F4BA3FB0213D9080B469B000B44F1
:10072C005B00D31ADBB2002B40F0B480274B5B7913
:10073C00092B00F2AF80254B5A79254BA3FB0213F2
:10074C00D9080B469B000B445B00D31ADBB2002B81
:10075C0040F0A0801D4B9B79092B00F29B801B4B1A
:10076C009A791B4BA3FB0213D9080B469B000B4435
:10077C005B00D31ADBB2002B40F08C80164B1B783D
:10078C000133DAB2144B1A70134B1B78182B3FD968
:10079C003B1D14220021184607F0D4FD0B4B1B798E
:1007AC000B4AA2FB0323DB08DBB21A463B1D16499E
:1007BC00184607F003FE3A1D00230093134B142137
:1007CC00052004F0A6FB80E0AC050020A00400206E
:1007DC00CDCCCCCC8A0300208B0300208C030020D2
:1007EC008D0300208E0300208F0300209003002037
:1007FC009103002092030020930300209403002017
:10080C0095030020960300202C8C000834A20008CD
:10081C003B1D14220021184607F094FDBD4B1B799B
:10082C00BD4AA2FB0323DB08DBB21A463B1DBB49C6
:10083C00184607F0C3FDBA4B1B78391D00220292F3
:10084C00019318230093B74B0A461421052004F09A
:10085C00AFFB3B1D14220021184607F073FDAD4B76
:10086C001B79013BB04A82FB03129210DB17D21AA0
:10087C003B1DAA49184607F0A1FDA94B1B78391D51
:10088C00002201920093A74B0A461421052004F084
:10089C0066FB1AE03B1D14220021184607F052FD9E
:1008AC009C4B1B799C4AA2FB0323DB08DBB21A4648
:1008BC003B1D9A49184607F081FD3A1D0023009311
:1008CC00984B1421052004F024FB924B5B79092BE7
:1008DC0000F29A808F4B5A798F4BA3FB0213D908E5
:1008EC000B469B000B445B00D31ADBB2002B40F091
:1008FC008B80884B9B79092B00F28680854B9A79EB
:10090C00854BA3FB0213D9080B469B000B445B00E1
:10091C00D31ADBB2002B77D1814B1B780133DAB2BF
:10092C007F4B1A707E4B1B78182B20D93B1D142241
:10093C000021184607F006FD764B1A79764BA3FB7F
:10094C000213D9080B469B000B445B00D31ADBB295
:10095C001A463B1D7149184607F030FD3A1D00231D
:10096C000093704B1421192004F0D3FA6CE03B1D5A
:10097C0014220021184607F0E5FC664B1A79664BE9
:10098C00A3FB0213D9080B469B000B445B00D31A44
:10099C00DBB21A463B1D6149184607F00FFD604B50
:1009AC001B78391D002202920193182300935D4B92
:1009BC000A461421192004F0FBFA3B1D14220021D5
:1009CC00184607F0BFFC534B1B795A1E564B83FB42
:1009DC0002139910D317C91A0B469B000B445B00EA
:1009EC00D11A3B1D0A464D49184607F0E7FC4C4B03
:1009FC001B78391D0022019200934A4B0A461421A0
:100A0C00192004F0ACFA1FE03B1D142200211846FB
:100A1C0007F098FC3F4B1A793F4BA3FB0213D90804
:100A2C000B469B000B445B00D31ADBB21A463B1DF2
:100A3C003A49184607F0C2FC3A1D00230093394B83
:100A4C001421192004F065FA3B1D142200211846CC
:100A5C0007F078FC2F4B9B7903F00103DBB2002BE2
:100A6C0008D1002300932F4B304A14212D2004F081
:100A7C0050FA07E0002300932A4B2D4A14212D2015
:100A8C0004F047FA234B5A79234BA3FB0213D908E2
:100A9C000B469B000B445B00D31ADBB2002B40F0DF
:100AAC008D801C4B9B79092B00F28880194B9A790D
:100ABC00194BA3FB0213D9080B469B000B445B009C
:100ACC00D31ADBB2002B79D11A4B1B780133DAB273
:100ADC00184B1A70174B1B78182B2DD93B1D142251
:100AEC000021184607F02EFC0A4B5B790A4AA2FB40
:100AFC000323DB08DBB21A463B1D0849184607F0F6
:100B0C005DFC3A1D00230093064B14213C2004F09D
:100B1C0000FA6EE0A0040020CDCCCCCC2C8C0008CC
:100B2C008D03002034A2000867666666308C0008CE
:100B3C00348C00088F0300203B1D14220021184622
:100B4C0007F000FCBB4B5B79BB4AA2FB0323DB0821
:100B5C00DBB21A463B1DB949184607F02FFCB84BBF
:100B6C001B78391D00220292019318230093B54B78
:100B7C000A4614213C2004F01BFA3B1D14220021D0
:100B8C00184607F0DFFBAB4B5B79013BAE4A82FBAF
:100B9C0003129210DB17D21A3B1DA849184607F016
:100BAC000DFCA74B1B78391D002201920093A54B1D
:100BBC000A4614213C2004F0D2F91AE03B1D142201
:100BCC000021184607F0BEFB9A4B5B799A4AA2FBB0
:100BDC000323DB08DBB21A463B1D9849184607F085
:100BEC00EDFB3A1D00230093964B14213C2004F09E
:100BFC0090F9904B9B79092B00F286808D4B9A795A
:100C0C008D4BA3FB0213D9080B469B000B445B00D6
:100C1C00D31ADBB2002B77D18C4B1B780133DAB2B1
:100C2C008A4B1A70894B1B78182B20D93B1D142228
:100C3C000021184607F086FB7E4B5A797E4BA3FBAE
:100C4C000213D9080B469B000B445B00D31ADBB292
:100C5C001A463B1D7949184607F0B0FB3A1D002394
:100C6C000093784B1421502004F053F96CE03B1D99
:100C7C0014220021184607F065FB6E4B5A796E4B17
:100C8C00A3FB0213D9080B469B000B445B00D31A41
:100C9C00DBB21A463B1D6949184607F08FFB6B4BBC
:100CAC001B78391D00220292019318230093654B87
:100CBC000A461421502004F07BF93B1D142200211C
:100CCC00184607F03FFB5B4B5B795A1E5E4B83FB70
:100CDC0002139910D317C91A0B469B000B445B00E7
:100CEC00D11A3B1D0A465549184607F067FB574B6E
:100CFC001B78391D002201920093524B0A46142195
:100D0C00502004F02CF91FE03B1D14220021184642
:100D1C0007F018FB474B5A79474BA3FB0213D90832
:100D2C000B469B000B445B00D31ADBB21A463B1DEF
:100D3C004249184607F042FB3A1D00230093414BF1
:100D4C001421502004F0E5F83A4B9A793A4BA3FB66
:100D5C000213D9080B469B000B445B00D31ADBB281
:100D6C00002B79D13A4B1B780133DAB2384B1A701D
:100D7C00374B1B78102B1BD93B1D14220021184616
:100D8C0007F0E0FA2B4B9B792B4AA2FB0323DB08E1
:100D9C00DBB21A463B1D2949184607F00FFB3A1DDA
:100DAC00002300932B4B1C21672004F0B2F86EE05B
:100DBC003B1D14220021184607F0C4FA1D4B9B79E9
:100DCC001D4AA2FB0323DB08DBB21A463B1D1B4961
:100DDC00184607F0F3FA1E4B1B78391D00220292BD
:100DEC000193102300931B4B0A461C21672004F02F
:100DFC00DFF83B1D14220021184607F0A3FA0D4B17
:100E0C009B79013B104A82FB03129210DB17D21A1A
:100E1C003B1D0A49184607F0D1FA0D4B1B78391DBA
:100E2C000022019200930B4B0A461C21672004F010
:100E3C0096F82CE0A0040020CDCCCCCC2C8C000857
:100E4C008F03002034A200086766666691030020B9
:100E5C009303002078A400083B1D1422002118469F
:100E6C0007F070FA854B9B79854AA2FB0323DB08BC
:100E7C00DBB21A463B1D8349184607F09FFA3A1D10
:100E8C0000230093804B1C21672004F042F87F4B19
:100E9C001B78002B76D07E4B1B780133DAB27C4B5F
:100EAC001A707B4B1B78102B20D93B1D1422002170
:100EBC00184607F047FA714B9A79714BA3FB021352
:100ECC00D9080B469B000B445B00D31ADBB21A46C5
:100EDC003B1D6C49184607F071FA3A1D002300932C
:100EEC00694B1C21742004F014F84BE03B1D1422B8
:100EFC000021184607F026FA604B9A79604BA3FB49
:100F0C000213D9080B469B000B445B00D31ADBB2CF
:100F1C001A463B1D5B49184607F050FA5C4B1B7890
:100F2C00391D00220292019310230093564B0A465E
:100F3C001C21742004F03CF83B1D1422002118469F
:100F4C0007F000FA4D4B9B795A1E524B83FB021350
:100F5C009910D317C91A0B469B000B445B00D11A8E
:100F6C003B1D0A464749184607F028FA484B1B78A0
:100F7C00391D002201920093434B0A461C21742018
:100F8C0003F0EDFF012300930C2310220C2174209D
:100F9C0003F0F9FD012300930C2310220C21672090
:100FAC0003F0F1FD0123009314231422002150209F
:100FBC0003F0E9FD012300931423142200213C20AB
:100FCC0003F0E1FD012300931423142200211920C6
:100FDC0003F0D9FD012300931423142200210520D2
:100FEC0003F0D1FD3B1D14220021184607F0AAF98D
:100FFC00224B1B7803F5FA62204B5B7819461F4B8A
:10100C00DB78381D00930B46234907F0D7F93A1DBE
:10101C0000230093214B0821052003F07AFF3B1D90
:10102C0014220021184607F08DF9144B1B7803F598
:10103C00FA60124B5B781946104BDB781A46FFF7B7
:10104C00DBF802463B1D1146184607F0D7F93A1D4E
:10105C0000230093114B0821642003F05AFF03F086
:10106C003FFAFFF76DF80346002B3FF479AAFFF720
:10107C0067FA002318461837BD4680BDA00400202F
:10108C00CDCCCCCC2C8C000878A400089503002087
:10109C009603002067666666388C0008B4910008D9
:1010AC0090B58DB002AF07F1080300221A605A60A8
:1010BC009A60DA601A614FF42F73BB840523FB71BD
:1010CC001423BB71002387F8233000237B7100238A
:1010DC003B710023FB700023FB8400233B84002323
:1010EC00FB770023BB77002387F8233003F004F849
:1010FC0003F022F88F4B5A798F4B1A708D4B9A79DB
:10110C008D4B5A708B4BDA798B4BDA70894B1A7A80
:10111C00894B9A70874B1A78874B1A71854BDA7802
:10112C00854B5A71834B1A79834B9A7103F0CCF926
:10113C00814B1B789AB27B799BB21344FB84FB8C5A
:10114C00632B02D9FB8C643BFB84FB8C03F5FA63A9
:10115C003B8407F1080314220021184607F0F2F82B
:10116C003B8C764AA2FB03239B099BB21A4607F1E0
:10117C0008037349184607F021F907F10802002308
:10118C000093704B1421052003F0C3FE07F10803F4
:10119C0014220021184607F0D5F83B8C6A4AA2FBB2
:1011AC0003235B099AB2694BA3FB0213D9080B46C4
:1011BC009B000B445B00D31A9BB21A4607F1080341
:1011CC005F49184607F0FAF807F10802002300936C
:1011DC005C4B1421112003F09CFE07F10803142230
:1011EC000021184607F0AEF83B8C584AA2FB0323AB
:1011FC00DB089AB2554BA3FB0213D9080B469B0094
:10120C000B445B00D31A9BB21A4607F108034C49F6
:10121C00184607F0D3F807F1080200230093494B56
:10122C0014211C2003F075FE07F108031422002181
:10123C00184607F087F83A8C444BA3FB0213D908E5
:10124C000B469B000B445B00D31A9BB21A4607F16A
:10125C0008033B49184607F0B1F807F108020023D0
:10126C000093384B1421272003F053FE324B5B784C
:10127C001A463B7913440C2B07DD2F4B5A783B79DC
:10128C001344DBB20C3BDBB204E02B4B5A783B79BA
:10129C001344DBB2FB7707F1080314220021184634
:1012AC0007F050F8FB7F294AA2FB0323DB08DBB2D3
:1012BC001A4607F108032249184607F07FF807F190
:1012CC000802002300931F4B14213C2003F021FE45
:1012DC0007F1080314220021184607F033F8FA7FAF
:1012EC001A4BA3FB0213D9080B469B000B445B0063
:1012FC00D31ADBB21A4607F108031149184607F056
:10130C005DF807F10802002300930E4B14214820CE
:10131C0003F0FFFD084BDB781A46FB7813441F2BB8
:10132C0016DD054BDA78FB781344DBB21F3BDBB2DE
:10133C0013E000BFAC050020A0040020D34D6210C8
:10134C002C8C000878A400081F85EB51CDCCCCCC9C
:10135C008E4BDA78FB781344DBB2BB7707F10803CA
:10136C0014220021184606F0EDFFBB7F884AA2FB31
:10137C000323DB08DBB21A4607F10803854918463C
:10138C0007F01CF807F1080200230093824B14218C
:10139C005A2003F0BEFD07F1080314220021184661
:1013AC0006F0D0FFBA7F7A4BA3FB0213D9080B4689
:1013BC009B000B445B00D31ADBB21A4607F10803FF
:1013CC007449184606F0FAFF07F10802002300934F
:1013DC00714B1421662003F09CFD03F087FF02463D
:1013EC006E4B1B68D21ABB8C9A420ED36C4B1B787B
:1013FC00002B0CBF01230023DBB21A46684B1A707A
:10140C0003F074FF0246654B1A60654B1B78002B8A
:10141C0053D0FB79052B20D1002300935E4B614AFE
:10142C001421052003F075FD002300935A4B5D4AEF
:10143C001421112003F06DFD00230093564B594AE3
:10144C0014211C2003F065FD00230093524B554AD8
:10145C001421272003F05DFD2FE0FB793C2B10D1EC
:10146C00002300934C4B4F4A14213C2003F051FDB8
:10147C0000230093484B4B4A1421482003F049FDAC
:10148C001BE0FB795A2B10D100230093424B454AA9
:10149C0014215A2003F03DFD002300933E4B414A9A
:1014AC001421662003F035FD07E0F879B9790023A3
:1014BC000093394B3B4A03F02CFD03F011F8FEF777
:1014CC003FFE034687F8233097F82330012B06D1D3
:1014DC00FFF736F8B42003F013FF002351E097F820
:1014EC002330022B0CD1FC1DFA1C391D781DBB1DA1
:1014FC0000932346FEF758FFB42003F001FFF2E5FA
:10150C0097F82330032B09D1BA1DFB1D1146184641
:10151C00FEF7F8FEB42003F0F3FEE4E597F8233071
:10152C00042B7FF4E0AD3B8C1F4AA2FB0312520943
:10153C00642101FB02F29B1A9BB2DAB21B4B5A716B
:10154C001A4AFB7F9371194ABB7FD3710F4B1A79DF
:10155C00164B1A700D4B5A79144BDA700B4B9A7957
:10156C00124B1A71114802F049FE02F0A1FE002341
:10157C007B7100233B710023FB70B42003F0C0FE91
:10158C00B1E518462C37BD4690BD00BFA004002025
:10159C00CDCCCCCC2C8C000878A40008980300206F
:1015AC009C030020348C00081F85EB51A8040020FC
:1015BC0090B597B00AAF07F1100300221A605A6079
:1015CC009A60DA601A614FF4FA737B850523FB731A
:1015DC001423BB73002387F82930002387F82F309E
:1015EC00002387F82830002387F82730002387F85A
:1015FC002630002387F82530002387F82E3000236F
:10160C007B7300233B730023FB720023BB7200230C
:10161C007B7200233B720023FB710023BB71002300
:10162C0087F82D3000237B7100233B710023FB7066
:10163C00002387F82C30B54B00221A70002387F852
:10164C00293002F059FD02F077FDB14B5A79B14BBC
:10165C001A70AF4B9A79AF4B5A70AD4BDA79AD4BE0
:10166C00DA70AB4B1A78AB4B1A71A94BDA78A94BE1
:10167C005A71A74B1A79A74B9A7102F025FFA54B0B
:10168C001B795BB2A44A82FB03129210DB17D31AAC
:10169C005BB21A4697F90D301344022B13DD9D4BA8
:1016AC001B795BB29C4A82FB03129210DB17D31A94
:1016BC005BB2DAB297F90D30DBB21344DBB2033B09
:1016CC00DBB25BB210E0934B1B795BB2924A82FBAC
:1016DC0003129210DB17D31A5BB2DAB297F90D3002
:1016EC00DBB21344DBB25BB2884A137007F1100310
:1016FC0014220021184606F025FE844B93F9003085
:10170C001A4607F110038549184606F057FE07F1F3
:10171C00100200230093824B1421052003F0F9FBE7
:10172C007A4B93F90030012B67DC7E4B1B78012B35
:10173C001CD197F82F00774B1B795AB2764B83FB51
:10174C0002139910D317C91A0B469B000B445B006C
:10175C00D31A5BB2DBB2C31ADBB20A33DBB25BB2B5
:10176C00FB7200233B736F4B00221A70694B1B7981
:10177C005AB2694B83FB02139910D317C91A0B4643
:10178C009B000B445B00D31A5BB21A4697F90B30E3
:10179C001344092B18DD5F4B1B795AB25E4B83FB4C
:1017AC0002139910D317C91A0B469B000B445B000C
:1017BC00D31A5BB2DAB297F90B30DBB21344DBB25B
:1017CC000A3BDBB25BB215E0524B1B795AB2524B5F
:1017DC0083FB02139910D317C91A0B469B000B44B9
:1017EC005B00D31A5BB2DAB297F90B30DBB213445D
:1017FC00DBB25BB287F82F30A0E0464B1B795AB2B4
:10180C00454B83FB02139910D317C91A0B469B0047
:10181C000B445B00D31A5BB21A4697F90B30134496
:10182C00033B002B49DD3B4B1B795AB23A4B83FBF4
:10183C0002139910D317C91A0B469B000B445B007B
:10184C00D31A5BB21A4697F90B3013440A3B032B9D
:10185C002FDC304B1B795AB22F4B83FB02139910A0
:10186C00D317C91A0B469B000B445B00D31A5BB20F
:10187C001A4697F90B3013440A3B002B19DB254B06
:10188C001B795AB2244B83FB02139910D317C91A34
:10189C000B469B000B445B00D31A5BB2DAB297F990
:1018AC000B30DBB21344DBB20A3BDBB287F82C30D3
:1018BC001AE0032387F82C3016E0164B1B795AB22A
:1018CC00154B83FB02139910D317C91A0B469B00B7
:1018DC000B445B00D31A5BB2DAB297F90B30DBB274
:1018EC001344DBB287F82C3097F92C3097F90C2085
:1018FC001344032B18DD97F82C2097F90C30DBB22E
:10190C001344DBB2043BDBB25BB215E0880300206E
:10191C00AC050020A0040020676666662C8C0008CD
:10192C0034A200088903002097F82C2097F90C307A
:10193C00DBB21344DBB25BB287F82F3007F1100334
:10194C0014220021184606F0FDFC97F92F2007F110
:10195C001003BB49184606F031FD07F110020023B5
:10196C000093B84B1421192003F0D3FA07F110039C
:10197C0014220021184606F0E5FCB34B9B7903F0CA
:10198C000103DBB2002B08D100230093AD4BAF4A0F
:10199C0014212D2003F0BDFA07E000230093A94B7E
:1019AC00AB4A14212D2003F0B4FAA74B5B795BB240
:1019BC00A84A82FB03129210DB17D31A5BB21A46A9
:1019CC0097F90A301344052B13DD9F4B5B795BB2FF
:1019DC00A04A82FB03129210DB17D31A5BB2DAB265
:1019EC0097F90A30DBB21344DBB2063BDBB25BB2D5
:1019FC0010E0954B5B795BB2964A82FB0312921016
:101A0C00DB17D31A5BB2DAB297F90A30DBB21344A4
:101A1C00DBB25BB287F8283007F1100314220021E7
:101A2C00184606F08FFC97F9282007F1100384491B
:101A3C00184606F0C3FC07F1100200230093814BFB
:101A4C0014213C2003F065FA7F4B5B795AB2814B31
:101A5C0083FB02139910D317C91A0B469B000B4436
:101A6C005B00D31A5BB21A4697F909301344092B61
:101A7C0018DD754B5B795AB2764B83FB02139910C8
:101A8C00D317C91A0B469B000B445B00D31A5BB2ED
:101A9C00DAB297F90930DBB21344DBB20A3BDBB2A2
:101AAC005BB215E0684B5B795AB26A4B83FB02134D
:101ABC009910D317C91A0B469B000B445B00D31A21
:101ACC005BB2DAB297F90930DBB21344DBB25BB22A
:101ADC0087F8273007F1100314220021184606F06E
:101AEC0031FC97F9272007F110035549184606F0E9
:101AFC0065FC07F1100200230093524B1421502077
:101B0C0003F007FA97F90630012B05D14E4B9B7960
:101B1C0087F82D300023BB7197F92D30002B12D094
:101B2C00494B9A7997F82D30D31ADBB287F82E30BF
:101B3C0097F92E30002B0ADA002387F82E30002379
:101B4C0087F82D3003E0404B9B7987F82E3097F9BE
:101B5C002E30404A82FB03129210DB17D31A87F8FF
:101B6C00263007F1100314220021184606F0EAFB78
:101B7C0097F9262007F110033149184606F01EFC90
:101B8C0007F1100200230093334B1C21672003F054
:101B9C00C0F997F92E202F4B83FB02139910D31702
:101BAC00C91A0B469B000B445B00D31A87F82530EF
:101BBC0007F1100314220021184606F0C3FB97F915
:101BCC00252007F110031E49184606F0F7FB07F114
:101BDC00100200230093204B1C21742003F099F970
:101BEC0003F084FB02461D4B1B68D21A7B8D9A4274
:101BFC000ED31B4B1B78002B0CBF01230023DBB235
:101C0C001A46174B1A7003F071FB0246134B1A60FD
:101C1C00134B1B78002B2DD0FB7B672B22D1002381
:101C2C0000930D4B0A4A1C21672003F072F9002324
:101C3C000093094B064A1C21742003F06AF919E041
:101C4C002C8C000834A20008A0040020308C000862
:101C5C00348C00086766666678A40008A003002030
:101C6C00A4030020F87BB97B00230093734B744AC8
:101C7C0003F04FF907F1100314220021184606F067
:101C8C0061FB704B1B7803F5FA626E4B5B7819465F
:101C9C006C4BDB7807F1100000930B466A4906F099
:101CAC008DFB07F1100200230093684B08210520DF
:101CBC0003F02FF907F1100314220021184606F047
:101CCC0041FB604B1B7803F5FA605E4B5B78194661
:101CDC005C4BDB781A46FEF78FFA024607F11003CD
:101CEC001146184606F08AFB07F1100200230093F8
:101CFC00564B0821642003F00CF902F0F1FBFEF7BF
:101D0C001FFA034687F8293097F82930012B06D1A2
:101D1C00FEF716FCB42003F0F3FA00238AE097F8E0
:101D2C002930022B24D107F10A0407F10B0207F129
:101D3C000C0107F10D0007F10E03089307F10F03D7
:101D4C000793FB1C06933B1D05937B1D0493BB1D46
:101D5C000393FB1D029307F10803019307F1090399
:101D6C0000932346FEF762FBB42003F0C9FA65E446
:101D7C0097F82930032B0BD107F10E0207F10F0353
:101D8C0011461846FEF7DFFAB42003F0B9FA55E411
:101D9C0097F82930042B7FF451AC2A4B1A7897F919
:101DAC000530DBB21344DAB2294B5A71254B5A7801
:101DBC00274B9A71234BDA78254BDA71254B93F923
:101DCC000030DBB21A46920013445B00DAB297F88B
:101DDC002F301344DAB21E4B1A7097F828301A467B
:101DEC00920013445B00DAB297F827301344DAB24E
:101DFC00174BDA7097F82E20154B1A71144802F015
:101E0C00FDF902F055FA00237B7300233B7300238A
:101E1C00FB720023BB7200237B7200233B720023F6
:101E2C00FB710023BB71002387F82D30B42003F025
:101E3C0067FA03E418463437BD4690BD34A2000857
:101E4C00348C0008A0040020388C0008B4910008E1
:101E5C00A80400208803002080B582B002AF02F0F5
:101E6C0033FB002300930E4B0E4A0821002003F095
:101E7C00F4F8002300930A4B0B4A2B21002003F0AB
:101E8C00ECF802F02DFB00BF4FF40041074803F0C3
:101E9C00C1FC0346002BF7D100BFBD4680BD00BF7F
:101EAC0088AB0008488C00085C8C0008000C0140D2
:101EBC0080B584B002AF00237B6002F005FB02F01A
:101ECC000FFA03461A46504B1A704F4B1B78012BD6
:101EDC000CD14E4B1B78013BDAB24C4B1A704B4B6E
:101EEC001B78002B02D1494B03221A70464B1B78EE
:101EFC00022B0CD1454B1B780133DAB2434B1A70D1
:101F0C00424B1B78042B02D1404B01221A703E4BE2
:101F1C001B78032B02D13D4B1B787B603A4B1B7813
:101F2C00042B01D100236BE07B68012B08D100F05E
:101F3C00EBFA00237B604FF4967003F0E1F916E0A6
:101F4C007B68022B08D101F015F800237B604FF45D
:101F5C00967003F0D5F90AE07B68032B07D100F0EB
:101F6C0061FD00237B604FF4967003F0C9F9274B99
:101F7C001B78013B032B27D801A252F823F000BF9A
:101F8C009D1F0008AB1F0008B91F0008C71F0008E1
:101F9C0000231F4A0021002002F001FF15E000235E
:101FAC001B4A1021002002F0FAFE0EE00023184A12
:101FBC002021002002F0F3FE07E00023144A302118
:101FCC00002002F0ECFE00E000BF00230093114B58
:101FDC00114A00210A2003F040F8002300930D4B16
:101FEC000E4A10210A2003F038F800230093094B05
:101FFC000B4A20210A2003F030F802F071FA5CE75A
:10200C0018460837BD4680BDBC04002000000020E7
:10201C00F802002088AB0008688C0008788C000857
:10202C00888C000880B584B002AF00237B6002F07E
:10203C004BFA02F055F903461A463A4B1A70394BD3
:10204C001B78012B0CD1384B1B78013BDAB2364B89
:10205C001A70354B1B78002B02D1334B02221A70AD
:10206C00304B1B78022B0CD12F4B1B780133DAB27F
:10207C002D4B1A702C4B1B78032B02D12A4B0122AF
:10208C001A70284B1B78032B02D1274B1B787B60D3
:10209C00244B1B78042B01D100233EE07B68012BE1
:1020AC0008D1FFF785FA00237B604FF4967003F09C
:1020BC0027F90AE07B68022B07D1FEF7F1FF00231A
:1020CC007B604FF4967003F01BF9174B1B78012BB8
:1020DC0002D0022B07D00DE00023144A002100206F
:1020EC0002F05DFE06E00023104A1021002002F0F1
:1020FC0056FE00BF002300930D4B0E4A00210A2010
:10210C0002F0ABFF00230093094B0B4A10210A206D
:10211C0002F0A3FF02F0E4F989E718460837BD4640
:10212C0080BD00BFBC04002001000020F80200208C
:10213C0088AB0008988C0008A88C000880B582B089
:10214C0002AF02F0C1F902F0CBF803461A46534B2A
:10215C001A70524B1B78012B0DD1514B1B78013B44
:10216C00DAB24F4B1A704E4B1B78002B1CD14C4BD8
:10217C0006221A7018E0494B1B78022B0DD1484BE4
:10218C001B780133DAB2464B1A70454B1B78072B80
:10219C000AD1434B01221A7006E0404B1B78032BEB
:1021AC0002D13F4B1B7876E03D4B1B78013B052B56
:1021BC0038D801A252F823F0DD210008EB210008E9
:1021CC00F921000807220008152200082322000824
:1021DC000023344A0021002002F0E1FD23E000231B
:1021EC00304A1021002002F0DAFD1CE000232D4AB9
:1021FC002021002002F0D3FD15E00023294A3021D4
:10220C00002002F0CCFD0EE00023264A0021002025
:10221C0002F0C5FD07E00023224A1021002002F045
:10222C00BEFD00E000BF1E4B1B78042B20D8002302
:10223C0000931D4B1D4A00210A2002F00EFF0023C3
:10224C000093194B1A4A10210A2002F006FF0023B2
:10225C000093154B174A20210A2002F0FEFE0023A2
:10226C000093114B144A30210A2002F0F6FE0FE0C5
:10227C00002300930C4B114A00210A2002F0EDFEC2
:10228C0000230093084B0E4A10210A2002F0E5FEB1
:10229C0002F026F955E71846BD4680BDBC04002067
:1022AC0002000020F802002088AB0008B88C00085F
:1022BC00C08C0008C88C0008D88C0008E48C00087E
:1022CC00EC8C000880B584B002AF01237B6002F077
:1022DC00FBF80023124A27210A2002F060FD4FF47C
:1022EC000041104803F096FA0346002B11D07B688E
:1022FC00DAB2002300933F233F21002002F008FBB9
:10230C0002F0EEF87B6804337B607B687F2B02DC89
:10231C00E5E700BF00E000BF0837BD4680BD00BF49
:10232C00C48E0008000C014080B582B000AF03469B
:10233C003960FB803B68002B07D1FB88D9B20023A6
:10234C00154A0A2002F02BFD21E03B68012B07D136
:10235C00FB88D9B20023114A0A2002F020FD16E0B6
:10236C003B68B3F1FF3F07D1FB88D9B200230C4A7D
:10237C000A2002F014FD0AE03B6813F1020F06D1AB
:10238C00FB88D9B20023074A0A2002F008FD00BFDF
:10239C000837BD4680BD00BF348E00087C8E000817
:1023AC00C48E0008EC8D000880B582B000AF0346E7
:1023BC003960FB80B7F906203B681B78C3F17F03BB
:1023CC009A420BDCFB88D8B23B685B78C3F13F03C5
:1023DC00D9B200233A6802F0E2FC00E000BF0837F3
:1023EC00BD4680BD80B584B002AF78600B46FB70F3
:1023FC0097F90330002B15D17A681849184805F065
:10240C00DDFF00230093174B174A0321482002F0ED
:10241C0024FE00230093134B114A0321662002F083
:10242C001CFE16E0114B1B681A460C490C4805F0B3
:10243C00C5FF002300930B4B0D4A16213C2002F0E4
:10244C000CFE00230093074B054A1621662002F070
:10245C0004FE00BF0837BD4680BD00BFFC8C0008E1
:10246C00AC03002058AD0008008D0008A803002024
:10247C000C8D000880B586B002AFBA607B60034655
:10248C00FB810B46BB81B7F918306FF00101184680
:10249C00FFF74AFFB7F90E30396A1846FFF784FF89
:1024AC00B7F90C30796A1846FFF77EFF00230093CA
:1024BC003F237F223F21002002F02AFA0021B86836
:1024CC00FFF790FF0D4B1B68BA689A420BDD0B4A65
:1024DC00BB68136000230093094B0A4A16214B205A
:1024EC0002F0BBFD03E00121B868FFF77BFF01F0B0
:1024FC00F7FF00BF1037BD4680BD00BFA80300200A
:10250C0058AD00081C8D000880B58EB004AFFC23BC
:10251C003B8140F27D13FB803B89C8339BB2FB842B
:10252C00FB88C8339BB2BB8402F0E0FE034603F089
:10253C000703002B01D0B04B00E0B04B3B6202F024
:10254C00D5FE0146AE4BA3FB01239A0813469B0014
:10255C001344CA1A002A01D0A74B00E0A74BFB6119
:10256C0015239BB20A339BB2BB8027237B830023AA
:10257C007B6100233B610023FB600023FB72FFF7B0
:10258C00A1FE01F0A1FF4FF480519E4803F042F9E7
:10259C000346002B0FD04FF400519A4803F03AF940
:1025AC000346002B07D04FF48041964803F032F9D4
:1025BC000346002B05D17B69002B0BD101237B61DA
:1025CC0008E04FF400418F4803F024F90346002B38
:1025DC0000F05081B7F92620B7F904107B69052B60
:1025EC00A8BF0523CB1A9A4229DCB7F926300B2B4E
:1025FC0025DDB7F91A3017221A443B6A5B78C3F110
:10260C003F039A421BDBB7F92410B7F92600FB698C
:10261C0003933B6A0293B7F904300193B7F91A306C
:10262C0000937B69FA68FFF725FF00BF4FF4004168
:10263C00744803F0EFF80346002BF7D11BE1B7F910
:10264C002420B7F904107B69052BA8BF0523CB1AEE
:10265C009A4229DCB7F924300B2B25DDB7F91A3057
:10266C0017221A44FB695B78C3F13F039A421BDBC8
:10267C00B7F92610B7F92400FB6903933B6A029360
:10268C00B7F904300193B7F91A3000937B69FA68F3
:10269C00FFF7F0FE00BF4FF400415A4803F0BAF8C0
:1026AC000346002BF7D1E6E07B69002B10DD7B693C
:1026BC00013B554AD35C9BB2C3F127039BB27B838E
:1026CC007B6901337B617B69262B01DD00237B61F8
:1026DC003B6901333B613B694C4A82FB031252104C
:1026EC00DB17D31AFB600021F868FFF77BFE7B69D0
:1026FC00002B07D0B7F91A304FF0FF311846FFF70F
:10270C0013FE17E097F90B30042BCCBF01230023E9
:10271C00DBB21A46B7F91A3011461846FFF704FE19
:10272C00FB7A0133DBB2FB7297F90B30092B01DD1D
:10273C000023FB72B7F92630396A1846FFF734FECE
:10274C00B7F92430F9691846FFF72EFE00230093E1
:10275C003F237F223F21002002F0DAF8FB8C023B62
:10276C009BB2FB84BB8C023B9BB2BB84B7F926307B
:10277C00002B1FDC02F0BAFD0246214BA3FB022307
:10278C00D9081F4BA3FB01231A0913469B001344C2
:10279C009B00CA1A92B23B8913449BB2FB8402F091
:1027AC00A5FD034603F00303002B01D0124B00E000
:1027BC00124B3B62B7F92430002B2BDC02F096FD58
:1027CC0002460F4BA3FB0223D9080D4BA3FB01239D
:1027DC001A0913469B0013449B00CA1A92B2FB8839
:1027EC0013449BB2BB8402F081FD034603F001034A
:1027FC00002B0DD0004B0CE0D88E0008048F000885
:10280C00CDCCCCCC000C01400C8F00086766666602
:10281C001A4BFB61FA8CBB8CD31A9BB21AB2184BB5
:10282C001A80174BB3F90030002B0DDD144BB3F9A4
:10283C0000302E2B08DCFA8C114BB3F900309BB214
:10284C0013449BB2FB8412E00D4BB3F90030002B08
:10285C000DDA0B4BB3F9003013F12E0F07DBBA8CEA
:10286C00074BB3F900309BB213449BB2BB8401F00D
:10287C0037FE86E600BF2837BD4680BD048F0008B2
:10288C00BC03002080B500AF4FF48041054802F036
:10289C00C1FF0346002B01D1012300E000231846A1
:1028AC0080BD00BF000C014080B586B002AF3B4636
:1028BC0000221A605A609A60C3F80B2001F004FEE3
:1028CC004F4B1A683B464F49184605F077FD3A4680
:1028DC00002300934C4B0021502002F01AFB4B4B71
:1028EC001B68D8B24A4B1B68DAB20023009313461C
:1028FC000A22002102F0F6F8444B1B68DBB2023BC3
:10290C00D8B2434B1B68DBB2063BD9B20023009311
:10291C0006230E2202F0E6F83C4B1B68D8B23C4B67
:10292C001B68DBB21E33D9B2394B1B68DBB2C3F167
:10293C004003DAB20023009313460A2202F0D2F8C5
:10294C00324B1B68DBB2023BD8B2314B1B68DBB29B
:10295C001E33D9B20023009306230E2202F0C2F8D4
:10296C002C4B1B68D8B22C4B1B68DAB2002300939B
:10297C0013460A22002102F0B5F8264B1B68DBB285
:10298C00023BD8B2244B1B68DBB2063BD9B2002306
:10299C00009306230E2202F0A5F81E4B1B68D8B23A
:1029AC001D4B1B68DBB21E33D9B21B4B1B68DBB251
:1029BC00C3F14003DAB20023009313460A2202F05B
:1029CC0091F8144B1B68DBB2023BD8B2124B1B685C
:1029DC00DBB21E33D9B20023009306230E2202F081
:1029EC0081F80E4B1B68D9B200230D4A142002F05B
:1029FC00D6F901F075FD00BF1037BD4680BD00BF94
:102A0C00D40400202C8D0008B4910008D8040020B8
:102A1C00D0040020C0040020C8040020C4040020FE
:102A2C003C8F000880B586B002AF3B4600221A608E
:102A3C005A609A60C3F80B200023FB73AF4B8022C3
:102A4C001A60AF4BC0221A6005F084FC0246AD4BF5
:102A5C0083FB0213D910D317CB1A2A2101FB03F3E2
:102A6C00D31A0133A84A136005F074FC0246A54B37
:102A7C0083FB0213D910D317CB1A2A2101FB03F3C2
:102A8C00D31A0133A14A1360A14B20221A60A14B27
:102A9C000A221A60A04B00221A604FF400419F4892
:102AAC0002F0B8FE0346002B00F05181FB7B002B9B
:102ABC0040F0B380FFF7E6FE0346012B02D1944BA6
:102ACC0010221A608D4B1B68023B8C4A13608C4B96
:102ADC001B68023B8A4A13608D4B1B68053B8C4A72
:102AEC0013608B4B1B688E4A82FB03129210DB1710
:102AFC009A1A884B1B681344864A13607F4B1B68D9
:102B0C00023B002B19DA7D4B80221A6005F022FC67
:102B1C0002467C4B83FB0213D910D317CB1A2A2104
:102B2C0001FB03F3D31A0133774A1360764B1B680E
:102B3C00052B02DC744B06221A60714B1B68023B9E
:102B4C00002B19DA6E4B80221A6005F003FC02464A
:102B5C006C4B83FB0213D910D317CB1A2A2101FB20
:102B6C0003F3D31A0133694A1360684B1B68052BB6
:102B7C0002DC664B06221A60FFF796FE654B1B685B
:102B8C00002B02DA634B00221A60624B1B68402B4D
:102B9C0001DD0123FB73594B1B68132B14DD574BC1
:102BAC001B681F2B10DC5B4B1A68574B1B689A4237
:102BBC0008DB584B1B6803F10802534B1B681E3390
:102BCC009A4201DD0123FB734D4B1B68132B14DD63
:102BDC004B4B1B681F2B10DC4E4B1A684B4B1B6866
:102BEC009A4208DB4B4B1B6803F10802474B1B68EE
:102BFC001E339A4201DD0123FB73404B1B68102BE3
:102C0C0003D03F4B1B68102B04D1434B1B68013383
:102C1C00414A13601E2002F073FBFB7B012B7FF4F7
:102C2C003CAF01F051FC00233E4A0021002002F091
:102C3C00B6F800233C4A2021082002F0B0F800230B
:102C4C0000933A4B3A4A2021482002F006FA324BC4
:102C5C001A683B463749184605F0B0FB3A46002344
:102C6C000093354B3021482002F053F901F038FC29
:102C7C00FFF708FE0346012B60D10023FB731F4BAB
:102C8C0080221A601E4BC0221A6005F063FB0246BC
:102C9C001C4B83FB0213D910D317CB1A2A2101FB2F
:102CAC0003F3D31A0133184A1360174B1B68052B17
:102CBC0002DC154B06221A6005F04CFB0246114B48
:102CCC0083FB0213D910D317CB1A2A2101FB03F370
:102CDC00D31A01330D4A13600C4B1B68052B02DC15
:102CEC000A4B06221A600A4B20221A60094B322228
:102CFC001A60094B00221A6020E000BFD8040020A3
:102D0C00C0040020310CC330D0040020C8040020C3
:102D1C00CC040020C4040020D4040020000C01408A
:102D2C0067666666348F0008448F000858AD00084B
:102D3C00308D00082C8D0008B49100084FF4004130
:102D4C00064802F067FD0346002B02D0A5E600BF43
:102D5C0000E000BF1037BD4680BD00BF000C014035
:102D6C0080B400AF2D4B00221A602D4B00221A604C
:102D7C002C4B00221A602C4B08221A602B4B002281
:102D8C001A602B4B00221A602A4B5F221A602A4BC6
:102D9C0000221A60294B5F221A60294B00221A600C
:102DAC00284B5F221A60284B00221A60274B5F22A7
:102DBC001A60274B00221A60264B00221A60264B01
:102DCC0003221A60254B01221A60254B0A221A6035
:102DDC00244B05221A60244B00221A60234B01223B
:102DEC001A60234B00221A60224B00221A60224BDD
:102DFC0000221A60214B18221A60214B00221A6003
:102E0C00204B00221A60204B00221A601F4B00221C
:102E1C001A6000BFBD4680BC704700BFC0030020D5
:102E2C00C4030020C8030020C8020020CC030020EB
:102E3C00D0030020CC020020D4030020D0020020BC
:102E4C00D8030020D4020020DC030020D80200208C
:102E5C00E0030020E4030020DC020020E00200205C
:102E6C00E4020020E8020020E8030020EC0200202D
:102E7C00EC030020F0030020F4030020F0020020FB
:102E8C000004002004040020080400200C0400208E
:102E9C0080B500AF4FF480510F4802F0BBFC0346E5
:102EAC00002B01D1022314E04FF400510A4802F028
:102EBC00B1FC0346002B01D103230AE04FF48041FF
:102ECC00054802F0A7FC0346002B01D1012300E0CA
:102EDC000023184680BD00BF000C014080B500AF38
:102EEC001E21322002F060F911211E2002F05CF943
:102EFC0012213C2002F058F91021372002F054F92D
:102F0C002B21192002F050F92B21642002F04CF9EE
:102F1C003421752002F048F931210E2002F044F9D9
:102F2C001821182002F040F924214E2002F03CF91F
:102F3C003921502002F038F90B216B2002F034F9C2
:102F4C000B21962002F030F90521052002F02CF916
:102F5C000721082002F028F90C21462002F024F960
:102F6C0038210A2002F020F91921462002F01CF920
:102F7C0000BF80BD90B589B002AF00237B613B1DC3
:102F8C0000221A605A609A60C3F80B20FFF7E8FE23
:102F9C0002F0ACF90246A34B1A604FF40041A24870
:102FAC0002F038FC0346002B00F070849F4B1B682A
:102FBC00002B40F0C48301F087FAFFF78FFF02F07B
:102FCC0095F90246974B1B68D31A994A1360984B94
:102FDC001A68984B1B68D31A4CF25032934217D98B
:102FEC00934B1B68934A1360934B1B680133924AB3
:102FFC001360924B1B680133904A1360904B1B6813
:10300C0001338F4A13608F4B1B68013B8D4A136051
:10301C008D4B1B6801338C4A136005F09BF90246FB
:10302C008A4B83FB02131912D317CB1A4FF4487136
:10303C0001FB03F3D31A03F00103002B11D1824BD4
:10304C001B68012B0DD1824B1B68002B09D1814BC6
:10305C005F221A60804B1B68804A13607C4B0122F4
:10306C001A6005F077F90246784B83FB02131912AC
:10307C00D317CB1A4FF4487101FB03F3D31A03F5A2
:10308C00C871774B83FB0132CB17D21A13465B0006
:10309C001344CA1A012A11D16B4B1B68022B0DD198
:1030AC00704B1B68002B09D16F4B5F221A606A4B67
:1030BC001B686E4A13606B4B01221A6005F04AF9CB
:1030CC000246624B83FB02131912D317CB1A4FF42F
:1030DC00487101FB03F3D31A03F5C871644B83FBEE
:1030EC0001235A10CB17D21A13469B001344CA1A49
:1030FC00012A11D1544B1B68032B0DD15D4B1B685E
:10310C00002B09D15C4B5F221A60534B1B685B4A46
:10311C001360584B01221A6005F01CF902464B4B08
:10312C0083FB02131912D317CB1A4FF4487101FB0E
:10313C0003F3D31A03F5C872514B83FB02131344E8
:10314C009910D317C91A0B46DB005B1AD11A012947
:10315C0011D13D4B1B68042B0DD14A4B1B68002B26
:10316C0009D1494B5F221A603B4B1B68474A1360DD
:10317C00444B01221A60364B1B68002B19D0354B7F
:10318C001B68D8B2354B1B68D9B20023022201F060
:10319C002BFD304B1B6813F1020F07DB2D4B1A680C
:1031AC00264B1B68D31A2B4A136002E0284B0022D3
:1031BC001A602C4B1B68002B19D02B4B1B68D8B2F8
:1031CC002A4B1B68D9B20023012201F00DFD264BBE
:1031DC001B68B3F1FF3F07DB234B1A68174B1B68C7
:1031EC00D31A214A136002E01E4B00221A60214BB5
:1031FC001B68002B4FD0204B1B68D8B21F4B1B6891
:10320C00D9B20023042201F0EFFC1B4B1B6813F115
:10321C00040F3DDB184B1A68084B1B68D31A164A6F
:10322C00136038E0EC030020000C0140D0030020B8
:10323C00F0030020F4030020EC020020DC0200204C
:10324C00E0020020E4020020E80300201F85EB517F
:10325C0000040020CC020020C8020020D40300206F
:10326C005655555504040020D0020020D8030020E8
:10327C006766666608040020D4020020DC03002088
:10328C00932449920C040020D8020020E003002073
:10329C008B4B00221A608B4B1B68002B19D08A4B6E
:1032AC001B68D8B2894B1B68D9B20023032201F0EA
:1032BC009BFC854B1B6813F1030F07DB824B1A68D1
:1032CC00834B1B68D31A804A136002E07D4B0022AB
:1032DC001A60FFF7DDFD0346022B08D17D4B1B68FE
:1032EC00012B04DD7B4B1B68023B7A4A1360FFF712
:1032FC00CFFD0346032B08D1764B1B682E2B04DC29
:10330C00744B1B680233734A1360FFF7C1FD03460D
:10331C00012B0ED1704B1B68002B0AD16E4B012276
:10332C001A606E4B06221A606A4B1B6808336C4A93
:10333C001360694B1B68012B17D1684B1B68083352
:10334C00664A1360654B1B68D8B2654B1B68D9B2D3
:10335C00624B1B68DBB20433DAB2614B1B68DCB224
:10336C0000230093234601F0D3FA5E4B1B68002B1D
:10337C001ED001F0BBFF02465B4BA3FB02231B09D3
:10338C0003F00103002B07D1524B1B68D9B2002369
:10339C00564A042001F003FD554B1A68554B1B6827
:1033AC00D31AB3F57A7F0BD94E4B00221A6007E083
:1033BC00484B1B68D9B200234C4A042001F0EFFCA7
:1033CC004D4B1B68D8B24D4B1B68D9B24C4B1B688C
:1033DC00DAB2002301F008FC474B1B68DBB2023366
:1033EC00D8B2464B1B68DBB20333D9B2444B1B68D3
:1033FC00444A82FB0342DB17D31ADAB2002301F0F2
:10340C00F3FB00230093404B404A00211C2001F0A9
:10341C0080FD3F4B1A683B1D3E49184604F0CEFF19
:10342C003A1D00230093384B0021402001F071FD20
:10343C0000230093344B384A37211C2001F069FDDE
:10344C00364B1A683B1D3349184604F0B7FF3A1D3A
:10345C00002300932C4B3721402001F05AFD002310
:10346C000093294B2E4A2D21742001F052FD204B44
:10347C001B682C4AA2FB03239A093B1D2A491846B8
:10348C0004F09CFF3A1D002300931F4B372174203E
:10349C0001F03FFD01F024F8104B1B68802B02DD7E
:1034AC000D4B00221A60214B1B68002B42D1134B91
:1034BC001A681F4B1B681344104A136041E000BF8D
:1034CC00080400200C040020D8020020E003002097
:1034DC00DC020020F0020020C8030020C003002002
:1034EC00C4030020F80300201F85EB516C8F0008EB
:1034FC00F0030020FC030020C4020020C8020020BE
:10350C00E402002056555555B4910008448D00082E
:10351C00E4030020548D0008588D0008E8020020B8
:10352C00608D0008D34D6210648D0008CC03002020
:10353C00E0020020974B1A68974B1B68D31A954AE8
:10354C001360964B1B68C3F14002924B1B689A4266
:10355C0002DC934B01221A608E4B1A688F4B1B684E
:10356C009A4202DC8E4B00221A608A4B1A688B4BF3
:10357C001B68D21A8B4B1B689A422ADC854B1A6843
:10358C00864B1B681A44874B1B689A4221DB864B7F
:10359C001A68824B1B68D21A844B1B689A4218DA41
:1035AC00814B1A687D4B1B681A44804B1B689A42EE
:1035BC000FDD7E4B06221A607D4B1B680833794A5F
:1035CC0013607C4B1B6801337A4A13607A4B0022E0
:1035DC001A60774B1B6808337B617B69A3F1080287
:1035EC00764B1B689A4221DC7B6903F10802734B12
:1035FC001B689A421ADB724B1B68142B16DC704B3F
:10360C001B68042B12DD6F4B1B68002B0ED16E4B0D
:10361C0000221A606D4B1B68013B6C4A1360694BAE
:10362C0001221A606A4B1B686A4A13607B69A3F11A
:10363C000802694B1B689A4221DC7B6903F1080282
:10364C00654B1B689A421ADB644B1B68142B16DC07
:10365C00624B1B68042B12DD5A4B1B68002B0ED1DE
:10366C005F4B00221A60594B1B68013B574A136091
:10367C00544B01221A60564B1B68564A13607B69E7
:10368C00A3F10802574B1B689A4221DC7B6903F1BA
:10369C000802544B1B689A421ADB534B1B68142BC1
:1036AC0016DC514B1B68042B12DD464B1B68002BA0
:1036BC000ED14E4B00221A60444B1B68013B434A0F
:1036CC001360404B01221A60414B1B68414A136046
:1036DC007B69A3F10802464B1B689A4221DC7B698B
:1036EC0003F10802424B1B689A421ADB414B1B68E0
:1036FC00142B16DC3F4B1B68042B12DD314B1B6863
:10370C00002B0ED13C4B00221A60304B1B68013B46
:10371C002E4A13602B4B01221A602D4B1B682D4A2D
:10372C001360364B1B68042B02DD344B00221A60ED
:10373C00264B1B68002B02D1314B01221A60304BF7
:10374C001B68012B40F09D8000F0BEFE002300930F
:10375C002C4B2D4A1421252001F07FFC154B1A68A7
:10376C003B1D2A49184604F029FE3A1D00230093FC
:10377C00244B1421552001F070FC00230093214BA5
:10378C00234A2321252001F068FC224B1A683B1D9B
:10379C0042E000BFC8020020E0020020E40200204A
:1037AC00CC030020C4030020C4020020C00300206E
:1037BC00F0020020E4030020C8030020D403002002
:1037CC00CC020020F803002000040020E8020020B6
:1037DC00F0030020FC030020D8030020D0020020BE
:1037EC0004040020DC030020D40200200804002084
:1037FC00E0030020D80200200C040020E803002085
:10380C00D003002058AD0008688D0008548D0008C6
:10381C00708D0008EC0200201E49184604F0CEFD05
:10382C003A1D002300931C4B2321552001F015FC5D
:10383C0000230093184B194A3221252001F00DFC6E
:10384C00174B1B68174AA2FB03239A093B1D164909
:10385C00184604F0B3FD3A1D002300930E4B3221A1
:10386C00552001F0FAFB00F03BFEFFF711FB03467D
:10387C00012B06D1FFF774FA01F038FD02460B4B11
:10388C001A60012001F03CFDFFF787BB00BF1C371D
:10389C00BD4690BD548D000858AD0008788D0008C9
:1038AC00F0030020D34D6210648D0008EC0300205F
:1038BC0080B588B000AF07F1100300221A605A607F
:1038CC009A60DA602A4B9B69294A43F01003936192
:1038DC00274B9B6903F01003FB60FB68244B9B692F
:1038EC00234A43F020039361214B9B6903F020038F
:1038FC00BB60BB681E4B9B691D4A43F00803936178
:10390C001B4B9B6903F008037B607B68184B9B691E
:10391C00174A43F004039361154B9B6903F00403AE
:10392C003B603B6801224FF40051124801F089FFC3
:10393C004FF400533B6101237B610123BB610223E4
:10394C00FB6107F1100319460A4801F009FE4FF418
:10395C0070433B6100237B610123BB6107F11003C2
:10396C001946054801F0FCFD00BF2037BD4680BD5F
:10397C000010024000100140000C014080B500AF67
:10398C00124B134A1A60114B124A5A600F4B002209
:10399C009A600E4B0022DA600C4B4FF480421A6195
:1039AC000A4B00225A61094B00229A61074B0022F4
:1039BC00DA61064B00221A62044801F05BFF0346F1
:1039CC00002B01D000F031F900BF80BDDC040020D9
:1039DC0000540040801A060080B500AF124B134A09
:1039EC001A60114B124A5A600F4B00229A600E4B10
:1039FC000022DA600C4B4FF480421A610A4B002211
:103A0C005A61094B00229A61074B0022DA61064B7E
:103A1C0000221A62044801F02DFF0346002B01D04E
:103A2C0000F003F900BF80BD3005002000580040B5
:103A3C00A086010080B58AB000AF786007F118034A
:103A4C0000221A605A609A60DA607B681B682B4A05
:103A5C00934224D12A4B9B69294A43F00803936172
:103A6C00274B9B6903F008037B617B69C023BB6117
:103A7C001223FB6103237B6207F1180319462148CB
:103A8C0001F06EFD1E4BDB691D4A43F40013D3613C
:103A9C001B4BDB6903F400133B613B6929E07B683A
:103AAC001B68194A934224D1154B9B69144A43F065
:103ABC0008039361124B9B6903F00803FB60FB68DE
:103ACC004FF44063BB611223FB6103237B6207F15C
:103ADC00180319460B4801F043FD094BDB69084AF2
:103AEC0043F48003D361064BDB6903F48003BB60B2
:103AFC00BB6800BF2837BD4680BD00BF00540040E6
:103B0C0000100240000C01400058004080B582B00B
:103B1C0000AF01237B6001F091FB00F029F8FFF767
:103B2C00C7FE00F087F8FFF729FFFFF755FF00F0FD
:103B3C0074FC00F0C9FC00F0D3FC7B68012B02D1B3
:103B4C00FCF704FD10E07B68022B02D1FEF7B0F904
:103B5C000AE07B68052B02D1FEF764FA04E07B686F
:103B6C00062B01D1FEF778F9FEF7E8FA7860E4E766
:103B7C0080B594B000AF07F1280328220021184625
:103B8C0004F0E0FB07F1140300221A605A609A60FB
:103B9C00DA601A613B1D00221A605A609A60DA6082
:103BAC000523BB624FF48033FB6200233B6301238C
:103BBC007B630123BB6302237B644FF48033BB64C0
:103BCC004FF4E013FB6407F12803184602F0B6FF2C
:103BDC000346002B01D000F028F80F237B61022351
:103BEC00BB610023FB614FF480633B6200237B626B
:103BFC0007F114030221184603F020FA0346002BA8
:103C0C0001D000F012F801237B604FF48073BB608D
:103C1C003B1D184603F0AEFB0346002B01D000F011
:103C2C0004F800BF5037BD4680BD80B400AF72B6FB
:103C3C00FEE7000080B586B000AF07F11403002149
:103C4C000A461A800A469A7000233B614D4B4E4A35
:103C5C001A604C4B4FF0FF325A604A4B00229A606C
:103C6C00484803F0F9FC0346002B01D0FFF7DDFFB9
:103C7C000023FB60454BDB69444A43F08053D3611E
:103C8C00424BDB6903F08053BB60BB6802F03EFF24
:103C9C003E4BDB693D4A43F00063D3613B4BDB6930
:103CAC0003F000637B607B680721364804F0EAFA76
:103CBC00024645F2AA539A423AD10621314804F001
:103CCC00E1FA0346DBB2BB7505212E4804F0DAFAA3
:103CDC000346DBB27B7504212A4804F0D3FA034671
:103CEC00DBB23B750321274804F0CCFA0346DBB268
:103CFC00BB730221234804F0C5FA0346DBB27B7385
:103D0C000121204804F0BEFA0346DBB2FB7302F03B
:103D1C0009FF07F11403012219461A4803F032FD7A
:103D2C0007F10C0301221946164803F09BFE25E00F
:103D3C0019233B7559237B755023BB7507F114036D
:103D4C00012219460F4803F01DFD0346002B01D03C
:103D5C00FFF76BFF01233B7401237B740123BB74BE
:103D6C002523FB7407F1100301221946054803F0C3
:103D7C0079FE0346002B01D0FFF757FF1837BD46DD
:103D8C0080BD00BF840500200028004000100240C8
:103D9C0080B584B000AF78607B681B680F4A934293
:103DAC0018D102F0B3FE0E4BDB690D4A43F00063F1
:103DBC00D3610B4BDB6903F00063FB60FB68094BC1
:103DCC0001221A6000220021032001F092FB032043
:103DDC0001F0ABFB00BF1037BD4680BD0028004092
:103DEC00001002403C04424280B584B000AF07F1A1
:103DFC000C03012219463E4803F05CFD07F1080351
:103E0C00012219463A4803F0E3FE3B7B232B6AD888
:103E1C007B7B592B67D8BB7B592B64D87B7A122BB5
:103E2C0061D8BB7A312B5ED8FB7A992B5BD83B7B64
:103E3C00002B05D17B7B002B02D1BB7B002B52D0FE
:103E4C0002F070FE2B4BDB692A4A43F08053D3619E
:103E5C00284BDB6903F080537B607B6802F056FED5
:103E6C00244BDB69234A43F00063D361214BDB69AC
:103E7C0003F000633B603B68002207211C4804F000
:103E8C00E7F9BB7B1A460621194804F0E1F97B7B64
:103E9C001A460521164804F0DBF93B7B1A4604212F
:103EAC00134804F0D5F9BB7A1A460321104804F0E4
:103EBC00CFF97B7A1A4602210D4804F0C9F9FB7A36
:103ECC001A4601210A4804F0C3F945F2AA52072107
:103EDC00074804F0BDF902F025FE064BDB69054AE4
:103EEC0023F00063D36100BF1037BD4680BD00BF17
:103EFC00840500200010024080B485B000AF154B43
:103F0C009B69144A43F001039361124B9B6903F0C4
:103F1C000103BB60BB680F4BDB690E4A43F0805357
:103F2C00D3610C4BDB6903F080537B607B680A4BDD
:103F3C005B68FB60FB6823F0E063FB60FB6843F0AD
:103F4C000073FB60044AFB68536000BF1437BD4626
:103F5C0080BC7047001002400000014080B400AFEC
:103F6C00FEE780B400AFFEE780B400AFFEE780B49C
:103F7C0000AFFEE780B400AFFEE780B400AF00BF37
:103F8C00BD4680BC704780B400AF00BFBD4680BC4E
:103F9C00704780B400AF00BFBD4680BC704780B591
:103FAC0000AF01F091F900BF80BD000080B500AFFB
:103FBC00024804F003F900BF80BD00BF8405002057
:103FCC0080B586B000AF7860144A154BD31A7B616C
:103FDC007B693B61134B1B68002B02D1114B124ABE
:103FEC001A60104B1A687B6813443A699A4207D2DC
:103FFC0004F064F902460C2313604FF0FF3309E020
:10400C00084B1B68FB60074B1A687B681344054A16
:10401C001360FB6818461837BD4680BD0050002061
:10402C000004000010040020D809002080B400AF68
:10403C0000BFBD4680BC70470C480D490D4A00239B
:10404C0002E0D458C4500433C4188C42F9D30A4A41
:10405C000A4C002301E013600432A242FBD3FFF7A9
:10406C00E5FF04F031F9FFF751FD70470000002027
:10407C006C030020B8AD00086C030020D4090020AC
:10408C00FEE780B483B000AF0346FB71FB791B09DC
:10409C00DBB21A46920013445B00DAB2FB7903F0F0
:1040AC000F03DBB21344DBB218460C37BD4680BCA1
:1040BC007047000080B483B000AF0346FB71FB79FE
:1040CC000C4AA2FB0323DB08DBB21B01D8B2FA7942
:1040DC00084BA3FB0213D9080B469B000B445B0057
:1040EC00D31ADBB20344DBB218460C37BD4680BC96
:1040FC00704700BFCDCCCCCC80B584B002AF0023D0
:10410C003B713A1D4FF6FF7300930123D0210848F1
:10411C0001F0E8FC4FF6FF7300931323054AD121FD
:10412C00034801F0DDFD00BF0837BD4680BD00BF70
:10413C00300500209805002080B500AF2D4B1B7872
:10414C001846FFF79EFF03461A462B4B1A71294B54
:10415C005B781846FFF795FF03461A46264BDA7034
:10416C00244B9B7803F04003002B16D0224B0122EA
:10417C009A70204B9B7803F02003DAB21E4B5A70D6
:10418C001C4B9B7803F01F03DBB21846FFF779FF3B
:10419C0003461A46184B1A700BE0174B00229A7004
:1041AC00144B9B781846FFF76CFF03461A46124BCC
:1041BC001A70104B9B791846FFF763FF03461A469B
:1041CC000D4B5A710B4B5B791846FFF75AFF0346A0
:1041DC001A46094B9A71074B1B791846FFF751FF8A
:1041EC0003461A46044BDA71024BDA78024B1A7208
:1041FC0000BF80BD98050020AC05002090B583B0B1
:10420C0000AF78607B681B791846FFF753FF0346B5
:10421C001A46264B1A707B68DB781846FFF74AFF64
:10422C0003461A46214B5A707B689B78012B11D19F
:10423C007B685B785B01DCB27B681B781846FFF708
:10424C0039FF03462343DBB243F04003DAB2174B8A
:10425C009A7008E07B681B781846FFF72BFF034623
:10426C001A46124B9A707B685B791846FFF722FF4F
:10427C0003461A460D4B9A717B689B791846FFF7DB
:10428C0019FF03461A46094B5A717B68DB791846AD
:10429C00FFF710FF03461A46044B1A717B681A7A13
:1042AC00024BDA7000BF0C37BD4690BD980500205C
:1042BC0080B584B004AF4FF6FF73029313230193C0
:1042CC00054B009301230022D021044801F062FF2A
:1042DC0000BFBD4680BD00BF980500203005002002
:1042EC0080B582B000AF0023FB714FF4805133488E
:1042FC0001F090FA0346002B10D1142001F000F8C5
:10430C0000BF4FF480512D4801F084FA0346002B76
:10431C00F7D0142000F0F4FF0123FB714FF400518F
:10432C00264801F077FA0346002B10D1142000F038
:10433C00E7FF00BF4FF40051204801F06BFA034631
:10434C00002BF7D0142000F0DBFF0223FB714FF49D
:10435C0080411A4801F05EFA0346002B10D114205C
:10436C0000F0CEFF00BF4FF48041144801F052FA28
:10437C000346002BF7D0142000F0C2FF0323FB717F
:10438C004FF400410D4801F045FA0346002B10D1C3
:10439C00142000F0B5FF00BF4FF40041074801F0B6
:1043AC0039FA0346002BF7D0142000F0A9FF0423A0
:1043BC00FB71FB7918460837BD4680BD000C0140E7
:1043CC0080B584B002AF78600B46FB70FB789AB274
:1043DC004FF0FF33009313467A687821034801F0BD
:1043EC0081FB00BF0837BD4680BD00BFDC04002048
:1043FC0080B584B000AF0346FB710023BB81002362
:10440C003B73FB797B7307F10C0302211846FFF712
:10441C00D7FF00BF1037BD4680BD80B500AFAE20C2
:10442C00FFF7E6FF0220FFF7E3FF1020FFF7E0FFA6
:10443C004020FFF7DDFFB020FFF7DAFF8120FFF708
:10444C00D7FFCF20FFF7D4FFA120FFF7D1FFA62085
:10445C00FFF7CEFFA820FFF7CBFF3F20FFF7C8FFE9
:10446C00AD20FFF7C5FF8B20FFF7C2FF3320FFF70E
:10447C00BFFFC820FFF7BCFFD320FFF7B9FF002018
:10448C00FFF7B6FFD520FFF7B3FFC020FFF7B0FF53
:10449C00D920FFF7ADFF1F20FFF7AAFFDA20FFF7A7
:1044AC00A7FF1220FFF7A4FFDB20FFF7A1FF40209E
:1044BC00FFF79EFF00F008F800F012F8AF20FFF7AE
:1044CC0097FF00BF80BD000080B500AF4FF4806245
:1044DC000021024803F036FF00BF80BDCC05002050
:1044EC0080B582B000AF144B40221A700023FB71D0
:1044FC001BE0FB79503BDBB21846FFF779FF02203B
:10450C00FFF776FF1020FFF773FF0C48FB79DB01F8
:10451C000B4A13448022194603F009FF81210648F7
:10452C00FFF74EFFFB790133FB71FB79072BE0D9C9
:10453C0000BF0837BD4680BD1404002015040020C0
:10454C00CC05002080B483B000AF0346FB710B4652
:10455C00BB7113467B7197F90730002B43DBBB799A
:10456C003F2B40D87B79002B1DD1BB79DB08D8B20F
:10457C000246FB791E49D2010A4413441B785AB2F5
:10458C00BB7903F00703012101FA03F35BB2134378
:10459C0059B20246FB79C8B21549D2010A441344F8
:1045AC0002461A7020E0BB79DB08D8B20246FB79D0
:1045BC000F49D2010A4413441B785AB2BB7903F059
:1045CC000703012101FA03F35BB2DB435BB2134037
:1045DC0059B20246FB79C8B20549D2010A441344C8
:1045EC0002461A7000E000BF0C37BD4680BC704715
:1045FC00CC05002090B482B000AF044608461146AA
:10460C001A462346FB710346BB710B467B7113465E
:10461C003B71FB79072B60D897F90630002B5CDBDC
:10462C003B7D002B02D07B79DB437B713B7C0133E0
:10463C00FF2202FA03F35AB297F9053013435AB228
:10464C003B79C3F10803FF2141FA03F35BB2134337
:10465C005BB2DAB2234B1A70FA79BB792249D201D8
:10466C000A44134418781F4B1978FA79BB79014026
:10467C00C8B21D49D2010A44134402461A703B7C4D
:10468C000133FF2202FA03F35BB2DB435AB297F910
:10469C00053013405AB23B79C3F10803FF2141FAAC
:1046AC0003F35BB2DB435BB213405BB2DAB20D4B8C
:1046BC001A70FA79BB790C49D2010A441344187860
:1046CC00084B1978FA79BB790143C8B20649D20173
:1046DC000A44134402461A7000E000BF0837BD4676
:1046EC0090BC704795040020CC050020B0B586B076
:1046FC0002AF0446084611461A462346FB71034690
:10470C00BB710B467B7113463B71BB79DB08FB73AA
:10471C00BB7903F00703BB73BA7B3B791344082BBB
:10472C0029DD7A79BB7B02FA03F3DAB2BC7BF97927
:10473C00F87B97F820300193072300932346FFF76B
:10474C0059FFFB7B0133D8B27A79BB7BC3F10803E9
:10475C0042FA03F3DCB23A79BB7B1344DBB2093B7C
:10476C00DBB2F97997F820200192009300232246BE
:10477C00FFF740FF15E07A79BB7B02FA03F3DCB25A
:10478C00BA7B3B791344DBB2013BDBB2BD7BF979DD
:10479C00F87B97F82020019200932B462246FFF7D6
:1047AC0029FF00BF1037BD46B0BD90B587B002AF32
:1047BC000446084611461A462346FB710346BB7154
:1047CC000B467B7113463B71BB79DB08FB73BB79E2
:1047DC0003F00703BB737A79BB7B02FA03F3DAB2FB
:1047EC00BC7BF979F87B3B79019307230093234633
:1047FC00FFF700FFBB7B002B14D0FB7B0133D8B23F
:10480C007A79BB7BC3F1080342FA03F3DCB2BB7BBE
:10481C00013BDBB2F9793A790192009300232246ED
:10482C00FFF7E8FE00BF1437BD4690BD90B587B0CA
:10483C0002AF3A601A460346FB710B46BB71134636
:10484C007B7197F82030DB083B7397F8203003F02E
:10485C000703FB720023FB7325E00023BB731BE0F3
:10486C00FA79FB7B1344D8B2BB7BDB00DAB2BB79A1
:10487C001344DCB2FA7BBB7B797901FB03F3134461
:10488C001A463B6813441A7897F824302146FFF7F0
:10489C008CFFBB7B0133BB73BA7B3B7B9A42DFD370
:1048AC00FB7B0133FB73FA7B7B799A42D5D3FB7A82
:1048BC00002B28D07B799BB23A7B92B202FB03F39C
:1048CC003B8100237B731AE0FA797B7B1344D8B2CB
:1048DC003B7BDB00DAB2BB791344D9B23A897B7BE0
:1048EC0013441A463B6813441A78FC7A97F8243020
:1048FC0000932346FFF7FAFE7B7B01337B737A7BB5
:10490C007B799A42E0D300BF1437BD4690BD0000BE
:10491C0090B587B000AF0446084611461A462346A8
:10492C00FB710346BB710B467B7113463B71FA79E5
:10493C007B799A421DD1BA793B799A4207D9684A58
:10494C00BB7913703B79BB71654B1B783B71BB79A1
:10495C00FB7509E097F82820F97DFB791846FFF7DD
:10496C00F1FDFB7D0133FB75FA7D3B799A42F1D960
:10497C00B2E0BA793B799A421DD1FA797B799A42A5
:10498C0007D9574AFB7913707B79FB71544B1B7811
:10499C007B71FB79BB7509E097F82820B979BB7D51
:1049AC001846FFF7CFFDBB7D0133BB75BA7D7B7914
:1049BC009A42F1D990E07B799AB2FB799BB2D31AE7
:1049CC009BB2FB813B799AB2BB799BB2D31A9BB257
:1049DC00BB81B7F90E30002B01DD012301E04FF054
:1049EC00FF337B81B7F90C30002B01DD012301E093
:1049FC004FF0FF333B81FB79BB82BB797B82002379
:104A0C003B82B7F90E30002BB8BF5B42FB81B7F984
:104A1C000C30002BB8BF5B42BB81B7F90E20B7F945
:104A2C000C309A422CDDFB79BB8223E0BB8ADBB2D3
:104A3C007A8AD1B297F828201846FFF783FD3A8A74
:104A4C00BB8913449BB23B82B7F910305A00B7F9BB
:104A5C000E309A4209DB7A8A3B8913449BB27B82E3
:104A6C003A8AFB89D31A9BB23B82BA8A7B8913445C
:104A7C009BB2BB82B7F914207B799A42D6D12BE03A
:104A8C00BB797B8223E0BB8ADBB27A8AD1B297F8FE
:104A9C0028201846FFF756FD3A8AFB8913449BB22F
:104AAC003B82B7F910305A00B7F90C309A4209DB47
:104ABC00BA8A7B8913449BB2BB823A8ABB89D31ACC
:104ACC009BB23B827A8A3B8913449BB27B82B7F9B7
:104ADC0012203B799A42D6D100BF1C37BD4690BDFF
:104AEC009604002090B585B002AF044608461146E6
:104AFC001A462346FB710346BB710B467B7113466A
:104B0C003B71FA797B791344DAB2BC79B979F879CB
:104B1C003B7E00932346FFF7FBFEBA793B791344A7
:104B2C00D9B2FA797B791344DCB2BA793B79134464
:104B3C00DAB2F8793B7E009313462246FFF7E8FE83
:104B4C00BA793B791344DCB2FA79B979F8793B7EBE
:104B5C0000932346FFF7DCFEFA797B791344D8B235
:104B6C00FA797B791344DCB2BA793B791344DAB223
:104B7C00B9793B7E009313462246FFF7C9FE00BF6E
:104B8C000C37BD4690BD90B587B002AF04460846C1
:104B9C0011461A462346FB710346BB710B467B71CB
:104BAC0013463B710023FB7316E0BA79FB7B13446D
:104BBC00D9B2FA797B791344DCB2BA79FB7B134412
:104BCC00DAB2F87997F82030009313462246FFF7B3
:104BDC009FFEFB7B0133FB73FA7B3B799A42E4D358
:104BEC0000BF1437BD4690BD90B585B000AF0446EC
:104BFC00084611461A462346FB710346BB710B4609
:104C0C007B7113463B710023FB817B79BB817B79E4
:104C1C009BB25B009BB2C3F103039BB27B81B3E0FD
:104C2C00BB89DBB2FA79D31AD8B2FB89DBB2BA7979
:104C3C00D31ADBB23A791946FFF784FCBB89DAB296
:104C4C00FB791344D8B2FB89DBB2BA79D31ADBB245
:104C5C003A791946FFF776FCFB89DBB2FA79D31A5D
:104C6C00D8B2BB89DAB2BB791344DBB23A791946B4
:104C7C00FFF768FCBB89DBB2FA79D31AD8B2FB898F
:104C8C00DBB2BA79D31ADBB23A791946FFF75AFC80
:104C9C00FB89DBB2FA79D31AD8B2BB89DBB2BA7909
:104CAC00D31ADBB23A791946FFF74CFCBB89DAB25E
:104CBC00FB791344D8B2FB89DAB2BB791344DBB26B
:104CCC003A791946FFF73EFCFB89DAB2FB791344BB
:104CDC00D8B2BB89DBB2BA79D31ADBB23A791946AE
:104CEC00FFF730FCFB89DAB2FB791344D8B2BB89ED
:104CFC00DAB2BB791344DBB23A791946FFF722FCDE
:104D0C00BB89DBB2FA79D31AD8B2FB89DAB2BB7998
:104D1C001344DBB23A791946FFF714FCB7F90E309D
:104D2C009BB201339BB2FB81B7F90A30002B09DA35
:104D3C00FB899B009AB27B8913449BB206339BB2CE
:104D4C007B8113E0B7F90E20B7F90C30D31A9BB264
:104D5C009B009AB27B8913449BB20A339BB27B8132
:104D6C00B7F90C309BB2013B9BB2BB81FB89DAB229
:104D7C00FB791344D8B2BB89DAB2BB791344DBB2EA
:104D8C003A791946FFF7DEFBB7F90E20B7F90C306C
:104D9C009A427FF745AF00BF1437BD4690BDB0B502
:104DAC0084B002AF3A601A460346FB710B46BB71E6
:104DBC0013467B713B685C683B681D783B685B788D
:104DCC00B979F8797A79019200932B462246FFF74C
:104DDC002DFD00BF0837BD46B0BDB0B584B002AFE5
:104DEC003B600346FB710B46BB7113467B713B6802
:104DFC005A687B79A3F120013B681B780733002BA1
:104E0C0000DA0733DB1018463B685B7803FB00F3D2
:104E1C0003FB01F3D4183B685D783B681B78B979C8
:104E2C00F8793A7E019200932B462246FFF7FEFC5E
:104E3C0000BF0837BD46B0BDB0B584B002AF3B6013
:104E4C000346FB710B46BB7113467B71BA793B7EF3
:104E5C001344DCB23B685A687B79A3F120013B68B0
:104E6C001B780733002B00DA0733DB1018463B683E
:104E7C005B7803FB00F303FB01F3D1183B685D780F
:104E8C003B681A783B7ED31ADBB2F8793A7F0192F1
:104E9C0000932B460A462146FFF7C8FC00BF083793
:104EAC00BD46B0BDB0B584B002AF3B600346FB71EC
:104EBC000B46BB7113467B71BA793B7ED31ADAB2BF
:104ECC003B7F1344DCB23B685A687B79A3F1200129
:104EDC003B681B780733002B00DA0733DB101846CE
:104EEC003B685B7803FB00F303FB01F3D1183B68D1
:104EFC005D783B681B78F87997F820200192009335
:104F0C002B460A462146FFF791FC00BF0837BD46E9
:104F1C00B0BD80B588B002AFBA607B600346FB734E
:104F2C000B46BB73FB7BFB7511E0BB681A78B97B36
:104F3C00F87D97F8203000937B68FFF74EFF7B6875
:104F4C005A78FB7D1344FB75BB680133BB60BB68AF
:104F5C001B78002BE9D100BF1837BD4680BD80B54A
:104F6C0088B002AFBA607B600346FB730B46BB7321
:104F7C00FB7BFB7514E0BB681A78B97BF87D97F85E
:104F8C002430019397F8203000937B68FFF754FF8F
:104F9C007B685A78FB7D1344FB75BB680133BB609F
:104FAC00BB681B78002BE6D100BF1837BD4680BD0F
:104FBC0080B58AB004AFBA607B600346FB730B46C6
:104FCC00BB73FB7BFB7517E0BB681A78B97BF87D6C
:104FDC0097F82830029397F82430019397F82030F3
:104FEC0000937B68FFF75EFF7B685A78FB7D134468
:104FFC00FB75BB680133BB60BB681B78002BE3D12E
:10500C0000BF1837BD4680BD80B483B000AF786058
:10501C007B681B785BB2002B01DB012318E07B68FB
:10502C001B7803F0E003C02B01D1022310E07B6856
:10503C001B7803F0F003E02B01D1032308E07B681D
:10504C001B7803F0F803F02B01D1042300E00023BC
:10505C0018460C37BD4680BC7047B0B58AB002AF5D
:10506C00BA607B600346FB730B46BB730023FB8368
:10507C007B681B780733002B00DA0733DB10DBB2BD
:10508C007A68527802FB03F3DBB20433FB767DE0E3
:10509C0000237B77FB8BBA6813441846FFF7B4FFE9
:1050AC000346BB76BB7E002B78D000233B7732E0E7
:1050BC007B685B683A7FF97E01FB02F213447B61EB
:1050CC00FB8BBA681344BA7E7969184603F020F951
:1050DC000346002B1CD17B691C1D7B685D787B68AB
:1050EC001B78B97BF87B97F83020019200932B4604
:1050FC002246FFF79BFB7B685A78FB7B1344FB73C0
:10510C00BB7E9AB2FB8B1344FB8301237B7707E0B6
:10511C003B7F01333B777B681B7A3A7F9A42C7D33C
:10512C007B7F002B32D1BB7E012B19D1FB8BBA6854
:10513C0013441A787B68DC68B97BF87B97F83030BD
:10514C0000932346FFF749FE7B68DB685A78FB7BAC
:10515C001344FB73BB7E9AB2FB8B1344FB8315E0A9
:10516C007B68DA68B97BF87B97F83030009313468C
:10517C002022FFF732FE7B68DB685A78FB7B1344F6
:10518C00FB73BB7E9AB2FB8B1344FB83FB8BBA681D
:10519C0013441B78002B7FF47BAF00E000BF00BFF3
:1051AC002037BD46B0BD000080B483B000AF0346CD
:1051BC000A46FB801346BB80B7F90630002B35DB63
:1051CC00B7F906307F2B31DCB7F90430002B2DDB1F
:1051DC00B7F904303F2B29DCB7F90430002B00DA87
:1051EC000733DB1018B20246B7F906301249D20168
:1051FC000A4413441B785AB2B7F90430594203F0ED
:10520C00070301F0070158BF4B421BB2194601239B
:10521C008B405BB2134359B20246B7F90630C8B2A1
:10522C000549D2010A44134402461A7000BF0C37D8
:10523C00BD4680BC704700BFCC05002080B500AFD8
:10524C00084B1B68074A43F010031360032000F05F
:10525C0045F9002000F008F8FEF74EFE0023184632
:10526C0080BD00BF0020024080B582B000AF7860E6
:10527C00124B1A68124B1B7819464FF47A73B3FB16
:10528C00F1F3B2FBF3F3184600F05DF90346002B83
:10529C0001D001230EE07B680F2B0AD8002279681D
:1052AC004FF0FF3000F025F9064A7B6813600023AD
:1052BC0000E0012318460837BD4680BDF4020020EB
:1052CC00040300200003002080B400AF054B1B78C2
:1052DC001A46054B1B681344034A136000BFBD46B6
:1052EC0080BC704704030020CC09002080B400AFC0
:1052FC00024B1B681846BD4680BC7047CC09002089
:10530C0080B584B000AF7860FFF7F0FFB8607B68C1
:10531C00FB60FB68B3F1FF3F05D0094B1B781A46C5
:10532C00FB681344FB6000BFFFF7E0FF0246BB685D
:10533C00D31AFA689A42F7D800BF1037BD4680BD21
:10534C000403002080B485B000AF78607B6803F064
:10535C000703FB600C4BDB68BB60BA684FF6FF03BE
:10536C001340BB60FB681A02BB68134343F0BF6376
:10537C0043F40033BB60044ABB68D36000BF1437EE
:10538C00BD4680BC704700BF00ED00E080B400AFAC
:10539C00044BDB681B0A03F007031846BD4680BCB0
:1053AC00704700BF00ED00E080B483B000AF03464F
:1053BC00FB7197F90730002B0BDBFB7903F01F0215
:1053CC00064997F907305B09012000FA02F241F80F
:1053DC00232000BF0C37BD4680BC704700E100E0C5
:1053EC0080B483B000AF03463960FB7197F9073086
:1053FC00002B0ADB3B68DAB20C4997F90730120133
:10540C00D2B20B4483F800230AE03B68DAB20849B5
:10541C00FB7903F00F03043B1201D2B20B441A7652
:10542C0000BF0C37BD4680BC704700BF00E100E0F8
:10543C0000ED00E080B489B000AFF860B9607A602C
:10544C00FB6803F00703FB61FB69C3F10703042B43
:10545C0028BF0423BB61FB690433062B02D9FB690B
:10546C00033B00E000237B614FF0FF32BB6902FA83
:10547C0003F3DA43BB681A407B699A404FF0FF3163
:10548C007B6901FA03F3D9437B680B40134318463D
:10549C002437BD4680BC704780B582B000AF7860C1
:1054AC007B68013BB3F1807F01D301230FE00A4AF3
:1054BC007B68013B53600F214FF0FF30FFF790FFEB
:1054CC00054B00229A60044B07221A6000231846F1
:1054DC000837BD4680BD00BF10E000E080B582B04B
:1054EC0000AF78607868FFF72DFF00BF0837BD4626
:1054FC0080BD80B586B000AF0346B9607A60FB739F
:10550C0000237B61FFF742FF78617A68B96878699C
:10551C00FFF790FF024697F90F3011461846FFF738
:10552C005FFF00BF1837BD4680BD80B582B000AFAD
:10553C000346FB7197F907301846FFF735FF00BF9C
:10554C000837BD4680BD80B582B000AF7860786802
:10555C00FFF7A2FF034618460837BD4680BD000082
:10556C0080B48BB000AF7860396000237B6200237D
:10557C003B6227E101227B6A02FA03F3FB613B6881
:10558C001B68FA691340BB61BA69FB699A4240F027
:10559C0016813B685B68122B34D0122B0DD8022B72
:1055AC002BD0022B04D8002B31D0012B1CD048E07F
:1055BC00032B43D0112B1BD043E0894A934226D0B6
:1055CC00874A934206D8874A934220D0864A934210
:1055DC001DD036E0854A934219D0854A934216D0A5
:1055EC00844A934213D02CE03B68DB683B6228E092
:1055FC003B68DB6804333B6223E03B68DB680833C1
:10560C003B621EE03B68DB680C333B6219E03B6895
:10561C009B68002B02D104233B6212E03B689B6821
:10562C00012B05D108233B627B68FA691A6108E0FB
:10563C0008233B627B68FA695A6102E000233B62F3
:10564C0000BFBB69FF2B01D87B6801E07B6804338A
:10565C007B61BB69FF2B02D87B6A9B0002E07B6AF3
:10566C00083B9B003B617B691A680F213B6901FA7F
:10567C0003F3DB431A40396A3B6901FA03F31A431B
:10568C007B691A603B685B6803F08053002B00F069
:10569C009680594B9B69584A43F001039361564BD2
:1056AC009B6903F00103BB60BB68544A7B6A9B088F
:1056BC00023352F82330FB607B6A03F003039B0038
:1056CC000F2202FA03F3DB43FA681340FB607B689A
:1056DC004B4A934213D07B684A4A93420DD07B6865
:1056EC00494A934207D07B68484A934201D103232D
:1056FC0006E0042304E0022302E0012300E000237F
:10570C007A6A02F0030292009340FA681343FB603A
:10571C003A497B6A9B080233FA6841F823203B68BC
:10572C005B6803F48033002B06D0394B1A68384978
:10573C00BB6913430B6006E0354B1A68BB69DB434E
:10574C00334913400B603B685B6803F40033002B58
:10575C0006D02F4B5A682E49BB6913434B6006E0A9
:10576C002B4B5A68BB69DB43294913404B603B68A0
:10577C005B6803F48013002B06D0254B9A682449F0
:10578C00BB6913438B6006E0214B9A68BB69DB4312
:10579C001F4913408B603B685B6803F40013002BBC
:1057AC0006D01B4BDA681A49BB691343CB6006E081
:1057BC00174BDA68BB69DB4315491340CB607B6A36
:1057CC0001337B623B681A687B6A22FA03F3002B75
:1057DC007FF4D0AE00BF2C37BD4680BC704700BFF5
:1057EC0000002110000011100000121000003110F8
:1057FC000000321000002210001002400000014096
:10580C0000080140000C0140001001400014014050
:10581C000004014080B485B000AF78600B467B80FB
:10582C007B689A687B881340002B02D00123FB73A2
:10583C0001E00023FB73FB7B18461437BD4680BC8C
:10584C00704780B483B000AF78600B467B80134602
:10585C007B707B78002B03D07A887B681A6103E01D
:10586C007B881A047B681A6100BF0C37BD4680BC6C
:10587C007047000080B584B000AF78607B68002B67
:10588C0001D101231FE17B6893F83D30DBB2002B83
:10589C0006D17B68002283F83C207868FEF7CAF8B2
:1058AC007B68242283F83D207B681B681A687B6820
:1058BC001B6822F001021A607B681B681A687B68FF
:1058CC001B6842F400421A607B681B681A687B688C
:1058DC001B6822F400421A6001F006FDF8607B6838
:1058EC005B687B4A934207D8FB687A4A934294BF21
:1058FC0001230023DBB206E0FB68774A934294BF96
:10590C0001230023DBB2002B01D00123DBE0FB6879
:10591C00724AA2FB03239B0CBB607B681B685B6811
:10592C0023F03F017B681B68BA680A435A607B68A6
:10593C001B681B6A23F03F017B685B68644A9342D7
:10594C0002D8BB68013309E0BB684FF4967202FBC6
:10595C0003F3634AA2FB03239B0901337A681268A1
:10596C000B4313627B681B68DB6923F44F4222F004
:10597C00FF027B685B6856498B420DD8FB68591E49
:10598C007B685B685B00B1FBF3F30133C3F30B0380
:10599C00042B38BF04234FE07B689B68002B11D18C
:1059AC00FB68581E7B6859680B465B000B44B0FBC8
:1059BC00F3F30133C3F30B03002B0CBF01230023C0
:1059CC00DBB212E0FB68581E7B6859680B469B00E3
:1059DC000B4499000B44B0FBF3F30133C3F30B03FB
:1059EC00002B0CBF01230023DBB2002B01D00123C1
:1059FC0022E07B689B68002B0ED1FB68581E7B68ED
:105A0C0059680B465B000B44B0FBF3F30133C3F353
:105A1C000B0343F400430FE0FB68581E7B68596886
:105A2C000B469B000B4499000B44B0FBF3F3013382
:105A3C00C3F30B0343F44043796809681343CB6108
:105A4C007B681B681B6823F0C0017B68DA697B6884
:105A5C001B6A1A437B681B680A431A607B681B68C5
:105A6C009B6823F4034323F0FF037A6811697A6877
:105A7C00D26811437A6812680B4393607B681B6889
:105A8C00DB6823F0FF017B685A697B689B691A43CA
:105A9C007B681B680A43DA607B681B681A687B6842
:105AAC001B6842F001021A607B6800221A647B6852
:105ABC00202283F83D207B6800221A637B68002239
:105ACC0083F83E20002318461037BD4680BD00BF2A
