:020000040800F2
:1000000000500020A5370008A9350008B1350008C8
:10001000B9350008C1350008C935000800000000E6
:10002000000000000000000000000000D1350008C2
:10003000DD35000800000000E9350008F53500084E
:10004000ED370008ED370008ED37000801360008ED
:10005000ED370008ED370008ED370008ED370008F0
:10006000ED370008ED370008ED370008ED370008E0
:10007000ED370008ED370008ED370008ED370008D0
:10008000ED370008ED370008ED370008ED370008C0
:10009000ED370008ED370008ED370008ED370008B0
:1000A000ED370008ED370008ED370008ED370008A0
:1000B000ED370008ED370008ED370008ED37000890
:1000C000ED370008ED370008ED370008ED37000880
:1000D000ED370008ED370008ED370008ED37000870
:1000E000ED370008ED370008ED370008000000008C
:1000F0000000000000000000000000000000000000
:0C01000000000000000000005FF808F1A3
:10010C0010B5054C237833B9044B13B10448AFF345
:10011C0000800123237010BD640300200000000048
:10012C00508E000808B5034B1BB103490348AFF3CD
:10013C00008008BD0000000068030020508E0008FD
:10014C0080B500AF4FF400412A4804F045FF034648
:10015C00002B0CD10A2004F089FC4FF400412548F7
:10016C0004F03AFF0346002B40D101233FE04FF44B
:10017C008051204804F030FF0346002B0CD10A209C
:10018C0004F074FC4FF480511A4804F025FF034628
:10019C00002B2BD102232AE04FF40051154804F018
:1001AC001BFF0346002B0CD10A2004F05FFC4FF41C
:1001BC000051104804F010FF0346002B16D1032306
:1001CC0015E04FF480410B4804F006FF0346002B6A
:1001DC000CD10A2004F04AFC4FF48041054804F08D
:1001EC00FBFE0346002B01D1042300E0002318463C
:1001FC0080BD00BF000C014080B483B000AF7860BC
:10020C0039607B681B78052B03D17B6819221A7027
:10021C0016E07B681B78192B03D17B683C221A7083
:10022C000EE07B681B783C2B03D17B6850221A7044
:10023C0006E07B681B78502B02D17B6805221A7074
:10024C0000BF0C37BD4680BC704780B485B000AF92
:10025C00F860B9607A603B603B6A1B78052B11D162
:10026C00FB6893F90030DBB20133DBB25AB2FB68A6
:10027C001A70FB6893F90030022B45DDFB680022F5
:10028C001A7041E03B6A1B78192B11D1BB6893F9AA
:10029C000030DBB20133DBB25AB2BB681A70BB68F8
:1002AC0093F90030092B2FDDBB6800221A702BE06C
:1002BC003B6A1B783C2B11D17B6893F90030DBB285
:1002CC000133DBB25AB27B681A707B6893F9003049
:1002DC00052B19DD7B6800221A7015E03B6A1B7830
:1002EC00502B11D13B6893F90030DBB20133DBB2F8
:1002FC005AB23B681A703B6893F90030092B03DD46
:10030C003B6800221A7000BF00BF1437BD4680BC8A
:10031C00704780B500AF03F087F800BF80BD0000C8
:10032C0080B58AB004AF07F10C0300221A605A6042
:10033C001A81FFF705FF0346002B04D0FFF7E9FFF6
:10034C00002300F034BD03F087FA03F0A5FAA44BA8
:10035C001B78FB71A24BDB783B72A14B1B797B7238
:10036C0003F060FCFB799F4AA2FB0323DB08DAB2A3
:10037C009D4B1B789A420AD09C4B00221A70FB7939
:10038C00984AA2FB0323DB08DAB2974B1A70FA796E
:10039C00944BA3FB0213D9080B469B000B445B0048
:1003AC00D31ADAB2924B1B789A420FD0914B00229F
:1003BC001A70FA798B4BA3FB0213D9080B469B00DE
:1003CC000B445B00D31ADAB2894B1A703B7A854A1C
:1003DC00A2FB0323DB08DAB2874B1B789A420AD0C4
:1003EC00864B00221A703B7A7E4AA2FB0323DB0861
:1003FC00DAB2814B1A703A7A7A4BA3FB0213D90802
:10040C000B469B000B445B00D31ADAB27C4B1B7877
:10041C009A420FD07B4B00221A703A7A714BA3FB95
:10042C000213D9080B469B000B445B00D31ADAB2BB
:10043C00734B1A707B7A6B4AA2FB0323DB08DAB28C
:10044C00714B1B789A420AD0704B00221A707B7A3F
:10045C00644AA2FB0323DB08DAB26B4B1A707A7A7C
:10046C00604BA3FB0213D9080B469B000B445B00AB
:10047C00D31ADAB2664B1B789A4212D0654B012222
:10048C001A70654B00221A707A7A564BA3FB021332
:10049C00D9080B469B000B445B00D31ADAB25C4BB9
:1004AC001A70FA794F4BA3FB0213D9080B469B0029
:1004BC000B445B00D31ADBB2002B40F0B5803B7AC7
:1004CC00092B00F2B1803A7A464BA3FB0213D908F0
:1004DC000B469B000B445B00D31ADBB2002B40F0A5
:1004EC00A3807B7A092B00F29F807A7A3D4BA3FB89
:1004FC000213D9080B469B000B445B00D31ADBB2EA
:10050C00002B40F09180394B1B780133DAB2374B1A
:10051C001A70364B1B78182B1DD907F10C030A22C5
:10052C000021184607F035FCFB792E4AA2FB032369
:10053C00DB08DBB21A4607F10C033849184607F002
:10054C00B3FB07F10C0200230093354B142105205B
:10055C0004F093F885E007F10C030A2200211846F9
:10056C0007F017FCFB791F4AA2FB0323DB08DBB265
:10057C001A4607F10C032949184607F095FB1D4B49
:10058C001B7807F10C0200210291019318230093B0
:10059C00234B1421052004F0C1F807F10C030A22A7
:1005AC000021184607F0F5FBFB79013B1D4A82FB45
:1005BC0003129210DB17D21A07F10C0317491846D5
:1005CC0007F072FB0B4B1B7807F10C020021019119
:1005DC000093134B1421052004F076F841E000BF82
:1005EC00FC040020CDCCCCCC800300208103002067
:1005FC008203002083030020840300208503002055
:10060C008603002087030020880300208903002034
:10061C008A0300208B0300208C030020688E0008C6
:10062C0038A400086766666607F10C030A220021ED
:10063C00184607F0AEFBFB79BF4AA2FB0323DB088D
:10064C00DBB21A4607F10C03BC49184607F02CFB29
:10065C0007F10C0200230093B94B1421052004F080
:10066C000CF83B7A092B00F29B803A7AB24BA3FB35
:10067C000213D9080B469B000B445B00D31ADBB268
:10068C00002B40F08D807B7A092B00F289807A7ADE
:10069C00A94BA3FB0213D9080B469B000B445B0030
:1006AC00D31ADBB2002B7BD1A64B1B780133DAB209
:1006BC00A44B1A70A34B1B78182B22D907F10C03EF
:1006CC000A220021184607F064FBFA799A4BA3FB27
:1006DC000213D9080B469B000B445B00D31ADBB208
:1006EC001A4607F10C039549184607F0DDFA07F195
:1006FC000C0200230093924B1421192003F0BDFF30
:10070C0070E007F10C030A220021184607F041FBA8
:10071C00FA79894BA3FB0213D9080B469B000B44B7
:10072C005B00D31ADBB21A4607F10C038349184657
:10073C0007F0BAFA834B1B7807F10C0200210291E7
:10074C000193182300937E4B1421192003F0E6FF2C
:10075C0007F10C030A220021184607F01AFBFB795B
:10076C005A1E794B83FB02139910D317C91A0B46E7
:10077C009B000B445B00D11A07F10C030A466F492E
:10078C00184607F091FA6F4B1B7807F10C02002109
:10079C00019100936A4B1421192003F095FF21E07D
:1007AC0007F10C030A220021184607F0F2FAFA7935
:1007BC00614BA3FB0213D9080B469B000B445B0057
:1007CC00D31ADBB21A4607F10C035C49184607F042
:1007DC006BFA07F10C0200230093594B14211920DA
:1007EC0003F04BFF07F10C030A220021184607F017
:1007FC00D0FA7B7A03F00103DBB2002B08D1002383
:10080C0000934F4B514A14212D2003F036FF07E083
:10081C00002300934A4B4E4A14212D2003F02DFF48
:10082C003A7A454BA3FB0213D9080B469B000B44A9
:10083C005B00D31ADBB2002B40F08E807B7A092B45
:10084C0000F28A807A7A3C4BA3FB0213D9080B4640
:10085C009B000B445B00D31ADBB2002B7CD13D4BCD
:10086C001B780133DAB23B4B1A703A4B1B78182BBE
:10087C001DD907F10C030A220021184607F089FA4A
:10088C003B7A2D4AA2FB0323DB08DBB21A4607F1A5
:10089C000C032A49184607F007FA07F10C0200234B
:1008AC000093274B14213C2003F0E7FE71E007F185
:1008BC000C030A220021184607F06BFA3B7A1E4AF9
:1008CC00A2FB0323DB08DBB21A4607F10C031B491E
:1008DC00184607F0E9F91F4B1B7807F10C020021B1
:1008EC000291019318230093154B14213C2003F023
:1008FC0015FF07F10C030A220021184607F049FAEC
:10090C003B7A013B104A82FB03129210DB17D21A7E
:10091C0007F10C030949184607F0C6F90D4B1B7873
:10092C0007F10C02002101910093054B14213C208E
:10093C0003F0CAFE2DE000BFCDCCCCCC688E0008F5
:10094C0038A4000883030020676666666C8E000876
:10095C00708E00088503002007F10C030A22002189
:10096C00184607F016FA3B7A9E4AA2FB0323DB08D3
:10097C00DBB21A4607F10C039B49184607F094F9B1
:10098C0007F10C0200230093984B14213C2003F038
:10099C0074FE7B7A092B00F289807A7A914BA3FB47
:1009AC000213D9080B469B000B445B00D31ADBB235
:1009BC00002B7BD18E4B1B780133DAB28C4B1A7027
:1009CC008B4B1B78182B22D907F10C030A22002120
:1009DC00184607F0DEF93A7A824BA3FB0213D908CA
:1009EC000B469B000B445B00D31ADBB21A4607F193
:1009FC000C037D49184607F057F907F10C02002348
:100A0C0000937A4B1421502003F037FE70E007F16D
:100A1C000C030A220021184607F0BBF93A7A714BF5
:100A2C00A3FB0213D9080B469B000B445B00D31AA3
:100A3C00DBB21A4607F10C036B49184607F034F980
:100A4C006B4B1B7807F10C020021029101931823C8
:100A5C000093664B1421502003F060FE07F10C0349
:100A6C000A220021184607F094F93B7A5A1E614B72
:100A7C0083FB02139910D317C91A0B469B000B4426
:100A8C005B00D11A07F10C030A465749184607F0C8
:100A9C000BF9574B1B7807F10C02002101910093C5
:100AAC00524B1421502003F00FFE21E007F10C03F0
:100ABC000A220021184607F06CF93A7A494BA3FB3D
:100ACC000213D9080B469B000B445B00D31ADBB214
:100ADC001A4607F10C034449184607F0E5F807F1EC
:100AEC000C0200230093414B1421502003F0C5FD50
:100AFC007A7A3C4BA3FB0213D9080B469B000B44A0
:100B0C005B00D31ADBB2002B7AD13B4B1B78013341
:100B1C00DAB2394B1A70384B1B78102B1DD907F1F0
:100B2C000C030A220021184607F033F97B7A2D4A70
:100B3C00A2FB0323DB08DBB21A4607F10C032A499C
:100B4C00184607F0B1F807F10C02002300932B4B69
:100B5C001C21672003F091FD6FE007F10C030A22C2
:100B6C000021184607F015F97B7A1E4AA2FB0323D5
:100B7C00DB08DBB21A4607F10C031B49184607F0D9
:100B8C0093F81D4B1B7807F10C0200210291019385
:100B9C0010230093194B1C21672003F0BFFD07F1B4
:100BAC000C030A220021184607F0F3F87B7A013B6C
:100BBC00104A82FB03129210DB17D21A07F10C03B6
:100BCC000949184607F070F80B4B1B7807F10C021B
:100BDC00002101910093094B1C21672003F074FD47
:100BEC002BE000BFCDCCCCCC688E000838A400081C
:100BFC008703002067666666890300207CA60008D0
:100C0C0007F10C030A220021184607F0C2F87B7A80
:100C1C00694AA2FB0323DB08DBB21A4607F10C037B
:100C2C006649184607F040F807F10C0200230093C0
:100C3C00634B1C21672003F020FD624B1B78002BBB
:100C4C007AD0614B1B780133DAB25F4B1A705E4B72
:100C5C001B78102B22D907F10C030A22002118460D
:100C6C0007F097F87A7A544BA3FB0213D9080B467A
:100C7C009B000B445B00D31ADBB21A4607F10C0342
:100C8C004E49184607F010F807F10C0200230093A8
:100C9C004B4B1C21742003F0F0FC4DE007F10C03CE
:100CAC000A220021184607F074F87A7A424BA3FB0B
:100CBC000213D9080B469B000B445B00D31ADBB222
:100CCC001A4607F10C033D49184606F0EDFF3E4B62
:100CDC001B7807F10C020021029101931023009361
:100CEC00374B1C21742003F019FD07F10C030A2269
:100CFC000021184607F04DF87B7A5A1E334B83FBC4
:100D0C0002139910D317C91A0B469B000B445B00B6
:100D1C00D11A07F10C030A462849184606F0C4FFFD
:100D2C00294B1B7807F10C02002101910093244BF5
:100D3C001C21742003F0C8FC012300930C23102207
:100D4C000C21742003F0D1FA012300930C23102200
:100D5C000C21672003F0C9FA0123009314231422F9
:100D6C000021502003F0C1FA012300931423142214
:100D7C0000213C2003F0B9FA012300931423142220
:100D8C000021192003F0B1FA01230093142314223B
:100D9C000021052003F0A9FA02F050FFFFF7D0F96B
:100DAC000346002B3FF4C5AAFFF7B3FA00231846FD
:100DBC001837BD4680BD00BFCDCCCCCC688E0008AA
:100DCC007CA600088B0300208C03002067666666F7
:100DDC0080B58EB004AF07F1180300221A605A6078
:100DEC001A814FF4FA73FB840523FB731423BB7332
:100DFC00002387F8253002F02FFD02F04DFDAF4B9C
:100E0C001B78FB74AD4BDB783B75AC4B1B797B755E
:100E1C0002F008FFAA4B93F90030002B25DBFB7C7A
:100E2C005BB2A84A82FB03129210DB17D31A5BB297
:100E3C001A46A34B93F900301344022B11DCFB7CB4
:100E4C005BB2A04A82FB03129210DB17D31A5BB27F
:100E5C00DAB29B4B93F90030DBB21344DBB25BB2DA
:100E6C0000E00023984A137024E0FB7C5BB2954AA7
:100E7C0082FB03129210DB17D31A5BB21A46904B0B
:100E8C0093F900301344002B11DBFB7C5BB28D4AD1
:100E9C0082FB03129210DB17D31A5BB2DAB2884BC7
:100EAC0093F90030DBB21344DBB25BB200E00223F7
:100EBC00854A137007F118030A220021184606F020
:100ECC0068FF814B93F900301A4607F118037F49EC
:100EDC00184606F0E9FE07F11802002300937C4B3C
:100EEC001421052003F0C9FB7A4B93F90030002B39
:100EFC002FDBFB7C5AB2734B83FB02139910D31775
:100F0C00C91A0B469B000B445B00D31A5BB21A4602
:100F1C00704B93F900301344092B16DCFB7C5AB24E
:100F2C00684B83FB02139910D317C91A0B469B000D
:100F3C000B445B00D31A5BB2DAB2664B93F9003008
:100F4C00DBB21344DBB25BB200E00023624A1370E5
:100F5C002EE0FB7C5AB25B4B83FB02139910D31728
:100F6C00C91A0B469B000B445B00D31A5BB21A46A2
:100F7C00584B93F900301344002B16DBFB7C5AB210
:100F8C00504B83FB02139910D317C91A0B469B00C5
:100F9C000B445B00D31A5BB2DAB24E4B93F90030C0
:100FAC00DBB21344DBB25BB200E009234A4A137094
:100FBC0007F118030A220021184606F0EAFE464BF8
:100FCC0093F900301A4607F118034049184606F009
:100FDC006BFE07F11802002300933D4B14211920DE
:100FEC0003F04BFB07F118030A220021184606F008
:100FFC00D0FE7B7D03F00103DBB2002B08D1002374
:10100C000093334B354A14212D2003F036FB07E0B7
:10101C00002300932E4B324A14212D2003F02DFB7C
:10102C00304B93F90030002B25DB3B7D5BB2254A1E
:10103C0082FB03129210DB17D31A5BB21A46294BB0
:10104C0093F900301344052B11DC3B7D5BB21D4A38
:10105C0082FB03129210DB17D31A5BB2DAB2214B6C
:10106C0093F90030DBB21344DBB25BB200E0002337
:10107C001D4A13703DE03B7D5BB2124A82FB0312AA
:10108C009210DB17D31A5BB21A46164B93F9003049
:10109C001344002B2ADB3B7D5BB20A4A82FB031212
:1010AC009210DB17D31A5BB2DAB20E4B93F9003005
:1010BC00DBB21344DBB25BB219E000BFFC040020CE
:1010CC008D030020676666668E030020688E00081C
:1010DC0038A400088F030020900300206C8E0008B9
:1010EC00708E000891030020920300200523B24A61
:1010FC00137007F118030A220021184606F049FE66
:10110C00AD4B93F900301A4607F11803AB4918465A
:10111C0006F0CAFD07F1180200230093A84B142116
:10112C003C2003F0AAFAA74B93F90030002B2FD0E8
:10113C003B7D5AB2A44B83FB02139910D317C91AE7
:10114C000B469B000B445B00D31A5BB21A469D4BBB
:10115C0093F900301344092B16DC3B7D5AB29A4BA1
:10116C0083FB02139910D317C91A0B469B000B442F
:10117C005B00D31A5BB2DAB2924B93F90030DBB25C
:10118C001344DBB25BB200E00023904A13702EE0F4
:10119C003B7D5AB28C4B83FB02139910D317C91A9F
:1011AC000B469B000B445B00D31A5BB21A46854B73
:1011BC0093F900301344002B16DB3B7D5AB2824B63
:1011CC0083FB02139910D317C91A0B469B000B44CF
:1011DC005B00D31A5BB2DAB27A4B93F90030DBB214
:1011EC001344DBB25BB200E00923784A137007F1B9
:1011FC0018030A220021184606F0CBFD734B93F915
:10120C0000301A4607F118036C49184606F04CFDDD
:10121C0007F1180200230093694B1421502003F0AE
:10122C002CFA6B4B93F90030002B25DB7B7D5BB2EA
:10123C00654A82FB03129210DB17D31A5BB21A4673
:10124C00634B93F900301344052B11DC7B7D5BB2AF
:10125C005D4A82FB03129210DB17D31A5BB2DAB22F
:10126C005B4B93F90030DBB21344DBB25BB200E0B2
:10127C000023584A137024E07B7D5BB2524A82FBF8
:10128C0003129210DB17D31A5BB21A46504B93F928
:10129C0000301344002B11DB7B7D5BB24A4A82FB8E
:1012AC0003129210DB17D31A5BB2DAB2484B93F9E4
:1012BC000030DBB21344DBB25BB200E00523454ADD
:1012CC00137007F118030A220021184606F061FD7D
:1012DC00404B93F900301A4607F11803374918466A
:1012EC0006F0E2FC07F11802002300933A4B1C2194
:1012FC00672003F0C2F9394B93F90030002B2FDB38
:10130C007B7D5AB2304B83FB02139910D317C91A49
:10131C000B469B000B445B00D31A5BB21A462F4B57
:10132C0093F900301344092B16DC7B7D5AB2264B03
:10133C0083FB02139910D317C91A0B469B000B445D
:10134C005B00D31A5BB2DAB2244B93F90030DBB2F8
:10135C001344DBB25BB200E00023214A137044E07B
:10136C007B7D5AB2184B83FB02139910D317C91A01
:10137C000B469B000B445B00D31A5BB21A46174B0F
:10138C0093F900301344002B2CDB7B7D5AB20E4BAF
:10139C0083FB02139910D317C91A0B469B000B44FD
:1013AC005B00D31A5BB2DAB20C4B93F90030DBB2B0
:1013BC001344DBB25BB216E092030020688E000887
:1013CC0038A4000893030020676666669403002027
:1013DC0095030020960300207CA6000897030020AC
:1013EC009803002009235F4A137007F118030A229F
:1013FC000021184606F0CDFC5A4B93F900301A46E2
:10140C0007F118035849184606F04EFC07F118026C
:10141C0000230093554B1C21742003F02EF903F08C
:10142C001BFB0246524B1B68D21AFB8C9A420ED302
:10143C00504B1B78002B0CBF01230023DBB21A4648
:10144C004C4B1A7003F008FB0346494A1360494B96
:10145C001B78002B07D0F87BB97B00230093464BFD
:10146C00464A03F00AF902F0E9FBFEF769FE03466F
:10147C0087F8253097F82530012B03D1FEF749FF6B
:10148C0000236BE097F82530022B13D107F10E03E4
:10149C00039307F10F030293394B0193394B0093DC
:1014AC00394B3A4A3A493B48FEF7CFFEB42003F099
:1014BC00DDFAA0E497F82530032B0BD107F10E02CF
:1014CC0007F10F0311461846FEF796FEB42003F001
:1014DC00CDFA90E497F82530042B7FF48CAC3B1DAF
:1014EC0000221A605A601A722B4B93F90030DBB24F
:1014FC001A46920013445B00DAB2284B93F9003081
:10150C00DBB21344DBB23B71254B93F90030DBB2F9
:10151C001A46920013445B00DAB2224B93F9003066
:10152C00DBB21344DBB2FB711F4B93F90030DBB21F
:10153C001A46920013445B00DAB20A4B93F900305E
:10154C00DBB21344DBB23B723B1D184602F006FAC9
:10155C0002F05EFAB42003F089FA4CE418462837FE
:10156C00BD4680BD98030020688E00087CA600084C
:10157C009C030020A003002038A40008708E0008F3
:10158C009703002095030020930300209103002073
:10159C008F0300208D0300208E0300209003002079
:1015AC0092030020940300209603002080B582B0A3
:1015BC0002AF02F037FB002300930E4B0E4A0821BA
:1015CC00002003F001F9002300930A4B0B4A2B2156
:1015DC00002003F0F9F802F031FB00BF4FF400419A
:1015EC00074803F0F9FC0346002BF7D100BFBD46BA
:1015FC0080BD00BF44AD0008748E0008888E0008C2
:10160C00000C014080B584B002AF00237B6002F077
:10161C0009FB02F015FA03461A46504B1A704F4B51
:10162C001B78012B0CD14E4B1B78013BDAB24C4B87
:10163C001A704B4B1B78002B02D1494B03221A70AA
:10164C00464B1B78022B0CD1454B1B780133DAB27D
:10165C00434B1A70424B1B78042B02D1404B012296
:10166C001A703E4B1B78032B02D13D4B1B787B60D1
:10167C003A4B1B78042B01D100236BE07B68012BC8
:10168C0008D100F05FFA00237B604FF4967003F0F2
:10169C00EDF916E07B68022B08D100F083FF0023E4
:1016AC007B604FF4967003F0E1F90AE07B68032B42
:1016BC0007D100F0CFFC00237B604FF4967003F051
:1016CC00D5F9274B1B78013B032B27D801A252F8E5
:1016DC0023F000BFF1160008FF1600080D170008D4
:1016EC001B17000800231F4A0021002002F00BFFEB
:1016FC0015E000231B4A1021002002F004FF0EE02D
:10170C000023184A2021002002F0FDFE07E00023F0
:10171C00144A3021002002F0F6FE00E000BF002346
:10172C000093114B114A00210A2003F04DF80023BD
:10173C0000930D4B0E4A10210A2003F045F80023AC
:10174C000093094B0B4A20210A2003F03DF802F0CC
:10175C0075FA5CE718460837BD4680BDA10300202A
:10176C0000000020F802002044AD0008948E000810
:10177C00A48E0008B48E000880B582B002AF02F0CF
:10178C0051FA02F05DF903461A46534B1A70524B4C
:10179C001B78012B0DD1514B1B78013BDAB24F4B0F
:1017AC001A704E4B1B78002B1CD14C4B06221A7016
:1017BC0018E0494B1B78022B0DD1484B1B78013399
:1017CC00DAB2464B1A70454B1B78072B0AD1434BA8
:1017DC0001221A7006E0404B1B78032B02D13F4BC1
:1017EC001B7876E03D4B1B78013B052B38D801A2CA
:1017FC0052F823F0191800082718000835180008AB
:10180C0043180008511800085F1800080023344AD8
:10181C000021002002F077FE23E00023304A102143
:10182C00002002F070FE1CE000232D4A2021002035
:10183C0002F069FE15E00023294A3021002002F055
:10184C0062FE0EE00023264A0021002002F05BFE1F
:10185C0007E00023224A1021002002F054FE00E091
:10186C0000BF1E4B1B78042B20D8002300931D4B6C
:10187C001D4A00210A2002F0A7FF00230093194BF8
:10188C001A4A10210A2002F09FFF00230093154BE7
:10189C00174A20210A2002F097FF00230093114BD6
:1018AC00144A30210A2002F08FFF0FE0002300932E
:1018BC000C4B114A00210A2002F086FF00230093F2
:1018CC00084B0E4A10210A2002F07EFF02F0B6F9F6
:1018DC0055E71846BD4680BDA1030020010000203D
:1018EC00F802002044AD0008C48E0008CC8E00081D
:1018FC00D48E0008E48E0008F08E0008F88E0008E4
:10190C0080B584B002AF01237B6002F08BF9002319
:10191C00124A27210A2002F0F6FD4FF4004110482C
:10192C0003F05AFB0346002B11D07B68DAB200237C
:10193C0000933F233F21002002F09AFB02F07EF936
:10194C007B6804337B607B687F2B02DCE5E700BFA0
:10195C0000E000BF0837BD4680BD00BFC89000083E
:10196C00000C014080B582B000AF03463960FB80AB
:10197C003B68002B07D1FB88D9B20023154A0A20FB
:10198C0002F0C1FD21E03B68012B07D1FB88D9B2E5
:10199C000023114A0A2002F0B6FD16E03B68B3F1B1
:1019AC00FF3F07D1FB88D9B200230C4A0A2002F072
:1019BC00AAFD0AE03B6813F1020F06D1FB88D9B2ED
:1019CC000023074A0A2002F09EFD00BF0837BD46DF
:1019DC0080BD00BF3890000880900008C8900008B7
:1019EC00F08F000880B582B000AF03463960FB80F1
:1019FC00B7F906203B681B78C3F17F039A420BDCD6
:101A0C00FB88D8B23B685B78C3F13F03D9B20023A3
:101A1C003A6802F078FD00E000BF0837BD4680BD93
:101A2C0080B584B002AF78600B46FB7097F9033039
:101A3C00002B15D17A681849184806F035F900239F
:101A4C000093174B174A0321482002F0BDFE0023D8
:101A5C000093134B114A0321662002F0B5FE16E0E9
:101A6C00114B1B681A460C490C4806F01DF9002353
:101A7C0000930B4B0D4A16213C2002F0A5FE0023CF
:101A8C000093074B054A1621662002F09DFE00BF0D
:101A9C000837BD4680BD00BF088F0008A803002092
:101AAC0014AF00080C8F0008A4030020188F000846
:101ABC0080B586B002AFBA607B600346FB810B46F3
:101ACC00BB81B7F918306FF001011846FFF74AFFD8
:101ADC00B7F90E30396A1846FFF784FFB7F90C30A6
:101AEC00796A1846FFF77EFF002300933F237F227D
:101AFC003F21002002F0BCFA0021B868FFF790FFEC
:101B0C000D4B1B68BA689A420BDD0B4ABB6813601D
:101B1C0000230093094B0A4A16214B2002F054FE75
:101B2C0003E00121B868FFF77BFF02F087F800BFE4
:101B3C001037BD4680BD00BFA403002014AF0008C1
:101B4C00288F000880B58EB004AFFC233B8140F297
:101B5C007D13FB803B89C8339BB2FB84FB88C83365
:101B6C009BB2BB8402F078FF034603F00703002B03
:101B7C0001D0AF4B00E0AF4B3B6202F06DFF014672
:101B8C00AD4BA3FB01239A0813469B001344CA1ABE
:101B9C00002A01D0A64B00E0A64BFB6115230A33AB
:101BAC009BB2BB8027237B8300237B6100233B619B
:101BBC000023FB600023FB72FFF7A2FE02F032F859
:101BCC004FF480519D4803F007FA0346002B0FD0C9
:101BDC004FF40051994803F0FFF90346002B07D04E
:101BEC004FF48041954803F0F7F90346002B05D1DB
:101BFC007B69002B0BD101237B6108E04FF4004182
:101C0C008E4803F0E9F90346002B00F04F81B7F939
:101C1C002620B7F904107B69052BA8BF0523CB1A26
:101C2C009A4229DCB7F926300B2B25DDB7F91A308F
:101C3C0017221A443B6A5B78C3F13F039A421BDBC1
:101C4C00B7F92410B7F92600FB6903933B6A02939A
:101C5C00B7F904300193B7F91A3000937B69FA682D
:101C6C00FFF726FF00BF4FF40041744803F0B4F9AE
:101C7C000346002BF7D11AE1B7F92420B7F9041069
:101C8C007B69052BA8BF0523CB1A9A4229DCB7F92F
:101C9C0024300B2B25DDB7F91A3017221A44FB69B7
:101CAC005B78C3F13F039A421BDBB7F92610B7F9F7
:101CBC002400FB6903933B6A0293B7F90430019348
:101CCC00B7F91A3000937B69FA68FFF7F1FE00BF91
:101CDC004FF40041594803F07FF90346002BF7D12C
:101CEC00E5E07B69002B0FDD7B69013B544AD35C3B
:101CFC00C3F127039BB27B837B6901337B617B69D7
:101D0C00262B01DD00237B613B6901333B613B6981
:101D1C004C4A82FB03125210DB17D31AFB600021D2
:101D2C00F868FFF77DFE7B69002B07D0B7F91A30F6
:101D3C004FF0FF311846FFF715FE17E097F90B30FF
:101D4C00042BCCBF01230023DBB21A46B7F91A309F
:101D5C0011461846FFF706FEFB7A0133DBB2FB7225
:101D6C0097F90B30092B01DD0023FB72B7F92630F4
:101D7C00396A1846FFF736FEB7F92430F969184668
:101D8C00FFF730FE002300933F237F223F210020EA
:101D9C0002F06EF9FB8C023B9BB2FB84BB8C023BCA
:101DAC009BB2BB84B7F92630002B1FDC02F054FE2B
:101DBC000346214AA2FB0323D9081F4BA3FB012393
:101DCC001A0913469B0013449B00CA1A92B23B8912
:101DDC0013449BB2FB8402F03FFE034603F0030363
:101DEC00002B01D0124B00E0124B3B62B7F92430B0
:101DFC00002B2BDC02F030FE03460F4AA2FB032320
:101E0C00D9080D4BA3FB01231A0913469B0013445D
:101E1C009B00CA1A92B2FB8813449BB2BB8402F09B
:101E2C001BFE034603F00103002B0DD0004B0CE00E
:101E3C00DC90000808910008CDCCCCCC000C014003
:101E4C0010910008676666661A4BFB61FA8CBB8CB6
:101E5C00D31A9BB21AB2184B1A80174BB3F9003035
:101E6C00002B0DDD144BB3F900302E2B08DCFA8C53
:101E7C00114BB3F900309BB213449BB2FB8412E0BC
:101E8C000D4BB3F90030002B0DDA0B4BB3F90030CE
:101E9C0013F12E0F07DBBA8C074BB3F900309BB252
:101EAC0013449BB2BB8401F0C9FE87E600BF283700
:101EBC00BD4680BD08910008B803002080B500AF76
:101ECC004FF48041054803F087F80346002B01D1FD
:101EDC00012300E00023184680BD00BF000C014028
:101EEC0080B586B002AF3B4600221A605A609A60F9
:101EFC00C3F80B2001F096FE4D4B1A683B464D493A
:101F0C00184605F0D1FE3A46002300934A4B0021B7
:101F1C00502002F0B2FB494B1B68D8B2484B1B68EF
:101F2C00DBB2002200920A22002102F08DF9434B11
:101F3C001B68DBB2023BD8B2414B1B68DBB2063BE1
:101F4C00D9B20023009306230E2202F07DF93B4BFD
:101F5C001B68D8B23A4B1B68DBB21E33D9B2384B74
:101F6C001B68DBB2C3F14003DBB2002200920A22F1
:101F7C0002F06AF9314B1B68DBB2023BD8B2304B32
:101F8C001B68DBB21E33D9B20023009306230E224A
:101F9C0002F05AF92B4B1B68D8B22B4B1B68DBB2E7
:101FAC00002200920A22002102F04EF9254B1B68F8
:101FBC00DBB2023BD8B2244B1B68DBB2063BD9B276
:101FCC000023009306230E2202F03EF91D4B1B68E2
:101FDC00D8B21D4B1B68DBB21E33D9B21A4B1B682F
:101FEC00DBB2C3F14003DBB2002200920A2202F002
:101FFC002BF9144B1B68DBB2023BD8B2124B1B689B
:10200C00DBB21E33D9B20023009306230E2202F05A
:10201C001BF90E4B1B68D9B200230D4A142002F099
:10202C0072FA01F00BFE00BF1037BD4680BD00BF39
:10203C00D4030020388F0008B8930008BC0300209C
:10204C00C0030020C4030020C8030020D0030020DC
:10205C004091000880B586B002AF3B4600221A6062
:10206C005A609A60C3F80B200023FB73A84B8022A4
:10207C001A60A84BC0221A6005F016FD0246A64B4A
:10208C0083FB0213D910D317CB1A2A2101FB03F3BC
:10209C00D31A0133A14A136005F006FD02469E4B8C
:1020AC0083FB0213D910D317CB1A2A2101FB03F39C
:1020BC00D31A01339A4A13609A4B20221A609A4B16
:1020CC000A221A60994B00221A604FF4004198487A
:1020DC0002F082FF0346002B00F04C81FB7B002BAF
:1020EC0040F0AF80FFF7EAFE0346012B02D18D4B87
:1020FC0010221A60864B1B68023B854A1360854B85
:10210C001B68023B834A1360864B1B68053B854A60
:10211C001360844B1B68874A82FB03129210DB17F7
:10212C009A1A814B1B6813447F4A1360784B1B68C7
:10213C00012B19DC764B80221A6005F0B5FC0246A7
:10214C00754B83FB0213D910D317CB1A2A2101FB31
:10215C0003F3D31A0133714A1360704B1B68052BC0
:10216C0002DC6E4B06221A606A4B1B68012B19DCD1
:10217C00684B80221A6005F097FC0246664B83FB85
:10218C000213D910D317CB1A2A2101FB03F3D31A4C
:10219C000133634A1360624B1B68052B02DC604BF6
:1021AC0006221A60FFF79CFE5F4B1B68002B02DABD
:1021BC005D4B00221A605C4B1B68402B01DD012338
:1021CC00FB73534B1B68132B13DD514B1B681F2BDD
:1021DC000FDC554B1A68514B1B689A4207DB4F4B6F
:1021EC001B6803F11602504B1B689A4201DA01235B
:1021FC00FB73484B1B68132B13DD464B1B681F2BC3
:10220C000FDC494B1A68464B1B689A4207DB444B60
:10221C001B6803F11602444B1B689A4201DA012336
:10222C00FB733B4B1B68102B03D03A4B1B68102BDA
:10223C0004D13E4B1B6801333C4A13601E2002F054
:10224C0015FCFB7B012B7FF440AF01F0EBFC002372
:10225C00394A0021002002F056F90023374A202188
:10226C00082002F050F900230093354B354A202109
:10227C00482002F0A9FA2D4B1A683B463249184601
:10228C0005F012FD3A4600230093304B30214820D4
:10229C0002F0F3F901F0D2FCFFF710FE0346012B1C
:1022AC005FD10023FB731A4B80221A60194BC0229A
:1022BC001A6005F0F9FB0246174B83FB0213D91089
:1022CC00D317CB1A2A2101FB03F3D31A0133134A78
:1022DC001360124B1B68052B02DC104B06221A6094
:1022EC0005F0E2FB02460C4B83FB0213D910D3170B
:1022FC00CB1A2A2101FB03F3D31A0133084A1360CA
:10230C00074B1B68052B23DC054B06221A601FE0CC
:10231C00BC030020C4030020310CC330C0030020D8
:10232C00C8030020CC030020D0030020D4030020DD
:10233C00000C0140676666663891000848910008F9
:10234C0014AF00083C8F0008388F0008B8930008C1
:10235C000B4B20221A600B4B32221A600A4B0022C4
:10236C001A604FF40041094802F036FE0346002B78
:10237C0002D0AAE600BF00E000BF1037BD4680BD0A
:10238C00CC030020D0030020D4030020000C01401B
:10239C0080B400AF2D4B00221A602D4B00221A6026
:1023AC002C4B00221A602C4B08221A602B4B00225B
:1023BC001A602B4B00221A602A4B5F221A602A4BA0
:1023CC0000221A60294B5F221A60294B00221A60E6
:1023DC00284B5F221A60284B00221A60274B5F2281
:1023EC001A60274B00221A60264B00221A60264BDB
:1023FC0003221A60254B01221A60254B0A221A600F
:10240C00244B05221A60244B00221A60234B012214
:10241C001A60234B00221A60224B00221A60224BB6
:10242C0000221A60214B18221A60214B00221A60DC
:10243C00204B00221A60204B00221A601F4B0022F6
:10244C001A6000BFBD4680BC704700BFD803002097
:10245C00DC030020E0030020C8020020E40300207D
:10246C00E8030020CC020020EC030020D002002066
:10247C00F0030020D4020020F4030020D802002036
:10248C00F8030020FC030020DC020020E002002006
:10249C00E4020020E802002000040020EC020020EE
:1024AC0004040020080400200C040020F00200208A
:1024BC00180400201C040020200400202404002008
:1024CC0080B500AF4FF480510F4802F085FD0346F4
:1024DC00002B01D1022314E04FF400510A4802F002
:1024EC007BFD0346002B01D103230AE04FF480410E
:1024FC00054802F071FD0346002B01D1012300E0D9
:10250C000023184680BD00BF000C014080B500AF11
:10251C001E21322002F0FEF911211E2002F0FAF9E0
:10252C0012213C2002F0F6F91021372002F0F2F9CA
:10253C002B21192002F0EEF92B21642002F0EAF98C
:10254C003421752002F0E6F931210E2002F0E2F977
:10255C001821182002F0DEF924214E2002F0DAF9BD
:10256C003921502002F0D6F90B216B2002F0D2F960
:10257C000B21962002F0CEF90521052002F0CAF9B4
:10258C000721082002F0C6F90C21462002F0C2F9FE
:10259C0038210A2002F0BEF91921462002F0BAF9BE
:1025AC0000BF80BD90B589B002AF00237B613B1D9D
:1025BC0000221A605A609A60C3F80B20FFF7E8FEFD
:1025CC0002F04AFA0346954A13604FF400419448CE
:1025DC0002F002FD0346002B00F07184914B1B6846
:1025EC00002B40F0CA8301F01DFBFFF78FFF02F0B8
:1025FC0033FA0246894B1B68D31A8B4A13608A4BF9
:10260C001A688A4B1B68D31A4CF25032934217D972
:10261C00854B1B68854A1360854B1B680133844AC4
:10262C001360844B1B680133824A1360824B1B6816
:10263C000133814A1360814B1B68013B7F4A136055
:10264C007F4B1B6801337E4A136005F02DFA02465E
:10265C007C4B83FB02131912D317CB1A4FF448711E
:10266C0001FB03F3D31A03F5C87303F00103002B2A
:10267C0011D1734B1B68012B0DD1734B1B68002BB5
:10268C0009D1724B5F221A60714B1B68714A13603F
:10269C006D4B01221A6005F007FA0246694B83FB69
:1026AC0002131912D317CB1A4FF4487101FB03F321
:1026BC00D31A03F5C871684B83FB0132CB17D21ABE
:1026CC0013465B001344CA1A012A11D15C4B1B68D8
:1026DC00022B0DD1614B1B68002B09D1604B5F2283
:1026EC001A605B4B1B685F4A13605C4B01221A60DB
:1026FC0005F0DAF90246534B83FB02131912D31778
:10270C00CB1A4FF4487101FB03F3D31A03F5C871CC
:10271C00554B83FB01235A10CB17D21A13469B003F
:10272C001344CA1A012A11D1454B1B68032B0DD136
:10273C004E4B1B68002B09D14D4B5F221A60444B4A
:10274C001B684C4A1360494B01221A6005F0ACF926
:10275C0002463C4B83FB02131912D317CB1A4FF4CE
:10276C00487101FB03F3D31A03F5C872424B83FB88
:10277C00021313449910D317C91A0B46DB005B1ACA
:10278C00D11A012911D12E4B1B68042B0DD13B4BB7
:10279C001B68002B09D13A4B5F221A602C4B1B682B
:1027AC00384A1360354B01221A60274B1B68002BEB
:1027BC0019D0264B1B68D8B2264B1B68D9B2002304
:1027CC00022201F0C4FD214B1B6813F1020F07DB41
:1027DC001E4B1A68174B1B68D31A1C4A136002E075
:1027EC00194B00221A601D4B1B68002B4FD01C4B41
:1027FC001B68D8B21B4B1B68D9B20023012201F015
:10280C00A6FD174B1B68B3F1FF3F3DDB144B1A6859
:10281C00084B1B68D31A124A136038E004040020DA
:10282C00000C0140E8030020080400200C040020E8
:10283C00EC020020DC020020E0020020E402002078
:10284C00000400201F85EB5118040020CC0200204E
:10285C00C8020020EC030020565555551C040020DE
:10286C00D0020020F003002067666666200400207A
:10287C00D4020020F4030020932449922404002065
:10288C00D8020020F8030020994B00221A60994BC3
:10289C001B68002B19D0984B1B68D8B2974B1B6840
:1028AC00D9B20023042201F052FD934B1B6813F1A3
:1028BC00040F07DB904B1A68914B1B68D31A8E4A96
:1028CC00136002E08B4B00221A608E4B1B68002BAE
:1028DC0019D08D4B1B68D8B28C4B1B68D9B2002316
:1028EC00032201F034FD884B1B6813F1030F07DB47
:1028FC00854B1A68824B1B68D31A834A136002E01B
:10290C00804B00221A60FFF7DBFD0346022B08D137
:10291C007F4B1B68012B04DD7D4B1B68023B7C4A03
:10292C001360FFF7CDFD0346032B08D1784B1B68D2
:10293C002E2B04DC764B1B680233754A1360FFF7B1
:10294C00BFFD0346012B0ED1724B1B68002B0AD125
:10295C00704B01221A60704B06221A606C4B1B687C
:10296C0008336E4A13606B4B1B68012B16D16A4BF4
:10297C001B680833684A1360674B1B68D8B2674BF7
:10298C001B68D9B2644B1B68DBB20433DAB2634BFD
:10299C001B68DBB20024009401F06AFB604B1B68DF
:1029AC00002B1ED002F058F803465E4AA2FB03230C
:1029BC001B0903F00103002B07D1554B1B68D9B23F
:1029CC000023594A042001F09EFD584B1A68584BBD
:1029DC001B68D31AB3F57A7F0BD9514B00221A60BE
:1029EC0007E04B4B1B68D9B200234F4A042001F07F
:1029FC008AFD504B1B68D8B24F4B1B68D9B24F4B5A
:102A0C001B68DAB2002301F0A2FC4A4B1B68DBB254
:102A1C000233D8B2484B1B68DBB20333D9B2474BF5
:102A2C001B68474A82FB0342DB17D31ADAB2002336
:102A3C0001F08DFC00230093424B434A00211C20E3
:102A4C0001F01BFE414B1A683B1D4149184605F02D
:102A5C002BF93A1D002300933A4B0021402001F042
:102A6C000CFE00230093374B3A4A37211C2001F00F
:102A7C0004FE394B1A683B1D3549184605F014F90C
:102A8C003A1D002300932F4B3721402001F0F5FD18
:102A9C00002300932B4B314A2D21742001F0EDFDC6
:102AAC00224B1B682E4AA2FB03239A093B1D2D497E
:102ABC00184605F0F9F83A1D00230093214B3721F5
:102ACC00742001F0DAFD01F0B9F8134B1B68802B70
:102ADC0002DD104B00221A60234B1B68002B47D1E0
:102AEC00154B1A68214B1B681344134A136046E0BC
:102AFC001C04002020040020D4020020F403002039
:102B0C00DC02002024040020D8020020F80300205E
:102B1C00F0020020E0030020D8030020DC0300209A
:102B2C00100400201F85EB51709100080804002050
:102B3C0014040020C4020020C8020020E40200207B
:102B4C0056555555B8930008508F0008FC030020CB
:102B5C00608F0008648F0008E80200206C8F00086A
:102B6C00D34D6210708F0008E4030020E0020020B7
:102B7C008C4B1A688C4B1B68D31A8A4A13608B4B8C
:102B8C001B68C3F14002874B1B689A4202DC884BDE
:102B9C0001221A60834B1A68844B1B689A4202DC30
:102BAC00834B00221A607F4B1A68804B1B68D21A29
:102BBC00804B1B689A422ADC7A4B1A687B4B1B6849
:102BCC001A447C4B1B689A4221DB7B4B1A68774B6F
:102BDC001B68D21A794B1B689A4218DA764B1A6822
:102BEC00724B1B681A44754B1B689A420FDD734B72
:102BFC0006221A60724B1B6808336E4A1360714BC5
:102C0C001B6801336F4A13606F4B00221A606C4BC8
:102C1C001B6808337B617B69A3F108026B4B1B6853
:102C2C009A4221DC7B6903F10802684B1B689A42CB
:102C3C001ADB674B1B68142B16DC654B1B68042BCB
:102C4C0012DD644B1B68002B0ED1634B00221A6003
:102C5C00624B1B68013B614A13605E4B01221A6098
:102C6C005F4B1B685F4A13607B69A3F108025E4BE4
:102C7C001B689A4221DC7B6903F108025A4B1B68E2
:102C8C009A421ADB594B1B68142B16DC574B1B68EA
:102C9C00042B12DD4F4B1B68002B0ED1544B002222
:102CAC001A604E4B1B68013B4C4A1360494B012286
:102CBC001A604B4B1B684B4A13607B69A3F10802EB
:102CCC004C4B1B689A4221DC7B6903F10802494B8F
:102CDC001B689A421ADB484B1B68142B16DC464BBC
:102CEC001B68042B12DD3B4B1B68002B0ED1434B96
:102CFC0000221A60394B1B68013B384A1360354B74
:102D0C0001221A60364B1B68364A13607B69A3F1AB
:102D1C0008023B4B1B689A4221DC7B6903F10802D9
:102D2C00374B1B689A421ADB364B1B68142B16DC8C
:102D3C00344B1B68042B12DD264B1B68002B0ED169
:102D4C00314B00221A60254B1B68013B234A136050
:102D5C00204B01221A60224B1B68224A13602B4B1A
:102D6C001B68042B02DD294B00221A601B4B1B68CD
:102D7C00002B02D1264B01221A60254B1B68012B1C
:102D8C0040F0988000F04EFF00230093214B224A24
:102D9C001421252001F018FD0A4B1A683B1D1F4910
:102DAC0018463DE0C8020020E0020020E4020020AA
:102DBC00E4030020DC030020C4020020D803002020
:102DCC00F0020020FC030020E0030020EC030020B4
:102DDC00CC0200201004002018040020E80200207F
:102DEC000804002014040020F0030020D00200206E
:102DFC001C040020F4030020D40200202004002036
:102E0C00F8030020D8020020240400200004002035
:102E1C00E803002014AF0008748F0008608F0008CE
:102E2C0004F042FF3A1D00230093274B1421552038
:102E3C0001F0CAFC00230093234B244A23212520B4
:102E4C0001F0C2FC224B1A683B1D2249184604F0C3
:102E5C002BFF3A1D002300931B4B2321552001F01F
:102E6C00B3FC00230093184B1B4A3221252001F0A0
:102E7C00ABFC1A4B1B681A4AA2FB03239A093B1D95
:102E8C001849184604F010FF3A1D002300930E4B0E
:102E9C003221552001F098FC00F0D0FEFFF710FB1A
:102EAC000346012B06D1FFF773FA01F0D5FD03465B
:102EBC000D4A1360012001F0D9FDFFF786BB00BF5E
:102ECC001C37BD4690BD00BF14AF00087C8F0008B6
:102EDC00EC020020608F0008848F0008080400209A
:102EEC00D34D6210708F00080404002080B588B0A8
:102EFC0000AF07F1100300221A605A609A60DA6082
:102F0C002A4B9B69294A43F010039361274B9B6919
:102F1C0003F01003FB60FB68244B9B69234A43F0CE
:102F2C0020039361214B9B6903F02003BB60BB68BA
:102F3C001E4B9B691D4A43F0080393611B4B9B6915
:102F4C0003F008037B607B68184B9B69174A43F0BE
:102F5C0004039361154B9B6903F004033B603B68CE
:102F6C0001224FF40051124802F04DF84FF4005377
:102F7C003B6101237B610123BB610223FB6107F1F0
:102F8C00100319460A4801F0A3FE4FF470433B614D
:102F9C0000237B610123BB6107F11003194605482F
:102FAC0001F096FE00BF2037BD4680BD00100240E8
:102FBC0000100140000C014080B500AF124B134AC9
:102FCC001A60114B124A5A600F4B00229A600E4B3A
:102FDC000022DA600C4B4FF480421A610A4B00223B
:102FEC005A61094B00229A61074B0022DA61064BA9
:102FFC0000221A62044802F01FF80346002B01D08D
:10300C0000F031F900BF80BD2804002000540040BE
:10301C00801A060080B500AF124B134A1A60114B90
:10302C00124A5A600F4B00229A600E4B0022DA6053
:10303C000C4B4FF480421A610A4B00225A61094B27
:10304C0000229A61074B0022DA61064B00221A62B9
:10305C00044801F0F1FF0346002B01D000F003F906
:10306C0000BF80BD7C04002000580040A0860100F9
:10307C0080B58AB000AF786007F1180300221A609F
:10308C005A609A60DA607B681B682B4A934224D1A1
:10309C002A4B9B69294A43F008039361274B9B6990
:1030AC0003F008037B617B69C023BB611223FB61C6
:1030BC0003237B6207F118031946214801F008FE2F
:1030CC001E4BDB691D4A43F40013D3611B4BDB69B8
:1030DC0003F400133B613B6929E07B681B68194AC8
:1030EC00934224D1154B9B69144A43F00803936116
:1030FC00124B9B6903F00803FB60FB684FF44063C1
:10310C00BB611223FB6103237B6207F11803194691
:10311C000B4801F0DDFD094BDB69084A43F48003E1
:10312C00D361064BDB6903F48003BB60BB6800BF53
:10313C002837BD4680BD00BF00540040001002403F
:10314C00000C01400058004080B582B000AF012354
:10315C007B6001F029FC00F029F8FFF7C7FE00F0B6
:10316C0089F8FFF729FFFFF755FF00F004FD00F089
:10317C0059FD00F063FD7B68012B02D1FDF7D0F8FF
:10318C0010E07B68022B02D1FEF73CFA0AE07B6868
:10319C00052B02D1FDF71CFE04E07B68062B01D148
:1031AC00FEF704FAFEF7E8FA7860E4E780B594B02D
:1031BC0000AF07F1280328220021184604F0E9FD8E
:1031CC0007F1140300221A605A609A60DA601A61DF
:1031DC003B1D00221A605A609A60DA600523BB62BC
:1031EC004FF48033FB6200233B6301237B63012399
:1031FC00BB6302237B644FF48033BB644FF4E01356
:10320C00FB6407F12803184603F08CF80346002BE7
:10321C0001D000F028F80F237B610223BB6100234F
:10322C00FB614FF480633B6200237B6207F1140364
:10323C000221184603F0F8FA0346002B01D000F0E7
:10324C0012F801237B604FF48073BB603B1D184662
:10325C0003F082FC0346002B01D000F004F800BF01
:10326C005037BD4680BD80B400AF72B600BF00BF02
:10327C00FDE7000080B586B000AF07F11403002114
:10328C000A461A800A469A7000233B614D4B4E4AFF
:10329C001A604C4B4FF0FF325A604A4B00229A6036
:1032AC00484803F0CFFD0346002B01D0FFF7DBFFAE
:1032BC000023FB60454BDB69444A43F08053D361E8
:1032CC00424BDB6903F08053BB60BB6803F012F820
:1032DC003E4BDB693D4A43F00063D3613B4BDB69FA
:1032EC0003F000637B607B680721364804F0C0FB69
:1032FC00034645F2AA5293423AD10621314804F0D2
:10330C00B7FB0346DBB2BB7505212E4804F0B0FBBE
:10331C000346DBB27B7504212A4804F0A9FB034663
:10332C00DBB23B750321274804F0A2FB0346DBB25A
:10333C00BB730221234804F09BFB0346DBB27B7377
:10334C000121204804F094FB0346DBB2FB7302F02E
:10335C00DDFF07F11403012219461A4803F008FE99
:10336C0007F10C0301221946164803F071FF25E002
:10337C0019233B7559237B755023BB7507F1140337
:10338C00012219460F4803F0F3FD0346002B01D030
:10339C00FFF769FF01233B7401237B740123BB748A
:1033AC002523FB7407F1100301221946054803F08D
:1033BC004FFF0346002B01D0FFF755FF1837BD46D2
:1033CC0080BD00BFD0040020002800400010024047
:1033DC0080B584B000AF78607B681B680F4A93425D
:1033EC0018D102F087FF0E4BDB690D4A43F00063E6
:1033FC00D3610B4BDB6903F00063FB60FB68094B8B
:10340C0001221A6000220021032001F02AFC032073
:10341C0001F043FC00BF1037BD4680BD00280040C2
:10342C00001002403C04424280B584B000AF07F16A
:10343C000C03012219463E4803F032FE07F1080343
:10344C00012219463A4803F0B9FF3B7B232B6AD87B
:10345C007B7B592B67D8BB7B592B64D87B7A122B7F
:10346C0061D8BB7A312B5ED8FB7A992B5BD83B7B2E
:10347C00002B05D17B7B002B02D1BB7B002B52D0C8
:10348C0002F044FF2B4BDB692A4A43F08053D36193
:10349C00284BDB6903F080537B607B6802F02AFFCA
:1034AC00244BDB69234A43F00063D361214BDB6976
:1034BC0003F000633B603B68002207211C4804F0CA
:1034CC00BDFABB7B1A460621194804F0B7FA7B7B80
:1034DC001A460521164804F0B1FA3B7B1A46042122
:1034EC00134804F0ABFABB7A1A460321104804F0D7
:1034FC00A5FA7B7A1A4602210D4804F09FFAFB7A52
:10350C001A4601210A4804F099FA45F2AA520721F9
:10351C00074804F093FA02F0F9FE064BDB69054A02
:10352C0023F00063D36100BF1037BD4680BD00BFE0
:10353C00D00400200010024080B485B000AF154BC1
:10354C009B69144A43F001039361124B9B6903F08E
:10355C000103BB60BB680F4BDB690E4A43F0805321
:10356C00D3610C4BDB6903F080537B607B680A4BA7
:10357C005B68FB60FB6823F0E063FB60FB6843F077
:10358C000073FB60044AFB68536000BF1437BD46F0
:10359C0080BC7047001002400000014080B400AFB6
:1035AC0000BFFDE780B400AF00BFFDE780B400AF03
:1035BC0000BFFDE780B400AF00BFFDE780B400AFF3
:1035CC0000BFFDE780B400AF00BFBD4680BC7047B4
:1035DC0080B400AF00BFBD4680BC704780B400AF64
:1035EC0000BFBD4680BC704780B500AF01F022FA29
:1035FC0000BF80BD80B500AF024804F0D5F900BF14
:10360C0080BD00BFD004002080B400AF0123184659
:10361C00BD4680BC704780B582B000AF7860396021
:10362C0004F006FC034616221A604FF0FF331846CE
:10363C000837BD4680BD80B582B000AF78604FF0D2
:10364C00FF317868FFF7E7FF00BFFDE780B586B074
:10365C0000AFF860B9607A6000237B610AE0AFF3D9
:10366C0000800146BB685A1CBA60CAB21A707B69EA
:10367C0001337B617A697B689A42F0DB7B68184680
:10368C001837BD4680BD80B586B000AFF860B96014
:10369C007A6000237B6109E0BB685A1CBA601B7816
:1036AC001846AFF300807B6901337B617A697B68D4
:1036BC009A42F1DB7B6818461837BD4680BD80B452
:1036CC0083B000AF78604FF0FF3318460C37BD461F
:1036DC0080BC704780B483B000AF786039603B68C1
:1036EC004FF400525A60002318460C37BD4680BC7C
:1036FC00704780B483B000AF7860012318460C3754
:10370C00BD4680BC704780B485B000AFF860B9602E
:10371C007A60002318461437BD4680BC7047000001
:10372C0080B586B000AF7860144A154BD31A7B6114
:10373C007B693B61134B1B68002B02D1114B124A66
:10374C001A60104B1A687B6813443A699A4207D284
:10375C0004F06EFB03460C221A604FF0FF3309E0B5
:10376C00084B1B68FB60074B1A687B681344054ABF
:10377C001360FB6818461837BD4680BD005000200A
:10378C0000040000E4040020E00A002080B400AF34
:10379C0000BFBD4680BC70470C480D490D4A002344
:1037AC0002E0D458C4500433C4188C42F9D30A4AEA
:1037BC000A4C002301E013600432A242FBD3FFF752
:1037CC00E5FF04F03BFBFFF7BFFC70470000002057
:1037DC006403002020B0000864030020DC0A0020F1
:1037EC00FEE780B483B000AF0346FB71FB791B0985
:1037FC00DBB21A46920013445B00DAB2FB7903F099
:10380C000F03DBB21344DBB218460C37BD4680BC49
:10381C007047000080B483B000AF0346FB71FB79A6
:10382C000C4AA2FB0323DB08DBB21B01D8B2FA79EA
:10383C00084BA3FB0213D9080B469B000B445B00FF
:10384C00D31ADBB20344DBB218460C37BD4680BC3E
:10385C00704700BFCDCCCCCC80B584B002AF002378
:10386C003B713A1D4FF6FF7300930123D02108489A
:10387C0001F026FD4FF6FF7300931323054AD12167
:10388C00034801F01BFE00BF0837BD4680BD00BFDA
:10389C007C040020E804002080B500AF2D4B1B7881
:1038AC001846FFF79EFF03461A462B4B1A71294BFD
:1038BC005B781846FFF795FF03461A46264BDA70DD
:1038CC00244B9B7803F04003002B16D0224B012293
:1038DC009A70204B9B7803F02003DAB21E4B5A707F
:1038EC001C4B9B7803F01F03DBB21846FFF779FFE4
:1038FC0003461A46184B1A700BE0174B00229A70AD
:10390C00144B9B781846FFF76CFF03461A46124B74
:10391C001A70104B9B791846FFF763FF03461A4643
:10392C000D4B5A710B4B5B791846FFF75AFF034648
:10393C001A46094B9A71074B1B791846FFF751FF32
:10394C0003461A46044BDA71024BDA78024B1A72B0
:10395C0000BF80BDE8040020FC04002090B583B0BB
:10396C0000AF78607B681B791846FFF753FF03465E
:10397C001A46264B1A707B68DB781846FFF74AFF0D
:10398C0003461A46214B5A707B689B78012B11D148
:10399C007B685B785B01DCB27B681B781846FFF7B1
:1039AC0039FF03462343DBB243F04003DAB2174B33
:1039BC009A7008E07B681B781846FFF72BFF0346CC
:1039CC001A46124B9A707B685B791846FFF722FFF8
:1039DC0003461A460D4B9A717B689B791846FFF784
:1039EC0019FF03461A46094B5A717B68DB79184656
:1039FC00FFF710FF03461A46044B1A717B681A7ABC
:103A0C00024BDA7000BF0C37BD4690BDE8040020B5
:103A1C0080B584B004AF4FF6FF7302931323019368
:103A2C00054B009301230022D021044801F0A6FF8E
:103A3C0000BFBD4680BD00BFE80400207C04002010
:103A4C0080B582B000AF0023FB714FF48051334836
:103A5C0001F0C2FA0346002B10D1142001F006F835
:103A6C0000BF4FF480512D4801F0B6FA0346002BED
:103A7C00F7D0142000F0FAFF0123FB714FF4005132
:103A8C00264801F0A9FA0346002B10D1142000F0AF
:103A9C00EDFF00BF4FF40051204801F09DFA0346A2
:103AAC00002BF7D0142000F0E1FF0223FB714FF440
:103ABC0080411A4801F090FA0346002B10D11420D3
:103ACC0000F0D4FF00BF4FF48041144801F084FA99
:103ADC000346002BF7D0142000F0C8FF0323FB7122
:103AEC004FF400410D4801F077FA0346002B10D13A
:103AFC00142000F0BBFF00BF4FF40041074801F059
:103B0C006BFA0346002BF7D0142000F0AFFF042310
:103B1C00FB71FB7918460837BD4680BD000C01408F
:103B2C0080B584B002AF78600B46FB70FB789BB21B
:103B3C004FF0FF3200927A687821034801F0C0FB05
:103B4C0000BF0837BD4680BD2804002080B584B076
:103B5C0000AF0346FB710023BB8100233B73FB7951
:103B6C007B7307F10C0302211846FFF7D9FF00BF46
:103B7C001037BD4680BD80B500AFAE20FFF7E6FF25
:103B8C000220FFF7E3FF1020FFF7E0FF4020FFF7D4
:103B9C00DDFFB020FFF7DAFF8120FFF7D7FFCF2042
:103BAC00FFF7D4FFA120FFF7D1FFA620FFF7CEFF30
:103BBC00A820FFF7CBFF3F20FFF7C8FFAD20FFF792
:103BCC00C5FF8B20FFF7C2FF3320FFF7BFFFC820D4
:103BDC00FFF7BCFFD320FFF7B9FF0020FFF7B6FFBC
:103BEC00D520FFF7B3FFC020FFF7B0FFD920FFF7B8
:103BFC00ADFF1F20FFF7AAFFDA20FFF7A7FF122067
:103C0C00FFF7A4FFDB20FFF7A1FF4020FFF79EFF8B
:103C1C0000F008F800F012F8AF20FFF797FF00BF94
:103C2C0080BD000080B500AF4FF4806200210248D7
:103C3C0004F0AFF800BF80BD0805002080B582B04D
:103C4C0000AF154B40221A700023FB711BE0FB796F
:103C5C00503BDBB21846FFF779FF0220FFF776FFE7
:103C6C001020FFF773FF0D48FB79DB010C4A13445E
:103C7C008022194604F009F981210748FFF750FF0B
:103C8C00FB790133FB71FB79072BE0D900BF00BF37
:103C9C000837BD4680BD00BF080900200909002077
:103CAC000805002080B483B000AF0346FB710B46BF
:103CBC00BB7113467B7197F90730002B43DBBB7943
:103CCC003F2B40D87B79002B1DD1BB79DB08D8B2B8
:103CDC000246FB791E49D2010A4413441B785AB29E
:103CEC00BB7903F00703012101FA03F35BB2134321
:103CFC0059B20246FB79C8B21549D2010A441344A1
:103D0C0002461A7020E0BB79DB08D8B20246FB7978
:103D1C000F49D2010A4413441B785AB2BB7903F001
:103D2C000703012101FA03F35BB2DB435BB21340DF
:103D3C0059B20246FB79C8B20549D2010A44134470
:103D4C0002461A7000E000BF0C37BD4680BC7047BD
:103D5C000805002090B482B000AF04460846114616
:103D6C001A462346FB710346BB710B467B71134607
:103D7C003B71FB79072B5FD897F90630002B5BDB87
:103D8C003B7D002B02D07B79DB437B713B7C013389
:103D9C00FF2202FA03F35AB297F9053013435AB2D1
:103DAC003B79C3F10803FF2141FA03F35BB21343E0
:103DBC005BB2DAB2234B1A70FA79BB792249D20181
:103DCC000A44134418781F4B1978FA79BB790140CF
:103DDC00C8B21D49D2010A44134402461A703B7CF6
:103DEC000133FF2202FA03F35BB2DB435AB297F9B9
:103DFC00053013405AB23B79C3F108036FF0FF0151
:103E0C0041FA03F35BB213405BB2DAB20D4B1A709A
:103E1C00FA79BB790C49D2010A4413441878094B3E
:103E2C001978FA79BB790143C8B20749D2010A441F
:103E3C00134402461A7000E000BF0837BD4690BC20
:103E4C00704700BF8909002008050020B0B586B076
:103E5C0002AF0446084611461A462346FB71034638
:103E6C00BB710B467B7113463B71BB79DB08FB7353
:103E7C00BB7903F00703BB73BA7B3B791344082B64
:103E8C0029DD7A79BB7B02FA03F3DAB2BC7BF979D0
:103E9C00F87B97F820300193072300932346FFF714
:103EAC0059FFFB7B0133D8B27A79BB7BC3F1080392
:103EBC0042FA03F3DCB23A79BB7B1344DBB2093B25
:103ECC00DBB2F97997F82020019200930023224667
:103EDC00FFF740FF15E07A79BB7B02FA03F3DCB203
:103EEC00BA7B3B791344DBB2013BDBB2BD7BF97986
:103EFC00F87B97F82020019200932B462246FFF77F
:103F0C0029FF00BF1037BD46B0BD90B587B002AFDA
:103F1C000446084611461A462346FB710346BB71FC
:103F2C000B467B7113463B71BB79DB08FB73BB798A
:103F3C0003F00703BB737A79BB7B02FA03F3DAB2A3
:103F4C00BC7BF979F87B3B790193072300932346DB
:103F5C00FFF700FFBB7B002B14D0FB7B0133D8B2E7
:103F6C007A79BB7BC3F1080342FA03F3DCB2BB7B67
:103F7C00013BDBB2F9793A79019200930023224696
:103F8C00FFF7E8FE00BF1437BD4690BD90B587B073
:103F9C0002AF3A601A460346FB710B46BB711346DF
:103FAC007B7197F82030DB083B7397F8203003F0D7
:103FBC000703FB720023FB7325E00023BB731BE09C
:103FCC00FA79FB7B1344D8B2BB7BDB00DAB2BB794A
:103FDC001344DCB2FA7BBB7B797901FB03F313440A
:103FEC001A463B6813441A7897F824302146FFF799
:103FFC008CFFBB7B0133BB73BA7B3B7B9A42DFD319
:10400C00FB7B0133FB73FA7B7B799A42D5D3FB7A2A
:10401C00002B28D07B799BB23A7B92B202FB03F344
:10402C003B8100237B731AE0FA797B7B1344D8B273
:10403C003B7BDB00DAB2BB791344D9B23A897B7B88
:10404C0013441A463B6813441A78FC7A97F82430C8
:10405C0000932346FFF7FAFE7B7B01337B737A7B5D
:10406C007B799A42E0D300BF1437BD4690BD000067
:10407C0090B587B000AF0446084611461A46234651
:10408C00FB710346BB710B467B7113463B71FA798E
:10409C007B799A421DD1BA793B799A4207D9694A00
:1040AC00BB7913703B79BB71664B1B783B71BB7949
:1040BC00FB7509E097F82820F97DFB791846FFF786
:1040CC00F1FDFB7D0133FB75FA7D3B799A42F1D909
:1040DC00B4E0BA793B799A421DD1FA797B799A424C
:1040EC0007D9584AFB7913707B79FB71554B1B78B8
:1040FC007B71FB79BB7509E097F82820B979BB7DFA
:10410C001846FFF7CFFDBB7D0133BB75BA7D7B79BC
:10411C009A42F1D992E07B799AB2FB799BB2D31A8D
:10412C009BB2FB813B799AB2BB799BB2D31A9BB2FF
:10413C00BB81B7F90E30002B01DD012301E04FF0FC
:10414C00FF337B81B7F90C30002B01DD012301E03B
:10415C004FF0FF333B81FB79BB82BB797B82002321
:10416C003B82B7F90E30002BB8BF5B429BB2FB8190
:10417C00B7F90C30002BB8BF5B429BB2BB81B7F9CF
:10418C000E20B7F90C309A422CDDFB79BB8223E070
:10419C00BB8ADBB27A8AD1B297F828201846FFF78F
:1041AC0081FD3A8ABB8913449BB23B82B7F910302C
:1041BC005A00B7F90E309A4209DB7A8A3B891344CC
:1041CC009BB27B823A8AFB89D31A9BB23B82BA8A16
:1041DC007B8913449BB2BB82B7F914207B799A423A
:1041EC00D6D12BE0BB797B8223E0BB8ADBB27A8A07
:1041FC00D1B297F828201846FFF754FD3A8AFB896C
:10420C0013449BB23B82B7F910305A00B7F90C300B
:10421C009A4209DBBA8A7B8913449BB2BB823A8AE5
:10422C00BB89D31A9BB23B827A8A3B8913449BB2DB
:10423C007B82B7F912203B799A42D6D100BF1C374A
:10424C00BD4690BD8A09002090B585B002AF0446EA
:10425C00084611461A462346FB710346BB710B46B2
:10426C007B7113463B71FA797B791344DAB2BC79D2
:10427C00B979F8793B7E00932346FFF7F9FEBA79BA
:10428C003B791344D9B2FA797B791344DCB2BA790D
:10429C003B791344DAB2F8793B7E009313462246FD
:1042AC00FFF7E6FEBA793B791344DCB2FA79B979B7
:1042BC00F8793B7E00932346FFF7DAFEFA797B7997
:1042CC001344D8B2FA797B791344DCB2BA793B79CE
:1042DC001344DAB2B9793B7E009313462246FFF7BA
:1042EC00C7FE00BF0C37BD4690BD90B587B002AF7E
:1042FC000446084611461A462346FB710346BB7119
:10430C000B467B7113463B710023FB7316E0BA79A5
:10431C00FB7B1344D9B2FA797B791344DCB2BA79BA
:10432C00FB7B1344DAB2F87997F8203000931346EC
:10433C002246FFF79DFEFB7B0133FB73FA7B3B7937
:10434C009A42E4D300BF00BF1437BD4690BD90B570
:10435C0085B000AF0446084611461A462346FB7149
:10436C000346BB710B467B7113463B710023FB81EB
:10437C007B79BB817B799BB25B009BB2C3F103035E
:10438C009BB27B81B3E0BB89DBB2FA79D31AD8B28A
:10439C00FB89DBB2BA79D31ADBB23A791946FFF74B
:1043AC0081FCBB89DAB2FB791344D8B2FB89DBB24E
:1043BC00BA79D31ADBB23A791946FFF773FCFB8949
:1043CC00DBB2FA79D31AD8B2BB89DAB2BB7913440F
:1043DC00DBB23A791946FFF765FCBB89DBB2FA7997
:1043EC00D31AD8B2FB89DBB2BA79D31ADBB23A79D9
:1043FC001946FFF757FCFB89DBB2FA79D31AD8B20E
:10440C00BB89DBB2BA79D31ADBB23A791946FFF71A
:10441C0049FCBB89DAB2FB791344D8B2FB89DAB216
:10442C00BB791344DBB23A791946FFF73BFCFB89A5
:10443C00DAB2FB791344D8B2BB89DBB2BA79D31A9E
:10444C00DBB23A791946FFF72DFCFB89DAB2FB791E
:10445C001344D8B2BB89DAB2BB791344DBB23A79D4
:10446C001946FFF71FFCBB89DBB2FA79D31AD8B215
:10447C00FB89DAB2BB791344DBB23A791946FFF700
:10448C0011FCB7F90E309BB201339BB2FB81B7F92B
:10449C000A30002B09DAFB899B009AB27B89134402
:1044AC009BB206339BB27B8113E0B7F90E20B7F9B0
:1044BC000C30D31A9BB29B009AB27B8913449BB2EB
:1044CC000A339BB27B81B7F90C309BB2013B9BB298
:1044DC00BB81FB89DAB2FB791344D8B2BB89DAB25F
:1044EC00BB791344DBB23A791946FFF7DBFBB7F91A
:1044FC000E20B7F90C309A427FF745AF00BF00BFD2
:10450C001437BD4690BDB0B584B002AF3A601A46C0
:10451C000346FB710B46BB7113467B713B685C68B1
:10452C003B681D783B685B78B979F8797A790192A8
:10453C0000932B462246FFF729FD00BF0837BD46E6
:10454C00B0BDB0B584B002AF3B600346FB710B4607
:10455C00BB7113467B713B685A687B79A3F12001D0
:10456C003B681B780733002B00DA0733DB10184647
:10457C003B685B7800FB03F301FB03F3D4183B6847
:10458C005D783B681B78B979F8793A7E0192009393
:10459C002B462246FFF7FAFC00BF0837BD46B0BDDC
:1045AC00B0B584B002AF3B600346FB710B46BB71E8
:1045BC0013467B71BA793B7E1344DCB23B685A6874
:1045CC007B79A3F120013B681B780733002B00DAC1
:1045DC000733DB1018463B685B7800FB03F301FBE9
:1045EC0003F3D1183B685D783B681A783B7ED31A8D
:1045FC00DBB2F8793A7F019200932B460A462146AA
:10460C00FFF7C4FC00BF0837BD46B0BDB0B584B0E1
:10461C0002AF3B600346FB710B46BB7113467B71CB
:10462C00BA793B7ED31ADAB23B7F1344DCB23B68D7
:10463C005A687B79A3F120013B681B780733002B68
:10464C0000DA0733DB1018463B685B7800FB03F39A
:10465C0001FB03F3D1183B685D783B681B78F87954
:10466C0097F82020019200932B460A462146FFF72B
:10467C008DFC00BF0837BD46B0BD80B588B002AF19
:10468C00BA607B600346FB730B46BB73FB7BFB750D
:10469C0011E0BB681A78B97BF87D97F8203000934D
:1046AC007B68FFF74EFF7B685A78FB7D1344FB75E4
:1046BC00BB680133BB60BB681B78002BE9D100BF22
:1046CC0000BF1837BD4680BD80B588B002AFBA6058
:1046DC007B600346FB730B46BB73FB7BFB7514E0E3
:1046EC00BB681A78B97BF87D97F82430019397F85A
:1046FC00203000937B68FFF753FF7B685A78FB7D73
:10470C001344FB75BB680133BB60BB681B78002B83
:10471C00E6D100BF00BF1837BD4680BD80B58AB05A
:10472C0004AFBA607B600346FB730B46BB73FB7B29
:10473C00FB7517E0BB681A78B97BF87D97F82830C1
:10474C00029397F82430019397F8203000937B68FC
:10475C00FFF75CFF7B685A78FB7D1344FB75BB68E5
:10476C000133BB60BB681B78002BE3D100BF00BFDB
:10477C001837BD4680BD80B483B000AF78607B68CD
:10478C001B785BB2002B01DB012318E07B681B78E4
:10479C0003F0E003C02B01D1022310E07B681B78EF
:1047AC0003F0F003E02B01D1032308E07B681B78B6
:1047BC0003F0F803F02B01D1042300E0002318468A
:1047CC000C37BD4680BC7047B0B58AB002AFBA603A
:1047DC007B600346FB730B46BB730023FB837B6838
:1047EC001B780733002B00DA0733DB10DBB27A6857
:1047FC00527802FB03F3DBB20433FB767DE000233B
:10480C007B77FB8BBA6813441846FFF7B4FF03465B
:10481C00BB76BB7E002B78D000233B7732E07B68E5
:10482C005B683A7FF97E01FB02F213447B61FB8BE0
:10483C00BA681344BA7E7969184603F09AFA0346AB
:10484C00002B1CD17B691C1D7B685D787B681B78F9
:10485C00B97BF87B97F83020019200932B462246C7
:10486C00FFF794FB7B685A78FB7B1344FB73BB7E8E
:10487C009AB2FB8B1344FB8301237B7707E03B7FCE
:10488C0001333B777B681B7A3A7F9A42C7D37B7F95
:10489C00002B32D1BB7E012B19D1FB8BBA68134490
:1048AC001A787B68DC68B97BF87B97F8303000931A
:1048BC002346FFF746FE7B68DB685A78FB7B134484
:1048CC00FB73BB7E9AB2FB8B1344FB8315E07B68B6
:1048DC00DA68B97BF87B97F83030009313462022C6
:1048EC00FFF72FFE7B68DB685A78FB7B1344FB7366
:1048FC00BB7E9AB2FB8B1344FB83FB8BBA681344CD
:10490C001B78002B7FF47BAF00E000BF00BF20378B
:10491C00BD46B0BD80B483B000AF03460A46FB80F1
:10492C001346BB80B7F90630002B35DBB7F90630E0
:10493C007F2B31DCB7F90430002B2DDBB7F90430B9
:10494C003F2B29DCB7F90430002B00DA0733DB10DE
:10495C0018B20246B7F906301249D2010A44134480
:10496C001B785AB2B7F90430594203F0070301F02F
:10497C00070158BF4B421BB2194601238B405BB257
:10498C00134359B20246B7F90630C8B20549D201F1
:10499C000A44134402461A7000BF0C37BD4680BC53
:1049AC00704700BF0805002080B500AF084B1B689E
:1049BC00074A43F010031360032000F047F900206E
:1049CC0000F008F8FEF7B8FD0023184680BD00BFC4
:1049DC000020024080B582B000AF7860124B1A689C
:1049EC00124B1B7819464FF47A73B3FBF1F3B2FBFD
:1049FC00F3F3184600F05FF90346002B01D00123B6
:104A0C000EE07B680F2B0AD8002279684FF0FF303C
:104A1C0000F027F9064A7B681360002300E00123AD
:104A2C0018460837BD4680BDF40200200403002060
:104A3C000003002080B400AF054B1B781A46054BD1
:104A4C001B681344034A136000BFBD4680BC70470B
:104A5C00040300208C09002080B400AF024B1B68BB
:104A6C001846BD4680BC70478C09002080B584B0C8
:104A7C0000AF7860FFF7F0FFB8607B68FB60FB6805
:104A8C00B3F1FF3F05D00A4B1B781A46FB68134461
:104A9C00FB6000BFFFF7E0FF0246BB68D31AFA6861
:104AAC009A42F7D800BF00BF1037BD4680BD00BF8B
:104ABC000403002080B485B000AF78607B6803F0FD
:104ACC000703FB600C4BDB68BB60BA684FF6FF0357
:104ADC001340BB60FB681A02BB68134343F0BF630F
:104AEC0043F40033BB60044ABB68D36000BF143787
:104AFC00BD4680BC704700BF00ED00E080B400AF45
:104B0C00044BDB681B0A03F007031846BD4680BC48
:104B1C00704700BF00ED00E080B483B000AF0346E7
:104B2C00FB7197F90730002B0BDBFB7903F01F02AD
:104B3C00064997F907305B09012000FA02F241F8A7
:104B4C00232000BF0C37BD4680BC704700E100E05D
:104B5C0080B483B000AF03463960FB7197F907301E
:104B6C00002B0ADB3B68DAB20C4997F907301201CB
:104B7C00D2B20B4483F800230AE03B68DAB208494E
:104B8C00FB7903F00F03043B1201D2B20B441A76EB
:104B9C0000BF0C37BD4680BC704700BF00E100E091
:104BAC0000ED00E080B489B000AFF860B9607A60C5
:104BBC00FB6803F00703FB61FB69C3F10703042BDC
:104BCC0028BF0423BB61FB690433062B02D9FB69A4
:104BDC00033B00E000237B614FF0FF32BB6902FA1C
:104BEC0003F3DA43BB681A407B699A404FF0FF31FC
:104BFC007B6901FA03F3D9437B680B4013431846D6
:104C0C002437BD4680BC704780B582B000AF786059
:104C1C007B68013BB3F1807F01D301230FE00A4A8B
:104C2C007B68013B53600F214FF0FF30FFF790FF83
:104C3C00054B00229A60044B07221A600023184689
:104C4C000837BD4680BD00BF10E000E080B582B0E3
:104C5C0000AF78607868FFF72DFF00BF0837BD46BE
:104C6C0080BD80B586B000AF0346B9607A60FB7337
:104C7C0000237B61FFF742FF78617A68B968786935
:104C8C00FFF790FF024697F90F3011461846FFF7D1
:104C9C005FFF00BF1837BD4680BD80B582B000AF46
:104CAC000346FB7197F907301846FFF735FF00BF35
:104CBC000837BD4680BD80B582B000AF786078689B
:104CCC00FFF7A2FF034618460837BD4680BD00001B
:104CDC0080B48BB000AF7860396000237B62002316
:104CEC003B6269E101227B6A02FA03F3FB613B68D8
:104CFC001B68FA691340BB61BA69FB699A4240F0C0
:104D0C0058813B685B689A4A93425ED0984A9342BA
:104D1C0075D8984A934258D0964A93426FD8964A7F
:104D2C00934252D0944A934269D8944A93424CD0BD
:104D3C00924A934263D8924A934246D0904A934205
:104D4C005DD8122B2AD8122B59D801A252F823F075
:104D5C00D74D0008B14D0008C34D0008054E0008A2
:104D6C000B4E00080B4E00080B4E00080B4E0008B3
:104D7C000B4E00080B4E00080B4E00080B4E0008A3
:104D8C000B4E00080B4E00080B4E00080B4E000893
:104D9C000B4E0008B94D0008CD4D0008794A9342DE
:104DAC0013D02CE03B68DB683B6229E03B68DB6896
:104DBC0004333B6224E03B68DB6808333B621FE052
:104DCC003B68DB680C333B621AE03B689B68002B4A
:104DDC0002D104233B6213E03B689B68012B05D195
:104DEC0008233B627B68FA691A6109E008233B627D
:104DFC007B68FA695A6103E000233B6200E000BF64
:104E0C00BB69FF2B01D87B6801E07B6804337B61B5
:104E1C00BB69FF2B02D87B6A9B0002E07B6A083BD4
:104E2C009B003B617B691A680F213B6901FA03F314
:104E3C00DB431A40396A3B6901FA03F31A437B6975
:104E4C001A603B685B6803F08053002B00F0B18064
:104E5C004D4B9B694C4A43F0010393614A4B9B6950
:104E6C0003F00103BB60BB68484A7B6A9B080233B2
:104E7C0052F82330FB607B6A03F003039B000F2284
:104E8C0002FA03F3DB43FA681340FB607B68404A89
:104E9C00934213D07B683F4A93420DD07B683E4AC5
:104EAC00934207D07B683D4A934201D1032306E02D
:104EBC00042304E0022302E0012300E000237A6AC9
:104ECC0002F0030292009340FA681343FB602F49EF
:104EDC007B6A9B080233FA6841F823203B685B68C5
:104EEC0003F48033002B06D02D4B1A682C49BB6978
:104EFC0013430B6006E02A4B1A68BB69DB43284955
:104F0C0013400B603B685B6803F40033002B06D046
:104F1C00234B5A682249BB6913434B6006E0204B74
:104F2C005A68BB69DB431E4913404B603B685B68A6
:104F3C0003F48013002B06D0194B9A681849BB69EF
:104F4C0013438B6006E0164B9A68BB69DB4314492C
:104F5C0013408B603B685B6803F40013002B21D07B
:104F6C000F4BDA680E49BB691343CB6021E000BFDD
:104F7C00000032100000311000002210000021103F
:104F8C00000012100000111000100240000001403F
:104F9C0000080140000C01400010014000140140C9
:104FAC00000401400B4BDA68BB69DB430949134031
:104FBC00CB607B6A01337B623B681A687B6A22FA9E
:104FCC0003F3002B7FF48EAE00BF00BF2C37BD4621
:104FDC0080BC70470004014080B485B000AF78609D
:104FEC000B467B807B689A687B881340002B02D031
:104FFC000123FB7301E00023FB73FB7B1846143782
:10500C00BD4680BC704780B483B000AF78600B465F
:10501C007B8013467B707B78002B03D07A887B686F
:10502C001A6103E07B881A047B681A6100BF0C3795
:10503C00BD4680BC7047000080B584B000AF78607E
:10504C007B68002B01D101232BE17B6893F83D3069
:10505C00DBB2002B06D17B68002283F83C207868F9
:10506C00FEF706F87B68242283F83D207B681B68DA
:10507C001A687B681B6822F001021A607B681B6847
:10508C001A687B681B6842F400421A607B681B68D4
:10509C001A687B681B6822F400421A6001F016FD46
:1050AC00F8607B685B68814A934207D8FB68804A4A
:1050BC00934294BF01230023DBB206E0FB687D4AD8
:1050CC00934294BF01230023DBB2002B01D00123B8
:1050DC00E7E0FB68784AA2FB03239B0CBB607B6870
:1050EC001B685B6823F03F017B681B68BA680A4346
:1050FC005A607B681B681B6A23F03F017B685B6806
:10510C006A4A934202D8BB68013309E0BB684FF48A
:10511C00967202FB03F3694AA2FB03239B0901333A
:10512C007A6812680B4313627B681B68DB6923F493
:10513C004F4222F0FF027B685B685C498B4219D8B6
:10514C00FB68591E7B685B685B00B1FBF3F3591C71
:10515C0040F6FC730B40002B0AD0FB68591E7B6891
:10516C005B685B00B1FBF3F30133C3F30B0351E05A
:10517C0004234FE07B689B68002B11D1FB68581E01
:10518C007B6859680B465B000B44B0FBF3F30133AF
:10519C00C3F30B03002B0CBF01230023DBB212E083
:1051AC00FB68581E7B6859680B469B000B449900A2
:1051BC000B44B0FBF3F30133C3F30B03002B0CBF15
:1051CC0001230023DBB2002B01D0012322E07B68FA
:1051DC009B68002B0ED1FB68581E7B6859680B46E8
:1051EC005B000B44B0FBF3F30133C3F30B0343F449
:1051FC0000430FE0FB68581E7B6859680B469B0008
:10520C000B4499000B44B0FBF3F30133C3F30B03D2
:10521C0043F44043796809681343CB617B681B688E
:10522C001B6823F0C0017B68DA697B681B6A1A4330
:10523C007B681B680A431A607B681B689B6823F4B5
:10524C00034323F0FF037A6811697A68D26811432B
:10525C007A6812680B4393607B681B68DB6823F0E9
:10526C00FF017B685A697B689B691A437B681B68E2
:10527C000A43DA607B681B681A687B681B6842F01B
:10528C0001021A607B6800221A647B68202283F872
:10529C003D207B6800221A637B68002283F83E2045
:1052AC00002318461037BD4680BD00BFA086010004
:1052BC007F841E00FF083D0083DE1B43D34D62102C
:1052CC0080B588B002AFF8607A601A460B467B81D5
:1052DC0013463B81FFF7C0FB7861FB6893F83D30C8
:1052EC00DBB2202B40F0E0807B6900931923012274
:1052FC007049F86800F022FE0346002B01D002230F
:10530C00D3E0FB6893F83C30012B01D10223CCE0B5
:10531C00FB68012283F83C20FB681B681B6803F0C8
:10532C000103012B07D0FB681B681A68FB681B681C
:10533C0042F001021A60FB681B681A68FB681B6864
:10534C0022F400621A60FB68212283F83D20FB687E
:10535C00102283F83E20FB6800221A64FB687A68EE
:10536C005A62FB683A895A85FB685B8D9AB2FB6876
:10537C001A85FB68504ADA6279897B693A6AF8685F
:10538C0000F0F6FB0346002B01D001238DE0002337
:10539C003B61FB681B685B693B61FB681B689B6935
:1053AC003B613B6966E07A69396AF86800F09CFEFB
:1053BC000346002B0DD0FB681B6C042B07D1FB683C
:1053CC001B681A68FB681B6842F400721A600123A0
:1053DC006BE0FB685B6A1A78FB681B681A61FB68F8
:1053EC005B6A5A1CFB685A62FB685B8D9BB2013B83
:1053FC009AB2FB685A85FB681B8D013B9AB2FB681D
:10540C001A85FB681B685B6903F00403042B1BD132
:10541C00FB681B8D002B17D0FB685B6A1A78FB6846
:10542C001B681A61FB685B6A5A1CFB685A62FB6852
:10543C005B8D9BB2013B9AB2FB685A85FB681B8D56
:10544C00013B9AB2FB681A857A69396AF86800F0F0
:10545C008CFE0346002B0DD0FB681B6C042B07D174
:10546C00FB681B681A68FB681B6842F400721A60C0
:10547C0001231AE0FB681B8D002B94D1FB681B6881
:10548C001A68FB681B6842F400721A60FB682022E1
:10549C0083F83D20FB68002283F83E20FB68002245
:1054AC0083F83C20002300E0022318461837BD4641
:1054BC0080BD00BF020010000000FFFF80B58CB063
:1054CC0002AFF8607A601A460B467B8113463B812B
:1054DC0000233B62FFF7C0FA7862FB6893F83D301B
:1054EC00DBB2202B40F03F827B6A00931923012210
:1054FC007F49F86800F022FD0346002B01D00223FF
:10550C0032E2FB6893F83C30012B01D102232BE2F1
:10551C00FB68012283F83C20FB681B681B6803F0C6
:10552C000103012B07D0FB681B681A68FB681B681A
:10553C0042F001021A60FB681B681A68FB681B6862
:10554C0022F400621A60FB68222283F83D20FB687B
:10555C00102283F83E20FB6800221A64FB687A68EC
:10556C005A62FB683A895A85FB685B8D9AB2FB6874
:10557C001A85FB685F4ADA6279897B6A3A6BF8684C
:10558C0000F078FB0346002B01D00123ECE1FB6813
:10559C001B8D002B13D10023FB61FB681B685B691F
:1055AC00FB61FB681B689B69FB61FB69FB681B6803
:1055BC001A68FB681B6842F400721A60C0E1FB6851
:1055CC001B8D012B1ED1FB681B681A68FB681B68BE
:1055DC0022F480621A6072B600BF0023BB61FB68C4
:1055EC001B685B69BB61FB681B689B69BB61BB6922
:1055FC00FB681B681A68FB681B6842F400721A602F
:10560C0062B635E0FB681B8D022B1ED1FB681B6854
:10561C001A68FB681B6842F400621A6072B600BF1D
:10562C0000237B61FB681B685B697B61FB681B6803
:10563C009B697B617B69FB681B681A68FB681B684C
:10564C0022F480621A6062B612E0FB681B681A686A
:10565C00FB681B6842F480621A6000233B61FB68A4
:10566C001B685B693B61FB681B689B693B613B6921
:10567C0066E1FB681B8D032B00F21F81FB681B8D01
:10568C00012B23D17A6A396BF86800F0AFFD034621
:10569C00002B01D0012367E1FB681B681A69FB68CA
:1056AC005B6AD2B21A70FB685B6A5A1CFB685A625E
:1056BC00FB681B8D013B9AB2FB681A85FB685B8DFE
:1056CC009BB2013B9AB2FB685A8539E1FB681B8D92
:1056DC00022B52D17B6A00933B6B00220649F8687F
:1056EC0000F02CFC0346002B08D001233CE100BF4A
:1056FC00020010000000FFFF0400010072B600BFA2
:10570C00FB681B681A68FB681B6842F400721A601D
:10571C00FB681B681A69FB685B6AD2B21A70FB687B
:10572C005B6A5A1CFB685A62FB681B8D013B9AB280
:10573C00FB681A85FB685B8D9BB2013B9AB2FB68D8
:10574C005A8562B600BFFB681B681A69FB685B6A06
:10575C00D2B21A70FB685B6A5A1CFB685A62FB680F
:10576C001B8D013B9AB2FB681A85FB685B8D9BB263
:10577C00013B9AB2FB685A85E2E07B6A00933B6B73
:10578C0000227B49F86800F0D9FB0346002B01D0BE
:10579C000123E9E0FB681B681A68FB681B6822F4AC
:1057AC0080621A6072B600BFFB681B681A69FB68DE
:1057BC005B6AD2B21A70FB685B6A5A1CFB685A624D
:1057CC00FB681B8D013B9AB2FB681A85FB685B8DED
:1057DC009BB2013B9AB2FB685A85664B1B68DB088F
:1057EC00654AA2FB03231A0A13469B001344DA00F2
:1057FC00D31A3B623B6A013B3B623B6A002B18D1DC
:10580C00FB6800221A63FB68202283F83D20FB68AA
:10581C00002283F83E20FB681B6C43F02002FB68DF
:10582C001A6462B600BFFB68002283F83C20012397
:10583C009AE0FB681B685B6903F00403042BD9D165
:10584C00FB681B681A68FB681B6842F400721A60DC
:10585C00FB681B681A69FB685B6AD2B21A70FB683A
:10586C005B6A5A1CFB685A62FB681B8D013B9AB23F
:10587C00FB681A85FB685B8D9BB2013B9AB2FB6897
:10588C005A8562B600BFFB681B681A69FB685B6AC5
:10589C00D2B21A70FB685B6A5A1CFB685A62FB68CE
:1058AC001B8D013B9AB2FB681A85FB685B8D9BB222
:1058BC00013B9AB2FB685A8542E07A6A396BF86808
:1058CC0000F094FC0346002B01D001234CE0FB6854
:1058DC001B681A69FB685B6AD2B21A70FB685B6A58
:1058EC005A1CFB685A62FB681B8D013B9AB2FB6821
:1058FC001A85FB685B8D9BB2013B9AB2FB685A859B
:10590C00FB681B685B6903F00403042B18D1FB686C
:10591C001B681A69FB685B6AD2B21A70FB685B6A17
:10592C005A1CFB685A62FB681B8D013B9AB2FB68E0
:10593C001A85FB685B8D9BB2013B9AB2FB685A855A
:10594C00FB681B8D002B7FF494AEFB68202283F840
:10595C003D20FB68002283F83E20FB68002283F880
:10596C003C20002300E0022318462837BD4680BDAA
:10597C0004000100F402002089B5F81480B588B049
:10598C0002AFF860084611461A4603467B810B4667
:10599C003B811346FB80FFF75FF87861FB6893F857
:1059AC003D30DBB2202B40F0D9807B69009319236A
:1059BC0001226D49F86800F0C1FA0346002B01D0B2
:1059CC000223CCE0FB6893F83C30012B01D102237D
:1059DC00C5E0FB68012283F83C20FB681B681B6850
:1059EC0003F00103012B07D0FB681B681A68FB68E6
:1059FC001B6842F001021A60FB681B681A68FB689E
:105A0C001B6822F400621A60FB68212283F83D2097
:105A1C00FB68402283F83E20FB6800221A64FB6876
:105A2C003A6A5A62FB68BA8C5A85FB685B8D9AB2EB
:105A3C00FB681A85FB684D4ADA62F8883A897989DD
:105A4C007B690193BB6A00930346F86800F0E0F9A8
:105A5C000346002B52D0012381E07A69B96AF868B9
:105A6C0000F042FB0346002B0DD0FB681B6C042B93
:105A7C0007D1FB681B681A68FB681B6842F400724C
:105A8C001A6001236BE0FB685B6A1A78FB681B6881
:105A9C001A61FB685B6A5A1CFB685A62FB681B8DB7
:105AAC00013B9AB2FB681A85FB685B8D9BB2013B8C
:105ABC009AB2FB685A85FB681B685B6903F00403A8
:105ACC00042B1BD1FB681B8D002B17D0FB685B6A6A
