:020000040800F2
:1000000000500020E524000801240008092400080D
:100010001124000819240008212400080000000011
:10002000000000000000000000000000292400087B
:100030003524000800000000412400084D24000879
:100040002D2500082D2500082D250008592400081D
:100050002D2500082D2500082D2500082D25000838
:100060002D2500082D2500082D2500082D25000828
:100070002D2500082D2500082D2500082D25000818
:100080002D2500082D2500082D2500082D25000808
:100090002D2500082D2500082D2500082D250008F8
:1000A0002D2500082D2500082D2500082D250008E8
:1000B0002D2500082D2500082D2500082D250008D8
:1000C0002D2500082D2500082D2500082D250008C8
:1000D0002D2500082D2500082D2500082D250008B8
:1000E0002D2500082D2500082D2500080000000002
:1000F0000000000000000000000000000000000000
:0C01000000000000000000005FF808F1A3
:10010C0010B5054C237833B9044B13B10448AFF345
:10011C0000800123237010BD680300200000000044
:10012C00A462000808B5034B1BB103490348AFF3A5
:10013C00008008BD000000006C030020A4620008D1
:10014C0080B500AF4FF400410A4803F0C1FB0346F1
:10015C00002B0CD10A2003F005F94FF4004105489F
:10016C0003F0B6FB0346002B01D1012300E0002372
:10017C00184680BD000C014080B500AF02F088F835
:10018C0000BF80BD80B586B002AF3B4600221A602E
:10019C005A601A81FFF7D4FF0346002B03D0FFF7F8
:1001AC00EBFF00237FE000224149424804F0E0FECF
:1001BC00002241493F4805F069F802F0A5FA3C4B92
:1001CC009B7803F00103DBB2002B2DD13B460A22B6
:1001DC000021184605F014FC354B1B781A46344B9D
:1001EC005B783846354905F047FC3A4600230093C6
:1001FC00334B1421032002F013FF3B460A2200214B
:10020C00184605F0FDFB2A4B9B781A463B462D49B8
:10021C00184605F031FC3A46002300932A4B1C216A
:10022C00672002F0FDFE26E0214B1B781A46204B7E
:10023C005B783846254905F01FFC3A4600230093AD
:10024C001F4B1421032002F0EBFE3B460A22002137
:10025C00184605F0D5FB164B9B781A463B461949B8
:10026C00184605F009FC3A4600230093164B1C2156
:10027C00672002F0D5FE02F053FA0023FB600EE07B
:10028C00FFF75EFF0346002B03D0FFF775FF00233B
:10029C0009E0642003F066F8FB680133FB60FB683F
:1002AC00092BEDDD76E718461037BD4680BD00BF43
:1002BC0008090020600400200C090020BC62000822
:1002CC00D8780008C86200081C7B0008D0620008BF
:1002DC0080B582B002AF02F017FA002300930E4BE8
:1002EC000E4A0821002002F0EBFE002300930A4B7B
:1002FC000B4A2B21002002F0E3FE02F011FA00BFA2
:10030C004FF40041074803F0E3FA0346002BF7D102
:10031C0000BFBD4680BD00BFE4810008DC62000860
:10032C00F0620008000C014080B584B002AF0023DD
:10033C007B600123FB7002F0E7F90023854A002162
:10034C00002002F020FE00230093834B834A0021FF
:10035C000A2002F0B5FE002300937F4B804A102147
:10036C000A2002F0ADFE02F0DBF902F0DBF80346E6
:10037C00DAB27C4B1A707B4B1B78012B07D1FB78C4
:10038C00013BFB70FB78002B01D10323FB70754BF9
:10039C001B78022B07D1FB780133FB70FB78042B05
:1003AC0001D10123FB706F4B1B78032B05D102F09D
:1003BC00ABF902F0B5F9FB787B606A4B1B78042B28
:1003CC0001D10023C2E07B68012B0AD100F038FA7E
:1003DC0000F058FB00237B604FF4967002F0C2FFD4
:1003EC0016E07B68022B08D101F07AF800237B60C1
:1003FC004FF4967002F0B6FF0AE07B68032B07D12E
:10040C0000F0C6FD00237B604FF4967002F0AAFF4B
:10041C00FB78013B032B00F2978001A252F823F0EA
:10042C003D04000883040008C90400080F050008F7
:10043C0002F06AF90023474A0021002002F0A3FDD4
:10044C0000230093444B484A00210A2002F038FE56
:10045C0000230093404B454A10210A2002F030FE45
:10046C00002300933C4B424A20210A2002F028FE34
:10047C0002F056F969E002F047F90023354A1021E1
:10048C00002002F080FD00230093334B364A0021FC
:10049C000A2002F015FE002300932F4B334A102143
:1004AC000A2002F00DFE002300932B4B304A202132
:1004BC000A2002F005FE02F033F946E002F024F9BE
:1004CC000023244A2021002002F05DFD002300932C
:1004DC00214B254A00210A2002F0F2FD0023009353
:1004EC001D4B224A10210A2002F0EAFD0023009342
:1004FC00194B1F4A20210A2002F0E2FD02F010F9EC
:10050C0023E002F001F90023124A3021002002F00E
:10051C003AFD00230093104B134A00210A2002F0ED
:10052C00CFFD002300930C4B104A10210A2002F03F
:10053C00C7FD00230093084B0D4A20210A2002F02E
:10054C00BFFD02F0EDF800E000BF0EE718460837DB
:10055C00BD4680BDF4020020E4810008FC62000866
:10056C000C6300088403002020630008306300083B
:10057C004063000880B584B002AF0123FB7102F028
:10058C00C3F80023A54A0021002002F0FCFC002344
:10059C000093A34BA34A00210A2002F091FD0023F3
:1005AC0000939F4BA04A10210A2002F089FD0023E2
:1005BC0000939B4B9D4A20210A2002F081FD0023D1
:1005CC000093974B9A4A30210A2002F079FD02F0F1
:1005DC00A7F801F0A7FF0346DAB2964B1A70954BB9
:1005EC001B78012B07D1FB79013BFB71FB79002BAD
:1005FC0001D10623FB718F4B1B78022B07D1FB79A2
:10060C000133FB71FB79072B01D10123FB71894B62
:10061C001B78032B05D102F077F802F081F8FB79F7
:10062C00F8E0FB79013B052B00F2F28001A252F8B5
:10063C0023F000BF59060008AF06000805070008A4
:10064C005B070008B1070008E707000802F05CF838
:10065C000023724A0021002002F095FC0023009335
:10066C006F4B704A00210A2002F02AFD00230093F0
:10067C006B4B6D4A10210A2002F022FD00230093DF
:10068C00674B6A4A20210A2002F01AFD00230093CE
:10069C00634B674A30210A2002F012FD02F040F849
:1006AC00B7E002F031F800235C4A1021002002F080
:1006BC006AFC002300935A4B5A4A00210A2002F08C
:1006CC00FFFC00230093564B574A10210A2002F0DE
:1006DC00F7FC00230093524B544A20210A2002F0CD
:1006EC00EFFC002300934E4B514A30210A2002F0BC
:1006FC00E7FC02F015F88CE002F006F80023474AFC
:10070C002021002002F03FFC00230093444B454A7B
:10071C0000210A2002F0D4FC00230093404B424AF3
:10072C0010210A2002F0CCFC002300933C4B3F4AE2
:10073C0020210A2002F0C4FC00230093384B3C4AD1
:10074C0030210A2002F0BCFC01F0EAFF61E001F06C
:10075C00DBFF0023314A3021002002F014FC00237F
:10076C0000932F4B2F4A00210A2002F0A9FC0023F2
:10077C0000932B4B2C4A10210A2002F0A1FC0023E1
:10078C000093274B294A20210A2002F099FC0023D0
:10079C000093234B264A30210A2002F091FC01F0F1
:1007AC00BFFF36E001F0B0FF00231C4A00210020FF
:1007BC0002F0E9FB00230093194B1F4A00210A2089
:1007CC0002F07EFC00230093154B1C4A10210A20DA
:1007DC0002F076FC01F0A4FF1BE001F095FF002372
:1007EC000E4A1021002002F0CEFB002300930C4B8C
:1007FC00114A00210A2002F063FC00230093084BED
:10080C000E4A10210A2002F05BFC01F089FF00E087
:10081C0000BFDEE618460837BD4680BDF402002056
:10082C00E481000850630008586300086063000806
:10083C0070630008840300207C6300088463000854
:10084C0080B584B002AF01237B6001F05DFF002313
:10085C00124A27210A2002F096FB4FF4004110485F
:10086C0003F036F80346002B11D07B68DAB2002374
:10087C0000933F233F21002002F06CF901F050FF60
:10088C007B6804337B607B687F2B02DCE5E700BF71
:10089C0000E000BF0837BD4680BD00BF686500089A
:1008AC00000C014080B582B000AF03463960FB807C
:1008BC003B68002B07D1FB88D9B20023154A0A20CC
:1008CC0002F061FB21E03B68012B07D1FB88D9B218
:1008DC000023114A0A2002F056FB16E03B68B3F1E4
:1008EC00FF3F07D1FB88D9B200230C4A0A2002F043
:1008FC004AFB0AE03B6813F1020F06D1FB88D9B220
:10090C000023074A0A2002F03EFB00BF0837BD4611
:10091C0080BD00BFD8640008206500086865000829
:10092C009064000880B582B000AF03463960FB804C
:10093C00B7F906203B681B78C3F17F039A420BDCA6
:10094C00FB88D8B23B685B78C3F13F03D9B2002374
:10095C003A6802F018FB00E000BF0837BD4680BDC6
:10096C0080B584B002AF78600B46FB7097F903300A
:10097C00002B15D17A681849184805F07DF800232A
:10098C000093174B174A0321482002F099FB0023D0
:10099C000093134B114A0321662002F091FB16E0E1
:1009AC00114B1B681A460C490C4805F065F80023DE
:1009BC0000930B4B0D4A16213C2002F081FB0023C7
:1009CC000093074B054A1621662002F079FB00BF05
:1009DC000837BD4680BD00BFAC6300088C03002007
:1009EC00B4830008B063000888030020BC630008CF
:1009FC0080B586B002AFBA607B600346FB810B46C4
:100A0C00BB81B7F918306FF001011846FFF74AFFA8
:100A1C00B7F90E30396A1846FFF784FFB7F90C3076
:100A2C00796A1846FFF77EFF002300933F237F224D
:100A3C003F21002002F08EF80021B868FFF790FFEC
:100A4C000D4B1B68BA689A420BDD0B4ABB681360EE
:100A5C0000230093094B0A4A16214B2002F030FB6D
:100A6C0003E00121B868FFF77BFF01F059FE00BFDE
:100A7C001037BD4680BD00BF88030020B48300083A
:100A8C00CC63000880B58EB004AFFC233B8140F2F0
:100A9C007D13FB803B89C8339BB2FB84FB88C83336
:100AAC009BB2BB8402F054FC034603F00703002BFB
:100ABC0001D0AE4B00E0AE4B3B6202F049FC01466C
:100ACC00AC4BA3FB01239A0813469B001344CA1A90
:100ADC00002A01D0A54B00E0A54BFB6115230A337E
:100AEC009BB2BB8027237B8300237B6100233B616C
:100AFC000023FB600023FB7201F006FE4FF48051D3
:100B0C009D4802F0E5FE0346002B0FD04FF4005138
:100B1C00994802F0DDFE0346002B07D04FF48041CC
:100B2C00954802F0D5FE0346002B05D17B69002BBE
:100B3C000BD101237B6108E04FF400418E4802F099
:100B4C00C7FE0346002B00F04F81B7F92620B7F9FA
:100B5C0004107B69052BA8BF0523CB1A9A4229DC0C
:100B6C00B7F926300B2B25DDB7F91A3017221A44AA
:100B7C003B6A5B78C3F13F039A421BDBB7F9241045
:100B8C00B7F92600FB6903933B6A0293B7F904306B
:100B9C000193B7F91A3000937B69FA68FFF728FFC5
:100BAC0000BF4FF40041744802F092FE0346002B44
:100BBC00F7D11AE1B7F92420B7F904107B69052B9A
:100BCC00A8BF0523CB1A9A4229DCB7F924300B2B8A
:100BDC0025DDB7F91A3017221A44FB695B78C3F18B
:100BEC003F039A421BDBB7F92610B7F92400FB69C7
:100BFC0003933B6A0293B7F904300193B7F91A30A7
:100C0C0000937B69FA68FFF7F3FE00BF4FF40041D5
:100C1C00594802F05DFE0346002BF7D1E5E07B69F5
:100C2C00002B0FDD7B69013B544AD35CC3F12703D6
:100C3C009BB27B837B6901337B617B69262B01DD56
:100C4C0000237B613B6901333B613B694C4A82FB6E
:100C5C0003125210DB17D31AFB600021F868FFF760
:100C6C007FFE7B69002B07D0B7F91A304FF0FF31AC
:100C7C001846FFF717FE17E097F90B30042BCCBF83
:100C8C0001230023DBB21A46B7F91A301146184675
:100C9C00FFF708FEFB7A0133DBB2FB7297F90B30DE
:100CAC00092B01DD0023FB72B7F92630396A18468F
:100CBC00FFF738FEB7F92430F9691846FFF732FE12
:100CCC00002300933F237F223F21002001F042FFAD
:100CDC00FB8C023B9BB2FB84BB8C023B9BB2BB8468
:100CEC00B7F92630002B1FDC02F032FB0346214AF9
:100CFC00A2FB0323D9081F4BA3FB01231A0913469C
:100D0C009B0013449B00CA1A92B23B8913449BB2BA
:100D1C00FB8402F01DFB034603F00303002B01D000
:100D2C00124B00E0124B3B62B7F92430002B2BDC4A
:100D3C0002F00EFB03460F4AA2FB0323D9080D4B0E
:100D4C00A3FB01231A0913469B0013449B00CA1AE8
:100D5C0092B2FB8813449BB2BB8402F0F9FA0346AF
:100D6C0003F00103002B0DD0004B0CE07C65000858
:100D7C00A8650008CDCCCCCC000C0140B0650008B7
:100D8C00676666661A4BFB61FA8CBB8CD31A9BB2F6
:100D9C001AB2184B1A80174BB3F90030002B0DDD2B
:100DAC00144BB3F900302E2B08DCFA8C114BB3F931
:100DBC0000309BB213449BB2FB8412E00D4BB3F991
:100DCC000030002B0DDA0B4BB3F9003013F12E0F62
:100DDC0007DBBA8C074BB3F900309BB213449BB2C0
:100DEC00BB8401F09DFC87E600BF2837BD4680BD63
:100DFC00A86500089C03002080B500AF4FF480412B
:100E0C00054802F065FD0346002B01D1012300E0EB
:100E1C000023184680BD00BF000C014080B586B091
:100E2C0002AF3B4600221A605A609A60C3F80B204E
:100E3C0001F06AFC4D4B1A683B464D49184604F0CC
:100E4C001BFE3A46002300934A4B0021502002F02F
:100E5C00E7F8494B1B68D8B2484B1B68DBB2002241
:100E6C0000920A22002101F061FF434B1B68DBB2A8
:100E7C00023BD8B2414B1B68DBB2063BD9B2002314
:100E8C00009306230E2201F051FF3B4B1B68D8B296
:100E9C003A4B1B68DBB21E33D9B2384B1B68DBB242
:100EAC00C3F14003DBB2002200920A2201F03EFFA4
:100EBC00314B1B68DBB2023BD8B2304B1B68DBB248
:100ECC001E33D9B20023009306230E2201F02EFF0D
:100EDC002B4B1B68D8B22B4B1B68DBB20022009249
:100EEC000A22002101F022FF254B1B68DBB2023BDA
:100EFC00D8B2244B1B68DBB2063BD9B2002300935B
:100F0C0006230E2201F012FF1D4B1B68D8B21D4B9D
:100F1C001B68DBB21E33D9B21A4B1B68DBB2C3F1B0
:100F2C004003DBB2002200920A2201F0FFFE144BB8
:100F3C001B68DBB2023BD8B2124B1B68DBB21E3310
:100F4C00D9B20023009306230E2201F0EFFE0E4BC4
:100F5C001B68D9B200230D4A142002F014F801F0DA
:100F6C00DFFB00BF1037BD4680BD00BFB8030020BB
:100F7C00DC630008C4830008A0030020A403002045
:100F8C00A8030020AC030020B4030020E065000897
:100F9C0080B586B002AF3B4600221A605A609A6058
:100FAC00C3F80B200023FB73A84B80221A60A84BBC
:100FBC00C0221A6004F02CFD0246A64B83FB0213E0
:100FCC00D910D317CB1A2A2101FB03F3D31A0133FF
:100FDC00A14A136004F01CFD02469E4B83FB0213D6
:100FEC00D910D317CB1A2A2101FB03F3D31A0133DF
:100FFC009A4A13609A4B20221A609A4B0A221A6062
:10100C00994B00221A604FF40041984802F060FCA2
:10101C000346002B00F04C81FB7B002B40F0AF8093
:10102C00FFF7EAFE0346012B02D18D4B10221A600A
:10103C00864B1B68023B854A1360854B1B68023B41
:10104C00834A1360864B1B68053B854A1360844BAF
:10105C001B68874A82FB03129210DB179A1A814B8A
:10106C001B6813447F4A1360784B1B68012B19DCF7
:10107C00764B80221A6004F0CBFC0246754B83FB46
:10108C000213D910D317CB1A2A2101FB03F3D31A5D
:10109C000133714A1360704B1B68052B02DC6E4BDD
:1010AC0006221A606A4B1B68012B19DC684B8022E4
:1010BC001A6004F0ADFC0246664B83FB0213D91098
:1010CC00D317CB1A2A2101FB03F3D31A0133634A3A
:1010DC001360624B1B68052B02DC604B06221A6006
:1010EC00FFF79CFE5F4B1B68002B02DA5D4B002266
:1010FC001A605C4B1B68402B01DD0123FB73534BC7
:10110C001B68132B13DD514B1B681F2B0FDC554B2E
:10111C001A68514B1B689A4207DB4F4B1B6803F153
:10112C001602504B1B689A4201DA0123FB73484BA1
:10113C001B68132B13DD464B1B681F2B0FDC494B15
:10114C001A68464B1B689A4207DB444B1B6803F139
:10115C001602444B1B689A4201DA0123FB733B4B8A
:10116C001B68102B03D03A4B1B68102B04D13E4B41
:10117C001B6801333C4A13601E2002F0F3F8FB7B22
:10118C00012B7FF440AF01F0BFFA0023394A002154
:10119C00002001F0F8FE0023374A2021082001F03E
:1011AC00F2FE00230093354B354A2021482001F0F4
:1011BC0087FF2D4B1A683B463249184604F05CFCFD
:1011CC003A4600230093304B3021482001F028FF91
:1011DC0001F0A6FAFFF710FE0346012B5FD10023A6
:1011EC00FB731A4B80221A60194BC0221A6004F050
:1011FC000FFC0246174B83FB0213D910D317CB1AE3
:10120C002A2101FB03F3D31A0133134A1360124B47
:10121C001B68052B02DC104B06221A6004F0F8FB4D
:10122C0002460C4B83FB0213D910D317CB1A2A217D
:10123C0001FB03F3D31A0133084A1360074B1B68F5
:10124C00052B23DC054B06221A601FE0A0030020AF
:10125C00A8030020310CC330A4030020AC030020F1
:10126C00B0030020B4030020B8030020000C0140A0
:10127C0067666666D8650008E8650008B4830008F0
:10128C00E0630008DC630008C48300080B4B2022D9
:10129C001A600B4B32221A600A4B00221A604FF470
:1012AC000041094802F014FB0346002B02D0AAE6C9
:1012BC0000BF00E000BF1037BD4680BDB00300206A
:1012CC00B4030020B8030020000C014080B400AF30
:1012DC002D4B00221A602D4B00221A602C4B002241
:1012EC001A602C4B08221A602B4B00221A602B4BD5
:1012FC0000221A602A4B5F221A602A4B00221A60C5
:10130C00294B5F221A60294B00221A60284B5F225E
:10131C001A60284B00221A60274B5F221A60274B59
:10132C0000221A60264B00221A60264B03221A60F8
:10133C00254B01221A60254B0A221A60244B0522E8
:10134C001A60244B00221A60234B01221A60234B93
:10135C0000221A60224B00221A60224B00221A60D3
:10136C00214B18221A60214B00221A60204B0022BC
:10137C001A60204B00221A601F4B00221A6000BF1B
:10138C00BD4680BC704700BFBC030020C0030020DA
:10139C00C4030020C4020020C8030020CC0300209A
:1013AC00C8020020D0030020CC020020D40300206F
:1013BC00D0020020D8030020D4020020DC0300203F
:1013CC00E0030020D8020020DC020020E002002014
:1013DC00E4020020E4030020E8020020E8030020DF
:1013EC00EC030020F0030020EC020020FC030020A2
:1013FC0000040020040400200804002080B500AF85
:10140C004FF480510F4802F063FA0346002B01D1D0
:10141C00022314E04FF400510A4802F059FA034633
:10142C00002B01D103230AE04FF48041054802F060
:10143C004FFA0346002B01D1012300E0002318468C
:10144C0080BD00BF000C014080B500AF1E213220D2
:10145C0001F0DCFE11211E2001F0D8FE12213C20EF
:10146C0001F0D4FE1021372001F0D0FE2B211920E1
:10147C0001F0CCFE2B21642001F0C8FE3421752034
:10148C0001F0C4FE31210E2001F0C0FE18211820FD
:10149C0001F0BCFE24214E2001F0B8FE3921502071
:1014AC0001F0B4FE0B216B2001F0B0FE0B21962055
:1014BC0001F0ACFE0521052001F0A8FE0721082053
:1014CC0001F0A4FE0C21462001F0A0FE38210A20D8
:1014DC0001F09CFE1921462001F098FE00BF80BD52
:1014EC0090B589B002AF00237B613B1D00221A60CE
:1014FC005A609A60C3F80B20FFF7E8FE01F028FF52
:10150C000346954A13604FF40041944802F0E0F909
:10151C000346002B00F06F84914B1B68002B40F0AE
:10152C00C88301F0F1F8FFF78FFF01F011FF0246BD
:10153C00894B1B68D31A8B4A13608A4B1A688A4BE7
:10154C001B68D31A4CF25032934217D9854B1B6847
:10155C00854A1360854B1B680133844A1360844BA6
:10156C001B680133824A1360824B1B680133814A2A
:10157C001360814B1B68013B7F4A13607F4B1B68D8
:10158C0001337E4A136004F043FA02467C4B83FB22
:10159C0002131912D317CB1A4FF4487101FB03F342
:1015AC00D31A03F5C87303F00103002B11D1734B4D
:1015BC001B68012B0DD1734B1B68002B09D1724B8F
:1015CC005F221A60714B1B68714A13606D4B0122CC
:1015DC001A6004F01DFA0246694B83FB02131912C0
:1015EC00D317CB1A4FF4487101FB03F3D31A03F54D
:1015FC00C871684B83FB0132CB17D21A13465B00C0
:10160C001344CA1A012A11D15C4B1B68022B0DD151
:10161C00614B1B68002B09D1604B5F221A605B4B3E
:10162C001B685F4A13605C4B01221A6004F0F0F9EE
:10163C000246534B83FB02131912D317CB1A4FF4E8
:10164C00487101FB03F3D31A03F5C871554B83FBA7
:10165C0001235A10CB17D21A13469B001344CA1AF3
:10166C00012A11D1454B1B68032B0DD14E4B1B6826
:10167C00002B09D14D4B5F221A60444B1B684C4A1E
:10168C001360494B01221A6004F0C2F902463C4B2C
:10169C0083FB02131912D317CB1A4FF4487101FBB9
:1016AC0003F3D31A03F5C872424B83FB02131344A2
:1016BC009910D317C91A0B46DB005B1AD11A0129F2
:1016CC0011D12E4B1B68042B0DD13B4B1B68002BEF
:1016DC0009D13A4B5F221A602C4B1B68384A1360B5
:1016EC00354B01221A60274B1B68002B19D0264B57
:1016FC001B68D8B2264B1B68D9B20023022201F01A
:10170C0066FB214B1B6813F1020F07DB1E4B1A689B
:10171C00174B1B68D31A1C4A136002E0194B0022AA
:10172C001A601D4B1B68002B4FD01C4B1B68D8B28A
:10173C001B4B1B68D9B20023012201F048FB174B4D
:10174C001B68B3F1FF3F3DDB144B1A68084B1B6859
:10175C00D31A124A136038E0E8030020000C014051
:10176C00CC030020EC030020F0030020E802002052
:10177C00D8020020DC020020E0020020E40300205C
:10178C001F85EB51FC030020C8020020C40200207E
:10179C00D00300205655555500040020CC020020E3
:1017AC00D40300206766666604040020D002002083
:1017BC00D80300209324499208040020D40200206E
:1017CC00DC030020994B00221A60994B1B68002BFC
:1017DC0019D0984B1B68D8B2974B1B68D9B2002311
:1017EC00042201F0F4FA934B1B6813F1040F07DB8E
:1017FC00904B1A68914B1B68D31A8E4A136002E007
:10180C008B4B00221A608E4B1B68002B19D08D4B12
:10181C001B68D8B28C4B1B68D9B20023032201F091
:10182C00D6FA884B1B6813F1030F07DB854B1A683C
:10183C00824B1B68D31A834A136002E0804B002250
:10184C001A60FFF7DBFD0346022B08D17F4B1B68A8
:10185C00012B04DD7D4B1B68023B7C4A1360FFF7B8
:10186C00CDFD0346032B08D1784B1B682E2B04DCD3
:10187C00764B1B680233754A1360FFF7BFFD0346B6
:10188C00012B0ED1724B1B68002B0AD1704B01221D
:10189C001A60704B06221A606C4B1B6808336E4A38
:1018AC0013606B4B1B68012B16D16A4B1B680833FA
:1018BC00684A1360674B1B68D8B2674B1B68D9B278
:1018CC00644B1B68DBB20433DAB2634B1B68DBB2CC
:1018DC000024009401F03EF9604B1B68002B1ED0D5
:1018EC0001F036FD03465E4AA2FB03231B0903F0FD
:1018FC000103002B07D1554B1B68D9B20023594A61
:10190C00042001F040FB584B1A68584B1B68D31A43
:10191C00B3F57A7F0BD9514B00221A6007E04B4B81
:10192C001B68D9B200234F4A042001F02CFB504B0A
:10193C001B68D8B24F4B1B68D9B24F4B1B68DAB23D
:10194C00002301F044FA4A4B1B68DBB20233D8B2D5
:10195C00484B1B68DBB20333D9B2474B1B68474A71
:10196C0082FB0342DB17D31ADAB2002301F02FFA01
:10197C0000230093424B434A00211C2001F050FBF2
:10198C00414B1A683B1D4149184604F075F83A1D45
:10199C00002300933A4B0021402001F041FB00232F
:1019AC000093374B3A4A37211C2001F039FB394B55
:1019BC001A683B1D3549184604F05EF83A1D0023A1
:1019CC0000932F4B3721402001F02AFB002300937A
:1019DC002B4B314A2D21742001F022FB224B1B682A
:1019EC002E4AA2FB03239A093B1D2849184604F0F2
:1019FC0043F83A1D00230093214B3721742001F04A
:101A0C000FFB00F08DFE134B1B68802B02DD104B7F
:101A1C0000221A60224B1B68002B45D1154B1A680B
:101A2C00204B1B681344134A136044E0000400204D
:101A3C0004040020D0020020D8030020D80200208B
:101A4C0008040020D4020020DC030020EC0200205B
:101A5C00C4030020BC030020C0030020F4030020BA
:101A6C001F85EB5110660008EC030020F8030020E2
:101A7C00C0020020C4020020E0020020565555553B
:101A8C0058680008F4630008E003002004640008B0
:101A9C0008640008E402002010640008D34D6210B2
:101AAC00C8030020DC0200208C4B1A688C4B1B688E
:101ABC00D31A8A4A13608B4B1B68C3F14002874BC5
:101ACC001B689A4202DC884B01221A60834B1A680D
:101ADC00844B1B689A4202DC834B00221A607F4BBA
:101AEC001A68804B1B68D21A804B1B689A422ADCFE
:101AFC007A4B1A687B4B1B681A447C4B1B689A42C6
:101B0C0021DB7B4B1A68774B1B68D21A794B1B680D
:101B1C009A4218DA764B1A68724B1B681A44754B4A
:101B2C001B689A420FDD734B06221A60724B1B68BE
:101B3C0008336E4A1360714B1B6801336F4A136094
:101B4C006F4B00221A606C4B1B6808337B617B69FE
:101B5C00A3F108026B4B1B689A4221DC7B6903F1F1
:101B6C000802684B1B689A421ADB674B1B68142BE4
:101B7C0016DC654B1B68042B12DD644B1B68002BB9
:101B8C000ED1634B00221A60624B1B68013B614A09
:101B9C0013605E4B01221A605F4B1B685F4A136037
:101BAC007B69A3F108025E4B1B689A4221DC7B69BE
:101BBC0003F108025A4B1B689A421ADB594B1B68FB
:101BCC00142B16DC574B1B68042B12DD4F4B1B6878
:101BDC00002B0ED1544B00221A604E4B1B68013B5C
:101BEC004C4A1360494B01221A604B4B1B684B4A01
:101BFC0013607B69A3F108024C4B1B689A4221DCF1
:101C0C007B6903F10802494B1B689A421ADB484B6B
:101C1C001B68142B16DC464B1B68042B12DD3B4B4C
:101C2C001B68002B0ED1434B00221A60394B1B68EA
:101C3C00013B384A1360354B01221A60364B1B6846
:101C4C00364A13607B69A3F108023B4B1B689A422E
:101C5C0021DC7B6903F10802374B1B689A421ADBC3
:101C6C00364B1B68142B16DC344B1B68042B12DD13
:101C7C00264B1B68002B0ED1314B00221A60254BD2
:101C8C001B68013B234A1360204B01221A60224B34
:101C9C001B68224A13602B4B1B68042B02DD294B5B
:101CAC0000221A601B4B1B68002B02D1264B012211
:101CBC001A60254B1B68012B40F0988000F024FD26
:101CCC0000230093214B224A1421252001F0F8F91E
:101CDC000A4B1A683B1D1F4918463DE0C402002000
:101CEC00DC020020E0020020C8030020C00300201A
:101CFC00C0020020BC030020EC020020E003002006
:101D0C00C4030020D0030020C8020020F4030020EC
:101D1C00FC030020E4020020EC030020F803002068
:101D2C00D4030020CC02002000040020D8030020A3
:101D3C00D002002004040020DC030020D402002088
:101D4C0008040020E4030020CC030020B483000826
:101D5C00146400080464000803F08EFE3A1D00238E
:101D6C000093274B1421552001F0AAF9002300936E
:101D7C00234B244A2321252001F0A2F9224B1A6877
:101D8C003B1D2249184603F077FE3A1D00230093B1
:101D9C001B4B2321552001F093F900230093184B82
:101DAC001B4A3221252001F08BF91A4B1B681A4A69
:101DBC00A2FB03239A093B1D1449184603F05CFE51
:101DCC003A1D002300930E4B3221552001F078F977
:101DDC0000F0A6FCFFF712FB0346012B06D1FFF720
:101DEC0075FA01F0B5FA03460C4A1360012001F0B4
:101DFC00B9FAFFF788BB00BF1C37BD4690BD00BFCA
:101E0C00B48300081C640008E80200200464000885
:101E1C0024640008EC030020D34D6210E80300207A
:101E2C0080B588B000AF07F1100300221A605A6029
:101E3C009A60DA602A4B9B69294A43F0100393613C
:101E4C00274B9B6903F01003FB60FB68244B9B69D9
:101E5C00234A43F020039361214B9B6903F0200339
:101E6C00BB60BB681E4B9B691D4A43F00803936122
:101E7C001B4B9B6903F008037B607B68184B9B69C9
:101E8C00174A43F004039361154B9B6903F0040359
:101E9C003B603B6801224FF40051124801F02FFDCA
:101EAC004FF400533B6101237B610123BB6102238F
:101EBC00FB6107F1100319460A4801F085FB4FF44A
:101ECC0070433B6100237B610123BB6107F110036D
:101EDC001946054801F078FB00BF2037BD4680BD90
:101EEC000010024000100140000C014080B500AF12
:101EFC00124B134A1A60114B124A5A600F4B0022B4
:101F0C009A600E4B0022DA600C4B4FF480421A613F
:101F1C000A4B00225A61094B00229A61074B00229E
:101F2C00DA61064B00221A62044801F001FD0346F7
:101F3C00002B01D000F0CBF800BF80BD0C040020BA
:101F4C0000540040801A060080B588B000AF78605D
:101F5C0007F1100300221A605A609A60DA607B68FD
:101F6C001B68154A934223D1144B9B69134A43F0C7
:101F7C0008039361114B9B6903F00803FB60FB683A
:101F8C00C0233B6112237B610323FB6107F1100328
:101F9C0019460B4801F018FB084BDB69074A43F460
:101FAC000013D361054BDB6903F40013BB60BB6802
:101FBC0000BF2037BD4680BD0054004000100240D9
:101FCC00000C014080B582B000AF01F069F900F05F
:101FDC0021F8FFF725FF00F081F8FFF787FF00F0ED
:101FEC003CFB00F091FB00F09BFBFEF7C3FA786022
:101FFC007B68012B02D1FEF7C5F8F6E77B68022B54
:10200C0002D1FEF791F9F0E77B68062BEDD1FEF7D4
:10201C005FF9EAE780B594B000AF07F128032822F6
:10202C000021184603F0ECFC07F1140300221A609F
:10203C005A609A60DA601A613B1D00221A605A607D
:10204C009A60DA600523BB624FF48033FB62002395
:10205C003B6301237B630123BB6302237B644FF44B
:10206C008033BB644FF4E013FB6407F1280318467C
:10207C0002F0C0F80346002B01D000F028F80F2323
:10208C007B610223BB610023FB614FF480633B62E5
:10209C0000237B6207F114030221184602F02CFB8B
:1020AC000346002B01D000F012F801237B604FF4A3
:1020BC008073BB603B1D184602F0B6FC0346002B38
:1020CC0001D000F004F800BF5037BD4680BD80B48D
:1020DC0000AF72B600BF00BFFDE7000080B586B050
:1020EC0000AF07F1140300210A461A800A469A70C1
:1020FC0000233B614D4B4E4A1A604C4B4FF0FF3264
:10210C005A604A4B00229A60484802F003FE03468C
:10211C00002B01D0FFF7DBFF0023FB60454BDB6995
:10212C00444A43F08053D361424BDB6903F0805344
:10213C00BB60BB6802F046F83E4BDB693D4A43F09E
:10214C000063D3613B4BDB6903F000637B607B680E
:10215C000721364803F0F4FB034645F2AA5293429A
:10216C003AD10621314803F0EBFB0346DBB2BB75D9
:10217C0005212E4803F0E4FB0346DBB27B750421FA
:10218C002A4803F0DDFB0346DBB23B7503212748ED
:10219C0003F0D6FB0346DBB2BB730221234803F0EA
:1021AC00CFFB0346DBB27B730121204803F0C8FB55
:1021BC000346DBB2FB7302F011F807F114030122A2
:1021CC0019461A4802F03CFE07F10C03012219468D
:1021DC00164802F0A5FF25E010233B7510237B75F4
:1021EC001023BB7507F11403012219460F4802F0A6
:1021FC0027FE0346002B01D0FFF769FF01233B7438
:10220C0001237B740123BB742523FB7407F110039A
:10221C0001221946054802F083FF0346002B01D02A
:10222C00FFF755FF1837BD4680BD00BF6004002086
:10223C00002800400010024080B584B000AF7860E8
:10224C007B681B680F4A934218D101F0BBFF0E4B01
:10225C00DB690D4A43F00063D3610B4BDB6903F080
:10226C000063FB60FB68094B01221A60002200210D
:10227C00032001F072F9032001F08BF900BF103735
:10228C00BD4680BD00280040001002403C04424284
:10229C0080B584B000AF07F10C03012219463A480F
:1022AC0002F066FE07F1080301221946364802F0D7
:1022BC00EDFF3B7B232B63D87B7B592B60D8BB7BFF
:1022CC00592B5DD87B7A122B5AD8BB7A312B57D825
:1022DC00FB7A992B54D83B7B002B05D17B7B002BB5
:1022EC0002D1BB7B002B4BD0284BDB69274A43F038
:1022FC008053D361254BDB6903F080537B607B6893
:10230C0001F060FF214BDB69204A43F00063D3618D
:10231C001E4BDB6903F000633B603B68BB7B1A46DA
:10232C000621194803F0F2FA7B7B1A460521164860
:10233C0003F0ECFA3B7B1A460421134803F0E6FA4F
:10234C00BB7A1A460321104803F0E0FA7B7A1A464E
:10235C0002210D4803F0DAFAFB7A1A4601210A48E9
:10236C0003F0D4FA45F2AA520721074803F0CEFA3B
:10237C0001F034FF054BDB69044A23F00063D361A1
:10238C0000BF1037BD4680BD600400200010024025
:10239C0080B485B000AF154B9B69144A43F0010320
:1023AC009361124B9B6903F00103BB60BB680F4B3D
:1023BC00DB690E4A43F08053D3610C4BDB6903F0AD
:1023CC0080537B607B680A4B5B68FB60FB6823F087
:1023DC00E063FB60FB6843F00073FB60044AFB683E
:1023EC00536000BF1437BD4680BC704700100240DC
:1023FC000000014080B400AF00BFFDE780B400AF27
:10240C0000BFFDE780B400AF00BFFDE780B400AFB4
:10241C0000BFFDE780B400AF00BFFDE780B400AFA4
:10242C0000BFBD4680BC704780B400AF00BFBD4646
:10243C0080BC704780B400AF00BFBD4680BC704705
:10244C0080B500AF00F072FF00BF80BD80B500AF5B
:10245C00024803F011FA00BF80BD00BF60040020E9
:10246C0080B586B000AF7860144A154BD31A7B61E7
:10247C007B693B61134B1B68002B02D1114B124A39
:10248C001A60104B1A687B6813443A699A4207D257
:10249C0003F072FA03460C221A604FF0FF3309E086
:1024AC00084B1B68FB60074B1A687B681344054A92
:1024BC001360FB6818461837BD4680BD00500020DD
:1024CC0000040000740400201809002080B400AF40
:1024DC0000BFBD4680BC70470C480D490D4A002317
:1024EC0002E0D458C4500433C4188C42F9D30A4ABD
:1024FC000A4C002301E013600432A242FBD3FFF725
:10250C00E5FF03F03FFAFFF75DFD70470000002088
:10251C0068030020248400086803002014090020AC
:10252C00FEE7000080B582B000AF0023FB714FF4D2
:10253C008051334801F0CCF90346002B10D1142004
:10254C0000F010FF00BF4FF480512D4801F0C0F98E
:10255C000346002BF7D0142000F004FF0123FB717D
:10256C004FF40051264801F0B3F90346002B10D16B
:10257C00142000F0F7FE00BF4FF40051204801F08A
:10258C00A7F90346002BF7D0142000F0EBFE022332
:10259C00FB714FF480411A4801F09AF90346002B65
:1025AC0010D1142000F0DEFE00BF4FF4804114481F
:1025BC0001F08EF90346002BF7D0142000F0D2FE68
:1025CC000323FB714FF400410D4801F081F90346E0
:1025DC00002B10D1142000F0C5FE00BF4FF40041B9
:1025EC00074801F075F90346002BF7D0142000F0D2
:1025FC00B9FE0423FB71FB7918460837BD4680BD34
:10260C00000C014080B584B002AF78600B46FB70C3
:10261C00FB789BB24FF0FF3200927A687821034826
:10262C0001F0CAFA00BF0837BD4680BD0C0400207B
:10263C0080B584B000AF0346FB710023BB8100233F
:10264C003B73FB797B7307F10C0302211846FFF7F0
:10265C00D9FF00BF1037BD4680BD80B500AFAE209E
:10266C00FFF7E6FF0220FFF7E3FF1020FFF7E0FF84
:10267C004020FFF7DDFFB020FFF7DAFF8120FFF7E6
:10268C00D7FFCF20FFF7D4FFA120FFF7D1FFA62063
:10269C00FFF7CEFFA820FFF7CBFF3F20FFF7C8FFC7
:1026AC00AD20FFF7C5FF8B20FFF7C2FF3320FFF7EC
:1026BC00BFFFC820FFF7BCFFD320FFF7B9FF0020F6
:1026CC00FFF7B6FFD520FFF7B3FFC020FFF7B0FF31
:1026DC00D920FFF7ADFF1F20FFF7AAFFDA20FFF785
:1026EC00A7FF1220FFF7A4FFDB20FFF7A1FF40207C
:1026FC00FFF79EFF00F008F800F012F8AF20FFF78C
:10270C0097FF00BF80BD000080B500AF4FF4806222
:10271C000021024803F074F900BF80BD780400204A
:10272C0080B582B000AF154B40221A700023FB71AC
:10273C001BE0FB79503BDBB21846FFF779FF022018
:10274C00FFF776FF1020FFF773FF0D48FB79DB01D5
:10275C000C4A13448022194603F047F9812107489B
:10276C00FFF750FFFB790133FB71FB79072BE0D9A5
:10277C0000BF00BF0837BD4680BD00BF78080020F1
:10278C00790800207804002080B483B000AF0346A1
:10279C00FB710B46BB7113467B7197F90730002B0D
:1027AC0043DBBB793F2B40D87B79002B1DD1BB7908
:1027BC00DB08D8B20246FB791E49D2010A44134405
:1027CC001B785AB2BB7903F00703012101FA03F31A
:1027DC005BB2134359B20246FB79C8B21549D20118
:1027EC000A44134402461A7020E0BB79DB08D8B2C5
:1027FC000246FB790F49D2010A4413441B785AB2A2
:10280C00BB7903F00703012101FA03F35BB2DB434D
:10281C005BB2134059B20246FB79C8B20549D201EA
:10282C000A44134402461A7000E000BF0C37BD4640
:10283C0080BC70477804002090B482B000AF04468E
:10284C00084611461A462346FB710346BB710B46DC
:10285C007B7113463B71FB79072B5FD897F90630D8
:10286C00002B5BDB3B7D002B02D07B79DB437B7148
:10287C003B7C0133FF2202FA03F35AB297F905307D
:10288C0013435AB23B79C3F10803FF2141FA03F316
:10289C005BB213435BB2DAB2234B1A70FA79BB7991
:1028AC002249D2010A44134418781F4B1978FA793B
:1028BC00BB790140C8B21D49D2010A4413440246F7
:1028CC001A703B7C0133FF2202FA03F35BB2DB4349
:1028DC005AB297F9053013405AB23B79C3F1080349
:1028EC006FF0FF0141FA03F35BB213405BB2DAB253
:1028FC000D4B1A70FA79BB790C49D2010A44134476
:10290C001878094B1978FA79BB790143C8B2074991
:10291C00D2010A44134402461A7000E000BF083783
:10292C00BD4690BC704700BFF90800207804002019
:10293C00B0B586B002AF0446084611461A46234687
:10294C00FB710346BB710B467B7113463B71BB7924
:10295C00DB08FB73BB7903F00703BB73BA7B3B79D2
:10296C001344082B29DD7A79BB7B02FA03F3DAB224
:10297C00BC7BF979F87B97F82030019307230093FF
:10298C002346FFF759FFFB7B0133D8B27A79BB7B27
:10299C00C3F1080342FA03F3DCB23A79BB7B13446C
:1029AC00DBB2093BDBB2F97997F820200192009356
:1029BC0000232246FFF740FF15E07A79BB7B02FA31
:1029CC0003F3DCB2BA7B3B791344DBB2013BDBB2E1
:1029DC00BD7BF979F87B97F82020019200932B4668
:1029EC002246FFF729FF00BF1037BD46B0BD90B59A
:1029FC0087B002AF0446084611461A462346FB71BF
:102A0C000346BB710B467B7113463B71BB79DB08EC
:102A1C00FB73BB7903F00703BB737A79BB7B02FAB8
:102A2C0003F3DAB2BC7BF979F87B3B79019307238A
:102A3C0000932346FFF700FFBB7B002B14D0FB7BDE
:102A4C000133D8B27A79BB7BC3F1080342FA03F3A2
:102A5C00DCB2BB7B013BDBB2F9793A790192009392
:102A6C0000232246FFF7E8FE00BF1437BD4690BD99
:102A7C0090B587B002AF3A601A460346FB710B461D
:102A8C00BB7113467B7197F82030DB083B7397F8CA
:102A9C00203003F00703FB720023FB7325E00023B7
:102AAC00BB731BE0FA79FB7B1344D8B2BB7BDB0016
:102ABC00DAB2BB791344DCB2FA7BBB7B797901FBCC
:102ACC0003F313441A463B6813441A7897F82430DE
:102ADC002146FFF78CFFBB7B0133BB73BA7B3B7B7F
:102AEC009A42DFD3FB7B0133FB73FA7B7B799A42EF
:102AFC00D5D3FB7A002B28D07B799BB23A7B92B250
:102B0C0002FB03F33B8100237B731AE0FA797B7B96
:102B1C001344D8B23B7BDB00DAB2BB791344D9B295
:102B2C003A897B7B13441A463B6813441A78FC7A27
:102B3C0097F8243000932346FFF7FAFE7B7B013392
:102B4C007B737A7B7B799A42E0D300BF1437BD4606
:102B5C0090BD000090B587B000AF04460846114602
:102B6C001A462346FB710346BB710B467B71134619
:102B7C003B71FA797B799A421DD1BA793B799A42A9
:102B8C0007D9694ABB7913703B79BB71664B1B78CB
:102B9C003B71BB79FB7509E097F82820F97DFB792F
:102BAC001846FFF7F1FDFB7D0133FB75FA7D3B7990
:102BBC009A42F1D9B4E0BA793B799A421DD1FA79AB
:102BCC007B799A4207D9584AFB7913707B79FB7150
:102BDC00554B1B787B71FB79BB7509E097F8282066
:102BEC00B979BB7D1846FFF7CFFDBB7D0133BB75B3
:102BFC00BA7D7B799A42F1D992E07B799AB2FB79D2
:102C0C009BB2D31A9BB2FB813B799AB2BB799BB234
:102C1C00D31A9BB2BB81B7F90E30002B01DD012317
:102C2C0001E04FF0FF337B81B7F90C30002B01DD55
:102C3C00012301E04FF0FF333B81FB79BB82BB7971
:102C4C007B8200233B82B7F90E30002BB8BF5B426E
:102C5C009BB2FB81B7F90C30002BB8BF5B429BB227
:102C6C00BB81B7F90E20B7F90C309A422CDDFB79F9
:102C7C00BB8223E0BB8ADBB27A8AD1B297F82820D8
:102C8C001846FFF781FD3A8ABB8913449BB23B82FD
:102C9C00B7F910305A00B7F90E309A4209DB7A8A2C
:102CAC003B8913449BB27B823A8AFB89D31A9BB231
:102CBC003B82BA8A7B8913449BB2BB82B7F914203E
:102CCC007B799A42D6D12BE0BB797B8223E0BB8AFD
:102CDC00DBB27A8AD1B297F828201846FFF754FD58
:102CEC003A8AFB8913449BB23B82B7F910305A00E5
:102CFC00B7F90C309A4209DBBA8A7B8913449BB230
:102D0C00BB823A8ABB89D31A9BB23B827A8A3B89B3
:102D1C0013449BB27B82B7F912203B799A42D6D1ED
:102D2C0000BF1C37BD4690BDFA08002090B585B099
:102D3C0002AF0446084611461A462346FB71034669
:102D4C00BB710B467B7113463B71FA797B7913444B
:102D5C00DAB2BC79B979F8793B7E00932346FFF758
:102D6C00F9FEBA793B791344D9B2FA797B791344D9
:102D7C00DCB2BA793B791344DAB2F8793B7E009332
:102D8C0013462246FFF7E6FEBA793B791344DCB2D0
:102D9C00FA79B979F8793B7E00932346FFF7DAFE8E
:102DAC00FA797B791344D8B2FA797B791344DCB283
:102DBC00BA793B791344DAB2B9793B7E0093134666
:102DCC002246FFF7C7FE00BF0C37BD4690BD90B53D
:102DDC0085B000AF0446084611461A462346FB71DF
:102DEC000346BB710B467B7113463B710023FB8181
:102DFC007B79BB817B799BB25B009BB2C3F10303F4
:102E0C009BB27B81B3E0BB89DBB2FA79D31AD8B21F
:102E1C00FB89DBB2BA79D31ADBB23A791946FFF7E0
:102E2C00B3FCBB89DAB2FB791344D8B2FB89DBB2B1
:102E3C00BA79D31ADBB23A791946FFF7A5FCFB89AC
:102E4C00DBB2FA79D31AD8B2BB89DAB2BB791344A4
:102E5C00DBB23A791946FFF797FCBB89DBB2FA79FA
:102E6C00D31AD8B2FB89DBB2BA79D31ADBB23A796E
:102E7C001946FFF789FCFB89DBB2FA79D31AD8B271
:102E8C00BB89DBB2BA79D31ADBB23A791946FFF7B0
:102E9C007BFCBB89DAB2FB791344D8B2FB89DAB27A
:102EAC00BB791344DBB23A791946FFF76DFCFB8909
:102EBC00DAB2FB791344D8B2BB89DBB2BA79D31A34
:102ECC00DBB23A791946FFF75FFCFB89DAB2FB7982
:102EDC001344D8B2BB89DAB2BB791344DBB23A796A
:102EEC001946FFF751FCBB89DBB2FA79D31AD8B279
:102EFC00FB89DAB2BB791344DBB23A791946FFF796
:102F0C0043FCB7F90E309BB201339BB2FB81B7F98E
:102F1C000A30002B09DAFB899B009AB27B89134497
:102F2C009BB206339BB27B8113E0B7F90E20B7F945
:102F3C000C30D31A9BB29B009AB27B8913449BB280
:102F4C000A339BB27B81B7F90C309BB2013B9BB22D
:102F5C00BB81FB89DAB2FB791344D8B2BB89DAB2F4
:102F6C00BB791344DBB23A791946FFF70DFCB7F97C
:102F7C000E20B7F90C309A427FF745AF00BF00BF67
:102F8C001437BD4690BDB0B584B002AF3A601A4656
:102F9C000346FB710B46BB7113467B713B685C6847
:102FAC003B681D783B685B78B979F8797A7901923E
:102FBC0000932B462246FFF75BFD00BF0837BD464A
:102FCC00B0BDB0B584B002AF3B600346FB710B469D
:102FDC00BB7113467B713B685A687B79A3F1200166
:102FEC003B681B780733002B00DA0733DB101846DD
:102FFC003B685B7800FB03F301FB03F3D4183B68DD
:10300C005D783B681B78B979F8793A7E0192009328
:10301C002B462246FFF72CFD00BF0837BD46B0BD3E
:10302C0080B588B002AFBA607B600346FB730B4679
:10303C00BB73FB7BFB7511E0BB681A78B97BF87D21
:10304C0097F8203000937B68FFF7BBFF7B685A78BA
:10305C00FB7D1344FB75BB680133BB60BB681B78FD
:10306C00002BE9D100BF00BF1837BD4680BD80B42E
:10307C0083B000AF78607B681B785BB2002B01DB00
:10308C00012318E07B681B7803F0E003C02B01D10F
:10309C00022310E07B681B7803F0F003E02B01D1D6
:1030AC00032308E07B681B7803F0F803F02B01D1B5
:1030BC00042300E0002318460C37BD4680BC704743
:1030CC00B0B58AB002AFBA607B600346FB730B46A7
:1030DC00BB730023FB837B681B780733002B00DA60
:1030EC000733DB10DBB27A68527802FB03F3DBB2F6
:1030FC000433FB767DE000237B77FB8BBA681344AB
:10310C001846FFF7B4FF0346BB76BB7E002B78D086
:10311C0000233B7732E07B685B683A7FF97E01FBEA
:10312C0002F213447B61FB8BBA681344BA7E796953
:10313C00184602F04BFC0346002B1CD17B691C1D6E
:10314C007B685D787B681B78B97BF87B97F83020BF
:10315C00019200932B462246FFF78AFC7B685A7833
:10316C00FB7B1344FB73BB7E9AB2FB8B1344FB8338
:10317C0001237B7707E03B7F01333B777B681B7A2E
:10318C003A7F9A42C7D37B7F002B32D1BB7E012B77
:10319C0019D1FB8BBA6813441A787B68DC68B97B4D
:1031AC00F87B97F8303000932346FFF70AFF7B68D3
:1031BC00DB685A78FB7B1344FB73BB7E9AB2FB8BA8
:1031CC001344FB8315E07B68DA68B97BF87B97F8CE
:1031DC003030009313462022FFF7F3FE7B68DB6848
:1031EC005A78FB7B1344FB73BB7E9AB2FB8B134464
:1031FC00FB83FB8BBA6813441B78002B7FF47BAFEB
:10320C0000E000BF00BF2037BD46B0BD80B483B026
:10321C0000AF03460A46FB801346BB80B7F9063065
:10322C00002B35DBB7F906307F2B31DCB7F90430D6
:10323C00002B2DDBB7F904303F2B29DCB7F9043018
:10324C00002B00DA0733DB1018B20246B7F9063050
:10325C001249D2010A4413441B785AB2B7F904300C
:10326C00594203F0070301F0070158BF4B421BB250
:10327C00194601238B405BB2134359B20246B7F98E
:10328C000630C8B20549D2010A44134402461A70EA
:10329C0000BF0C37BD4680BC704700BF78040020CF
:1032AC0080B500AF084B1B68074A43F0100313604E
:1032BC00032000F047F9002000F008F8FFF768F849
:1032CC000023184680BD00BF0020024080B582B0AC
:1032DC0000AF7860124B1A68124B1B7819464FF4EA
:1032EC007A73B3FBF1F3B2FBF3F3184600F05FF91A
:1032FC000346002B01D001230EE07B680F2B0AD86C
:10330C00002279684FF0FF3000F027F9064A7B68FD
:10331C001360002300E0012318460837BD4680BD2A
:10332C00F002002000030020FC02002080B400AF5B
:10333C00054B1B781A46054B1B681344034A136054
:10334C0000BFBD4680BC704700030020FC08002075
:10335C0080B400AF024B1B681846BD4680BC70475A
:10336C00FC08002080B584B000AF7860FFF7F0FF58
:10337C00B8607B68FB60FB68B3F1FF3F05D00A4B7C
:10338C001B781A46FB681344FB6000BFFFF7E0FF95
:10339C000246BB68D31AFA689A42F7D800BF00BF3E
:1033AC001037BD4680BD00BF0003002080B485B03F
:1033BC0000AF78607B6803F00703FB600C4BDB68A5
:1033CC00BB60BA684FF6FF031340BB60FB681A0280
:1033DC00BB68134343F0BF6343F40033BB60044A40
:1033EC00BB68D36000BF1437BD4680BC704700BFBC
:1033FC0000ED00E080B400AF044BDB681B0A03F067
:10340C0007031846BD4680BC704700BF00ED00E0C6
:10341C0080B483B000AF0346FB7197F90730002BE3
:10342C000BDBFB7903F01F02064997F907305B09A8
:10343C00012000FA02F241F8232000BF0C37BD46F0
:10344C0080BC704700E100E080B483B000AF03465D
:10345C003960FB7197F90730002B0ADB3B68DAB255
:10346C000C4997F907301201D2B20B4483F80023B0
:10347C000AE03B68DAB20849FB7903F00F03043B1E
:10348C001201D2B20B441A7600BF0C37BD4680BC79
:10349C00704700BF00E100E000ED00E080B489B0AF
:1034AC0000AFF860B9607A60FB6803F00703FB615A
:1034BC00FB69C3F10703042B28BF0423BB61FB6921
:1034CC000433062B02D9FB69033B00E000237B612C
:1034DC004FF0FF32BB6902FA03F3DA43BB681A40C0
:1034EC007B699A404FF0FF317B6901FA03F3D943B2
:1034FC007B680B40134318462437BD4680BC70478D
:10350C0080B582B000AF78607B68013BB3F1807FFF
:10351C0001D301230FE00A4A7B68013B53600F2162
:10352C004FF0FF30FFF790FF054B00229A60044BE1
:10353C0007221A60002318460837BD4680BD00BF1D
:10354C0010E000E080B582B000AF78607868FFF7DB
:10355C002DFF00BF0837BD4680BD80B586B000AFDB
:10356C000346B9607A60FB7300237B61FFF742FF6F
:10357C0078617A68B9687869FFF790FF024697F925
:10358C000F3011461846FFF75FFF00BF1837BD46D6
:10359C0080BD80B582B000AF0346FB7197F9073050
:1035AC001846FFF735FF00BF0837BD4680BD80B514
:1035BC0082B000AF78607868FFF7A2FF0346184628
:1035CC000837BD4680BD000080B48BB000AF78607A
:1035DC00396000237B6200233B6269E101227B6A34
:1035EC0002FA03F3FB613B681B68FA691340BB6189
:1035FC00BA69FB699A4240F058813B685B689A4A09
:10360C0093425ED0984A934275D8984A934258D0C8
:10361C00964A93426FD8964A934252D0944A934218
:10362C0069D8944A93424CD0924A934263D8924AB6
:10363C00934246D0904A93425DD8122B2AD8122B33
:10364C0059D801A252F823F0CF360008A936000849
:10365C00BB360008FD3600080337000803370008A6
:10366C000337000803370008033700080337000846
:10367C000337000803370008033700080337000836
:10368C00033700080337000803370008B136000879
:10369C00C5360008794A934213D02CE03B68DB68AE
:1036AC003B6229E03B68DB6804333B6224E03B6807
:1036BC00DB6808333B621FE03B68DB680C333B6222
:1036CC001AE03B689B68002B02D104233B6213E099
:1036DC003B689B68012B05D108233B627B68FA6928
:1036EC001A6109E008233B627B68FA695A6103E0BE
:1036FC0000233B6200E000BFBB69FF2B01D87B6855
:10370C0001E07B6804337B61BB69FF2B02D87B6AC9
:10371C009B0002E07B6A083B9B003B617B691A685B
:10372C000F213B6901FA03F3DB431A40396A3B6909
:10373C0001FA03F31A437B691A603B685B6803F078
:10374C008053002B00F0B1804D4B9B694C4A43F0E9
:10375C00010393614A4B9B6903F00103BB60BB6897
:10376C00484A7B6A9B08023352F82330FB607B6A21
:10377C0003F003039B000F2202FA03F3DB43FA6806
:10378C001340FB607B68404A934213D07B683F4AEE
:10379C0093420DD07B683E4A934207D07B683D4AEA
:1037AC00934201D1032306E0042304E0022302E048
:1037BC00012300E000237A6A02F003029200934096
:1037CC00FA681343FB602F497B6A9B080233FA6843
:1037DC0041F823203B685B6803F48033002B06D050
:1037EC002D4B1A682C49BB6913430B6006E02A4B1E
:1037FC001A68BB69DB43284913400B603B685B6864
:10380C0003F40033002B06D0234B5A682249BB69C2
:10381C0013434B6006E0204B5A68BB69DB431E49DF
:10382C0013404B603B685B6803F48013002B06D09D
:10383C00194B9A681849BB6913438B6006E0164B09
:10384C009A68BB69DB43144913408B603B685B6827
:10385C0003F40013002B21D00F4BDA680E49BB691F
:10386C001343CB6021E000BF000032100000311088
:10387C000000221000002110000012100000111096
:10388C00001002400000014000080140000C014003
:10389C000010014000140140000401400B4BDA6899
:1038AC00BB69DB4309491340CB607B6A01337B6204
:1038BC003B681A687B6A22FA03F3002B7FF48EAE06
:1038CC0000BF00BF2C37BD4680BC704700040140D0
:1038DC0080B485B000AF78600B467B807B689A68BB
:1038EC007B881340002B02D00123FB7301E00023E3
:1038FC00FB73FB7B18461437BD4680BC704780B405
:10390C0083B000AF78600B467B8013467B707B786E
:10391C00002B03D07A887B681A6103E07B881A0439
:10392C007B681A6100BF0C37BD4680BC7047000035
:10393C0080B584B000AF78607B68002B01D1012387
:10394C002BE17B6893F83D30DBB2002B06D17B6812
:10395C00002283F83C207868FEF7F6FA7B68242274
:10396C0083F83D207B681B681A687B681B6822F013
:10397C0001021A607B681B681A687B681B6842F43A
:10398C0000421A607B681B681A687B681B6822F40B
:10399C0000421A6001F002F8F8607B685B68814AAB
:1039AC00934207D8FB68804A934294BF01230023BB
:1039BC00DBB206E0FB687D4A934294BF01230023EF
:1039CC00DBB2002B01D00123E7E0FB68784AA2FBB5
:1039DC0003239B0CBB607B681B685B6823F03F0177
:1039EC007B681B68BA680A435A607B681B681B6A51
:1039FC0023F03F017B685B686A4A934202D8BB683C
:103A0C00013309E0BB684FF4967202FB03F3694A79
:103A1C00A2FB03239B0901337A6812680B431362E0
:103A2C007B681B68DB6923F44F4222F0FF027B6842
:103A3C005B685C498B4219D8FB68591E7B685B68D4
:103A4C005B00B1FBF3F3591C40F6FC730B40002BED
:103A5C000AD0FB68591E7B685B685B00B1FBF3F313
:103A6C000133C3F30B0351E004234FE07B689B68E5
:103A7C00002B11D1FB68581E7B6859680B465B0004
:103A8C000B44B0FBF3F30133C3F30B03002B0CBF5C
:103A9C0001230023DBB212E0FB68581E7B685968D7
:103AAC000B469B000B4499000B44B0FBF3F3013322
:103ABC00C3F30B03002B0CBF01230023DBB2002B41
:103ACC0001D0012322E07B689B68002B0ED1FB68A0
:103ADC00581E7B6859680B465B000B44B0FBF3F334
:103AEC000133C3F30B0343F400430FE0FB68581E90
:103AFC007B6859680B469B000B4499000B44B0FB48
:103B0C00F3F30133C3F30B0343F4404379680968BF
:103B1C001343CB617B681B681B6823F0C0017B6877
:103B2C00DA697B681B6A1A437B681B680A431A6054
:103B3C007B681B689B6823F4034323F0FF037A68BC
:103B4C0011697A68D26811437A6812680B439360E2
:103B5C007B681B68DB6823F0FF017B685A697B6814
:103B6C009B691A437B681B680A43DA607B681B6895
:103B7C001A687B681B6842F001021A607B6800229D
:103B8C001A647B68202283F83D207B6800221A632C
:103B9C007B68002283F83E20002318461037BD4670
:103BAC0080BD00BFA08601007F841E00FF083D0081
:103BBC0083DE1B43D34D621080B588B002AFF86032
:103BCC007A601A460B467B8113463B81FFF7C0FB9C
:103BDC007861FB6893F83D30DBB2202B40F0E0803D
:103BEC007B690093192301227049F86800F064F98D
:103BFC000346002B01D00223D3E0FB6893F83C3042
:103C0C00012B01D10223CCE0FB68012283F83C207C
:103C1C00FB681B681B6803F00103012B07D0FB68D2
:103C2C001B681A68FB681B6842F001021A60FB688B
:103C3C001B681A68FB681B6822F400621A60FB6838
:103C4C00212283F83D20FB68102283F83E20FB687C
:103C5C0000221A64FB687A685A62FB683A895A85B2
:103C6C00FB685B8D9AB2FB681A85FB68504ADA6276
:103C7C0079897B693A6AF86800F09CF80346002B56
:103C8C0001D001238DE000233B61FB681B685B695D
:103C9C003B61FB681B689B693B613B6966E07A6929
:103CAC00396AF86800F0DEF90346002B0DD0FB688A
:103CBC001B6C042B07D1FB681B681A68FB681B681C
:103CCC0042F400721A6001236BE0FB685B6A1A789D
:103CDC00FB681B681A61FB685B6A5A1CFB685A62BA
:103CEC00FB685B8D9BB2013B9AB2FB685A85FB6803
:103CFC001B8D013B9AB2FB681A85FB681B685B69DC
:103D0C0003F00403042B1BD1FB681B8D002B17D075
:103D1C00FB685B6A1A78FB681B681A61FB685B6A54
:103D2C005A1CFB685A62FB685B8D9BB2013B9AB2D2
:103D3C00FB685A85FB681B8D013B9AB2FB681A85A0
:103D4C007A69396AF86800F0CEF90346002B0DD079
:103D5C00FB681B6C042B07D1FB681B681A68FB689B
:103D6C001B6842F400721A6001231AE0FB681B8D79
:103D7C00002B94D1FB681B681A68FB681B6842F423
:103D8C0000721A60FB68202283F83D20FB68002239
:103D9C0083F83E20FB68002283F83C20002300E0DF
:103DAC00022318461837BD4680BD00BF0200100024
:103DBC000000FFFF80B588B002AFF8607A603B600E
:103DCC000B467B81FB68DB6A7B617B69082B06D029
:103DDC007B69012B03D07B6913F5803F08D1FB680D
:103DEC001B681A68FB681B6842F480721A600BE04F
:103DFC00FB681B6B122B07D1FB681B681A68FB68EE
:103E0C001B6842F480721A603B6800937B68002246
:103E1C004FF00111F86800F04FF80346002B0DD05D
:103E2C00FB681B681B6803F48073B3F5807F03D1B8
:103E3C00FB684FF400721A64032335E0FB681B69BE
:103E4C00B3F5804F08D17B89DBB21A46FB681B683F
:103E5C0002F0FE021A611BE07B89DB11DBB203F07E
:103E6C000603DBB263F00F03DAB2FB681B681A615E
:103E7C003B687A680E49F86800F075F80346002B29
:103E8C0001D0012310E07B89DAB2FB681B681A6150
:103E9C003B687A680749F86800F065F80346002B20
:103EAC0001D0012300E0002318461837BD4680BD21
:103EBC00080001000200010080B584B000AFF8607A
:103ECC00B9603B601346FB7125E03B68B3F1FF3FE3
:103EDC0021D0FFF73DFA0246BB69D31A3A689A42E1
:103EEC0002D33B68002B16D1FB6800221A63FB68D7
:103EFC00202283F83D20FB68002283F83E20FB68DB
:103F0C001B6C43F02002FB681A64FB68002283F8E8
:103F1C003C20012323E0BB681B0CDBB2012B0DD131
:103F2C00FB681B685B69DA43BB6813409BB2002BD0
:103F3C000CBF01230023DBB21A460CE0FB681B68A4
:103F4C009B69DA43BB6813409BB2002B0CBF012367
:103F5C000023DBB21A46FB799A42B6D000231846EE
:103F6C001037BD4680BD80B584B000AFF860B96035
:103F7C007A603B6051E0FB681B685B6903F480630B
:103F8C00B3F5806F23D1FB681B681A68FB681B684C
:103F9C0042F400721A60FB681B686FF480625A610D
:103FAC00FB6800221A63FB68202283F83D20FB6823
:103FBC00002283F83E20FB681B6C43F00402FB6874
:103FCC001A64FB68002283F83C20012346E07B68DE
:103FDC00B3F1FF3F21D0FFF7BBF902463B68D31A80
:103FEC007A689A4202D37B68002B16D1FB680022B8
:103FFC001A63FB68202283F83D20FB68002283F8BB
:10400C003E20FB681B6C43F02002FB681A64FB68C3
:10401C00002283F83C20012320E0BB681B0CDBB2A0
:10402C00012B0CD1FB681B685B69DA43BB6813403E
:10403C009BB2002B14BF01230023DBB20BE0FB6807
:10404C001B689B69DA43BB6813409BB2002B14BFFF
:10405C0001230023DBB2002B8DD10023184610372F
:10406C00BD4680BD80B584B000AFF860B9607A60A1
:10407C002DE0F86800F078F80346002B01D00123FE
:10408C002DE0BB68B3F1FF3F21D0FFF761F9024689
:10409C007B68D31ABA689A4202D3BB68002B16D13C
:1040AC00FB6800221A63FB68202283F83D20FB6822
:1040BC00002283F83E20FB681B6C43F02002FB6857
:1040CC001A64FB68002283F83C20012307E0FB689C
:1040DC001B685B6903F08003802BCAD10023184650
:1040EC001037BD4680BD80B584B000AFF860B960B4
:1040FC007A602DE0F86800F037F80346002B01D009
:10410C0001232DE0BB68B3F1FF3F21D0FFF720F96D
:10411C0002467B68D31ABA689A4202D3BB68002B5A
:10412C0016D1FB6800221A63FB68202283F83D201D
:10413C00FB68002283F83E20FB681B6C43F02002D6
:10414C00FB681A64FB68002283F83C20012307E01B
:10415C00FB681B685B6903F00403042BCAD10023C2
:10416C0018461037BD4680BD80B483B000AF786070
:10417C007B681B685B6903F48063B3F5806F1BD1AC
:10418C007B681B686FF480625A617B6800221A633B
:10419C007B68202283F83D207B68002283F83E2038
:1041AC007B681B6C43F004027B681A647B680022FA
:1041BC0083F83C20012300E0002318460C37BD4651
:1041CC0080BC704780B400AF034B01221A6000BF63
:1041DC00BD4680BC704700BF20000E4280B400AFCB
:1041EC00034B00221A6000BFBD4680BC704700BF65
:1041FC0020000E4280B586B000AF78607B68002B43
:10420C0001D1012372E27B681B6803F00103002BD0
:10421C0000F08780924B5B6803F00C03042B0CD0EE
:10422C008F4B5B6803F00C03082B12D18C4B5B6833
:10423C0003F48033B3F5803F0BD1894B1B6803F437
:10424C000033002B6CD07B685B68002B68D101239A
:10425C004CE27B685B68B3F5803F06D1804B1B68F2
:10426C007F4A43F4803313602EE07B685B68002B3D
:10427C000CD17B4B1B687A4A23F480331360784B48
:10428C001B68774A23F4802313601DE07B685B680E
:10429C00B3F5A02F0CD1724B1B68714A43F48023E9
:1042AC0013606F4B1B686E4A43F4803313600BE052
:1042BC006B4B1B686A4A23F480331360684B1B6892
:1042CC00674A23F4802313607B685B68002B13D050
:1042DC00FFF73EF8386108E0FFF73AF802463B6911
:1042EC00D31A642B01D9032300E25D4B1B6803F442
:1042FC000033002BF0D014E0FFF72AF8386108E007
:10430C00FFF726F802463B69D31A642B01D9032325
:10431C00ECE1534B1B6803F40033002BF0D100E0AD
:10432C0000BF7B681B6803F00203002B63D04C4B6F
:10433C005B6803F00C03002B0BD0494B5B6803F05C
:10434C000C03082B1CD1464B5B6803F48033002B09
:10435C0016D1434B1B6803F00203002B05D07B687E
:10436C001B69012B01D00123C0E13D4B1B6823F0DD
:10437C00F8027B685B69DB00394913430B603AE058
:10438C007B681B69002B20D0364B01221A60FEF78C
:10439C00DFFF386108E0FEF7DBFF02463B69D31A0A
:1043AC00022B01D90323A1E12D4B1B6803F002035F
:1043BC00002BF0D02A4B1B6823F0F8027B685B695A
:1043CC00DB00274913430B6015E0264B00221A60D3
:1043DC00FEF7BEFF386108E0FEF7BAFF02463B6904
:1043EC00D31A022B01D9032380E11D4B1B6803F068
:1043FC000203002BF0D17B681B6803F00803002B31
:10440C003AD07B689B69002B19D0174B01221A609C
:10441C00FEF79EFF386108E0FEF79AFF02463B6903
:10442C00D31A022B01D9032360E10D4B5B6A03F015
:10443C000203002BF0D0012000F0D8FA1CE00A4B4C
:10444C0000221A60FEF784FF38610FE0FEF780FF50
:10445C0002463B69D31A022B08D9032346E100BF5D
:10446C00001002400000424280044242924B5B6AC0
:10447C0003F00203002BE9D17B681B6803F00403F3
:10448C00002B00F0A6800023FB758B4BDB6903F03F
:10449C008053002B0DD1884BDB69874A43F0805346
:1044AC00D361854BDB6903F08053BB60BB68012390
:1044BC00FB75824B1B6803F48073002B18D17F4B68
:1044CC001B687E4A43F480731360FEF741FF38612A
:1044DC0008E0FEF73DFF02463B69D31A642B01D975
:1044EC00032303E1754B1B6803F48073002BF0D09E
:1044FC007B68DB68012B06D16F4B1B6A6E4A43F05D
:10450C00010313622DE07B68DB68002B0CD16A4B36
:10451C001B6A694A23F001031362674B1B6A664AE4
:10452C0023F0040313621CE07B68DB68052B0CD1C1
:10453C00614B1B6A604A43F0040313625E4B1B6AB7
:10454C005D4A43F0010313620BE05B4B1B6A5A4A52
:10455C0023F001031362584B1B6A574A23F00403E0
:10456C0013627B68DB68002B15D0FEF7F1FE386117
:10457C000AE0FEF7EDFE02463B69D31A41F288329F
:10458C00934201D90323B1E04B4B1B6A03F00203A6
:10459C00002BEED014E0FEF7DBFE38610AE0FEF7EC
:1045AC00D7FE02463B69D31A41F28832934201D9B5
:1045BC0003239BE0404B1B6A03F00203002BEED15C
:1045CC00FB7D012B05D13C4BDB693B4A23F080532F
:1045DC00D3617B68DB69002B00F08780364B5B680E
:1045EC0003F00C03082B61D07B68DB69022B46D1EE
:1045FC00334B00221A60FEF7ABFE386108E0FEF781
:10460C00A7FE02463B69D31A022B01D903236DE0A6
:10461C00294B1B6803F00073002BF0D17B681B6ADD
:10462C00B3F5803F08D1244B5B6823F400327B68E0
:10463C009B68214913434B601F4B5B6823F4741236
:10464C007B68196A7B685B6A0B431B4913434B609D
:10465C001B4B01221A60FEF77BFE386108E0FEF767
:10466C0077FE02463B69D31A022B01D903233DE0A6
:10467C00114B1B6803F00073002BF0D035E0104B8E
:10468C0000221A60FEF764FE386108E0FEF760FE57
:10469C0002463B69D31A022B01D9032326E0064BB1
:1046AC001B6803F00073002BF0D11EE07B68DB6904
:1046BC00012B07D1012319E00010024000700040CB
:1046CC00600042420B4B5B68FB60FB6803F480327A
:1046DC007B681B6A9A4206D1FB6803F470127B68F4
:1046EC005B6A9A4201D0012300E000231846183778
:1046FC00BD4680BD0010024080B584B000AF78602C
:10470C0039607B68002B01D10123D0E06A4B1B6818
:10471C0003F007033A689A4210D9674B1B6823F0E1
:10472C00070265493B6813430B60634B1B6803F03E
:10473C0007033A689A4201D00123B8E07B681B68F2
:10474C0003F00203002B20D07B681B6803F00403EA
:10475C00002B05D0594B5B68584A43F4E063536017
:10476C007B681B6803F00803002B05D0534B5B6878
:10477C00524A43F460535360504B5B6823F0F00291
:10478C007B689B684D4913434B607B681B6803F047
:10479C000103002B40D07B685B68012B07D1474B92
:1047AC001B6803F40033002B15D101237FE07B68D9
:1047BC005B68022B07D1414B1B6803F00073002B85
:1047CC0009D1012373E03D4B1B6803F00203002B5E
:1047DC0001D101236BE0394B5B6823F003027B684A
:1047EC005B68364913434B60FEF7B2FDF8600AE094
:1047FC00FEF7AEFD0246FB68D31A41F288329342B3
:10480C0001D9032353E02D4B5B6803F00C027B684A
:10481C005B689B009A42EBD1274B1B6803F00703A4
:10482C003A689A4210D2244B1B6823F007022249A3
:10483C003B6813430B60204B1B6803F007033A687B
:10484C009A4201D0012332E07B681B6803F0040319
:10485C00002B08D0194B5B6823F4E0627B68DB68A3
:10486C00164913434B607B681B6803F00803002B4D
:10487C0009D0124B5B6823F460527B681B69DB0028
:10488C000E4913434B6000F021F802460B4B5B685A
:10489C001B0903F00F030A49CB5C22FA03F3094A04
:1048AC001360094B1B681846FEF710FD00231846D1
:1048BC001037BD4680BD00BF0020024000100240F2
:1048CC0018660008F0020020FC02002090B48AB0A8
:1048DC0000AF294B3C1D0FCB84E80F0040F20123A5
:1048EC003B800023FB610023BB6100237B62002320
:1048FC007B6100233B62214B5B68FB61FB6903F02E
:10490C000C03042B02D0082B03D02BE01C4B3B6276
:10491C002BE0FB699B0C03F00F0328333B4413F88B
:10492C00243C7B61FB6903F48033002B12D0134BC6
:10493C005B685B0C03F0010328333B4413F8283C01
:10494C00BB617B690E4A03FB02F2BB69B2FBF3F35A
:10495C007B6204E07B690B4A02FB03F37B627B6A9C
:10496C003B6202E0064B3B6200BF3B6A18462837AD
:10497C00BD4690BC704700BF306400080010024078
:10498C0000127A0000093D0080B400AF024B1B6896
:10499C001846BD4680BC7047F002002080B500AFC1
:1049AC00FFF7F2FF0246054B5B681B0A03F0070397
:1049BC000349CB5C22FA03F3184680BD0010024079
:1049CC002866000880B500AFFFF7DEFF0246054BF6
:1049DC005B68DB0A03F007030349CB5C22FA03F3A1
:1049EC00184680BD001002402866000880B485B0CF
:1049FC0000AF78600A4B1B680A4AA2FB03235B0AD0
:104A0C007A6802FB03F3FB6000BFFB685A1EFA6076
:104A1C00002BF9D100BF00BF1437BD4680BC7047D6
:104A2C00F0020020D34D621080B586B000AF7860E4
:104A3C0000233B610023FB607B681B6803F00103D0
:104A4C00002B7DD00023FB754F4BDB6903F08053AB
:104A5C00002B0DD14C4BDB694B4A43F08053D36197
:104A6C00494BDB6903F08053BB60BB680123FB75CA
:104A7C00464B1B6803F48073002B18D1434B1B6807
:104A8C00424A43F480731360FEF762FC386108E01D
:104A9C00FEF75EFC02463B69D31A642B01D9032353
:104AAC006DE03A4B1B6803F48073002BF0D0364B4F
:104ABC001B6A03F44073FB60FB68002B2ED07B68F1
:104ACC005B6803F44073FA689A4227D02E4B1B6A3A
:104ADC0023F44073FB602E4B01221A602C4B0022F6
:104AEC001A60294AFB681362FB6803F00103002B70
:104AFC0014D0FEF72DFC38610AE0FEF729FC0246C3
:104B0C003B69D31A41F28832934201D9032336E030
:104B1C001D4B1B6A03F00203002BEED01A4B1B6AD1
:104B2C0023F440727B685B68174913430B62FB7D6F
:104B3C00012B05D1144BDB69134A23F08053D3614D
:104B4C007B681B6803F00203002B08D00E4B5B68DC
:104B5C0023F440427B689B680B4913434B607B6892
:104B6C001B6803F01003002B08D0074B5B6823F481
:104B7C0080027B68DB68044913434B6000231846B2
:104B8C001837BD4680BD00BF0010024000700040C9
:104B9C004004424290B58DB000AF7860584B07F19D
:104BAC000C040FCB84E80F0040F201233B8100235F
:104BBC007B620023FB6200233B620023FB6100232A
:104BCC00BB627B68102B0AD07B68102B00F28E80A6
:104BDC007B68012B49D07B68022B79D086E0494B4E
:104BEC005B68FB61474B1B6803F08073002B7FD025
:104BFC00FB699B0C03F00F0330333B4413F8243C4C
:104C0C003B62FB6903F48033002B17D03D4B5B6890
:104C1C005B0C03F0010330333B4413F8283C7B62FC
:104C2C00FB6903F48033002B0DD0374A7B6AB2FB4F
:104C3C00F3F23B6A02FB03F3FB6204E03B6A334A88
:104C4C0002FB03F3FB622F4B5B6803F48003B3F5A9
:104C5C00800F02D1FB6ABB624AE0FB6A5B002C4A04
:104C6C00A2FB03235B08BB6242E0264B1B6AFB6181
:104C7C00FB6903F44073B3F5807F08D1FB6903F043
:104C8C000203002B03D04FF40043BB621FE0FB690F
:104C9C0003F44073B3F5007F09D11A4B5B6A03F040
:104CAC000203002B03D049F64043BB620FE0FB69C3
:104CBC0003F44073B3F5407F1CD1124B1B6803F413
:104CCC000033002B16D04FF22443BB6212E011E0EC
:104CDC00FFF778FE02460B4B5B689B0B03F003035C
:104CEC0001335B00B2FBF3F3BB6204E000BF02E0F4
:104CFC0000BF00E000BFBB6A18463437BD4690BD0C
:104D0C00406400080010024000127A0000093D00C7
:104D1C00ABAAAAAA80B584B000AF78600023FB6070
:104D2C007B68002B01D1012384E07B685B7CDBB2C8
:104D3C00002B05D17B6800221A747868FDF77CFA89
:104D4C007B6802225A74786800F0F4FA0346002B50
:104D5C0004D07B6804225A7401236BE0786800F05D
:104D6C00ADFB0346002B04D07B6804225A7401234C
:104D7C0060E07B681B685A687B681B6822F007023E
:104D8C005A607B689B68002B05D02C4B1B6B2B4A05
:104D9C0023F001031363294BDB6A23F460727B68F5
:104DAC009B6826491343CB627B685B68B3F1FF3F7A
:104DBC0003D07B685B68FB600EE00120FFF7EAFE26
:104DCC00F860FB68002B04D17B6804225A74012321
:104DDC0030E0FB68013BFB607B681B689B6823F041
:104DEC000F01FB681A0C7B681B680A439A607B688E
:104DFC001B68DB681B0C1B04FA6891B27A6812689A
:104E0C000B43D360786800F081FB0346002B04D081
:104E1C007B6804225A7401230CE07B680022DA734D
:104E2C007B6801225A737B6801229A737B6801228A
:104E3C005A74002318461037BD4680BD006C0040E4
:104E4C0090B587B000AFF860B9607A6000237B61E1
:104E5C0000233B61FB68002B02D0BB68002B01D107
:104E6C00012380E0FB681B7C012B01D102237AE03B
:104E7C00FB6801221A74FB6802225A747B68002BAF
:104E8C0013D1BB681B781A464FF4616303FB02F223
:104E9C00BB685B7819460B461B015B1A9B001344DD
:104EAC00BA68927813447B611EE0BB681B78184685
:104EBC0000F071FB03461A464FF4616303FB02F4E6
:104ECC00BB685B78184600F066FB03461A4613462F
:104EDC001B019B1A9B001C44BB689B78184600F076
:104EEC005AFB034623447B617969F86800F07FFA2A
:104EFC000346002B07D0FB6804225A74FB6800227F
:104F0C001A7401232FE0FB681B685A68FB681B6846
:104F1C0022F005025A60F86800F090FA38613B699B
:104F2C00B3F1FF3F18D03A697B699A4214D23B69BE
:104F3C0003F5A83303F5C0733B613969F86800F0D9
:104F4C0096FA0346002B07D0FB6804225A74FB68C0
:104F5C0000221A74012306E0FB6801225A74FB68D4
:104F6C0000221A74002318461C37BD4690BD000061
:104F7C0080B588B000AFF860B9607A600023BB617F
:104F8C000023FB6100237B6100233B61FB68002B4A
:104F9C0002D0BB68002B01D10123B5E0FB681B6874
:104FAC005B6803F00403002B01D00123ACE0F8682C
:104FBC0000F0EDF9B861BB69554AA2FB0323DB0A8B
:104FCC003B61BA69524BA3FB0213DB0A4FF46161DC
:104FDC0001FB03F3D31A4F4AA2FB03235B09DAB29A
:104FEC00BB685A70BB694A4AA2FB0312D20A4FF43F
:104FFC00616101FB02F29A1A464BA3FB0213590999
:10500C000B461B015B1A9B00D11ACAB2BB689A7083
:10501C003B69172B55D93B693F4AA2FB03231B095C
:10502C007B6139693C4BA3FB01231A0913465B00D6
:10503C001344DB00CA1AD2B2BB681A70F86800F0CD
:10504C00FDF9F861FB69B3F1FF3F08D0FA69BB6960
:10505C009A4204D9FA69BB69D31AFB6102E04FF09A
:10506C00FF33FB617B692D4A02FB03F3BA69D31A48
:10507C00BB61B969F86800F0BAF90346002B01D09E
:10508C00012341E0FB69B3F1FF3F0CD0FA69BB6926
:10509C001344FB61F969F86800F0E9F90346002B49
:1050AC000AD0012330E0F969F86800F0E0F9034612
:1050BC00002B01D0012327E07969F86800F088FA09
:1050CC0003E03B69DAB2BB681A707B68002B1AD01C
:1050DC00BB681B78184600F041FA03461A46BB68B9
:1050EC001A70BB685B78184600F038FA03461A460B
:1050FC00BB685A70BB689B78184600F02FFA0346C1
:10510C001A46BB689A70002318462037BD4680BDEE
:10511C00C5B3A29189888888ABAAAAAA805101003C
:10512C0080B588B000AFF860B9607A600023FB618D
:10513C000023BB6100237B61FB68002B02D0BB68A2
:10514C00002B01D1012397E0FB681B7C012B01D1C3
:10515C00022391E0FB6801221A74FB6802225A7444
:10516C007B68002B0CD1BB68DA78FB68DA73BB6800
:10517C005A78FB685A73BB689A78FB689A731AE082
:10518C00BB68DB78184600F006FA03461A46FB6843
:10519C00DA73BB685B78184600F0FDF903461A46D3
:1051AC00FB685A73BB689B78184600F0F4F9034609
:1051BC001A46FB689A73FB68DB7B1846FB68597BC5
:1051CC00FB689B7B1A4600F0DFFA03461A46FB6825
:1051DC001A73FB681A7BBB681A70F86800F0D7F872
:1051EC00F861FB69264AA2FB0323DB0A7B617B691E
:1051FC00182B3AD97B69234AA2FB03231B09224AA9
:10520C0002FB03F3FA69D31AFB61F969F86800F041
:10521C00EEF80346002B07D0FB6804225A74FB6897
:10522C0000221A74012327E0F86800F007F9B8612E
:10523C00BB69B3F1FF3F18D0BA69FB699A4214D22B
:10524C00BB6903F5A83303F5C073BB61B969F86892
:10525C0000F00DF90346002B07D0FB6804225A74AA
:10526C00FB6800221A74012306E0FB6801225A74C1
:10527C00FB6800221A74002318462037BD4680BDF7
:10528C00C5B3A291ABAAAAAA8051010080B586B081
:10529C0000AFF860B9607A6007F1140300210A4688
:1052AC001A800A469A70FB68002B02D0BB68002B50
:1052BC0001D101233AE007F1140300221946F868E2
:1052CC00FFF756FE0346002B01D001232EE0FB68AE
:1052DC001A7BBB681A70FB68DA7BBB68DA70FB68F8
:1052EC005A7BBB685A70FB689A7BBB689A707B6868
:1052FC00002B1AD0BB68DB78184600F02FF9034658
:10530C001A46BB68DA70BB685B78184600F026F961
:10531C0003461A46BB685A70BB689B78184600F067
:10532C001DF903461A46BB689A70002318461837B5
:10533C00BD4680BD80B584B000AF78600023FB60B3
:10534C007B68002B01D101231DE07B681B685A6828
:10535C007B681B6822F008025A60FDF7F9FFF860C1
:10536C0009E0FDF7F5FF0246FB68D31AB3F57A7F27
:10537C0001D9032307E07B681B685B6803F0080313
:10538C00002BEED0002318461037BD4680BD80B4EC
:10539C0087B000AF786000237B8200233B82002320
:1053AC00FB8100237B617B681B689B697B827B682C
:1053BC001B68DB69FB817B681B689B693B827A8A73
:1053CC003B8A9A4208D03B8A1A047B681B68DB69CB
:1053DC009BB213437B6104E07B8A1A04FB89134361
:1053EC007B617B6918461C37BD4680BC704780B515
:1053FC0084B000AF786039600023FB73786800F0EC
:10540C005DF80346002B02D00123FB7311E07B688F
:10541C001B683A68120C9A617B681B683A6892B2F6
:10542C00DA61786800F072F80346002B01D0012392
:10543C00FB73FB7B18461037BD4680BD80B485B02E
:10544C0000AF78600023FB810023BB817B681B6865
:10545C001B6AFB817B681B685B6ABB81FB891A0436
:10546C00BB89134318461437BD4680BC704780B5C2
:10547C0084B000AF786039600023FB73786800F06B
:10548C001DF80346002B02D00123FB7311E07B684F
:10549C001B683A68120C1A627B681B683A6892B2F5
:1054AC005A62786800F032F80346002B01D00123D1
:1054BC00FB73FB7B18461037BD4680BD80B584B0AE
:1054CC0000AF78600023FB60FDF742FFF86009E055
:1054DC00FDF73EFF0246FB68D31AB3F57A7F01D97C
:1054EC0003230FE07B681B685B6803F02003002B31
:1054FC00EED07B681B685A687B681B6842F0100210
:10550C005A60002318461037BD4680BD80B584B064
:10551C0000AF78600023FB607B681B685A687B686F
:10552C001B6822F010025A60FDF712FFF86009E0C8
:10553C00FDF70EFF0246FB68D31AB3F57A7F01D94B
:10554C00032307E07B681B685B6803F02003002BD8
:10555C00EED0002318461037BD4680BD80B485B010
:10556C0000AF0346FB710023FB6005E0FB680133D1
:10557C00FB60FB790A3BFB71FB79092BF6D8FB68C6
:10558C00DBB21B01DAB2FB791343DBB218461437DA
:10559C00BD4680BC704780B485B000AF0346FB713C
:1055AC000023FB60FB791B09DBB21A4613469B00F8
:1055BC0013445B00FB60FB7903F00F03DAB2FB686A
:1055CC00DBB21344DBB218461437BD4680BC7047BF
:1055DC0080B586B000AF7860396000237B61002312
:1055EC003B610023FB600023BB607B68DB7B7B6142
:1055FC007B685B7B3B617B689B7BFB600023BB60B8
:10560C006FE03B69012B11D03B69032B0ED03B693A
:10561C00052B0BD03B69072B08D03B69082B05D019
:10562C003B690A2B02D03B690C2B17D1FB681E2B54
:10563C0003D8FB680133FB6050E03B690C2B05D0B1
:10564C003B6901333B610123FB6047E001233B6174
:10565C000123FB607B6901337B613FE03B69042BD9
:10566C0008D03B69062B05D03B69092B02D03B695E
:10567C000B2B0CD1FB681D2B03D8FB680133FB6093
:10568C002CE03B6901333B610123FB6026E03B6965
:10569C00022B23D1FB681B2B03D8FB680133FB6067
:1056AC001CE0FB681C2B11D17B699BB2184600F0E7
:1056BC0039F80346002B03D0FB680133FB600DE087
:1056CC003B6901333B610123FB6007E0FB681D2B49
:1056DC0004D13B6901333B610123FB60BB6801339F
:1056EC00BB60BA683B689A428BD37B69DAB27B6841
:1056FC00DA733B69DAB27B685A73FB68DAB27B689F
:10570C009A733B69DBB2FA68D2B21946786900F039
:10571C003BF803461A467B681A7300BF1837BD4620
:10572C0080BD000080B483B000AF0346FB80FB88D3
:10573C0003F003039BB2002B01D000231DE0FB8878
:10574C00104AA2FB03125209642101FB02F29B1ABC
:10575C009BB2002B01D001230FE0FB88094AA2FB6E
:10576C000312D2094FF4C87101FB02F29B1A9BB2CF
:10577C00002B01D1012300E0002318460C37BD4655
:10578C0080BC70471F85EB5180B485B000AF78604A
:10579C000B46FB701346BB700023BB600023FB6001
:1057AC007B6803F5FA63BB60FB78022B2DD8FA7883
:1057BC0013465B001344DB009B1A2C4AA2FB032309
:1057CC005A08BB781A44BB681A44BB68013B9B0857
:1057DC001A44BB68013B2649A1FB03135B09D21A8F
:1057EC00BB68013B2249A1FB0313DB0913441A1DBF
:1057FC00204BA3FB0213D11A49080B4499080B4602
:10580C00DB005B1AD31AFB6029E0FA7813465B00C5
:10581C001344DB009B1A154AA2FB03235A08BB78DE
:10582C001A44BB681A44BB689B081A44BB681049ED
:10583C00A1FB03135B09D21ABB680D49A1FB03132F
:10584C00DB0913449A1C0B4BA3FB0213D11A490816
:10585C000B4499080B46DB005B1AD31AFB60FB6800
:10586C00DBB218461437BD4680BC7047398EE3381E
:10587C001F85EB512549922480B582B000AF78602A
:10588C007B681B681B6803F00103002B27D07B6827
:10589C001B685B6803F00103002B20D07B681B683E
:1058AC005B6803F00403002B0BD0786800F024F83D
:1058BC007B681B686FF004025A607B6804225A7480
:1058CC0005E0786800F00FF87B6801225A747B6859
:1058DC001B685A687B681B6822F001025A6000BF83
:1058EC000837BD4680BD80B483B000AF786000BF80
:1058FC000C37BD4680BC704780B483B000AF786075
:10590C0000BF0C37BD4680BC7047000080B487B028
:10591C0000AFF860B9607A6000237B61074B7B6154
:10592C00BB689B007A6913447B617B697A6892B28D
:10593C001A6000BF1C37BD4680BC7047006C00402D
:10594C0080B485B000AF786039600023FB60002321
:10595C00BB60084BFB603B689B00FA681344FB6020
:10596C00FB681B689BB2BB60BB6818461437BD460E
:10597C0080BC7047006C0040014B1868704700BF3A
:10598C000403002070B500250C4E0D4CA41BA41074
:10599C00A54209D100F080FC00250A4E0A4CA41B3C
:1059AC00A410A54205D170BD56F825309847013595
:1059BC00EEE756F8253098470135F2E71C840008CD
:1059CC001C8400081C8400082084000830B50024C6
:1059DC00A24201D1002007E0035D01340D1915F836
:1059EC00015CAB42F4D0581B30BD10B5431E0A44C9
:1059FC00914200D110BD11F8014B03F8014FF7E7AC
:105A0C0003460244934200D1704703F8011BF9E7A7
:105A1C0038B5134B1C68A36B7BB9182000F04CF8FD
:105A2C00104A114BA063C0E90023104B0122836084
:105A3C000B2383810023C0E90423A16B0C480A6962
:105A4C004B6950430B4C04FB0300A2FB042303449F
:105A5C00541C43F10005C1E9044525F0004038BD54
:105A6C00040300200E33CDAB34126DE6ECDE0500E2
:105A7C002DF451582D7F954C0EB46FF0004100B5AC
:105A8C009CB01DAB029006900791049108480949FF
:105A9C0053F8042B0591006802A9019300F014F946
:105AAC000022029B1A701CB05DF804EB03B0704727
:105ABC00040300200802FFFF024B0146186800F0A7
:105ACC004FB800BF0403002038B50546002943D069
