:020000040800F2
:10000000005000200D2E0008312D0008372D00086B
:100010003D2D0008432D0008492D00080000000078
:100020000000000000000000000000004F2D00084C
:100030005B2D000800000000672D0008732D0008EC
:10004000552E0008552E0008552E0008812D000859
:10005000552E0008552E0008552E0008552E000874
:10006000552E0008552E0008552E0008552E000864
:10007000552E0008552E0008552E0008552E000854
:10008000552E0008552E0008552E0008552E000844
:10009000552E0008552E0008552E0008552E000834
:1000A000552E0008552E0008552E0008552E000824
:1000B000552E0008552E0008552E0008552E000814
:1000C000552E0008552E0008552E0008552E000804
:1000D000552E0008552E0008552E0008552E0008F4
:1000E000552E0008552E0008552E0008000000006F
:1000F0000000000000000000000000000000000000
:0C01000000000000000000005FF808F1A3
:10010C0010B5054C237833B9044B13B10448AFF345
:10011C0000800123237010BD6C0300200000000040
:10012C006875000808B5034B1BB103490348AFF3CE
:10013C00008008BD000000007003002068750008F6
:10014C0080B500AF4FF400410A4804F0B3F9034600
:10015C00002B0CD10A2003F023FF4FF4004105487B
:10016C0004F0A8F90346002B01D1012300E0002381
:10017C00184680BD000C014080B500AF02F018FDA0
:10018C0000BF80BD80B58AB004AF07F10C0300221C
:10019C001A605A601A81FFF7D3FF0346002B04D074
:1001AC00FFF7EAFF002300F044BD02F067FE02F007
:1001BC0085FEA54B1B78FB71A34BDB783B72A24BE6
:1001CC001B797B7202F0D0FFFB79A04AA2FB0323C0
:1001DC00DB08DAB29E4B1B789A420AD09D4B002268
:1001EC001A70FB79994AA2FB0323DB08DAB2984B0D
:1001FC001A70FA79954BA3FB0213D9080B469B0096
:10020C000B445B00D31ADAB2934B1B789A420FD093
:10021C00924B00221A70FA798C4BA3FB0213D9086B
:10022C000B469B000B445B00D31ADAB28A4B1A7054
:10023C003B7A864AA2FB0323DB08DAB2884B1B7895
:10024C009A420AD0874B00221A703B7A7F4AA2FB53
:10025C000323DB08DAB2824B1A703A7A7B4BA3FB8E
:10026C000213D9080B469B000B445B00D31ADAB27D
:10027C007D4B1B789A420FD07C4B00221A703A7A35
:10028C00724BA3FB0213D9080B469B000B445B007B
:10029C00D31ADAB2744B1A707B7A6C4AA2FB032322
:1002AC00DB08DAB2724B1B789A420AD0714B0022EF
:1002BC001A707B7A654AA2FB0323DB08DAB26C4B1B
:1002CC001A707A7A614BA3FB0213D9080B469B0078
:1002DC000B445B00D31ADAB2674B1B789A4212D0EC
:1002EC00664B01221A70664B00221A707A7A574BB1
:1002FC00A3FB0213D9080B469B000B445B00D31ADB
:10030C00DAB25D4B1A70FA79504BA3FB0213D90881
:10031C000B469B000B445B00D31ADBB2002B40F066
:10032C00B7803B7A092B00F2B3803A7A474BA3FB98
:10033C000213D9080B469B000B445B00D31ADBB2AB
:10034C00002B40F0A5807B7A092B00F2A1807A7AF1
:10035C003E4BA3FB0213D9080B469B000B445B00DE
:10036C00D31ADBB2002B40F093803A4B1B7801334D
:10037C00DAB2384B1A70374B1B78182B1DD907F192
:10038C000C030A220021184606F09CFCFB792F4A2C
:10039C00A2FB0323DB08DBB21A4607F10C03394935
:1003AC00184606F0CBFC07F10C0200230093364BE9
:1003BC001421052003F0FDFB87E007F10C030A2252
:1003CC000021184606F07EFCFB79204AA2FB032391
:1003DC00DB08DBB21A4607F10C032A49184606F073
:1003EC00ADFC1E4B1B7807F10C010022029201930D
:1003FC0018230093244B0A461421052003F028FCF3
:10040C0007F10C030A220021184606F05BFCFB796D
:10041C00013B1E4A82FB03129210DB17D21A07F122
:10042C000C031849184606F089FC0C4B1B7807F195
:10043C000C01002201920093134B0A461421052053
:10044C0003F0DDFB41E000BF80050020CDCCCCCC1F
:10045C0088030020890300208A0300208B030020DE
:10046C008C0300208D0300208E0300208F030020BE
:10047C00900300209103002092030020930300209E
:10048C009403002080750008788B00086766666608
:10049C0007F10C030A220021184606F013FCFB7925
:1004AC00C14AA2FB0323DB08DBB21A4607F10C039B
:1004BC00BE49184606F042FC07F10C0200230093DB
:1004CC00BB4B1421052003F074FB3B7A092B00F283
:1004DC009D803A7AB44BA3FB0213D9080B469B00C0
:1004EC000B445B00D31ADBB2002B40F08F807B7A7D
:1004FC00092B00F28B807A7AAB4BA3FB0213D90841
:10050C000B469B000B445B00D31ADBB2002B7DD156
:10051C00A84B1B780133DAB2A64B1A70A54B1B788B
:10052C00182B22D907F10C030A220021184606F0D9
:10053C00C9FBFA799C4BA3FB0213D9080B469B0011
:10054C000B445B00D31ADBB21A4607F10C03974934
:10055C00184606F0F3FB07F10C0200230093944BB2
:10056C001421192003F025FB72E007F10C030A2279
:10057C000021184606F0A6FBFA798B4BA3FB02135D
:10058C00D9080B469B000B445B00D31ADBB21A460E
:10059C0007F10C038549184606F0D0FB854B1B78F8
:1005AC0007F10C0100220292019318230093804B57
:1005BC000A461421192003F04BFB07F10C030A2205
:1005CC000021184606F07EFBFB795A1E7A4B83FB02
:1005DC0002139910D317C91A0B469B000B445B00EE
:1005EC00D11A07F10C030A467049184606F0A6FB0F
:1005FC00704B1B7807F10C010022019200936C4B9D
:10060C000A461421192003F0FAFA21E007F10C0331
:10061C000A220021184606F055FBFA79624BA3FB1F
:10062C000213D9080B469B000B445B00D31ADBB2B8
:10063C001A4607F10C035D49184606F07FFB07F1DB
:10064C000C02002300935A4B1421192003F0B1FA29
:10065C0007F10C030A220021184606F033FB7B7AC3
:10066C0003F00103DBB2002B08D100230093504BA5
:10067C00524A14212D2003F09CFA07E0002300932A
:10068C004B4B4F4A14212D2003F093FA3A7A464BE8
:10069C00A3FB0213D9080B469B000B445B00D31A37
:1006AC00DBB2002B40F090807B7A092B00F28C801F
:1006BC007A7A3D4BA3FB0213D9080B469B000B44E3
:1006CC005B00D31ADBB2002B7ED13E4B1B7801337F
:1006DC00DAB23C4B1A703B4B1B78182B1DD907F127
:1006EC000C030A220021184606F0ECFA3B7A2E4A3B
:1006FC00A2FB0323DB08DBB21A4607F10C032B49E0
:10070C00184606F01BFB07F10C0200230093284B44
:10071C0014213C2003F04DFA73E007F10C030A227C
:10072C000021184606F0CEFA3B7A1F4AA2FB03239F
:10073C00DB08DBB21A4607F10C031C49184606F01D
:10074C00FDFA204B1B7807F10C0100220292019359
:10075C0018230093164B0A4614213C2003F078FA18
:10076C0007F10C030A220021184606F0ABFA3B7A7B
:10077C00013B114A82FB03129210DB17D21A07F1CC
:10078C000C030A49184606F0D9FA0E4B1B7807F1F0
:10079C000C01002201920093054B0A4614213C20C7
:1007AC0003F02DFA2DE000BFCDCCCCCC8075000829
:1007BC00788B00088B0300206766666684750008DA
:1007CC00887500088D03002007F10C030A22002114
:1007DC00184606F077FA3B7AC74AA2FB0323DB08DC
:1007EC00DBB21A4607F10C03C449184606F0A6FA08
:1007FC0007F10C0200230093C14B14213C2003F0A1
:10080C00D8F97B7A092B00F28B807A7ABA4BA3FB4E
:10081C000213D9080B469B000B445B00D31ADBB2C6
:10082C00002B7DD1B74B1B780133DAB2B54B1A7064
:10083C00B44B1B78182B22D907F10C030A22002188
:10084C00184606F03FFA3A7AAB4BA3FB0213D908D1
:10085C000B469B000B445B00D31ADBB21A4607F124
:10086C000C03A649184606F069FA07F10C0200239E
:10087C000093A34B1421502003F09BF972E007F175
:10088C000C030A220021184606F01CFA3A7A9A4BFD
:10089C00A3FB0213D9080B469B000B445B00D31A35
:1008AC00DBB21A4607F10C039449184606F046FAD7
:1008BC00944B1B7807F10C01002202920193182330
:1008CC0000938F4B0A461421502003F0C1F907F115
:1008DC000C030A220021184606F0F4F93B7A5A1E42
:1008EC00894B83FB02139910D317C91A0B469B0033
:1008FC000B445B00D11A07F10C030A467F491846DA
:10090C0006F01CFA7F4B1B7807F10C0100220192B8
:10091C0000937B4B0A461421502003F070F921E020
:10092C0007F10C030A220021184606F0CBF93A7A9B
:10093C00714BA3FB0213D9080B469B000B445B00C5
:10094C00D31ADBB21A4607F10C036C49184606F0B1
:10095C00F5F907F10C0200230093694B1421502088
:10096C0003F027F97A7A644BA3FB0213D9080B46E0
:10097C009B000B445B00D31ADBB2002B6DD1634B95
:10098C001B780133DAB2614B1A70604B1B78102B59
:10099C001DD907F10C030A220021184606F092F922
:1009AC007B7A554AA2FB0323DB08DBB21A4607F11C
:1009BC000C035249184606F0C1F907F10C0200234A
:1009CC000093534B1C21672003F0F3F862E007F10E
:1009DC000C030A220021184606F074F97B7A464A69
:1009EC00A2FB0323DB08DBB21A4607F10C034349D5
:1009FC00184606F0A3F9454B1B7807F10C010022B1
:100A0C000292019310230093414B0A461C2167204C
:100A1C0003F01EF907F10C030A220021184606F018
:100A2C0051F97B7A013B384A82FB03129210DB1797
:100A3C00D21A07F10C033149184606F07FF9334BF3
:100A4C001B7807F10C01002201920093304B0A46EF
:100A5C001C21672003F0D3F81CE007F10C030A22D9
:100A6C000021184606F02EF97B7A234AA2FB0323B9
:100A7C00DB08DBB21A4607F10C032049184606F0D6
:100A8C005DF907F10C0200230093214B1C21672018
:100A9C0003F08FF81F4B1B78002B00F08F801E4B40
:100AAC001B780133DAB21C4B1A701B4B1B78102BC2
:100ABC0034D907F10C030A220021184606F002F97A
:100ACC007A7A0D4BA3FB0213D9080B469B000B44FF
:100ADC005B00D31ADBB21A4607F10C030749184620
:100AEC0006F02CF907F10C0200230093084B1C2193
:100AFC00742003F05EF861E0CDCCCCCC807500089E
:100B0C00788B00088F0300206766666691030020CF
:100B1C00BC8D0008930300209403002007F10C0304
:100B2C000A220021184606F0CDF87A7A434BA3FB33
:100B3C000213D9080B469B000B445B00D31ADBB2A3
:100B4C001A4607F10C033E49184606F0F7F83D4BE0
:100B5C001B7807F10C0100220292019310230093E1
:100B6C00394B0A461C21742003F072F807F10C0370
:100B7C000A220021184606F0A5F87B7A5A1E334B40
:100B8C0083FB02139910D317C91A0B469B000B4415
:100B9C005B00D11A07F10C030A462949184606F0E6
:100BAC00CDF8284B1B7807F10C0100220192009321
:100BBC00254B0A461C21742003F021F801230093D5
:100BCC000C2310220C21742002F02DFE0123009323
:100BDC000C2310220C21672002F025FE0123009328
:100BEC00142314220021502002F01DFE0123009337
:100BFC001423142200213C2002F015FE0123009343
:100C0C00142314220021192002F00DFE012300935D
:100C1C00142314220021052002F005FE02F0B0FA84
:100C2C00FFF78EFA0346002B3FF4B5AAFFF7A4FAA0
:100C3C00002318461837BD4680BD00BFCDCCCCCCA8
:100C4C008075000894030020BC8D000867666666FA
:100C5C0080B588B002AF07F10C0300221A605A600D
:100C6C001A8102F00BF902F029F92D4B1B78FB715C
:100C7C002B4BDB783B722A4B1B797B7202F074FA9C
:100C8C007B7A03F00103DBB2002B11D1FB791A46FE
:100C9C003B7A07F10C00234906F050F807F10C02DF
:100CAC0000230093204B1421032002F082FF10E05C
:100CBC00FB791A463B7A07F10C001C4906F03EF80A
:100CCC0007F10C0200230093174B1421032002F0B0
:100CDC0070FF07F10C030A220021184605F0F2FF01
:100CEC007B7A1A4607F10C031149184606F026F8D0
:100CFC0007F10C02002300930E4B1C21672002F01D
:100D0C0058FF02F03DFAFFF71BFA0346002BA8D060
:100D1C00FFF732FA002318461837BD4680BD00BFD6
:100D2C00800500208C750008788B000898750008E9
:100D3C00A4750008BC8D000880B582B002AF02F02B
:100D4C0013FA002300930E4B0E4A0821002002F0E8
:100D5C00D4FF002300930A4B0B4A2B21002002F0F6
:100D6C00CCFF02F00DFA00BF4FF40041074803F02E
:100D7C00A1FB0346002BF7D100BFBD4680BD00BFD1
:100D8C0084940008AC750008C0750008000C014084
:100D9C0080B584B002AF00237B6002F0E5F902F06D
:100DAC00EFF803461A46504B1A704F4B1B78012B29
:100DBC000CD14E4B1B78013BDAB24C4B1A704B4B9F
:100DCC001B78002B02D1494B03221A70464B1B781F
:100DDC00022B0CD1454B1B780133DAB2434B1A7002
:100DEC00424B1B78042B02D1404B01221A703E4B14
:100DFC001B78032B02D13D4B1B787B603A4B1B7845
:100E0C00042B01D100236BE07B68012B08D100F08F
:100E1C005FFA00237B604FF4967003F0C1F816E084
:100E2C007B68022B08D100F089FF00237B604FF414
:100E3C00967003F0B5F80AE07B68032B07D100F03D
:100E4C00D5FC00237B604FF4967003F0A9F8274B78
:100E5C001B78013B032B27D801A252F823F000BFCB
:100E6C007D0E00088B0E0008990E0008A70E0008D6
:100E7C0000231F4A0021002002F0E1FD15E00023B1
:100E8C001B4A1021002002F0DAFD0EE00023184A64
:100E9C002021002002F0D3FD07E00023144A30216A
:100EAC00002002F0CCFD00E000BF00230093114BAA
:100EBC00114A00210A2002F020FF002300930D4B61
:100ECC000E4A10210A2002F018FF00230093094B50
:100EDC000B4A20210A2002F010FF02F051F95CE7C6
:100EEC0018460837BD4680BD900400200000002045
:100EFC00F802002084940008CC750008DC7500080A
:100F0C00EC75000880B582B002AF02F02DF902F04A
:100F1C0037F803461A46534B1A70524B1B78012B69
:100F2C000DD1514B1B78013BDAB24F4B1A704E4B23
:100F3C001B78002B1CD14C4B06221A7018E0494B25
:100F4C001B78022B0DD1484B1B780133DAB2464B80
:100F5C001A70454B1B78072B0AD1434B01221A7090
:100F6C0006E0404B1B78032B02D13F4B1B7876E0FD
:100F7C003D4B1B78013B052B38D801A252F823F0CE
:100F8C00A50F0008B30F0008C10F0008CF0F000811
:100F9C00DD0F0008EB0F00080023344A002100206D
:100FAC0002F04DFD23E00023304A1021002002F016
:100FBC0046FD1CE000232D4A2021002002F03FFDBD
:100FCC0015E00023294A3021002002F038FD0EE004
:100FDC000023264A0021002002F031FD07E0002307
:100FEC00224A1021002002F02AFD00E000BF1E4B17
:100FFC001B78042B20D8002300931D4B1D4A002185
:10100C000A2002F07AFE00230093194B1A4A102191
:10101C000A2002F072FE00230093154B174A202180
:10102C000A2002F06AFE00230093114B144A30216F
:10103C000A2002F062FE0FE0002300930C4B114AD1
:10104C0000210A2002F059FE00230093084B0E4A9F
:10105C0010210A2002F051FE02F092F855E71846D2
:10106C00BD4680BD9004002001000020F802002045
:10107C0084940008FC750008047600080C760008BF
:10108C001C760008287600083076000880B584B0FD
:10109C0002AF01237B6002F067F80023124A27217C
:1010AC000A2002F0CCFC4FF40041104803F002FA85
:1010BC000346002B11D07B68DAB2002300933F2348
:1010CC003F21002002F074FA02F05AF87B680433D6
:1010DC007B607B687F2B02DCE5E700BF00E000BF94
:1010EC000837BD4680BD00BF08780008000C0140E1
:1010FC0080B582B000AF03463960FB803B68002BA3
:10110C0007D1FB88D9B20023154A0A2002F097FCBC
:10111C0021E03B68012B07D1FB88D9B20023114A8F
:10112C000A2002F08CFC16E03B68B3F1FF3F07D1BC
:10113C00FB88D9B200230C4A0A2002F080FC0AE09A
:10114C003B6813F1020F06D1FB88D9B20023074A82
:10115C000A2002F074FC00BF0837BD4680BD00BFFA
:10116C0078770008C0770008087800083077000806
:10117C0080B582B000AF03463960FB80B7F906201A
:10118C003B681B78C3F17F039A420BDCFB88D8B217
:10119C003B685B78C3F13F03D9B200233A6802F095
:1011AC004EFC00E000BF0837BD4680BD80B584B062
:1011BC0002AF78600B46FB7097F90330002B15D10A
:1011CC007A681849184805F0B9FD00230093174BAD
:1011DC00174A0321482002F090FD00230093134B83
:1011EC00114A0321662002F088FD16E0114B1B68A2
:1011FC001A460C490C4805F0A1FD002300930B4B3B
:10120C000D4A16213C2002F078FD00230093074B79
:10121C00054A1621662002F070FD00BF0837BD4656
:10122C0080BD00BF407600089C0300205496000847
:10123C0044760008980300205076000880B586B0EC
:10124C0002AFBA607B600346FB810B46BB81B7F9EA
:10125C0018306FF001011846FFF74AFFB7F90E304E
:10126C00396A1846FFF784FFB7F90C30796A1846CB
:10127C00FFF77EFF002300933F237F223F210020B6
:10128C0002F096F90021B868FFF790FF0D4B1B6830
:10129C00BA689A420BDD0B4ABB68136000230093BB
:1012AC00094B0A4A16214B2002F027FD03E00121CD
:1012BC00B868FFF77BFF01F063FF00BF1037BD4636
:1012CC0080BD00BF9803002054960008607600088B
:1012DC0080B58EB004AFFC233B8140F27D13FB80C4
:1012EC003B89C8339BB2FB84FB88C8339BB2BB845D
:1012FC0002F04CFE034603F00703002B01D0B04B69
:10130C0000E0B04B3B6202F041FE0146AE4BA3FB4A
:10131C0001239A0813469B001344CA1A002A01D0D1
:10132C00A74B00E0A74BFB6115239BB20A339BB282
:10133C00BB8027237B8300237B6100233B6100233D
:10134C00FB600023FB72FFF7A1FE01F00DFF4FF4D1
:10135C0080519E4803F0AEF80346002B0FD04FF49B
:10136C0000519A4803F0A6F80346002B07D04FF41F
:10137C008041964803F09EF80346002B05D17B690B
:10138C00002B0BD101237B6108E04FF400418F4807
:10139C0003F090F80346002B00F05081B7F926209B
:1013AC00B7F904107B69052BA8BF0523CB1A9A4209
:1013BC0029DCB7F926300B2B25DDB7F91A301722AB
:1013CC001A443B6A5B78C3F13F039A421BDBB7F9C3
:1013DC002410B7F92600FB6903933B6A0293B7F913
:1013EC0004300193B7F91A3000937B69FA68FFF760
:1013FC0025FF00BF4FF40041744803F05BF803462F
:10140C00002BF7D11BE1B7F92420B7F904107B6945
:10141C00052BA8BF0523CB1A9A4229DCB7F9243037
:10142C000B2B25DDB7F91A3017221A44FB695B78B0
:10143C00C3F13F039A421BDBB7F92610B7F924001E
:10144C00FB6903933B6A0293B7F904300193B7F934
:10145C001A3000937B69FA68FFF7F0FE00BF4FF477
:10146C0000415A4803F026F80346002BF7D1E6E07A
:10147C007B69002B10DD7B69013B554AD35C9BB229
:10148C00C3F127039BB27B837B6901337B617B694F
:10149C00262B01DD00237B613B6901333B613B69FA
:1014AC004C4A82FB03125210DB17D31AFB6000214B
:1014BC00F868FFF77BFE7B69002B07D0B7F91A3071
:1014CC004FF0FF311846FFF713FE17E097F90B307A
:1014DC00042BCCBF01230023DBB21A46B7F91A3018
:1014EC0011461846FFF704FEFB7A0133DBB2FB72A0
:1014FC0097F90B30092B01DD0023FB72B7F926306D
:10150C00396A1846FFF734FEB7F92430F9691846E2
:10151C00FFF72EFE002300933F237F223F21002064
:10152C0002F046F8FB8C023B9BB2FB84BB8C023B6B
:10153C009BB2BB84B7F92630002B1FDC02F026FDD2
:10154C000246214BA3FB0223D9081F4BA3FB01230B
:10155C001A0913469B0013449B00CA1A92B23B898A
:10156C0013449BB2FB8402F011FD034603F003030A
:10157C00002B01D0124B00E0124B3B62B7F9243028
:10158C00002B2BDC02F002FD02460F4BA3FB0223C7
:10159C00D9080D4BA3FB01231A0913469B001344D6
:1015AC009B00CA1A92B2FB8813449BB2BB8402F014
:1015BC00EDFC034603F00103002B0DD0004B0CE0B7
:1015CC001C78000848780008CDCCCCCC000C01402D
:1015DC0050780008676666661A4BFB61FA8CBB8C08
:1015EC00D31A9BB21AB2184B1A80174BB3F90030AE
:1015FC00002B0DDD144BB3F900302E2B08DCFA8CCC
:10160C00114BB3F900309BB213449BB2FB8412E034
:10161C000D4BB3F90030002B0DDA0B4BB3F9003046
:10162C0013F12E0F07DBBA8C074BB3F900309BB2CA
:10163C0013449BB2BB8401F0A3FD86E600BF2837A0
:10164C00BD4680BD48780008AC03002080B500AFD3
:10165C004FF48041054802F02DFF0346002B01D1C9
:10166C00012300E00023184680BD00BF000C0140A0
:10167C0080B586B002AF3B4600221A605A609A6071
:10168C00C3F80B2001F070FD4F4B1A683B464F49D5
:10169C00184605F053FB3A46002300934C4B0021AF
:1016AC00502002F086FA4B4B1B68D8B24A4B1B6891
:1016BC00DAB20023009313460A22002102F062F8EA
:1016CC00444B1B68DBB2023BD8B2434B1B68DBB20A
:1016DC00063BD9B20023009306230E2202F052F8E7
:1016EC003C4B1B68D8B23C4B1B68DBB21E33D9B2E7
:1016FC00394B1B68DBB2C3F14003DAB20023009311
:10170C0013460A2202F03EF8324B1B68DBB2023B56
:10171C00D8B2314B1B68DBB21E33D9B20023009315
:10172C0006230E2202F02EF82C4B1B68D8B22C4B41
:10173C001B68DAB20023009313460A22002102F040
:10174C0021F8264B1B68DBB2023BD8B2244B1B683A
:10175C00DBB2063BD9B20023009306230E2202F023
:10176C0011F81E4B1B68D8B21D4B1B68DBB21E3325
:10177C00D9B21B4B1B68DBB2C3F14003DAB20023B6
:10178C00009313460A2201F0FDFF144B1B68DBB2D9
:10179C00023BD8B2124B1B68DBB21E33D9B200230A
:1017AC00009306230E2201F0EDFF0E4B1B68D9B2FD
:1017BC0000230D4A142002F042F901F0E1FC00BFB5
:1017CC001037BD4680BD00BFA8040020707600080D
:1017DC00F87A0008AC040020A40400209404002033
:1017EC009C040020980400208078000880B586B006
:1017FC0002AF3B4600221A605A609A60C3F80B2075
:10180C000023FB73AF4B80221A60AF4BC0221A60CF
:10181C0005F060FA0246AD4B83FB0213D910D317C7
:10182C00CB1A2A2101FB03F3D31A0133A84A136004
:10183C0005F050FA0246A54B83FB0213D910D317BF
:10184C00CB1A2A2101FB03F3D31A0133A14A1360EB
:10185C00A14B20221A60A14B0A221A60A04B002235
:10186C001A604FF400419F4802F024FE0346002BFF
:10187C0000F05181FB7B002B40F0B380FFF7E6FEBC
:10188C000346012B02D1944B10221A608D4B1B681E
:10189C00023B8C4A13608C4B1B68023B8A4A1360D8
:1018AC008D4B1B68053B8C4A13608B4B1B688E4A17
:1018BC0082FB03129210DB179A1A884B1B68134495
:1018CC00864A13607F4B1B68023B002B19DA7D4B59
:1018DC0080221A6005F0FEF902467C4B83FB021352
:1018EC00D910D317CB1A2A2101FB03F3D31A0133D6
:1018FC00774A1360764B1B68052B02DC744B06226F
:10190C001A60714B1B68023B002B19DA6E4B80225C
:10191C001A6005F0DFF902466C4B83FB0213D910F9
:10192C00D317CB1A2A2101FB03F3D31A0133694ACB
:10193C001360684B1B68052B02DC664B06221A6091
:10194C00FFF796FE654B1B68002B02DA634B0022F7
:10195C001A60624B1B68402B01DD0123FB73594B52
:10196C001B68132B14DD574B1B681F2B10DC5B4BB8
:10197C001A68574B1B689A4208DB584B1B6803F1DB
:10198C000802534B1B681E339A4201DD0123FB7383
:10199C004D4B1B68132B14DD4B4B1B681F2B10DCA2
:1019AC004E4B1A684B4B1B689A4208DB4B4B1B681F
:1019BC0003F10802474B1B681E339A4201DD0123D9
:1019CC00FB73404B1B68102B03D03F4B1B68102B39
:1019DC0004D1434B1B680133414A13601E2002F0B3
:1019EC00DFFAFB7B012B7FF43CAF01F0BDFB002346
:1019FC003E4A0021002002F022F800233C4A20211C
:101A0C00082002F01CF8002300933A4B3A4A20219C
:101A1C00482002F072F9324B1A683B463749184697
:101A2C0005F08CF93A4600230093354B30214820C1
:101A3C0002F0BFF801F0A4FBFFF708FE0346012BF0
:101A4C0060D10023FB731F4B80221A601E4BC022F7
:101A5C001A6005F03FF902461C4B83FB0213D910A8
:101A6C00D317CB1A2A2101FB03F3D31A0133184ADB
:101A7C001360174B1B68052B02DC154B06221A60F2
:101A8C0005F028F90246114B83FB0213D910D3172A
:101A9C00CB1A2A2101FB03F3D31A01330D4A13602D
:101AAC000C4B1B68052B02DC0A4B06221A600A4BF6
:101ABC0020221A60094B32221A60094B00221A604C
:101ACC0020E000BFAC04002094040020310CC33093
:101ADC00A40400209C040020A004002098040020F2
:101AEC00A8040020000C0140676666667878000840
:101AFC008878000854960008747600087076000800
:101B0C00F87A00084FF40041064802F0D3FC034673
:101B1C00002B02D0A5E600BF00E000BF1037BD4689
:101B2C0080BD00BF000C014080B400AF2D4B0022E3
:101B3C001A602D4B00221A602C4B00221A602C4B81
:101B4C0008221A602B4B00221A602B4B00221A60C1
:101B5C002A4B5F221A602A4B00221A60294B5F2203
:101B6C001A60294B00221A60284B5F221A60284BFE
:101B7C0000221A60274B5F221A60274B00221A6042
:101B8C00264B00221A60264B03221A60254B012299
:101B9C001A60254B0A221A60244B05221A60244B2A
:101BAC0000221A60234B01221A60234B00221A6078
:101BBC00224B00221A60224B00221A60214B182261
:101BCC001A60214B00221A60204B00221A60204B15
:101BDC0000221A601F4B00221A6000BFBD4680BC59
:101BEC00704700BFB0030020B4030020B8030020EE
:101BFC00C8020020BC030020C0030020CC0200203F
:101C0C00C4030020D0020020C8030020D40200200E
:101C1C00CC030020D8020020D0030020D4030020E5
:101C2C00DC020020E0020020E4020020E802002098
:101C3C00D8030020EC020020DC030020E00300208D
:101C4C00E4030020F0020020F0030020F403002045
:101C5C00F8030020FC03002080B500AF4FF4805146
:101C6C000F4802F027FC0346002B01D1022314E09D
:101C7C004FF400510A4802F01DFC0346002B01D121
:101C8C0003230AE04FF48041054802F013FC03469D
:101C9C00002B01D1012300E00023184680BD00BFBA
:101CAC00000C014080B500AF1E21322002F0CCF8B0
:101CBC0011211E2002F0C8F812213C2002F0C4F8B9
:101CCC001021372002F0C0F82B21192002F0BCF8AB
:101CDC002B21642002F0B8F83421752002F0B4F8FE
:101CEC0031210E2002F0B0F81821182002F0ACF8C7
:101CFC0024214E2002F0A8F83921502002F0A4F83B
:101D0C000B216B2002F0A0F80B21962002F09CF81E
:101D1C000521052002F098F80721082002F094F81C
:101D2C000C21462002F090F838210A2002F08CF8A1
:101D3C001921462002F088F800BF80BD90B589B00B
:101D4C0002AF00237B613B1D00221A605A609A602F
:101D5C00C3F80B20FFF7E8FE02F018F90246A34B7C
:101D6C001A604FF40041A24802F0A4FB0346002B7A
:101D7C0000F070849F4B1B68002B40F0C48301F073
:101D8C00F3F9FFF78FFF02F001F90246974B1B683E
:101D9C00D31A994A1360984B1A68984B1B68D31A3C
:101DAC004CF25032934217D9934B1B68934A1360F1
:101DBC00934B1B680133924A1360924B1B6801339F
:101DCC00904A1360904B1B6801338F4A13608F4B02
:101DDC001B68013B8D4A13608D4B1B6801338C4A89
:101DEC00136004F077FF02468A4B83FB021319122F
:101DFC00D317CB1A4FF4487101FB03F3D31A03F03A
:101E0C000103002B11D1824B1B68012B0DD1824B8E
:101E1C001B68002B09D1814B5F221A60804B1B6819
:101E2C00804A13607C4B01221A6004F053FF024677
:101E3C00784B83FB02131912D317CB1A4FF448714A
:101E4C0001FB03F3D31A03F5C871774B83FB013203
:101E5C00CB17D21A13465B001344CA1A012A11D1AC
:101E6C006B4B1B68022B0DD1704B1B68002B09D1DF
:101E7C006F4B5F221A606A4B1B686E4A13606B4B88
:101E8C0001221A6004F026FF0246624B83FB021308
:101E9C001912D317CB1A4FF4487101FB03F3D31A61
:101EAC0003F5C871644B83FB01235A10CB17D21A6C
:101EBC0013469B001344CA1A012A11D1544B1B68B8
:101ECC00032B0DD15D4B1B68002B09D15C4B5F22A2
:101EDC001A60534B1B685B4A1360584B01221A6003
:101EEC0004F0F8FE02464B4B83FB02131912D31776
:101EFC00CB1A4FF4487101FB03F3D31A03F5C872E4
:101F0C00514B83FB021313449910D317C91A0B4678
:101F1C00DB005B1AD11A012911D13D4B1B68042B34
:101F2C000DD14A4B1B68002B09D1494B5F221A601B
:101F3C003B4B1B68474A1360444B01221A60364BDB
:101F4C001B68002B19D0354B1B68D8B2354B1B685E
:101F5C00D9B20023022201F097FC304B1B6813F11D
:101F6C00020F07DB2D4B1A68264B1B68D31A2B4A22
:101F7C00136002E0284B00221A602C4B1B68002BCC
:101F8C0019D02B4B1B68D8B22A4B1B68D9B2002333
:101F9C00012201F079FC264B1B68B3F1FF3F07DBF4
:101FAC00234B1A68174B1B68D31A214A136002E0A3
:101FBC001E4B00221A60214B1B68002B4FD0204B6C
:101FCC001B68D8B21F4B1B68D9B20023042201F046
:101FDC005BFC1B4B1B6813F1040F3DDB184B1A68A1
:101FEC00084B1B68D31A164A136038E0DC03002038
:101FFC00000C0140C0030020E0030020E40300209B
:10200C00EC020020DC020020E0020020E4020020B0
:10201C00D80300201F85EB51F0030020CC020020D8
:10202C00C8020020C403002056555555F403002067
:10203C00D0020020C803002067666666F803002003
:10204C00D4020020CC03002093244992FC030020EE
:10205C00D8020020D00300208B4B00221A608B4B3F
:10206C001B68002B19D08A4B1B68D8B2894B1B6894
:10207C00D9B20023032201F007FC854B1B6813F136
:10208C00030F07DB824B1A68834B1B68D31A804AF9
:10209C00136002E07D4B00221A60FFF7DDFD034662
:1020AC00022B08D17D4B1B68012B04DD7B4B1B687D
:1020BC00023B7A4A1360FFF7CFFD0346032B08D18E
:1020CC00764B1B682E2B04DC744B1B680233734A53
:1020DC001360FFF7C1FD0346012B0ED1704B1B683B
:1020EC00002B0AD16E4B01221A606E4B06221A602D
:1020FC006A4B1B6808336C4A1360694B1B68012BD5
:10210C0017D1684B1B680833664A1360654B1B6814
:10211C00D8B2654B1B68D9B2624B1B68DBB2043377
:10212C00DAB2614B1B68DCB200230093234601F04A
:10213C003FFA5E4B1B68002B1ED001F027FF0246B6
:10214C005B4BA3FB02231B0903F00103002B07D1FC
:10215C00524B1B68D9B20023564A042001F06FFC85
:10216C00554B1A68554B1B68D31AB3F57A7F0BD9AC
:10217C004E4B00221A6007E0484B1B68D9B2002373
:10218C004C4A042001F05BFC4D4B1B68D8B24D4B04
:10219C001B68D9B24C4B1B68DAB2002301F074FBFC
:1021AC00474B1B68DBB20233D8B2464B1B68DBB221
:1021BC000333D9B2444B1B68444A82FB0342DB17FE
:1021CC00D31ADAB2002301F05FFB00230093404BDB
:1021DC00404A00211C2001F0ECFC3F4B1A683B1DCF
:1021EC003E49184604F0AAFD3A1D00230093384BD3
:1021FC000021402001F0DDFC00230093344B384AD1
:10220C0037211C2001F0D5FC364B1A683B1D334995
:10221C00184604F093FD3A1D002300932C4B3721F4
:10222C00402001F0C6FC00230093294B2E4A2D219F
:10223C00742001F0BEFC204B1B682C4AA2FB03232C
:10224C009A093B1D2A49184604F078FD3A1D0023D3
:10225C0000931F4B3721742001F0ABFC00F090FF72
:10226C00104B1B68802B02DD0D4B00221A60214B9A
:10227C001B68002B42D1134B1A681F4B1B6813446D
:10228C00104A136041E000BFF8030020FC0300205B
:10229C00D8020020D0030020DC020020F002002035
:1022AC00B8030020B0030020B4030020E803002092
:1022BC001F85EB51B0780008E0030020EC030020F0
:1022CC00C4020020C8020020E402002056555555D7
:1022DC00F87A000888760008D40300209876000865
:1022EC009C760008E8020020A4760008D34D62100A
:1022FC00A8760008BC030020E0020020974B1A6867
:10230C00974B1B68D31A954A1360964B1B68C3F105
:10231C004002924B1B689A4202DC934B01221A60DA
:10232C008E4B1A688F4B1B689A4202DC8E4B002234
:10233C001A608A4B1A688B4B1B68D21A8B4B1B6822
:10234C009A422ADC854B1A68864B1B681A44874BC9
:10235C001B689A4221DB864B1A68824B1B68D21A87
:10236C00844B1B689A4218DA814B1A687D4B1B68A8
:10237C001A44804B1B689A420FDD7E4B06221A6072
:10238C007D4B1B680833794A13607C4B1B68013307
:10239C007A4A13607A4B00221A60774B1B68083319
:1023AC007B617B69A3F10802764B1B689A4221DCA6
:1023BC007B6903F10802734B1B689A421ADB724B60
:1023CC001B68142B16DC704B1B68042B12DD6F4B37
:1023DC001B68002B0ED16E4B00221A606D4B1B68D4
:1023EC00013B6C4A1360694B01221A606A4B1B68F3
:1023FC006A4A13607B69A3F10802694B1B689A4215
:10240C0021DC7B6903F10802654B1B689A421ADBDD
:10241C00644B1B68142B16DC624B1B68042B12DDFF
:10242C005A4B1B68002B0ED15F4B00221A60594B84
:10243C001B68013B574A1360544B01221A60564BE0
:10244C001B68564A13607B69A3F10802574B1B6843
:10245C009A4221DC7B6903F10802544B1B689A42B7
:10246C001ADB534B1B68142B16DC514B1B68042BCB
:10247C0012DD464B1B68002B0ED14E4B00221A600E
:10248C00444B1B68013B434A1360404B01221A60CA
:10249C00414B1B68414A13607B69A3F10802464B10
:1024AC001B689A4221DC7B6903F10802424B1B68D2
:1024BC009A421ADB414B1B68142B16DC3F4B1B68F2
:1024CC00042B12DD314B1B68002B0ED13C4B002230
:1024DC001A60304B1B68013B2E4A13602B4B0122B8
:1024EC001A602D4B1B682D4A1360364B1B68042B4E
:1024FC0002DD344B00221A60264B1B68002B02D1E4
:10250C00314B01221A60304B1B68012B40F09D802F
:10251C0000F02AFE002300932C4B2D4A1421252079
:10252C0001F0EBFB154B1A683B1D2A49184604F0C9
:10253C0005FC3A1D00230093244B1421552001F077
:10254C00DCFB00230093214B234A2321252001F09F
:10255C00D4FB224B1A683B1D42E000BFC80200208E
:10256C00E0020020E4020020BC030020B4030020A1
:10257C00C4020020B0030020F0020020D40300208D
:10258C00B8030020C4030020CC020020E803002084
:10259C00F0030020E8020020E0030020EC03002000
:1025AC00C8030020D0020020F4030020CC0300203C
:1025BC00D4020020F8030020D0030020D802002011
:1025CC00FC030020D8030020C00300205496000810
:1025DC00AC76000898760008B4760008EC0200206F
:1025EC001E49184604F0AAFB3A1D002300931C4B0D
:1025FC002321552001F081FB00230093184B194A2D
:10260C003221252001F079FB174B1B68174AA2FBDE
:10261C0003239A093B1D1649184604F08FFB3A1DFB
:10262C00002300930E4B3221552001F066FB00F085
:10263C00A7FDFFF711FB0346012B06D1FFF774FA38
:10264C0001F0A4FC02460B4B1A60012001F0A8FC1F
:10265C00FFF787BB00BF1C37BD4690BD98760008BE
:10266C0054960008BC760008E0030020D34D62109D
:10267C00A8760008DC03002080B588B000AF07F115
:10268C00100300221A605A609A60DA602A4B9B6928
:10269C00294A43F010039361274B9B6903F0100305
:1026AC00FB60FB68244B9B69234A43F02003936136
:1026BC00214B9B6903F02003BB60BB681E4B9B69DD
:1026CC001D4A43F0080393611B4B9B6903F00803FD
:1026DC007B607B68184B9B69174A43F0040393613A
:1026EC00154B9B6903F004033B603B6801224FF4DC
:1026FC000051124801F0F5FE4FF400533B610123E9
:10270C007B610123BB610223FB6107F110031946B6
:10271C000A4801F075FD4FF470433B6100237B6167
:10272C000123BB6107F110031946054801F068FD50
:10273C0000BF2037BD4680BD001002400010014094
:10274C00000C014080B500AF124B134A1A60114BBC
:10275C00124A5A600F4B00229A600E4B0022DA602C
:10276C000C4B4FF480421A610A4B00225A61094B00
:10277C0000229A61074B0022DA61064B00221A6292
:10278C00044801F0C7FE0346002B01D000F031F9DC
:10279C0000BF80BDB004002000540040801A060029
:1027AC0080B500AF124B134A1A60114B124A5A6093
:1027BC000F4B00229A600E4B0022DA600C4B4FF448
:1027CC0080421A610A4B00225A61094B00229A611D
:1027DC00074B0022DA61064B00221A62044801F012
:1027EC0099FE0346002B01D000F003F900BF80BD19
:1027FC000405002000580040A086010080B58AB076
:10280C0000AF786007F1180300221A605A609A60D2
:10281C00DA607B681B682B4A934224D12A4B9B6954
:10282C00294A43F008039361274B9B6903F0080383
:10283C007B617B69C023BB611223FB6103237B6239
:10284C0007F118031946214801F0DAFC1E4BDB692D
:10285C001D4A43F40013D3611B4BDB6903F40013D3
:10286C003B613B6929E07B681B68194A934224D180
:10287C00154B9B69144A43F008039361124B9B69F7
:10288C0003F00803FB60FB684FF44063BB61122349
:10289C00FB6103237B6207F1180319460B4801F017
:1028AC00AFFC094BDB69084A43F48003D361064B48
:1028BC00DB6903F48003BB60BB6800BF2837BD46EF
:1028CC0080BD00BF0054004000100240000C0140CD
:1028DC000058004080B582B000AF01237B6001F04E
:1028EC00FDFA00F029F8FFF7C7FE00F087F8FFF7B4
:1028FC0029FFFFF755FF00F0E0FB00F035FC00F07E
:10290C003FFC7B68012B02D1FDF73CFC10E07B689F
:10291C00022B02D1FEF73CFA0AE07B68052B02D1B0
:10292C00FEF796F904E07B68062B01D1FEF704FA5A
:10293C00FEF7E8FA7860E4E780B594B000AF07F1F1
:10294C00280328220021184604F0BCF907F11403CF
:10295C0000221A605A609A60DA601A613B1D0022EC
:10296C001A605A609A60DA600523BB624FF48033B8
:10297C00FB6200233B6301237B630123BB630223C4
:10298C007B644FF48033BB644FF4E013FB6407F1BA
:10299C002803184602F092FD0346002B01D000F0EC
:1029AC0028F80F237B610223BB610023FB614FF4EA
:1029BC0080633B6200237B6207F1140302211846FB
:1029CC0002F0FCFF0346002B01D000F012F80123AB
:1029DC007B604FF48073BB603B1D184603F08AF993
:1029EC000346002B01D000F004F800BF5037BD4661
:1029FC0080BD80B400AF72B6FEE7000080B586B033
:102A0C0000AF07F1140300210A461A800A469A7097
:102A1C0000233B614D4B4E4A1A604C4B4FF0FF323A
:102A2C005A604A4B00229A60484803F0D5FA034694
:102A3C00002B01D0FFF7DDFF0023FB60454BDB696A
:102A4C00444A43F08053D361424BDB6903F080531B
:102A5C00BB60BB6802F01AFD3E4BDB693D4A43F09C
:102A6C000063D3613B4BDB6903F000637B607B68E5
:102A7C000721364804F0C6F8024645F2AA539A429A
:102A8C003AD10621314804F0BDF80346DBB2BB75E0
:102A9C0005212E4804F0B6F80346DBB27B75042101
:102AAC002A4804F0AFF80346DBB23B7503212748F4
:102ABC0004F0A8F80346DBB2BB730221234804F0F0
:102ACC00A1F80346DBB27B730121204804F09AF88D
:102ADC000346DBB2FB7302F0E5FC07F114030122A1
:102AEC0019461A4803F00EFB07F10C030122194694
:102AFC00164803F077FC25E019233B7559237B75A9
:102B0C005023BB7507F11403012219460F4803F03B
:102B1C00F9FA0346002B01D0FFF76BFF01233B743E
:102B2C0001237B740123BB742523FB7407F1100371
:102B3C0001221946054803F055FC0346002B01D031
:102B4C00FFF757FF1837BD4680BD00BF5805002062
:102B5C00002800400010024080B584B000AF7860BF
:102B6C007B681B680F4A934218D102F08FFC0E4B06
:102B7C00DB690D4A43F00063D3610B4BDB6903F057
:102B8C000063FB60FB68094B01221A6000220021E4
:102B9C00032001F0FEFA032001F017FB00BF1037F1
:102BAC00BD4680BD00280040001002403C0442425B
:102BBC0080B584B000AF07F10C03012219463E48E2
:102BCC0003F038FB07F10803012219463A4803F0D9
:102BDC00BFFC3B7B232B6AD87B7B592B67D8BB7BF9
:102BEC00592B64D87B7A122B61D8BB7A312B5ED8E7
:102BFC00FB7A992B5BD83B7B002B05D17B7B002B85
:102C0C0002D1BB7B002B52D002F04CFC2B4BDB696E
:102C1C002A4A43F08053D361284BDB6903F080537D
:102C2C007B607B6802F032FC244BDB69234A43F067
:102C3C000063D361214BDB6903F000633B603B68AD
:102C4C00002207211C4803F0C3FFBB7B1A46062158
:102C5C00194803F0BDFF7B7B1A460521164803F08B
:102C6C00B7FF3B7B1A460421134803F0B1FFBB7A34
:102C7C001A460321104803F0ABFF7B7A1A46022157
:102C8C000D4803F0A5FFFB7A1A4601210A4803F010
:102C9C009FFF45F2AA520721074803F099FF02F063
:102CAC0001FC064BDB69054A23F00063D36100BFCE
:102CBC001037BD4680BD00BF5805002000100240F3
:102CCC0080B485B000AF154B9B69144A43F00103E7
:102CDC009361124B9B6903F00103BB60BB680F4B04
:102CEC00DB690E4A43F08053D3610C4BDB6903F074
:102CFC0080537B607B680A4B5B68FB60FB6823F04E
:102D0C00E063FB60FB6843F00073FB60044AFB6804
:102D1C00536000BF1437BD4680BC704700100240A2
:102D2C000000014080B400AFFEE780B400AFFEE7C6
:102D3C0080B400AFFEE780B400AFFEE780B400AF14
:102D4C00FEE780B400AF00BFBD4680BC704780B4C6
:102D5C0000AF00BFBD4680BC704780B400AF00BF61
:102D6C00BD4680BC704780B500AF01F0FDF800BFD8
:102D7C0080BD000080B500AF024803F0DFFE00BF4D
:102D8C0080BD00BF5805002080B586B000AF7860CC
:102D9C00144A154BD31A7B617B693B61134B1B683F
:102DAC00002B02D1114B124A1A60104B1A687B6827
:102DBC0013443A699A4207D203F040FF02460C23AF
:102DCC0013604FF0FF3309E0084B1B68FB60074BA7
:102DDC001A687B681344054A1360FB681846183759
:102DEC00BD4680BD005000200004000000040020FF
:102DFC00A809002080B400AF00BFBD4680BC70475E
:102E0C000C480D490D4A002302E0D458C450043339
:102E1C00C4188C42F9D30A4A0A4C002301E013600F
:102E2C000432A242FBD3FFF7E5FF03F00DFFFFF7DF
:102E3C0051FD7047000000206C030020B496000880
:102E4C006C030020A8090020FEE780B483B000AF1B
:102E5C000346FB71FB791B09DBB21A469200134443
:102E6C005B00DAB2FB7903F00F03DBB21344DBB285
:102E7C0018460C37BD4680BC7047000080B584B046
:102E8C0002AF00233B713A1D4FF6FF7300930123F1
:102E9C00D021084801F076FC4FF6FF730093132302
:102EAC00054AD121034801F06BFD00BF0837BD4630
:102EBC0080BD00BF040500206C05002080B500AF6C
:102ECC002D4B1B781846FFF7C0FF03461A462B4BB9
:102EDC001A71294B5B781846FFF7B7FF03461A4661
:102EEC00264BDA70244B9B7803F04003002B16D052
:102EFC00224B01229A70204B9B7803F02003DAB20C
:102F0C001E4B5A701C4B9B7803F01F03DBB2184608
:102F1C00FFF79BFF03461A46184B1A700BE0174B32
:102F2C0000229A70144B9B781846FFF78EFF0346CD
:102F3C001A46124B1A70104B9B791846FFF785FFF7
:102F4C0003461A460D4B5A710B4B5B791846FFF72B
:102F5C007CFF03461A46094B9A71074B1B7918469E
:102F6C00FFF773FF03461A46044BDA71024BDA780B
:102F7C00024B1A7200BF80BD6C050020800500203A
:102F8C0080B582B000AF0023FB714FF48051334801
:102F9C0001F090FA0346002B10D1142001F000F838
:102FAC0000BF4FF480512D4801F084FA0346002BEA
:102FBC00F7D0142000F0F4FF0123FB714FF4005103
:102FCC00264801F077FA0346002B10D1142000F0AC
:102FDC00E7FF00BF4FF40051204801F06BFA0346A5
:102FEC00002BF7D0142000F0DBFF0223FB714FF411
:102FFC0080411A4801F05EFA0346002B10D11420D0
:10300C0000F0CEFF00BF4FF48041144801F052FA9B
:10301C000346002BF7D0142000F0C2FF0323FB71F2
:10302C004FF400410D4801F045FA0346002B10D136
:10303C00142000F0B5FF00BF4FF40041074801F029
:10304C0039FA0346002BF7D0142000F0A9FF042313
:10305C00FB71FB7918460837BD4680BD000C01405A
:10306C0080B584B002AF78600B46FB70FB789AB2E7
:10307C004FF0FF33009313467A687821034801F030
:10308C0081FB00BF0837BD4680BD00BFB0040020E7
:10309C0080B584B000AF0346FB710023BB810023D5
:1030AC003B73FB797B7307F10C0302211846FFF786
:1030BC00D7FF00BF1037BD4680BD80B500AFAE2036
:1030CC00FFF7E6FF0220FFF7E3FF1020FFF7E0FF1A
:1030DC004020FFF7DDFFB020FFF7DAFF8120FFF77C
:1030EC00D7FFCF20FFF7D4FFA120FFF7D1FFA620F9
:1030FC00FFF7CEFFA820FFF7CBFF3F20FFF7C8FF5D
:10310C00AD20FFF7C5FF8B20FFF7C2FF3320FFF781
:10311C00BFFFC820FFF7BCFFD320FFF7B9FF00208B
:10312C00FFF7B6FFD520FFF7B3FFC020FFF7B0FFC6
:10313C00D920FFF7ADFF1F20FFF7AAFFDA20FFF71A
:10314C00A7FF1220FFF7A4FFDB20FFF7A1FF402011
:10315C00FFF79EFF00F008F800F012F8AF20FFF721
:10316C0097FF00BF80BD000080B500AF4FF48062B8
:10317C000021024803F0A6FD00BF80BDA005002081
:10318C0080B582B000AF144B40221A700023FB7143
:10319C001BE0FB79503BDBB21846FFF779FF0220AE
:1031AC00FFF776FF1020FFF773FF0C48FB79DB016C
:1031BC000B4A13448022194603F079FD81210648FD
:1031CC00FFF74EFFFB790133FB71FB79072BE0D93D
:1031DC0000BF0837BD4680BD040400200504002054
:1031EC00A005002080B483B000AF0346FB710B46F2
:1031FC00BB7113467B7197F90730002B43DBBB790E
:10320C003F2B40D87B79002B1DD1BB79DB08D8B282
:10321C000246FB791E49D2010A4413441B785AB268
:10322C00BB7903F00703012101FA03F35BB21343EB
:10323C0059B20246FB79C8B21549D2010A4413446B
:10324C0002461A7020E0BB79DB08D8B20246FB7943
:10325C000F49D2010A4413441B785AB2BB7903F0CC
:10326C000703012101FA03F35BB2DB435BB21340AA
:10327C0059B20246FB79C8B20549D2010A4413443B
:10328C0002461A7000E000BF0C37BD4680BC704788
:10329C00A005002090B482B000AF04460846114649
:1032AC001A462346FB710346BB710B467B711346D2
:1032BC003B71FB79072B60D897F90630002B5CDB50
:1032CC003B7D002B02D07B79DB437B713B7C013354
:1032DC00FF2202FA03F35AB297F9053013435AB29C
:1032EC003B79C3F10803FF2141FA03F35BB21343AB
:1032FC005BB2DAB2234B1A70FA79BB792249D2014C
:10330C000A44134418781F4B1978FA79BB79014099
:10331C00C8B21D49D2010A44134402461A703B7CC0
:10332C000133FF2202FA03F35BB2DB435AB297F983
:10333C00053013405AB23B79C3F10803FF2141FA1F
:10334C0003F35BB2DB435BB213405BB2DAB20D4BFF
:10335C001A70FA79BB790C49D2010A4413441878D3
:10336C00084B1978FA79BB790143C8B20649D201E6
:10337C000A44134402461A7000E000BF0837BD46E9
:10338C0090BC704785040020A0050020B0B586B025
:10339C0002AF0446084611461A462346FB71034603
:1033AC00BB710B467B7113463B71BB79DB08FB731E
:1033BC00BB7903F00703BB73BA7B3B791344082B2F
:1033CC0029DD7A79BB7B02FA03F3DAB2BC7BF9799B
:1033DC00F87B97F820300193072300932346FFF7DF
:1033EC0059FFFB7B0133D8B27A79BB7BC3F108035D
:1033FC0042FA03F3DCB23A79BB7B1344DBB2093BF0
:10340C00DBB2F97997F82020019200930023224631
:10341C00FFF740FF15E07A79BB7B02FA03F3DCB2CD
:10342C00BA7B3B791344DBB2013BDBB2BD7BF97950
:10343C00F87B97F82020019200932B462246FFF749
:10344C0029FF00BF1037BD46B0BD90B587B002AFA5
:10345C000446084611461A462346FB710346BB71C7
:10346C000B467B7113463B71BB79DB08FB73BB7955
:10347C0003F00703BB737A79BB7B02FA03F3DAB26E
:10348C00BC7BF979F87B3B790193072300932346A6
:10349C00FFF700FFBB7B002B14D0FB7B0133D8B2B2
:1034AC007A79BB7BC3F1080342FA03F3DCB2BB7B32
:1034BC00013BDBB2F9793A79019200930023224661
:1034CC00FFF7E8FE00BF1437BD4690BD90B587B03E
:1034DC0002AF3A601A460346FB710B46BB711346AA
:1034EC007B7197F82030DB083B7397F8203003F0A2
:1034FC000703FB720023FB7325E00023BB731BE067
:10350C00FA79FB7B1344D8B2BB7BDB00DAB2BB7914
:10351C001344DCB2FA7BBB7B797901FB03F31344D4
:10352C001A463B6813441A7897F824302146FFF763
:10353C008CFFBB7B0133BB73BA7B3B7B9A42DFD3E3
:10354C00FB7B0133FB73FA7B7B799A42D5D3FB7AF5
:10355C00002B28D07B799BB23A7B92B202FB03F30F
:10356C003B8100237B731AE0FA797B7B1344D8B23E
:10357C003B7BDB00DAB2BB791344D9B23A897B7B53
:10358C0013441A463B6813441A78FC7A97F8243093
:10359C0000932346FFF7FAFE7B7B01337B737A7B28
:1035AC007B799A42E0D300BF1437BD4690BD000032
:1035BC0090B587B000AF0446084611461A4623461C
:1035CC00FB710346BB710B467B7113463B71FA7959
:1035DC007B799A421DD1BA793B799A4207D9684ACC
:1035EC00BB7913703B79BB71654B1B783B71BB7915
:1035FC00FB7509E097F82820F97DFB791846FFF751
:10360C00F1FDFB7D0133FB75FA7D3B799A42F1D9D3
:10361C00B2E0BA793B799A421DD1FA797B799A4218
:10362C0007D9574AFB7913707B79FB71544B1B7884
:10363C007B71FB79BB7509E097F82820B979BB7DC4
:10364C001846FFF7CFFDBB7D0133BB75BA7D7B7987
:10365C009A42F1D990E07B799AB2FB799BB2D31A5A
:10366C009BB2FB813B799AB2BB799BB2D31A9BB2CA
:10367C00BB81B7F90E30002B01DD012301E04FF0C7
:10368C00FF337B81B7F90C30002B01DD012301E006
:10369C004FF0FF333B81FB79BB82BB797B820023EC
:1036AC003B82B7F90E30002BB8BF5B42FB81B7F9F8
:1036BC000C30002BB8BF5B42BB81B7F90E20B7F9B9
:1036CC000C309A422CDDFB79BB8223E0BB8ADBB247
:1036DC007A8AD1B297F828201846FFF783FD3A8AE8
:1036EC00BB8913449BB23B82B7F910305A00B7F92F
:1036FC000E309A4209DB7A8A3B8913449BB27B8257
:10370C003A8AFB89D31A9BB23B82BA8A7B891344CF
:10371C009BB2BB82B7F914207B799A42D6D12BE0AD
:10372C00BB797B8223E0BB8ADBB27A8AD1B297F871
:10373C0028201846FFF756FD3A8AFB8913449BB2A2
:10374C003B82B7F910305A00B7F90C309A4209DBBA
:10375C00BA8A7B8913449BB2BB823A8ABB89D31A3F
:10376C009BB23B827A8A3B8913449BB27B82B7F92A
:10377C0012203B799A42D6D100BF1C37BD4690BD72
:10378C008604002090B585B002AF04460846114669
:10379C001A462346FB710346BB710B467B711346DD
:1037AC003B71FA797B791344DAB2BC79B979F8793F
:1037BC003B7E00932346FFF7FBFEBA793B7913441B
:1037CC00D9B2FA797B791344DCB2BA793B791344D8
:1037DC00DAB2F8793B7E009313462246FFF7E8FEF7
:1037EC00BA793B791344DCB2FA79B979F8793B7E32
:1037FC0000932346FFF7DCFEFA797B791344D8B2A9
:10380C00FA797B791344DCB2BA793B791344DAB296
:10381C00B9793B7E009313462246FFF7C9FE00BFE1
:10382C000C37BD4690BD90B587B002AF0446084634
:10383C0011461A462346FB710346BB710B467B713E
:10384C0013463B710023FB7316E0BA79FB7B1344E0
:10385C00D9B2FA797B791344DCB2BA79FB7B134485
:10386C00DAB2F87997F82030009313462246FFF726
:10387C009FFEFB7B0133FB73FA7B3B799A42E4D3CB
:10388C0000BF1437BD4690BD90B585B000AF04465F
:10389C00084611461A462346FB710346BB710B467C
:1038AC007B7113463B710023FB817B79BB817B7958
:1038BC009BB25B009BB2C3F103039BB27B81B3E071
:1038CC00BB89DBB2FA79D31AD8B2FB89DBB2BA79ED
:1038DC00D31ADBB23A791946FFF784FCBB89DAB20A
:1038EC00FB791344D8B2FB89DBB2BA79D31ADBB2B9
:1038FC003A791946FFF776FCFB89DBB2FA79D31AD1
:10390C00D8B2BB89DAB2BB791344DBB23A79194627
:10391C00FFF768FCBB89DBB2FA79D31AD8B2FB8902
:10392C00DBB2BA79D31ADBB23A791946FFF75AFCF3
:10393C00FB89DBB2FA79D31AD8B2BB89DBB2BA797C
:10394C00D31ADBB23A791946FFF74CFCBB89DAB2D1
:10395C00FB791344D8B2FB89DAB2BB791344DBB2DE
:10396C003A791946FFF73EFCFB89DAB2FB7913442E
:10397C00D8B2BB89DBB2BA79D31ADBB23A79194621
:10398C00FFF730FCFB89DAB2FB791344D8B2BB8960
:10399C00DAB2BB791344DBB23A791946FFF722FC51
:1039AC00BB89DBB2FA79D31AD8B2FB89DAB2BB790C
:1039BC001344DBB23A791946FFF714FCB7F90E3011
:1039CC009BB201339BB2FB81B7F90A30002B09DAA9
:1039DC00FB899B009AB27B8913449BB206339BB242
:1039EC007B8113E0B7F90E20B7F90C30D31A9BB2D8
:1039FC009B009AB27B8913449BB20A339BB27B81A6
:103A0C00B7F90C309BB2013B9BB2BB81FB89DAB29C
:103A1C00FB791344D8B2BB89DAB2BB791344DBB25D
:103A2C003A791946FFF7DEFBB7F90E20B7F90C30DF
:103A3C009A427FF745AF00BF1437BD4690BDB0B575
:103A4C0084B002AF3A601A460346FB710B46BB7159
:103A5C0013467B713B685C683B681D783B685B7800
:103A6C00B979F8797A79019200932B462246FFF7BF
:103A7C002DFD00BF0837BD46B0BDB0B584B002AF58
:103A8C003B600346FB710B46BB7113467B713B6875
:103A9C005A687B79A3F120013B681B780733002B14
:103AAC0000DA0733DB1018463B685B7803FB00F346
:103ABC0003FB01F3D4183B685D783B681B78B9793C
:103ACC00F8793A7E019200932B462246FFF7FEFCD2
:103ADC0000BF0837BD46B0BDB0B584B002AF3B6087
:103AEC000346FB710B46BB7113467B71BA793B7E67
:103AFC001344DCB23B685A687B79A3F120013B6824
:103B0C001B780733002B00DA0733DB1018463B68B1
:103B1C005B7803FB00F303FB01F3D1183B685D7882
:103B2C003B681A783B7ED31ADBB2F8793A7F019264
:103B3C0000932B460A462146FFF7C8FC00BF083706
:103B4C00BD46B0BDB0B584B002AF3B600346FB715F
:103B5C000B46BB7113467B71BA793B7ED31ADAB232
:103B6C003B7F1344DCB23B685A687B79A3F120019C
:103B7C003B681B780733002B00DA0733DB10184641
:103B8C003B685B7803FB00F303FB01F3D1183B6844
:103B9C005D783B681B78F87997F8202001920093A8
:103BAC002B460A462146FFF791FC00BF0837BD465D
:103BBC00B0BD80B588B002AFBA607B600346FB73C2
:103BCC000B46BB73FB7BFB7511E0BB681A78B97BAA
:103BDC00F87D97F8203000937B68FFF74EFF7B68E9
:103BEC005A78FB7D1344FB75BB680133BB60BB6823
:103BFC001B78002BE9D100BF1837BD4680BD80B5BE
:103C0C0088B002AFBA607B600346FB730B46BB7394
:103C1C00FB7BFB7514E0BB681A78B97BF87D97F8D1
:103C2C002430019397F8203000937B68FFF754FF02
:103C3C007B685A78FB7D1344FB75BB680133BB6012
:103C4C00BB681B78002BE6D100BF1837BD4680BD82
:103C5C0080B58AB004AFBA607B600346FB730B4639
:103C6C00BB73FB7BFB7517E0BB681A78B97BF87DDF
:103C7C0097F82830029397F82430019397F8203066
:103C8C0000937B68FFF75EFF7B685A78FB7D1344DB
:103C9C00FB75BB680133BB60BB681B78002BE3D1A1
:103CAC0000BF1837BD4680BD80B483B000AF7860CC
:103CBC007B681B785BB2002B01DB012318E07B686F
:103CCC001B7803F0E003C02B01D1022310E07B68CA
:103CDC001B7803F0F003E02B01D1032308E07B6891
:103CEC001B7803F0F803F02B01D1042300E0002330
:103CFC0018460C37BD4680BC7047B0B58AB002AFD1
:103D0C00BA607B600346FB730B46BB730023FB83DB
:103D1C007B681B780733002B00DA0733DB10DBB230
:103D2C007A68527802FB03F3DBB20433FB767DE056
:103D3C0000237B77FB8BBA6813441846FFF7B4FF5C
:103D4C000346BB76BB7E002B78D000233B7732E05A
:103D5C007B685B683A7FF97E01FB02F213447B615E
:103D6C00FB8BBA681344BA7E7969184602F090FF4F
:103D7C000346002B1CD17B691C1D7B685D787B681E
:103D8C001B78B97BF87B97F83020019200932B4677
:103D9C002246FFF79BFB7B685A78FB7B1344FB7333
:103DAC00BB7E9AB2FB8B1344FB8301237B7707E02A
:103DBC003B7F01333B777B681B7A3A7F9A42C7D3B0
:103DCC007B7F002B32D1BB7E012B19D1FB8BBA68C8
:103DDC0013441A787B68DC68B97BF87B97F8303031
:103DEC0000932346FFF749FE7B68DB685A78FB7B20
:103DFC001344FB73BB7E9AB2FB8B1344FB8315E01D
:103E0C007B68DA68B97BF87B97F8303000931346FF
:103E1C002022FFF732FE7B68DB685A78FB7B134469
:103E2C00FB73BB7E9AB2FB8B1344FB83FB8BBA6890
:103E3C0013441B78002B7FF47BAF00E000BF00BF66
:103E4C002037BD46B0BD000080B483B000AF034640
:103E5C000A46FB801346BB80B7F90630002B35DBD6
:103E6C00B7F906307F2B31DCB7F90430002B2DDB92
:103E7C00B7F904303F2B29DCB7F90430002B00DAFA
:103E8C000733DB1018B20246B7F906301249D201DB
:103E9C000A4413441B785AB2B7F90430594203F060
:103EAC00070301F0070158BF4B421BB2194601230F
:103EBC008B405BB2134359B20246B7F90630C8B215
:103ECC000549D2010A44134402461A7000BF0C374C
:103EDC00BD4680BC704700BFA005002080B500AF78
:103EEC00084B1B68074A43F010031360032000F0D3
:103EFC0045F9002000F008F8FEF7E2FE0023184612
:103F0C0080BD00BF0020024080B582B000AF786059
:103F1C00124B1A68124B1B7819464FF47A73B3FB89
:103F2C00F1F3B2FBF3F3184600F05DF90346002BF6
:103F3C0001D001230EE07B680F2B0AD80022796890
:103F4C004FF0FF3000F025F9064A7B681360002320
:103F5C0000E0012318460837BD4680BDF40200205E
:103F6C00040300200003002080B400AF054B1B7835
:103F7C001A46054B1B681344034A136000BFBD4629
:103F8C0080BC704704030020A009002080B400AF5F
:103F9C00024B1B681846BD4680BC7047A009002028
:103FAC0080B584B000AF7860FFF7F0FFB8607B6835
:103FBC00FB60FB68B3F1FF3F05D0094B1B781A4639
:103FCC00FB681344FB6000BFFFF7E0FF0246BB68D1
:103FDC00D31AFA689A42F7D800BF1037BD4680BD95
:103FEC000403002080B485B000AF78607B6803F0D8
:103FFC000703FB600C4BDB68BB60BA684FF6FF0332
:10400C001340BB60FB681A02BB68134343F0BF63E9
:10401C0043F40033BB60044ABB68D36000BF143761
:10402C00BD4680BC704700BF00ED00E080B400AF1F
:10403C00044BDB681B0A03F007031846BD4680BC23
:10404C00704700BF00ED00E080B483B000AF0346C2
:10405C00FB7197F90730002B0BDBFB7903F01F0288
:10406C00064997F907305B09012000FA02F241F882
:10407C00232000BF0C37BD4680BC704700E100E038
:10408C0080B483B000AF03463960FB7197F90730F9
:10409C00002B0ADB3B68DAB20C4997F907301201A6
:1040AC00D2B20B4483F800230AE03B68DAB2084929
:1040BC00FB7903F00F03043B1201D2B20B441A76C6
:1040CC0000BF0C37BD4680BC704700BF00E100E06C
:1040DC0000ED00E080B489B000AFF860B9607A60A0
:1040EC00FB6803F00703FB61FB69C3F10703042BB7
:1040FC0028BF0423BB61FB690433062B02D9FB697F
:10410C00033B00E000237B614FF0FF32BB6902FAF6
:10411C0003F3DA43BB681A407B699A404FF0FF31D6
:10412C007B6901FA03F3D9437B680B4013431846B0
:10413C002437BD4680BC704780B582B000AF786034
:10414C007B68013BB3F1807F01D301230FE00A4A66
:10415C007B68013B53600F214FF0FF30FFF790FF5E
:10416C00054B00229A60044B07221A600023184664
:10417C000837BD4680BD00BF10E000E080B582B0BE
:10418C0000AF78607868FFF72DFF00BF0837BD4699
:10419C0080BD80B586B000AF0346B9607A60FB7312
:1041AC0000237B61FFF742FF78617A68B968786910
:1041BC00FFF790FF024697F90F3011461846FFF7AC
:1041CC005FFF00BF1837BD4680BD80B582B000AF21
:1041DC000346FB7197F907301846FFF735FF00BF10
:1041EC000837BD4680BD80B582B000AF7860786876
:1041FC00FFF7A2FF034618460837BD4680BD0000F6
:10420C0080B48BB000AF7860396000237B620023F0
:10421C003B6227E101227B6A02FA03F3FB613B68F4
:10422C001B68FA691340BB61BA69FB699A4240F09A
:10423C0016813B685B68122B34D0122B0DD8022BE5
:10424C002BD0022B04D8002B31D0012B1CD048E0F2
:10425C00032B43D0112B1BD043E0894A934226D029
:10426C00874A934206D8874A934220D0864A934283
:10427C001DD036E0854A934219D0854A934216D018
:10428C00844A934213D02CE03B68DB683B6228E005
:10429C003B68DB6804333B6223E03B68DB68083334
:1042AC003B621EE03B68DB680C333B6219E03B6809
:1042BC009B68002B02D104233B6212E03B689B6895
:1042CC00012B05D108233B627B68FA691A6108E06F
:1042DC0008233B627B68FA695A6102E000233B6267
:1042EC0000BFBB69FF2B01D87B6801E07B680433FE
:1042FC007B61BB69FF2B02D87B6A9B0002E07B6A67
:10430C00083B9B003B617B691A680F213B6901FAF2
:10431C0003F3DB431A40396A3B6901FA03F31A438E
:10432C007B691A603B685B6803F08053002B00F0DC
:10433C009680594B9B69584A43F001039361564B45
:10434C009B6903F00103BB60BB68544A7B6A9B0802
:10435C00023352F82330FB607B6A03F003039B00AB
:10436C000F2202FA03F3DB43FA681340FB607B680D
:10437C004B4A934213D07B684A4A93420DD07B68D8
:10438C00494A934207D07B68484A934201D10323A0
:10439C0006E0042304E0022302E0012300E00023F2
:1043AC007A6A02F0030292009340FA681343FB60AE
:1043BC003A497B6A9B080233FA6841F823203B6830
:1043CC005B6803F48033002B06D0394B1A683849EC
:1043DC00BB6913430B6006E0354B1A68BB69DB43C2
:1043EC00334913400B603B685B6803F40033002BCC
:1043FC0006D02F4B5A682E49BB6913434B6006E01D
:10440C002B4B5A68BB69DB43294913404B603B6813
:10441C005B6803F48013002B06D0254B9A68244963
:10442C00BB6913438B6006E0214B9A68BB69DB4385
:10443C001F4913408B603B685B6803F40013002B2F
:10444C0006D01B4BDA681A49BB691343CB6006E0F4
:10445C00174BDA68BB69DB4315491340CB607B6AA9
:10446C0001337B623B681A687B6A22FA03F3002BE8
:10447C007FF4D0AE00BF2C37BD4680BC704700BF68
:10448C00000021100000111000001210000031106B
:10449C000000321000002210001002400000014009
:1044AC0000080140000C01400010014000140140C4
:1044BC000004014080B485B000AF78600B467B806F
:1044CC007B689A687B881340002B02D00123FB7316
:1044DC0001E00023FB73FB7B18461437BD4680BC00
:1044EC00704780B483B000AF78600B467B80134676
:1044FC007B707B78002B03D07A887B681A6103E091
:10450C007B881A047B681A6100BF0C37BD4680BCDF
:10451C007047000080B584B000AF78607B68002BDA
:10452C0001D101231FE17B6893F83D30DBB2002BF6
:10453C0006D17B68002283F83C207868FEF75EF990
:10454C007B68242283F83D207B681B681A687B6893
:10455C001B6822F001021A607B681B681A687B6872
:10456C001B6842F400421A607B681B681A687B68FF
:10457C001B6822F400421A6001F076FBF8607B683D
:10458C005B687B4A934207D8FB687A4A934294BF94
:10459C0001230023DBB206E0FB68774A934294BF09
:1045AC0001230023DBB2002B01D00123DBE0FB68ED
:1045BC00724AA2FB03239B0CBB607B681B685B6885
:1045CC0023F03F017B681B68BA680A435A607B681A
:1045DC001B681B6A23F03F017B685B68644A93424B
:1045EC0002D8BB68013309E0BB684FF4967202FB3A
:1045FC0003F3634AA2FB03239B0901337A68126815
:10460C000B4313627B681B68DB6923F44F4222F077
:10461C00FF027B685B6856498B420DD8FB68591EBC
:10462C007B685B685B00B1FBF3F30133C3F30B03F3
:10463C00042B38BF04234FE07B689B68002B11D1FF
:10464C00FB68581E7B6859680B465B000B44B0FB3B
:10465C00F3F30133C3F30B03002B0CBF0123002333
:10466C00DBB212E0FB68581E7B6859680B469B0056
:10467C000B4499000B44B0FBF3F30133C3F30B036E
:10468C00002B0CBF01230023DBB2002B01D0012334
:10469C0022E07B689B68002B0ED1FB68581E7B6860
:1046AC0059680B465B000B44B0FBF3F30133C3F3C7
:1046BC000B0343F400430FE0FB68581E7B685968FA
:1046CC000B469B000B4499000B44B0FBF3F30133F6
:1046DC00C3F30B0343F44043796809681343CB617C
:1046EC007B681B681B6823F0C0017B68DA697B68F8
:1046FC001B6A1A437B681B680A431A607B681B6839
:10470C009B6823F4034323F0FF037A6811697A68EA
:10471C00D26811437A6812680B4393607B681B68FC
:10472C00DB6823F0FF017B685A697B689B691A433D
:10473C007B681B680A43DA607B681B681A687B68B5
:10474C001B6842F001021A607B6800221A647B68C5
:10475C00202283F83D207B6800221A637B680022AC
:10476C0083F83E20002318461037BD4680BD00BF9D
:10477C00A08601007F841E00FF083D0083DE1B43E2
:10478C00D34D621080B588B002AFF8607A601A46DB
:10479C000B467B8113463B81FFF7F8FB7861FB6886
:1047AC0093F83D30DBB2202B40F0E0807B69009326
:1047BC00192301227049F86800F08CFC0346002B89
:1047CC0001D00223D3E0FB6893F83C30012B01D1DC
:1047DC000223CCE0FB68012283F83C20FB681B68B9
:1047EC001B6803F00103012B07D0FB681B681A68D8
:1047FC00FB681B6842F001021A60FB681B681A68B0
:10480C00FB681B6822F400621A60FB68212283F8A3
:10481C003D20FB68102283F83E20FB6800221A64BE
:10482C00FB687A685A62FB683A895A85FB685B8D2B
:10483C009AB2FB681A85FB68504ADA6279897B69FF
:10484C003A6AF86800F0F6FA0346002B01D001230F
:10485C008DE000233B61FB681B685B693B61FB6877
:10486C001B689B693B613B6966E07A69396AF86849
:10487C0000F006FD0346002B0DD0FB681B6C042BCF
:10488C0007D1FB681B681A68FB681B6842F400724E
:10489C001A6001236BE0FB685B6A1A78FB681B6883
:1048AC001A61FB685B6A5A1CFB685A62FB685B8D79
:1048BC009BB2013B9AB2FB685A85FB681B8D013B8E
:1048CC009AB2FB681A85FB681B685B6903F00403EA
:1048DC00042B1BD1FB681B8D002B17D0FB685B6A6C
:1048EC001A78FB681B681A61FB685B6A5A1CFB68C8
:1048FC005A62FB685B8D9BB2013B9AB2FB685A858E
:10490C00FB681B8D013B9AB2FB681A857A69396A80
:10491C00F86800F0F6FC0346002B0DD0FB681B6C0E
:10492C00042B07D1FB681B681A68FB681B6842F4F0
:10493C0000721A6001231AE0FB681B8D002B94D1C6
:10494C00FB681B681A68FB681B6842F400721A60EB
:10495C00FB68202283F83D20FB68002283F83E2070
:10496C00FB68002283F83C20002300E00223184659
:10497C001837BD4680BD00BF020010000000FFFFCD
:10498C0080B58CB002AFF8607A601A460B467B811A
:10499C0013463B8100233B62FFF7F8FA7862FB6811
:1049AC0093F83D30DBB2202B40F038827B6A0093C9
:1049BC00192301227E49F86800F08CFB0346002B7A
:1049CC0001D002232BE2FB6893F83C30012B01D180
:1049DC00022324E2FB68012283F83C20FB681B685D
:1049EC001B6803F00103012B07D0FB681B681A68D6
:1049FC00FB681B6842F001021A60FB681B681A68AE
:104A0C00FB681B6822F400621A60FB68222283F8A0
:104A1C003D20FB68102283F83E20FB6800221A64BC
:104A2C00FB687A685A62FB683A895A85FB685B8D29
:104A3C009AB2FB681A85FB685E4ADA6279897B6AEE
:104A4C003A6BF86800F078FA0346002B01D001238A
:104A5C00E5E1FB681B8D002B13D10023FB61FB6888
:104A6C001B685B69FB61FB681B689B69FB61FB69ED
:104A7C00FB681B681A68FB681B6842F400721A60BA
:104A8C00B9E1FB681B8D012B1DD1FB681B681A68F3
:104A9C00FB681B6822F480621A6072B60023BB614B
:104AAC00FB681B685B69BB61FB681B689B69BB612E
:104ABC00BB69FB681B681A68FB681B6842F40072D0
:104ACC001A6062B697E1FB681B8D022B1DD1FB6847
:104ADC001B681A68FB681B6842F400621A6072B6A5
:104AEC0000237B61FB681B685B697B61FB681B684F
:104AFC009B697B617B69FB681B681A68FB681B6898
:104B0C0022F480621A6062B675E1FB681B681A6851
:104B1C00FB681B6842F480621A6000233B61FB68EF
:104B2C001B685B693B61FB681B689B693B613B696C
:104B3C0061E1FB681B8D032B00F21A81FB681B8D56
:104B4C00012B23D17A6A396BF86800F01BFC034601
:104B5C00002B01D0012362E1FB681B681A69FB681A
:104B6C005B6AD2B21A70FB685B6A5A1CFB685A62A9
:104B7C00FB681B8D013B9AB2FB681A85FB685B8D49
:104B8C009BB2013B9AB2FB685A8534E1FB681B8DE2
:104B9C00022B50D17B6A00933B6B00220649F868CC
:104BAC0000F098FA0346002B08D0012337E100BF30
:104BBC00020010000000FFFF0400010072B6FB6849
:104BCC001B681A68FB681B6842F400721A60FB6869
:104BDC001B681A69FB685B6AD2B21A70FB685B6A65
:104BEC005A1CFB685A62FB681B8D013B9AB2FB682E
:104BFC001A85FB685B8D9BB2013B9AB2FB685A85A8
:104C0C0062B6FB681B681A69FB685B6AD2B21A70E1
:104C1C00FB685B6A5A1CFB685A62FB681B8D013B84
:104C2C009AB2FB681A85FB685B8D9BB2013B9AB20A
:104C3C00FB685A85DFE07B6A00933B6B00227A4964
:104C4C00F86800F047FA0346002B01D00123E6E098
:104C5C00FB681B681A68FB681B6822F480621A6088
:104C6C0072B6FB681B681A69FB685B6AD2B21A7071
:104C7C00FB685B6A5A1CFB685A62FB681B8D013B24
:104C8C009AB2FB681A85FB685B8D9BB2013B9AB2AA
:104C9C00FB685A85654B1B68DB08654AA2FB03233E
:104CAC001A0A13469B001344DA00D31A3B623B6A80
:104CBC00013B3B623B6A002B17D1FB6800221A6355
:104CCC00FB68202283F83D20FB68002283F83E20FD
:104CDC00FB681B6C43F02002FB681A6462B6FB682D
:104CEC00002283F83C20012399E0FB681B685B6978
:104CFC0003F00403042BDAD1FB681B681A68FB6809
:104D0C001B6842F400721A60FB681B681A69FB6826
:104D1C005B6AD2B21A70FB685B6A5A1CFB685A62F7
:104D2C00FB681B8D013B9AB2FB681A85FB685B8D97
:104D3C009BB2013B9AB2FB685A8562B6FB681B6852
:104D4C001A69FB685B6AD2B21A70FB685B6A5A1C00
:104D5C00FB685A62FB681B8D013B9AB2FB681A8593
:104D6C00FB685B8D9BB2013B9AB2FB685A8542E0B3
:104D7C007A6A396BF86800F005FB0346002B01D00A
:104D8C0001234CE0FB681B681A69FB685B6AD2B2B2
:104D9C001A70FB685B6A5A1CFB685A62FB681B8DB5
:104DAC00013B9AB2FB681A85FB685B8D9BB2013B99
:104DBC009AB2FB685A85FB681B685B6903F00403B5
:104DCC00042B18D1FB681B681A69FB685B6AD2B2AA
:104DDC001A70FB685B6A5A1CFB685A62FB681B8D75
:104DEC00013B9AB2FB681A85FB685B8D9BB2013B59
:104DFC009AB2FB685A85FB681B8D002B7FF499AE29
:104E0C00FB68202283F83D20FB68002283F83E20BB
:104E1C00FB68002283F83C20002300E002231846A4
:104E2C002837BD4680BD00BF04000100F4020020FD
:104E3C0089B5F81480B588B002AFF8607A603B6031
:104E4C000B467B81FB68DB6A7B617B69082B06D098
:104E5C007B69012B03D07B6913F5803F08D1FB687C
:104E6C001B681A68FB681B6842F480721A600BE0BE
:104E7C00FB681B6B122B07D1FB681B681A68FB685D
:104E8C001B6842F480721A603B6800937B680022B6
:104E9C004FF00111F86800F01DF90346002B0DD0FE
:104EAC00FB681B681B6803F48073B3F5807F03D128
:104EBC00FB684FF400721A64032335E0FB681B692E
:104ECC00B3F5804F08D17B89DBB21A46FB681B68AF
:104EDC0002F0FE021A611BE07B89DB11DBB203F0EE
:104EEC000603DBB263F00F03DAB2FB681B681A61CE
:104EFC003B687A680E49F86800F043F90346002BCA
:104F0C0001D0012310E07B89DAB2FB681B681A61BF
:104F1C003B687A680749F86800F033F90346002BC0
:104F2C0001D0012300E0002318461837BD4680BD90
:104F3C00080001000200010080B588B002AFF860E3
:104F4C007A603B600B467B81FB68DB6A7B61FB68AC
:104F5C001B681A68FB681B6842F480621A607B69E4
:104F6C00082B06D07B69012B03D07B6913F5803F9E
:104F7C0008D1FB681B681A68FB681B6842F48072D6
:104F8C001A600BE0FB681B6B112B07D1FB681B68CD
:104F9C001A68FB681B6842F480721A603B680093C5
:104FAC007B6800224FF00111F86800F093F803467B
:104FBC00002B0DD0FB681B681B6803F48073B3F5E2
:104FCC00807F03D1FB684FF400721A64032379E0ED
:104FDC00FB681B69B3F5804F08D17B89DBB243F0CA
:104FEC000103DAB2FB681B681A615FE07B89DB1195
:104FFC00DBB203F00603DBB263F00F03DAB2FB683B
:10500C001B681A613B687A683049F86800F0B9F897
:10501C000346002B01D0012354E07B89DAB2FB68F4
:10502C001B681A613B687A682949F86800F0A9F88E
:10503C000346002B01D0012344E000233B61FB68B5
:10504C001B685B693B61FB681B689B693B613B6947
:10505C00FB681B681A68FB681B6842F480721A6054
:10506C003B6800937B6800224FF00111F86800F058
:10507C0031F80346002B0DD0FB681B681B6803F44A
:10508C008073B3F5807F03D1FB684FF400721A6410
:10509C00032317E07B89DB11DBB203F00603DBB2E1
:1050AC0063F00E03DAB2FB681B681A613B687A681E
:1050BC000749F86800F065F80346002B01D001237E
:1050CC0000E0002318461837BD4680BD08000100DB
:1050DC000200010080B584B000AFF860B9603B609D
:1050EC001346FB7125E03B68B3F1FF3F21D0FEF77F
:1050FC004DFF0246BB69D31A3A689A4202D33B6809
:10510C00002B16D1FB6800221A63FB68202283F85F
:10511C003D20FB68002283F83E20FB681B6C43F0AB
:10512C002002FB681A64FB68002283F83C200123F0
:10513C0023E0BB681B0CDBB2012B0DD1FB681B6899
:10514C005B69DA43BB6813409BB2002B0CBF012395
:10515C000023DBB21A460CE0FB681B689B69DA4340
:10516C00BB6813409BB2002B0CBF01230023DBB2A6
:10517C001A46FB799A42B6D0002318461037BD4622
:10518C0080BD80B584B000AFF860B9607A603B60D8
:10519C0051E0FB681B685B6903F48063B3F5806FB7
:1051AC0023D1FB681B681A68FB681B6842F4007209
:1051BC001A60FB681B686FF480625A61FB680022FE
:1051CC001A63FB68202283F83D20FB68002283F8D9
:1051DC003E20FB681B6C43F00402FB681A64FB68FE
:1051EC00002283F83C20012346E07B68B3F1FF3FAB
:1051FC0021D0FEF7CBFE02463B68D31A7A689A425E
:10520C0002D37B68002B16D1FB6800221A63FB6863
:10521C00202283F83D20FB68002283F83E20FB68A7
:10522C001B6C43F02002FB681A64FB68002283F8B5
:10523C003C20012320E0BB681B0CDBB2012B0CD102
:10524C00FB681B685B69DA43BB6813409BB2002B9D
:10525C0014BF01230023DBB20BE0FB681B689B69C6
:10526C00DA43BB6813409BB2002B14BF012300230D
:10527C00DBB2002B8DD1002318461037BD4680BD04
:10528C0080B584B000AFF860B9607A602DE0F86842
:10529C0000F0CEF80346002B01D001232DE0BB68B3
:1052AC00B3F1FF3F21D0FEF771FE02467B68D31AA3
:1052BC00BA689A4202D3BB68002B16D1FB68002255
:1052CC001A63FB68202283F83D20FB68002283F8D8
:1052DC003E20FB681B6C43F02002FB681A64FB68E1
:1052EC00002283F83C20012307E0FB681B685B6904
:1052FC0003F08003802BCAD1002318461037BD461B
:10530C0080BD80B584B000AFF860B9607A602DE0E4
:10531C00F86800F08DF80346002B01D001232DE036
:10532C00BB68B3F1FF3F21D0FEF730FE02467B682D
:10533C00D31ABA689A4202D3BB68002B16D1FB6809
:10534C0000221A63FB68202283F83D20FB680022B0
:10535C0083F83E20FB681B6C43F02002FB681A6448
:10536C00FB68002283F83C20012307E0FB681B68E4
:10537C005B6903F00403042BCAD1002318461037D1
:10538C00BD4680BD80B584B000AFF860B9607A606E
:10539C0042E0FB681B685B6903F01003102B19D10A
:1053AC00FB681B686FF010025A61FB6800221A63DD
:1053BC00FB68202283F83D20FB68002283F83E2006
:1053CC00FB681A6CFB681A64FB68002283F83C20AB
:1053DC00012329E0FEF7DAFD02467B68D31ABA688E
:1053EC009A4202D3BB68002B16D1FB6800221A63C9
:1053FC00FB68202283F83D20FB68002283F83E20C6
:10540C00FB681B6C43F02002FB681A64FB680022EB
:10541C0083F83C20012307E0FB681B685B6903F001
:10542C004003402BB5D1002318461037BD4680BD34
:10543C0080B483B000AF78607B681B685B6903F451
:10544C008063B3F5806F1BD17B681B686FF480623F
:10545C005A617B6800221A637B68202283F83D2006
:10546C007B68002283F83E207B681B6C43F00402AF
:10547C007B681A647B68002283F83C20012300E0DF
:10548C00002318460C37BD4680BC704780B400AF73
:10549C00034B01221A6000BFBD4680BC704700BFA1
:1054AC0020000E4280B400AF034B00221A6000BFF4
:1054BC00BD4680BC704700BF20000E4280B586B050
:1054CC0000AF78607B68002B01D101236CE27B6814
:1054DC001B6803F00103002B00F08780924B5B6884
:1054EC0003F00C03042B0CD08F4B5B6803F00C0304
:1054FC00082B12D18C4B5B6803F48033B3F5803FDF
:10550C000BD1894B1B6803F40033002B6CD07B68E8
:10551C005B68002B68D1012346E27B685B68B3F5BE
:10552C00803F06D1804B1B687F4A43F48033136065
:10553C002EE07B685B68002B0CD17B4B1B687A4A96
:10554C0023F480331360784B1B68774A23F4802351
:10555C0013601DE07B685B68B3F5A02F0CD1724B18
:10556C001B68714A43F4802313606F4B1B686E4AAF
:10557C0043F4803313600BE06B4B1B686A4A23F4D3
:10558C0080331360684B1B68674A23F480231360D5
:10559C007B685B68002B13D0FEF7F8FC386108E0E1
:1055AC00FEF7F4FC02463B69D31A642B01D90323A2
:1055BC00FAE15D4B1B6803F40033002BF0D014E0D0
:1055CC00FEF7E4FC386108E0FEF7E0FC02463B69BC
:1055DC00D31A642B01D90323E6E1534B1B6803F464
:1055EC000033002BF0D100E000BF7B681B6803F098
:1055FC000203002B63D04C4B5B6803F00C03002BB5
:10560C000BD0494B5B6803F00C03082B1CD1464BA9
:10561C005B6803F48033002B16D1434B1B6803F0FB
:10562C000203002B05D07B681B69012B01D00123E1
:10563C00BAE13D4B1B6823F0F8027B685B69DB0029
:10564C00394913430B603AE07B681B69002B20D06F
:10565C00364B01221A60FEF799FC386108E0FEF720
:10566C0095FC02463B69D31A022B01D903239BE11B
:10567C002D4B1B6803F00203002BF0D02A4B1B6848
:10568C0023F0F8027B685B69DB00274913430B604E
:10569C0015E0264B00221A60FEF778FC386108E012
:1056AC00FEF774FC02463B69D31A022B01D9032383
:1056BC007AE11D4B1B6803F00203002BF0D17B68D1
:1056CC001B6803F00803002B3AD07B689B69002B06
:1056DC0019D0174B01221A60FEF758FC386108E00C
:1056EC00FEF754FC02463B69D31A022B01D9032363
:1056FC005AE10D4B5B6A03F00203002BF0D0012042
:10570C0000F0DAFA1CE00A4B00221A60FEF73EFCAD
:10571C0038610FE0FEF73AFC02463B69D31A022BC4
:10572C0008D9032340E100BF0010024000004242B0
:10573C00800442429E4B5B6A03F00203002BE9D1CA
:10574C007B681B6803F00403002B00F0A680002389
:10575C00FB75974BDB6903F08053002B0DD1944BF9
:10576C00DB69934A43F08053D361914BDB6903F0BF
:10577C008053BB60BB680123FB758E4B1B6803F425
:10578C008073002B18D18B4B1B688A4A43F48073AF
:10579C001360FEF7FBFB386108E0FEF7F7FB0246EF
:1057AC003B69D31A642B01D90323FDE0814B1B68A1
:1057BC0003F48073002BF0D07B68DB68012B06D1DF
:1057CC007B4B1B6A7A4A43F0010313622DE07B6822
:1057DC00DB68002B0CD1764B1B6A754A23F0010356
:1057EC001362734B1B6A724A23F0040313621CE0AE
:1057FC007B68DB68052B0CD16D4B1B6A6C4A43F044
:10580C00040313626A4B1B6A694A43F00103136277
:10581C000BE0674B1B6A664A23F001031362644B6F
:10582C001B6A634A23F0040313627B68DB68002B5A
:10583C0015D0FEF7ABFB38610AE0FEF7A7FB02467A
:10584C003B69D31A41F28832934201D90323ABE06E
:10585C00574B1B6A03F00203002BEED014E0FEF74B
:10586C0095FB38610AE0FEF791FB02463B69D31ABF
:10587C0041F28832934201D9032395E04C4B1B6AC9
:10588C0003F00203002BEED1FB7D012B05D1484B1D
:10589C00DB69474A23F08053D3617B68DB69002BBB
:1058AC0000F08180424B5B6803F00C03082B61D045
:1058BC007B68DB69022B46D13F4B00221A60FEF756
:1058CC0065FB386108E0FEF761FB02463B69D31AC1
:1058DC00022B01D9032367E0354B1B6803F00073DF
:1058EC00002BF0D17B681B6AB3F5803F08D1304B9D
:1058FC005B6823F400327B689B682D4913434B6033
:10590C002B4B5B6823F474127B68196A7B685B6AA7
:10591C000B43274913434B60274B01221A60FEF7B8
:10592C0035FB386108E0FEF731FB02463B69D31AC0
:10593C00022B01D9032337E01D4B1B6803F00073C6
:10594C00002BF0D02FE01C4B00221A60FEF71EFB40
:10595C00386108E0FEF71AFB02463B69D31A022BAA
:10596C0001D9032320E0124B1B6803F00073002BBA
:10597C00F0D118E07B68DB69012B01D1012313E026
:10598C000B4B5B68FB60FB6803F480327B681B6A23
:10599C009A4206D1FB6803F470127B685B6A9A42E8
:1059AC0001D0012300E0002318461837BD4680BD06
:1059BC0000100240007000406000424280B584B08C
:1059CC0000AF786039607B68002B01D10123D0E0F7
:1059DC006A4B1B6803F007033A689A4210D9674B6D
:1059EC001B6823F0070265493B6813430B60634B4C
:1059FC001B6803F007033A689A4201D00123B8E010
:105A0C007B681B6803F00203002B20D07B681B68AB
:105A1C0003F00403002B05D0594B5B68584A43F440
:105A2C00E06353607B681B6803F00803002B05D010
:105A3C00534B5B68524A43F460535360504B5B6862
:105A4C0023F0F0027B689B684D4913434B607B68E5
:105A5C001B6803F00103002B40D07B685B68012BB3
:105A6C0007D1474B1B6803F40033002B15D10123DE
:105A7C007FE07B685B68022B07D1414B1B6803F00E
:105A8C000073002B09D1012373E03D4B1B6803F01D
:105A9C000203002B01D101236BE0394B5B6823F02F
:105AAC0003027B685B68364913434B60FEF76EFA62
:105ABC00F8600AE0FEF76AFA0246FB68D31A41F274
:105ACC008832934201D9032353E02D4B5B6803F0DA
