:020000040800F2
:100000000050002085240008A9230008AF23000821
:10001000B5230008BB230008C1230008000000002E
:10002000000000000000000000000000C7230008DE
:10003000D323000800000000DF230008EB230008A2
:10004000CD240008CD240008CD240008F9230008A1
:10005000CD240008CD240008CD240008CD240008BC
:10006000CD240008CD240008CD240008CD240008AC
:10007000CD240008CD240008CD240008CD2400089C
:10008000CD240008CD240008CD240008CD2400088C
:10009000CD240008CD240008CD240008CD2400087C
:1000A000CD240008CD240008CD240008CD2400086C
:1000B000CD240008CD240008CD240008CD2400085C
:1000C000CD240008CD240008CD240008CD2400084C
:1000D000CD240008CD240008CD240008CD2400083C
:1000E000CD240008CD240008CD2400080000000025
:1000F0000000000000000000000000000000000000
:0C01000000000000000000005FF808F1A3
:10010C0010B5054C237833B9044B13B10448AFF345
:10011C0000800123237010BD680300200000000044
:10012C00C861000808B5034B1BB103490348AFF382
:10013C00008008BD000000006C030020C8610008AE
:10014C0080B500AF4FF400410A4803F061FB034651
:10015C00002B0CD10A2003F0D1F84FF400410548D4
:10016C0003F056FB0346002B01D1012300E00023D2
:10017C00184680BD000C014080B586B002AF3B46EE
:10018C0000221A605A601A8102F076F8FFF7D8FF45
:10019C000346002B7BD100224049414804F07AFEF3
:1001AC00002240493E4805F003F83B460A22002154
:1001BC00184605F0B7FB02F079FA384B9B7803F040
:1001CC000103DBB2002B27D1344B1B781A46334B7F
:1001DC005B783846344905F0E1FB3A46002300933E
:1001EC00324B1421032002F0E8FE3B460A22002188
:1001FC00184605F097FB294B9B781A463B462C4931
:10020C00184605F0CBFB3A4600230093294B1C21E2
:10021C00672002F0D2FE26E0204B1B781A461F4BBB
:10022C005B783846244905F0B9FB3A460023009325
:10023C001E4B1421032002F0C0FE3B460A22002173
:10024C00184605F06FFB154B9B781A463B46184930
:10025C00184605F0A3FB3A4600230093154B1C21CE
:10026C00672002F0AAFE02F02DFA0023FB600AE0E0
:10027C00FFF766FF0346002B0BD1642003F03EF81A
:10028C00FB680133FB60FB68092BF1DD7EE700BFE7
:10029C0000E000BF18461037BD4680BD7C0400202E
:1002AC00F804002080040020E061000804780008B5
:1002BC00EC610008487A0008F461000880B582B04F
:1002CC0002AF02F0F3F9002300930E4B0E4A082103
:1002DC00002002F0C1FE002300930A4B0B4A2B2195
:1002EC00002002F0B9FE02F0EDF900BF4FF400411E
:1002FC00074803F08DFA0346002BF7D100BFBD462B
:10030C0080BD00BF10810008006200081462000864
:10031C00000C014080B584B002AF00237B60012348
:10032C00FB7002F0C3F90023854A0021002002F083
:10033C00F7FD00230093834B834A00210A2002F02F
:10034C008BFE002300937F4B804A10210A2002F081
:10035C0083FE02F0B7F902F0B5F80346DAB27C4B33
:10036C001A707B4B1B78012B07D1FB78013BFB7080
:10037C00FB78002B01D10323FB70754B1B78022BF0
:10038C0007D1FB780133FB70FB78042B01D10123DF
:10039C00FB706F4B1B78032B05D102F087F902F031
:1003AC0091F9FB787B606A4B1B78042B01D10023FD
:1003BC00C2E07B68012B0AD100F038FA00F058FB40
:1003CC0000237B604FF4967002F098FF16E07B6878
:1003DC00022B08D101F080F800237B604FF496705B
:1003EC0002F08CFF0AE07B68032B07D100F0CCFDF8
:1003FC0000237B604FF4967002F080FFFB78013B8A
:10040C00032B00F2978001A252F823F02904000874
:10041C006F040008B5040008FB04000802F046F95C
:10042C000023474A0021002002F07AFD00230093AC
:10043C00444B484A00210A2002F00EFE0023009390
:10044C00404B454A10210A2002F006FE002300937F
:10045C003C4B424A20210A2002F0FEFD02F032F908
:10046C0069E002F023F90023354A1021002002F044
:10047C0057FD00230093334B364A00210A2002F02B
:10048C00EBFD002300932F4B334A10210A2002F07E
:10049C00E3FD002300932B4B304A20210A2002F06D
:1004AC00DBFD02F00FF946E002F000F90023244ACC
:1004BC002021002002F034FD00230093214B254A1B
:1004CC0000210A2002F0C8FD002300931D4B224A94
:1004DC0010210A2002F0C0FD00230093194B1F4A83
:1004EC0020210A2002F0B8FD02F0ECF823E002F023
:1004FC00DDF80023124A3021002002F011FD002308
:10050C000093104B134A00210A2002F0A5FD002392
:10051C0000930C4B104A10210A2002F09DFD002381
:10052C000093084B0D4A20210A2002F095FD02F0A1
:10053C00C9F800E000BF0EE718460837BD4680BD7D
:10054C00F4020020108100082062000830620008CC
:10055C0084040020446200085462000864620008AD
:10056C0080B584B002AF0123FB7102F09FF8002329
:10057C00A54A0021002002F0D3FC00230093A34BDA
:10058C00A34A00210A2002F067FD002300939F4B31
:10059C00A04A10210A2002F05FFD002300939B4B20
:1005AC009D4A20210A2002F057FD00230093974B0F
:1005BC009A4A30210A2002F04FFD02F083F801F034
:1005CC0081FF0346DAB2964B1A70954B1B78012BC0
:1005DC0007D1FB79013BFB71FB79002B01D1062381
:1005EC00FB718F4B1B78022B07D1FB790133FB710D
:1005FC00FB79072B01D10123FB71894B1B78032B52
:10060C0005D102F053F802F05DF8FB79F8E0FB79C4
:10061C00013B052B00F2F28001A252F823F000BF3F
:10062C00450600089B060008F1060008470700086D
:10063C009D070008D307000802F038F80023724A1F
:10064C000021002002F06CFC002300936F4B704AD9
:10065C0000210A2002F000FD002300936B4B6D4A31
:10066C0010210A2002F0F8FC00230093674B6A4A21
:10067C0020210A2002F0F0FC00230093634B674A10
:10068C0030210A2002F0E8FC02F01CF8B7E002F07E
:10069C000DF800235C4A1021002002F041FC0023DD
:1006AC0000935A4B5A4A00210A2002F0D5FC002331
:1006BC000093564B574A10210A2002F0CDFC002320
:1006CC000093524B544A20210A2002F0C5FC00230F
:1006DC0000934E4B514A30210A2002F0BDFC01F030
:1006EC00F1FF8CE001F0E2FF0023474A20210020BB
:1006FC0002F016FC00230093444B454A00210A20CB
:10070C0002F0AAFC00230093404B424A10210A201D
:10071C0002F0A2FC002300933C4B3F4A20210A200C
:10072C0002F09AFC00230093384B3C4A30210A20FB
:10073C0002F092FC01F0C6FF61E001F0B7FF00236C
:10074C00314A3021002002F0EBFB002300932F4BA9
:10075C002F4A00210A2002F07FFC002300932B4B30
:10076C002C4A10210A2002F077FC00230093274B1F
:10077C00294A20210A2002F06FFC00230093234B0E
:10078C00264A30210A2002F067FC01F09BFF36E07C
:10079C0001F08CFF00231C4A0021002002F0C0FB5A
:1007AC0000230093194B1F4A00210A2002F054FC2D
:1007BC0000230093154B1C4A10210A2002F04CFC1C
:1007CC0001F080FF1BE001F071FF00230E4A1021A5
:1007DC00002002F0A5FB002300930C4B114A0021D2
:1007EC000A2002F039FC00230093084B0E4A10211A
:1007FC000A2002F031FC01F065FF00E000BFDEE6EC
:10080C0018460837BD4680BDF40200201081000850
:10081C00746200087C62000884620008946200081C
:10082C0084040020A0620008A862000880B584B08F
:10083C0002AF01237B6001F039FF0023124A27210C
:10084C000A2002F06DFB4FF40041104802F0E0FF6B
:10085C000346002B11D07B68DAB2002300933F23B0
:10086C003F21002002F046F901F02CFF7B68043395
:10087C007B607B687F2B02DCE5E700BF00E000BFFC
:10088C000837BD4680BD00BF94640008000C0140D1
:10089C0080B582B000AF03463960FB803B68002B0B
:1008AC0007D1FB88D9B20023154A0A2002F038FB85
:1008BC0021E03B68012B07D1FB88D9B20023114AF8
:1008CC000A2002F02DFB16E03B68B3F1FF3F07D185
:1008DC00FB88D9B200230C4A0A2002F021FB0AE063
:1008EC003B6813F1020F06D1FB88D9B20023074AEB
:1008FC000A2002F015FB00BF0837BD4680BD00BFC3
:10090C00046400084C64000894640008BC6300088C
:10091C0080B582B000AF03463960FB80B7F9062082
:10092C003B681B78C3F17F039A420BDCFB88D8B27F
:10093C003B685B78C3F13F03D9B200233A6802F0FD
:10094C00EFFA00E000BF0837BD4680BD80B584B02B
:10095C0002AF78600B46FB7097F90330002B15D172
:10096C007A681849184805F019F800230093174BBA
:10097C00174A0321482002F06FFB00230093134B0E
:10098C00114A0321662002F067FB16E0114B1B682D
:10099C001A460C490C4805F001F8002300930B4B48
:1009AC000D4A16213C2002F057FB00230093074B05
:1009BC00054A1621662002F04FFB00BF0837BD46E2
:1009CC0080BD00BFD062000888030020E0820008D0
:1009DC00D462000884030020E062000880B586B071
:1009EC0002AFBA607B600346FB810B46BB81B7F953
:1009FC0018306FF001011846FFF74AFFB7F90E30B7
:100A0C00396A1846FFF784FFB7F90C30796A184633
:100A1C00FFF77EFF002300933F237F223F2100201E
:100A2C0002F068F80021B868FFF790FF0D4B1B68C7
:100A3C00BA689A420BDD0B4ABB6813600023009323
:100A4C00094B0A4A16214B2002F006FB03E0012158
:100A5C00B868FFF77BFF01F035FE00BF1037BD46CD
:100A6C0080BD00BF84030020E0820008F062000813
:100A7C0080B58EB004AFFC233B8140F27D13FB802C
:100A8C003B89C8339BB2FB84FB88C8339BB2BB84C5
:100A9C0002F02AFC034603F00703002B01D0AF4BF6
:100AAC0000E0AF4B3B6202F01FFC0146AD4BA3FBD9
:100ABC0001239A0813469B001344CA1A002A01D03A
:100ACC00A64B00E0A64BFB6115239BB20A339BB2ED
:100ADC00BB8027237B8300237B6100233B610023A6
:100AEC00FB600023FB7201F0E1FD4FF480519E4846
:100AFC0002F08EFE0346002B0FD04FF400519A48A3
:100B0C0002F086FE0346002B07D04FF48041964836
:100B1C0002F07EFE0346002B05D17B69002B0BD126
:100B2C0001237B6108E04FF400418F4802F070FE16
:100B3C000346002B00F05081B7F92620B7F90410BA
:100B4C007B69052BA8BF0523CB1A9A4229DCB7F980
:100B5C0026300B2B25DDB7F91A3017221A443B6AC5
:100B6C005B78C3F13F039A421BDBB7F92410B7F94A
:100B7C002600FB6903933B6A0293B7F90430019397
:100B8C00B7F91A3000937B69FA68FFF727FF00BFAB
:100B9C004FF40041744802F03BFE0346002BF7D1A2
:100BAC001BE1B7F92420B7F904107B69052BA8BF0A
:100BBC000523CB1A9A4229DCB7F924300B2B25DDFF
:100BCC00B7F91A3017221A44FB695B78C3F13F035B
:100BDC009A421BDBB7F92610B7F92400FB69039383
:100BEC003B6A0293B7F904300193B7F91A300093BA
:100BFC007B69FA68FFF7F2FE00BF4FF400415A48D8
:100C0C0002F006FE0346002BF7D1E6E07B69002BD1
:100C1C0010DD7B69013B554AD35C9BB2C3F12703C2
:100C2C009BB27B837B6901337B617B69262B01DD66
:100C3C0000237B613B6901333B613B694C4A82FB7E
:100C4C0003125210DB17D31AFB600021F868FFF770
:100C5C007DFE7B69002B07D0B7F91A304FF0FF31BE
:100C6C001846FFF715FE17E097F90B30042BCCBF95
:100C7C0001230023DBB21A46B7F91A301146184685
:100C8C00FFF706FEFB7A0133DBB2FB7297F90B30F0
:100C9C00092B01DD0023FB72B7F92630396A18469F
:100CAC00FFF736FEB7F92430F9691846FFF730FE26
:100CBC00002300933F237F223F21002001F01AFFE5
:100CCC00FB8C023B9BB2FB84BB8C023B9BB2BB8478
:100CDC00B7F92630002B1FDC02F006FB0246214B35
:100CEC00A3FB0223D9081F4BA3FB01231A091346AC
:100CFC009B0013449B00CA1A92B23B8913449BB2CB
:100D0C00FB8402F0F1FA034603F00303002B01D03D
:100D1C00124B00E0124B3B62B7F92430002B2BDC5A
:100D2C0002F0E2FA02460F4BA3FB0223D9080D4B4B
:100D3C00A3FB01231A0913469B0013449B00CA1AF8
:100D4C0092B2FB8813449BB2BB8402F0CDFA0346EB
:100D5C0003F00103002B0DD0004B0CE0A86400083D
:100D6C00D4640008CDCCCCCC000C0140DC64000871
:100D7C00676666661A4BFB61FA8CBB8CD31A9BB206
:100D8C001AB2184B1A80174BB3F90030002B0DDD3B
:100D9C00144BB3F900302E2B08DCFA8C114BB3F941
:100DAC0000309BB213449BB2FB8412E00D4BB3F9A1
:100DBC000030002B0DDA0B4BB3F9003013F12E0F72
:100DCC0007DBBA8C074BB3F900309BB213449BB2D0
:100DDC00BB8401F077FC86E600BF2837BD4680BD9A
:100DEC00D46400089803002080B500AF4FF4804114
:100DFC00054802F00DFD0346002B01D1012300E054
:100E0C000023184680BD00BF000C014080B586B0A1
:100E1C0002AF3B4600221A605A609A60C3F80B205E
:100E2C0001F044FC4F4B1A683B464F49184604F0FE
:100E3C00B5FD3A46002300934C4B0021502002F0A4
:100E4C00BCF84B4B1B68D8B24A4B1B68DAB2002378
:100E5C00009313460A22002101F036FF444B1B6815
:100E6C00DBB2023BD8B2434B1B68DBB2063BD9B2B8
:100E7C000023009306230E2201F026FF3C4B1B6837
:100E8C00D8B23C4B1B68DBB21E33D9B2394B1B6852
:100E9C00DBB2C3F14003DAB20023009313460A22FB
:100EAC0001F012FF324B1B68DBB2023BD8B2314B64
:100EBC001B68DBB21E33D9B20023009306230E222B
:100ECC0001F002FF2C4B1B68D8B22C4B1B68DAB21A
:100EDC000023009313460A22002101F0F5FE264B55
:100EEC001B68DBB2023BD8B2244B1B68DBB2063B5F
:100EFC00D9B20023009306230E2201F0E5FE1E4B0F
:100F0C001B68D8B21D4B1B68DBB21E33D9B21B4B0E
:100F1C001B68DBB2C3F14003DAB200230093134623
:100F2C000A2201F0D1FE144B1B68DBB2023BD8B293
:100F3C00124B1B68DBB21E33D9B20023009306237D
:100F4C000E2201F0C1FE0E4B1B68D9B200230D4AD4
:100F5C00142001F0E5FF01F0B5FB00BF1037BD46D2
:100F6C0080BD00BF9404002000630008F0820008DC
:100F7C0098040020A0040020900400208C04002081
:100F8C00880400200C65000880B586B002AF3B4693
:100F9C0000221A605A609A60C3F80B200023FB737E
:100FAC00AF4B80221A60AF4BC0221A6004F0C2FC17
:100FBC000246AD4B83FB0213D910D317CB1A2A214F
:100FCC0001FB03F3D31A0133A84A136004F0B2FCFB
:100FDC000246A54B83FB0213D910D317CB1A2A2137
:100FEC0001FB03F3D31A0133A14A1360A14B202256
:100FFC001A60A14B0A221A60A04B00221A604FF40F
:10100C0000419F4802F004FC0346002B00F0518184
:10101C00FB7B002B40F0B380FFF7E6FE0346012B71
:10102C0002D1944B10221A608D4B1B68023B8C4AE8
:10103C0013608C4B1B68023B8A4A13608D4B1B68F8
:10104C00053B8C4A13608B4B1B688E4A82FB031248
:10105C009210DB179A1A884B1B681344864A13604C
:10106C007F4B1B68023B002B19DA7D4B80221A60E8
:10107C0004F060FC02467C4B83FB0213D910D3179F
:10108C00CB1A2A2101FB03F3D31A0133774A1360DD
:10109C00764B1B68052B02DC744B06221A60714BD5
:1010AC001B68023B002B19DA6E4B80221A6004F08D
:1010BC0041FC02466C4B83FB0213D910D317CB1A9D
:1010CC002A2101FB03F3D31A0133694A1360684BDD
:1010DC001B68052B02DC664B06221A60FFF796FE96
:1010EC00654B1B68002B02DA634B00221A60624BC3
:1010FC001B68402B01DD0123FB73594B1B68132B21
:10110C0014DD574B1B681F2B10DC5B4B1A68574BBD
:10111C001B689A4208DB584B1B6803F10802534BBF
:10112C001B681E339A4201DD0123FB734D4B1B6878
:10113C00132B14DD4B4B1B681F2B10DC4E4B1A680A
:10114C004B4B1B689A4208DB4B4B1B6803F10802A4
:10115C00474B1B681E339A4201DD0123FB73404B46
:10116C001B68102B03D03F4B1B68102B04D1434B37
:10117C001B680133414A13601E2002F0BFF8FB7B51
:10118C00012B7FF43CAF01F091FA00233E4A002181
:10119C00002001F0C5FE00233C4A2021082001F06C
:1011AC00BFFE002300933A4B3A4A2021482001F01D
:1011BC0053FF324B1A683B463749184604F0EEFB96
:1011CC003A4600230093354B3021482001F0F5FEC0
:1011DC0001F078FAFFF708FE0346012B60D10023DB
:1011EC00FB731F4B80221A601E4BC0221A6004F046
:1011FC00A1FB02461C4B83FB0213D910D317CB1A4D
:10120C002A2101FB03F3D31A0133184A1360174B3D
:10121C001B68052B02DC154B06221A6004F08AFBB6
:10122C000246114B83FB0213D910D317CB1A2A2178
:10123C0001FB03F3D31A01330D4A13600C4B1B68EB
:10124C00052B02DC0A4B06221A600A4B20221A607C
:10125C00094B32221A60094B00221A6020E000BFB1
:10126C009804002090040020310CC330A00400200E
:10127C008C0400209C04002088040020940400208E
:10128C00000C01406766666604650008146500087A
:10129C00E08200080463000800630008F082000884
:1012AC004FF40041064802F0B3FA0346002B02D07B
:1012BC00A5E600BF00E000BF1037BD4680BD00BFF3
:1012CC00000C014080B400AF2D4B00221A602D4B56
:1012DC0000221A602C4B00221A602C4B08221A6038
:1012EC002B4B00221A602B4B00221A602A4B5F22D8
:1012FC001A602A4B00221A60294B5F221A60294B74
:10130C0000221A60284B5F221A60284B00221A60B8
:10131C00274B5F221A60274B00221A60264B0022B3
:10132C001A60264B03221A60254B01221A60254BAA
:10133C000A221A60244B05221A60244B00221A60E0
:10134C00234B01221A60234B00221A60224B0022ED
:10135C001A60224B00221A60214B18221A60214B72
:10136C0000221A60204B00221A60204B00221A60C7
:10137C001F4B00221A6000BFBD4680BC704700BFE7
:10138C009C030020A0030020A4030020C402002022
:10139C00A8030020AC030020C8020020B0030020EA
:1013AC00CC020020B4030020D0020020B80300209F
:1013BC00D4020020BC030020C0030020D80200206F
:1013CC00DC020020E0020020E4020020C403002024
:1013DC00E8020020C8030020CC030020D00300202A
:1013EC00EC020020DC030020E0030020E4030020DA
:1013FC00E803002080B500AF4FF480510F4802F095
:10140C0007FA0346002B01D1022314E04FF40051DC
:10141C000A4802F0FDF90346002B01D103230AE030
:10142C004FF48041054802F0F3F90346002B01D13B
:10143C00012300E00023184680BD00BF000C0140D2
:10144C0080B500AF1E21322001F0ACFE11211E2010
:10145C0001F0A8FE12213C2001F0A4FE102137203F
:10146C0001F0A0FE2B21192001F09CFE2B21642001
:10147C0001F098FE3421752001F094FE31210E20EC
:10148C0001F090FE1821182001F08CFE24214E2032
:10149C0001F088FE3921502001F084FE0B216B20D5
:1014AC0001F080FE0B21962001F07CFE0521052029
:1014BC0001F078FE0721082001F074FE0C21462073
:1014CC0001F070FE38210A2001F06CFE1921462033
:1014DC0001F068FE00BF80BD90B589B002AF00235B
:1014EC007B613B1D00221A605A609A60C3F80B2086
:1014FC00FFF7E8FE01F0F8FE0246A34B1A604FF42A
:10150C000041A24802F084F90346002B00F06E84DF
:10151C009F4B1B68002B40F0C28301F0C7F8FFF70C
:10152C008FFF01F0E1FE0246974B1B68D31A994AD4
:10153C001360984B1A68984B1B68D31A4CF25032B4
:10154C00934217D9934B1B68934A1360934B1B68B8
:10155C000133924A1360924B1B680133904A13601B
:10156C00904B1B6801338F4A13608F4B1B68013BF8
:10157C008D4A13608D4B1B6801338C4A136004F049
:10158C00D9F902468A4B83FB02131912D317CB1AD3
:10159C004FF4487101FB03F3D31A03F00103002B42
:1015AC0011D1824B1B68012B0DD1824B1B68002B78
:1015BC0009D1814B5F221A60804B1B68804A1360F3
:1015CC007C4B01221A6004F0B5F90246784B83FB80
:1015DC0002131912D317CB1A4FF4487101FB03F302
:1015EC00D31A03F5C871774B83FB0132CB17D21A90
:1015FC0013465B001344CA1A012A11D16B4B1B68AA
:10160C00022B0DD1704B1B68002B09D16F4B5F2245
:10161C001A606A4B1B686E4A13606B4B01221A608E
:10162C0004F088F90246624B83FB02131912D3179C
:10163C00CB1A4FF4487101FB03F3D31A03F5C871AD
:10164C00644B83FB01235A10CB17D21A13469B0011
:10165C001344CA1A012A11D1544B1B68032B0DD108
:10166C005D4B1B68002B09D15C4B5F221A60534BFE
:10167C001B685B4A1360584B01221A6004F05AF93C
:10168C0002464B4B83FB02131912D317CB1A4FF4A0
:10169C00487101FB03F3D31A03F5C872514B83FB5A
:1016AC00021313449910D317C91A0B46DB005B1AAB
:1016BC00D11A012911D13D4B1B68042B0DD14A4B7A
:1016CC001B68002B09D1494B5F221A603B4B1B68EE
:1016DC00474A1360444B01221A60364B1B68002B9F
:1016EC0019D0354B1B68D8B2354B1B68D9B20023C7
:1016FC00022201F03AFB304B1B6813F1020F07DB9F
:10170C002D4B1A68264B1B68D31A2B4A136002E028
:10171C00284B00221A602C4B1B68002B19D02B4B2A
:10172C001B68D8B22A4B1B68D9B20023012201F0E6
:10173C001CFB264B1B68B3F1FF3F07DB234B1A68DE
:10174C00174B1B68D31A214A136002E01E4B002270
:10175C001A60214B1B68002B4FD0204B1B68D8B252
:10176C001F4B1B68D9B20023042201F0FEFA1B4B5D
:10177C001B6813F1040F3DDB184B1A68084B1B68F0
:10178C00D31A164A136038E0C8030020000C01403D
:10179C00AC030020CC030020D0030020E802002082
:1017AC00D8020020DC020020E0020020C40300204C
:1017BC001F85EB51DC030020C8020020C40200206E
:1017CC00B003002056555555E0030020CC020020F4
:1017DC00B403002067666666E4030020D002002094
:1017EC00B803002093244992E8030020D40200207F
:1017FC00BC0300208B4B00221A608B4B1B68002B08
:10180C0019D08A4B1B68D8B2894B1B68D9B20023FC
:10181C00032201F0AAFA854B1B6813F1030F07DBB7
:10182C00824B1A68834B1B68D31A804A136002E000
:10183C007D4B00221A60FFF7DDFD0346022B08D119
:10184C007D4B1B68012B04DD7B4B1B68023B7A4AEA
:10185C001360FFF7CFFD0346032B08D1764B1B68B3
:10186C002E2B04DC744B1B680233734A1360FFF796
:10187C00C1FD0346012B0ED1704B1B68002B0AD106
:10188C006E4B01221A606E4B06221A606A4B1B6863
:10189C0008336C4A1360694B1B68012B17D1684BDA
:1018AC001B680833664A1360654B1B68D8B2654BDE
:1018BC001B68D9B2624B1B68DBB20433DAB2614BE2
:1018CC001B68DCB200230093234601F013F95E4B36
:1018DC001B68002B1ED001F007FD02465B4BA3FBDF
:1018EC0002231B0903F00103002B07D1524B1B6889
:1018FC00D9B20023564A042001F012FB554B1A684A
:10190C00554B1B68D31AB3F57A7F0BD94E4B00227B
:10191C001A6007E0484B1B68D9B200234C4A0420DC
:10192C0001F0FEFA4D4B1B68D8B24D4B1B68D9B277
:10193C004C4B1B68DAB2002301F017FA474B1B68BB
:10194C00DBB20233D8B2464B1B68DBB20333D9B2DD
:10195C00444B1B68444A82FB0342DB17D31ADAB2AE
:10196C00002301F002FA00230093404B404A00216F
:10197C001C2001F022FB3F4B1A683B1D3E491846C8
:10198C0004F00CF83A1D00230093384B0021402042
:10199C0001F013FB00230093344B384A37211C20F1
:1019AC0001F00BFB364B1A683B1D3349184603F00C
:1019BC00F5FF3A1D002300932C4B3721402001F0FA
:1019CC00FCFA00230093294B2E4A2D21742001F0A0
:1019DC00F4FA204B1B682C4AA2FB03239A093B1DEB
:1019EC002549184603F0DAFF3A1D002300931F4BDC
:1019FC003721742001F0E1FA00F064FE104B1B68F3
:101A0C00802B02DD0D4B00221A60204B1B68002B33
:101A1C0040D1134B1A681E4B1B681344104A1360B9
:101A2C003FE000BFE4030020E8030020D4020020C4
:101A3C00BC030020D8020020EC020020A4030020EC
:101A4C009C030020A0030020D40300201F85EB5131
:101A5C003C650008CC030020D8030020C002002005
:101A6C00C4020020E002002056555555846700083A
:101A7C0018630008C0030020286300082C630008CA
:101A8C00E402002034630008D34D6210A803002048
:101A9C00DC020020974B1A68974B1B68D31A954AA7
:101AAC001360964B1B68C3F14002924B1B689A4221
:101ABC0002DC934B01221A608E4B1A688F4B1B6809
:101ACC009A4202DC8E4B00221A608A4B1A688B4BAE
:101ADC001B68D21A8B4B1B689A422ADC854B1A68FE
:101AEC00864B1B681A44874B1B689A4221DB864B3A
:101AFC001A68824B1B68D21A844B1B689A4218DAFC
:101B0C00814B1A687D4B1B681A44804B1B689A42A8
:101B1C000FDD7E4B06221A607D4B1B680833794A19
:101B2C0013607C4B1B6801337A4A13607A4B00229A
:101B3C001A60774B1B6808337B617B69A3F1080241
:101B4C00764B1B689A4221DC7B6903F10802734BCC
:101B5C001B689A421ADB724B1B68142B16DC704BF9
:101B6C001B68042B12DD6F4B1B68002B0ED16E4BC8
:101B7C0000221A606D4B1B68013B6C4A1360694B69
:101B8C0001221A606A4B1B686A4A13607B69A3F1D5
:101B9C000802694B1B689A4221DC7B6903F108023D
:101BAC00654B1B689A421ADB644B1B68142B16DCC2
:101BBC00624B1B68042B12DD5A4B1B68002B0ED199
:101BCC005F4B00221A60594B1B68013B574A13604C
:101BDC00544B01221A60564B1B68564A13607B69A2
:101BEC00A3F10802574B1B689A4221DC7B6903F175
:101BFC000802544B1B689A421ADB534B1B68142B7C
:101C0C0016DC514B1B68042B12DD464B1B68002B5A
:101C1C000ED14E4B00221A60444B1B68013B434AC9
:101C2C001360404B01221A60414B1B68414A136000
:101C3C007B69A3F10802464B1B689A4221DC7B6945
:101C4C0003F10802424B1B689A421ADB414B1B689A
:101C5C00142B16DC3F4B1B68042B12DD314B1B681D
:101C6C00002B0ED13C4B00221A60304B1B68013B01
:101C7C002E4A13602B4B01221A602D4B1B682D4AE8
:101C8C001360364B1B68042B02DD344B00221A60A8
:101C9C00264B1B68002B02D1314B01221A60304BB2
:101CAC001B68012B40F09D8000F000FD0023009389
:101CBC002C4B2D4A1421252001F0CEF9154B1A6816
:101CCC003B1D2A49184603F069FE3A1D0023009378
:101CDC00244B1421552001F0BFF900230093214B14
:101CEC00234A2321252001F0B7F9224B1A683B1D0A
:101CFC0042E000BFC4020020DC020020E002002011
:101D0C00A8030020A0030020C00200209C03002098
:101D1C00EC020020C0030020A4030020B00300202C
:101D2C00C8020020D4030020DC030020E4020020C1
:101D3C00CC030020D8030020B4030020CC020020E8
:101D4C00E0030020B8030020D0020020E4030020B0
:101D5C00BC030020D4020020E8030020C4030020B0
:101D6C00AC030020E08200083863000828630008F8
:101D7C0040630008E80200201E49184603F00EFEDE
:101D8C003A1D002300931C4B2321552001F064F9CC
:101D9C0000230093184B194A3221252001F05CF9DD
:101DAC00174B1B68174AA2FB03239A093B1D1149C9
:101DBC00184603F0F3FD3A1D002300930E4B32211D
:101DCC00552001F049F900F07DFCFFF713FB0346A9
:101DDC00012B06D1FFF776FA01F086FA02460A4B80
:101DEC001A60012001F08AFAFFF789BB00BF1C378B
:101DFC00BD4690BD28630008E082000848630008D7
:101E0C00CC030020D34D6210C803002080B588B0ED
:101E1C0000AF07F1100300221A605A609A60DA6072
:101E2C002A4B9B69294A43F010039361274B9B690A
:101E3C0003F01003FB60FB68244B9B69234A43F0BF
:101E4C0020039361214B9B6903F02003BB60BB68AB
:101E5C001E4B9B691D4A43F0080393611B4B9B6906
:101E6C0003F008037B607B68184B9B69174A43F0AF
:101E7C0004039361154B9B6903F004033B603B68BF
:101E8C0001224FF40051124801F0D9FC4FF40053D9
:101E9C003B6101237B610123BB610223FB6107F1E1
:101EAC00100319460A4801F059FB4FF470433B618B
:101EBC0000237B610123BB6107F110031946054820
:101ECC0001F04CFB00BF2037BD4680BD0010024026
:101EDC0000100140000C014080B500AF124B134ABA
:101EEC001A60114B124A5A600F4B00229A600E4B2B
:101EFC000022DA600C4B4FF480421A610A4B00222C
:101F0C005A61094B00229A61074B0022DA61064B99
:101F1C0000221A62044801F0ABFC0346002B01D0EE
:101F2C0000F0CBF800BF80BDA4040020005400409A
:101F3C00801A060080B588B000AF786007F11003F6
:101F4C0000221A605A609A60DA607B681B68154A36
:101F5C00934223D1144B9B69134A43F008039361BA
:101F6C00114B9B6903F00803FB60FB68C0233B61CA
:101F7C0012237B610323FB6107F1100319460B4805
:101F8C0001F0ECFA084BDB69074A43F40013D36108
:101F9C00054BDB6903F40013BB60BB6800BF203743
:101FAC00BD4680BD0054004000100240000C0140B2
:101FBC0080B582B000AF01F03FF900F021F8FFF7D7
:101FCC0025FF00F07FF8FFF787FF00F018FB00F00B
:101FDC006DFB00F077FBFEF7C3FA78607B68012B92
:101FEC0002D1FEF7C9F8F6E77B68022B02D1FEF7A7
:101FFC0091F9F0E77B68062BEDD1FEF75FF9EAE784
:10200C0080B594B000AF07F12803282200211846B0
:10201C0003F088FC07F1140300221A605A609A60DE
:10202C00DA601A613B1D00221A605A609A60DA600D
:10203C000523BB624FF48033FB6200233B63012317
:10204C007B630123BB6302237B644FF48033BB644B
:10205C004FF4E013FB6407F12803184602F05EF816
:10206C000346002B01D000F028F80F237B610223DC
:10207C00BB610023FB614FF480633B6200237B62F6
:10208C0007F114030221184602F0C8FA0346002B8C
:10209C0001D000F012F801237B604FF48073BB6019
:1020AC003B1D184602F056FC0346002B01D000F0F5
:1020BC0004F800BF5037BD4680BD80B400AF72B687
:1020CC00FEE7000080B586B000AF07F114030021D5
:1020DC000A461A800A469A7000233B614D4B4E4AC1
:1020EC001A604C4B4FF0FF325A604A4B00229A60F8
:1020FC00484802F0A1FD0346002B01D0FFF7DDFF9D
:10210C000023FB60454BDB69444A43F08053D361A9
:10211C00424BDB6903F08053BB60BB6801F0E6FF08
:10212C003E4BDB693D4A43F00063D3613B4BDB69BB
:10213C0003F000637B607B680721364803F092FB59
:10214C00024645F2AA539A423AD10621314803F08D
:10215C0089FB0346DBB2BB7505212E4803F082FBDD
:10216C000346DBB27B7504212A4803F07BFB034654
:10217C00DBB23B750321274803F074FB0346DBB24B
:10218C00BB730221234803F06DFB0346DBB27B7368
:10219C000121204803F066FB0346DBB2FB7301F020
:1021AC00B1FF07F11403012219461A4802F0DAFDB7
:1021BC0007F10C0301221946164802F043FF25E0F3
:1021CC0010233B7510237B751023BB7507F114038B
:1021DC00012219460F4802F0C5FD0346002B01D021
:1021EC00FFF76BFF01233B7401237B740123BB744A
:1021FC002523FB7407F1100301221946054802F050
:10220C0021FF0346002B01D0FFF757FF1837BD46BF
:10221C0080BD00BFF80400200028004000100240E0
:10222C0080B584B000AF78607B681B680F4A93421E
:10223C0018D101F05BFF0E4BDB690D4A43F00063D4
:10224C00D3610B4BDB6903F00063FB60FB68094B4C
:10225C0001221A6000220221032001F048F9032018
:10226C0001F061F900BF1037BD4680BD0028004069
:10227C00001002403C04424280B584B000AF07F12C
:10228C000C03012219462A4802F004FE07F1080348
:10229C0001221946264802F08BFF264BDB69254AA2
:1022AC0043F08053D361234BDB6903F080537B6095
:1022BC007B68204BDB691F4A43F00063D3611D4BE5
:1022CC00DB6903F000633B603B6801F00FFFBB7BF5
:1022DC001A460621164803F0ABFA7B7B1A460521F9
:1022EC00134803F0A5FA3B7B1A460421104803F06F
:1022FC009FFABB7A1A4603210D4803F099FA7B7AB0
:10230C001A4602210A4803F093FAFB7A1A46012175
:10231C00074803F08DFA45F2AA520721044803F04E
:10232C0087FA01F0EFFE00BF1037BD4680BD00BF3D
:10233C00F80400200010024080B485B000AF154BAB
:10234C009B69144A43F001039361124B9B6903F0A0
:10235C000103BB60BB680F4BDB690E4A43F0805333
:10236C00D3610C4BDB6903F080537B607B680A4BB9
:10237C005B68FB60FB6823F0E063FB60FB6843F089
:10238C000073FB60044AFB68536000BF1437BD4602
:10239C0080BC7047001002400000014080B400AFC8
:1023AC00FEE780B400AFFEE780B400AFFEE780B478
:1023BC0000AFFEE780B400AFFEE780B400AF00BF13
:1023CC00BD4680BC704780B400AF00BFBD4680BC2A
:1023DC00704780B400AF00BFBD4680BC704780B56D
:1023EC0000AF00F06FFF00BF80BD000080B500AFF4
:1023FC00024803F0D3F900BF80BD00BFF8040020F1
:10240C0080B586B000AF7860144A154BD31A7B6147
:10241C007B693B61134B1B68002B02D1114B124A99
:10242C001A60104B1A687B6813443A699A4207D2B7
:10243C0003F034FA02460C2313604FF0FF3309E02B
:10244C00084B1B68FB60074B1A687B681344054AF2
:10245C001360FB6818461837BD4680BD005000203D
:10246C0000040000EC0300201809002080B400AF29
:10247C0000BFBD4680BC70470C480D490D4A002377
:10248C0002E0D458C4500433C4188C42F9D30A4A1D
:10249C000A4C002301E013600432A242FBD3FFF785
:1024AC00E5FF03F001FAFFF783FD70470000002001
:1024BC0068030020508300086803002014090020E2
:1024CC00FEE7000080B582B000AF0023FB714FF433
:1024DC008051334801F09CF90346002B10D1142095
:1024EC0000F00CFF00BF4FF480512D4801F090F923
:1024FC000346002BF7D0142000F000FF0123FB71E2
:10250C004FF40051264801F083F90346002B10D1FB
:10251C00142000F0F3FE00BF4FF40051204801F0EE
:10252C0077F90346002BF7D0142000F0E7FE0223C6
:10253C00FB714FF480411A4801F06AF90346002BF5
:10254C0010D1142000F0DAFE00BF4FF48041144883
:10255C0001F05EF90346002BF7D0142000F0CEFEFC
:10256C000323FB714FF400410D4801F051F9034670
:10257C00002B10D1142000F0C1FE00BF4FF400411D
:10258C00074801F045F90346002BF7D0142000F062
:10259C00B5FE0423FB71FB7918460837BD4680BD98
:1025AC00000C014080B584B002AF78600B46FB7024
:1025BC00FB789AB24FF0FF33009313467A68782178
:1025CC00034801F08DFA00BF0837BD4680BD00BF3F
:1025DC00A404002080B584B000AF0346FB71002337
:1025EC00BB8100233B73FB797B7307F10C03022146
:1025FC001846FFF7D7FF00BF1037BD4680BD80B52A
:10260C0000AFAE20FFF7E6FF0220FFF7E3FF10203C
:10261C00FFF7E0FF4020FFF7DDFFB020FFF7DAFF08
:10262C008120FFF7D7FFCF20FFF7D4FFA120FFF7C2
:10263C00D1FFA620FFF7CEFFA820FFF7CBFF3F204E
:10264C00FFF7C8FFAD20FFF7C5FF8B20FFF7C2FFD8
:10265C003320FFF7BFFFC820FFF7BCFFD320FFF7E5
:10266C00B9FF0020FFF7B6FFD520FFF7B3FFC0205E
:10267C00FFF7B0FFD920FFF7ADFF1F20FFF7AAFF30
:10268C00DA20FFF7A7FF1220FFF7A4FFDB20FFF7EC
:10269C00A1FF4020FFF79EFF00F008F800F012F8B1
:1026AC00AF20FFF797FF00BF80BD000080B500AFE3
:1026BC004FF480620021024803F034F900BF80BD62
:1026CC000C05002080B582B000AF144B40221A706C
:1026DC000023FB711BE0FB79503BDBB21846FFF784
:1026EC0079FF0220FFF776FF1020FFF773FF0C48ED
:1026FC00FB79DB010B4A13448022194603F007F9DE
:10270C0081210648FFF74EFFFB790133FB71FB7902
:10271C00072BE0D900BF0837BD4680BDF003002071
:10272C00F10300200C05002080B483B000AF0346F9
:10273C00FB710B46BB7113467B7197F90730002B6D
:10274C0043DBBB793F2B40D87B79002B1DD1BB7968
:10275C00DB08D8B20246FB791E49D2010A44134465
:10276C001B785AB2BB7903F00703012101FA03F37A
:10277C005BB2134359B20246FB79C8B21549D20178
:10278C000A44134402461A7020E0BB79DB08D8B225
:10279C000246FB790F49D2010A4413441B785AB202
:1027AC00BB7903F00703012101FA03F35BB2DB43AE
:1027BC005BB2134059B20246FB79C8B20549D2014B
:1027CC000A44134402461A7000E000BF0C37BD46A1
:1027DC0080BC70470C05002090B482B000AF04465A
:1027EC00084611461A462346FB710346BB710B463D
:1027FC007B7113463B71FB79072B60D897F9063038
:10280C00002B5CDB3B7D002B02D07B79DB437B71A7
:10281C003B7C0133FF2202FA03F35AB297F90530DD
:10282C0013435AB23B79C3F10803FF2141FA03F376
:10283C005BB213435BB2DAB2234B1A70FA79BB79F1
:10284C002249D2010A44134418781F4B1978FA799B
:10285C00BB790140C8B21D49D2010A441344024657
:10286C001A703B7C0133FF2202FA03F35BB2DB43A9
:10287C005AB297F9053013405AB23B79C3F10803A9
:10288C00FF2141FA03F35BB2DB435BB213405BB253
:10289C00DAB20D4B1A70FA79BB790C49D2010A44A1
:1028AC0013441878084B1978FA79BB790143C8B2EC
:1028BC000649D2010A44134402461A7000E000BFD4
:1028CC000837BD4690BC7047710400200C050020F1
:1028DC00B0B586B002AF0446084611461A462346E8
:1028EC00FB710346BB710B467B7113463B71BB7985
:1028FC00DB08FB73BB7903F00703BB73BA7B3B7933
:10290C001344082B29DD7A79BB7B02FA03F3DAB284
:10291C00BC7BF979F87B97F820300193072300935F
:10292C002346FFF759FFFB7B0133D8B27A79BB7B87
:10293C00C3F1080342FA03F3DCB23A79BB7B1344CC
:10294C00DBB2093BDBB2F97997F8202001920093B6
:10295C0000232246FFF740FF15E07A79BB7B02FA91
:10296C0003F3DCB2BA7B3B791344DBB2013BDBB241
:10297C00BD7BF979F87B97F82020019200932B46C8
:10298C002246FFF729FF00BF1037BD46B0BD90B5FA
:10299C0087B002AF0446084611461A462346FB711F
:1029AC000346BB710B467B7113463B71BB79DB084D
:1029BC00FB73BB7903F00703BB737A79BB7B02FA19
:1029CC0003F3DAB2BC7BF979F87B3B7901930723EB
:1029DC0000932346FFF700FFBB7B002B14D0FB7B3F
:1029EC000133D8B27A79BB7BC3F1080342FA03F303
:1029FC00DCB2BB7B013BDBB2F9793A7901920093F3
:102A0C0000232246FFF7E8FE00BF1437BD4690BDF9
:102A1C0090B587B002AF3A601A460346FB710B467D
:102A2C00BB7113467B7197F82030DB083B7397F82A
:102A3C00203003F00703FB720023FB7325E0002317
:102A4C00BB731BE0FA79FB7B1344D8B2BB7BDB0076
:102A5C00DAB2BB791344DCB2FA7BBB7B797901FB2C
:102A6C0003F313441A463B6813441A7897F824303E
:102A7C002146FFF78CFFBB7B0133BB73BA7B3B7BDF
:102A8C009A42DFD3FB7B0133FB73FA7B7B799A424F
:102A9C00D5D3FB7A002B28D07B799BB23A7B92B2B0
:102AAC0002FB03F33B8100237B731AE0FA797B7BF7
:102ABC001344D8B23B7BDB00DAB2BB791344D9B2F6
:102ACC003A897B7B13441A463B6813441A78FC7A88
:102ADC0097F8243000932346FFF7FAFE7B7B0133F3
:102AEC007B737A7B7B799A42E0D300BF1437BD4667
:102AFC0090BD000090B587B000AF04460846114663
:102B0C001A462346FB710346BB710B467B71134679
:102B1C003B71FA797B799A421DD1BA793B799A4209
:102B2C0007D9684ABB7913703B79BB71654B1B782D
:102B3C003B71BB79FB7509E097F82820F97DFB798F
:102B4C001846FFF7F1FDFB7D0133FB75FA7D3B79F0
:102B5C009A42F1D9B2E0BA793B799A421DD1FA790D
:102B6C007B799A4207D9574AFB7913707B79FB71B1
:102B7C00544B1B787B71FB79BB7509E097F82820C7
:102B8C00B979BB7D1846FFF7CFFDBB7D0133BB7513
:102B9C00BA7D7B799A42F1D990E07B799AB2FB7934
:102BAC009BB2D31A9BB2FB813B799AB2BB799BB295
:102BBC00D31A9BB2BB81B7F90E30002B01DD012378
:102BCC0001E04FF0FF337B81B7F90C30002B01DDB6
:102BDC00012301E04FF0FF333B81FB79BB82BB79D2
:102BEC007B8200233B82B7F90E30002BB8BF5B42CF
:102BFC00FB81B7F90C30002BB8BF5B42BB81B7F936
:102C0C000E20B7F90C309A422CDDFB79BB8223E005
:102C1C00BB8ADBB27A8AD1B297F828201846FFF724
:102C2C0083FD3A8ABB8913449BB23B82B7F91030BF
:102C3C005A00B7F90E309A4209DB7A8A3B89134461
:102C4C009BB27B823A8AFB89D31A9BB23B82BA8AAB
:102C5C007B8913449BB2BB82B7F914207B799A42CF
:102C6C00D6D12BE0BB797B8223E0BB8ADBB27A8A9C
:102C7C00D1B297F828201846FFF756FD3A8AFB89FF
:102C8C0013449BB23B82B7F910305A00B7F90C30A1
:102C9C009A4209DBBA8A7B8913449BB2BB823A8A7B
:102CAC00BB89D31A9BB23B827A8A3B8913449BB271
:102CBC007B82B7F912203B799A42D6D100BF1C37E0
:102CCC00BD4690BD7204002090B585B002AF04469D
:102CDC00084611461A462346FB710346BB710B4648
:102CEC007B7113463B71FA797B791344DAB2BC7968
:102CFC00B979F8793B7E00932346FFF7FBFEBA794E
:102D0C003B791344D9B2FA797B791344DCB2BA79A2
:102D1C003B791344DAB2F8793B7E00931346224692
:102D2C00FFF7E8FEBA793B791344DCB2FA79B9794A
:102D3C00F8793B7E00932346FFF7DCFEFA797B792A
:102D4C001344D8B2FA797B791344DCB2BA793B7963
:102D5C001344DAB2B9793B7E009313462246FFF74F
:102D6C00C9FE00BF0C37BD4690BD90B585B000AF15
:102D7C000446084611461A462346FB710346BB71AE
:102D8C000B467B7113463B710023FB817B79BB8126
:102D9C007B799BB25B009BB2C3F103039BB27B813B
:102DAC00B3E0BB89DBB2FA79D31AD8B2FB89DBB2B8
:102DBC00BA79D31ADBB23A791946FFF7B5FCBB895D
:102DCC00DAB2FB791344D8B2FB89DBB2BA79D31AE5
:102DDC00DBB23A791946FFF7A7FCFB89DBB2FA792B
:102DEC00D31AD8B2BB89DAB2BB791344DBB23A79C5
:102DFC001946FFF799FCBB89DBB2FA79D31AD8B222
:102E0C00FB89DBB2BA79D31ADBB23A791946FFF7F0
:102E1C008BFCFB89DBB2FA79D31AD8B2BB89DBB253
:102E2C00BA79D31ADBB23A791946FFF77DFCBB8924
:102E3C00DAB2FB791344D8B2FB89DAB2BB7913440A
:102E4C00DBB23A791946FFF76FFCFB89DAB2FB79F2
:102E5C001344D8B2BB89DBB2BA79D31ADBB23A7954
:102E6C001946FFF761FCFB89DAB2FB791344D8B23F
:102E7C00BB89DAB2BB791344DBB23A791946FFF756
:102E8C0053FCBB89DBB2FA79D31AD8B2FB89DAB21C
:102E9C00BB791344DBB23A791946FFF745FCB7F915
:102EAC000E309BB201339BB2FB81B7F90A30002B79
:102EBC0009DAFB899B009AB27B8913449BB20633D7
:102ECC009BB27B8113E0B7F90E20B7F90C30D31A03
:102EDC009BB29B009AB27B8913449BB20A339BB280
:102EEC007B81B7F90C309BB2013B9BB2BB81FB8958
:102EFC00DAB2FB791344D8B2BB89DAB2BB7913448A
:102F0C00DBB23A791946FFF70FFCB7F90E20B7F987
:102F1C000C309A427FF745AF00BF1437BD4690BDC9
:102F2C00B0B584B002AF3A601A460346FB710B464B
:102F3C00BB7113467B713B685C683B681D783B68D2
:102F4C005B78B979F8797A79019200932B4622460D
:102F5C00FFF75EFD00BF0837BD46B0BDB0B584B00D
:102F6C0002AF3B600346FB710B46BB7113467B7192
:102F7C003B685A687B79A3F120013B681B780733C7
:102F8C00002B00DA0733DB1018463B685B7803FB39
:102F9C0000F303FB01F3D4183B685D783B681B78A6
:102FAC00B979F8793A7E019200932B462246FFF7C5
:102FBC002FFD00BF0837BD46B0BD80B588B002AF4D
:102FCC00BA607B600346FB730B46BB73FB7BFB75E4
:102FDC0011E0BB681A78B97BF87D97F82030009324
:102FEC007B68FFF7BBFF7B685A78FB7D1344FB754E
:102FFC00BB680133BB60BB681B78002BE9D100BFF9
:10300C001837BD4680BD80B483B000AF78607B6854
:10301C001B785BB2002B01DB012318E07B681B786B
:10302C0003F0E003C02B01D1022310E07B681B7876
:10303C0003F0F003E02B01D1032308E07B681B783D
:10304C0003F0F803F02B01D1042300E00023184611
:10305C000C37BD4680BC7047B0B58AB002AFBA60C1
:10306C007B600346FB730B46BB730023FB837B68BF
:10307C001B780733002B00DA0733DB10DBB27A68DE
:10308C00527802FB03F3DBB20433FB767DE00023C2
:10309C007B77FB8BBA6813441846FFF7B4FF0346E3
:1030AC00BB76BB7E002B78D000233B7732E07B686D
:1030BC005B683A7FF97E01FB02F213447B61FB8B68
:1030CC00BA681344BA7E7969184602F011FC0346BB
:1030DC00002B1CD17B691C1D7B685D787B681B7881
:1030EC00B97BF87B97F83020019200932B4622464F
:1030FC00FFF78EFC7B685A78FB7B1344FB73BB7E1B
:10310C009AB2FB8B1344FB8301237B7707E03B7F55
:10311C0001333B777B681B7A3A7F9A42C7D37B7F1C
:10312C00002B32D1BB7E012B19D1FB8BBA68134417
:10313C001A787B68DC68B97BF87B97F830300093A1
:10314C002346FFF70BFF7B68DB685A78FB7B134445
:10315C00FB73BB7E9AB2FB8B1344FB8315E07B683D
:10316C00DA68B97BF87B97F830300093134620224D
:10317C00FFF7F4FE7B68DB685A78FB7B1344FB7328
:10318C00BB7E9AB2FB8B1344FB83FB8BBA68134454
:10319C001B78002B7FF47BAF00E000BF00BF203713
:1031AC00BD46B0BD80B483B000AF03460A46FB8079
:1031BC001346BB80B7F90630002B35DBB7F9063068
:1031CC007F2B31DCB7F90430002B2DDBB7F9043041
:1031DC003F2B29DCB7F90430002B00DA0733DB1066
:1031EC0018B20246B7F906301249D2010A44134408
:1031FC001B785AB2B7F90430594203F0070301F0B7
:10320C00070158BF4B421BB2194601238B405BB2DE
:10321C00134359B20246B7F90630C8B20549D20178
:10322C000A44134402461A7000BF0C37BD4680BCDA
:10323C00704700BF0C05002080B500AF084B1B6821
:10324C00074A43F010031360032000F045F90020F7
:10325C0000F008F8FFF770F80023184680BD00BF97
:10326C000020024080B582B000AF7860124B1A6823
:10327C00124B1B7819464FF47A73B3FBF1F3B2FB84
:10328C00F3F3184600F05DF90346002B01D001233F
:10329C000EE07B680F2B0AD8002279684FF0FF30C4
:1032AC0000F025F9064A7B681360002300E0012337
:1032BC0018460837BD4680BDF002002000030020F0
:1032CC00FC02002080B400AF054B1B781A46054B5E
:1032DC001B681344034A136000BFBD4680BC704793
:1032EC00000300200C09002080B400AF024B1B68C7
:1032FC001846BD4680BC70470C09002080B584B0D0
:10330C0000AF7860FFF7F0FFB8607B68FB60FB688C
:10331C00B3F1FF3F05D0094B1B781A46FB681344E9
:10332C00FB6000BFFFF7E0FF0246BB68D31AFA68E8
:10333C009A42F7D800BF1037BD4680BD000300206D
:10334C0080B485B000AF78607B6803F00703FB6046
:10335C000C4BDB68BB60BA684FF6FF031340BB60D5
:10336C00FB681A02BB68134343F0BF6343F400339A
:10337C00BB60044ABB68D36000BF1437BD4680BC39
:10338C00704700BF00ED00E080B400AF044BDB6879
:10339C001B0A03F007031846BD4680BC704700BFEC
:1033AC0000ED00E080B483B000AF0346FB7197F9E9
:1033BC000730002B0BDBFB7903F01F02064997F952
:1033CC0007305B09012000FA02F241F8232000BF0C
:1033DC000C37BD4680BC704700E100E080B483B080
:1033EC0000AF03463960FB7197F90730002B0ADBFD
:1033FC003B68DAB20C4997F907301201D2B20B4490
:10340C0083F800230AE03B68DAB20849FB7903F041
:10341C000F03043B1201D2B20B441A7600BF0C37D7
:10342C00BD4680BC704700BF00E100E000ED00E04D
:10343C0080B489B000AFF860B9607A60FB6803F0C3
:10344C000703FB61FB69C3F10703042B28BF0423AB
:10345C00BB61FB690433062B02D9FB69033B00E01B
:10346C0000237B614FF0FF32BB6902FA03F3DA43AE
:10347C00BB681A407B699A404FF0FF317B6901FAB7
:10348C0003F3D9437B680B40134318462437BD46DE
:10349C0080BC704780B582B000AF78607B68013B20
:1034AC00B3F1807F01D301230FE00A4A7B68013B13
:1034BC0053600F214FF0FF30FFF790FF054B0022B8
:1034CC009A60044B07221A60002318460837BD4641
:1034DC0080BD00BF10E000E080B582B000AF786026
:1034EC007868FFF72DFF00BF0837BD4680BD80B55B
:1034FC0086B000AF0346B9607A60FB7300237B6132
:10350C00FFF742FF78617A68B9687869FFF790FF36
:10351C00024697F90F3011461846FFF75FFF00BFC0
:10352C001837BD4680BD80B582B000AF0346FB7135
:10353C0097F907301846FFF735FF00BF0837BD462F
:10354C0080BD80B582B000AF78607868FFF7A2FFCD
:10355C00034618460837BD4680BD000080B48BB0CA
:10356C0000AF7860396000237B6200233B6227E167
:10357C0001227B6A02FA03F3FB613B681B68FA6960
:10358C001340BB61BA69FB699A4240F016813B68F3
:10359C005B68122B34D0122B0DD8022B2BD0022BA4
:1035AC0004D8002B31D0012B1CD048E0032B43D086
:1035BC00112B1BD043E0894A934226D0874A934271
:1035CC0006D8874A934220D0864A93421DD036E0D3
:1035DC00854A934219D0854A934216D0844A934225
:1035EC0013D02CE03B68DB683B6228E03B68DB686F
:1035FC0004333B6223E03B68DB6808333B621EE02C
:10360C003B68DB680C333B6219E03B689B68002B22
:10361C0002D104233B6212E03B689B68012B05D16D
:10362C0008233B627B68FA691A6108E008233B6255
:10363C007B68FA695A6102E000233B6200BFBB69F8
:10364C00FF2B01D87B6801E07B6804337B61BB698D
:10365C00FF2B02D87B6A9B0002E07B6A083B9B0035
:10366C003B617B691A680F213B6901FA03F3DB4369
:10367C001A40396A3B6901FA03F31A437B691A60F1
:10368C003B685B6803F08053002B00F09680594B2D
:10369C009B69584A43F001039361564B9B6903F0B5
:1036AC000103BB60BB68544A7B6A9B08023352F827
:1036BC002330FB607B6A03F003039B000F2202FAAA
:1036CC0003F3DB43FA681340FB607B684B4A93427D
:1036DC0013D07B684A4A93420DD07B68494A934287
:1036EC0007D07B68484A934201D1032306E00423A8
:1036FC0004E0022302E0012300E000237A6A02F0D6
:10370C00030292009340FA681343FB603A497B6AC8
:10371C009B080233FA6841F823203B685B6803F48A
:10372C008033002B06D0394B1A683849BB691343D8
:10373C000B6006E0354B1A68BB69DB433349134019
:10374C000B603B685B6803F40033002B06D02F4BF7
:10375C005A682E49BB6913434B6006E02B4B5A68E1
:10376C00BB69DB43294913404B603B685B6803F43E
:10377C008013002B06D0254B9A682449BB69134350
:10378C008B6006E0214B9A68BB69DB431F491340F1
:10379C008B603B685B6803F40013002B06D01B4B5B
:1037AC00DA681A49BB691343CB6006E0174BDA6839
:1037BC00BB69DB4315491340CB607B6A01337B62E9
:1037CC003B681A687B6A22FA03F3002B7FF4D0AEB5
:1037DC0000BF2C37BD4680BC704700BF00002110D5
:1037EC000000111000001210000031100000321007
:1037FC0000002210001002400000014000080140AF
:10380C00000C014000100140001401400004014074
:10381C0080B485B000AF78600B467B807B689A687B
:10382C007B881340002B02D00123FB7301E00023A3
:10383C00FB73FB7B18461437BD4680BC704780B4C5
:10384C0083B000AF78600B467B8013467B707B782F
:10385C00002B03D07A887B681A6103E07B881A04FA
:10386C007B681A6100BF0C37BD4680BC70470000F6
:10387C0080B584B000AF78607B68002B01D1012348
:10388C001FE17B6893F83D30DBB2002B06D17B68DF
:10389C00002283F83C207868FEF74CFB7B682422DE
:1038AC0083F83D207B681B681A687B681B6822F0D4
:1038BC0001021A607B681B681A687B681B6842F4FB
:1038CC0000421A607B681B681A687B681B6822F4CC
:1038DC0000421A6000F0F8FFF8607B685B687B4A76
:1038EC00934207D8FB687A4A934294BF0123002382
:1038FC00DBB206E0FB68774A934294BF01230023B6
:10390C00DBB2002B01D00123DBE0FB68724AA2FB87
:10391C0003239B0CBB607B681B685B6823F03F0137
:10392C007B681B68BA680A435A607B681B681B6A11
:10393C0023F03F017B685B68644A934202D8BB6802
:10394C00013309E0BB684FF4967202FB03F3634A40
:10395C00A2FB03239B0901337A6812680B431362A1
:10396C007B681B68DB6923F44F4222F0FF027B6803
:10397C005B6856498B420DD8FB68591E7B685B68A7
:10398C005B00B1FBF3F30133C3F30B03042B38BF20
:10399C0004234FE07B689B68002B11D1FB68581EF9
:1039AC007B6859680B465B000B44B0FBF3F30133A7
:1039BC00C3F30B03002B0CBF01230023DBB212E07B
:1039CC00FB68581E7B6859680B469B000B4499009A
:1039DC000B44B0FBF3F30133C3F30B03002B0CBF0D
:1039EC0001230023DBB2002B01D0012322E07B68F2
:1039FC009B68002B0ED1FB68581E7B6859680B46E0
:103A0C005B000B44B0FBF3F30133C3F30B0343F440
:103A1C0000430FE0FB68581E7B6859680B469B00FF
:103A2C000B4499000B44B0FBF3F30133C3F30B03CA
:103A3C0043F44043796809681343CB617B681B6886
:103A4C001B6823F0C0017B68DA697B681B6A1A4328
:103A5C007B681B680A431A607B681B689B6823F4AD
:103A6C00034323F0FF037A6811697A68D268114323
:103A7C007A6812680B4393607B681B68DB6823F0E1
:103A8C00FF017B685A697B689B691A437B681B68DA
:103A9C000A43DA607B681B681A687B681B6842F013
:103AAC0001021A607B6800221A647B68202283F86A
:103ABC003D207B6800221A637B68002283F83E203D
:103ACC00002318461037BD4680BD00BFA0860100FC
:103ADC007F841E00FF083D0083DE1B43D34D621024
:103AEC0080B588B002AFF8607A601A460B467B81CD
:103AFC0013463B81FFF7F8FB7861FB6893F83D3088
:103B0C00DBB2202B40F0E0807B690093192301226B
:103B1C007049F86800F064F90346002B01D00223C9
:103B2C00D3E0FB6893F83C30012B01D10223CCE0AD
:103B3C00FB68012283F83C20FB681B681B6803F0C0
:103B4C000103012B07D0FB681B681A68FB681B6814
:103B5C0042F001021A60FB681B681A68FB681B685C
:103B6C0022F400621A60FB68212283F83D20FB6876
:103B7C00102283F83E20FB6800221A64FB687A68E6
:103B8C005A62FB683A895A85FB685B8D9AB2FB686E
:103B9C001A85FB68504ADA6279897B693A6AF86857
:103BAC0000F09CF80346002B01D001238DE000238C
:103BBC003B61FB681B685B693B61FB681B689B692D
:103BCC003B613B6966E07A69396AF86800F0DEF9B6
:103BDC000346002B0DD0FB681B6C042B07D1FB6834
:103BEC001B681A68FB681B6842F400721A60012398
:103BFC006BE0FB685B6A1A78FB681B681A61FB68F0
:103C0C005B6A5A1CFB685A62FB685B8D9BB2013B7A
:103C1C009AB2FB685A85FB681B8D013B9AB2FB6814
:103C2C001A85FB681B685B6903F00403042B1BD12A
:103C3C00FB681B8D002B17D0FB685B6A1A78FB683E
:103C4C001B681A61FB685B6A5A1CFB685A62FB684A
:103C5C005B8D9BB2013B9AB2FB685A85FB681B8D4E
:103C6C00013B9AB2FB681A857A69396AF86800F0E8
:103C7C00CEF90346002B0DD0FB681B6C042B07D12F
:103C8C00FB681B681A68FB681B6842F400721A60B8
:103C9C0001231AE0FB681B8D002B94D1FB681B6879
:103CAC001A68FB681B6842F400721A60FB682022D9
:103CBC0083F83D20FB68002283F83E20FB6800223D
:103CCC0083F83C20002300E0022318461837BD4639
:103CDC0080BD00BF020010000000FFFF80B588B05F
:103CEC0002AFF8607A603B600B467B81FB68DB6A55
:103CFC007B617B69082B06D07B69012B03D07B6928
:103D0C0013F5803F08D1FB681B681A68FB681B68B9
:103D1C0042F480721A600BE0FB681B6B122B07D10C
:103D2C00FB681B681A68FB681B6842F480721A6097
:103D3C003B6800937B6800224FF00111F86800F09B
:103D4C004FF80346002B0DD0FB681B681B6803F46F
:103D5C008073B3F5807F03D1FB684FF400721A6453
:103D6C00032335E0FB681B69B3F5804F08D17B89D1
:103D7C00DBB21A46FB681B6802F0FE021A611BE0FC
:103D8C007B89DB11DBB203F00603DBB263F00F03BC
:103D9C00DAB2FB681B681A613B687A680E49F868EE
:103DAC0000F075F80346002B01D0012310E07B894D
:103DBC00DAB2FB681B681A613B687A680749F868D5
:103DCC0000F065F80346002B01D0012300E000232E
:103DDC0018461837BD4680BD0800010002000100DE
:103DEC0080B584B000AFF860B9603B601346FB71DE
:103DFC0025E03B68B3F1FF3F21D0FFF775FA02468F
:103E0C00BB69D31A3A689A4202D33B68002B16D18D
:103E1C00FB6800221A63FB68202283F83D20FB68B4
:103E2C00002283F83E20FB681B6C43F02002FB68E9
:103E3C001A64FB68002283F83C20012323E0BB6852
:103E4C001B0CDBB2012B0DD1FB681B685B69DA43E1
:103E5C00BB6813409BB2002B0CBF01230023DBB2C9
:103E6C001A460CE0FB681B689B69DA43BB6813407D
:103E7C009BB2002B0CBF01230023DBB21A46FB794B
:103E8C009A42B6D0002318461037BD4680BD80B587
:103E9C0084B000AFF860B9607A603B6051E0FB68B9
:103EAC001B685B6903F48063B3F5806F23D1FB68F7
:103EBC001B681A68FB681B6842F400721A60FB6886
:103ECC001B686FF480625A61FB6800221A63FB68FE
:103EDC00202283F83D20FB68002283F83E20FB68FB
:103EEC001B6C43F00402FB681A64FB68002283F825
:103EFC003C20012346E07B68B3F1FF3F21D0FFF764
:103F0C00F3F902463B68D31A7A689A4202D37B686B
:103F1C00002B16D1FB6800221A63FB68202283F861
:103F2C003D20FB68002283F83E20FB681B6C43F0AD
:103F3C002002FB681A64FB68002283F83C200123F2
:103F4C0020E0BB681B0CDBB2012B0CD1FB681B689F
:103F5C005B69DA43BB6813409BB2002B14BF01238F
:103F6C000023DBB20BE0FB681B689B69DA43BB6880
:103F7C0013409BB2002B14BF01230023DBB2002B98
:103F8C008DD1002318461037BD4680BD80B584B056
:103F9C0000AFF860B9607A602DE0F86800F078F84E
:103FAC000346002B01D001232DE0BB68B3F1FF3F8A
:103FBC0021D0FFF799F902467B68D31ABA689A4266
:103FCC0002D3BB68002B16D1FB6800221A63FB6876
:103FDC00202283F83D20FB68002283F83E20FB68FA
:103FEC001B6C43F02002FB681A64FB68002283F808
:103FFC003C20012307E0FB681B685B6903F080032E
:10400C00802BCAD1002318461037BD4680BD80B521
:10401C0084B000AFF860B9607A602DE0F86800F009
:10402C0037F80346002B01D001232DE0BB68B3F118
:10403C00FF3F21D0FFF758F902467B68D31ABA68C4
:10404C009A4202D3BB68002B16D1FB6800221A637C
:10405C00FB68202283F83D20FB68002283F83E2079
:10406C00FB681B6C43F02002FB681A64FB6800229F
:10407C0083F83C20012307E0FB681B685B6903F0B5
:10408C000403042BCAD1002318461037BD4680BD4B
:10409C0080B483B000AF78607B681B685B6903F405
:1040AC008063B3F5806F1BD17B681B686FF48062F3
:1040BC005A617B6800221A637B68202283F83D20BA
:1040CC007B68002283F83E207B681B6C43F0040263
:1040DC007B681A647B68002283F83C20012300E093
:1040EC00002318460C37BD4680BC704780B400AF27
:1040FC00034B01221A6000BFBD4680BC704700BF55
:10410C0020000E4280B400AF034B00221A6000BFA7
:10411C00BD4680BC704700BF20000E4280B586B003
:10412C0000AF78607B68002B01D101236CE27B68C7
:10413C001B6803F00103002B00F08780924B5B6837
:10414C0003F00C03042B0CD08F4B5B6803F00C03B7
:10415C00082B12D18C4B5B6803F48033B3F5803F92
:10416C000BD1894B1B6803F40033002B6CD07B689C
:10417C005B68002B68D1012346E27B685B68B3F572
:10418C00803F06D1804B1B687F4A43F48033136019
:10419C002EE07B685B68002B0CD17B4B1B687A4A4A
:1041AC0023F480331360784B1B68774A23F4802305
:1041BC0013601DE07B685B68B3F5A02F0CD1724BCC
:1041CC001B68714A43F4802313606F4B1B686E4A63
:1041DC0043F4803313600BE06B4B1B686A4A23F487
:1041EC0080331360684B1B68674A23F48023136089
:1041FC007B685B68002B13D0FFF776F8386108E01A
:10420C00FFF772F802463B69D31A642B01D90323DA
:10421C00FAE15D4B1B6803F40033002BF0D014E083
:10422C00FFF762F8386108E0FFF75EF802463B6979
:10423C00D31A642B01D90323E6E1534B1B6803F417
:10424C000033002BF0D100E000BF7B681B6803F04B
:10425C000203002B63D04C4B5B6803F00C03002B68
:10426C000BD0494B5B6803F00C03082B1CD1464B5D
:10427C005B6803F48033002B16D1434B1B6803F0AF
:10428C000203002B05D07B681B69012B01D0012395
:10429C00BAE13D4B1B6823F0F8027B685B69DB00DD
:1042AC00394913430B603AE07B681B69002B20D023
:1042BC00364B01221A60FFF717F8386108E0FFF758
:1042CC0013F802463B69D31A022B01D903239BE155
:1042DC002D4B1B6803F00203002BF0D02A4B1B68FC
:1042EC0023F0F8027B685B69DB00274913430B6002
:1042FC0015E0264B00221A60FEF7F6FF386108E045
:10430C00FEF7F2FF02463B69D31A022B01D90323B5
:10431C007AE11D4B1B6803F00203002BF0D17B6884
:10432C001B6803F00803002B3AD07B689B69002BB9
:10433C0019D0174B01221A60FEF7D6FF386108E03E
:10434C00FEF7D2FF02463B69D31A022B01D9032395
:10435C005AE10D4B5B6A03F00203002BF0D00120F5
:10436C0000F0DAFA1CE00A4B00221A60FEF7BCFFE0
:10437C0038610FE0FEF7B8FF02463B69D31A022BF7
:10438C0008D9032340E100BF001002400000424264
:10439C00800442429E4B5B6A03F00203002BE9D17E
:1043AC007B681B6803F00403002B00F0A68000233D
:1043BC00FB75974BDB6903F08053002B0DD1944BAD
:1043CC00DB69934A43F08053D361914BDB6903F073
:1043DC008053BB60BB680123FB758E4B1B6803F4D9
:1043EC008073002B18D18B4B1B688A4A43F4807363
:1043FC001360FEF779FF386108E0FEF775FF02469F
:10440C003B69D31A642B01D90323FDE0814B1B6854
:10441C0003F48073002BF0D07B68DB68012B06D192
:10442C007B4B1B6A7A4A43F0010313622DE07B68D5
:10443C00DB68002B0CD1764B1B6A754A23F0010309
:10444C001362734B1B6A724A23F0040313621CE061
:10445C007B68DB68052B0CD16D4B1B6A6C4A43F0F7
:10446C00040313626A4B1B6A694A43F0010313622B
:10447C000BE0674B1B6A664A23F001031362644B23
:10448C001B6A634A23F0040313627B68DB68002B0E
:10449C0015D0FEF729FF38610AE0FEF725FF02462A
:1044AC003B69D31A41F28832934201D90323ABE022
:1044BC00574B1B6A03F00203002BEED014E0FEF7FF
:1044CC0013FF38610AE0FEF70FFF02463B69D31A6F
:1044DC0041F28832934201D9032395E04C4B1B6A7D
:1044EC0003F00203002BEED1FB7D012B05D1484BD1
:1044FC00DB69474A23F08053D3617B68DB69002B6F
:10450C0000F08180424B5B6803F00C03082B61D0F8
:10451C007B68DB69022B46D13F4B00221A60FEF709
:10452C00E3FE386108E0FEF7DFFE02463B69D31A72
:10453C00022B01D9032367E0354B1B6803F0007392
:10454C00002BF0D17B681B6AB3F5803F08D1304B50
:10455C005B6823F400327B689B682D4913434B60E6
:10456C002B4B5B6823F474127B68196A7B685B6A5B
:10457C000B43274913434B60274B01221A60FEF76C
:10458C00B3FE386108E0FEF7AFFE02463B69D31A72
:10459C00022B01D9032337E01D4B1B6803F000737A
:1045AC00002BF0D02FE01C4B00221A60FEF79CFE73
:1045BC00386108E0FEF798FE02463B69D31A022BDD
:1045CC0001D9032320E0124B1B6803F00073002B6E
:1045DC00F0D118E07B68DB69012B01D1012313E0DA
:1045EC000B4B5B68FB60FB6803F480327B681B6AD7
:1045FC009A4206D1FB6803F470127B685B6A9A429C
:10460C0001D0012300E0002318461837BD4680BDB9
:10461C0000100240007000406000424280B584B03F
:10462C0000AF786039607B68002B01D10123D0E0AA
:10463C006A4B1B6803F007033A689A4210D9674B20
:10464C001B6823F0070265493B6813430B60634BFF
:10465C001B6803F007033A689A4201D00123B8E0C3
:10466C007B681B6803F00203002B20D07B681B685F
:10467C0003F00403002B05D0594B5B68584A43F4F4
:10468C00E06353607B681B6803F00803002B05D0C4
:10469C00534B5B68524A43F460535360504B5B6816
:1046AC0023F0F0027B689B684D4913434B607B6899
:1046BC001B6803F00103002B40D07B685B68012B67
:1046CC0007D1474B1B6803F40033002B15D1012392
:1046DC007FE07B685B68022B07D1414B1B6803F0C2
:1046EC000073002B09D1012373E03D4B1B6803F0D1
:1046FC000203002B01D101236BE0394B5B6823F0E3
:10470C0003027B685B68364913434B60FEF7ECFD94
:10471C00F8600AE0FEF7E8FD0246FB68D31A41F2A6
:10472C008832934201D9032353E02D4B5B6803F08D
:10473C000C027B685B689B009A42EBD1274B1B6891
:10474C0003F007033A689A4210D2244B1B6823F0FB
:10475C00070222493B6813430B60204B1B6803F094
:10476C0007033A689A4201D0012332E07B681B6848
:10477C0003F00403002B08D0194B5B6823F4E062B0
:10478C007B68DB68164913434B607B681B6803F03E
:10479C000803002B09D0124B5B6823F460527B6832
:1047AC001B69DB000E4913434B6000F021F80146F6
:1047BC000B4B5B681B0903F00F030A4AD35C21FA0D
:1047CC0003F3094A1360094B1B681846FEF74AFDB0
:1047DC00002318461037BD4680BD00BF00200240A4
:1047EC000010024044650008F0020020FC0200208A
:1047FC0090B48AB000AF2A4B3C1D0FCB84E80F005D
:10480C00284B1B883B800023FB610023BB610023EA
:10481C007B6200237B6100233B62234B5B68FB6163
:10482C00FB6903F00C03042B02D0082B03D02DE002
:10483C001E4B3B622DE0FB699B0C03F00F0307F151
:10484C002802134413F8243C7B61FB6903F4803386
:10485C00002B13D0144B5B685B0C03F0010307F1C6
:10486C002802134413F8283CBB617B690F4A02FBF6
:10487C0003F2BB69B2FBF3F37B6204E07B690C4A85
:10488C0002FB03F37B627B6A3B6202E0074B3B62F9
:10489C0000BF3B6A18462837BD4690BC704700BF26
:1048AC0054630008646300080010024000127A0090
:1048BC0000093D0080B400AF024B1B681846BD4692
:1048CC0080BC7047F002002080B500AFFFF7F2FF0C
:1048DC000146054B5B681B0A03F00703034AD35CD4
:1048EC0021FA03F3184680BD0010024054650008FD
:1048FC0080B500AFFFF7DEFF0146054B5B68DB0AB6
:10490C0003F00703034AD35C21FA03F3184680BD76
:10491C00001002405465000880B485B000AF786088
:10492C000A4B1B680A4AA2FB03235B0A7A6802FB48
:10493C0003F3FB6000BFFB685A1EFA60002BF9D131
:10494C0000BF1437BD4680BC704700BFF00200208A
:10495C00D34D621080B586B000AF786000233B6108
:10496C000023FB607B681B6803F00103002B7DD0E8
:10497C000023FB754F4BDB6903F08053002B0DD1EB
:10498C004C4BDB694B4A43F08053D361494BDB6999
:10499C0003F08053BB60BB680123FB75464B1B685F
:1049AC0003F48073002B18D1434B1B68424A43F429
:1049BC0080731360FEF798FC386108E0FEF794FCF6
:1049CC0002463B69D31A642B01D903236DE03A4BA1
:1049DC001B6803F48073002BF0D0364B1B6A03F476
:1049EC004073FB60FB68002B2ED07B685B6803F484
:1049FC004073FA689A4227D02E4B1B6A23F44073FB
:104A0C00FB602E4B01221A602C4B00221A60294AA3
:104A1C00FB681362FB6803F00103002B14D0FEF754
:104A2C0063FC38610AE0FEF75FFC02463B69D31A6F
:104A3C0041F28832934201D9032336E01D4B1B6AA5
:104A4C0003F00203002BEED01A4B1B6A23F44072C6
:104A5C007B685B68174913430B62FB7D012B05D107
:104A6C00144BDB69134A23F08053D3617B681B68BA
:104A7C0003F00203002B08D00E4B5B6823F440427A
:104A8C007B689B680B4913434B607B681B6803F086
:104A9C001003002B08D0074B5B6823F480027B6863
:104AAC00DB68044913434B60002318461837BD4696
:104ABC0080BD00BF00100240007000404004424224
:104ACC0090B58DB000AF7860554B07F10C040FCB4F
:104ADC0084E80F00534B1B883B8100237B6200232F
:104AEC00FB6200233B620023FB610023BB627B68FB
:104AFC00022B7FD0102B02D0012B48D08BE04A4BDD
:104B0C005B68FB61484B1B6803F08073002B7FD004
:104B1C00FB699B0C03F00F0307F13002134413F8ED
:104B2C00243C3B62FB6903F48033002B18D03E4BD2
:104B3C005B685B0C03F0010307F13002134413F8BC
:104B4C00283C7B62FB6903F48033002B0DD0374A81
:104B5C007B6AB2FBF3F23B6A02FB03F3FB6204E0F9
:104B6C003B6A334A02FB03F3FB622F4B5B6803F493
:104B7C008003B3F5800F02D1FB6ABB6248E0FB6A8D
:104B8C005B002C4AA2FB03235B08BB6240E0264B74
:104B9C001B6AFB61FB6903F44073B3F5807F08D19A
:104BAC00FB6903F00203002B03D04FF40043BB62FC
:104BBC001FE0FB6903F44073B3F5007F09D11A4B76
:104BCC005B6A03F00203002B03D049F64043BB623F
:104BDC000FE0FB6903F44073B3F5407F1AD1124B1D
:104BEC001B6803F40033002B14D04FF22443BB6238
:104BFC0010E00FE0FFF77CFE02460B4B5B689B0B53
:104C0C0003F0030301335B00B2FBF3F3BB6202E07E
:104C1C0000BF00E000BFBB6A18463437BD4690BDEC
:104C2C0068630008786300080010024000127A00E4
:104C3C0000093D00ABAAAAAA80B584B000AF786089
:104C4C000023FB607B68002B01D1012384E07B688F
:104C5C005B7CDBB2002B05D17B6800221A74786870
:104C6C00FDF7DEFA7B6802225A74786800F0F4FAD9
:104C7C000346002B04D07B6804225A7401236BE09A
:104C8C00786800F0ADFB0346002B04D07B6804224F
:104C9C005A74012360E07B681B685A687B681B6848
:104CAC0022F007025A607B689B68002B05D02C4BC6
:104CBC001B6B2B4A23F001031363294BDB6A23F490
:104CCC0060727B689B6826491343CB627B685B6888
:104CDC00B3F1FF3F03D07B685B68FB600EE0012003
:104CEC00FFF7EEFEF860FB68002B04D17B68042212
:104CFC005A74012330E0FB68013BFB607B681B6846
:104D0C009B6823F00F01FB681A0C7B681B680A4335
:104D1C009A607B681B68DB681B0C1B04FA6891B2F9
:104D2C007A6812680B43D360786800F081FB034605
:104D3C00002B04D07B6804225A7401230CE07B689E
:104D4C000022DA737B6801225A737B6801229A7302
:104D5C007B6801225A74002318461037BD4680BD6B
:104D6C00006C004090B587B000AFF860B9607A6015
:104D7C0000237B6100233B61FB68002B02D0BB68E6
:104D8C00002B01D1012380E0FB681B7C012B01D19E
:104D9C0002237AE0FB6801221A74FB6802225A741F
:104DAC007B68002B13D1BB681B781A464FF46163E8
:104DBC0003FB02F2BB685B7819460B461B015B1ABE
:104DCC009B001344BA68927813447B611EE0BB6865
:104DDC001B78184600F071FB03461A464FF46163CA
:104DEC0003FB02F4BB685B78184600F066FB0346D5
:104DFC001A4613461B019B1A9B001C44BB689B78EC
:104E0C00184600F05AFB034623447B617969F86825
:104E1C0000F07FFA0346002B07D0FB6804225A747B
:104E2C00FB6800221A7401232FE0FB681B685A6888
:104E3C00FB681B6822F005025A60F86800F090FAD3
:104E4C0038613B69B3F1FF3F18D03A697B699A42EC
:104E5C0014D23B6903F5A83303F5C0733B61396980
:104E6C00F86800F096FA0346002B07D0FB68042282
:104E7C005A74FB6800221A74012306E0FB680122B5
:104E8C005A74FB6800221A74002318461C37BD465E
:104E9C0090BD000080B588B000AFF860B9607A6052
:104EAC000023BB610023FB6100237B6100233B617A
:104EBC00FB68002B02D0BB68002B01D10123B5E0AD
:104ECC00FB681B685B6803F00403002B01D0012313
:104EDC00ACE0F86800F0EDF9B861BB69554AA2FB8B
:104EEC000323DB0A3B61BA69524BA3FB0213DB0AB7
:104EFC004FF4616101FB03F3D31A4F4AA2FB032366
:104F0C005B09DAB2BB685A70BB694A4AA2FB03124E
:104F1C00D20A4FF4616101FB02F29A1A464BA3FBD1
:104F2C00021359090B461B015B1A9B00D11ACAB21A
:104F3C00BB689A703B69172B55D93B693F4AA2FB5A
:104F4C0003231B097B6139693C4BA3FB01231A0921
:104F5C0013465B001344DB00CA1AD2B2BB681A704A
:104F6C00F86800F0FDF9F861FB69B3F1FF3F08D078
:104F7C00FA69BB699A4204D9FA69BB69D31AFB6115
:104F8C0002E04FF0FF33FB617B692D4A02FB03F318
:104F9C00BA69D31ABB61B969F86800F0BAF903466B
:104FAC00002B01D0012341E0FB69B3F1FF3F0CD092
:104FBC00FA69BB691344FB61F969F86800F0E9F917
:104FCC000346002B0AD0012330E0F969F86800F0A1
:104FDC00E0F90346002B01D0012327E07969F8683A
:104FEC0000F088FA03E03B69DAB2BB681A707B68A0
:104FFC00002B1AD0BB681B78184600F041FA034608
:10500C001A46BB681A70BB685B78184600F038FA11
:10501C0003461A46BB685A70BB689B78184600F06A
:10502C002FFA03461A46BB689A700023184620379D
:10503C00BD4680BDC5B3A29189888888ABAAAAAAAF
:10504C008051010080B588B000AFF860B9607A601B
:10505C000023FB610023BB6100237B61FB68002BF9
:10506C0002D0BB68002B01D1012397E0FB681B7CAD
:10507C00012B01D1022391E0FB6801221A74FB6819
:10508C0002225A747B68002B0CD1BB68DA78FB685F
:10509C00DA73BB685A78FB685A73BB689A78FB68FA
:1050AC009A731AE0BB68DB78184600F006FA0346E0
:1050BC001A46FB68DA73BB685B78184600F0FDF99A
:1050CC0003461A46FB685A73BB689B78184600F077
:1050DC00F4F903461A46FB689A73FB68DB7B1846A7
:1050EC00FB68597BFB689B7B1A4600F0DFFA034692
:1050FC001A46FB681A73FB681A7BBB681A70F8684F
:10510C0000F0D7F8F861FB69264AA2FB0323DB0AFF
:10511C007B617B69182B3AD97B69234AA2FB032359
:10512C001B09224A02FB03F3FA69D31AFB61F969E2
:10513C00F86800F0EEF80346002B07D0FB68042259
:10514C005A74FB6800221A74012327E0F86800F0F7
:10515C0007F9B861BB69B3F1FF3F18D0BA69FB69B5
:10516C009A4214D2BB6903F5A83303F5C073BB6133
:10517C00B969F86800F00DF90346002B07D0FB68FD
:10518C0004225A74FB6800221A74012306E0FB689F
:10519C0001225A74FB6800221A7400231846203727
:1051AC00BD4680BDC5B3A291ABAAAAAA805101008D
:1051BC0080B586B000AFF860B9607A6007F114036F
:1051CC0000210A461A800A469A70FB68002B02D00E
:1051DC00BB68002B01D101233AE007F11403002234
:1051EC001946F868FFF756FE0346002B01D0012341
:1051FC002EE0FB681A7BBB681A70FB68DA7BBB6815
:10520C00DA70FB685A7BBB685A70FB689A7BBB6888
:10521C009A707B68002B1AD0BB68DB78184600F0BC
:10522C002FF903461A46BB68DA70BB685B781846E0
:10523C0000F026F903461A46BB685A70BB689B7887
:10524C00184600F01DF903461A46BB689A700023F5
:10525C0018461837BD4680BD80B584B000AF786065
:10526C000023FB607B68002B01D101231DE07B68D0
:10527C001B685A687B681B6822F008025A60FEF7AC
:10528C0033F8F86009E0FEF72FF80246FB68D31AF2
:10529C00B3F57A7F01D9032307E07B681B685B6851
:1052AC0003F00803002BEED0002318461037BD4640
:1052BC0080BD80B487B000AF786000237B82002370
:1052CC003B820023FB8100237B617B681B689B690D
:1052DC007B827B681B68DB69FB817B681B689B6935
:1052EC003B827A8A3B8A9A4208D03B8A1A047B68B2
:1052FC001B68DB699BB213437B6104E07B8A1A0455
:10530C00FB8913437B617B6918461C37BD4680BC07
:10531C00704780B584B000AF786039600023FB73B0
:10532C00786800F05DF80346002B02D00123FB7374
:10533C0011E07B681B683A68120C9A617B681B68E9
:10534C003A6892B2DA61786800F072F80346002B82
:10535C0001D00123FB73FB7B18461037BD4680BD83
:10536C0080B485B000AF78600023FB810023BB8143
:10537C007B681B681B6AFB817B681B685B6ABB8153
:10538C00FB891A04BB89134318461437BD4680BCED
:10539C00704780B584B000AF786039600023FB7330
:1053AC00786800F01DF80346002B02D00123FB7334
:1053BC0011E07B681B683A68120C1A627B681B68E8
:1053CC003A6892B25A62786800F032F80346002BC1
:1053DC0001D00123FB73FB7B18461037BD4680BD03
:1053EC0080B584B000AF78600023FB60FDF77CFFD4
:1053FC00F86009E0FDF778FF0246FB68D31AB3F5B5
:10540C007A7F01D903230FE07B681B685B6803F08C
:10541C002003002BEED07B681B685A687B681B68E6
:10542C0042F010025A60002318461037BD4680BD6A
:10543C0080B584B000AF78600023FB607B681B688C
:10544C005A687B681B6822F010025A60FDF74CFF0B
:10545C00F86009E0FDF748FF0246FB68D31AB3F584
:10546C007A7F01D9032307E07B681B685B6803F034
:10547C002003002BEED0002318461037BD4680BD0C
:10548C0080B485B000AF0346FB710023FB6005E0E0
:10549C00FB680133FB60FB790A3BFB71FB79092B41
:1054AC00F6D8FB68DBB21B01DAB2FB791343DBB233
:1054BC0018461437BD4680BC704780B485B000AF29
:1054CC000346FB710023FB60FB791B09DBB21A4618
:1054DC0013469B0013445B00FB60FB7903F00F0346
:1054EC00DAB2FB68DBB21344DBB218461437BD46A4
:1054FC0080BC704780B586B000AF786039600023FF
:10550C007B6100233B610023FB600023BB607B6855
:10551C00DB7B7B617B685B7B3B617B689B7BFB60A4
:10552C000023BB606FE03B69012B11D03B69032B5F
:10553C000ED03B69052B0BD03B69072B08D03B6980
:10554C00082B05D03B690A2B02D03B690C2B17D1D9
:10555C00FB681E2B03D8FB680133FB6050E03B69F2
:10556C000C2B05D03B6901333B610123FB6047E009
:10557C0001233B610123FB607B6901337B613FE0CD
:10558C003B69042B08D03B69062B05D03B69092BE2
:10559C0002D03B690B2B0CD1FB681D2B03D8FB688D
:1055AC000133FB602CE03B6901333B610123FB6061
:1055BC0026E03B69022B23D1FB681B2B03D8FB682D
:1055CC000133FB601CE0FB681C2B11D17B699BB287
:1055DC00184600F039F80346002B03D0FB68013362
:1055EC00FB600DE03B6901333B610123FB6007E08D
:1055FC00FB681D2B04D13B6901333B610123FB602C
:10560C00BB680133BB60BA683B689A428BD37B6939
:10561C00DAB27B68DA733B69DAB27B685A73FB687F
:10562C00DAB27B689A733B69DBB2FA68D2B219467C
:10563C00786900F03BF803461A467B681A7300BF82
:10564C001837BD4680BD000080B483B000AF034660
:10565C00FB80FB8803F003039BB2002B01D00023DB
:10566C001DE0FB88104AA2FB03125209642101FBC6
:10567C0002F29B1A9BB2002B01D001230FE0FB8896
:10568C00094AA2FB0312D2094FF4C87101FB02F2C2
:10569C009B1A9BB2002B01D1012300E0002318467A
:1056AC000C37BD4680BC70471F85EB5180B485B06C
:1056BC0000AF78600B46FB701346BB700023BB60D9
:1056CC000023FB607B6803F5FA63BB60FB78022B5D
:1056DC002DD8FA7813465B001344DB009B1A2C4A36
:1056EC00A2FB03235A08BB781A44BB681A44BB6854
:1056FC00013B9B081A44BB68013B2649A1FB0313E1
:10570C005B09D21ABB68013B2249A1FB0313DB09DD
:10571C0013441A1D204BA3FB0213D11A49080B4446
:10572C0099080B46DB005B1AD31AFB6029E0FA7868
:10573C0013465B001344DB009B1A154AA2FB0323A0
:10574C005A08BB781A44BB681A44BB689B081A44B5
:10575C00BB681049A1FB03135B09D21ABB680D4946
:10576C00A1FB0313DB0913449A1C0B4BA3FB021381
:10577C00D11A49080B4499080B46DB005B1AD31A63
:10578C00FB60FB68DBB218461437BD4680BC704723
:10579C00398EE3381F85EB512549922480B582B0B0
:1057AC0000AF78607B681B681B6803F00103002B5B
:1057BC0027D07B681B685B6803F00103002B20D0AB
:1057CC007B681B685B6803F00403002B0BD07868C4
:1057DC0000F024F87B681B686FF004025A607B6849
:1057EC0004225A7405E0786800F00FF87B680122F7
:1057FC005A747B681B685A687B681B6822F001022C
:10580C005A6000BF0837BD4680BD80B483B000AF7E
:10581C00786000BF0C37BD4680BC704780B483B045
:10582C0000AF786000BF0C37BD4680BC70470000ED
:10583C0080B487B000AFF860B9607A6000237B61F8
:10584C00074B7B61BB689B007A6913447B617B6966
:10585C007A6892B21A6000BF1C37BD4680BC704794
:10586C00006C004080B485B000AF786039600023D4
:10587C00FB600023BB60084BFB603B689B00FA6835
:10588C001344FB60FB681B689BB2BB60BB6818468B
:10589C001437BD4680BC7047006C0040014B186843
:1058AC00704700BF0403002070B500250C4E0D4C52
:1058BC00A41BA410A54209D100F080FC00250A4EBF
:1058CC000A4CA41BA410A54205D170BD56F8253076
:1058DC0098470135EEE756F8253098470135F2E741
:1058EC004883000848830008488300084C8300085C
:1058FC0030B50024A24201D1002007E0035D013441
:10590C000D1915F8015CAB42F4D0581B30BD10B525
:10591C00431E0A44914200D110BD11F8014B03F80B
:10592C00014FF7E703460244934200D1704703F856
:10593C00011BF9E738B5134B1C68A36B7BB9182016
:10594C0000F04CF8104A114BA063C0E90023104B37
:10595C00012283600B2383810023C0E90423A16B04
:10596C000C480A694B6950430B4C04FB0300A2FB27
:10597C0004230344541C43F10005C1E9044525F0FC
:10598C00004038BD040300200E33CDAB34126DE65D
:10599C00ECDE05002DF451582D7F954C0EB46FF0B4
:1059AC00004100B59CB01DAB02900690079104918C
:1059BC000848094953F8042B0591006802A9019382
:1059CC0000F014F90022029B1A701CB05DF804EB75
:1059DC0003B07047040300200802FFFF024B01468E
:1059EC00186800F04FB800BF0403002038B5054616
:1059FC00002943D051F8043C0C1F002BB8BFE4180D
:105A0C0000F0ABFB1E4A1368104633B96360146098
:105A1C002846BDE8384000F0A1BBA3420BD9216851
:105A2C006218934201BF1A685B6852182260636067
:105A3C000460EDE713465A680AB1A242FAD9196814
:105A4C005818A0420BD120680144581882421960A2
:105A5C00DED110685268014419605A60D8E702D947
:105A6C000C232B60D4E7206821188A4201BF1168EF
:105A7C0052680918216062605C60C9E738BD00BFDC
:105A8C007404002070B5CD1C25F0030508350C2DD1
:105A9C0038BF0C25002D064601DBA94203D90C2387
:105AAC003360002070BD00F058FB214A1468214679
:105ABC0091B9204C23681BB9304600F017FB2060CD
:105ACC002946304600F012FB431C24D10C233046EF
