:020000040800F2
:100000000050002075210008992000089F2000085A
:10001000A5200008AB200008B12000080000000067
:10002000000000000000000000000000B7200008F1
:10003000C320000800000000CF200008DB200008DB
:10004000BD210008BD210008BD210008E9200008ED
:10005000BD210008BD210008BD210008BD21000808
:10006000BD210008BD210008BD210008BD210008F8
:10007000BD210008BD210008BD210008BD210008E8
:10008000BD210008BD210008BD210008BD210008D8
:10009000BD210008BD210008BD210008BD210008C8
:1000A000BD210008BD210008BD210008BD210008B8
:1000B000BD210008BD210008BD210008BD210008A8
:1000C000BD210008BD210008BD210008BD21000898
:1000D000BD210008BD210008BD210008BD21000888
:1000E000BD210008BD210008BD210008000000005E
:1000F0000000000000000000000000000000000000
:0C01000000000000000000005FF808F1A3
:10010C0010B5054C237833B9044B13B10448AFF345
:10011C0000800123237010BD680300200000000044
:10012C00EC59000808B5034B1BB103490348AFF366
:10013C00008008BD000000006C030020EC59000892
:10014C0080B584B002AF01237B6002F027F9002355
:10015C00124A27210A2002F05BFD4FF4004110489F
:10016C0003F0CEF90346002B11D07B68DAB20023E2
:10017C0000933F233F21002002F034FB02F01AF9D8
:10018C007B6804337B607B687F2B02DCE5E700BF78
:10019C0000E000BF0837BD4680BD00BF845C00088E
:1001AC00000C014080B582B000AF03463960FB8083
:1001BC003B68002B07D1FB88D9B20023154A0A20D3
:1001CC0002F026FD21E03B68012B07D1FB88D9B258
:1001DC000023114A0A2002F01BFD16E03B68B3F124
:1001EC00FF3F07D1FB88D9B200230C4A0A2002F04A
:1001FC000FFD0AE03B6813F1020F06D1FB88D9B260
:10020C000023074A0A2002F003FD00BF0837BD4651
:10021C0080BD00BFF45B00083C5C0008845C0008F7
:10022C00AC5B000880B582B000AF03463960FB8040
:10023C00B7F906203B681B78C3F17F039A420BDCAD
:10024C00FB88D8B23B685B78C3F13F03D9B200237B
:10025C003A6802F0DDFC00E000BF0837BD4680BD07
:10026C0080B584B002AF78600B46FB7097F9033011
:10027C00002B15D17A681849184804F0A1FF002307
:10028C000093174B174A0321482002F05DFD002311
:10029C000093134B114A0321662002F055FD16E022
:1002AC00114B1B681A460C490C4804F089FF0023BB
:1002BC0000930B4B0D4A16213C2002F045FD002308
:1002CC000093074B054A1621662002F03DFD00BF46
:1002DC000837BD4680BD00BF1C5A000888030020AB
:1002EC0080720008205A0008840300202C5A000851
:1002FC0080B586B002AFBA607B600346FB810B46CB
:10030C00BB81B7F918306FF001011846FFF74AFFAF
:10031C00B7F90E30396A1846FFF784FFB7F90C307D
:10032C00796A1846FFF77EFF002300933F237F2254
:10033C003F21002002F056FA0021B868FFF790FF29
:10034C000D4B1B68BA689A420BDD0B4ABB681360F5
:10035C0000230093094B0A4A16214B2002F0F4FCAF
:10036C0003E00121B868FFF77BFF02F023F800BF20
:10037C001037BD4680BD00BF84030020807200088A
:10038C003C5A000880B58EB004AFFC233B8140F290
:10039C007D13FB803B89C8339BB2FB84FB88C8333D
:1003AC009BB2BB8402F018FE034603F00703002B3C
:1003BC0001D0AF4B00E0AF4B3B6202F00DFE0146AB
:1003CC00AD4BA3FB01239A0813469B001344CA1A96
:1003DC00002A01D0A64B00E0A64BFB6115239BB273
:1003EC000A339BB2BB8027237B8300237B610023D2
:1003FC003B610023FB600023FB7201F0CFFF4FF445
:10040C0080519E4803F07CF80346002B0FD04FF42C
:10041C0000519A4803F074F80346002B07D04FF4B0
:10042C008041964803F06CF80346002B05D17B699C
:10043C00002B0BD101237B6108E04FF400418F4866
:10044C0003F05EF80346002B00F05081B7F926202C
:10045C00B7F904107B69052BA8BF0523CB1A9A4268
:10046C0029DCB7F926300B2B25DDB7F91A3017220A
:10047C001A443B6A5B78C3F13F039A421BDBB7F922
:10048C002410B7F92600FB6903933B6A0293B7F972
:10049C0004300193B7F91A3000937B69FA68FFF7BF
:1004AC0027FF00BF4FF40041744803F029F80346BE
:1004BC00002BF7D11BE1B7F92420B7F904107B69A5
:1004CC00052BA8BF0523CB1A9A4229DCB7F9243097
:1004DC000B2B25DDB7F91A3017221A44FB695B7810
:1004EC00C3F13F039A421BDBB7F92610B7F924007E
:1004FC00FB6903933B6A0293B7F904300193B7F994
:10050C001A3000937B69FA68FFF7F2FE00BF4FF4D4
:10051C0000415A4802F0F4FF0346002BF7D1E6E005
:10052C007B69002B10DD7B69013B554AD35C9BB288
:10053C00C3F127039BB27B837B6901337B617B69AE
:10054C00262B01DD00237B613B6901333B613B6959
:10055C004C4A82FB03125210DB17D31AFB600021AA
:10056C00F868FFF77DFE7B69002B07D0B7F91A30CE
:10057C004FF0FF311846FFF715FE17E097F90B30D7
:10058C00042BCCBF01230023DBB21A46B7F91A3077
:10059C0011461846FFF706FEFB7A0133DBB2FB72FD
:1005AC0097F90B30092B01DD0023FB72B7F92630CC
:1005BC00396A1846FFF736FEB7F92430F969184640
:1005CC00FFF730FE002300933F237F223F210020C2
:1005DC0002F008F9FB8C023B9BB2FB84BB8C023B08
:1005EC009BB2BB84B7F92630002B1FDC02F0F4FC65
:1005FC000246214BA3FB0223D9081F4BA3FB01236B
:10060C001A0913469B0013449B00CA1A92B23B89E9
:10061C0013449BB2FB8402F0DFFC034603F003039C
:10062C00002B01D0124B00E0124B3B62B7F9243087
:10063C00002B2BDC02F0D0FC02460F4BA3FB022359
:10064C00D9080D4BA3FB01231A0913469B00134435
:10065C009B00CA1A92B2FB8813449BB2BB8402F073
:10066C00BBFC034603F00103002B0DD0004B0CE048
:10067C00985C0008C45C0008CDCCCCCC000C0140CC
:10068C00CC5C0008676666661A4BFB61FA8CBB8C07
:10069C00D31A9BB21AB2184B1A80174BB3F900300D
:1006AC00002B0DDD144BB3F900302E2B08DCFA8C2B
:1006BC00114BB3F900309BB213449BB2FB8412E094
:1006CC000D4BB3F90030002B0DDA0B4BB3F90030A6
:1006DC0013F12E0F07DBBA8C074BB3F900309BB22A
:1006EC0013449BB2BB8401F065FE86E600BF28373D
:1006FC00BD4680BDC45C00089803002080B500AFE7
:10070C004FF48041054802F0FBFE0346002B01D15B
:10071C00012300E00023184680BD00BF000C0140FF
:10072C0080B586B002AF3B4600221A605A609A60D0
:10073C00C3F80B2001F032FE4F4B1A683B464F4971
:10074C00184604F03DFD3A46002300934C4B002123
:10075C00502002F0AAFA4B4B1B68D8B24A4B1B68CC
:10076C00DAB20023009313460A22002102F024F986
:10077C00444B1B68DBB2023BD8B2434B1B68DBB269
:10078C00063BD9B20023009306230E2202F014F983
:10079C003C4B1B68D8B23C4B1B68DBB21E33D9B246
:1007AC00394B1B68DBB2C3F14003DAB20023009370
:1007BC0013460A2202F000F9324B1B68DBB2023BF3
:1007CC00D8B2314B1B68DBB21E33D9B20023009375
:1007DC0006230E2202F0F0F82C4B1B68D8B22C4BDF
:1007EC001B68DAB20023009313460A22002102F0A0
:1007FC00E3F8264B1B68DBB2023BD8B2244B1B68D8
:10080C00DBB2063BD9B20023009306230E2202F082
:10081C00D3F81E4B1B68D8B21D4B1B68DBB21E33C2
:10082C00D9B21B4B1B68DBB2C3F14003DAB2002315
:10083C00009313460A2202F0BFF8144B1B68DBB27C
:10084C00023BD8B2124B1B68DBB21E33D9B2002369
:10085C00009306230E2202F0AFF80E4B1B68D9B2A0
:10086C0000230D4A142002F0D3F901F0A3FD00BFC0
:10087C001037BD4680BD00BFC00300204C5A000895
:10088C00907200088804002090040020840400204A
:10089C00800400207C040020FC5C000880B586B03D
:1008AC0002AF3B4600221A605A609A60C3F80B20D4
:1008BC000023FB73AF4B80221A60AF4BC0221A602F
:1008CC0004F04AFC0246AD4B83FB0213D910D3173C
:1008DC00CB1A2A2101FB03F3D31A0133A84A136064
:1008EC0004F03AFC0246A54B83FB0213D910D31734
:1008FC00CB1A2A2101FB03F3D31A0133A14A13604B
:10090C00A14B20221A60A14B0A221A60A04B002294
:10091C001A604FF400419F4802F0F2FD0346002B91
:10092C0000F05181FB7B002B40F0B380FFF7E6FE1B
:10093C000346012B02D1944B10221A608D4B1B687D
:10094C00023B8C4A13608C4B1B68023B8A4A136037
:10095C008D4B1B68053B8C4A13608B4B1B688E4A76
:10096C0082FB03129210DB179A1A884B1B681344F4
:10097C00864A13607F4B1B68023B002B19DA7D4BB8
:10098C0080221A6004F0E8FB02467C4B83FB0213C6
:10099C00D910D317CB1A2A2101FB03F3D31A013335
:1009AC00774A1360764B1B68052B02DC744B0622CE
:1009BC001A60714B1B68023B002B19DA6E4B8022BC
:1009CC001A6004F0C9FB02466C4B83FB0213D9106E
:1009DC00D317CB1A2A2101FB03F3D31A0133694A2B
:1009EC001360684B1B68052B02DC664B06221A60F1
:1009FC00FFF796FE654B1B68002B02DA634B002257
:100A0C001A60624B1B68402B01DD0123FB73594BB1
:100A1C001B68132B14DD574B1B681F2B10DC5B4B17
:100A2C001A68574B1B689A4208DB584B1B6803F13A
:100A3C000802534B1B681E339A4201DD0123FB73E2
:100A4C004D4B1B68132B14DD4B4B1B681F2B10DC01
:100A5C004E4B1A684B4B1B689A4208DB4B4B1B687E
:100A6C0003F10802474B1B681E339A4201DD012338
:100A7C00FB73404B1B68102B03D03F4B1B68102B98
:100A8C0004D1434B1B680133414A13601E2002F012
:100A9C00ADFAFB7B012B7FF43CAF01F07FFC002314
:100AAC003E4A0021002002F0B3F800233C4A2021EA
:100ABC00082002F0ADF8002300933A4B3A4A20216B
:100ACC00482002F041F9324B1A683B463749184628
:100ADC0004F076FB3A4600230093354B3021482036
:100AEC0002F0E3F801F066FCFFF708FE0346012B69
:100AFC0060D10023FB731F4B80221A601E4BC02257
:100B0C001A6004F029FB02461C4B83FB0213D9101C
:100B1C00D317CB1A2A2101FB03F3D31A0133184A3A
:100B2C001360174B1B68052B02DC154B06221A6051
:100B3C0004F012FB0246114B83FB0213D910D3179E
:100B4C00CB1A2A2101FB03F3D31A01330D4A13608C
:100B5C000C4B1B68052B02DC0A4B06221A600A4B55
:100B6C0020221A60094B32221A60094B00221A60AB
:100B7C0020E000BF8804002084040020310CC33026
:100B8C0090040020800400208C0400207C040020B1
:100B9C00C0030020000C014067666666F45C000828
:100BAC00045D000880720008505A00084C5A000876
:100BBC00907200084FF40041064802F0A1FC034675
:100BCC00002B02D0A5E600BF00E000BF1037BD46E9
:100BDC0080BD00BF000C014080B400AF2D4B002243
:100BEC001A602D4B00221A602C4B00221A602C4BE1
:100BFC0008221A602B4B00221A602B4B00221A6021
:100C0C002A4B5F221A602A4B00221A60294B5F2262
:100C1C001A60294B00221A60284B5F221A60284B5D
:100C2C0000221A60274B5F221A60274B00221A60A1
:100C3C00264B00221A60264B03221A60254B0122F8
:100C4C001A60254B0A221A60244B05221A60244B89
:100C5C0000221A60234B01221A60234B00221A60D7
:100C6C00224B00221A60224B00221A60214B1822C0
:100C7C001A60214B00221A60204B00221A60204B74
:100C8C0000221A601F4B00221A6000BFBD4680BCB8
:100C9C00704700BF9C030020A0030020A403002089
:100CAC00C4020020A8030020AC030020C8020020CE
:100CBC00B0030020CC020020B4030020D00200209E
:100CCC00B8030020D4020020BC030020C003002085
:100CDC00D8020020DC020020E0020020E402002008
:100CEC00C4030020E8020020C8030020CC0300202D
:100CFC00D0030020EC020020DC030020E0030020E5
:100D0C00E4030020E803002080B500AF4FF48051CD
:100D1C000F4802F0F5FB0346002B01D1022314E02F
:100D2C004FF400510A4802F0EBFB0346002B01D1B3
:100D3C0003230AE04FF48041054802F0E1FB03462F
:100D4C00002B01D1012300E00023184680BD00BF19
:100D5C00000C014080B500AF1E21322002F09AF841
:100D6C0011211E2002F096F812213C2002F092F87C
:100D7C001021372002F08EF82B21192002F08AF86E
:100D8C002B21642002F086F83421752002F082F8C1
:100D9C0031210E2002F07EF81821182002F07AF88A
:100DAC0024214E2002F076F83921502002F072F8FE
:100DBC000B216B2002F06EF80B21962002F06AF8E2
:100DCC000521052002F066F80721082002F062F8E0
:100DDC000C21462002F05EF838210A2002F05AF865
:100DEC001921462002F056F800BF80BD90B589B09D
:100DFC0002AF00237B613B1D00221A605A609A608F
:100E0C00C3F80B20FFF7E8FE02F0E6F80246A34B0E
:100E1C001A604FF40041A24802F072FB0346002B0B
:100E2C0000F06E849F4B1B68002B40F0C28301F0D6
:100E3C00B5FAFFF78FFF02F0CFF80246974B1B680D
:100E4C00D31A994A1360984B1A68984B1B68D31A9B
:100E5C004CF25032934217D9934B1B68934A136050
:100E6C00934B1B680133924A1360924B1B680133FE
:100E7C00904A1360904B1B6801338F4A13608F4B61
:100E8C001B68013B8D4A13608D4B1B6801338C4AE8
:100E9C00136004F061F902468A4B83FB02131912AA
:100EAC00D317CB1A4FF4487101FB03F3D31A03F099
:100EBC000103002B11D1824B1B68012B0DD1824BEE
:100ECC001B68002B09D1814B5F221A60804B1B6879
:100EDC00804A13607C4B01221A6004F03DF90246F3
:100EEC00784B83FB02131912D317CB1A4FF44871AA
:100EFC0001FB03F3D31A03F5C871774B83FB013263
:100F0C00CB17D21A13465B001344CA1A012A11D10B
:100F1C006B4B1B68022B0DD1704B1B68002B09D13E
:100F2C006F4B5F221A606A4B1B686E4A13606B4BE7
:100F3C0001221A6004F010F90246624B83FB021383
:100F4C001912D317CB1A4FF4487101FB03F3D31AC0
:100F5C0003F5C871644B83FB01235A10CB17D21ACB
:100F6C0013469B001344CA1A012A11D1544B1B6817
:100F7C00032B0DD15D4B1B68002B09D15C4B5F2201
:100F8C001A60534B1B685B4A1360584B01221A6062
:100F9C0004F0E2F802464B4B83FB02131912D317F1
:100FAC00CB1A4FF4487101FB03F3D31A03F5C87243
:100FBC00514B83FB021313449910D317C91A0B46D8
:100FCC00DB005B1AD11A012911D13D4B1B68042B94
:100FDC000DD14A4B1B68002B09D1494B5F221A607B
:100FEC003B4B1B68474A1360444B01221A60364B3B
:100FFC001B68002B19D0354B1B68D8B2354B1B68BE
:10100C00D9B20023022201F028FD304B1B6813F1EA
:10101C00020F07DB2D4B1A68264B1B68D31A2B4A81
:10102C00136002E0284B00221A602C4B1B68002B2B
:10103C0019D02B4B1B68D8B22A4B1B68D9B2002392
:10104C00012201F00AFD264B1B68B3F1FF3F07DBC1
:10105C00234B1A68174B1B68D31A214A136002E002
:10106C001E4B00221A60214B1B68002B4FD0204BCB
:10107C001B68D8B21F4B1B68D9B20023042201F0A5
:10108C00ECFC1B4B1B6813F1040F3DDB184B1A686F
:10109C00084B1B68D31A164A136038E0C8030020AB
:1010AC00000C0140AC030020CC030020D003002036
:1010BC00E8020020D8020020DC020020E002002020
:1010CC00C40300201F85EB51DC030020C802002064
:1010DC00C4020020B003002056555555E0030020F3
:1010EC00CC020020B403002067666666E40300208F
:1010FC00D0020020B803002093244992E80300207A
:10110C00D4020020BC0300208B4B00221A608B4BB6
:10111C001B68002B19D08A4B1B68D8B2894B1B68F3
:10112C00D9B20023032201F098FC854B1B6813F104
:10113C00030F07DB824B1A68834B1B68D31A804A58
:10114C00136002E07D4B00221A60FFF7DDFD0346C1
:10115C00022B08D17D4B1B68012B04DD7B4B1B68DC
:10116C00023B7A4A1360FFF7CFFD0346032B08D1ED
:10117C00764B1B682E2B04DC744B1B680233734AB2
:10118C001360FFF7C1FD0346012B0ED1704B1B689A
:10119C00002B0AD16E4B01221A606E4B06221A608C
:1011AC006A4B1B6808336C4A1360694B1B68012B34
:1011BC0017D1684B1B680833664A1360654B1B6874
:1011CC00D8B2654B1B68D9B2624B1B68DBB20433D7
:1011DC00DAB2614B1B68DCB200230093234601F0AA
:1011EC0001FB5E4B1B68002B1ED001F0F5FE024686
:1011FC005B4BA3FB02231B0903F00103002B07D15C
:10120C00524B1B68D9B20023564A042001F000FD52
:10121C00554B1A68554B1B68D31AB3F57A7F0BD90B
:10122C004E4B00221A6007E0484B1B68D9B20023D2
:10123C004C4A042001F0ECFC4D4B1B68D8B24D4BD2
:10124C001B68D9B24C4B1B68DAB2002301F005FCC9
:10125C00474B1B68DBB20233D8B2464B1B68DBB280
:10126C000333D9B2444B1B68444A82FB0342DB175D
:10127C00D31ADAB2002301F0F0FB00230093404BA9
:10128C00404A00211C2001F010FD3F4B1A683B1D09
:10129C003E49184603F094FF3A1D00230093384B47
:1012AC000021402001F001FD00230093344B384A0B
:1012BC0037211C2001F0F9FC364B1A683B1D3349D1
:1012CC00184603F07DFF3A1D002300932C4B372169
:1012DC00402001F0EAFC00230093294B2E4A2D21DB
:1012EC00742001F0E2FC204B1B682C4AA2FB032368
:1012FC009A093B1D2549184603F062FF3A1D00234D
:10130C0000931F4B3721742001F0CFFC01F052F8F1
:10131C00104B1B68802B02DD0D4B00221A60204BFA
:10132C001B68002B40D1134B1A681E4B1B681344CF
:10133C00104A13603FE000BFE4030020E8030020E4
:10134C00D4020020BC030020D8020020EC020020B4
:10135C00A40300209C030020A0030020D403002041
:10136C001F85EB512C5D0008CC030020D803002016
:10137C00C0020020C4020020E00200205655555542
:10138C00745F0008585A0008C0030020605A000817
:10139C00645A0008E40200206C5A0008D34D621015
:1013AC00A8030020DC020020974B1A68974B1B689F
:1013BC00D31A954A1360964B1B68C3F14002924BAB
:1013CC001B689A4202DC934B01221A608E4B1A68FE
:1013DC008F4B1B689A4202DC8E4B00221A608A4BA0
:1013EC001A688B4B1B68D21A8B4B1B689A422ADCEF
:1013FC00854B1A68864B1B681A44874B1B689A42AC
:10140C0021DB864B1A68824B1B68D21A844B1B68F3
:10141C009A4218DA814B1A687D4B1B681A44804B30
:10142C001B689A420FDD7E4B06221A607D4B1B68AF
:10143C000833794A13607C4B1B6801337A4A13607A
:10144C007A4B00221A60774B1B6808337B617B69EF
:10145C00A3F10802764B1B689A4221DC7B6903F1ED
:10146C000802734B1B689A421ADB724B1B68142BD5
:10147C0016DC704B1B68042B12DD6F4B1B68002BAA
:10148C000ED16E4B00221A606D4B1B68013B6C4AEF
:10149C001360694B01221A606A4B1B686A4A13601D
:1014AC007B69A3F10802694B1B689A4221DC7B69BA
:1014BC0003F10802654B1B689A421ADB644B1B68EC
:1014CC00142B16DC624B1B68042B12DD5A4B1B6869
:1014DC00002B0ED15F4B00221A60594B1B68013B4D
:1014EC00574A1360544B01221A60564B1B68564ADC
:1014FC0013607B69A3F10802574B1B689A4221DCED
:10150C007B6903F10802544B1B689A421ADB534B5C
:10151C001B68142B16DC514B1B68042B12DD464B3D
:10152C001B68002B0ED14E4B00221A60444B1B68DB
:10153C00013B434A1360404B01221A60414B1B682C
:10154C00414A13607B69A3F10802464B1B689A421F
:10155C0021DC7B6903F10802424B1B689A421ADBBF
:10156C00414B1B68142B16DC3F4B1B68042B12DD04
:10157C00314B1B68002B0ED13C4B00221A60304BB8
:10158C001B68013B2E4A13602B4B01221A602D4B1A
:10159C001B682D4A1360364B1B68042B02DD344B41
:1015AC0000221A60264B1B68002B02D1314B012202
:1015BC001A60304B1B68012B40F09D8000F0EEFE52
:1015CC00002300932C4B2D4A1421252001F0BCFB49
:1015DC00154B1A683B1D2A49184603F0F1FD3A1DBC
:1015EC0000230093244B1421552001F0ADFB002364
:1015FC000093214B234A2321252001F0A5FB224BEC
:10160C001A683B1D42E000BFC4020020DC0200202F
:10161C00E0020020A8030020A0030020C00200204C
:10162C009C030020EC020020C0030020A403002037
:10163C00B0030020C8020020D4030020DC030020EB
:10164C00E4020020CC030020D8030020B4030020C7
:10165C00CC020020E0030020B8030020D0020020C0
:10166C00E4030020BC030020D4020020E803002087
:10167C00C4030020AC03002080720008705A0008DC
:10168C00605A0008785A0008E80200201E491846E3
:10169C0003F096FD3A1D002300931C4B232155208B
:1016AC0001F052FB00230093184B194A32212520DC
:1016BC0001F04AFB174B1B68174AA2FB03239A093C
:1016CC003B1D1149184603F07BFD3A1D0023009386
:1016DC000E4B3221552001F037FB00F06BFEFFF76B
:1016EC0013FB0346012B06D1FFF776FA01F074FCCD
:1016FC0002460A4B1A60012001F078FCFFF789BB07
:10170C0000BF1C37BD4690BD605A000880720008AF
:10171C00805A0008CC030020D34D6210C80300206F
:10172C0080B582B002AF00F039FE002300930E4B5F
:10173C000E4A0821002001F007FB002300930A4BFE
:10174C000B4A2B21002001F0FFFA00F033FE00BF02
:10175C004FF40041074801F0D3FE0346002BF7D1AC
:10176C0000BFBD4680BD00BFB07000088C5A000899
:10177C00A05A0008000C014080B584B002AF0023D1
:10178C007B600123FB7000F009FE0023854A0021D9
:10179C00002001F03DFA00230093834B834A002183
:1017AC000A2001F0D1FA002300937F4B804A1021CC
:1017BC000A2001F0C9FA00F0FDFD00F0FBFC034625
:1017CC00DAB27C4B1A707B4B1B78012B07D1FB7860
:1017DC00013BFB70FB78002B01D10323FB70754B95
:1017EC001B78022B07D1FB780133FB70FB78042BA1
:1017FC0001D10123FB706F4B1B78032B05D100F03B
:10180C00CDFD00F0D7FDFB787B606A4B1B78042B79
:10181C0001D10023C2E07B68012B0AD1FEF790FCBA
:10182C00FEF7B0FD00237B604FF4967001F0DEFBF9
:10183C0016E07B68022B08D1FFF7D8FA00237B60F7
:10184C004FF4967001F0D2FB0AE07B68032B07D1B2
:10185C00FFF724F800237B604FF4967001F0C6FB71
:10186C00FB78013B032B00F2978001A252F823F086
:10187C008D180008D3180008191900085F19000802
:10188C0000F08CFD0023474A0021002001F0C0F934
:10189C0000230093444B484A00210A2001F054FADB
:1018AC0000230093404B454A10210A2001F04CFACA
:1018BC00002300933C4B424A20210A2001F044FAB9
:1018CC0000F078FD69E000F069FD0023354A102135
:1018DC00002001F09DF900230093334B364A002180
:1018EC000A2001F031FA002300932F4B334A1021C8
:1018FC000A2001F029FA002300932B4B304A2021B7
:10190C000A2001F021FA00F055FD46E000F046FDFA
:10191C000023244A2021002001F07AF900230093AF
:10192C00214B254A00210A2001F00EFA00230093D6
:10193C001D4B224A10210A2001F006FA00230093C5
:10194C00194B1F4A20210A2001F0FEF900F032FD4C
:10195C0023E000F023FD0023124A3021002001F087
:10196C0057F900230093104B134A00210A2001F071
:10197C00EBF9002300930C4B104A10210A2001F0C4
:10198C00E3F900230093084B0D4A20210A2001F0B3
:10199C00DBF900F00FFD00E000BF0EE7184608373A
:1019AC00BD4680BDF4020020B0700008AC5A00089F
:1019BC00BC5A000894040020D05A0008E05A0008D1
:1019CC00F05A000880B584B002AF0123FB7100F01F
:1019DC00E5FC0023A54A0021002001F019F90023A1
:1019EC000093A34BA34A00210A2001F0ADF9002378
:1019FC0000939F4BA04A10210A2001F0A5F9002367
:101A0C0000939B4B9D4A20210A2001F09DF9002355
:101A1C000093974B9A4A30210A2001F095F900F077
:101A2C00C9FC00F0C7FB0346DAB2964B1A70954B13
:101A3C001B78012B07D1FB79013BFB71FB79002B48
:101A4C0001D10623FB718F4B1B78022B07D1FB793D
:101A5C000133FB71FB79072B01D10123FB71894BFE
:101A6C001B78032B05D100F099FC00F0A3FCFB794B
:101A7C00F8E0FB79013B052B00F2F28001A252F851
:101A8C0023F000BFA91A0008FF1A0008551B000814
:101A9C00AB1B0008011C0008371C000800F07EFC82
:101AAC000023724A0021002001F0B2F800230093B9
:101ABC006F4B704A00210A2001F046F90023009375
:101ACC006B4B6D4A10210A2001F03EF90023009364
:101ADC00674B6A4A20210A2001F036F90023009353
:101AEC00634B674A30210A2001F02EF900F062FCAA
:101AFC00B7E000F053FC00235C4A1021002001F0F9
:101B0C0087F8002300935A4B5A4A00210A2001F00F
:101B1C001BF900230093564B574A10210A2001F061
:101B2C0013F900230093524B544A20210A2001F050
:101B3C000BF9002300934E4B514A30210A2001F03F
:101B4C0003F900F037FC8CE000F028FC0023474A36
:101B5C002021002001F05CF800230093444B454AFF
:101B6C0000210A2001F0F0F800230093404B424A78
:101B7C0010210A2001F0E8F8002300933C4B3F4A67
:101B8C0020210A2001F0E0F800230093384B3C4A56
:101B9C0030210A2001F0D8F800F00CFC61E000F0D4
:101BAC00FDFB0023314A3021002001F031F80023E5
:101BBC0000932F4B2F4A00210A2001F0C5F8002377
:101BCC0000932B4B2C4A10210A2001F0BDF8002366
:101BDC000093274B294A20210A2001F0B5F8002355
:101BEC000093234B264A30210A2001F0ADF800F077
:101BFC00E1FB36E000F0D2FB00231C4A0021002060
:101C0C0001F006F800230093194B1F4A00210A200B
:101C1C0001F09AF800230093154B1C4A10210A205E
:101C2C0001F092F800F0C6FB1BE000F0B7FB0023BC
:101C3C000E4A1021002000F0EBFF002300930C4B08
:101C4C00114A00210A2001F07FF800230093084B71
:101C5C000E4A10210A2001F077F800F0ABFB00E0EF
:101C6C0000BFDEE618460837BD4680BDF4020020F2
:101C7C00B0700008005B0008085B0008105B0008EF
:101C8C00205B0008940400202C5B0008345B0008E7
:101C9C0080B588B000AF07F1100300221A605A60BB
:101CAC009A60DA602A4B9B69294A43F010039361CE
:101CBC00274B9B6903F01003FB60FB68244B9B696B
:101CCC00234A43F020039361214B9B6903F02003CB
:101CDC00BB60BB681E4B9B691D4A43F008039361B4
:101CEC001B4B9B6903F008037B607B68184B9B695B
:101CFC00174A43F004039361154B9B6903F00403EB
:101D0C003B603B6801224FF40051124801F00FFC7C
:101D1C004FF400533B6101237B610123BB61022320
:101D2C00FB6107F1100319460A4801F08FFA4FF4D2
:101D3C0070433B6100237B610123BB6107F11003FE
:101D4C001946054801F082FA00BF2037BD4680BD18
:101D5C000010024000100140000C014080B500AFA3
:101D6C00124B134A1A60114B124A5A600F4B002245
:101D7C009A600E4B0022DA600C4B4FF480421A61D1
:101D8C000A4B00225A61094B00229A61074B002230
:101D9C00DA61064B00221A62044801F0E1FB0346AB
:101DAC00002B01D000F0C5F800BF80BD98040020C6
:101DBC0000540040801A060080B588B000AF7860EF
:101DCC0007F1100300221A605A609A60DA607B688F
:101DDC001B68154A934223D1144B9B69134A43F059
:101DEC0008039361114B9B6903F00803FB60FB68CC
:101DFC00C0233B6112237B610323FB6107F11003BA
:101E0C0019460B4801F022FA084BDB69074A43F4E8
:101E1C000013D361054BDB6903F40013BB60BB6893
:101E2C0000BF2037BD4680BD00540040001002406A
:101E3C00000C014080B582B000AF01F075F800F0E5
:101E4C001BF8FFF725FF00F079F8FFF787FF00F08C
:101E5C004EFA00F0A3FA00F0ADFAFFF7B3FD78608C
:101E6C007B68022B02D1FFF787FCF6E77B68062B19
:101E7C00F3D1FFF755FCF0E780B594B000AF07F154
:101E8C00280328220021184603F05EF907F11403F9
:101E9C0000221A605A609A60DA601A613B1D0022B7
:101EAC001A605A609A60DA600923BB624FF480337F
:101EBC00FB6200233B630123BB6301233B640223CE
:101ECC007B644FF48033BB644FF4E013FB6407F185
:101EDC002803184601F08EFF0346002B01D000F0BA
:101EEC0028F80F237B610223BB610023FB614FF4B5
:101EFC0080633B6200237B6207F1140302211846C6
:101F0C0002F0F8F90346002B01D000F012F801237F
:101F1C007B604FF40073BB603B1D184602F086FBE0
:101F2C000346002B01D000F004F800BF5037BD462B
:101F3C0080BD80B400AF72B6FEE7000080B582B001
:101F4C0000AF3B1D00210A461A800A469A700023F6
:101F5C003B601D4B1D4A1A601B4B4FF0FF325A6001
:101F6C00194B00229A60184802F0D2FC0346002B51
:101F7C0001D0FFF7DEFF10233B7110237B71102380
:101F8C00BB713B1D012219460F4802F057FD034659
:101F9C00002B01D0FFF7CDFF01233B7001237B7099
:101FAC002223BB700023FB703B46012219460648D6
:101FBC0002F0DCFD0346002B01D0FFF7BAFF00BF97
:101FCC000837BD4680BD00BFEC040020002800404F
:101FDC0080B584B000AF78607B681B680F4A934271
:101FEC0018D101F0FBFE0E4BDB690D4A43F0006388
:101FFC00D3610B4BDB6903F00063FB60FB68094B9F
:10200C0001221A6000220221032001F0E8F80320CB
:10201C0001F001F900BF1037BD4680BD002800401B
:10202C00001002403C04424280B485B000AF154B16
:10203C009B69144A43F001039361124B9B6903F0B3
:10204C000103BB60BB680F4BDB690E4A43F0805346
:10205C00D3610C4BDB6903F080537B607B680A4BCC
:10206C005B68FB60FB6823F0E063FB60FB6843F09C
:10207C000073FB60044AFB68536000BF1437BD4615
:10208C0080BC7047001002400000014080B400AFDB
:10209C00FEE780B400AFFEE780B400AFFEE780B48B
:1020AC0000AFFEE780B400AFFEE780B400AF00BF26
:1020BC00BD4680BC704780B400AF00BFBD4680BC3D
:1020CC00704780B400AF00BFBD4680BC704780B580
:1020DC0000AF00F06FFF00BF80BD000080B500AF07
:1020EC00024802F0A3FF00BF80BD00BFEC0400203B
:1020FC0080B586B000AF7860144A154BD31A7B615B
:10210C007B693B61134B1B68002B02D1114B124AAC
:10211C001A60104B1A687B6813443A699A4207D2CA
:10212C0002F0CEFF02460C2313604FF0FF3309E0A0
:10213C00084B1B68FB60074B1A687B681344054A05
:10214C001360FB6818461837BD4680BD0050002050
:10215C0000040000EC0300200809002080B400AF4C
:10216C0000BFBD4680BC70470C480D490D4A00238A
:10217C0002E0D458C4500433C4188C42F9D30A4A30
:10218C000A4C002301E013600432A242FBD3FFF798
:10219C00E5FF02F09BFFFFF74DFE704700000020AB
:1021AC0068030020F0720008680300200809002072
:1021BC00FEE7000080B582B000AF0023FB714FF446
:1021CC008051334801F09CF90346002B10D11420A8
:1021DC0000F00CFF00BF4FF480512D4801F090F936
:1021EC000346002BF7D0142000F000FF0123FB71F5
:1021FC004FF40051264801F083F90346002B10D10F
:10220C00142000F0F3FE00BF4FF40051204801F001
:10221C0077F90346002BF7D0142000F0E7FE0223D9
:10222C00FB714FF480411A4801F06AF90346002B08
:10223C0010D1142000F0DAFE00BF4FF48041144896
:10224C0001F05EF90346002BF7D0142000F0CEFE0F
:10225C000323FB714FF400410D4801F051F9034683
:10226C00002B10D1142000F0C1FE00BF4FF4004130
:10227C00074801F045F90346002BF7D0142000F075
:10228C00B5FE0423FB71FB7918460837BD4680BDAB
:10229C00000C014080B584B002AF78600B46FB7037
:1022AC00FB789AB24FF0FF33009313467A6878218B
:1022BC00034801F08DFA00BF0837BD4680BD00BF52
:1022CC009804002080B584B000AF0346FB71002356
:1022DC00BB8100233B73FB797B7307F10C03022159
:1022EC001846FFF7D7FF00BF1037BD4680BD80B53D
:1022FC0000AFAE20FFF7E6FF0220FFF7E3FF102050
:10230C00FFF7E0FF4020FFF7DDFFB020FFF7DAFF1B
:10231C008120FFF7D7FFCF20FFF7D4FFA120FFF7D5
:10232C00D1FFA620FFF7CEFFA820FFF7CBFF3F2061
:10233C00FFF7C8FFAD20FFF7C5FF8B20FFF7C2FFEB
:10234C003320FFF7BFFFC820FFF7BCFFD320FFF7F8
:10235C00B9FF0020FFF7B6FFD520FFF7B3FFC02071
:10236C00FFF7B0FFD920FFF7ADFF1F20FFF7AAFF43
:10237C00DA20FFF7A7FF1220FFF7A4FFDB20FFF7FF
:10238C00A1FF4020FFF79EFF00F008F800F012F8C4
:10239C00AF20FFF797FF00BF80BD000080B500AFF6
:1023AC004FF480620021024802F0CEFE00BF80BDD7
:1023BC000005002080B582B000AF144B40221A708B
:1023CC000023FB711BE0FB79503BDBB21846FFF797
:1023DC0079FF0220FFF776FF1020FFF773FF0C4800
:1023EC00FB79DB010B4A13448022194602F0A1FE53
:1023FC0081210648FFF74EFFFB790133FB71FB7916
:10240C00072BE0D900BF0837BD4680BDF003002084
:10241C00F10300200005002080B483B000AF034618
:10242C00FB710B46BB7113467B7197F90730002B80
:10243C0043DBBB793F2B40D87B79002B1DD1BB797B
:10244C00DB08D8B20246FB791E49D2010A44134478
:10245C001B785AB2BB7903F00703012101FA03F38D
:10246C005BB2134359B20246FB79C8B21549D2018B
:10247C000A44134402461A7020E0BB79DB08D8B238
:10248C000246FB790F49D2010A4413441B785AB215
:10249C00BB7903F00703012101FA03F35BB2DB43C1
:1024AC005BB2134059B20246FB79C8B20549D2015E
:1024BC000A44134402461A7000E000BF0C37BD46B4
:1024CC0080BC70470005002090B482B000AF044679
:1024DC00084611461A462346FB710346BB710B4650
:1024EC007B7113463B71FB79072B60D897F906304B
:1024FC00002B5CDB3B7D002B02D07B79DB437B71BB
:10250C003B7C0133FF2202FA03F35AB297F90530F0
:10251C0013435AB23B79C3F10803FF2141FA03F389
:10252C005BB213435BB2DAB2234B1A70FA79BB7904
:10253C002249D2010A44134418781F4B1978FA79AE
:10254C00BB790140C8B21D49D2010A44134402466A
:10255C001A703B7C0133FF2202FA03F35BB2DB43BC
:10256C005AB297F9053013405AB23B79C3F10803BC
:10257C00FF2141FA03F35BB2DB435BB213405BB266
:10258C00DAB20D4B1A70FA79BB790C49D2010A44B4
:10259C0013441878084B1978FA79BB790143C8B2FF
:1025AC000649D2010A44134402461A7000E000BFE7
:1025BC000837BD4690BC7047710400200005002010
:1025CC00B0B586B002AF0446084611461A462346FB
:1025DC00FB710346BB710B467B7113463B71BB7998
:1025EC00DB08FB73BB7903F00703BB73BA7B3B7946
:1025FC001344082B29DD7A79BB7B02FA03F3DAB298
:10260C00BC7BF979F87B97F8203001930723009372
:10261C002346FFF759FFFB7B0133D8B27A79BB7B9A
:10262C00C3F1080342FA03F3DCB23A79BB7B1344DF
:10263C00DBB2093BDBB2F97997F8202001920093C9
:10264C0000232246FFF740FF15E07A79BB7B02FAA4
:10265C0003F3DCB2BA7B3B791344DBB2013BDBB254
:10266C00BD7BF979F87B97F82020019200932B46DB
:10267C002246FFF729FF00BF1037BD46B0BD90B50D
:10268C0087B002AF0446084611461A462346FB7132
:10269C000346BB710B467B7113463B71BB79DB0860
:1026AC00FB73BB7903F00703BB737A79BB7B02FA2C
:1026BC0003F3DAB2BC7BF979F87B3B7901930723FE
:1026CC0000932346FFF700FFBB7B002B14D0FB7B52
:1026DC000133D8B27A79BB7BC3F1080342FA03F316
:1026EC00DCB2BB7B013BDBB2F9793A790192009306
:1026FC0000232246FFF7E8FE00BF1437BD4690BD0D
:10270C0090B587B002AF3A601A460346FB710B4690
:10271C00BB7113467B7197F82030DB083B7397F83D
:10272C00203003F00703FB720023FB7325E000232A
:10273C00BB731BE0FA79FB7B1344D8B2BB7BDB0089
:10274C00DAB2BB791344DCB2FA7BBB7B797901FB3F
:10275C0003F313441A463B6813441A7897F8243051
:10276C002146FFF78CFFBB7B0133BB73BA7B3B7BF2
:10277C009A42DFD3FB7B0133FB73FA7B7B799A4262
:10278C00D5D3FB7A002B28D07B799BB23A7B92B2C3
:10279C0002FB03F33B8100237B731AE0FA797B7B0A
:1027AC001344D8B23B7BDB00DAB2BB791344D9B209
:1027BC003A897B7B13441A463B6813441A78FC7A9B
:1027CC0097F8243000932346FFF7FAFE7B7B013306
:1027DC007B737A7B7B799A42E0D300BF1437BD467A
:1027EC0090BD000090B587B000AF04460846114676
:1027FC001A462346FB710346BB710B467B7113468D
:10280C003B71FA797B799A421DD1BA793B799A421C
:10281C0007D9684ABB7913703B79BB71654B1B7840
:10282C003B71BB79FB7509E097F82820F97DFB79A2
:10283C001846FFF7F1FDFB7D0133FB75FA7D3B7903
:10284C009A42F1D9B2E0BA793B799A421DD1FA7920
:10285C007B799A4207D9574AFB7913707B79FB71C4
:10286C00544B1B787B71FB79BB7509E097F82820DA
:10287C00B979BB7D1846FFF7CFFDBB7D0133BB7526
:10288C00BA7D7B799A42F1D990E07B799AB2FB7947
:10289C009BB2D31A9BB2FB813B799AB2BB799BB2A8
:1028AC00D31A9BB2BB81B7F90E30002B01DD01238B
:1028BC0001E04FF0FF337B81B7F90C30002B01DDC9
:1028CC00012301E04FF0FF333B81FB79BB82BB79E5
:1028DC007B8200233B82B7F90E30002BB8BF5B42E2
:1028EC00FB81B7F90C30002BB8BF5B42BB81B7F949
:1028FC000E20B7F90C309A422CDDFB79BB8223E019
:10290C00BB8ADBB27A8AD1B297F828201846FFF737
:10291C0083FD3A8ABB8913449BB23B82B7F91030D2
:10292C005A00B7F90E309A4209DB7A8A3B89134474
:10293C009BB27B823A8AFB89D31A9BB23B82BA8ABE
:10294C007B8913449BB2BB82B7F914207B799A42E2
:10295C00D6D12BE0BB797B8223E0BB8ADBB27A8AAF
:10296C00D1B297F828201846FFF756FD3A8AFB8912
:10297C0013449BB23B82B7F910305A00B7F90C30B4
:10298C009A4209DBBA8A7B8913449BB2BB823A8A8E
:10299C00BB89D31A9BB23B827A8A3B8913449BB284
:1029AC007B82B7F912203B799A42D6D100BF1C37F3
:1029BC00BD4690BD7204002090B585B002AF0446B0
:1029CC00084611461A462346FB710346BB710B465B
:1029DC007B7113463B71FA797B791344DAB2BC797B
:1029EC00B979F8793B7E00932346FFF7FBFEBA7961
:1029FC003B791344D9B2FA797B791344DCB2BA79B6
:102A0C003B791344DAB2F8793B7E009313462246A5
:102A1C00FFF7E8FEBA793B791344DCB2FA79B9795D
:102A2C00F8793B7E00932346FFF7DCFEFA797B793D
:102A3C001344D8B2FA797B791344DCB2BA793B7976
:102A4C001344DAB2B9793B7E009313462246FFF762
:102A5C00C9FE00BF0C37BD4690BD90B585B000AF28
:102A6C000446084611461A462346FB710346BB71C1
:102A7C000B467B7113463B710023FB817B79BB8139
:102A8C007B799BB25B009BB2C3F103039BB27B814E
:102A9C00B3E0BB89DBB2FA79D31AD8B2FB89DBB2CB
:102AAC00BA79D31ADBB23A791946FFF7B5FCBB8970
:102ABC00DAB2FB791344D8B2FB89DBB2BA79D31AF8
:102ACC00DBB23A791946FFF7A7FCFB89DBB2FA793E
:102ADC00D31AD8B2BB89DAB2BB791344DBB23A79D8
:102AEC001946FFF799FCBB89DBB2FA79D31AD8B235
:102AFC00FB89DBB2BA79D31ADBB23A791946FFF704
:102B0C008BFCFB89DBB2FA79D31AD8B2BB89DBB266
:102B1C00BA79D31ADBB23A791946FFF77DFCBB8937
:102B2C00DAB2FB791344D8B2FB89DAB2BB7913441D
:102B3C00DBB23A791946FFF76FFCFB89DAB2FB7905
:102B4C001344D8B2BB89DBB2BA79D31ADBB23A7967
:102B5C001946FFF761FCFB89DAB2FB791344D8B252
:102B6C00BB89DAB2BB791344DBB23A791946FFF769
:102B7C0053FCBB89DBB2FA79D31AD8B2FB89DAB22F
:102B8C00BB791344DBB23A791946FFF745FCB7F928
:102B9C000E309BB201339BB2FB81B7F90A30002B8C
:102BAC0009DAFB899B009AB27B8913449BB20633EA
:102BBC009BB27B8113E0B7F90E20B7F90C30D31A16
:102BCC009BB29B009AB27B8913449BB20A339BB293
:102BDC007B81B7F90C309BB2013B9BB2BB81FB896B
:102BEC00DAB2FB791344D8B2BB89DAB2BB7913449D
:102BFC00DBB23A791946FFF70FFCB7F90E20B7F99B
:102C0C000C309A427FF745AF00BF1437BD4690BDDC
:102C1C00B0B584B002AF3A601A460346FB710B465E
:102C2C00BB7113467B713B685C683B681D783B68E5
:102C3C005B78B979F8797A79019200932B46224620
:102C4C00FFF75EFD00BF0837BD46B0BDB0B584B020
:102C5C0002AF3B600346FB710B46BB7113467B71A5
:102C6C003B685A687B79A3F120013B681B780733DA
:102C7C00002B00DA0733DB1018463B685B7803FB4C
:102C8C0000F303FB01F3D4183B685D783B681B78B9
:102C9C00B979F8793A7E019200932B462246FFF7D8
:102CAC002FFD00BF0837BD46B0BD80B588B002AF60
:102CBC00BA607B600346FB730B46BB73FB7BFB75F7
:102CCC0011E0BB681A78B97BF87D97F82030009337
:102CDC007B68FFF7BBFF7B685A78FB7D1344FB7561
:102CEC00BB680133BB60BB681B78002BE9D100BF0C
:102CFC001837BD4680BD80B483B000AF78607B6868
:102D0C001B785BB2002B01DB012318E07B681B787E
:102D1C0003F0E003C02B01D1022310E07B681B7889
:102D2C0003F0F003E02B01D1032308E07B681B7850
:102D3C0003F0F803F02B01D1042300E00023184624
:102D4C000C37BD4680BC7047B0B58AB002AFBA60D4
:102D5C007B600346FB730B46BB730023FB837B68D2
:102D6C001B780733002B00DA0733DB10DBB27A68F1
:102D7C00527802FB03F3DBB20433FB767DE00023D5
:102D8C007B77FB8BBA6813441846FFF7B4FF0346F6
:102D9C00BB76BB7E002B78D000233B7732E07B6880
:102DAC005B683A7FF97E01FB02F213447B61FB8B7B
:102DBC00BA681344BA7E7969184602F0ABF9034637
:102DCC00002B1CD17B691C1D7B685D787B681B7894
:102DDC00B97BF87B97F83020019200932B46224662
:102DEC00FFF78EFC7B685A78FB7B1344FB73BB7E2E
:102DFC009AB2FB8B1344FB8301237B7707E03B7F69
:102E0C0001333B777B681B7A3A7F9A42C7D37B7F2F
:102E1C00002B32D1BB7E012B19D1FB8BBA6813442A
:102E2C001A787B68DC68B97BF87B97F830300093B4
:102E3C002346FFF70BFF7B68DB685A78FB7B134458
:102E4C00FB73BB7E9AB2FB8B1344FB8315E07B6850
:102E5C00DA68B97BF87B97F8303000931346202260
:102E6C00FFF7F4FE7B68DB685A78FB7B1344FB733B
:102E7C00BB7E9AB2FB8B1344FB83FB8BBA68134467
:102E8C001B78002B7FF47BAF00E000BF00BF203726
:102E9C00BD46B0BD80B483B000AF03460A46FB808C
:102EAC001346BB80B7F90630002B35DBB7F906307B
:102EBC007F2B31DCB7F90430002B2DDBB7F9043054
:102ECC003F2B29DCB7F90430002B00DA0733DB1079
:102EDC0018B20246B7F906301249D2010A4413441B
:102EEC001B785AB2B7F90430594203F0070301F0CA
:102EFC00070158BF4B421BB2194601238B405BB2F2
:102F0C00134359B20246B7F90630C8B20549D2018B
:102F1C000A44134402461A7000BF0C37BD4680BCED
:102F2C00704700BF0005002080B500AF084B1B6840
:102F3C00074A43F010031360032000F045F900200A
:102F4C0000F008F8FFF770F80023184680BD00BFAA
:102F5C000020024080B582B000AF7860124B1A6836
:102F6C00124B1B7819464FF47A73B3FBF1F3B2FB97
:102F7C00F3F3184600F05DF90346002B01D0012352
:102F8C000EE07B680F2B0AD8002279684FF0FF30D7
:102F9C0000F025F9064A7B681360002300E001234A
:102FAC0018460837BD4680BDF00200200003002003
:102FBC00FC02002080B400AF054B1B781A46054B71
:102FCC001B681344034A136000BFBD4680BC7047A6
:102FDC00000300200009002080B400AF024B1B68E6
:102FEC001846BD4680BC70470009002080B584B0EF
:102FFC0000AF7860FFF7F0FFB8607B68FB60FB68A0
:10300C00B3F1FF3F05D0094B1B781A46FB681344FC
:10301C00FB6000BFFFF7E0FF0246BB68D31AFA68FB
:10302C009A42F7D800BF1037BD4680BD0003002080
:10303C0080B485B000AF78607B6803F00703FB6059
:10304C000C4BDB68BB60BA684FF6FF031340BB60E8
:10305C00FB681A02BB68134343F0BF6343F40033AD
:10306C00BB60044ABB68D36000BF1437BD4680BC4C
:10307C00704700BF00ED00E080B400AF044BDB688C
:10308C001B0A03F007031846BD4680BC704700BFFF
:10309C0000ED00E080B483B000AF0346FB7197F9FC
:1030AC000730002B0BDBFB7903F01F02064997F965
:1030BC0007305B09012000FA02F241F8232000BF1F
:1030CC000C37BD4680BC704700E100E080B483B093
:1030DC0000AF03463960FB7197F90730002B0ADB10
:1030EC003B68DAB20C4997F907301201D2B20B44A3
:1030FC0083F800230AE03B68DAB20849FB7903F055
:10310C000F03043B1201D2B20B441A7600BF0C37EA
:10311C00BD4680BC704700BF00E100E000ED00E060
:10312C0080B489B000AFF860B9607A60FB6803F0D6
:10313C000703FB61FB69C3F10703042B28BF0423BE
:10314C00BB61FB690433062B02D9FB69033B00E02E
:10315C0000237B614FF0FF32BB6902FA03F3DA43C1
:10316C00BB681A407B699A404FF0FF317B6901FACA
:10317C0003F3D9437B680B40134318462437BD46F1
:10318C0080BC704780B582B000AF78607B68013B33
:10319C00B3F1807F01D301230FE00A4A7B68013B26
:1031AC0053600F214FF0FF30FFF790FF054B0022CB
:1031BC009A60044B07221A60002318460837BD4654
:1031CC0080BD00BF10E000E080B582B000AF786039
:1031DC007868FFF72DFF00BF0837BD4680BD80B56E
:1031EC0086B000AF0346B9607A60FB7300237B6145
:1031FC00FFF742FF78617A68B9687869FFF790FF4A
:10320C00024697F90F3011461846FFF75FFF00BFD3
:10321C001837BD4680BD80B582B000AF0346FB7148
:10322C0097F907301846FFF735FF00BF0837BD4642
:10323C0080BD80B582B000AF78607868FFF7A2FFE0
:10324C00034618460837BD4680BD000080B48BB0DD
:10325C0000AF7860396000237B6200233B6227E17A
:10326C0001227B6A02FA03F3FB613B681B68FA6973
:10327C001340BB61BA69FB699A4240F016813B6806
:10328C005B68122B34D0122B0DD8022B2BD0022BB7
:10329C0004D8002B31D0012B1CD048E0032B43D099
:1032AC00112B1BD043E0894A934226D0874A934284
:1032BC0006D8874A934220D0864A93421DD036E0E6
:1032CC00854A934219D0854A934216D0844A934238
:1032DC0013D02CE03B68DB683B6228E03B68DB6882
:1032EC0004333B6223E03B68DB6808333B621EE03F
:1032FC003B68DB680C333B6219E03B689B68002B36
:10330C0002D104233B6212E03B689B68012B05D180
:10331C0008233B627B68FA691A6108E008233B6268
:10332C007B68FA695A6102E000233B6200BFBB690B
:10333C00FF2B01D87B6801E07B6804337B61BB69A0
:10334C00FF2B02D87B6A9B0002E07B6A083B9B0048
:10335C003B617B691A680F213B6901FA03F3DB437C
:10336C001A40396A3B6901FA03F31A437B691A6004
:10337C003B685B6803F08053002B00F09680594B40
:10338C009B69584A43F001039361564B9B6903F0C8
:10339C000103BB60BB68544A7B6A9B08023352F83A
:1033AC002330FB607B6A03F003039B000F2202FABD
:1033BC0003F3DB43FA681340FB607B684B4A934290
:1033CC0013D07B684A4A93420DD07B68494A93429A
:1033DC0007D07B68484A934201D1032306E00423BB
:1033EC0004E0022302E0012300E000237A6A02F0E9
:1033FC00030292009340FA681343FB603A497B6ADC
:10340C009B080233FA6841F823203B685B6803F49D
:10341C008033002B06D0394B1A683849BB691343EB
:10342C000B6006E0354B1A68BB69DB43334913402C
:10343C000B603B685B6803F40033002B06D02F4B0A
:10344C005A682E49BB6913434B6006E02B4B5A68F4
:10345C00BB69DB43294913404B603B685B6803F451
:10346C008013002B06D0254B9A682449BB69134363
:10347C008B6006E0214B9A68BB69DB431F49134004
:10348C008B603B685B6803F40013002B06D01B4B6E
:10349C00DA681A49BB691343CB6006E0174BDA684C
:1034AC00BB69DB4315491340CB607B6A01337B62FC
:1034BC003B681A687B6A22FA03F3002B7FF4D0AEC8
:1034CC0000BF2C37BD4680BC704700BF00002110E8
:1034DC00000011100000121000003110000032101A
:1034EC0000002210001002400000014000080140C2
:1034FC00000C014000100140001401400004014088
:10350C0080B485B000AF78600B467B807B689A688E
:10351C007B881340002B02D00123FB7301E00023B6
:10352C00FB73FB7B18461437BD4680BC704780B4D8
:10353C0083B000AF78600B467B8013467B707B7842
:10354C00002B03D07A887B681A6103E07B881A040D
:10355C007B681A6100BF0C37BD4680BC7047000009
:10356C0080B584B000AF78607B68002B01D101235B
:10357C001FE17B6893F83D30DBB2002B06D17B68F2
:10358C00002283F83C207868FEF716FC7B68242226
:10359C0083F83D207B681B681A687B681B6822F0E7
:1035AC0001021A607B681B681A687B681B6842F40E
:1035BC0000421A607B681B681A687B681B6822F4DF
:1035CC0000421A6000F0ECFFF8607B685B687B4A95
:1035DC00934207D8FB687A4A934294BF0123002395
:1035EC00DBB206E0FB68774A934294BF01230023C9
:1035FC00DBB2002B01D00123DBE0FB68724AA2FB9B
:10360C0003239B0CBB607B681B685B6823F03F014A
:10361C007B681B68BA680A435A607B681B681B6A24
:10362C0023F03F017B685B68644A934202D8BB6815
:10363C00013309E0BB684FF4967202FB03F3634A53
:10364C00A2FB03239B0901337A6812680B431362B4
:10365C007B681B68DB6923F44F4222F0FF027B6816
:10366C005B6856498B420DD8FB68591E7B685B68BA
:10367C005B00B1FBF3F30133C3F30B03042B38BF33
:10368C0004234FE07B689B68002B11D1FB68581E0C
:10369C007B6859680B465B000B44B0FBF3F30133BA
:1036AC00C3F30B03002B0CBF01230023DBB212E08E
:1036BC00FB68581E7B6859680B469B000B449900AD
:1036CC000B44B0FBF3F30133C3F30B03002B0CBF20
:1036DC0001230023DBB2002B01D0012322E07B6805
:1036EC009B68002B0ED1FB68581E7B6859680B46F3
:1036FC005B000B44B0FBF3F30133C3F30B0343F454
:10370C0000430FE0FB68581E7B6859680B469B0012
:10371C000B4499000B44B0FBF3F30133C3F30B03DD
:10372C0043F44043796809681343CB617B681B6899
:10373C001B6823F0C0017B68DA697B681B6A1A433B
:10374C007B681B680A431A607B681B689B6823F4C0
:10375C00034323F0FF037A6811697A68D268114336
:10376C007A6812680B4393607B681B68DB6823F0F4
:10377C00FF017B685A697B689B691A437B681B68ED
:10378C000A43DA607B681B681A687B681B6842F026
:10379C0001021A607B6800221A647B68202283F87D
:1037AC003D207B6800221A637B68002283F83E2050
:1037BC00002318461037BD4680BD00BFA08601000F
:1037CC007F841E00FF083D0083DE1B43D34D621037
:1037DC0080B588B002AFF8607A601A460B467B81E0
:1037EC0013463B81FFF7F8FB7861FB6893F83D309B
:1037FC00DBB2202B40F0E0807B690093192301227F
:10380C007049F86800F064F90346002B01D00223DC
:10381C00D3E0FB6893F83C30012B01D10223CCE0C0
:10382C00FB68012283F83C20FB681B681B6803F0D3
:10383C000103012B07D0FB681B681A68FB681B6827
:10384C0042F001021A60FB681B681A68FB681B686F
:10385C0022F400621A60FB68212283F83D20FB6889
:10386C00102283F83E20FB6800221A64FB687A68F9
:10387C005A62FB683A895A85FB685B8D9AB2FB6881
:10388C001A85FB68504ADA6279897B693A6AF8686A
:10389C0000F09CF80346002B01D001238DE000239F
:1038AC003B61FB681B685B693B61FB681B689B6940
:1038BC003B613B6966E07A69396AF86800F0DEF9C9
:1038CC000346002B0DD0FB681B6C042B07D1FB6847
:1038DC001B681A68FB681B6842F400721A600123AB
:1038EC006BE0FB685B6A1A78FB681B681A61FB6803
:1038FC005B6A5A1CFB685A62FB685B8D9BB2013B8E
:10390C009AB2FB685A85FB681B8D013B9AB2FB6827
:10391C001A85FB681B685B6903F00403042B1BD13D
:10392C00FB681B8D002B17D0FB685B6A1A78FB6851
:10393C001B681A61FB685B6A5A1CFB685A62FB685D
:10394C005B8D9BB2013B9AB2FB685A85FB681B8D61
:10395C00013B9AB2FB681A857A69396AF86800F0FB
:10396C00CEF90346002B0DD0FB681B6C042B07D142
:10397C00FB681B681A68FB681B6842F400721A60CB
:10398C0001231AE0FB681B8D002B94D1FB681B688C
:10399C001A68FB681B6842F400721A60FB682022EC
:1039AC0083F83D20FB68002283F83E20FB68002250
:1039BC0083F83C20002300E0022318461837BD464C
:1039CC0080BD00BF020010000000FFFF80B588B072
:1039DC0002AFF8607A603B600B467B81FB68DB6A68
:1039EC007B617B69082B06D07B69012B03D07B693B
:1039FC0013F5803F08D1FB681B681A68FB681B68CD
:103A0C0042F480721A600BE0FB681B6B122B07D11F
:103A1C00FB681B681A68FB681B6842F480721A60AA
:103A2C003B6800937B6800224FF00111F86800F0AE
:103A3C004FF80346002B0DD0FB681B681B6803F482
:103A4C008073B3F5807F03D1FB684FF400721A6466
:103A5C00032335E0FB681B69B3F5804F08D17B89E4
:103A6C00DBB21A46FB681B6802F0FE021A611BE00F
:103A7C007B89DB11DBB203F00603DBB263F00F03CF
:103A8C00DAB2FB681B681A613B687A680E49F86801
:103A9C0000F075F80346002B01D0012310E07B8960
:103AAC00DAB2FB681B681A613B687A680749F868E8
:103ABC0000F065F80346002B01D0012300E0002341
:103ACC0018461837BD4680BD0800010002000100F1
:103ADC0080B584B000AFF860B9603B601346FB71F1
:103AEC0025E03B68B3F1FF3F21D0FFF775FA0246A2
:103AFC00BB69D31A3A689A4202D33B68002B16D1A1
:103B0C00FB6800221A63FB68202283F83D20FB68C7
:103B1C00002283F83E20FB681B6C43F02002FB68FC
:103B2C001A64FB68002283F83C20012323E0BB6865
:103B3C001B0CDBB2012B0DD1FB681B685B69DA43F4
:103B4C00BB6813409BB2002B0CBF01230023DBB2DC
:103B5C001A460CE0FB681B689B69DA43BB68134090
:103B6C009BB2002B0CBF01230023DBB21A46FB795E
:103B7C009A42B6D0002318461037BD4680BD80B59A
:103B8C0084B000AFF860B9607A603B6051E0FB68CC
:103B9C001B685B6903F48063B3F5806F23D1FB680A
:103BAC001B681A68FB681B6842F400721A60FB6899
:103BBC001B686FF480625A61FB6800221A63FB6811
:103BCC00202283F83D20FB68002283F83E20FB680E
:103BDC001B6C43F00402FB681A64FB68002283F838
:103BEC003C20012346E07B68B3F1FF3F21D0FFF777
:103BFC00F3F902463B68D31A7A689A4202D37B687F
:103C0C00002B16D1FB6800221A63FB68202283F874
:103C1C003D20FB68002283F83E20FB681B6C43F0C0
:103C2C002002FB681A64FB68002283F83C20012305
:103C3C0020E0BB681B0CDBB2012B0CD1FB681B68B2
:103C4C005B69DA43BB6813409BB2002B14BF0123A2
:103C5C000023DBB20BE0FB681B689B69DA43BB6893
:103C6C0013409BB2002B14BF01230023DBB2002BAB
:103C7C008DD1002318461037BD4680BD80B584B069
:103C8C0000AFF860B9607A602DE0F86800F078F861
:103C9C000346002B01D001232DE0BB68B3F1FF3F9D
:103CAC0021D0FFF799F902467B68D31ABA689A4279
:103CBC0002D3BB68002B16D1FB6800221A63FB6889
:103CCC00202283F83D20FB68002283F83E20FB680D
:103CDC001B6C43F02002FB681A64FB68002283F81B
:103CEC003C20012307E0FB681B685B6903F0800341
:103CFC00802BCAD1002318461037BD4680BD80B535
:103D0C0084B000AFF860B9607A602DE0F86800F01C
:103D1C0037F80346002B01D001232DE0BB68B3F12B
:103D2C00FF3F21D0FFF758F902467B68D31ABA68D7
:103D3C009A4202D3BB68002B16D1FB6800221A638F
:103D4C00FB68202283F83D20FB68002283F83E208C
:103D5C00FB681B6C43F02002FB681A64FB680022B2
:103D6C0083F83C20012307E0FB681B685B6903F0C8
:103D7C000403042BCAD1002318461037BD4680BD5E
:103D8C0080B483B000AF78607B681B685B6903F418
:103D9C008063B3F5806F1BD17B681B686FF4806206
:103DAC005A617B6800221A637B68202283F83D20CD
:103DBC007B68002283F83E207B681B6C43F0040276
:103DCC007B681A647B68002283F83C20012300E0A6
:103DDC00002318460C37BD4680BC704780B400AF3A
:103DEC00034B01221A6000BFBD4680BC704700BF68
:103DFC0020000E4280B586B000AF78607B68002B47
:103E0C0001D101236CE27B681B6803F00103002BDA
:103E1C0000F08780924B5B6803F00C03042B0CD0F2
:103E2C008F4B5B6803F00C03082B12D18C4B5B6837
:103E3C0003F48033B3F5803F0BD1894B1B6803F43B
:103E4C000033002B6CD07B685B68002B68D101239E
:103E5C0046E27B685B68B3F5803F06D1804B1B68FC
:103E6C007F4A43F4803313602EE07B685B68002B41
:103E7C000CD17B4B1B687A4A23F480331360784B4C
:103E8C001B68774A23F4802313601DE07B685B6812
:103E9C00B3F5A02F0CD1724B1B68714A43F48023ED
:103EAC0013606F4B1B686E4A43F4803313600BE056
:103EBC006B4B1B686A4A23F480331360684B1B6896
:103ECC00674A23F4802313607B685B68002B13D054
:103EDC00FFF782F8386108E0FFF77EF802463B698D
:103EEC00D31A642B01D90323FAE15D4B1B6803F44D
:103EFC000033002BF0D014E0FFF76EF8386108E0C7
:103F0C00FFF76AF802463B69D31A642B01D90323E5
:103F1C00E6E1534B1B6803F40033002BF0D100E0B7
:103F2C0000BF7B681B6803F00203002B63D04C4B73
:103F3C005B6803F00C03002B0BD0494B5B6803F060
:103F4C000C03082B1CD1464B5B6803F48033002B0D
:103F5C0016D1434B1B6803F00203002B05D07B6882
:103F6C001B69012B01D00123BAE13D4B1B6823F0E7
:103F7C00F8027B685B69DB00394913430B603AE05C
:103F8C007B681B69002B20D0364B01221A60FFF78F
:103F9C0023F8386108E0FFF71FF802463B69D31A93
:103FAC00022B01D903239BE12D4B1B6803F0020369
:103FBC00002BF0D02A4B1B6823F0F8027B685B695E
:103FCC00DB00274913430B6015E0264B00221A60D7
:103FDC00FFF702F8386108E0FEF7FEFF02463B6986
:103FEC00D31A022B01D903237AE11D4B1B6803F072
:103FFC000203002BF0D17B681B6803F00803002B35
:10400C003AD07B689B69002B19D0174B01221A60A0
:10401C00FEF7E2FF386108E0FEF7DEFF02463B697F
:10402C00D31A022B01D903235AE10D4B5B6A03F01F
:10403C000203002BF0D0012000F0DAFA1CE00A4B4E
:10404C0000221A60FEF7C8FF38610FE0FEF7C4FFCC
:10405C0002463B69D31A022B08D9032340E100BF67
:10406C000010024000004242800442429E4B5B6AB8
:10407C0003F00203002BE9D17B681B6803F00403F7
:10408C00002B00F0A6800023FB75974BDB6903F037
:10409C008053002B0DD1944BDB69934A43F0805332
:1040AC00D361914BDB6903F08053BB60BB68012388
:1040BC00FB758E4B1B6803F48073002B18D18B4B54
:1040CC001B688A4A43F480731360FEF785FF3861DE
:1040DC0008E0FEF781FF02463B69D31A642B01D935
:1040EC000323FDE0814B1B6803F48073002BF0D09D
:1040FC007B68DB68012B06D17B4B1B6A7A4A43F049
:10410C00010313622DE07B68DB68002B0CD1764B2E
:10411C001B6A754A23F001031362734B1B6A724AC4
:10412C0023F0040313621CE07B68DB68052B0CD1C5
:10413C006D4B1B6A6C4A43F0040313626A4B1B6A97
:10414C00694A43F0010313620BE0674B1B6A664A32
:10415C0023F001031362644B1B6A634A23F00403CC
:10416C0013627B68DB68002B15D0FEF735FF3861D6
:10417C000AE0FEF731FF02463B69D31A41F288325E
:10418C00934201D90323ABE0574B1B6A03F00203A4
:10419C00002BEED014E0FEF71FFF38610AE0FEF7AB
:1041AC001BFF02463B69D31A41F28832934201D974
:1041BC00032395E04C4B1B6A03F00203002BEED15A
:1041CC00FB7D012B05D1484BDB69474A23F080531B
:1041DC00D3617B68DB69002B00F08180424B5B680C
:1041EC0003F00C03082B61D07B68DB69022B46D1F2
:1041FC003F4B00221A60FEF7EFFE386108E0FEF735
:10420C00EBFE02463B69D31A022B01D9032367E06C
:10421C00354B1B6803F00073002BF0D17B681B6AD5
:10422C00B3F5803F08D1304B5B6823F400327B68D8
:10423C009B682D4913434B602B4B5B6823F4741222
:10424C007B68196A7B685B6A0B43274913434B6095
:10425C00274B01221A60FEF7BFFE386108E0FEF71B
:10426C00BBFE02463B69D31A022B01D9032337E06C
:10427C001D4B1B6803F00073002BF0D02FE01C4B80
:10428C0000221A60FEF7A8FE386108E0FEF7A4FED3
:10429C0002463B69D31A022B01D9032320E0124BAF
:1042AC001B6803F00073002BF0D118E07B68DB690E
:1042BC00012B01D1012313E00B4B5B68FB60FB6806
:1042CC0003F480327B681B6A9A4206D1FB6803F4C4
:1042DC0070127B685B6A9A4201D0012300E00023D4
:1042EC0018461837BD4680BD0010024000700040D3
:1042FC006000424280B584B000AF786039607B6862
:10430C00002B01D10123D0E06A4B1B6803F007039B
:10431C003A689A4210D9674B1B6823F0070265492B
:10432C003B6813430B60634B1B6803F007033A684D
:10433C009A4201D00123B8E07B681B6803F00203AA
:10434C00002B20D07B681B6803F00403002B05D0E6
:10435C00594B5B68584A43F4E06353607B681B68B5
:10436C0003F00803002B05D0534B5B68524A43F40F
:10437C0060535360504B5B6823F0F0027B689B6882
:10438C004D4913434B607B681B6803F00103002B02
:10439C0040D07B685B68012B07D1474B1B6803F44B
:1043AC000033002B15D101237FE07B685B68022B67
:1043BC0007D1414B1B6803F00073002B09D101237B
:1043CC0073E03D4B1B6803F00203002B01D101236A
:1043DC006BE0394B5B6823F003027B685B68364902
:1043EC0013434B60FEF7F8FDF8600AE0FEF7F4FDAE
:1043FC000246FB68D31A41F28832934201D9032357
:10440C0053E02D4B5B6803F00C027B685B689B00F0
:10441C009A42EBD1274B1B6803F007033A689A4288
:10442C0010D2244B1B6823F0070222493B6813432C
:10443C000B60204B1B6803F007033A689A4201D0CB
:10444C00012332E07B681B6803F00403002B08D0C7
:10445C00194B5B6823F4E0627B68DB6816491343F5
:10446C004B607B681B6803F00803002B09D0124BD0
:10447C005B6823F460527B681B69DB000E491343B5
:10448C004B6000F021F801460B4B5B681B0903F0F5
:10449C000F030A4AD35C21FA03F3094A1360094B50
:1044AC001B681846FEF756FD002318461037BD460C
:1044BC0080BD00BF0020024000100240345D0008A7
:1044CC00F0020020FC02002090B48AB000AF2A4B0E
:1044DC003C1D0FCB84E80F00284B1B883B8000232E
:1044EC00FB610023BB6100237B6200237B61002303
:1044FC003B62234B5B68FB61FB6903F00C03042BF1
:10450C0002D0082B03D02DE01E4B3B622DE0FB6943
:10451C009B0C03F00F0307F12802134413F8243CFF
:10452C007B61FB6903F48033002B13D0144B5B6865
:10453C005B0C03F0010307F12802134413F8283C29
:10454C00BB617B690F4A02FB03F2BB69B2FBF3F35D
:10455C007B6204E07B690C4A02FB03F37B627B6A9F
:10456C003B6202E0074B3B6200BF3B6A18462837B0
:10457C00BD4690BC704700BF445B0008545B00080C
:10458C000010024000127A0000093D0080B400AF18
:10459C00024B1B681846BD4680BC7047F0020020D9
:1045AC0080B500AFFFF7F2FF0146054B5B681B0AB5
:1045BC0003F00703034AD35C21FA03F3184680BDCA
:1045CC0000100240445D000880B500AFFFF7DEFF2D
:1045DC000146054B5B68DB0A03F00703034AD35C17
:1045EC0021FA03F3184680BD00100240445D000818
:1045FC0080B485B000AF78600A4B1B680A4AA2FBF6
:10460C0003235B0A7A6802FB03F3FB6000BFFB68C1
:10461C005A1EFA60002BF9D100BF1437BD4680BC7E
:10462C00704700BFF0020020D34D621080B586B0F9
:10463C0000AF786000233B610023FB607B681B6844
:10464C0003F00103002B7DD00023FB754F4BDB697E
:10465C0003F08053002B0DD14C4BDB694B4A43F0DC
:10466C008053D361494BDB6903F08053BB60BB685B
:10467C000123FB75464B1B6803F48073002B18D188
:10468C00434B1B68424A43F480731360FEF7A4FC4F
:10469C00386108E0FEF7A0FC02463B69D31A642B94
:1046AC0001D903236DE03A4B1B6803F48073002B94
:1046BC00F0D0364B1B6A03F44073FB60FB68002B95
:1046CC002ED07B685B6803F44073FA689A4227D05B
:1046DC002E4B1B6A23F44073FB602E4B01221A6095
:1046EC002C4B00221A60294AFB681362FB6803F00A
:1046FC000103002B14D0FEF76FFC38610AE0FEF7C3
:10470C006BFC02463B69D31A41F28832934201D9C1
:10471C00032336E01D4B1B6A03F00203002BEED083
:10472C001A4B1B6A23F440727B685B68174913436E
:10473C000B62FB7D012B05D1144BDB69134A23F073
:10474C008053D3617B681B6803F00203002B08D0F5
:10475C000E4B5B6823F440427B689B680B49134308
:10476C004B607B681B6803F01003002B08D0074BD1
:10477C005B6823F480027B68DB68044913434B605D
:10478C00002318461837BD4680BD00BF00100240FC
:10479C00007000404004424290B58DB000AF78608C
:1047AC00554B07F10C040FCB84E80F00534B1B88BF
:1047BC003B8100237B620023FB6200233B620023CE
:1047CC00FB610023BB627B68022B7FD0102B02D0D5
:1047DC00012B48D08BE04A4B5B68FB61484B1B6854
:1047EC0003F08073002B7FD0FB699B0C03F00F034D
:1047FC0007F13002134413F8243C3B62FB6903F4C9
:10480C008033002B18D03E4B5B685B0C03F001032C
:10481C0007F13002134413F8283C7B62FB6903F464
:10482C008033002B0DD0374A7B6AB2FBF3F23B6A24
:10483C0002FB03F3FB6204E03B6A334A02FB03F323
:10484C00FB622F4B5B6803F48003B3F5800F02D13E
:10485C00FB6ABB6248E0FB6A5B002C4AA2FB0323A9
:10486C005B08BB6240E0264B1B6AFB61FB6903F4EF
:10487C004073B3F5807F08D1FB6903F00203002B72
:10488C0003D04FF40043BB621FE0FB6903F4407399
:10489C00B3F5007F09D11A4B5B6A03F00203002BBE
:1048AC0003D049F64043BB620FE0FB6903F440734D
:1048BC00B3F5407F1AD1124B1B6803F40033002B65
:1048CC0014D04FF22443BB6210E00FE0FFF77CFEE4
:1048DC0002460B4B5B689B0B03F0030301335B003D
:1048EC00B2FBF3F3BB6202E000BF00E000BFBB6AA7
:1048FC0018463437BD4690BD585B0008685B00080D
:10490C000010024000127A0000093D00ABAAAAAACE
:10491C0080B584B000AF78600023FB607B68002B0F
:10492C0001D1012384E07B685B7CDBB2002B05D1D9
:10493C007B6800221A747868FDF74AFB7B680222B8
:10494C005A74786800F0C8F90346002B04D07B68D1
:10495C0004225A7401236BE0786800F081FA034654
:10496C00002B04D07B6804225A74012360E07B681E
:10497C001B685A687B681B6822F007025A607B68C8
:10498C009B68002B05D02C4B1B6B2B4A23F001038F
:10499C001363294BDB6A23F460727B689B6826499E
:1049AC001343CB627B685B68B3F1FF3F03D07B683A
:1049BC005B68FB600EE00120FFF7EEFEF860FB6821
:1049CC00002B04D17B6804225A74012330E0FB686D
:1049DC00013BFB607B681B689B6823F00F01FB6845
:1049EC001A0C7B681B680A439A607B681B68DB683F
:1049FC001B0C1B04FA6891B27A6812680B43D360E3
:104A0C00786800F055FA0346002B04D07B6804222A
:104A1C005A7401230CE07B680022DA737B68012254
:104A2C005A737B6801229A737B6801225A740023A3
:104A3C0018461037BD4680BD006C004090B587B05D
:104A4C0000AFF860B9607A6000237B6100233B61A2
:104A5C00FB68002B02D0BB68002B01D1012380E046
:104A6C00FB681B7C012B01D102237AE0FB6801223D
:104A7C001A74FB6802225A747B68002B13D1BB6832
:104A8C001B781A464FF4616303FB02F2BB685B7838
:104A9C0019460B461B015B1A9B001344BA689278AB
:104AAC0013447B611EE0BB681B78184600F028FAA3
:104ABC0003461A464FF4616303FB02F4BB685B7850
:104ACC00184600F01DFA03461A4613461B019B1AA2
:104ADC009B001C44BB689B78184600F011FA0346F7
:104AEC0023447B617969F86800F053F90346002B85
:104AFC0007D0FB6804225A74FB6800221A74012345
:104B0C002FE0FB681B685A68FB681B6822F00502E3
:104B1C005A60F86800F064F938613B69B3F1FF3F03
:104B2C0018D03A697B699A4214D23B6903F5A833D1
:104B3C0003F5C0733B613969F86800F06AF9034604
:104B4C00002B07D0FB6804225A74FB6800221A74ED
:104B5C00012306E0FB6801225A74FB6800221A74D8
:104B6C00002318461C37BD4690BD000080B588B0A8
:104B7C0000AFF860B9607A600023FB610023BB6171
:104B8C0000237B61FB68002B02D0BB68002B01D19A
:104B9C00012397E0FB681B7C012B01D1022391E0E0
:104BAC00FB6801221A74FB6802225A747B68002B82
:104BBC000CD1BB68DA78FB68DA73BB685A78FB688F
:104BCC005A73BB689A78FB689A731AE0BB68DB78F7
:104BDC00184600F095F903461A46FB68DA73BB6871
:104BEC005B78184600F08CF903461A46FB685A733A
:104BFC00BB689B78184600F083F903461A46FB689D
:104C0C009A73FB68DB7B1846FB68597BFB689B7BC4
:104C1C001A4600F093F903461A46FB681A73FB68B0
:104C2C001A7BBB681A70F86800F083F8F861FB69AE
:104C3C00264AA2FB0323DB0A7B617B69182B3AD93A
:104C4C007B69234AA2FB03231B09224A02FB03F3C1
:104C5C00FA69D31AFB61F969F86800F09AF803460F
:104C6C00002B07D0FB6804225A74FB6800221A74CC
:104C7C00012327E0F86800F0B3F8B861BB69B3F121
:104C8C00FF3F18D0BA69FB699A4214D2BB6903F58D
:104C9C00A83303F5C073BB61B969F86800F0B9F8C3
:104CAC000346002B07D0FB6804225A74FB680022D1
:104CBC001A74012306E0FB6801225A74FB68002277
:104CCC001A74002318462037BD4680BDC5B3A29187
:104CDC00ABAAAAAA8051010080B584B000AF78605D
:104CEC000023FB607B68002B01D101231DE07B6856
:104CFC001B685A687B681B6822F008025A60FEF732
:104D0C006BF9F86009E0FEF767F90246FB68D31A05
:104D1C00B3F57A7F01D9032307E07B681B685B68D6
:104D2C0003F00803002BEED0002318461037BD46C5
:104D3C0080BD80B487B000AF786000237B820023F5
:104D4C003B820023FB8100237B617B681B689B6992
:104D5C007B827B681B68DB69FB817B681B689B69BA
:104D6C003B827A8A3B8A9A4208D03B8A1A047B6837
:104D7C001B68DB699BB213437B6104E07B8A1A04DA
:104D8C00FB8913437B617B6918461C37BD4680BC8D
:104D9C00704780B584B000AF786039600023FB7336
:104DAC00786800F05DF80346002B02D00123FB73FA
:104DBC0011E07B681B683A68120C9A617B681B686F
:104DCC003A6892B2DA61786800F072F80346002B08
:104DDC0001D00123FB73FB7B18461037BD4680BD09
:104DEC0080B485B000AF78600023FB810023BB81C9
:104DFC007B681B681B6AFB817B681B685B6ABB81D9
:104E0C00FB891A04BB89134318461437BD4680BC72
:104E1C00704780B584B000AF786039600023FB73B5
:104E2C00786800F01DF80346002B02D00123FB73B9
:104E3C0011E07B681B683A68120C1A627B681B686D
:104E4C003A6892B25A62786800F032F80346002B46
:104E5C0001D00123FB73FB7B18461037BD4680BD88
:104E6C0080B584B000AF78600023FB60FEF7B4F827
:104E7C00F86009E0FEF7B0F80246FB68D31AB3F508
:104E8C007A7F01D903230FE07B681B685B6803F012
:104E9C002003002BEED07B681B685A687B681B686C
:104EAC0042F010025A60002318461037BD4680BDF0
:104EBC0080B584B000AF78600023FB607B681B6812
:104ECC005A687B681B6822F010025A60FEF784F85F
:104EDC00F86009E0FEF780F80246FB68D31AB3F5D8
:104EEC007A7F01D9032307E07B681B685B6803F0BA
:104EFC002003002BEED0002318461037BD4680BD92
:104F0C0080B485B000AF0346FB710023FB60FB79D6
:104F1C001B09DBB21A4613469B0013445B00FB6073
:104F2C00FB7903F00F03DAB2FB68DBB21344DBB29C
:104F3C0018461437BD4680BC7047000080B485B05D
:104F4C0000AF78600B46FB701346BB700023BB6050
:104F5C000023FB607B6803F5FA63BB60FB78022BD4
:104F6C002DD8FA7813465B001344DB009B1A2C4AAD
:104F7C00A2FB03235A08BB781A44BB681A44BB68CB
:104F8C00013B9B081A44BB68013B2649A1FB031358
:104F9C005B09D21ABB68013B2249A1FB0313DB0955
:104FAC0013441A1D204BA3FB0213D11A49080B44BE
:104FBC0099080B46DB005B1AD31AFB6029E0FA78E0
:104FCC0013465B001344DB009B1A154AA2FB032318
:104FDC005A08BB781A44BB681A44BB689B081A442D
:104FEC00BB681049A1FB03135B09D21ABB680D49BE
:104FFC00A1FB0313DB0913449A1C0B4BA3FB0213F9
:10500C00D11A49080B4499080B46DB005B1AD31ADA
:10501C00FB60FB68DBB218461437BD4680BC70479A
:10502C00398EE3381F85EB512549922480B582B027
:10503C0000AF78607B681B681B6803F00103002BD2
:10504C0027D07B681B685B6803F00103002B20D022
:10505C007B681B685B6803F00403002B0BD078683B
:10506C0000F024F87B681B686FF004025A607B68C0
:10507C0004225A7405E0786800F00FF87B6801226E
:10508C005A747B681B685A687B681B6822F00102A3
:10509C005A6000BF0837BD4680BD80B483B000AFF6
:1050AC00786000BF0C37BD4680BC704780B483B0BD
:1050BC0000AF786000BF0C37BD4680BC7047000065
:1050CC00014B1868704700BF0403002070B5002521
:1050DC000C4E0D4CA41BA410A54209D100F080FC71
:1050EC0000250A4E0A4CA41BA410A54205D170BD84
:1050FC0056F8253098470135EEE756F82530984795
:10510C000135F2E7E8720008E8720008E87200085E
:10511C00EC72000830B50024A24201D1002007E057
:10512C00035D01340D1915F8015CAB42F4D0581B2A
:10513C0030BD10B5431E0A44914200D110BD11F888
:10514C00014B03F8014FF7E703460244934200D1A9
:10515C00704703F8011BF9E738B5134B1C68A36BB8
:10516C007BB9182000F04CF8104A114BA063C0E931
:10517C000023104B012283600B2383810023C0E9A1
:10518C000423A16B0C480A694B6950430B4C04FB7C
:10519C000300A2FB04230344541C43F10005C1E9A2
:1051AC00044525F0004038BD040300200E33CDAB80
:1051BC0034126DE6ECDE05002DF451582D7F954C24
:1051CC000EB46FF0004100B59CB01DAB0290069080
:1051DC00079104910848094953F8042B059100687C
:1051EC0002A9019300F014F90022029B1A701CB062
:1051FC005DF804EB03B07047040300200802FFFFC6
:10520C00024B0146186800F04FB800BF04030020A1
:10521C0038B50546002943D051F8043C0C1F002B2F
:10522C00B8BFE41800F0ABFB1E4A1368104633B944
:10523C00636014602846BDE8384000F0A1BBA3426F
:10524C000BD921686218934201BF1A685B68521827
:10525C00226063600460EDE713465A680AB1A2420B
:10526C00FAD919685818A0420BD120680144581873
:10527C0082421960DED110685268014419605A608C
:10528C00D8E702D90C232B60D4E7206821188A4276
:10529C0001BF116852680918216062605C60C9E73F
:1052AC0038BD00BF7404002070B5CD1C25F003057B
:1052BC0008350C2D38BF0C25002D064601DBA94204
:1052CC0003D90C233360002070BD00F058FB214A39
:1052DC001468214691B9204C23681BB9304600F064
:1052EC0017FB20602946304600F012FB431C24D1EA
:1052FC000C233046336000F043FBE4E70B685B1B88
:10530C0018D40B2B0FD90B60CC18CD50304600F0B5
:10531C0037FB04F10B00231D20F00700C31AD3D078
:10532C005A42E250D0E74B688C4216BF6360136060
:10533C000C46EBE70C464968CCE7C41C24F003048C
:10534C00A04205D0211A304600F0E2FA0130CFD04D
:10535C002560DBE774040020780400202DE9F04779
:10536C008E6882469E420C469046994637D88A896A
:10537C0012F4906F31D00223256809696F1A6569A0
:10538C0005EB450595FBF3F509F101033B449D4203
:10539C0038BF1D46530530D52946FFF785FF064615
:1053AC0050B90C234FF0FF30CAF80030A38943F0FA
:1053BC004003A381BDE8F0873A462169FFF7B9FEA7
:1053CC00A38923F4906343F08003A38126613E44B8
:1053DC0026604E466561ED1BA5604E4500D94E46D4
:1053EC0032464146206800F0B1FAA36800209B1BAE
:1053FC00A36023681E442660DCE72A4600F0C1FA4D
:10540C0006460028E2D121695046FFF701FFC8E7A4
:10541C002DE9F04F1D468B899DB01F0680460C462A
:10542C0016460FD50B696BB94021FFF73DFF206085
:10543C00206128B90C23C8F800304FF0FF30C8E0C9
:10544C00402363610023099320238DF829303023F6
:10545C004FF0010B8DF82A30039537463D4615F871
:10546C00013B0BB1252B3ED1B7EB060A0BD05346B3
:10547C00324621464046FFF771FF013000F0A48010
:10548C00099B534409933B78002B00F09D8000232B
:10549C004FF0FF32CDE90523049307938DF8533079
:1054AC001A932F46052217F8011B504800F040FABA
:1054BC00049BD0B9D90644BF20228DF853201A077B
:1054CC0044BF2B228DF853202A782A2A15D02F4638
:1054DC0000200A25079A394611F8013B303B092B6D
:1054EC004DD9B8B10FE02F46B8E7404A3D46801A77
:1054FC000BFA00F018430490D3E7039A111D1268BD
:10550C000391002A01DB079204E0524243F00203AC
:10551C00079204933B782E2B0CD17B782A2B33D11A
:10552C00039B02371A1D1B680392002BB8BF4FF068
:10553C00FF3305932E4D03223978284600F0F8F9F5
:10554C0038B14023401B03FA00F0049B013703439E
:10555C0004933978062227487E1C8DF8281000F019
:10556C00E7F9002838D0244B13BB039B073323F0F7
:10557C00070308330393099B4B4409936DE705FB21
:10558C00023201200F46A6E700230A2519460137EF
:10559C000593384610F8012B303A092A03D9002B11
:1055AC00C8D00591C6E705FB012101230746F0E7AA
:1055BC0003AB00932246114B04A94046AFF3008085
:1055CC00B0F1FF3F8146D6D1A3895B063FF535AFDD
:1055DC0009981DB0BDE8F08F03AB00932246074B32
:1055EC0004A9404600F082F8EAE700BFB472000854
:1055FC00BA720008BE72000800000000695300086F
:10560C002DE9F04791461F468A680B69064693427E
:10561C00B8BF1346C9F8003091F843200C46DDF8AA
:10562C00208012B10133C9F800302368990642BFBB
:10563C00D9F800300233C9F80030256815F006059A
:10564C0007D104F1190AE368D9F800209B1AAB4280
:10565C0029DC94F843302268003318BF01239206EA
:10566C002ED404F1430239463046C047013021D0D4
:10567C002368E56803F00603042B18BF0025D9F84E
:10568C0000204FF0000908BFAD1AA368226908BFBB
:10569C0025EAE5759342C4BF9B1AED181A344D45A3
:1056AC001AD1002008E00123524639463046C04743
:1056BC00013003D14FF0FF30BDE8F0870135C2E770
:1056CC003020E11881F843005A1C94F8451022440C
:1056DC00023382F84310C4E7012322463946304690
:1056EC00C0470130E6D009F10109D8E72DE9F043B4
:1056FC0001F1430C0C46097E85B06E29174606460F
:10570C0098460C9A00F0B38022D8632936D00AD878
:10571C00002900F0B980582900F0838004F142057B
:10572C0084F8421032E0642901D06929F6D120684E
:10573C001368050603F104012AD51B681160002BC0
:10574C0003DA2D225B4284F843206F480A2239E0A9
:10575C00732900F09D8008D86F2920D07029DDD1E5
:10576C00236843F02003236003E0752917D07829C0
:10577C00D4D17823654884F8453055E0136804F19A
:10578C004205191D1B68116084F8423001238CE01E
:10579C001B6810F0400F116018BF1BB2CFE71368E5
:1057AC002568181D1060280601D51B6802E06806E4
:1057BC00FBD51B886F2914BF0A22082252480021EE
:1057CC0084F843106568002DA560C0F295802168AF
:1057DC0021F004012160002B3DD1002D40F08E8082
:1057EC006546082A0BD12368DB0708D52369626854
:1057FC009A42DEBF302305F8013C05F1FF35ACEBD6
:10580C0005032361CDF800803B4603AA21463046B0
:10581C00FFF7F6FE01304DD14FF0FF3005B0BDE87B
:10582C00F083394884F84510136821681D1D1B68E6
:10583C0015600A060BD5CA0744BF41F02001216050
:10584C001BB9226822F0200222601022B7E74D0615
:10585C0048BF9BB2EFE76546B3FBF2F102FB113395
:10586C00C35C05F8013D0B460029F5D1B9E7136877
:10587C002568181D6169106028061B6801D5196020
:10588C0002E06A06FBD51980002365462361B9E75F
:10589C001368191D11601D6862680021284600F00C
:1058AC0047F808B1401B606063682361002384F8EB
:1058BC004330A7E723692A4639463046C0470130B2
:1058CC00AAD023689B0713D4E068039B9842B8BF07
:1058DC001846A3E701234A4639463046C0470130F3
:1058EC009AD00135E368039A9B1AAB42F2DCEBE7E2
:1058FC00002504F11909F5E7002BACD1037804F16C
:10590C00420584F842306CE7C5720008D672000874
:10591C0038B50023054C054608462360FCF7E8FB28
:10592C00431C02D1236803B12B6038BD040900204D
:10593C0010B5C9B202449042034601D1002303E0E2
:10594C001C7801308C42F6D1184610BD884210B537
:10595C0001EB020307D8421E99420AD011F8014B01
:10596C0002F8014FF8E78342F5D98118D21AD342D5
:10597C0000D110BD13F8014D01F8014DF7E7704748
:10598C007047F8B5074614460E4621B9BDE8F840F5
:10599C001146FFF789BC22B9FFF73AFC2546284689
:1059AC00F8BD00F014F8A0420FD221463846FFF79C
:1059BC007BFC05460028F2D031462246FFF7B9FBA6
:1059CC0031463846FFF724FCE9E73546E7E751F85E
:1059DC00043C181F002BBCBF0B58C01870470000AC
:1059EC00F8B500BFF8BC08BC9E467047F8B500BFC0
:0859FC00F8BC08BC9E46704790
:105A0400E5B08FE68190E9BE99E6B8B8E6888F00E4
:105A1400E5BC80E5A78B000025640000E5BE97E5A2
:105A24008886EFBC9A000000E69C80E9AB98E58884
:105A340086EFBC9A00000000E696B0E7BAAAE5BD7E
:105A440095EFBC81000000002564000053636F7271
:105A54006500000073636F72653A000025640000FE
:105A64006C6966653A000000746D0000E5BE97E558
:105A740088863A00E7AD89E7BAA73A00E697B6E91F
:105A840097B42873293A0000E4BD9CE880853AE77E
:105A94008E8BE699B4E5B79D00000000E78988E69F
:105AA4009CAC3A56312E3000E5B08FE68190E9BEC9
:105AB40099E6B8B8E6888F00E6989FE79083E5A456
:105AC400A7E68898E6B8B8E6888F0000E8B7B3E898
