:020000040800F2
:100000000050002085140008A1130008A91300085F
:10001000B1130008B9130008C11300080000000064
:10002000000000000000000000000000C9130008EC
:10003000D513000800000000E1130008ED130008CC
:10004000CD140008CD140008CD140008F9130008E1
:10005000CD140008CD140008CD140008CD140008FC
:10006000CD140008CD140008CD140008CD140008EC
:10007000CD140008CD140008CD140008CD140008DC
:10008000CD140008CD140008CD140008CD140008CC
:10009000CD140008CD140008CD140008CD140008BC
:1000A000CD140008CD140008CD140008CD140008AC
:1000B000CD140008CD140008CD140008CD1400089C
:1000C000CD140008CD140008CD140008CD1400088C
:1000D000CD140008CD140008CD140008CD1400087C
:1000E000CD140008CD140008CD1400080000000055
:1000F0000000000000000000000000000000000000
:0C01000000000000000000005FF808F1A3
:10010C0010B5054C237833B9044B13B10448AFF345
:10011C0000800123237010BD84000020000000002B
:10012C00304B000808B5034B1BB103490348AFF330
:10013C00008008BD0000000088000020304B000843
:10014C0080B584B002AF01237B6001F0ADFA0023CF
:10015C00124A27210A2001F0B9FD4FF40041104842
:10016C0002F032FA0346002B11D07B68DAB200237E
:10017C0000933F233F21002001F0BCFC01F0A0FACA
:10018C007B6804337B607B687F2B02DCE5E700BF78
:10019C0000E000BF0837BD4680BD00BF704D0008B1
:1001AC00000C014080B582B000AF03463960FB8083
:1001BC003B68002B07D1FB88D9B20023154A0A20D3
:1001CC0001F084FD21E03B68012B07D1FB88D9B2FB
:1001DC000023114A0A2001F079FD16E03B68B3F1C7
:1001EC00FF3F07D1FB88D9B200230C4A0A2001F04B
:1001FC006DFD0AE03B6813F1020F06D1FB88D9B202
:10020C000023074A0A2001F061FD00BF0837BD46F4
:10021C0080BD00BFE04C0008284D0008704D000860
:10022C00984C000880B582B000AF03463960FB8063
:10023C00B7F906203B681B78C3F17F039A420BDCAD
:10024C00FB88D8B23B685B78C3F13F03D9B200237B
:10025C003A6801F03BFD00E000BF0837BD4680BDA9
:10026C0080B584B002AF78600B46FB7097F9033011
:10027C00002B15D17A681849184803F093FF002316
:10028C000093174B174A0321482001F095FD0023DA
:10029C000093134B114A0321662001F08DFD16E0EB
:1002AC00114B1B681A460C490C4803F07BFF0023CA
:1002BC0000930B4B0D4A16213C2001F07DFD0023D1
:1002CC000093074B054A1621662001F075FD00BF0F
:1002DC000837BD4680BD00BF604B0008A40000205D
:1002EC00D85F0008644B0008A0000020704B000889
:1002FC0080B586B002AFBA607B600346FB810B46CB
:10030C00BB81B7F918306FF001011846FFF74AFFAF
:10031C00B7F90E30396A1846FFF784FFB7F90C307D
:10032C00796A1846FFF77EFF002300933F237F2254
:10033C003F21002001F0DEFB0021B868FFF790FFA1
:10034C000D4B1B68BA689A420BDD0B4ABB681360F5
:10035C0000230093094B0A4A16214B2001F02CFD77
:10036C0003E00121B868FFF77BFF01F0A9F900BF9A
:10037C001037BD4680BD00BFA0000020D85F00082C
:10038C00804B000880B58EB004AFFC233B8140F25B
:10039C007D13FB803B89C8339BB2FB84FB88C8333D
:1003AC009BB2BB8401F050FE034603F00703002B05
:1003BC0001D0AE4B00E0AE4B3B6201F045FE014676
:1003CC00AC4BA3FB01239A0813469B001344CA1A97
:1003DC00002A01D0A54B00E0A54BFB6115230A3385
:1003EC009BB2BB8027237B8300237B6100233B6173
:1003FC000023FB600023FB7201F056F94FF480518F
:10040C009D4802F0E1F80346002B0FD04FF4005149
:10041C00994802F0D9F80346002B07D04FF48041DD
:10042C00954802F0D1F80346002B05D17B69002BCF
:10043C000BD101237B6108E04FF400418E4802F0A0
:10044C00C3F80346002B00F04F81B7F92620B7F90B
:10045C0004107B69052BA8BF0523CB1A9A4229DC13
:10046C00B7F926300B2B25DDB7F91A3017221A44B1
:10047C003B6A5B78C3F13F039A421BDBB7F924104C
:10048C00B7F92600FB6903933B6A0293B7F9043072
:10049C000193B7F91A3000937B69FA68FFF728FFCC
:1004AC0000BF4FF40041744802F08EF80346002B55
:1004BC00F7D11AE1B7F92420B7F904107B69052BA1
:1004CC00A8BF0523CB1A9A4229DCB7F924300B2B91
:1004DC0025DDB7F91A3017221A44FB695B78C3F192
:1004EC003F039A421BDBB7F92610B7F92400FB69CE
:1004FC0003933B6A0293B7F904300193B7F91A30AE
:10050C0000937B69FA68FFF7F3FE00BF4FF40041DC
:10051C00594802F059F80346002BF7D1E5E07B6906
:10052C00002B0FDD7B69013B544AD35CC3F12703DD
:10053C009BB27B837B6901337B617B69262B01DD5D
:10054C0000237B613B6901333B613B694C4A82FB75
:10055C0003125210DB17D31AFB600021F868FFF767
:10056C007FFE7B69002B07D0B7F91A304FF0FF31B3
:10057C001846FFF717FE17E097F90B30042BCCBF8A
:10058C0001230023DBB21A46B7F91A30114618467C
:10059C00FFF708FEFB7A0133DBB2FB7297F90B30E5
:1005AC00092B01DD0023FB72B7F92630396A184696
:1005BC00FFF738FEB7F92430F9691846FFF732FE19
:1005CC00002300933F237F223F21002001F092FA69
:1005DC00FB8C023B9BB2FB84BB8C023B9BB2BB846F
:1005EC00B7F92630002B1FDC01F02EFD0346214A03
:1005FC00A2FB0323D9081F4BA3FB01231A091346A3
:10060C009B0013449B00CA1A92B23B8913449BB2C1
:10061C00FB8401F019FD034603F00303002B01D00A
:10062C00124B00E0124B3B62B7F92430002B2BDC51
:10063C0001F00AFD03460F4AA2FB0323D9080D4B18
:10064C00A3FB01231A0913469B0013449B00CA1AEF
:10065C0092B2FB8813449BB2BB8401F0F5FC0346B9
:10066C0003F00103002B0DD0004B0CE0844D00086F
:10067C00B04D0008CDCCCCCC000C0140B84D0008DE
:10068C00676666661A4BFB61FA8CBB8CD31A9BB2FD
:10069C001AB2184B1A80174BB3F90030002B0DDD32
:1006AC00144BB3F900302E2B08DCFA8C114BB3F938
:1006BC0000309BB213449BB2FB8412E00D4BB3F998
:1006CC000030002B0DDA0B4BB3F9003013F12E0F69
:1006DC0007DBBA8C074BB3F900309BB213449BB2C7
:1006EC00BB8400F0EDFF87E600BF2837BD4680BD18
:1006FC00B04D0008B400002080B400AF284B00229D
:10070C001A60284B00221A60274B00221A60274BD4
:10071C0008221A60264B00221A60264B00221A600F
:10072C00254B5F221A60254B00221A60244B5F2256
:10073C001A60244B00221A60234B5F221A60234B51
:10074C0000221A60224B00221A60224B03221A60EC
:10075C00214B01221A60214B0C221A60204B5F2284
:10076C001A60204B00221A601F4B05221A601F4B87
:10077C0000221A601E4B00221A601E4B01221A60C6
:10078C001D4B00221A601D4B00221A601C4B0022CC
:10079C001A601C4B00221A6000BFBD4680BC70471B
:1007AC00B8000020BC000020C00000200000002089
:1007BC00C4000020C800002004000020CC00002051
:1007CC0008000020D00000200C000020D4000020E5
:1007DC00D800002010000020140000201800002079
:1007EC001C000020DC00002020000020E000002085
:1007FC00E400002024000020E8000020EC00002091
:10080C00F0000020F400002080B500AF4FF48051C0
:10081C000F4801F0D9FE0346002B01D1012314E04F
:10082C004FF400510A4801F0CFFE0346002B01D1D2
:10083C0002230AE04FF48041054801F0C5FE03464F
:10084C00002B01D1032300E00023184680BD00BF1C
:10085C00000C014080B500AF1E21322001F052FB8C
:10086C0011211E2001F04EFB12213C2001F04AFB0D
:10087C001021372001F046FB2B21192001F042FBFF
:10088C002B21642001F03EFB3421752001F03AFB52
:10089C0031210E2001F036FB1821182001F032FB1B
:1008AC0024214E2001F02EFB3921502001F02AFB8F
:1008BC000B216B2001F026FB0B21962001F022FB73
:1008CC000521052001F01EFB0721082001F01AFB71
:1008DC000C21462001F016FB38210A2001F012FBF6
:1008EC001921462001F00EFB00BF80BD80B58AB0F7
:1008FC0002AF0023BB610023FB6100237B613B1D26
:10090C0000221A605A609A60C3F80B2001F09CFB1D
:10091C000246FB69D31A7B61614B1B68002B56D1D5
:10092C0000F0C2FEFFF796FF4FF400415D4801F066
:10093C004BFE0346002B00F0AE805B4B64221A602A
:10094C00594B1A683B1D5949184603F02BFC0023E0
:10095C000093574B574A1E21072001F02DFA3A1DE0
:10096C0000230093524B1E21282001F025FA00236E
:10097C0000934F4B504A2821072001F01DFA4F4B92
:10098C001A683B1D4949184603F00CFC3A1D00231C
:10099C000093474B2821282001F00EFA00230093E6
:1009AC00434B474A3221072001F006FA3E4B1A68A6
:1009BC003B1D3E49184603F0F5FB3A1D00230093FE
:1009CC003B4B3221282001F0F7F900F079FE344B33
:1009DC001B68012B9AD100F067FE00230093344B67
:1009EC00344A1E21072001F0E7F92F4B1A683B1DF2
:1009FC002E49184603F0D6FB3A1D002300932C4BCE
:100A0C001E21482001F0D8F900230093284B2A4AD4
:100A1C002821072001F0D0F9234B1A683B1D2349EC
:100A2C00184603F0BFFB3A1D00230093204B2821EE
:100A3C00482001F0C1F9002300931D4B204A3221BC
:100A4C00072001F0B9F9184B1A683B1D17491846D5
:100A5C0003F0A8FB3A1D00230093154B32214820CC
:100A6C0001F0AAF900F02CFE164B1B68002B06D1E6
:100A7C00144B05221A604FF47A7001F0EFFAFFF76D
:100A8C00C3FE0346012B7FF441AF01F0DDFAF861A0
:100A9C00FFF732FE3AE700BF2037BD4680BD00BFEE
:100AAC00C8000020000C0140D8000020904B00082A
:100ABC00D85F0008944B00089C4B000824000020D1
:100ACC00A44B00082000002080B582B002AF00F0DB
:100ADC00EBFD002300930E4B0E4A0821002001F081
:100AEC006BF9002300930A4B0B4A2B21002001F0D9
:100AFC0063F900F0E5FD00BF4FF40041074801F039
:100B0C0063FD0346002BF7D100BFBD4680BD00BF7F
:100B1C00785E0008B04B0008C44B0008000C014084
:100B2C0080B584B002AF00237B600123FB7000F022
:100B3C00BBFD00235F4A0021002001F0C7F8002311
:100B4C0000935D4B5D4A00210A2001F035F900232A
:100B5C000093594B5A4A10210A2001F02DF900F04C
:100B6C00AFFD00F0AFFC0346DAB2564B1A70554B92
:100B7C001B78012B07D1FB78013BFB70FB78002B1A
:100B8C0001D10223FB704F4B1B78022B07D1FB7852
:100B9C000133FB70FB78032B01D10123FB70494B14
:100BAC001B78032B05D100F07FFD00F089FDFB784D
:100BBC007B60444B1B78042B01D1002375E07B68D0
:100BCC00012B0AD1FFF7BCFAFFF7DCFB00237B609B
:100BDC004FF4967001F042FA0AE07B68022B07D1C1
:100BEC00FFF784FE00237B604FF4967001F036FA19
:100BFC00FB78032B3CD0032B55DC012B02D0022BB2
:100C0C001BD050E000F050FD00232A4A00210020A8
:100C1C0001F05CF800230093274B284A00210A209E
:100C2C0001F0CAF800230093234B254A10210A2017
:100C3C0001F0C2F800F044FD36E000F035FD002371
:100C4C001C4A1021002001F041F8002300931A4B9C
:100C5C001A4A00210A2001F0AFF800230093164B2A
:100C6C00174A10210A2001F0A7F800F029FD1BE01B
:100C7C0000F01AFD00230F4A2021002001F026F875
:100C8C00002300930C4B0D4A00210A2001F094F82C
:100C9C0000230093084B0A4A10210A2001F08CF81B
:100CAC0000F00EFD00E000BF5BE718460837BD46BC
:100CBC0080BD00BFFC5F0008785E0008D04B0008C8
:100CCC00E04B0008F800002080B584B002AF01238F
:100CDC00FB7100F0E9FC0023A54A0021002000F084
:100CEC00F5FF00230093A34BA34A00210A2001F037
:100CFC0063F8002300939F4BA04A10210A2001F0B7
:100D0C005BF8002300939B4B9D4A20210A2001F0A5
:100D1C0053F800230093974B9A4A30210A2001F094
:100D2C004BF800F0CDFC00F0CDFB0346DAB2964B4D
:100D3C001A70954B1B78012B07D1FB79013BFB718A
:100D4C00FB79002B01D10623FB718F4B1B78022BF7
:100D5C0007D1FB790133FB71FB79072B01D10123FF
:100D6C00FB71894B1B78032B05D100F09DFC00F027
:100D7C00A7FCFB79F8E0FB79013B052B00F2F28034
:100D8C0001A252F823F000BFAD0D0008030E0008BD
:100D9C00590E0008AF0E0008050F00083B0F0008A5
:100DAC0000F082FC0023724A0021002000F08EFF2C
:100DBC00002300936F4B704A00210A2000F0FCFFC7
:100DCC00002300936B4B6D4A10210A2000F0F4FFB6
:100DDC0000230093674B6A4A20210A2000F0ECFFA5
:100DEC0000230093634B674A30210A2000F0E4FF94
:100DFC0000F066FCB7E000F057FC00235C4A1021C1
:100E0C00002000F063FF002300935A4B5A4A002144
:100E1C000A2000F0D1FF00230093564B574A1021B3
:100E2C000A2000F0C9FF00230093524B544A2021A2
:100E3C000A2000F0C1FF002300934E4B514A302191
:100E4C000A2000F0B9FF00F03BFC8CE000F02CFC19
:100E5C000023474A2021002000F038FF0023009394
:100E6C00444B454A00210A2000F0A6FF00230093C2
:100E7C00404B424A10210A2000F09EFF00230093B1
:100E8C003C4B3F4A20210A2000F096FF00230093A0
:100E9C00384B3C4A30210A2000F08EFF00F010FC49
:100EAC0061E000F001FC0023314A3021002000F009
:100EBC000DFF002300932F4B2F4A00210A2000F036
:100ECC007BFF002300932B4B2C4A10210A2000F0AF
:100EDC0073FF00230093274B294A20210A2000F09E
:100EEC006BFF00230093234B264A30210A2000F08D
:100EFC0063FF00F0E5FB36E000F0D6FB00231C4A54
:100F0C000021002000F0E2FE00230093194B1F4A41
:100F1C0000210A2000F050FF00230093154B1C4ABF
:100F2C0010210A2000F048FF00F0CAFB1BE000F083
:100F3C00BBFB00230E4A1021002000F0C7FE00234B
:100F4C0000930C4B114A00210A2000F035FF0023BE
:100F5C000093084B0E4A10210A2000F02DFF00F0E0
:100F6C00AFFB00E000BFDEE618460837BD4680BD8B
:100F7C00FC5F0008785E0008F44B0008FC4B00088E
:100F8C00044C0008144C0008F8000020204C000809
:100F9C00284C000880B588B000AF07F11003002280
:100FAC001A605A609A60DA602A4B9B69294A43F0AE
:100FBC0010039361274B9B6903F01003FB60FB68E4
:100FCC00244B9B69234A43F020039361214B9B697B
:100FDC0003F02003BB60BB681E4B9B691D4A43F0AA
:100FEC00080393611B4B9B6903F008037B607B68D0
:100FFC00184B9B69174A43F004039361154B9B698B
:10100C0003F004033B603B6801224FF4005112488B
:10101C0001F0F1FA4FF400533B6101237B61012392
:10102C00BB610223FB6107F1100319460A4801F06A
:10103C0047F94FF470433B6100237B610123BB6193
:10104C0007F110031946054801F03AF900BF2037A3
:10105C00BD4680BD0010024000100140000C014054
:10106C0080B500AF124B134A1A60114B124A5A60EA
:10107C000F4B00229A600E4B0022DA600C4B4FF49F
:10108C0080421A610A4B00225A61094B00229A6174
:10109C00074B0022DA61064B00221A62044801F069
:1010AC00C3FA0346002B01D000F0C5F800BF80BD89
:1010BC00FC00002000540040801A060080B588B067
:1010CC0000AF786007F1100300221A605A609A6032
:1010DC00DA607B681B68154A934223D1144B9B69D9
:1010EC00134A43F008039361114B9B6903F0080307
:1010FC00FB60FB68C0233B6112237B610323FB6114
:10110C0007F1100319460B4801F0DAF8084BDB69BC
:10111C00074A43F40013D361054BDB6903F4001356
:10112C00BB60BB6800BF2037BD4680BD005400408B
:10113C0000100240000C014080B582B000AF00F0FE
:10114C002BFF00F01BF8FFF725FF00F07BF8FFF7F3
:10115C0087FF00F052FA00F0A7FA00F0B1FAFFF79F
:10116C00B3FD78607B68022B02D1FFF7D9FCF6E760
:10117C007B68062BF3D1FFF7A7FCF0E780B594B0A2
:10118C0000AF07F1280328220021184603F03CF891
:10119C0007F1140300221A605A609A60DA601A612F
:1011AC003B1D00221A605A609A60DA600923BB6208
:1011BC004FF48033FB6200233B630123BB630123A9
:1011CC003B6402237B644FF48033BB644FF4E01325
:1011DC00FB6407F12803184601F07CFE0346002B44
:1011EC0001D000F028F80F237B610223BB610023A0
:1011FC00FB614FF480633B6200237B6207F11403B5
:10120C000221184602F0E8F80346002B01D000F04A
:10121C0012F801237B604FF40073BB603B1D184632
:10122C0002F072FA0346002B01D000F004F800BF64
:10123C005037BD4680BD80B400AF72B600BF00BF52
:10124C00FDE7000080B582B000AF3B1D00210A46CF
:10125C001A800A469A7000233B601D4B1D4A1A6087
:10126C001B4B4FF0FF325A60194B00229A60184802
:10127C0002F0C0FB0346002B01D0FFF7DCFF10236C
:10128C003B7110237B711023BB713B1D012219464E
:10129C000F4802F045FC0346002B01D0FFF7CBFFB3
:1012AC0001233B7001237B702223BB700023FB7056
:1012BC003B4601221946064802F0CAFC0346002BA5
:1012CC0001D0FFF7B8FF00BF0837BD4680BD00BF97
:1012DC00500100200028004080B584B000AF786039
:1012EC007B681B680F4A934218D101F0E7FD0E4B47
:1012FC00DB690D4A43F00063D3610B4BDB6903F0F0
:10130C000063FB60FB68094B01221A60002202217A
:10131C00032000F09EFF032000F0B7FF00BF103742
:10132C00BD4680BD00280040001002403C044242F3
:10133C0080B485B000AF154B9B69144A43F0010390
:10134C009361124B9B6903F00103BB60BB680F4BAD
:10135C00DB690E4A43F08053D3610C4BDB6903F01D
:10136C0080537B607B680A4B5B68FB60FB6823F0F7
:10137C00E063FB60FB6843F00073FB60044AFB68AE
:10138C00536000BF1437BD4680BC7047001002404C
:10139C000000014080B400AF00BFFDE780B400AF97
:1013AC0000BFFDE780B400AF00BFFDE780B400AF25
:1013BC0000BFFDE780B400AF00BFFDE780B400AF15
:1013CC0000BFBD4680BC704780B400AF00BFBD46B7
:1013DC0080BC704780B400AF00BFBD4680BC704776
:1013EC0080B500AF00F01EFE00BF80BD80B500AF21
:1013FC00024802F08DFE00BF80BD00BF50010020EE
:10140C0080B586B000AF7860144A154BD31A7B6157
:10141C007B693B61134B1B68002B02D1114B124AA9
:10142C001A60104B1A687B6813443A699A4207D2C7
:10143C0002F0F2FE03460C221A604FF0FF3309E073
:10144C00084B1B68FB60074B1A687B681344054A02
:10145C001360FB6818461837BD4680BD005000204D
:10146C0000040000640100203807002080B400AFA5
:10147C0000BFBD4680BC70470C480D490D4A002387
:10148C0002E0D458C4500433C4188C42F9D30A4A2D
:10149C000A4C002301E013600432A242FBD3FFF795
:1014AC00E5FF02F0BFFEFFF747FE7047000000208B
:1014BC0084000020406000088400002038070020D1
:1014CC00FEE7000080B582B000AF0023FB714FF443
:1014DC008051334801F078F80346002B10D11420CA
:1014EC0000F0BCFD00BF4FF480512D4801F06CF8AA
:1014FC000346002BF7D0142000F0B0FD0123FB7144
:10150C004FF40051264801F05FF80346002B10D130
:10151C00142000F0A3FD00BF4FF40051204801F04F
:10152C0053F80346002BF7D0142000F097FD02234C
:10153C00FB714FF480411A4801F046F80346002B2A
:10154C0010D1142000F08AFD00BF4FF480411448E4
:10155C0001F03AF80346002BF7D0142000F07EFD82
:10156C000323FB714FF400410D4801F02DF80346A5
:10157C00002B10D1142000F071FD00BF4FF400417E
:10158C00074801F021F80346002BF7D0142000F097
:10159C0065FD0423FB71FB7918460837BD4680BDF9
:1015AC00000C014080B584B002AF78600B46FB7034
:1015BC00FB789BB24FF0FF3200927A687821034897
:1015CC0001F076F900BF0837BD4680BDFC00002055
:1015DC0080B584B000AF0346FB710023BB810023B0
:1015EC003B73FB797B7307F10C0302211846FFF761
:1015FC00D9FF00BF1037BD4680BD80B500AFAE200F
:10160C00FFF7E6FF0220FFF7E3FF1020FFF7E0FFF4
:10161C004020FFF7DDFFB020FFF7DAFF8120FFF756
:10162C00D7FFCF20FFF7D4FFA120FFF7D1FFA620D3
:10163C00FFF7CEFFA820FFF7CBFF3F20FFF7C8FF37
:10164C00AD20FFF7C5FF8B20FFF7C2FF3320FFF75C
:10165C00BFFFC820FFF7BCFFD320FFF7B9FF002066
:10166C00FFF7B6FFD520FFF7B3FFC020FFF7B0FFA1
:10167C00D920FFF7ADFF1F20FFF7AAFFDA20FFF7F5
:10168C00A7FF1220FFF7A4FFDB20FFF7A1FF4020EC
:10169C00FFF79EFF00F008F800F012F8AF20FFF7FC
:1016AC0097FF00BF80BD000080B500AF4FF4806293
:1016BC000021024802F0A8FD00BF80BD6801002097
:1016CC0080B582B000AF154B40221A700023FB711D
:1016DC001BE0FB79503BDBB21846FFF779FF022089
:1016EC00FFF776FF1020FFF773FF0D48FB79DB0146
:1016FC000C4A13448022194602F0BAFD8121074896
:10170C00FFF750FFFB790133FB71FB79072BE0D915
:10171C0000BF00BF0837BD4680BD00BF6805002074
:10172C00690500206801002080B483B000AF034637
:10173C00FB710B46BB7113467B7197F90730002B7D
:10174C0043DBBB793F2B40D87B79002B1DD1BB7978
:10175C00DB08D8B20246FB791E49D2010A44134475
:10176C001B785AB2BB7903F00703012101FA03F38A
:10177C005BB2134359B20246FB79C8B21549D20188
:10178C000A44134402461A7020E0BB79DB08D8B235
:10179C000246FB790F49D2010A4413441B785AB212
:1017AC00BB7903F00703012101FA03F35BB2DB43BE
:1017BC005BB2134059B20246FB79C8B20549D2015B
:1017CC000A44134402461A7000E000BF0C37BD46B1
:1017DC0080BC70476801002090B482B000AF044612
:1017EC00084611461A462346FB710346BB710B464D
:1017FC007B7113463B71FB79072B5FD897F9063049
:10180C00002B5BDB3B7D002B02D07B79DB437B71B8
:10181C003B7C0133FF2202FA03F35AB297F90530ED
:10182C0013435AB23B79C3F10803FF2141FA03F386
:10183C005BB213435BB2DAB2234B1A70FA79BB7901
:10184C002249D2010A44134418781F4B1978FA79AB
:10185C00BB790140C8B21D49D2010A441344024667
:10186C001A703B7C0133FF2202FA03F35BB2DB43B9
:10187C005AB297F9053013405AB23B79C3F10803B9
:10188C006FF0FF0141FA03F35BB213405BB2DAB2C3
:10189C000D4B1A70FA79BB790C49D2010A441344E6
:1018AC001878094B1978FA79BB790143C8B2074902
:1018BC00D2010A44134402461A7000E000BF0837F4
:1018CC00BD4690BC704700BFE905002068010020B0
:1018DC00B0B586B002AF0446084611461A462346F8
:1018EC00FB710346BB710B467B7113463B71BB7995
:1018FC00DB08FB73BB7903F00703BB73BA7B3B7943
:10190C001344082B29DD7A79BB7B02FA03F3DAB294
:10191C00BC7BF979F87B97F820300193072300936F
:10192C002346FFF759FFFB7B0133D8B27A79BB7B97
:10193C00C3F1080342FA03F3DCB23A79BB7B1344DC
:10194C00DBB2093BDBB2F97997F8202001920093C6
:10195C0000232246FFF740FF15E07A79BB7B02FAA1
:10196C0003F3DCB2BA7B3B791344DBB2013BDBB251
:10197C00BD7BF979F87B97F82020019200932B46D8
:10198C002246FFF729FF00BF1037BD46B0BD90B50A
:10199C0087B002AF0446084611461A462346FB712F
:1019AC000346BB710B467B7113463B71BB79DB085D
:1019BC00FB73BB7903F00703BB737A79BB7B02FA29
:1019CC0003F3DAB2BC7BF979F87B3B7901930723FB
:1019DC0000932346FFF700FFBB7B002B14D0FB7B4F
:1019EC000133D8B27A79BB7BC3F1080342FA03F313
:1019FC00DCB2BB7B013BDBB2F9793A790192009303
:101A0C0000232246FFF7E8FE00BF1437BD4690BD09
:101A1C0090B587B002AF3A601A460346FB710B468D
:101A2C00BB7113467B7197F82030DB083B7397F83A
:101A3C00203003F00703FB720023FB7325E0002327
:101A4C00BB731BE0FA79FB7B1344D8B2BB7BDB0086
:101A5C00DAB2BB791344DCB2FA7BBB7B797901FB3C
:101A6C0003F313441A463B6813441A7897F824304E
:101A7C002146FFF78CFFBB7B0133BB73BA7B3B7BEF
:101A8C009A42DFD3FB7B0133FB73FA7B7B799A425F
:101A9C00D5D3FB7A002B28D07B799BB23A7B92B2C0
:101AAC0002FB03F33B8100237B731AE0FA797B7B07
:101ABC001344D8B23B7BDB00DAB2BB791344D9B206
:101ACC003A897B7B13441A463B6813441A78FC7A98
:101ADC0097F8243000932346FFF7FAFE7B7B013303
:101AEC007B737A7B7B799A42E0D300BF1437BD4677
:101AFC0090BD000090B587B000AF04460846114673
:101B0C001A462346FB710346BB710B467B71134689
:101B1C003B71FA797B799A421DD1BA793B799A4219
:101B2C0007D9694ABB7913703B79BB71664B1B783B
:101B3C003B71BB79FB7509E097F82820F97DFB799F
:101B4C001846FFF7F1FDFB7D0133FB75FA7D3B7900
:101B5C009A42F1D9B4E0BA793B799A421DD1FA791B
:101B6C007B799A4207D9584AFB7913707B79FB71C0
:101B7C00554B1B787B71FB79BB7509E097F82820D6
:101B8C00B979BB7D1846FFF7CFFDBB7D0133BB7523
:101B9C00BA7D7B799A42F1D992E07B799AB2FB7942
:101BAC009BB2D31A9BB2FB813B799AB2BB799BB2A5
:101BBC00D31A9BB2BB81B7F90E30002B01DD012388
:101BCC0001E04FF0FF337B81B7F90C30002B01DDC6
:101BDC00012301E04FF0FF333B81FB79BB82BB79E2
:101BEC007B8200233B82B7F90E30002BB8BF5B42DF
:101BFC009BB2FB81B7F90C30002BB8BF5B429BB298
:101C0C00BB81B7F90E20B7F90C309A422CDDFB7969
:101C1C00BB8223E0BB8ADBB27A8AD1B297F8282048
:101C2C001846FFF781FD3A8ABB8913449BB23B826D
:101C3C00B7F910305A00B7F90E309A4209DB7A8A9C
:101C4C003B8913449BB27B823A8AFB89D31A9BB2A1
:101C5C003B82BA8A7B8913449BB2BB82B7F91420AE
:101C6C007B799A42D6D12BE0BB797B8223E0BB8A6D
:101C7C00DBB27A8AD1B297F828201846FFF754FDC8
:101C8C003A8AFB8913449BB23B82B7F910305A0055
:101C9C00B7F90C309A4209DBBA8A7B8913449BB2A0
:101CAC00BB823A8ABB89D31A9BB23B827A8A3B8924
:101CBC0013449BB27B82B7F912203B799A42D6D15E
:101CCC0000BF1C37BD4690BDEA050020B0B584B0FE
:101CDC0002AF3A601A460346FB710B46BB711346C2
:101CEC007B713B685C683B681D783B685B78B979B5
:101CFC00F8797A79019200932B462246FFF788FEF9
:101D0C0000BF0837BD46B0BDB0B584B002AF3B6074
:101D1C000346FB710B46BB7113467B713B685A68DB
:101D2C007B79A3F120013B681B780733002B00DA89
:101D3C000733DB1018463B685B7800FB03F301FBB1
:101D4C0003F3D4183B685D783B681B78B979F87954
:101D5C003A7E019200932B462246FFF759FE00BFB4
:101D6C000837BD46B0BD80B483B000AF78607B68E7
:101D7C001B785BB2002B01DB012318E07B681B781E
:101D8C0003F0E003C02B01D1022310E07B681B7829
:101D9C0003F0F003E02B01D1032308E07B681B78F0
:101DAC0003F0F803F02B01D1042300E000231846C4
:101DBC000C37BD4680BC7047B0B58AB002AFBA6074
:101DCC007B600346FB730B46BB730023FB837B6872
:101DDC001B780733002B00DA0733DB10DBB27A6891
:101DEC00527802FB03F3DBB20433FB767DE0002375
:101DFC007B77FB8BBA6813441846FFF7B4FF034696
:101E0C00BB76BB7E002B78D000233B7732E07B681F
:101E1C005B683A7FF97E01FB02F213447B61FB8B1A
:101E2C00BA681344BA7E7969184602F0DDF90346A4
:101E3C00002B1CD17B691C1D7B685D787B681B7833
:101E4C00B97BF87B97F83020019200932B46224601
:101E5C00FFF7DEFD7B685A78FB7B1344FB73BB7E7C
:101E6C009AB2FB8B1344FB8301237B7707E03B7F08
:101E7C0001333B777B681B7A3A7F9A42C7D37B7FCF
:101E8C00002B32D1BB7E012B19D1FB8BBA681344CA
:101E9C001A787B68DC68B97BF87B97F83030009354
:101EAC002346FFF731FF7B68DB685A78FB7B1344D2
:101EBC00FB73BB7E9AB2FB8B1344FB8315E07B68F0
:101ECC00DA68B97BF87B97F8303000931346202200
:101EDC00FFF71AFF7B68DB685A78FB7B1344FB73B4
:101EEC00BB7E9AB2FB8B1344FB83FB8BBA68134407
:101EFC001B78002B7FF47BAF00E000BF00BF2037C6
:101F0C00BD46B0BD80B483B000AF03460A46FB802B
:101F1C001346BB80B7F90630002B35DBB7F906301A
:101F2C007F2B31DCB7F90430002B2DDBB7F90430F3
:101F3C003F2B29DCB7F90430002B00DA0733DB1018
:101F4C0018B20246B7F906301249D2010A441344BA
:101F5C001B785AB2B7F90430594203F0070301F069
:101F6C00070158BF4B421BB2194601238B405BB291
:101F7C00134359B20246B7F90630C8B20549D2012B
:101F8C000A44134402461A7000BF0C37BD4680BC8D
:101F9C00704700BF6801002080B500AF084B1B687C
:101FAC00074A43F010031360032000F047F90020A8
:101FBC0000F008F8FFF7BCF90023184680BD00BFFD
:101FCC000020024080B582B000AF7860124B1A68D6
:101FDC00124B1B7819464FF47A73B3FBF1F3B2FB37
:101FEC00F3F3184600F05FF90346002B01D00123F0
:101FFC000EE07B680F2B0AD8002279684FF0FF3077
:10200C0000F027F9064A7B681360002300E00123E7
:10201C0018460837BD4680BD28000020300000203F
:10202C002C00002080B400AF054B1B781A46054BE2
:10203C001B681344034A136000BFBD4680BC704745
:10204C0030000020EC05002080B400AF024B1B6870
:10205C001846BD4680BC7047EC05002080B584B0A6
:10206C0000AF7860FFF7F0FFB8607B68FB60FB683F
:10207C00B3F1FF3F05D00A4B1B781A46FB6813449B
:10208C00FB6000BFFFF7E0FF0246BB68D31AFA689B
:10209C009A42F7D800BF00BF1037BD4680BD00BFC5
:1020AC003000002080B485B000AF78607B6803F00E
:1020BC000703FB600C4BDB68BB60BA684FF6FF0391
:1020CC001340BB60FB681A02BB68134343F0BF6349
:1020DC0043F40033BB60044ABB68D36000BF1437C1
:1020EC00BD4680BC704700BF00ED00E080B400AF7F
:1020FC00044BDB681B0A03F007031846BD4680BC83
:10210C00704700BF00ED00E080B483B000AF034621
:10211C00FB7197F90730002B0BDBFB7903F01F02E7
:10212C00064997F907305B09012000FA02F241F8E1
:10213C00232000BF0C37BD4680BC704700E100E097
:10214C0080B483B000AF03463960FB7197F9073058
:10215C00002B0ADB3B68DAB20C4997F90730120105
:10216C00D2B20B4483F800230AE03B68DAB2084988
:10217C00FB7903F00F03043B1201D2B20B441A7625
:10218C0000BF0C37BD4680BC704700BF00E100E0CB
:10219C0000ED00E080B489B000AFF860B9607A60FF
:1021AC00FB6803F00703FB61FB69C3F10703042B16
:1021BC0028BF0423BB61FB690433062B02D9FB69DE
:1021CC00033B00E000237B614FF0FF32BB6902FA56
:1021DC0003F3DA43BB681A407B699A404FF0FF3136
:1021EC007B6901FA03F3D9437B680B401343184610
:1021FC002437BD4680BC704780B582B000AF786094
:10220C007B68013BB3F1807F01D301230FE00A4AC5
:10221C007B68013B53600F214FF0FF30FFF790FFBD
:10222C00054B00229A60044B07221A6000231846C3
:10223C000837BD4680BD00BF10E000E080B582B01D
:10224C0000AF78607868FFF72DFF00BF0837BD46F8
:10225C0080BD80B586B000AF0346B9607A60FB7371
:10226C0000237B61FFF742FF78617A68B96878696F
:10227C00FFF790FF024697F90F3011461846FFF70B
:10228C005FFF00BF1837BD4680BD80B582B000AF80
:10229C000346FB7197F907301846FFF735FF00BF6F
:1022AC000837BD4680BD80B582B000AF78607868D5
:1022BC00FFF7A2FF034618460837BD4680BD000055
:1022CC0080B48BB000AF7860396000237B62002350
:1022DC003B6269E101227B6A02FA03F3FB613B6812
:1022EC001B68FA691340BB61BA69FB699A4240F0FA
:1022FC0058813B685B689A4A93425ED0984A9342F5
:10230C0075D8984A934258D0964A93426FD8964AB9
:10231C00934252D0944A934269D8944A93424CD0F7
:10232C00924A934263D8924A934246D0904A93423F
:10233C005DD8122B2AD8122B59D801A252F823F0AF
:10234C00C7230008A1230008B3230008F5230008C5
:10235C00FB230008FB230008FB230008FB230008D9
:10236C00FB230008FB230008FB230008FB230008C9
:10237C00FB230008FB230008FB230008FB230008B9
:10238C00FB230008A9230008BD230008794A9342C7
:10239C0013D02CE03B68DB683B6229E03B68DB68D0
:1023AC0004333B6224E03B68DB6808333B621FE08C
:1023BC003B68DB680C333B621AE03B689B68002B84
:1023CC0002D104233B6213E03B689B68012B05D1CF
:1023DC0008233B627B68FA691A6109E008233B62B7
:1023EC007B68FA695A6103E000233B6200E000BF9E
:1023FC00BB69FF2B01D87B6801E07B6804337B61F0
:10240C00BB69FF2B02D87B6A9B0002E07B6A083B0E
:10241C009B003B617B691A680F213B6901FA03F34E
:10242C00DB431A40396A3B6901FA03F31A437B69AF
:10243C001A603B685B6803F08053002B00F0B1809E
:10244C004D4B9B694C4A43F0010393614A4B9B698A
:10245C0003F00103BB60BB68484A7B6A9B080233EC
:10246C0052F82330FB607B6A03F003039B000F22BE
:10247C0002FA03F3DB43FA681340FB607B68404AC3
:10248C00934213D07B683F4A93420DD07B683E4AFF
:10249C00934207D07B683D4A934201D1032306E067
:1024AC00042304E0022302E0012300E000237A6A03
:1024BC0002F0030292009340FA681343FB602F4929
:1024CC007B6A9B080233FA6841F823203B685B68FF
:1024DC0003F48033002B06D02D4B1A682C49BB69B2
:1024EC0013430B6006E02A4B1A68BB69DB4328498F
:1024FC0013400B603B685B6803F40033002B06D081
:10250C00234B5A682249BB6913434B6006E0204BAE
:10251C005A68BB69DB431E4913404B603B685B68E0
:10252C0003F48013002B06D0194B9A681849BB6929
:10253C0013438B6006E0164B9A68BB69DB43144966
:10254C0013408B603B685B6803F40013002B21D0B5
:10255C000F4BDA680E49BB691343CB6021E000BF17
:10256C000000321000003110000022100000211079
:10257C000000121000001110001002400000014079
:10258C0000080140000C0140001001400014014003
:10259C00000401400B4BDA68BB69DB43094913406B
:1025AC00CB607B6A01337B623B681A687B6A22FAD8
:1025BC0003F3002B7FF48EAE00BF00BF2C37BD465B
:1025CC0080BC70470004014080B485B000AF7860D7
:1025DC000B467B807B689A687B881340002B02D06B
:1025EC000123FB7301E00023FB73FB7B18461437BC
:1025FC00BD4680BC704780B483B000AF78600B469A
:10260C007B8013467B707B78002B03D07A887B68A9
:10261C001A6103E07B881A047B681A6100BF0C37CF
:10262C00BD4680BC7047000080B584B000AF7860B8
:10263C007B68002B01D101232BE17B6893F83D30A3
:10264C00DBB2002B06D17B68002283F83C20786833
:10265C00FEF734FD7B68242283F83D207B681B68E1
:10266C001A687B681B6822F001021A607B681B6881
:10267C001A687B681B6842F400421A607B681B680E
:10268C001A687B681B6822F400421A6000F0F6FF9F
:10269C00F8607B685B68814A934207D8FB68804A84
:1026AC00934294BF01230023DBB206E0FB687D4A12
:1026BC00934294BF01230023DBB2002B01D00123F2
:1026CC00E7E0FB68784AA2FB03239B0CBB607B68AA
:1026DC001B685B6823F03F017B681B68BA680A4380
:1026EC005A607B681B681B6A23F03F017B685B6840
:1026FC006A4A934202D8BB68013309E0BB684FF4C5
:10270C00967202FB03F3694AA2FB03239B09013374
:10271C007A6812680B4313627B681B68DB6923F4CD
:10272C004F4222F0FF027B685B685C498B4219D8F0
:10273C00FB68591E7B685B685B00B1FBF3F3591CAB
:10274C0040F6FC730B40002B0AD0FB68591E7B68CB
:10275C005B685B00B1FBF3F30133C3F30B0351E094
:10276C0004234FE07B689B68002B11D1FB68581E3B
:10277C007B6859680B465B000B44B0FBF3F30133E9
:10278C00C3F30B03002B0CBF01230023DBB212E0BD
:10279C00FB68581E7B6859680B469B000B449900DC
:1027AC000B44B0FBF3F30133C3F30B03002B0CBF4F
:1027BC0001230023DBB2002B01D0012322E07B6834
:1027CC009B68002B0ED1FB68581E7B6859680B4622
:1027DC005B000B44B0FBF3F30133C3F30B0343F483
:1027EC0000430FE0FB68581E7B6859680B469B0042
:1027FC000B4499000B44B0FBF3F30133C3F30B030D
:10280C0043F44043796809681343CB617B681B68C8
:10281C001B6823F0C0017B68DA697B681B6A1A436A
:10282C007B681B680A431A607B681B689B6823F4EF
:10283C00034323F0FF037A6811697A68D268114365
:10284C007A6812680B4393607B681B68DB6823F023
:10285C00FF017B685A697B689B691A437B681B681C
:10286C000A43DA607B681B681A687B681B6842F055
:10287C0001021A607B6800221A647B68202283F8AC
:10288C003D207B6800221A637B68002283F83E207F
:10289C00002318461037BD4680BD00BFA08601003E
:1028AC007F841E00FF083D0083DE1B43D34D621066
:1028BC0080B588B002AFF8607A601A460B467B810F
:1028CC0013463B81FFF7C0FB7861FB6893F83D3002
:1028DC00DBB2202B40F0E0807B69009319230122AE
:1028EC007049F86800F064F90346002B01D002230C
:1028FC00D3E0FB6893F83C30012B01D10223CCE0F0
:10290C00FB68012283F83C20FB681B681B6803F002
:10291C000103012B07D0FB681B681A68FB681B6856
:10292C0042F001021A60FB681B681A68FB681B689E
:10293C0022F400621A60FB68212283F83D20FB68B8
:10294C00102283F83E20FB6800221A64FB687A6828
:10295C005A62FB683A895A85FB685B8D9AB2FB68B0
:10296C001A85FB68504ADA6279897B693A6AF86899
:10297C0000F09CF80346002B01D001238DE00023CE
:10298C003B61FB681B685B693B61FB681B689B696F
:10299C003B613B6966E07A69396AF86800F0DEF9F8
:1029AC000346002B0DD0FB681B6C042B07D1FB6876
:1029BC001B681A68FB681B6842F400721A600123DA
:1029CC006BE0FB685B6A1A78FB681B681A61FB6832
:1029DC005B6A5A1CFB685A62FB685B8D9BB2013BBD
:1029EC009AB2FB685A85FB681B8D013B9AB2FB6857
:1029FC001A85FB681B685B6903F00403042B1BD16D
:102A0C00FB681B8D002B17D0FB685B6A1A78FB6880
:102A1C001B681A61FB685B6A5A1CFB685A62FB688C
:102A2C005B8D9BB2013B9AB2FB685A85FB681B8D90
:102A3C00013B9AB2FB681A857A69396AF86800F02A
:102A4C00CEF90346002B0DD0FB681B6C042B07D171
:102A5C00FB681B681A68FB681B6842F400721A60FA
:102A6C0001231AE0FB681B8D002B94D1FB681B68BB
:102A7C001A68FB681B6842F400721A60FB6820221B
:102A8C0083F83D20FB68002283F83E20FB6800227F
:102A9C0083F83C20002300E0022318461837BD467B
:102AAC0080BD00BF020010000000FFFF80B588B0A1
:102ABC0002AFF8607A603B600B467B81FB68DB6A97
:102ACC007B617B69082B06D07B69012B03D07B696A
:102ADC0013F5803F08D1FB681B681A68FB681B68FC
:102AEC0042F480721A600BE0FB681B6B122B07D14F
:102AFC00FB681B681A68FB681B6842F480721A60DA
:102B0C003B6800937B6800224FF00111F86800F0DD
:102B1C004FF80346002B0DD0FB681B681B6803F4B1
:102B2C008073B3F5807F03D1FB684FF400721A6495
:102B3C00032335E0FB681B69B3F5804F08D17B8913
:102B4C00DBB21A46FB681B6802F0FE021A611BE03E
:102B5C007B89DB11DBB203F00603DBB263F00F03FE
:102B6C00DAB2FB681B681A613B687A680E49F86830
:102B7C0000F075F80346002B01D0012310E07B898F
:102B8C00DAB2FB681B681A613B687A680749F86817
:102B9C0000F065F80346002B01D0012300E0002370
:102BAC0018461837BD4680BD080001000200010020
:102BBC0080B584B000AFF860B9603B601346FB7120
:102BCC0025E03B68B3F1FF3F21D0FFF73DFA024609
:102BDC00BB69D31A3A689A4202D33B68002B16D1D0
:102BEC00FB6800221A63FB68202283F83D20FB68F7
:102BFC00002283F83E20FB681B6C43F02002FB682C
:102C0C001A64FB68002283F83C20012323E0BB6894
:102C1C001B0CDBB2012B0DD1FB681B685B69DA4323
:102C2C00BB6813409BB2002B0CBF01230023DBB20B
:102C3C001A460CE0FB681B689B69DA43BB681340BF
:102C4C009BB2002B0CBF01230023DBB21A46FB798D
:102C5C009A42B6D0002318461037BD4680BD80B5C9
:102C6C0084B000AFF860B9607A603B6051E0FB68FB
:102C7C001B685B6903F48063B3F5806F23D1FB6839
:102C8C001B681A68FB681B6842F400721A60FB68C8
:102C9C001B686FF480625A61FB6800221A63FB6840
:102CAC00202283F83D20FB68002283F83E20FB683D
:102CBC001B6C43F00402FB681A64FB68002283F867
:102CCC003C20012346E07B68B3F1FF3F21D0FFF7A6
:102CDC00BBF902463B68D31A7A689A4202D37B68E6
:102CEC00002B16D1FB6800221A63FB68202283F8A4
:102CFC003D20FB68002283F83E20FB681B6C43F0F0
:102D0C002002FB681A64FB68002283F83C20012334
:102D1C0020E0BB681B0CDBB2012B0CD1FB681B68E1
:102D2C005B69DA43BB6813409BB2002B14BF0123D1
:102D3C000023DBB20BE0FB681B689B69DA43BB68C2
:102D4C0013409BB2002B14BF01230023DBB2002BDA
:102D5C008DD1002318461037BD4680BD80B584B098
:102D6C0000AFF860B9607A602DE0F86800F078F890
:102D7C000346002B01D001232DE0BB68B3F1FF3FCC
:102D8C0021D0FFF761F902467B68D31ABA689A42E0
:102D9C0002D3BB68002B16D1FB6800221A63FB68B8
:102DAC00202283F83D20FB68002283F83E20FB683C
:102DBC001B6C43F02002FB681A64FB68002283F84A
:102DCC003C20012307E0FB681B685B6903F0800370
:102DDC00802BCAD1002318461037BD4680BD80B564
:102DEC0084B000AFF860B9607A602DE0F86800F04C
:102DFC0037F80346002B01D001232DE0BB68B3F15B
:102E0C00FF3F21D0FFF720F902467B68D31ABA683E
:102E1C009A4202D3BB68002B16D1FB6800221A63BE
:102E2C00FB68202283F83D20FB68002283F83E20BB
:102E3C00FB681B6C43F02002FB681A64FB680022E1
:102E4C0083F83C20012307E0FB681B685B6903F0F7
:102E5C000403042BCAD1002318461037BD4680BD8D
:102E6C0080B483B000AF78607B681B685B6903F447
:102E7C008063B3F5806F1BD17B681B686FF4806235
:102E8C005A617B6800221A637B68202283F83D20FC
:102E9C007B68002283F83E207B681B6C43F00402A5
:102EAC007B681A647B68002283F83C20012300E0D5
:102EBC00002318460C37BD4680BC704780B400AF69
:102ECC00034B01221A6000BFBD4680BC704700BF97
:102EDC0020000E4280B586B000AF78607B68002B76
:102EEC0001D1012372E27B681B6803F00103002B04
:102EFC0000F08780924B5B6803F00C03042B0CD022
:102F0C008F4B5B6803F00C03082B12D18C4B5B6866
:102F1C0003F48033B3F5803F0BD1894B1B6803F46A
:102F2C000033002B6CD07B685B68002B68D10123CD
:102F3C004CE27B685B68B3F5803F06D1804B1B6825
:102F4C007F4A43F4803313602EE07B685B68002B70
:102F5C000CD17B4B1B687A4A23F480331360784B7B
:102F6C001B68774A23F4802313601DE07B685B6841
:102F7C00B3F5A02F0CD1724B1B68714A43F480231C
:102F8C0013606F4B1B686E4A43F4803313600BE085
:102F9C006B4B1B686A4A23F480331360684B1B68C5
:102FAC00674A23F4802313607B685B68002B13D083
:102FBC00FFF74AF8386108E0FFF746F802463B692C
:102FCC00D31A642B01D9032300E25D4B1B6803F475
:102FDC000033002BF0D014E0FFF736F8386108E02E
:102FEC00FFF732F802463B69D31A642B01D903234D
:102FFC00ECE1534B1B6803F40033002BF0D100E0E1
:10300C0000BF7B681B6803F00203002B63D04C4BA2
:10301C005B6803F00C03002B0BD0494B5B6803F08F
:10302C000C03082B1CD1464B5B6803F48033002B3C
:10303C0016D1434B1B6803F00203002B05D07B68B1
:10304C001B69012B01D00123C0E13D4B1B6823F010
:10305C00F8027B685B69DB00394913430B603AE08B
:10306C007B681B69002B20D0364B01221A60FEF7BF
:10307C00EBFF386108E0FEF7E7FF02463B69D31A25
:10308C00022B01D90323A1E12D4B1B6803F0020392
:10309C00002BF0D02A4B1B6823F0F8027B685B698D
:1030AC00DB00274913430B6015E0264B00221A6006
:1030BC00FEF7CAFF386108E0FEF7C6FF02463B691F
:1030CC00D31A022B01D9032380E11D4B1B6803F09B
:1030DC000203002BF0D17B681B6803F00803002B64
:1030EC003AD07B689B69002B19D0174B01221A60D0
:1030FC00FEF7AAFF386108E0FEF7A6FF02463B691F
:10310C00D31A022B01D9032360E10D4B5B6A03F048
:10311C000203002BF0D0012000F0D8FA1CE00A4B7F
:10312C0000221A60FEF790FF38610FE0FEF78CFF6B
:10313C0002463B69D31A022B08D9032346E100BF90
:10314C00001002400000424280044242924B5B6AF3
:10315C0003F00203002BE9D17B681B6803F0040326
:10316C00002B00F0A6800023FB758B4BDB6903F072
:10317C008053002B0DD1884BDB69874A43F0805379
:10318C00D361854BDB6903F08053BB60BB680123C3
:10319C00FB75824B1B6803F48073002B18D17F4B9B
:1031AC001B687E4A43F480731360FEF74DFF386151
:1031BC0008E0FEF749FF02463B69D31A642B01D99C
:1031CC00032303E1754B1B6803F48073002BF0D0D1
:1031DC007B68DB68012B06D16F4B1B6A6E4A43F090
:1031EC00010313622DE07B68DB68002B0CD16A4B6A
:1031FC001B6A694A23F001031362674B1B6A664A18
:10320C0023F0040313621CE07B68DB68052B0CD1F4
:10321C00614B1B6A604A43F0040313625E4B1B6AEA
:10322C005D4A43F0010313620BE05B4B1B6A5A4A85
:10323C0023F001031362584B1B6A574A23F0040313
:10324C0013627B68DB68002B15D0FEF7FDFE38613E
:10325C000AE0FEF7F9FE02463B69D31A41F28832C6
:10326C00934201D90323B1E04B4B1B6A03F00203D9
:10327C00002BEED014E0FEF7E7FE38610AE0FEF713
:10328C00E3FE02463B69D31A41F28832934201D9DC
:10329C0003239BE0404B1B6A03F00203002BEED18F
:1032AC00FB7D012B05D13C4BDB693B4A23F0805362
:1032BC00D3617B68DB69002B00F08780364B5B6841
:1032CC0003F00C03082B61D07B68DB69022B46D121
:1032DC00334B00221A60FEF7B7FE386108E0FEF7A8
:1032EC00B3FE02463B69D31A022B01D903236DE0CE
:1032FC00294B1B6803F00073002BF0D17B681B6A11
:10330C00B3F5803F08D1244B5B6823F400327B6813
:10331C009B68214913434B601F4B5B6823F4741269
:10332C007B68196A7B685B6A0B431B4913434B60D0
:10333C001B4B01221A60FEF787FE386108E0FEF78E
:10334C0083FE02463B69D31A022B01D903233DE0CD
:10335C00114B1B6803F00073002BF0D035E0104BC1
:10336C0000221A60FEF770FE386108E0FEF76CFE72
:10337C0002463B69D31A022B01D9032326E0064BE4
:10338C001B6803F00073002BF0D11EE07B68DB6937
:10339C00012B07D1012319E00010024000700040FE
:1033AC00600042420B4B5B68FB60FB6803F48032AD
:1033BC007B681B6A9A4206D1FB6803F470127B6827
:1033CC005B6A9A4201D0012300E0002318461837AB
:1033DC00BD4680BD0010024080B584B000AF78605F
:1033EC0039607B68002B01D10123D0E06A4B1B684C
:1033FC0003F007033A689A4210D9674B1B6823F015
:10340C00070265493B6813430B60634B1B6803F071
:10341C0007033A689A4201D00123B8E07B681B6825
:10342C0003F00203002B20D07B681B6803F004031D
:10343C00002B05D0594B5B68584A43F4E06353604A
:10344C007B681B6803F00803002B05D0534B5B68AB
:10345C00524A43F460535360504B5B6823F0F002C4
:10346C007B689B684D4913434B607B681B6803F07A
:10347C000103002B40D07B685B68012B07D1474BC5
:10348C001B6803F40033002B15D101237FE07B680C
:10349C005B68022B07D1414B1B6803F00073002BB8
:1034AC0009D1012373E03D4B1B6803F00203002B91
:1034BC0001D101236BE0394B5B6823F003027B687D
:1034CC005B68364913434B60FEF7BEFDF8600AE0BB
:1034DC00FEF7BAFD0246FB68D31A41F288329342DA
:1034EC0001D9032353E02D4B5B6803F00C027B687E
:1034FC005B689B009A42EBD1274B1B6803F00703D8
:10350C003A689A4210D2244B1B6823F007022249D6
:10351C003B6813430B60204B1B6803F007033A68AE
:10352C009A4201D0012332E07B681B6803F004034C
:10353C00002B08D0194B5B6823F4E0627B68DB68D6
:10354C00164913434B607B681B6803F00803002B80
:10355C0009D0124B5B6823F460527B681B69DB005B
:10356C000E4913434B6000F021F802460B4B5B688D
:10357C001B0903F00F030A49CB5C22FA03F3094A37
:10358C001360094B1B681846FEF71CFD00231846F8
:10359C001037BD4680BD00BF002002400010024025
:1035AC00E04D0008280000202C00002090B48AB0C8
:1035BC0000AF294B3C1D0FCB84E80F0040F20123D8
:1035CC003B800023FB610023BB6100237B62002353
:1035DC007B6100233B62214B5B68FB61FB6903F061
:1035EC000C03042B02D0082B03D02BE01C4B3B62AA
:1035FC002BE0FB699B0C03F00F0328333B4413F8BF
:10360C00243C7B61FB6903F48033002B12D0134BF9
:10361C005B685B0C03F0010328333B4413F8283C34
:10362C00BB617B690E4A03FB02F2BB69B2FBF3F38D
:10363C007B6204E07B690B4A02FB03F37B627B6ACF
:10364C003B6202E0064B3B6200BF3B6A18462837E0
:10365C00BD4690BC704700BF384C000800100240BB
:10366C0000127A0000093D0080B400AF024B1B68C9
:10367C001846BD4680BC70472800002080B500AFBE
:10368C00FFF7F2FF0246054B5B681B0A03F00703CA
:10369C000349CB5C22FA03F3184680BD00100240AC
:1036AC00F04D000880B500AFFFF7DEFF0246054B7A
:1036BC005B68DB0A03F007030349CB5C22FA03F3D4
:1036CC00184680BD00100240F04D000880B485B053
:1036DC0000AF78600A4B1B680A4AA2FB03235B0A03
:1036EC007A6802FB03F3FB6000BFFB685A1EFA60AA
:1036FC00002BF9D100BF00BF1437BD4680BC70470A
:10370C0028000020D34D621080B586B000AF7860E1
:10371C0000233B610023FB607B681B6803F0010303
:10372C00002B7DD00023FB754F4BDB6903F08053DE
:10373C00002B0DD14C4BDB694B4A43F08053D361CA
:10374C00494BDB6903F08053BB60BB680123FB75FD
:10375C00464B1B6803F48073002B18D1434B1B683A
:10376C00424A43F480731360FEF76EFC386108E044
:10377C00FEF76AFC02463B69D31A642B01D903237A
:10378C006DE03A4B1B6803F48073002BF0D0364B82
:10379C001B6A03F44073FB60FB68002B2ED07B6824
:1037AC005B6803F44073FA689A4227D02E4B1B6A6D
:1037BC0023F44073FB602E4B01221A602C4B002229
:1037CC001A60294AFB681362FB6803F00103002BA3
:1037DC0014D0FEF739FC38610AE0FEF735FC0246DE
:1037EC003B69D31A41F28832934201D9032336E064
:1037FC001D4B1B6A03F00203002BEED01A4B1B6A05
:10380C0023F440727B685B68174913430B62FB7DA2
:10381C00012B05D1144BDB69134A23F08053D36180
:10382C007B681B6803F00203002B08D00E4B5B680F
:10383C0023F440427B689B680B4913434B607B68C5
:10384C001B6803F01003002B08D0074B5B6823F4B4
:10385C0080027B68DB68044913434B6000231846E5
:10386C001837BD4680BD00BF0010024000700040FC
:10387C004004424290B58DB000AF7860584B07F1D0
:10388C000C040FCB84E80F0040F201233B81002392
:10389C007B620023FB6200233B620023FB6100235D
:1038AC00BB627B68102B0AD07B68102B00F28E80D9
:1038BC007B68012B49D07B68022B79D086E0494B81
:1038CC005B68FB61474B1B6803F08073002B7FD058
:1038DC00FB699B0C03F00F0330333B4413F8243C7F
:1038EC003B62FB6903F48033002B17D03D4B5B68C4
:1038FC005B0C03F0010330333B4413F8283C7B6230
:10390C00FB6903F48033002B0DD0374A7B6AB2FB82
:10391C00F3F23B6A02FB03F3FB6204E03B6A334ABB
:10392C0002FB03F3FB622F4B5B6803F48003B3F5DC
:10393C00800F02D1FB6ABB624AE0FB6A5B002C4A37
:10394C00A2FB03235B08BB6242E0264B1B6AFB61B4
:10395C00FB6903F44073B3F5807F08D1FB6903F076
:10396C000203002B03D04FF40043BB621FE0FB6942
:10397C0003F44073B3F5007F09D11A4B5B6A03F073
:10398C000203002B03D049F64043BB620FE0FB69F6
:10399C0003F44073B3F5407F1CD1124B1B6803F446
:1039AC000033002B16D04FF22443BB6212E011E01F
:1039BC00FFF778FE02460B4B5B689B0B03F003038F
:1039CC0001335B00B2FBF3F3BB6204E000BF02E027
:1039DC0000BF00E000BFBB6A18463437BD4690BD3F
:1039EC00484C00080010024000127A0000093D000B
:1039FC00ABAAAAAA80B584B000AF78600023FB60A4
:103A0C007B68002B01D1012384E07B685B7CDBB2FB
:103A1C00002B05D17B6800221A747868FDF75CFCDA
:103A2C007B6802225A74786800F0C8F90346002BB0
:103A3C0004D07B6804225A7401236BE0786800F090
:103A4C0081FA0346002B04D07B6804225A740123AC
:103A5C0060E07B681B685A687B681B6822F0070271
:103A6C005A607B689B68002B05D02C4B1B6B2B4A38
:103A7C0023F001031363294BDB6A23F460727B6828
:103A8C009B6826491343CB627B685B68B3F1FF3FAD
:103A9C0003D07B685B68FB600EE00120FFF7EAFE59
:103AAC00F860FB68002B04D17B6804225A74012354
:103ABC0030E0FB68013BFB607B681B689B6823F074
:103ACC000F01FB681A0C7B681B680A439A607B68C1
:103ADC001B68DB681B0C1B04FA6891B27A681268CD
:103AEC000B43D360786800F055FA0346002B04D0E2
:103AFC007B6804225A7401230CE07B680022DA7381
:103B0C007B6801225A737B6801229A737B680122BD
:103B1C005A74002318461037BD4680BD006C004017
:103B2C0090B587B000AFF860B9607A6000237B6114
:103B3C0000233B61FB68002B02D0BB68002B01D13A
:103B4C00012380E0FB681B7C012B01D102237AE06E
:103B5C00FB6801221A74FB6802225A747B68002BE2
:103B6C0013D1BB681B781A464FF4616303FB02F256
:103B7C00BB685B7819460B461B015B1A9B00134410
:103B8C00BA68927813447B611EE0BB681B781846B8
:103B9C0000F028FA03461A464FF4616303FB02F463
:103BAC00BB685B78184600F01DFA03461A461346AC
:103BBC001B019B1A9B001C44BB689B78184600F0A9
:103BCC0011FA034623447B617969F86800F053F9D4
:103BDC000346002B07D0FB6804225A74FB680022B2
:103BEC001A7401232FE0FB681B685A68FB681B687A
:103BFC0022F005025A60F86800F064F938613B69FC
:103C0C00B3F1FF3F18D03A697B699A4214D23B69F1
:103C1C0003F5A83303F5C0733B613969F86800F00C
:103C2C006AF90346002B07D0FB6804225A74FB6820
:103C3C0000221A74012306E0FB6801225A74FB6807
:103C4C0000221A74002318461C37BD4690BD000094
:103C5C0080B588B000AFF860B9607A600023FB6172
:103C6C000023BB6100237B61FB68002B02D0BB6887
:103C7C00002B01D1012397E0FB681B7C012B01D1A8
:103C8C00022391E0FB6801221A74FB6802225A7429
:103C9C007B68002B0CD1BB68DA78FB68DA73BB68E5
:103CAC005A78FB685A73BB689A78FB689A731AE067
:103CBC00BB68DB78184600F095F903461A46FB689A
:103CCC00DA73BB685B78184600F08CF903461A4629
:103CDC00FB685A73BB689B78184600F083F903465F
:103CEC001A46FB689A73FB68DB7B1846FB68597BAA
:103CFC00FB689B7B1A4600F093F903461A46FB6857
:103D0C001A73FB681A7BBB681A70F86800F083F8AA
:103D1C00F861FB69264AA2FB0323DB0A7B617B6902
:103D2C00182B3AD97B69234AA2FB03231B09224A8D
:103D3C0002FB03F3FA69D31AFB61F969F86800F026
:103D4C009AF80346002B07D0FB6804225A74FB68D0
:103D5C0000221A74012327E0F86800F0B3F8B86168
:103D6C00BB69B3F1FF3F18D0BA69FB699A4214D210
:103D7C00BB6903F5A83303F5C073BB61B969F86877
:103D8C0000F0B9F80346002B07D0FB6804225A74E4
:103D9C00FB6800221A74012306E0FB6801225A74A6
:103DAC00FB6800221A74002318462037BD4680BDDC
:103DBC00C5B3A291ABAAAAAA8051010080B584B068
:103DCC0000AF78600023FB607B68002B01D10123DE
:103DDC001DE07B681B685A687B681B6822F0080230
:103DEC005A60FEF731F9F86009E0FEF72DF902464A
:103DFC00FB68D31AB3F57A7F01D9032307E07B68FC
:103E0C001B685B6803F00803002BEED000231846F8
:103E1C001037BD4680BD80B487B000AF78600023FA
:103E2C007B8200233B820023FB8100237B617B6828
:103E3C001B689B697B827B681B68DB69FB817B68E9
:103E4C001B689B693B827A8A3B8A9A4208D03B8AE0
:103E5C001A047B681B68DB699BB213437B6104E02B
:103E6C007B8A1A04FB8913437B617B6918461C37D8
:103E7C00BD4680BC704780B584B000AF78603960B7
:103E8C000023FB73786800F05DF80346002B02D02A
:103E9C000123FB7311E07B681B683A68120C9A6172
:103EAC007B681B683A6892B2DA61786800F072F845
:103EBC000346002B01D00123FB73FB7B1846103704
:103ECC00BD4680BD80B485B000AF78600023FB8117
:103EDC000023BB817B681B681B6AFB817B681B68AA
:103EEC005B6ABB81FB891A04BB89134318461437E0
:103EFC00BD4680BC704780B584B000AF7860396037
:103F0C000023FB73786800F01DF80346002B02D0E9
:103F1C000123FB7311E07B681B683A68120C1A6270
:103F2C007B681B683A6892B25A62786800F032F883
:103F3C000346002B01D00123FB73FB7B1846103783
:103F4C00BD4680BD80B584B000AF78600023FB60B7
:103F5C00FEF77AF8F86009E0FEF776F80246FB689F
:103F6C00D31AB3F57A7F01D903230FE07B681B6862
:103F7C005B6803F02003002BEED07B681B685A684B
:103F8C007B681B6842F010025A60002318461037F9
:103F9C00BD4680BD80B584B000AF78600023FB6067
:103FAC007B681B685A687B681B6822F010025A6099
:103FBC00FEF74AF8F86009E0FEF746F80246FB689F
:103FCC00D31AB3F57A7F01D9032307E07B681B680A
:103FDC005B6803F02003002BEED00023184610374B
:103FEC00BD4680BD80B485B000AF0346FB71002395
:103FFC00FB60FB791B09DBB21A4613469B0013448A
:10400C005B00FB60FB7903F00F03DAB2FB68DBB2F9
:10401C001344DBB218461437BD4680BC7047000011
:10402C0080B485B000AF78600B46FB701346BB7054
:10403C000023BB600023FB607B6803F5FA63BB6065
:10404C00FB78022B2DD8FA7813465B001344DB0067
:10405C009B1A2C4AA2FB03235A08BB781A44BB6850
:10406C001A44BB68013B9B081A44BB68013B2649B8
:10407C00A1FB03135B09D21ABB68013B2249A1FBCC
:10408C000313DB0913441A1D204BA3FB0213D11A93
:10409C0049080B4499080B46DB005B1AD31AFB60EA
:1040AC0029E0FA7813465B001344DB009B1A154A8F
:1040BC00A2FB03235A08BB781A44BB681A44BB689A
:1040CC009B081A44BB681049A1FB03135B09D21A65
:1040DC00BB680D49A1FB0313DB0913449A1C0B4B62
:1040EC00A3FB0213D11A49080B4499080B46DB00B9
:1040FC005B1AD31AFB60FB68DBB218461437BD465B
:10410C0080BC7047398EE3381F85EB5125499224CA
:10411C0080B582B000AF78607B681B681B6803F0C9
:10412C000103002B27D07B681B685B6803F001033D
:10413C00002B20D07B681B685B6803F00403002B0A
:10414C000BD0786800F024F87B681B686FF00402D1
:10415C005A607B6804225A7405E0786800F00FF806
:10416C007B6801225A747B681B685A687B681B68E1
:10417C0022F001025A6000BF0837BD4680BD80B4F2
:10418C0083B000AF786000BF0C37BD4680BC704771
:10419C0080B483B000AF786000BF0C37BD4680BCE4
:1041AC00704700000EB46FF0004110B500249DB0B4
:1041BC001FAB02900690079104910948094953F8E6
:1041CC00042B0591006802A901931B9400F0B0F92F
:1041DC00029B1C701DB0BDE8104003B0704700BFBF
:1041EC00340000200802FFFF10B501390244904250
:1041FC0001D1002005E0037811F8014FA34201D052
:10420C00181B10BD0130F2E703460244934200D163
:10421C00704703F8011BF9E7014B1868704700BFA2
:10422C003400002070B500260C4D0D4C641BA410FE
:10423C00A64209D100F076FC00260A4D0A4C641BFC
:10424C00A410A64205D170BD55F8043B9847013621
:10425C00EEE755F8043B98470136F2E73860000862
:10426C0038600008386000083C60000870477047F0
:10427C000A44914200F1FF3300D1704710B511F898
:10428C00014B914203F8014FF9D110BD38B50546E9
:10429C00002940D051F8043C0C1F002BB8BFE41887
:1042AC0000F0DEF81C4A136833B9636014602846CA
:1042BC00BDE8384000F0DAB8A34208D920682118CC
:1042CC008B4201BF19685B6809182160EDE71A463B
:1042DC005B680BB1A342FAD911685018A0420BD1FC
:1042EC0020680144501883421160E0D118685B6863
:1042FC00084410605360DAE702D90C232B60D6E730
:10430C00206821188B4201BF19685B68091821606D
:10431C0063605460CBE738BD3407002070B50F4E96
:10432C000C463168054611B900F0A8FB30602146F7
:10433C00284600F0A3FB431C03D14FF0FF3420466A
:10434C0070BDC41C24F00304A042F8D0211A2846E6
:10435C0000F094FB0130F2D1EFE700BF30070020F2
:10436C002DE9F843CD1C25F0030508350C2D38BF7D
:10437C000C25002D064601DBA94204D90C23336021
:10438C000020BDE8F883DFF8D48000F069F8D8F895
:10439C0000301C4644BB29463046FFF7BFFF431C88
:1043AC00044658D1D8F800402746002F43D1002CA2
:1043BC004BD023683946304604EB030900F05EFB12
:1043CC00814542D1216830466D1A2946FFF7A6FF78
:1043DC0001303AD023682B442360D8F800305A6857
:1043EC0062BBC8F800700FE02268521B20D40B2A65
:1043FC0017D96119A342256018BF5960636808BFBB
:10440C00C8F8001062514B60304600F02FF804F1F0
:10441C000B00231D20F00700C21A1CBF1B1AA3504F
:10442C00AFE76268A3420CBFC8F800205A60EBE704
:10443C0023466468AEE73C467F68B6E71A465B687D
:10444C00A342FBD100235360DEE70C2330463360DC
:10445C0000F00CF894E70560D6E700BF34070020A5
:10446C000148FFF703BF00BF2C0700200148FFF7EE
:10447C00FEBE00BF2C0700202DE9F0471F468E68BA
:10448C008246BE420C4690460B682DD8B1F90C20E2
:10449C0012F4906F26D06569096905EB4505A3EB0D
:1044AC00010905EBD5757B1C4B446D109D4238BF43
:1044BC001D46530527D52946FFF752FF064660B324
:1044CC004A462169FFF7D4FEA38923F4906343F095
:1044DC008003A38126614E4426603E466561A5EBB0
:1044EC000905A560BE4200D93E46324641462068C9
:1044FC0000F0AAFA0020A3689B1BA3602368334436
:10450C002360BDE8F0872A4600F0D6FA064600285C
:10451C00E0D150462169FFF7B9FE0C23CAF80030F0
:10452C00A3894FF0FF3043F04003A381E9E700007B
:10453C002DE9F04F98468B8907461B060D4614460D
:10454C009DB010D50B6973B94021FFF709FF2860A6
:10455C00286130B90C233B604FF0FF301DB0BDE833
:10456C00F08F40236B610023099320238DF82930B1
:10457C0030234FF00109CDF80C80DFF898818DF8CD
:10458C002A3023469A4613F8012B0AB1252AF9D171
:10459C00BAEB040B0BD05B46224629463846FFF794
:1045AC006BFF013000F0A780099A5A4409929AF8DF
:1045BC000030002B00F09F8000234FF0FF32CDE93C
:1045CC0005230AF1010A049307938DF853301A93CB
:1045DC005446052214F8011B4E4800F05FFA049A69
:1045EC00D8B9D00644BF20238DF85330110744BFEF
:1045FC002B238DF853309AF800302A2B15D05446C3
:10460C0000204FF00A0C079A214611F8013B303B71
:10461C00092B4BD9B0B1079214E0A0EB080309FAAF
:10462C0003F31343A2460493D2E7039B191D1B68A3
:10463C000391002BBBBF5B4242F00202079307932E
:10464C00B8BF049223782E2B0AD163782A2B32D14F
:10465C00039B02341A1D1B68039243EAE373059310
:10466C00DFF8B4A003225046217800F017FA38B1D5
:10467C004022049BA0EB0A008240134301340493B4
:10468C0014F8011B062225488DF8281000F006FAB4
:10469C00002836D0224B1BBB039B073323F00703A8
:1046AC0008330393099B334409936AE70C460120B2
:1046BC000CFB0232A8E700234FF00A0C1946013418
:1046CC000593204610F8012B303A092A03D9002B08
:1046DC00C6D00591C4E7044601230CFB0121F0E789
:1046EC0003AB00932A4638460E4B04A9AFF3008067
:1046FC00421C0646D6D1AB895B063FF52DAF099817
:10470C002CE703AB00932A463846064B04A900F06D
:10471C007DF8EDE7046000080A6000080E600008F0
:10472C0000000000854400082DE9F0471646984625
:10473C008A680B6907469342B8BF1346336091F8F9
:10474C0043200C46DDF820900AB101333360236816
:10475C00990642BF336802333360256815F00605AD
:10476C0006D104F1190AE36832689B1AAB422BDCC0
:10477C0094F843302268003B18BF0123920630D4D2
:10478C004146384604F14302C847013023D0236820
:10479C00226903F00603042B14BF002533684FF085
:1047AC00000608BFE56804F11A0408BFED1A54F8B6
:1047BC00123C08BF25EAE5759342C4BF9B1AED185D
:1047CC00B5421AD1002008E0012352464146384632
:1047DC00C847013003D14FF0FF30BDE8F0870135F9
:1047EC00C1E73020E11881F843005A1C94F84510B9
:1047FC002244023382F84310C2E701232246414689
:10480C003846C8470130E6D00136D9E72DE9FF47D5
:10481C000F7E9146782F80460C469A460C9E01F1ED
:10482C00430207D8622F0AD8002F00F0D180582FEE
:10483C0000F0B88004F1420684F842703AE0A7F127
:10484C006303152BF6D801A151F823F0B1480008E9
:10485C00C548000841480008414800084148000884
:10486C0041480008C5480008414800084148000874
:10487C004148000841480008C3490008EF480008B7
:10488C007D4900084148000841480008E5490008F6
:10489C0041480008EF48000841480008414800081A
:1048AC008549000833681A1D1B68326004F1420602
:1048BC0084F8423001239CE033682068191D316074
:1048CC00060601D51D6803E04506FBD5B3F900507B
:1048DC00002D03DA2D236D4284F843300A23584807
:1048EC0011E021683368080653F8045B02D44906CA
:1048FC0048BFADB26F2F336014BF0A230823504852
:10490C00002184F843106668002EA66005DB216840
:10491C002E4321F0040121604BD01646B5FBF3F178
:10492C0003FB1157C75D06F8017D2F46BB420D46B0
:10493C00F4D9082B0BD12368DF0708D523696168EC
:10494C009942DEBF302306F8013C06F1FF36921B7C
:10495C0022614B4621464046CDF800A003AAFFF742
:10496C00E3FE01304AD14FF0FF3004B0BDE8F087D0
:10497C00236843F0200323607827324884F845707D
:10498C00236831681F0651F8045B02D45F0648BFE8
:10499C00ADB23160D90744BF43F0200323601DB191
:1049AC001023ADE72648E9E7236823F020032360B2
:1049BC00F6E71646BDE733682568181D6169306057
:1049CC002E061B6801D5196002E06806FBD519801C
:1049DC00002316462361BCE7336800211A1D3260A0
:1049EC001E686268304600F059F808B1801B6060A0
:1049FC0063682361002384F84330AAE732464946B2
:104A0C0040462369D0470130ADD023689B0713D4AF
:104A1C00E068039B9842B8BF1846A6E701233246CC
:104A2C0049464046D04701309DD00135E368039993
:104A3C005B1AAB42F2DCEBE7002504F11906F5E753
:104A4C001560000826600008884210B501EB0204CE
:104A5C0002D98442234607D8431EA14208D011F83C
:104A6C00012B03F8012FF8E7014602448A4200D1DA
:104A7C0010BD13F8014D02F8014DF7E738B50023CE
:104A8C00054D044608462B60FCF7BAFC431C02D1CA
:104A9C002B6803B1236038BD28070020034610B5EE
:104AAC00C9B202449342184601D1002003E00478B5
:104ABC0001338C42F6D110BD2DE9F0410746144666
:104ACC000D4621B91146BDE8F041FFF749BC2AB9A2
:104ADC00FFF7DCFB25462846BDE8F08100F01AF80C
:104AEC008442064602D8B4EB500FF4D8214638461F
:104AFC00FFF736FC804608B94546ECE7B44222463F
:104B0C00294628BF3246FFF7B3FB29463846FFF744
:104B1C00BDFBF1E751F8043C181F002BBCBF0B5830
:104B2C00C0187047F8B500BFF8BC08BC9E4670476B
:0C4B3C00F8B500BFF8BC08BC9E467047EE
:104B4800E5B08FE68190E9BE99E6B8B8E6888F00AF
:104B5800E5BC80E5A78B000025640000E5BE97E56D
:104B68008886EFBC9A000000E69C80E9AB98E5884F
:104B780086EFBC9A00000000E696B0E7BAAAE5BD49
:104B880095EFBC810000000025640000E5BE97E5B4
:104B980088863A00E7AD89E7BAA73A00E697B6E90A
:104BA80097B42873293A0000E4BD9CE880853AE769
:104BB8008E8BE699B4E5B79D00000000E78988E68A
:104BC8009CAC3A56312E3000E5B08FE68190E9BEB4
:104BD80099E6B8B8E6888F00E6989FE79083E5A441
:104BE800A7E68898E6B8B8E6888F0000E697B6E9A1
:104BF80097B40000E6B8B8E6888F0000E9A38EE60F
:104C08008987E68EA7E588B600000000E6B8A9E621
:104C1800B9BFE5BAA6000000E8AEBEE7BDAE000029
:104C2800E78988E69CACE4BFA1E681AF00000000FC
:104C380002030405060708090A0B0C0D0E0F1010D5
:104C480002030405060708090A0B0C0D0E0F1010C5
:104C580000000000000000000000FEFFF1F5F1FF79
:104C6800FFFFFF7F7E7FFCF8E0E0F8FCFCFEFFFF23
:104C7800FFFFFF7F041C000000008080818387FF06
:104C8800DF878787FFC3C381808080808080800022
:104C980015170000584C0008000000000000000034
:104CA8000000FEFFFFFBFFFFBFBFBF3F3E3FFCF81A
:104CB800F0F0F8FCFCFEFFFFFFFFFF7F040C000094
:104CC80000008080818387FFDF8F87878F8B8B81B0
:104CD800808080808080800015170000A04C00082C
:104CE80000000000000000000000FEFFFFFBFFFFC7
:104CF800BFBFBF3F3E3FFCF8F0F0F8FCFCFEFFFFF3
:104D0800FFFFFF7F040C0000000080808183878FF5
:104D18009F97878FFFC3C3818080808080808000B9
:104D280015170000E84C0008000000000000000013
:104D38000000FEFFFFFBFFFFBFBFBF3F3E3FFCF889
:104D4800F0F0F8FCFCFEFFFFFFFFFF7F040C000003
:104D580000008080818387FFDF8F878FFFC3C38137
:104D6800808080808080800015170000304D00080A
:104D7800F800FFFFC07CC1C1FFFFC0C0060E0000E5
:104D8800784D000880C08000FFFFFFFF00E0E0E0F2
:104D98003F7F7F60FFFFFFFF607F3F1F8080808035
:104DA800FFFFFFFF808080800C1700008C4D0008FB
:104DB8000004070B0E111417191C1E1F212223248F
:104DC800252526262525242322211F1E1C191714D4
:104DD800110E0B0704000000000000000000000096
:104DE8000102030406070809000000000102030489
:104DF8000000000000000000000000000000FC00AF
:104E08000000000002000000000C020C020000007C
:104E18000000000090D0BCD0BC900003000300004C
:104E28001824FE448C000302070201001824D8B09D
:104E38004C80000300010201C038E438E0000102A0
:104E48000201020208060000000000000000000045
:104E5800000000F80402000000010204000204F847
:104E680000000004020100009060F860900000005B
:104E7800010000002020FC202000000001000000AC
:104E8800000000000000080600000000202020208C
:104E980020000000000000000000000000000002E8
:104EA800000000000080601C0200040300000000F5
:104EB800F8040404F8000102020201000008FC00E2
:104EC80000000002030200001884442418000302B2
:104ED8000202020008042424D80001020202010090
:104EE80040B088FC80000000000302003C24242419
:104EF800C400010202020100F824242CC0000102AF
:104F0800020201000C04E41C04000000030000007D
:104F1800D8242424D8000102020201003844444461
:104F2800F800000302020100000010000000000069
:104F38000200000000002000000000000600000041
:104F48000020508804020000000001029090909018
:104F580090000000000000000002048850200002B9
:104F6800010000001804C42418000000020000001A
:104F7800F804E494F80001020202020000E09CF048
:104F8800800002030000030204FC2424D80002036A
:104F980002020100F80404040C00010202020100EC
:104FA80004FC0404F80002030202010004FC247457
:104FB8000C0002030202030004FC24740C00020328
:104FC80002000000F0080444CC4000010202010085
:104FD80004FC2020FC040203000003020404FC0477
:104FE8000400020203020200000404FC0404060494
:104FF8000403000004FC24D00C0402030200030292
:1050080004FC04000000020302020203FC3CC03C52
:10501800FC0003000300030004FC30C4FC0402038A
:1050280002000300F8040404F8000102020201006F
:1050380004FC24241800020302000000F8848404FD
:10504800F80001020207050004FC2464980002032A
:1050580002000302182424448C0003020202010007
:105068000C04FC040C0000020302000004FC000015
:10507800FC04000102020100047C80E01C04000022
:10508800030000001CE03CE01C00000300030000DB
:10509800049C609C0400020300030200041CE01C42
:1050A80004000002030200000C84641C04000203D4
:1050B800020203000000FE020200000007040400D0
:1050C800000E30C00000000000010200000202FED5
:1050D80000000004040700000004020400000000AF
:1050E8000000000000000000000008080808080888
:1050F8000000020000000000000000000040A0A026
:10510800C00000010202030204FC2020C0000003CA
:105118000202010000C0202060000001020202001B
:1051280000C02024FC0000010202030200C0A0A06D
:10513800C0000001020202000020F824240400023A
:10514800030202000040A0A0602000070A0A0A0427
:1051580004FC2020C0000203020003020020E40037
:105168000000000203020000000020E4000008081C
:105178000807000004FC80E020200203020003026C
:105188000404FC000000020203020200E020E02008
:10519800C00003000300030020E02020C000020339
:1051A8000200030200C02020C0000001020201002A
:1051B80020E02020C000080F0A02010000C02020C3
:1051C800E0000001020A0F0820E04020200002034E
:1051D800020000000060A0A02000000202020300FC
:1051E8000020F820000000000102020020E000205A
:1051F800E00000010202030220E02080602000009D
:10520800030100006080E0806000000300030000EC
:1052180020608060200002030003020020E020805C
:1052280060200808070100000020A060200000029C
:1052380003020200000020DE020000000007040054
:10524800000000FF00000000000F00000002DE2048
:10525800000000040700000002010204040200002C
:10526800000000000C060000F84D000800000000D7
:10527800000000000000000000000000000000F82E
:1052880000000000000000333000000000100C0691
:10529800100C0600000000000000000040C078402C
:1052A800C0784000043F04043F040400007088FCF8
:1052B80008300000001820FF211E0000F008F00050
:1052C800E018000000211C031E211E0000F00888C1
:1052D800700000001E2123241927211010160E002B
:1052E800000000000000000000000000000000E0D6
:1052F80018040200000000071820400000020418EB
:10530800E00000000040201807000000404080F046
:10531800804040000202010F01020200000000F07C
:10532800000000000101011F010101000000000050
:105338000000000080B070000000000000000000C5
:10534800000000000001010101010101000000004E
:1053580000000000003030000000000000000000E5
:1053680080601804006018060100000000E01008C2
:105378000810E000000F102020100F00001010F897
:10538800000000000020203F2020000000700808D6
:105398000888700000302824222130000030088856
:1053A800884830000018202020110E000000C0207E
:1053B80010F8000000070424243F240000F808889F
:1053C800880808000019212020110E0000E010882C
:1053D80088180000000F112020110E00003808085E
:1053E800C83808000000003F00000000007088086E
:1053F80008887000001C222121221C0000E01008EF
:105408000810E0000000312222110F00000000C047
:10541800C0000000000000303000000000000080E4
:1054280000000000000080600000000000008040D4
:1054380020100800000102040810200040404040ED
:105448004040400004040404040404000008102040
:105458004080000000201008040201000070480885
:105468000808F0000000003036010000C030C828ED
:10547800E810E0000718272423140B000000C038A8
:10548800E0000000203C23020227382008F8888822
:1054980088700000203F202020110E00C03008082E
:1054A80008083800071820202010080008F8080805
:1054B8000810E000203F202020100F0008F88888FE
:1054C800E8081000203F20202320180008F88888CA
:1054D800E8081000203F200003000000C030080842
:1054E8000838000007182020221E020008F80800CB
:1054F8000008F808203F210101213F20000808F892
:10550800080800000020203F2020000000000808B4
:10551800F8080800C08080807F00000008F888C074
:1055280028180800203F20012638200008F8080025
:1055380000000000203F20202020300008F8F8005C
:10554800F8F80800203F003F003F200008F830C06E
:105558000008F808203F200007183F00E01008085E
:105568000810E0000F10202020100F0008F808088D
:105578000808F000203F210101010000E0100808A0
:105588000810E0000F18242438504F0008F88888C5
:1055980088887000203F2000030C302000708808A5
:1055A800080838000038202121221C00180808F8B3
:1055B800080818000000203F2000000008F8080034
:1055C8000008F808001F202020201F000878880005
:1055D80000C83808000007380E010000F80800F875
:1055E8000008F800033C0700073C0300081868801F
:1055F8008068180820302C03032C30200838C80095
:10560800C83808000000203F2000000010080808E3
:10561800C83808002038262120201800000000FE85
:10562800020202000000007F40404000000C30C031
:1056380000000000000000010638C000000202025D
:10564800FE000000004040407F000000000004020F
:10565800020204000000000000000000000000003A
:10566800000000008080808080808080000202042A
:105678000000000000000000000000000000808022
:10568800808000000019242222223F2008F8008090
:1056980080000000003F112020110E000000008053
:1056A80080800000000E11202020110000000080E2
:1056B8008088F800000E112020103F200000808014
:1056C80080800000001F222222221300008080F028
:1056D800888888180020203F202000000000808053
:1056E80080808000006B94949493600008F8008098
:1056F80080800000203F210000203F2000809898F3
:10570800000000000020203F202000000000008052
:105718009898000000C08080807F000008F8000092
:1057280080808000203F24022D302000000808F8E7
:10573800000000000020203F2020000080808080A2
:1057480080808000203F20003F20003F8080008034
:1057580080800000203F210000203F200000808042
:1057680080800000001F202020201F0080800080F3
:105778008000000080FFA12020110E0000000080A2
:1057880080808000000E112020A0FF808080800093
:105798008080800020203F212000010000008080C0
:1057A800808080000033242424241900008080E0B5
:1057B800808000000000001F202000008080000082
:1057C80000808000001F202020103F208080800063
:1057D8000080808000010E30080601008080008073
:1057E800008080800F300C030C300F000080800098
:1057F800808080000020312E0E31200080808000C3
:105808000080808080818E70180601000080808072
:10581800808080000021302C222130000000000010
:10582800807C020200000000003F404000000000B1
:10583800FF00000000000000FF0000000002027CE2
:10584800800000000040403F000000000006010109
:10585800020204040000000000000000100800001C
:1058680074520008E5B08F00000000E0000000FF5F
:105878000000002040800000080403000040807FF2
:105888000000000000010E00E68190008082827E08
:105898004242807E122202FE0000C0004031000019
:1058A8003A4140445840407001093100E9BE99002E
:1058B8001010101010FF1010F0101116D01010005A
:1058C80080402018064120103F4442414040780063
:1058D800E6B8B8001060028C0008F94EC820584F8E
:1058E80048C8080004047E8140300F407F0044848B
:1058F8007F040400E6888F000008488808C83840FC
:105908004040FF2022AC20000020100C0304188027
:10591800402017182641F000E5BC80008082828272
:10592800FE8282828282FE828282800000804030F3
:105938000F0000000000FF0000000000E5A78B003A
:105948001010F01F10F00040E05847405060C000B1
:105958004022150816210000FE42424242FE000085
:10596800E9A38E000000FE021222C202C23202FE29
:105978000000000080601F0020100C030C30000F96
:105988003040F800E68987000000FC2424242526FE
:1059980024242424243C000040300F211549817F11
:1059A80000211549817F0000E68EA700101010FF26
:1059B8009020984828090E2848A818000242817F9C
:1059C8000040404242427E4242424000E588B600E2
:1059D80040504E4848FF48484840F80000FF000043
:1059E80000003E0202FF12221E000F40807F0000CE
:1059F800E697B60000FC848484FC00101010101098
:105A0800FF101000003F1010103F000001064080FA
:105A18007F000000E997B40000F8010600F01212B8
:105A280012F2020202FE000000FF0000001F111126
:105A3800111F0040807F0000E6B8A9001060028CAA
:105A48000000FE9292929292FE00000004047E01F1
:105A5800407E42427E427E42427E4000E6B9BF001E
:105A68001060028C00FE929292929292FE000000C8
:105A780004047E014448507F40407F504844400021
:105A8800E5BAA6000000FC242424FC252624FC24D6
:105A98002424040040308F80844C55252525554CFE
:105AA80080808000E8AEBE00404042CC0040A09E0E
:105AB8008282829EA02020000000003F9088404300
:105AC8002C10284641808000E7BDAE00202F29A970
